{
	"SnakeLib.sol": {
		"SnakeLib": {
			"abi": [
				{
					"inputs": [
						{
							"internalType": "address",
							"name": "owner",
							"type": "address"
						},
						{
							"internalType": "uint256",
							"name": "id",
							"type": "uint256"
						},
						{
							"components": [
								{
									"internalType": "string",
									"name": "metadata",
									"type": "string"
								},
								{
									"internalType": "string",
									"name": "title",
									"type": "string"
								},
								{
									"internalType": "string",
									"name": "start",
									"type": "string"
								},
								{
									"internalType": "string",
									"name": "directions",
									"type": "string"
								},
								{
									"internalType": "string",
									"name": "score",
									"type": "string"
								},
								{
									"internalType": "string",
									"name": "background",
									"type": "string"
								},
								{
									"internalType": "string",
									"name": "map",
									"type": "string"
								},
								{
									"internalType": "string",
									"name": "food",
									"type": "string"
								},
								{
									"internalType": "string",
									"name": "snake",
									"type": "string"
								}
							],
							"internalType": "struct SnakeLib.ColorScheme",
							"name": "scheme",
							"type": "tuple"
						},
						{
							"internalType": "string",
							"name": "frontEnd",
							"type": "string"
						},
						{
							"internalType": "uint256",
							"name": "schemeIndex",
							"type": "uint256"
						}
					],
					"name": "generateTokenURI",
					"outputs": [
						{
							"internalType": "string",
							"name": "",
							"type": "string"
						}
					],
					"stateMutability": "pure",
					"type": "function"
				}
			],
			"devdoc": {
				"kind": "dev",
				"methods": {},
				"version": 1
			},
			"evm": {
				"assembly": "    /* \"SnakeLib.sol\":168:10085  library SnakeLib {\r... */\n  dataSize(sub_0)\n  dataOffset(sub_0)\n  0x0b\n  dup3\n  dup3\n  dup3\n  codecopy\n  dup1\n  mload\n  0x00\n  byte\n  0x73\n  eq\n  tag_1\n  jumpi\n  mstore(0x00, 0x4e487b7100000000000000000000000000000000000000000000000000000000)\n  mstore(0x04, 0x00)\n  revert(0x00, 0x24)\ntag_1:\n  mstore(0x00, address)\n  0x73\n  dup2\n  mstore8\n  dup3\n  dup2\n  return\nstop\n\nsub_0: assembly {\n        /* \"SnakeLib.sol\":168:10085  library SnakeLib {\r... */\n      eq(address, deployTimeAddress())\n      mstore(0x40, 0x80)\n      jumpi(tag_1, lt(calldatasize, 0x04))\n      shr(0xe0, calldataload(0x00))\n      dup1\n      0x9ec1e280\n      eq\n      tag_2\n      jumpi\n    tag_1:\n      0x00\n      dup1\n      revert\n        /* \"SnakeLib.sol\":8389:10078  function generateTokenURI(address owner, uint id, ColorScheme memory scheme, string memory frontEnd, uint schemeIndex) public pure returns(string memory) {\r... */\n    tag_2:\n      tag_3\n      0x04\n      dup1\n      calldatasize\n      sub\n      dup2\n      add\n      swap1\n      tag_4\n      swap2\n      swap1\n      tag_5\n      jump\t// in\n    tag_4:\n      tag_6\n      jump\t// in\n    tag_3:\n      mload(0x40)\n      tag_7\n      swap2\n      swap1\n      tag_8\n      jump\t// in\n    tag_7:\n      mload(0x40)\n      dup1\n      swap2\n      sub\n      swap1\n      return\n    tag_6:\n        /* \"SnakeLib.sol\":8528:8541  string memory */\n      0x60\n        /* \"SnakeLib.sol\":8556:8578  string memory imageUrl */\n      0x00\n        /* \"SnakeLib.sol\":8581:8614  base64ImageUrl(owner, id, scheme) */\n      tag_10\n        /* \"SnakeLib.sol\":8596:8601  owner */\n      dup8\n        /* \"SnakeLib.sol\":8603:8605  id */\n      dup8\n        /* \"SnakeLib.sol\":8607:8613  scheme */\n      dup8\n        /* \"SnakeLib.sol\":8581:8595  base64ImageUrl */\n      tag_11\n        /* \"SnakeLib.sol\":8581:8614  base64ImageUrl(owner, id, scheme) */\n      jump\t// in\n    tag_10:\n        /* \"SnakeLib.sol\":8556:8614  string memory imageUrl = base64ImageUrl(owner, id, scheme) */\n      swap1\n      pop\n        /* \"SnakeLib.sol\":8625:8646  string memory htmlUrl */\n      0x00\n        /* \"SnakeLib.sol\":8649:8681  base64HtmlUrl(owner, id, scheme) */\n      tag_12\n        /* \"SnakeLib.sol\":8663:8668  owner */\n      dup9\n        /* \"SnakeLib.sol\":8670:8672  id */\n      dup9\n        /* \"SnakeLib.sol\":8674:8680  scheme */\n      dup9\n        /* \"SnakeLib.sol\":8649:8662  base64HtmlUrl */\n      tag_13\n        /* \"SnakeLib.sol\":8649:8681  base64HtmlUrl(owner, id, scheme) */\n      jump\t// in\n    tag_12:\n        /* \"SnakeLib.sol\":8625:8681  string memory htmlUrl = base64HtmlUrl(owner, id, scheme) */\n      swap1\n      pop\n        /* \"SnakeLib.sol\":8818:10038  Base64.encode(\r... */\n      tag_14\n        /* \"SnakeLib.sol\":9023:9043  Strings.toString(id) */\n      tag_15\n        /* \"SnakeLib.sol\":9040:9042  id */\n      dup9\n        /* \"SnakeLib.sol\":9023:9039  Strings.toString */\n      tag_16\n        /* \"SnakeLib.sol\":9023:9043  Strings.toString(id) */\n      jump\t// in\n    tag_15:\n        /* \"SnakeLib.sol\":9294:9302  frontEnd */\n      dup7\n        /* \"SnakeLib.sol\":9454:9462  frontEnd */\n      dup8\n        /* \"SnakeLib.sol\":9588:9617  Strings.toString(schemeIndex) */\n      tag_17\n        /* \"SnakeLib.sol\":9605:9616  schemeIndex */\n      dup9\n        /* \"SnakeLib.sol\":9588:9604  Strings.toString */\n      tag_16\n        /* \"SnakeLib.sol\":9588:9617  Strings.toString(schemeIndex) */\n      jump\t// in\n    tag_17:\n        /* \"SnakeLib.sol\":9699:9738  Strings.toHexString(uint160(owner), 20) */\n      tag_18\n        /* \"SnakeLib.sol\":9727:9732  owner */\n      dup14\n        /* \"SnakeLib.sol\":9699:9738  Strings.toHexString(uint160(owner), 20) */\n      0xffffffffffffffffffffffffffffffffffffffff\n      and\n        /* \"SnakeLib.sol\":9735:9737  20 */\n      0x14\n        /* \"SnakeLib.sol\":9699:9718  Strings.toHexString */\n      tag_19\n        /* \"SnakeLib.sol\":9699:9738  Strings.toHexString(uint160(owner), 20) */\n      jump\t// in\n    tag_18:\n        /* \"SnakeLib.sol\":9819:9827  imageUrl */\n      dup8\n        /* \"SnakeLib.sol\":9915:9922  htmlUrl */\n      dup8\n        /* \"SnakeLib.sol\":8888:9988  abi.encodePacked(\r... */\n      add(0x20, mload(0x40))\n      tag_20\n      swap8\n      swap7\n      swap6\n      swap5\n      swap4\n      swap3\n      swap2\n      swap1\n      tag_21\n      jump\t// in\n    tag_20:\n      mload(0x40)\n      0x20\n      dup2\n      dup4\n      sub\n      sub\n      dup2\n      mstore\n      swap1\n      0x40\n      mstore\n        /* \"SnakeLib.sol\":8818:8831  Base64.encode */\n      tag_22\n        /* \"SnakeLib.sol\":8818:10038  Base64.encode(\r... */\n      jump\t// in\n    tag_14:\n        /* \"SnakeLib.sol\":8733:10055  abi.encodePacked(\r... */\n      add(0x20, mload(0x40))\n      tag_23\n      swap2\n      swap1\n      tag_24\n      jump\t// in\n    tag_23:\n      mload(0x40)\n      0x20\n      dup2\n      dup4\n      sub\n      sub\n      dup2\n      mstore\n      swap1\n      0x40\n      mstore\n        /* \"SnakeLib.sol\":8692:10068  return\r... */\n      swap3\n      pop\n      pop\n      pop\n        /* \"SnakeLib.sol\":8389:10078  function generateTokenURI(address owner, uint id, ColorScheme memory scheme, string memory frontEnd, uint schemeIndex) public pure returns(string memory) {\r... */\n      swap6\n      swap5\n      pop\n      pop\n      pop\n      pop\n      pop\n      jump\t// out\n        /* \"SnakeLib.sol\":5438:5731  function base64ImageUrl(address owner, uint id, ColorScheme memory scheme) internal pure returns (string memory) {\r... */\n    tag_11:\n        /* \"SnakeLib.sol\":5536:5549  string memory */\n      0x60\n        /* \"SnakeLib.sol\":5562:5585  string memory svgBase64 */\n      0x00\n        /* \"SnakeLib.sol\":5589:5641  Base64.encode(bytes(fullSVGImage(owner,id, scheme))) */\n      tag_26\n        /* \"SnakeLib.sol\":5609:5639  fullSVGImage(owner,id, scheme) */\n      tag_27\n        /* \"SnakeLib.sol\":5622:5627  owner */\n      dup7\n        /* \"SnakeLib.sol\":5628:5630  id */\n      dup7\n        /* \"SnakeLib.sol\":5632:5638  scheme */\n      dup7\n        /* \"SnakeLib.sol\":5609:5621  fullSVGImage */\n      tag_28\n        /* \"SnakeLib.sol\":5609:5639  fullSVGImage(owner,id, scheme) */\n      jump\t// in\n    tag_27:\n        /* \"SnakeLib.sol\":5589:5602  Base64.encode */\n      tag_22\n        /* \"SnakeLib.sol\":5589:5641  Base64.encode(bytes(fullSVGImage(owner,id, scheme))) */\n      jump\t// in\n    tag_26:\n        /* \"SnakeLib.sol\":5562:5641  string memory svgBase64 =  Base64.encode(bytes(fullSVGImage(owner,id, scheme))) */\n      swap1\n      pop\n        /* \"SnakeLib.sol\":5712:5721  svgBase64 */\n      dup1\n        /* \"SnakeLib.sol\":5666:5722  abi.encodePacked(\"data:image/svg+xml;base64,\",svgBase64) */\n      add(0x20, mload(0x40))\n      tag_29\n      swap2\n      swap1\n      tag_30\n      jump\t// in\n    tag_29:\n      mload(0x40)\n      0x20\n      dup2\n      dup4\n      sub\n      sub\n      dup2\n      mstore\n      swap1\n      0x40\n      mstore\n        /* \"SnakeLib.sol\":5652:5723  return string(abi.encodePacked(\"data:image/svg+xml;base64,\",svgBase64)) */\n      swap2\n      pop\n      pop\n        /* \"SnakeLib.sol\":5438:5731  function base64ImageUrl(address owner, uint id, ColorScheme memory scheme) internal pure returns (string memory) {\r... */\n      swap4\n      swap3\n      pop\n      pop\n      pop\n      jump\t// out\n        /* \"SnakeLib.sol\":6416:6878  function base64HtmlUrl(address owner, uint id, ColorScheme memory scheme) internal pure returns (string memory) {\r... */\n    tag_13:\n        /* \"SnakeLib.sol\":6513:6526  string memory */\n      0x60\n        /* \"SnakeLib.sol\":6539:6563  string memory base64Html */\n      0x00\n        /* \"SnakeLib.sol\":6566:6790  Base64.encode(abi.encodePacked('<!DOCTYPE html><html><meta name=\"viewport\" content=\"width=device-width, initial-scale=1, maximum-scale=1\"/><meta charset=\"utf-8\"/>', pureSVGImage(owner, id, scheme), htmlScriptTag, '</html>')) */\n      tag_32\n        /* \"SnakeLib.sol\":6731:6762  pureSVGImage(owner, id, scheme) */\n      tag_33\n        /* \"SnakeLib.sol\":6744:6749  owner */\n      dup7\n        /* \"SnakeLib.sol\":6751:6753  id */\n      dup7\n        /* \"SnakeLib.sol\":6755:6761  scheme */\n      dup7\n        /* \"SnakeLib.sol\":6731:6743  pureSVGImage */\n      tag_34\n        /* \"SnakeLib.sol\":6731:6762  pureSVGImage(owner, id, scheme) */\n      jump\t// in\n    tag_33:\n        /* \"SnakeLib.sol\":6764:6777  htmlScriptTag */\n      mload(0x40)\n      dup1\n      0x80\n      add\n      0x40\n      mstore\n      dup1\n      0x57\n      dup2\n      mstore\n      0x20\n      add\n      data_9701c834e84e089352a70f2d8f5353fea8c3612b17ecf2f807a5838bfeed65fc\n      0x57\n      swap2\n      codecopy\n        /* \"SnakeLib.sol\":6580:6789  abi.encodePacked('<!DOCTYPE html><html><meta name=\"viewport\" content=\"width=device-width, initial-scale=1, maximum-scale=1\"/><meta charset=\"utf-8\"/>', pureSVGImage(owner, id, scheme), htmlScriptTag, '</html>') */\n      add(0x20, mload(0x40))\n      tag_35\n      swap3\n      swap2\n      swap1\n      tag_36\n      jump\t// in\n    tag_35:\n      mload(0x40)\n      0x20\n      dup2\n      dup4\n      sub\n      sub\n      dup2\n      mstore\n      swap1\n      0x40\n      mstore\n        /* \"SnakeLib.sol\":6566:6579  Base64.encode */\n      tag_22\n        /* \"SnakeLib.sol\":6566:6790  Base64.encode(abi.encodePacked('<!DOCTYPE html><html><meta name=\"viewport\" content=\"width=device-width, initial-scale=1, maximum-scale=1\"/><meta charset=\"utf-8\"/>', pureSVGImage(owner, id, scheme), htmlScriptTag, '</html>')) */\n      jump\t// in\n    tag_32:\n        /* \"SnakeLib.sol\":6539:6790  string memory base64Html = Base64.encode(abi.encodePacked('<!DOCTYPE html><html><meta name=\"viewport\" content=\"width=device-width, initial-scale=1, maximum-scale=1\"/><meta charset=\"utf-8\"/>', pureSVGImage(owner, id, scheme), htmlScriptTag, '</html>')) */\n      swap1\n      pop\n        /* \"SnakeLib.sol\":6858:6868  base64Html */\n      dup1\n        /* \"SnakeLib.sol\":6815:6869  abi.encodePacked(\"data:text/html;base64,\", base64Html) */\n      add(0x20, mload(0x40))\n      tag_37\n      swap2\n      swap1\n      tag_38\n      jump\t// in\n    tag_37:\n      mload(0x40)\n      0x20\n      dup2\n      dup4\n      sub\n      sub\n      dup2\n      mstore\n      swap1\n      0x40\n      mstore\n        /* \"SnakeLib.sol\":6801:6870  return string(abi.encodePacked(\"data:text/html;base64,\", base64Html)) */\n      swap2\n      pop\n      pop\n        /* \"SnakeLib.sol\":6416:6878  function base64HtmlUrl(address owner, uint id, ColorScheme memory scheme) internal pure returns (string memory) {\r... */\n      swap4\n      swap3\n      pop\n      pop\n      pop\n      jump\t// out\n        /* \"@openzeppelin/contracts/utils/Strings.sol\":328:1031  function toString(uint256 value) internal pure returns (string memory) {... */\n    tag_16:\n        /* \"@openzeppelin/contracts/utils/Strings.sol\":384:397  string memory */\n      0x60\n        /* \"@openzeppelin/contracts/utils/Strings.sol\":610:611  0 */\n      0x00\n        /* \"@openzeppelin/contracts/utils/Strings.sol\":601:606  value */\n      dup3\n        /* \"@openzeppelin/contracts/utils/Strings.sol\":601:611  value == 0 */\n      eq\n        /* \"@openzeppelin/contracts/utils/Strings.sol\":597:648  if (value == 0) {... */\n      iszero\n      tag_40\n      jumpi\n        /* \"@openzeppelin/contracts/utils/Strings.sol\":627:637  return \"0\" */\n      mload(0x40)\n      dup1\n      0x40\n      add\n      0x40\n      mstore\n      dup1\n      0x01\n      dup2\n      mstore\n      0x20\n      add\n      0x3000000000000000000000000000000000000000000000000000000000000000\n      dup2\n      mstore\n      pop\n      swap1\n      pop\n      jump(tag_39)\n        /* \"@openzeppelin/contracts/utils/Strings.sol\":597:648  if (value == 0) {... */\n    tag_40:\n        /* \"@openzeppelin/contracts/utils/Strings.sol\":657:669  uint256 temp */\n      0x00\n        /* \"@openzeppelin/contracts/utils/Strings.sol\":672:677  value */\n      dup3\n        /* \"@openzeppelin/contracts/utils/Strings.sol\":657:677  uint256 temp = value */\n      swap1\n      pop\n        /* \"@openzeppelin/contracts/utils/Strings.sol\":687:701  uint256 digits */\n      0x00\n        /* \"@openzeppelin/contracts/utils/Strings.sol\":711:786  while (temp != 0) {... */\n    tag_41:\n        /* \"@openzeppelin/contracts/utils/Strings.sol\":726:727  0 */\n      0x00\n        /* \"@openzeppelin/contracts/utils/Strings.sol\":718:722  temp */\n      dup3\n        /* \"@openzeppelin/contracts/utils/Strings.sol\":718:727  temp != 0 */\n      eq\n        /* \"@openzeppelin/contracts/utils/Strings.sol\":711:786  while (temp != 0) {... */\n      tag_42\n      jumpi\n        /* \"@openzeppelin/contracts/utils/Strings.sol\":743:751  digits++ */\n      dup1\n      dup1\n      tag_43\n      swap1\n      tag_44\n      jump\t// in\n    tag_43:\n      swap2\n      pop\n      pop\n        /* \"@openzeppelin/contracts/utils/Strings.sol\":773:775  10 */\n      0x0a\n        /* \"@openzeppelin/contracts/utils/Strings.sol\":765:775  temp /= 10 */\n      dup3\n      tag_45\n      swap2\n      swap1\n      tag_46\n      jump\t// in\n    tag_45:\n      swap2\n      pop\n        /* \"@openzeppelin/contracts/utils/Strings.sol\":711:786  while (temp != 0) {... */\n      jump(tag_41)\n    tag_42:\n        /* \"@openzeppelin/contracts/utils/Strings.sol\":795:814  bytes memory buffer */\n      0x00\n        /* \"@openzeppelin/contracts/utils/Strings.sol\":827:833  digits */\n      dup2\n        /* \"@openzeppelin/contracts/utils/Strings.sol\":817:834  new bytes(digits) */\n      0xffffffffffffffff\n      dup2\n      gt\n      iszero\n      tag_47\n      jumpi\n      tag_48\n      tag_49\n      jump\t// in\n    tag_48:\n    tag_47:\n      mload(0x40)\n      swap1\n      dup1\n      dup3\n      mstore\n      dup1\n      0x1f\n      add\n      not(0x1f)\n      and\n      0x20\n      add\n      dup3\n      add\n      0x40\n      mstore\n      dup1\n      iszero\n      tag_50\n      jumpi\n      dup2\n      0x20\n      add\n      0x01\n      dup3\n      mul\n      dup1\n      calldatasize\n      dup4\n      calldatacopy\n      dup1\n      dup3\n      add\n      swap2\n      pop\n      pop\n      swap1\n      pop\n    tag_50:\n      pop\n        /* \"@openzeppelin/contracts/utils/Strings.sol\":795:834  bytes memory buffer = new bytes(digits) */\n      swap1\n      pop\n        /* \"@openzeppelin/contracts/utils/Strings.sol\":844:994  while (value != 0) {... */\n    tag_51:\n        /* \"@openzeppelin/contracts/utils/Strings.sol\":860:861  0 */\n      0x00\n        /* \"@openzeppelin/contracts/utils/Strings.sol\":851:856  value */\n      dup6\n        /* \"@openzeppelin/contracts/utils/Strings.sol\":851:861  value != 0 */\n      eq\n        /* \"@openzeppelin/contracts/utils/Strings.sol\":844:994  while (value != 0) {... */\n      tag_52\n      jumpi\n        /* \"@openzeppelin/contracts/utils/Strings.sol\":887:888  1 */\n      0x01\n        /* \"@openzeppelin/contracts/utils/Strings.sol\":877:888  digits -= 1 */\n      dup3\n      tag_53\n      swap2\n      swap1\n      tag_54\n      jump\t// in\n    tag_53:\n      swap2\n      pop\n        /* \"@openzeppelin/contracts/utils/Strings.sol\":953:955  10 */\n      0x0a\n        /* \"@openzeppelin/contracts/utils/Strings.sol\":945:950  value */\n      dup6\n        /* \"@openzeppelin/contracts/utils/Strings.sol\":945:955  value % 10 */\n      tag_55\n      swap2\n      swap1\n      tag_56\n      jump\t// in\n    tag_55:\n        /* \"@openzeppelin/contracts/utils/Strings.sol\":932:934  48 */\n      0x30\n        /* \"@openzeppelin/contracts/utils/Strings.sol\":932:956  48 + uint256(value % 10) */\n      tag_57\n      swap2\n      swap1\n      tag_58\n      jump\t// in\n    tag_57:\n        /* \"@openzeppelin/contracts/utils/Strings.sol\":919:958  bytes1(uint8(48 + uint256(value % 10))) */\n      0xf8\n      shl\n        /* \"@openzeppelin/contracts/utils/Strings.sol\":902:908  buffer */\n      dup2\n        /* \"@openzeppelin/contracts/utils/Strings.sol\":909:915  digits */\n      dup4\n        /* \"@openzeppelin/contracts/utils/Strings.sol\":902:916  buffer[digits] */\n      dup2\n      mload\n      dup2\n      lt\n      tag_59\n      jumpi\n      tag_60\n      tag_61\n      jump\t// in\n    tag_60:\n    tag_59:\n      0x20\n      add\n      add\n        /* \"@openzeppelin/contracts/utils/Strings.sol\":902:958  buffer[digits] = bytes1(uint8(48 + uint256(value % 10))) */\n      swap1\n      not(0xffffffffffffffffffffffffffffffffffffffffffffffffffffffffffffff)\n      and\n      swap1\n      dup2\n      0x00\n      byte\n      swap1\n      mstore8\n      pop\n        /* \"@openzeppelin/contracts/utils/Strings.sol\":981:983  10 */\n      0x0a\n        /* \"@openzeppelin/contracts/utils/Strings.sol\":972:983  value /= 10 */\n      dup6\n      tag_62\n      swap2\n      swap1\n      tag_46\n      jump\t// in\n    tag_62:\n      swap5\n      pop\n        /* \"@openzeppelin/contracts/utils/Strings.sol\":844:994  while (value != 0) {... */\n      jump(tag_51)\n    tag_52:\n        /* \"@openzeppelin/contracts/utils/Strings.sol\":1017:1023  buffer */\n      dup1\n        /* \"@openzeppelin/contracts/utils/Strings.sol\":1003:1024  return string(buffer) */\n      swap4\n      pop\n      pop\n      pop\n      pop\n        /* \"@openzeppelin/contracts/utils/Strings.sol\":328:1031  function toString(uint256 value) internal pure returns (string memory) {... */\n    tag_39:\n      swap2\n      swap1\n      pop\n      jump\t// out\n        /* \"@openzeppelin/contracts/utils/Strings.sol\":1588:2029  function toHexString(uint256 value, uint256 length) internal pure returns (string memory) {... */\n    tag_19:\n        /* \"@openzeppelin/contracts/utils/Strings.sol\":1663:1676  string memory */\n      0x60\n        /* \"@openzeppelin/contracts/utils/Strings.sol\":1688:1707  bytes memory buffer */\n      0x00\n        /* \"@openzeppelin/contracts/utils/Strings.sol\":1733:1734  2 */\n      0x02\n        /* \"@openzeppelin/contracts/utils/Strings.sol\":1724:1730  length */\n      dup4\n        /* \"@openzeppelin/contracts/utils/Strings.sol\":1720:1721  2 */\n      0x02\n        /* \"@openzeppelin/contracts/utils/Strings.sol\":1720:1730  2 * length */\n      tag_64\n      swap2\n      swap1\n      tag_65\n      jump\t// in\n    tag_64:\n        /* \"@openzeppelin/contracts/utils/Strings.sol\":1720:1734  2 * length + 2 */\n      tag_66\n      swap2\n      swap1\n      tag_58\n      jump\t// in\n    tag_66:\n        /* \"@openzeppelin/contracts/utils/Strings.sol\":1710:1735  new bytes(2 * length + 2) */\n      0xffffffffffffffff\n      dup2\n      gt\n      iszero\n      tag_67\n      jumpi\n      tag_68\n      tag_49\n      jump\t// in\n    tag_68:\n    tag_67:\n      mload(0x40)\n      swap1\n      dup1\n      dup3\n      mstore\n      dup1\n      0x1f\n      add\n      not(0x1f)\n      and\n      0x20\n      add\n      dup3\n      add\n      0x40\n      mstore\n      dup1\n      iszero\n      tag_69\n      jumpi\n      dup2\n      0x20\n      add\n      0x01\n      dup3\n      mul\n      dup1\n      calldatasize\n      dup4\n      calldatacopy\n      dup1\n      dup3\n      add\n      swap2\n      pop\n      pop\n      swap1\n      pop\n    tag_69:\n      pop\n        /* \"@openzeppelin/contracts/utils/Strings.sol\":1688:1735  bytes memory buffer = new bytes(2 * length + 2) */\n      swap1\n      pop\n        /* \"@openzeppelin/contracts/utils/Strings.sol\":1745:1760  buffer[0] = \"0\" */\n      0x3000000000000000000000000000000000000000000000000000000000000000\n        /* \"@openzeppelin/contracts/utils/Strings.sol\":1745:1751  buffer */\n      dup2\n        /* \"@openzeppelin/contracts/utils/Strings.sol\":1752:1753  0 */\n      0x00\n        /* \"@openzeppelin/contracts/utils/Strings.sol\":1745:1754  buffer[0] */\n      dup2\n      mload\n      dup2\n      lt\n      tag_70\n      jumpi\n      tag_71\n      tag_61\n      jump\t// in\n    tag_71:\n    tag_70:\n      0x20\n      add\n      add\n        /* \"@openzeppelin/contracts/utils/Strings.sol\":1745:1760  buffer[0] = \"0\" */\n      swap1\n      not(0xffffffffffffffffffffffffffffffffffffffffffffffffffffffffffffff)\n      and\n      swap1\n      dup2\n      0x00\n      byte\n      swap1\n      mstore8\n      pop\n        /* \"@openzeppelin/contracts/utils/Strings.sol\":1770:1785  buffer[1] = \"x\" */\n      0x7800000000000000000000000000000000000000000000000000000000000000\n        /* \"@openzeppelin/contracts/utils/Strings.sol\":1770:1776  buffer */\n      dup2\n        /* \"@openzeppelin/contracts/utils/Strings.sol\":1777:1778  1 */\n      0x01\n        /* \"@openzeppelin/contracts/utils/Strings.sol\":1770:1779  buffer[1] */\n      dup2\n      mload\n      dup2\n      lt\n      tag_72\n      jumpi\n      tag_73\n      tag_61\n      jump\t// in\n    tag_73:\n    tag_72:\n      0x20\n      add\n      add\n        /* \"@openzeppelin/contracts/utils/Strings.sol\":1770:1785  buffer[1] = \"x\" */\n      swap1\n      not(0xffffffffffffffffffffffffffffffffffffffffffffffffffffffffffffff)\n      and\n      swap1\n      dup2\n      0x00\n      byte\n      swap1\n      mstore8\n      pop\n        /* \"@openzeppelin/contracts/utils/Strings.sol\":1800:1809  uint256 i */\n      0x00\n        /* \"@openzeppelin/contracts/utils/Strings.sol\":1825:1826  1 */\n      0x01\n        /* \"@openzeppelin/contracts/utils/Strings.sol\":1816:1822  length */\n      dup5\n        /* \"@openzeppelin/contracts/utils/Strings.sol\":1812:1813  2 */\n      0x02\n        /* \"@openzeppelin/contracts/utils/Strings.sol\":1812:1822  2 * length */\n      tag_77\n      swap2\n      swap1\n      tag_65\n      jump\t// in\n    tag_77:\n        /* \"@openzeppelin/contracts/utils/Strings.sol\":1812:1826  2 * length + 1 */\n      tag_78\n      swap2\n      swap1\n      tag_58\n      jump\t// in\n    tag_78:\n        /* \"@openzeppelin/contracts/utils/Strings.sol\":1800:1826  uint256 i = 2 * length + 1 */\n      swap1\n      pop\n        /* \"@openzeppelin/contracts/utils/Strings.sol\":1795:1927  for (uint256 i = 2 * length + 1; i > 1; --i) {... */\n    tag_74:\n        /* \"@openzeppelin/contracts/utils/Strings.sol\":1832:1833  1 */\n      0x01\n        /* \"@openzeppelin/contracts/utils/Strings.sol\":1828:1829  i */\n      dup2\n        /* \"@openzeppelin/contracts/utils/Strings.sol\":1828:1833  i > 1 */\n      gt\n        /* \"@openzeppelin/contracts/utils/Strings.sol\":1795:1927  for (uint256 i = 2 * length + 1; i > 1; --i) {... */\n      iszero\n      tag_75\n      jumpi\n        /* \"@openzeppelin/contracts/utils/Strings.sol\":1866:1878  _HEX_SYMBOLS */\n      0x3031323334353637383961626364656600000000000000000000000000000000\n        /* \"@openzeppelin/contracts/utils/Strings.sol\":1887:1890  0xf */\n      0x0f\n        /* \"@openzeppelin/contracts/utils/Strings.sol\":1879:1884  value */\n      dup7\n        /* \"@openzeppelin/contracts/utils/Strings.sol\":1879:1890  value & 0xf */\n      and\n        /* \"@openzeppelin/contracts/utils/Strings.sol\":1866:1891  _HEX_SYMBOLS[value & 0xf] */\n      0x10\n      dup2\n      lt\n      tag_79\n      jumpi\n      tag_80\n      tag_61\n      jump\t// in\n    tag_80:\n    tag_79:\n      byte\n      0xf8\n      shl\n        /* \"@openzeppelin/contracts/utils/Strings.sol\":1854:1860  buffer */\n      dup3\n        /* \"@openzeppelin/contracts/utils/Strings.sol\":1861:1862  i */\n      dup3\n        /* \"@openzeppelin/contracts/utils/Strings.sol\":1854:1863  buffer[i] */\n      dup2\n      mload\n      dup2\n      lt\n      tag_81\n      jumpi\n      tag_82\n      tag_61\n      jump\t// in\n    tag_82:\n    tag_81:\n      0x20\n      add\n      add\n        /* \"@openzeppelin/contracts/utils/Strings.sol\":1854:1891  buffer[i] = _HEX_SYMBOLS[value & 0xf] */\n      swap1\n      not(0xffffffffffffffffffffffffffffffffffffffffffffffffffffffffffffff)\n      and\n      swap1\n      dup2\n      0x00\n      byte\n      swap1\n      mstore8\n      pop\n        /* \"@openzeppelin/contracts/utils/Strings.sol\":1915:1916  4 */\n      0x04\n        /* \"@openzeppelin/contracts/utils/Strings.sol\":1905:1916  value >>= 4 */\n      dup6\n      swap1\n      shr\n      swap5\n      pop\n        /* \"@openzeppelin/contracts/utils/Strings.sol\":1835:1838  --i */\n      dup1\n      tag_83\n      swap1\n      tag_84\n      jump\t// in\n    tag_83:\n      swap1\n      pop\n        /* \"@openzeppelin/contracts/utils/Strings.sol\":1795:1927  for (uint256 i = 2 * length + 1; i > 1; --i) {... */\n      jump(tag_74)\n    tag_75:\n      pop\n        /* \"@openzeppelin/contracts/utils/Strings.sol\":1953:1954  0 */\n      0x00\n        /* \"@openzeppelin/contracts/utils/Strings.sol\":1944:1949  value */\n      dup5\n        /* \"@openzeppelin/contracts/utils/Strings.sol\":1944:1954  value == 0 */\n      eq\n        /* \"@openzeppelin/contracts/utils/Strings.sol\":1936:1991  require(value == 0, \"Strings: hex length insufficient\") */\n      tag_85\n      jumpi\n      mload(0x40)\n      0x08c379a000000000000000000000000000000000000000000000000000000000\n      dup2\n      mstore\n      0x04\n      add\n      tag_86\n      swap1\n      tag_87\n      jump\t// in\n    tag_86:\n      mload(0x40)\n      dup1\n      swap2\n      sub\n      swap1\n      revert\n    tag_85:\n        /* \"@openzeppelin/contracts/utils/Strings.sol\":2015:2021  buffer */\n      dup1\n        /* \"@openzeppelin/contracts/utils/Strings.sol\":2001:2022  return string(buffer) */\n      swap2\n      pop\n      pop\n        /* \"@openzeppelin/contracts/utils/Strings.sol\":1588:2029  function toHexString(uint256 value, uint256 length) internal pure returns (string memory) {... */\n      swap3\n      swap2\n      pop\n      pop\n      jump\t// out\n        /* \"@openzeppelin/contracts/utils/Base64.sol\":505:3488  function encode(bytes memory data) internal pure returns (string memory) {... */\n    tag_22:\n        /* \"@openzeppelin/contracts/utils/Base64.sol\":563:576  string memory */\n      0x60\n        /* \"@openzeppelin/contracts/utils/Base64.sol\":810:811  0 */\n      0x00\n        /* \"@openzeppelin/contracts/utils/Base64.sol\":795:799  data */\n      dup3\n        /* \"@openzeppelin/contracts/utils/Base64.sol\":795:806  data.length */\n      mload\n        /* \"@openzeppelin/contracts/utils/Base64.sol\":795:811  data.length == 0 */\n      eq\n        /* \"@openzeppelin/contracts/utils/Base64.sol\":791:822  if (data.length == 0) return \"\" */\n      iszero\n      tag_89\n      jumpi\n        /* \"@openzeppelin/contracts/utils/Base64.sol\":813:822  return \"\" */\n      mload(0x40)\n      dup1\n      0x20\n      add\n      0x40\n      mstore\n      dup1\n      0x00\n      dup2\n      mstore\n      pop\n      swap1\n      pop\n      jump(tag_88)\n        /* \"@openzeppelin/contracts/utils/Base64.sol\":791:822  if (data.length == 0) return \"\" */\n    tag_89:\n        /* \"@openzeppelin/contracts/utils/Base64.sol\":872:891  string memory table */\n      0x00\n        /* \"@openzeppelin/contracts/utils/Base64.sol\":894:900  _TABLE */\n      mload(0x40)\n      dup1\n      0x60\n      add\n      0x40\n      mstore\n      dup1\n      0x40\n      dup2\n      mstore\n      0x20\n      add\n      data_84d8a590de33e00cbdc16e1f28c3506f5ec15c599fab9a6a4bcd575cc2f110ce\n      0x40\n      swap2\n      codecopy\n        /* \"@openzeppelin/contracts/utils/Base64.sol\":872:900  string memory table = _TABLE */\n      swap1\n      pop\n        /* \"@openzeppelin/contracts/utils/Base64.sol\":1303:1323  string memory result */\n      0x00\n        /* \"@openzeppelin/contracts/utils/Base64.sol\":1362:1363  3 */\n      0x03\n        /* \"@openzeppelin/contracts/utils/Base64.sol\":1357:1358  2 */\n      0x02\n        /* \"@openzeppelin/contracts/utils/Base64.sol\":1343:1347  data */\n      dup6\n        /* \"@openzeppelin/contracts/utils/Base64.sol\":1343:1354  data.length */\n      mload\n        /* \"@openzeppelin/contracts/utils/Base64.sol\":1343:1358  data.length + 2 */\n      tag_90\n      swap2\n      swap1\n      tag_58\n      jump\t// in\n    tag_90:\n        /* \"@openzeppelin/contracts/utils/Base64.sol\":1342:1363  (data.length + 2) / 3 */\n      tag_91\n      swap2\n      swap1\n      tag_46\n      jump\t// in\n    tag_91:\n        /* \"@openzeppelin/contracts/utils/Base64.sol\":1337:1338  4 */\n      0x04\n        /* \"@openzeppelin/contracts/utils/Base64.sol\":1337:1364  4 * ((data.length + 2) / 3) */\n      tag_92\n      swap2\n      swap1\n      tag_65\n      jump\t// in\n    tag_92:\n        /* \"@openzeppelin/contracts/utils/Base64.sol\":1326:1365  new string(4 * ((data.length + 2) / 3)) */\n      0xffffffffffffffff\n      dup2\n      gt\n      iszero\n      tag_93\n      jumpi\n      tag_94\n      tag_49\n      jump\t// in\n    tag_94:\n    tag_93:\n      mload(0x40)\n      swap1\n      dup1\n      dup3\n      mstore\n      dup1\n      0x1f\n      add\n      not(0x1f)\n      and\n      0x20\n      add\n      dup3\n      add\n      0x40\n      mstore\n      dup1\n      iszero\n      tag_95\n      jumpi\n      dup2\n      0x20\n      add\n      0x01\n      dup3\n      mul\n      dup1\n      calldatasize\n      dup4\n      calldatacopy\n      dup1\n      dup3\n      add\n      swap2\n      pop\n      pop\n      swap1\n      pop\n    tag_95:\n      pop\n        /* \"@openzeppelin/contracts/utils/Base64.sol\":1303:1365  string memory result = new string(4 * ((data.length + 2) / 3)) */\n      swap1\n      pop\n        /* \"@openzeppelin/contracts/utils/Base64.sol\":1497:1498  1 */\n      0x01\n        /* \"@openzeppelin/contracts/utils/Base64.sol\":1490:1495  table */\n      dup3\n        /* \"@openzeppelin/contracts/utils/Base64.sol\":1486:1499  add(table, 1) */\n      add\n        /* \"@openzeppelin/contracts/utils/Base64.sol\":1598:1600  32 */\n      0x20\n        /* \"@openzeppelin/contracts/utils/Base64.sol\":1590:1596  result */\n      dup3\n        /* \"@openzeppelin/contracts/utils/Base64.sol\":1586:1601  add(result, 32) */\n      add\n        /* \"@openzeppelin/contracts/utils/Base64.sol\":1705:1709  data */\n      dup6\n        /* \"@openzeppelin/contracts/utils/Base64.sol\":1756:1760  data */\n      dup7\n        /* \"@openzeppelin/contracts/utils/Base64.sol\":1750:1761  mload(data) */\n      mload\n        /* \"@openzeppelin/contracts/utils/Base64.sol\":1744:1748  data */\n      dup8\n        /* \"@openzeppelin/contracts/utils/Base64.sol\":1740:1762  add(data, mload(data)) */\n      add\n        /* \"@openzeppelin/contracts/utils/Base64.sol\":1668:3071  for {... */\n    tag_96:\n        /* \"@openzeppelin/contracts/utils/Base64.sol\":1789:1795  endPtr */\n      dup1\n        /* \"@openzeppelin/contracts/utils/Base64.sol\":1780:1787  dataPtr */\n      dup3\n        /* \"@openzeppelin/contracts/utils/Base64.sol\":1777:1796  lt(dataPtr, endPtr) */\n      lt\n        /* \"@openzeppelin/contracts/utils/Base64.sol\":1668:3071  for {... */\n      iszero\n      tag_98\n      jumpi\n        /* \"@openzeppelin/contracts/utils/Base64.sol\":1891:1892  3 */\n      0x03\n        /* \"@openzeppelin/contracts/utils/Base64.sol\":1882:1889  dataPtr */\n      dup3\n        /* \"@openzeppelin/contracts/utils/Base64.sol\":1878:1893  add(dataPtr, 3) */\n      add\n        /* \"@openzeppelin/contracts/utils/Base64.sol\":1867:1893  dataPtr := add(dataPtr, 3) */\n      swap2\n      pop\n        /* \"@openzeppelin/contracts/utils/Base64.sol\":1929:1936  dataPtr */\n      dup2\n        /* \"@openzeppelin/contracts/utils/Base64.sol\":1923:1937  mload(dataPtr) */\n      mload\n        /* \"@openzeppelin/contracts/utils/Base64.sol\":2572:2576  0x3F */\n      0x3f\n        /* \"@openzeppelin/contracts/utils/Base64.sol\":2564:2569  input */\n      dup2\n        /* \"@openzeppelin/contracts/utils/Base64.sol\":2560:2562  18 */\n      0x12\n        /* \"@openzeppelin/contracts/utils/Base64.sol\":2556:2570  shr(18, input) */\n      shr\n        /* \"@openzeppelin/contracts/utils/Base64.sol\":2552:2577  and(shr(18, input), 0x3F) */\n      and\n        /* \"@openzeppelin/contracts/utils/Base64.sol\":2542:2550  tablePtr */\n      dup6\n        /* \"@openzeppelin/contracts/utils/Base64.sol\":2538:2578  add(tablePtr, and(shr(18, input), 0x3F)) */\n      add\n        /* \"@openzeppelin/contracts/utils/Base64.sol\":2532:2579  mload(add(tablePtr, and(shr(18, input), 0x3F))) */\n      mload\n        /* \"@openzeppelin/contracts/utils/Base64.sol\":2521:2530  resultPtr */\n      dup5\n        /* \"@openzeppelin/contracts/utils/Base64.sol\":2513:2580  mstore8(resultPtr, mload(add(tablePtr, and(shr(18, input), 0x3F)))) */\n      mstore8\n        /* \"@openzeppelin/contracts/utils/Base64.sol\":2625:2626  1 */\n      0x01\n        /* \"@openzeppelin/contracts/utils/Base64.sol\":2614:2623  resultPtr */\n      dup5\n        /* \"@openzeppelin/contracts/utils/Base64.sol\":2610:2627  add(resultPtr, 1) */\n      add\n        /* \"@openzeppelin/contracts/utils/Base64.sol\":2597:2627  resultPtr := add(resultPtr, 1) */\n      swap4\n      pop\n        /* \"@openzeppelin/contracts/utils/Base64.sol\":2715:2719  0x3F */\n      0x3f\n        /* \"@openzeppelin/contracts/utils/Base64.sol\":2707:2712  input */\n      dup2\n        /* \"@openzeppelin/contracts/utils/Base64.sol\":2703:2705  12 */\n      0x0c\n        /* \"@openzeppelin/contracts/utils/Base64.sol\":2699:2713  shr(12, input) */\n      shr\n        /* \"@openzeppelin/contracts/utils/Base64.sol\":2695:2720  and(shr(12, input), 0x3F) */\n      and\n        /* \"@openzeppelin/contracts/utils/Base64.sol\":2685:2693  tablePtr */\n      dup6\n        /* \"@openzeppelin/contracts/utils/Base64.sol\":2681:2721  add(tablePtr, and(shr(12, input), 0x3F)) */\n      add\n        /* \"@openzeppelin/contracts/utils/Base64.sol\":2675:2722  mload(add(tablePtr, and(shr(12, input), 0x3F))) */\n      mload\n        /* \"@openzeppelin/contracts/utils/Base64.sol\":2664:2673  resultPtr */\n      dup5\n        /* \"@openzeppelin/contracts/utils/Base64.sol\":2656:2723  mstore8(resultPtr, mload(add(tablePtr, and(shr(12, input), 0x3F)))) */\n      mstore8\n        /* \"@openzeppelin/contracts/utils/Base64.sol\":2768:2769  1 */\n      0x01\n        /* \"@openzeppelin/contracts/utils/Base64.sol\":2757:2766  resultPtr */\n      dup5\n        /* \"@openzeppelin/contracts/utils/Base64.sol\":2753:2770  add(resultPtr, 1) */\n      add\n        /* \"@openzeppelin/contracts/utils/Base64.sol\":2740:2770  resultPtr := add(resultPtr, 1) */\n      swap4\n      pop\n        /* \"@openzeppelin/contracts/utils/Base64.sol\":2857:2861  0x3F */\n      0x3f\n        /* \"@openzeppelin/contracts/utils/Base64.sol\":2849:2854  input */\n      dup2\n        /* \"@openzeppelin/contracts/utils/Base64.sol\":2846:2847  6 */\n      0x06\n        /* \"@openzeppelin/contracts/utils/Base64.sol\":2842:2855  shr(6, input) */\n      shr\n        /* \"@openzeppelin/contracts/utils/Base64.sol\":2838:2862  and(shr(6, input), 0x3F) */\n      and\n        /* \"@openzeppelin/contracts/utils/Base64.sol\":2828:2836  tablePtr */\n      dup6\n        /* \"@openzeppelin/contracts/utils/Base64.sol\":2824:2863  add(tablePtr, and(shr(6, input), 0x3F)) */\n      add\n        /* \"@openzeppelin/contracts/utils/Base64.sol\":2818:2864  mload(add(tablePtr, and(shr(6, input), 0x3F))) */\n      mload\n        /* \"@openzeppelin/contracts/utils/Base64.sol\":2807:2816  resultPtr */\n      dup5\n        /* \"@openzeppelin/contracts/utils/Base64.sol\":2799:2865  mstore8(resultPtr, mload(add(tablePtr, and(shr(6, input), 0x3F)))) */\n      mstore8\n        /* \"@openzeppelin/contracts/utils/Base64.sol\":2910:2911  1 */\n      0x01\n        /* \"@openzeppelin/contracts/utils/Base64.sol\":2899:2908  resultPtr */\n      dup5\n        /* \"@openzeppelin/contracts/utils/Base64.sol\":2895:2912  add(resultPtr, 1) */\n      add\n        /* \"@openzeppelin/contracts/utils/Base64.sol\":2882:2912  resultPtr := add(resultPtr, 1) */\n      swap4\n      pop\n        /* \"@openzeppelin/contracts/utils/Base64.sol\":2991:2995  0x3F */\n      0x3f\n        /* \"@openzeppelin/contracts/utils/Base64.sol\":2984:2989  input */\n      dup2\n        /* \"@openzeppelin/contracts/utils/Base64.sol\":2980:2996  and(input, 0x3F) */\n      and\n        /* \"@openzeppelin/contracts/utils/Base64.sol\":2970:2978  tablePtr */\n      dup6\n        /* \"@openzeppelin/contracts/utils/Base64.sol\":2966:2997  add(tablePtr, and(input, 0x3F)) */\n      add\n        /* \"@openzeppelin/contracts/utils/Base64.sol\":2960:2998  mload(add(tablePtr, and(input, 0x3F))) */\n      mload\n        /* \"@openzeppelin/contracts/utils/Base64.sol\":2949:2958  resultPtr */\n      dup5\n        /* \"@openzeppelin/contracts/utils/Base64.sol\":2941:2999  mstore8(resultPtr, mload(add(tablePtr, and(input, 0x3F)))) */\n      mstore8\n        /* \"@openzeppelin/contracts/utils/Base64.sol\":3044:3045  1 */\n      0x01\n        /* \"@openzeppelin/contracts/utils/Base64.sol\":3033:3042  resultPtr */\n      dup5\n        /* \"@openzeppelin/contracts/utils/Base64.sol\":3029:3046  add(resultPtr, 1) */\n      add\n        /* \"@openzeppelin/contracts/utils/Base64.sol\":3016:3046  resultPtr := add(resultPtr, 1) */\n      swap4\n      pop\n        /* \"@openzeppelin/contracts/utils/Base64.sol\":1814:3071  {... */\n      pop\n        /* \"@openzeppelin/contracts/utils/Base64.sol\":1668:3071  for {... */\n      jump(tag_96)\n    tag_98:\n        /* \"@openzeppelin/contracts/utils/Base64.sol\":1672:1776  {... */\n      pop\n      pop\n        /* \"@openzeppelin/contracts/utils/Base64.sol\":3229:3230  3 */\n      0x03\n        /* \"@openzeppelin/contracts/utils/Base64.sol\":3222:3226  data */\n      dup7\n        /* \"@openzeppelin/contracts/utils/Base64.sol\":3216:3227  mload(data) */\n      mload\n        /* \"@openzeppelin/contracts/utils/Base64.sol\":3212:3231  mod(mload(data), 3) */\n      mod\n        /* \"@openzeppelin/contracts/utils/Base64.sol\":3249:3250  1 */\n      0x01\n        /* \"@openzeppelin/contracts/utils/Base64.sol\":3244:3364  case 1 {... */\n      dup2\n      eq\n      tag_100\n      jumpi\n        /* \"@openzeppelin/contracts/utils/Base64.sol\":3382:3383  2 */\n      0x02\n        /* \"@openzeppelin/contracts/utils/Base64.sol\":3377:3448  case 2 {... */\n      dup2\n      eq\n      tag_101\n      jumpi\n        /* \"@openzeppelin/contracts/utils/Base64.sol\":3205:3448  switch mod(mload(data), 3)... */\n      jump(tag_99)\n        /* \"@openzeppelin/contracts/utils/Base64.sol\":3244:3364  case 1 {... */\n    tag_100:\n        /* \"@openzeppelin/contracts/utils/Base64.sol\":3296:3300  0x3d */\n      0x3d\n        /* \"@openzeppelin/contracts/utils/Base64.sol\":3292:3293  1 */\n      0x01\n        /* \"@openzeppelin/contracts/utils/Base64.sol\":3281:3290  resultPtr */\n      dup4\n        /* \"@openzeppelin/contracts/utils/Base64.sol\":3277:3294  sub(resultPtr, 1) */\n      sub\n        /* \"@openzeppelin/contracts/utils/Base64.sol\":3269:3301  mstore8(sub(resultPtr, 1), 0x3d) */\n      mstore8\n        /* \"@openzeppelin/contracts/utils/Base64.sol\":3345:3349  0x3d */\n      0x3d\n        /* \"@openzeppelin/contracts/utils/Base64.sol\":3341:3342  2 */\n      0x02\n        /* \"@openzeppelin/contracts/utils/Base64.sol\":3330:3339  resultPtr */\n      dup4\n        /* \"@openzeppelin/contracts/utils/Base64.sol\":3326:3343  sub(resultPtr, 2) */\n      sub\n        /* \"@openzeppelin/contracts/utils/Base64.sol\":3318:3350  mstore8(sub(resultPtr, 2), 0x3d) */\n      mstore8\n        /* \"@openzeppelin/contracts/utils/Base64.sol\":3244:3364  case 1 {... */\n      jump(tag_99)\n        /* \"@openzeppelin/contracts/utils/Base64.sol\":3377:3448  case 2 {... */\n    tag_101:\n        /* \"@openzeppelin/contracts/utils/Base64.sol\":3429:3433  0x3d */\n      0x3d\n        /* \"@openzeppelin/contracts/utils/Base64.sol\":3425:3426  1 */\n      0x01\n        /* \"@openzeppelin/contracts/utils/Base64.sol\":3414:3423  resultPtr */\n      dup4\n        /* \"@openzeppelin/contracts/utils/Base64.sol\":3410:3427  sub(resultPtr, 1) */\n      sub\n        /* \"@openzeppelin/contracts/utils/Base64.sol\":3402:3434  mstore8(sub(resultPtr, 1), 0x3d) */\n      mstore8\n        /* \"@openzeppelin/contracts/utils/Base64.sol\":3205:3448  switch mod(mload(data), 3)... */\n    tag_99:\n      pop\n        /* \"@openzeppelin/contracts/utils/Base64.sol\":1385:3458  {... */\n      pop\n      pop\n        /* \"@openzeppelin/contracts/utils/Base64.sol\":3475:3481  result */\n      dup1\n        /* \"@openzeppelin/contracts/utils/Base64.sol\":3468:3481  return result */\n      swap3\n      pop\n      pop\n      pop\n        /* \"@openzeppelin/contracts/utils/Base64.sol\":505:3488  function encode(bytes memory data) internal pure returns (string memory) {... */\n    tag_88:\n      swap2\n      swap1\n      pop\n      jump\t// out\n        /* \"SnakeLib.sol\":6070:6408  function fullSVGImage(address owner, uint id, ColorScheme memory scheme) internal pure returns (string memory) {\r... */\n    tag_28:\n        /* \"SnakeLib.sol\":6166:6179  string memory */\n      0x60\n        /* \"SnakeLib.sol\":6192:6214  string memory metadata */\n      0x00\n        /* \"SnakeLib.sol\":6217:6239  getMetadata(owner, id) */\n      tag_103\n        /* \"SnakeLib.sol\":6229:6234  owner */\n      dup6\n        /* \"SnakeLib.sol\":6236:6238  id */\n      dup6\n        /* \"SnakeLib.sol\":6217:6228  getMetadata */\n      tag_104\n        /* \"SnakeLib.sol\":6217:6239  getMetadata(owner, id) */\n      jump\t// in\n    tag_103:\n        /* \"SnakeLib.sol\":6192:6239  string memory metadata = getMetadata(owner, id) */\n      swap1\n      pop\n        /* \"SnakeLib.sol\":6250:6270  string memory styles */\n      0x00\n        /* \"SnakeLib.sol\":6273:6289  getStyle(scheme) */\n      tag_105\n        /* \"SnakeLib.sol\":6282:6288  scheme */\n      dup5\n        /* \"SnakeLib.sol\":6273:6281  getStyle */\n      tag_106\n        /* \"SnakeLib.sol\":6273:6289  getStyle(scheme) */\n      jump\t// in\n    tag_105:\n        /* \"SnakeLib.sol\":6250:6289  string memory styles = getStyle(scheme) */\n      swap1\n      pop\n        /* \"SnakeLib.sol\":6331:6339  svgStart */\n      mload(0x40)\n      dup1\n      0xa0\n      add\n      0x40\n      mstore\n      dup1\n      0x6b\n      dup2\n      mstore\n      0x20\n      add\n      data_fa0a9da7a25bdbe895b2ac5b50d2a1e25997bc6fb87035bf1369cfa022bf3515\n      0x6b\n      swap2\n      codecopy\n        /* \"SnakeLib.sol\":6341:6347  styles */\n      dup2\n        /* \"SnakeLib.sol\":6349:6355  svgMid */\n      mload(0x40)\n      dup1\n      0x03a0\n      add\n      0x40\n      mstore\n      dup1\n      0x036e\n      dup2\n      mstore\n      0x20\n      add\n      data_b88ee8134ff87ba704f1bf913f630372b396c726346bce32ed867da9913730dd\n      0x036e\n      swap2\n      codecopy\n        /* \"SnakeLib.sol\":6357:6365  metadata */\n      dup5\n        /* \"SnakeLib.sol\":6367:6373  svgEnd */\n      mload(0x40)\n      dup1\n      0xc0\n      add\n      0x40\n      mstore\n      dup1\n      0x8d\n      dup2\n      mstore\n      0x20\n      add\n      data_037b11088d78279926466cbcc7af075945a20b9b8d29de7bf533b907ca0264ee\n      0x8d\n      swap2\n      codecopy\n        /* \"SnakeLib.sol\":6375:6387  SVGScriptTag */\n      mload(0x40)\n      dup1\n      0x0e00\n      add\n      0x40\n      mstore\n      dup1\n      0x0dd1\n      dup2\n      mstore\n      0x20\n      add\n      data_1612e8e6ccbee1fa8d996aa3dc44666fa648a4a61b2a9f395867b6775ab86b43\n      0x0dd1\n      swap2\n      codecopy\n        /* \"SnakeLib.sol\":6314:6399  abi.encodePacked(svgStart, styles, svgMid, metadata, svgEnd, SVGScriptTag, '</svg>' ) */\n      add(0x20, mload(0x40))\n      tag_107\n      swap7\n      swap6\n      swap5\n      swap4\n      swap3\n      swap2\n      swap1\n      tag_108\n      jump\t// in\n    tag_107:\n      mload(0x40)\n      0x20\n      dup2\n      dup4\n      sub\n      sub\n      dup2\n      mstore\n      swap1\n      0x40\n      mstore\n        /* \"SnakeLib.sol\":6300:6400  return string(abi.encodePacked(svgStart, styles, svgMid, metadata, svgEnd, SVGScriptTag, '</svg>' )) */\n      swap3\n      pop\n      pop\n      pop\n        /* \"SnakeLib.sol\":6070:6408  function fullSVGImage(address owner, uint id, ColorScheme memory scheme) internal pure returns (string memory) {\r... */\n      swap4\n      swap3\n      pop\n      pop\n      pop\n      jump\t// out\n        /* \"SnakeLib.sol\":5739:6062  function pureSVGImage(address owner, uint id, ColorScheme memory scheme) internal pure returns (string memory) {\r... */\n    tag_34:\n        /* \"SnakeLib.sol\":5835:5848  string memory */\n      0x60\n        /* \"SnakeLib.sol\":5861:5883  string memory metadata */\n      0x00\n        /* \"SnakeLib.sol\":5886:5908  getMetadata(owner, id) */\n      tag_110\n        /* \"SnakeLib.sol\":5898:5903  owner */\n      dup6\n        /* \"SnakeLib.sol\":5905:5907  id */\n      dup6\n        /* \"SnakeLib.sol\":5886:5897  getMetadata */\n      tag_104\n        /* \"SnakeLib.sol\":5886:5908  getMetadata(owner, id) */\n      jump\t// in\n    tag_110:\n        /* \"SnakeLib.sol\":5861:5908  string memory metadata = getMetadata(owner, id) */\n      swap1\n      pop\n        /* \"SnakeLib.sol\":5919:5939  string memory styles */\n      0x00\n        /* \"SnakeLib.sol\":5942:5958  getStyle(scheme) */\n      tag_111\n        /* \"SnakeLib.sol\":5951:5957  scheme */\n      dup5\n        /* \"SnakeLib.sol\":5942:5950  getStyle */\n      tag_106\n        /* \"SnakeLib.sol\":5942:5958  getStyle(scheme) */\n      jump\t// in\n    tag_111:\n        /* \"SnakeLib.sol\":5919:5958  string memory styles = getStyle(scheme) */\n      swap1\n      pop\n        /* \"SnakeLib.sol\":6000:6008  svgStart */\n      mload(0x40)\n      dup1\n      0xa0\n      add\n      0x40\n      mstore\n      dup1\n      0x6b\n      dup2\n      mstore\n      0x20\n      add\n      data_fa0a9da7a25bdbe895b2ac5b50d2a1e25997bc6fb87035bf1369cfa022bf3515\n      0x6b\n      swap2\n      codecopy\n        /* \"SnakeLib.sol\":6010:6016  styles */\n      dup2\n        /* \"SnakeLib.sol\":6018:6024  svgMid */\n      mload(0x40)\n      dup1\n      0x03a0\n      add\n      0x40\n      mstore\n      dup1\n      0x036e\n      dup2\n      mstore\n      0x20\n      add\n      data_b88ee8134ff87ba704f1bf913f630372b396c726346bce32ed867da9913730dd\n      0x036e\n      swap2\n      codecopy\n        /* \"SnakeLib.sol\":6026:6034  metadata */\n      dup5\n        /* \"SnakeLib.sol\":6036:6042  svgEnd */\n      mload(0x40)\n      dup1\n      0xc0\n      add\n      0x40\n      mstore\n      dup1\n      0x8d\n      dup2\n      mstore\n      0x20\n      add\n      data_037b11088d78279926466cbcc7af075945a20b9b8d29de7bf533b907ca0264ee\n      0x8d\n      swap2\n      codecopy\n        /* \"SnakeLib.sol\":5983:6053  abi.encodePacked(svgStart, styles, svgMid, metadata, svgEnd, '</svg>') */\n      add(0x20, mload(0x40))\n      tag_112\n      swap6\n      swap5\n      swap4\n      swap3\n      swap2\n      swap1\n      tag_113\n      jump\t// in\n    tag_112:\n      mload(0x40)\n      0x20\n      dup2\n      dup4\n      sub\n      sub\n      dup2\n      mstore\n      swap1\n      0x40\n      mstore\n        /* \"SnakeLib.sol\":5969:6054  return string(abi.encodePacked(svgStart, styles, svgMid, metadata, svgEnd, '</svg>')) */\n      swap3\n      pop\n      pop\n      pop\n        /* \"SnakeLib.sol\":5739:6062  function pureSVGImage(address owner, uint id, ColorScheme memory scheme) internal pure returns (string memory) {\r... */\n      swap4\n      swap3\n      pop\n      pop\n      pop\n      jump\t// out\n        /* \"SnakeLib.sol\":6894:7329  function getMetadata(address owner, uint id) internal pure returns (string memory){\r... */\n    tag_104:\n        /* \"SnakeLib.sol\":6962:6975  string memory */\n      0x60\n        /* \"SnakeLib.sol\":6987:7007  string memory _owner */\n      0x00\n        /* \"SnakeLib.sol\":7010:7049  Strings.toHexString(uint160(owner), 20) */\n      tag_115\n        /* \"SnakeLib.sol\":7038:7043  owner */\n      dup5\n        /* \"SnakeLib.sol\":7010:7049  Strings.toHexString(uint160(owner), 20) */\n      0xffffffffffffffffffffffffffffffffffffffff\n      and\n        /* \"SnakeLib.sol\":7046:7048  20 */\n      0x14\n        /* \"SnakeLib.sol\":7010:7029  Strings.toHexString */\n      tag_19\n        /* \"SnakeLib.sol\":7010:7049  Strings.toHexString(uint160(owner), 20) */\n      jump\t// in\n    tag_115:\n        /* \"SnakeLib.sol\":6987:7049  string memory _owner = Strings.toHexString(uint160(owner), 20) */\n      swap1\n      pop\n        /* \"SnakeLib.sol\":7060:7077  string memory _id */\n      0x00\n        /* \"SnakeLib.sol\":7080:7100  Strings.toString(id) */\n      tag_116\n        /* \"SnakeLib.sol\":7097:7099  id */\n      dup5\n        /* \"SnakeLib.sol\":7080:7096  Strings.toString */\n      tag_16\n        /* \"SnakeLib.sol\":7080:7100  Strings.toString(id) */\n      jump\t// in\n    tag_116:\n        /* \"SnakeLib.sol\":7060:7100  string memory _id = Strings.toString(id) */\n      swap1\n      pop\n        /* \"SnakeLib.sol\":7208:7214  _owner */\n      dup2\n        /* \"SnakeLib.sol\":7268:7271  _id */\n      dup2\n        /* \"SnakeLib.sol\":7127:7314  abi.encodePacked('<g class=\"metadata\"> <text x=\"50\" y=\"900\" >owner: ', \r... */\n      add(0x20, mload(0x40))\n      tag_117\n      swap3\n      swap2\n      swap1\n      tag_118\n      jump\t// in\n    tag_117:\n      mload(0x40)\n      0x20\n      dup2\n      dup4\n      sub\n      sub\n      dup2\n      mstore\n      swap1\n      0x40\n      mstore\n        /* \"SnakeLib.sol\":7113:7315  return string(abi.encodePacked('<g class=\"metadata\"> <text x=\"50\" y=\"900\" >owner: ', \r... */\n      swap3\n      pop\n      pop\n      pop\n        /* \"SnakeLib.sol\":6894:7329  function getMetadata(address owner, uint id) internal pure returns (string memory){\r... */\n      swap3\n      swap2\n      pop\n      pop\n      jump\t// out\n        /* \"SnakeLib.sol\":7335:8381  function getStyle(ColorScheme memory scheme) internal pure returns(string memory ) {\r... */\n    tag_106:\n        /* \"SnakeLib.sol\":7402:7415  string memory */\n      0x60\n        /* \"SnakeLib.sol\":7549:7555  scheme */\n      dup2\n        /* \"SnakeLib.sol\":7549:7564  scheme.metadata */\n      0x00\n      add\n      mload\n        /* \"SnakeLib.sol\":7638:7644  scheme */\n      dup3\n        /* \"SnakeLib.sol\":7638:7650  scheme.title */\n      0x20\n      add\n      mload\n        /* \"SnakeLib.sol\":7741:7747  scheme */\n      dup4\n        /* \"SnakeLib.sol\":7741:7753  scheme.start */\n      0x40\n      add\n      mload\n        /* \"SnakeLib.sol\":7853:7859  scheme */\n      dup5\n        /* \"SnakeLib.sol\":7853:7870  scheme.directions */\n      0x60\n      add\n      mload\n        /* \"SnakeLib.sol\":7940:7946  scheme */\n      dup6\n        /* \"SnakeLib.sol\":7940:7952  scheme.score */\n      0x80\n      add\n      mload\n        /* \"SnakeLib.sol\":8025:8031  scheme */\n      dup7\n        /* \"SnakeLib.sol\":8025:8037  scheme.score */\n      0x80\n      add\n      mload\n        /* \"SnakeLib.sol\":8091:8097  scheme */\n      dup8\n        /* \"SnakeLib.sol\":8091:8108  scheme.background */\n      0xa0\n      add\n      mload\n        /* \"SnakeLib.sol\":8155:8161  scheme */\n      dup9\n        /* \"SnakeLib.sol\":8155:8165  scheme.map */\n      0xc0\n      add\n      mload\n        /* \"SnakeLib.sol\":8227:8233  scheme */\n      dup10\n        /* \"SnakeLib.sol\":8227:8238  scheme.food */\n      0xe0\n      add\n      mload\n        /* \"SnakeLib.sol\":8300:8306  scheme */\n      dup11\n        /* \"SnakeLib.sol\":8300:8312  scheme.snake */\n      0x0100\n      add\n      mload\n        /* \"SnakeLib.sol\":7453:8368  abi.encodePacked(\r... */\n      add(0x20, mload(0x40))\n      tag_120\n      swap11\n      swap10\n      swap9\n      swap8\n      swap7\n      swap6\n      swap5\n      swap4\n      swap3\n      swap2\n      swap1\n      tag_121\n      jump\t// in\n    tag_120:\n      mload(0x40)\n      0x20\n      dup2\n      dup4\n      sub\n      sub\n      dup2\n      mstore\n      swap1\n      0x40\n      mstore\n        /* \"SnakeLib.sol\":7439:8369  return string(abi.encodePacked(\r... */\n      swap1\n      pop\n        /* \"SnakeLib.sol\":7335:8381  function getStyle(ColorScheme memory scheme) internal pure returns(string memory ) {\r... */\n      swap2\n      swap1\n      pop\n      jump\t// out\n        /* \"#utility.yul\":7:419   */\n    tag_123:\n        /* \"#utility.yul\":85:90   */\n      0x00\n        /* \"#utility.yul\":110:176   */\n      tag_125\n        /* \"#utility.yul\":126:175   */\n      tag_126\n        /* \"#utility.yul\":168:174   */\n      dup5\n        /* \"#utility.yul\":126:175   */\n      tag_127\n      jump\t// in\n    tag_126:\n        /* \"#utility.yul\":110:176   */\n      tag_128\n      jump\t// in\n    tag_125:\n        /* \"#utility.yul\":101:176   */\n      swap1\n      pop\n        /* \"#utility.yul\":199:205   */\n      dup3\n        /* \"#utility.yul\":192:197   */\n      dup2\n        /* \"#utility.yul\":185:206   */\n      mstore\n        /* \"#utility.yul\":237:241   */\n      0x20\n        /* \"#utility.yul\":230:235   */\n      dup2\n        /* \"#utility.yul\":226:242   */\n      add\n        /* \"#utility.yul\":275:278   */\n      dup5\n        /* \"#utility.yul\":266:272   */\n      dup5\n        /* \"#utility.yul\":261:264   */\n      dup5\n        /* \"#utility.yul\":257:273   */\n      add\n        /* \"#utility.yul\":254:279   */\n      gt\n        /* \"#utility.yul\":251:363   */\n      iszero\n      tag_129\n      jumpi\n        /* \"#utility.yul\":282:361   */\n      tag_130\n      tag_131\n      jump\t// in\n    tag_130:\n        /* \"#utility.yul\":251:363   */\n    tag_129:\n        /* \"#utility.yul\":372:413   */\n      tag_132\n        /* \"#utility.yul\":406:412   */\n      dup5\n        /* \"#utility.yul\":401:404   */\n      dup3\n        /* \"#utility.yul\":396:399   */\n      dup6\n        /* \"#utility.yul\":372:413   */\n      tag_133\n      jump\t// in\n    tag_132:\n        /* \"#utility.yul\":91:419   */\n      pop\n        /* \"#utility.yul\":7:419   */\n      swap4\n      swap3\n      pop\n      pop\n      pop\n      jump\t// out\n        /* \"#utility.yul\":425:564   */\n    tag_134:\n        /* \"#utility.yul\":471:476   */\n      0x00\n        /* \"#utility.yul\":509:515   */\n      dup2\n        /* \"#utility.yul\":496:516   */\n      calldataload\n        /* \"#utility.yul\":487:516   */\n      swap1\n      pop\n        /* \"#utility.yul\":525:558   */\n      tag_136\n        /* \"#utility.yul\":552:557   */\n      dup2\n        /* \"#utility.yul\":525:558   */\n      tag_137\n      jump\t// in\n    tag_136:\n        /* \"#utility.yul\":425:564   */\n      swap3\n      swap2\n      pop\n      pop\n      jump\t// out\n        /* \"#utility.yul\":584:924   */\n    tag_138:\n        /* \"#utility.yul\":640:645   */\n      0x00\n        /* \"#utility.yul\":689:692   */\n      dup3\n        /* \"#utility.yul\":682:686   */\n      0x1f\n        /* \"#utility.yul\":674:680   */\n      dup4\n        /* \"#utility.yul\":670:687   */\n      add\n        /* \"#utility.yul\":666:693   */\n      slt\n        /* \"#utility.yul\":656:778   */\n      tag_140\n      jumpi\n        /* \"#utility.yul\":697:776   */\n      tag_141\n      tag_142\n      jump\t// in\n    tag_141:\n        /* \"#utility.yul\":656:778   */\n    tag_140:\n        /* \"#utility.yul\":814:820   */\n      dup2\n        /* \"#utility.yul\":801:821   */\n      calldataload\n        /* \"#utility.yul\":839:918   */\n      tag_143\n        /* \"#utility.yul\":914:917   */\n      dup5\n        /* \"#utility.yul\":906:912   */\n      dup3\n        /* \"#utility.yul\":899:903   */\n      0x20\n        /* \"#utility.yul\":891:897   */\n      dup7\n        /* \"#utility.yul\":887:904   */\n      add\n        /* \"#utility.yul\":839:918   */\n      tag_123\n      jump\t// in\n    tag_143:\n        /* \"#utility.yul\":830:918   */\n      swap2\n      pop\n        /* \"#utility.yul\":646:924   */\n      pop\n        /* \"#utility.yul\":584:924   */\n      swap3\n      swap2\n      pop\n      pop\n      jump\t// out\n        /* \"#utility.yul\":965:4229   */\n    tag_144:\n        /* \"#utility.yul\":1042:1047   */\n      0x00\n        /* \"#utility.yul\":1086:1092   */\n      0x0120\n        /* \"#utility.yul\":1074:1083   */\n      dup3\n        /* \"#utility.yul\":1069:1072   */\n      dup5\n        /* \"#utility.yul\":1065:1084   */\n      sub\n        /* \"#utility.yul\":1061:1093   */\n      slt\n        /* \"#utility.yul\":1058:1177   */\n      iszero\n      tag_146\n      jumpi\n        /* \"#utility.yul\":1096:1175   */\n      tag_147\n      tag_148\n      jump\t// in\n    tag_147:\n        /* \"#utility.yul\":1058:1177   */\n    tag_146:\n        /* \"#utility.yul\":1195:1218   */\n      tag_149\n        /* \"#utility.yul\":1211:1217   */\n      0x0120\n        /* \"#utility.yul\":1195:1218   */\n      tag_128\n      jump\t// in\n    tag_149:\n        /* \"#utility.yul\":1186:1218   */\n      swap1\n      pop\n        /* \"#utility.yul\":1309:1310   */\n      0x00\n        /* \"#utility.yul\":1298:1307   */\n      dup3\n        /* \"#utility.yul\":1294:1311   */\n      add\n        /* \"#utility.yul\":1281:1312   */\n      calldataload\n        /* \"#utility.yul\":1339:1357   */\n      0xffffffffffffffff\n        /* \"#utility.yul\":1331:1337   */\n      dup2\n        /* \"#utility.yul\":1328:1358   */\n      gt\n        /* \"#utility.yul\":1325:1442   */\n      iszero\n      tag_150\n      jumpi\n        /* \"#utility.yul\":1361:1440   */\n      tag_151\n      tag_152\n      jump\t// in\n    tag_151:\n        /* \"#utility.yul\":1325:1442   */\n    tag_150:\n        /* \"#utility.yul\":1481:1540   */\n      tag_153\n        /* \"#utility.yul\":1536:1539   */\n      dup5\n        /* \"#utility.yul\":1527:1533   */\n      dup3\n        /* \"#utility.yul\":1516:1525   */\n      dup6\n        /* \"#utility.yul\":1512:1534   */\n      add\n        /* \"#utility.yul\":1481:1540   */\n      tag_138\n      jump\t// in\n    tag_153:\n        /* \"#utility.yul\":1474:1478   */\n      0x00\n        /* \"#utility.yul\":1467:1472   */\n      dup4\n        /* \"#utility.yul\":1463:1479   */\n      add\n        /* \"#utility.yul\":1456:1541   */\n      mstore\n        /* \"#utility.yul\":1228:1552   */\n      pop\n        /* \"#utility.yul\":1640:1642   */\n      0x20\n        /* \"#utility.yul\":1629:1638   */\n      dup3\n        /* \"#utility.yul\":1625:1643   */\n      add\n        /* \"#utility.yul\":1612:1644   */\n      calldataload\n        /* \"#utility.yul\":1671:1689   */\n      0xffffffffffffffff\n        /* \"#utility.yul\":1663:1669   */\n      dup2\n        /* \"#utility.yul\":1660:1690   */\n      gt\n        /* \"#utility.yul\":1657:1774   */\n      iszero\n      tag_154\n      jumpi\n        /* \"#utility.yul\":1693:1772   */\n      tag_155\n      tag_152\n      jump\t// in\n    tag_155:\n        /* \"#utility.yul\":1657:1774   */\n    tag_154:\n        /* \"#utility.yul\":1813:1872   */\n      tag_156\n        /* \"#utility.yul\":1868:1871   */\n      dup5\n        /* \"#utility.yul\":1859:1865   */\n      dup3\n        /* \"#utility.yul\":1848:1857   */\n      dup6\n        /* \"#utility.yul\":1844:1866   */\n      add\n        /* \"#utility.yul\":1813:1872   */\n      tag_138\n      jump\t// in\n    tag_156:\n        /* \"#utility.yul\":1806:1810   */\n      0x20\n        /* \"#utility.yul\":1799:1804   */\n      dup4\n        /* \"#utility.yul\":1795:1811   */\n      add\n        /* \"#utility.yul\":1788:1873   */\n      mstore\n        /* \"#utility.yul\":1562:1884   */\n      pop\n        /* \"#utility.yul\":1972:1974   */\n      0x40\n        /* \"#utility.yul\":1961:1970   */\n      dup3\n        /* \"#utility.yul\":1957:1975   */\n      add\n        /* \"#utility.yul\":1944:1976   */\n      calldataload\n        /* \"#utility.yul\":2003:2021   */\n      0xffffffffffffffff\n        /* \"#utility.yul\":1995:2001   */\n      dup2\n        /* \"#utility.yul\":1992:2022   */\n      gt\n        /* \"#utility.yul\":1989:2106   */\n      iszero\n      tag_157\n      jumpi\n        /* \"#utility.yul\":2025:2104   */\n      tag_158\n      tag_152\n      jump\t// in\n    tag_158:\n        /* \"#utility.yul\":1989:2106   */\n    tag_157:\n        /* \"#utility.yul\":2145:2204   */\n      tag_159\n        /* \"#utility.yul\":2200:2203   */\n      dup5\n        /* \"#utility.yul\":2191:2197   */\n      dup3\n        /* \"#utility.yul\":2180:2189   */\n      dup6\n        /* \"#utility.yul\":2176:2198   */\n      add\n        /* \"#utility.yul\":2145:2204   */\n      tag_138\n      jump\t// in\n    tag_159:\n        /* \"#utility.yul\":2138:2142   */\n      0x40\n        /* \"#utility.yul\":2131:2136   */\n      dup4\n        /* \"#utility.yul\":2127:2143   */\n      add\n        /* \"#utility.yul\":2120:2205   */\n      mstore\n        /* \"#utility.yul\":1894:2216   */\n      pop\n        /* \"#utility.yul\":2309:2311   */\n      0x60\n        /* \"#utility.yul\":2298:2307   */\n      dup3\n        /* \"#utility.yul\":2294:2312   */\n      add\n        /* \"#utility.yul\":2281:2313   */\n      calldataload\n        /* \"#utility.yul\":2340:2358   */\n      0xffffffffffffffff\n        /* \"#utility.yul\":2332:2338   */\n      dup2\n        /* \"#utility.yul\":2329:2359   */\n      gt\n        /* \"#utility.yul\":2326:2443   */\n      iszero\n      tag_160\n      jumpi\n        /* \"#utility.yul\":2362:2441   */\n      tag_161\n      tag_152\n      jump\t// in\n    tag_161:\n        /* \"#utility.yul\":2326:2443   */\n    tag_160:\n        /* \"#utility.yul\":2482:2541   */\n      tag_162\n        /* \"#utility.yul\":2537:2540   */\n      dup5\n        /* \"#utility.yul\":2528:2534   */\n      dup3\n        /* \"#utility.yul\":2517:2526   */\n      dup6\n        /* \"#utility.yul\":2513:2535   */\n      add\n        /* \"#utility.yul\":2482:2541   */\n      tag_138\n      jump\t// in\n    tag_162:\n        /* \"#utility.yul\":2475:2479   */\n      0x60\n        /* \"#utility.yul\":2468:2473   */\n      dup4\n        /* \"#utility.yul\":2464:2480   */\n      add\n        /* \"#utility.yul\":2457:2542   */\n      mstore\n        /* \"#utility.yul\":2226:2553   */\n      pop\n        /* \"#utility.yul\":2641:2644   */\n      0x80\n        /* \"#utility.yul\":2630:2639   */\n      dup3\n        /* \"#utility.yul\":2626:2645   */\n      add\n        /* \"#utility.yul\":2613:2646   */\n      calldataload\n        /* \"#utility.yul\":2673:2691   */\n      0xffffffffffffffff\n        /* \"#utility.yul\":2665:2671   */\n      dup2\n        /* \"#utility.yul\":2662:2692   */\n      gt\n        /* \"#utility.yul\":2659:2776   */\n      iszero\n      tag_163\n      jumpi\n        /* \"#utility.yul\":2695:2774   */\n      tag_164\n      tag_152\n      jump\t// in\n    tag_164:\n        /* \"#utility.yul\":2659:2776   */\n    tag_163:\n        /* \"#utility.yul\":2815:2874   */\n      tag_165\n        /* \"#utility.yul\":2870:2873   */\n      dup5\n        /* \"#utility.yul\":2861:2867   */\n      dup3\n        /* \"#utility.yul\":2850:2859   */\n      dup6\n        /* \"#utility.yul\":2846:2868   */\n      add\n        /* \"#utility.yul\":2815:2874   */\n      tag_138\n      jump\t// in\n    tag_165:\n        /* \"#utility.yul\":2808:2812   */\n      0x80\n        /* \"#utility.yul\":2801:2806   */\n      dup4\n        /* \"#utility.yul\":2797:2813   */\n      add\n        /* \"#utility.yul\":2790:2875   */\n      mstore\n        /* \"#utility.yul\":2563:2886   */\n      pop\n        /* \"#utility.yul\":2979:2982   */\n      0xa0\n        /* \"#utility.yul\":2968:2977   */\n      dup3\n        /* \"#utility.yul\":2964:2983   */\n      add\n        /* \"#utility.yul\":2951:2984   */\n      calldataload\n        /* \"#utility.yul\":3011:3029   */\n      0xffffffffffffffff\n        /* \"#utility.yul\":3003:3009   */\n      dup2\n        /* \"#utility.yul\":3000:3030   */\n      gt\n        /* \"#utility.yul\":2997:3114   */\n      iszero\n      tag_166\n      jumpi\n        /* \"#utility.yul\":3033:3112   */\n      tag_167\n      tag_152\n      jump\t// in\n    tag_167:\n        /* \"#utility.yul\":2997:3114   */\n    tag_166:\n        /* \"#utility.yul\":3153:3212   */\n      tag_168\n        /* \"#utility.yul\":3208:3211   */\n      dup5\n        /* \"#utility.yul\":3199:3205   */\n      dup3\n        /* \"#utility.yul\":3188:3197   */\n      dup6\n        /* \"#utility.yul\":3184:3206   */\n      add\n        /* \"#utility.yul\":3153:3212   */\n      tag_138\n      jump\t// in\n    tag_168:\n        /* \"#utility.yul\":3146:3150   */\n      0xa0\n        /* \"#utility.yul\":3139:3144   */\n      dup4\n        /* \"#utility.yul\":3135:3151   */\n      add\n        /* \"#utility.yul\":3128:3213   */\n      mstore\n        /* \"#utility.yul\":2896:3224   */\n      pop\n        /* \"#utility.yul\":3310:3313   */\n      0xc0\n        /* \"#utility.yul\":3299:3308   */\n      dup3\n        /* \"#utility.yul\":3295:3314   */\n      add\n        /* \"#utility.yul\":3282:3315   */\n      calldataload\n        /* \"#utility.yul\":3342:3360   */\n      0xffffffffffffffff\n        /* \"#utility.yul\":3334:3340   */\n      dup2\n        /* \"#utility.yul\":3331:3361   */\n      gt\n        /* \"#utility.yul\":3328:3445   */\n      iszero\n      tag_169\n      jumpi\n        /* \"#utility.yul\":3364:3443   */\n      tag_170\n      tag_152\n      jump\t// in\n    tag_170:\n        /* \"#utility.yul\":3328:3445   */\n    tag_169:\n        /* \"#utility.yul\":3484:3543   */\n      tag_171\n        /* \"#utility.yul\":3539:3542   */\n      dup5\n        /* \"#utility.yul\":3530:3536   */\n      dup3\n        /* \"#utility.yul\":3519:3528   */\n      dup6\n        /* \"#utility.yul\":3515:3537   */\n      add\n        /* \"#utility.yul\":3484:3543   */\n      tag_138\n      jump\t// in\n    tag_171:\n        /* \"#utility.yul\":3477:3481   */\n      0xc0\n        /* \"#utility.yul\":3470:3475   */\n      dup4\n        /* \"#utility.yul\":3466:3482   */\n      add\n        /* \"#utility.yul\":3459:3544   */\n      mstore\n        /* \"#utility.yul\":3234:3555   */\n      pop\n        /* \"#utility.yul\":3642:3645   */\n      0xe0\n        /* \"#utility.yul\":3631:3640   */\n      dup3\n        /* \"#utility.yul\":3627:3646   */\n      add\n        /* \"#utility.yul\":3614:3647   */\n      calldataload\n        /* \"#utility.yul\":3674:3692   */\n      0xffffffffffffffff\n        /* \"#utility.yul\":3666:3672   */\n      dup2\n        /* \"#utility.yul\":3663:3693   */\n      gt\n        /* \"#utility.yul\":3660:3777   */\n      iszero\n      tag_172\n      jumpi\n        /* \"#utility.yul\":3696:3775   */\n      tag_173\n      tag_152\n      jump\t// in\n    tag_173:\n        /* \"#utility.yul\":3660:3777   */\n    tag_172:\n        /* \"#utility.yul\":3816:3875   */\n      tag_174\n        /* \"#utility.yul\":3871:3874   */\n      dup5\n        /* \"#utility.yul\":3862:3868   */\n      dup3\n        /* \"#utility.yul\":3851:3860   */\n      dup6\n        /* \"#utility.yul\":3847:3869   */\n      add\n        /* \"#utility.yul\":3816:3875   */\n      tag_138\n      jump\t// in\n    tag_174:\n        /* \"#utility.yul\":3809:3813   */\n      0xe0\n        /* \"#utility.yul\":3802:3807   */\n      dup4\n        /* \"#utility.yul\":3798:3814   */\n      add\n        /* \"#utility.yul\":3791:3876   */\n      mstore\n        /* \"#utility.yul\":3565:3887   */\n      pop\n        /* \"#utility.yul\":3975:3978   */\n      0x0100\n        /* \"#utility.yul\":3964:3973   */\n      dup3\n        /* \"#utility.yul\":3960:3979   */\n      add\n        /* \"#utility.yul\":3947:3980   */\n      calldataload\n        /* \"#utility.yul\":4007:4025   */\n      0xffffffffffffffff\n        /* \"#utility.yul\":3999:4005   */\n      dup2\n        /* \"#utility.yul\":3996:4026   */\n      gt\n        /* \"#utility.yul\":3993:4110   */\n      iszero\n      tag_175\n      jumpi\n        /* \"#utility.yul\":4029:4108   */\n      tag_176\n      tag_152\n      jump\t// in\n    tag_176:\n        /* \"#utility.yul\":3993:4110   */\n    tag_175:\n        /* \"#utility.yul\":4151:4210   */\n      tag_177\n        /* \"#utility.yul\":4206:4209   */\n      dup5\n        /* \"#utility.yul\":4197:4203   */\n      dup3\n        /* \"#utility.yul\":4186:4195   */\n      dup6\n        /* \"#utility.yul\":4182:4204   */\n      add\n        /* \"#utility.yul\":4151:4210   */\n      tag_138\n      jump\t// in\n    tag_177:\n        /* \"#utility.yul\":4142:4148   */\n      0x0100\n        /* \"#utility.yul\":4135:4140   */\n      dup4\n        /* \"#utility.yul\":4131:4149   */\n      add\n        /* \"#utility.yul\":4124:4211   */\n      mstore\n        /* \"#utility.yul\":3897:4222   */\n      pop\n        /* \"#utility.yul\":965:4229   */\n      swap3\n      swap2\n      pop\n      pop\n      jump\t// out\n        /* \"#utility.yul\":4235:4374   */\n    tag_178:\n        /* \"#utility.yul\":4281:4286   */\n      0x00\n        /* \"#utility.yul\":4319:4325   */\n      dup2\n        /* \"#utility.yul\":4306:4326   */\n      calldataload\n        /* \"#utility.yul\":4297:4326   */\n      swap1\n      pop\n        /* \"#utility.yul\":4335:4368   */\n      tag_180\n        /* \"#utility.yul\":4362:4367   */\n      dup2\n        /* \"#utility.yul\":4335:4368   */\n      tag_181\n      jump\t// in\n    tag_180:\n        /* \"#utility.yul\":4235:4374   */\n      swap3\n      swap2\n      pop\n      pop\n      jump\t// out\n        /* \"#utility.yul\":4380:5687   */\n    tag_5:\n        /* \"#utility.yul\":4513:4519   */\n      0x00\n        /* \"#utility.yul\":4521:4527   */\n      dup1\n        /* \"#utility.yul\":4529:4535   */\n      0x00\n        /* \"#utility.yul\":4537:4543   */\n      dup1\n        /* \"#utility.yul\":4545:4551   */\n      0x00\n        /* \"#utility.yul\":4594:4597   */\n      0xa0\n        /* \"#utility.yul\":4582:4591   */\n      dup7\n        /* \"#utility.yul\":4573:4580   */\n      dup9\n        /* \"#utility.yul\":4569:4592   */\n      sub\n        /* \"#utility.yul\":4565:4598   */\n      slt\n        /* \"#utility.yul\":4562:4682   */\n      iszero\n      tag_183\n      jumpi\n        /* \"#utility.yul\":4601:4680   */\n      tag_184\n      tag_185\n      jump\t// in\n    tag_184:\n        /* \"#utility.yul\":4562:4682   */\n    tag_183:\n        /* \"#utility.yul\":4721:4722   */\n      0x00\n        /* \"#utility.yul\":4746:4799   */\n      tag_186\n        /* \"#utility.yul\":4791:4798   */\n      dup9\n        /* \"#utility.yul\":4782:4788   */\n      dup3\n        /* \"#utility.yul\":4771:4780   */\n      dup10\n        /* \"#utility.yul\":4767:4789   */\n      add\n        /* \"#utility.yul\":4746:4799   */\n      tag_134\n      jump\t// in\n    tag_186:\n        /* \"#utility.yul\":4736:4799   */\n      swap6\n      pop\n        /* \"#utility.yul\":4692:4809   */\n      pop\n        /* \"#utility.yul\":4848:4850   */\n      0x20\n        /* \"#utility.yul\":4874:4927   */\n      tag_187\n        /* \"#utility.yul\":4919:4926   */\n      dup9\n        /* \"#utility.yul\":4910:4916   */\n      dup3\n        /* \"#utility.yul\":4899:4908   */\n      dup10\n        /* \"#utility.yul\":4895:4917   */\n      add\n        /* \"#utility.yul\":4874:4927   */\n      tag_178\n      jump\t// in\n    tag_187:\n        /* \"#utility.yul\":4864:4927   */\n      swap5\n      pop\n        /* \"#utility.yul\":4819:4937   */\n      pop\n        /* \"#utility.yul\":5004:5006   */\n      0x40\n        /* \"#utility.yul\":4993:5002   */\n      dup7\n        /* \"#utility.yul\":4989:5007   */\n      add\n        /* \"#utility.yul\":4976:5008   */\n      calldataload\n        /* \"#utility.yul\":5035:5053   */\n      0xffffffffffffffff\n        /* \"#utility.yul\":5027:5033   */\n      dup2\n        /* \"#utility.yul\":5024:5054   */\n      gt\n        /* \"#utility.yul\":5021:5138   */\n      iszero\n      tag_188\n      jumpi\n        /* \"#utility.yul\":5057:5136   */\n      tag_189\n      tag_190\n      jump\t// in\n    tag_189:\n        /* \"#utility.yul\":5021:5138   */\n    tag_188:\n        /* \"#utility.yul\":5162:5243   */\n      tag_191\n        /* \"#utility.yul\":5235:5242   */\n      dup9\n        /* \"#utility.yul\":5226:5232   */\n      dup3\n        /* \"#utility.yul\":5215:5224   */\n      dup10\n        /* \"#utility.yul\":5211:5233   */\n      add\n        /* \"#utility.yul\":5162:5243   */\n      tag_144\n      jump\t// in\n    tag_191:\n        /* \"#utility.yul\":5152:5243   */\n      swap4\n      pop\n        /* \"#utility.yul\":4947:5253   */\n      pop\n        /* \"#utility.yul\":5320:5322   */\n      0x60\n        /* \"#utility.yul\":5309:5318   */\n      dup7\n        /* \"#utility.yul\":5305:5323   */\n      add\n        /* \"#utility.yul\":5292:5324   */\n      calldataload\n        /* \"#utility.yul\":5351:5369   */\n      0xffffffffffffffff\n        /* \"#utility.yul\":5343:5349   */\n      dup2\n        /* \"#utility.yul\":5340:5370   */\n      gt\n        /* \"#utility.yul\":5337:5454   */\n      iszero\n      tag_192\n      jumpi\n        /* \"#utility.yul\":5373:5452   */\n      tag_193\n      tag_190\n      jump\t// in\n    tag_193:\n        /* \"#utility.yul\":5337:5454   */\n    tag_192:\n        /* \"#utility.yul\":5478:5541   */\n      tag_194\n        /* \"#utility.yul\":5533:5540   */\n      dup9\n        /* \"#utility.yul\":5524:5530   */\n      dup3\n        /* \"#utility.yul\":5513:5522   */\n      dup10\n        /* \"#utility.yul\":5509:5531   */\n      add\n        /* \"#utility.yul\":5478:5541   */\n      tag_138\n      jump\t// in\n    tag_194:\n        /* \"#utility.yul\":5468:5541   */\n      swap3\n      pop\n        /* \"#utility.yul\":5263:5551   */\n      pop\n        /* \"#utility.yul\":5590:5593   */\n      0x80\n        /* \"#utility.yul\":5617:5670   */\n      tag_195\n        /* \"#utility.yul\":5662:5669   */\n      dup9\n        /* \"#utility.yul\":5653:5659   */\n      dup3\n        /* \"#utility.yul\":5642:5651   */\n      dup10\n        /* \"#utility.yul\":5638:5660   */\n      add\n        /* \"#utility.yul\":5617:5670   */\n      tag_178\n      jump\t// in\n    tag_195:\n        /* \"#utility.yul\":5607:5670   */\n      swap2\n      pop\n        /* \"#utility.yul\":5561:5680   */\n      pop\n        /* \"#utility.yul\":4380:5687   */\n      swap3\n      swap6\n      pop\n      swap3\n      swap6\n      swap1\n      swap4\n      pop\n      jump\t// out\n        /* \"#utility.yul\":5693:6073   */\n    tag_196:\n        /* \"#utility.yul\":5789:5792   */\n      0x00\n        /* \"#utility.yul\":5817:5856   */\n      tag_198\n        /* \"#utility.yul\":5850:5855   */\n      dup3\n        /* \"#utility.yul\":5817:5856   */\n      tag_199\n      jump\t// in\n    tag_198:\n        /* \"#utility.yul\":5872:5951   */\n      tag_200\n        /* \"#utility.yul\":5944:5950   */\n      dup2\n        /* \"#utility.yul\":5939:5942   */\n      dup6\n        /* \"#utility.yul\":5872:5951   */\n      tag_201\n      jump\t// in\n    tag_200:\n        /* \"#utility.yul\":5865:5951   */\n      swap4\n      pop\n        /* \"#utility.yul\":5960:6012   */\n      tag_202\n        /* \"#utility.yul\":6005:6011   */\n      dup2\n        /* \"#utility.yul\":6000:6003   */\n      dup6\n        /* \"#utility.yul\":5993:5997   */\n      0x20\n        /* \"#utility.yul\":5986:5991   */\n      dup7\n        /* \"#utility.yul\":5982:5998   */\n      add\n        /* \"#utility.yul\":5960:6012   */\n      tag_203\n      jump\t// in\n    tag_202:\n        /* \"#utility.yul\":6037:6066   */\n      tag_204\n        /* \"#utility.yul\":6059:6065   */\n      dup2\n        /* \"#utility.yul\":6037:6066   */\n      tag_205\n      jump\t// in\n    tag_204:\n        /* \"#utility.yul\":6032:6035   */\n      dup5\n        /* \"#utility.yul\":6028:6067   */\n      add\n        /* \"#utility.yul\":6021:6067   */\n      swap2\n      pop\n        /* \"#utility.yul\":5793:6073   */\n      pop\n        /* \"#utility.yul\":5693:6073   */\n      swap3\n      swap2\n      pop\n      pop\n      jump\t// out\n        /* \"#utility.yul\":6079:6456   */\n    tag_206:\n        /* \"#utility.yul\":6185:6188   */\n      0x00\n        /* \"#utility.yul\":6213:6252   */\n      tag_208\n        /* \"#utility.yul\":6246:6251   */\n      dup3\n        /* \"#utility.yul\":6213:6252   */\n      tag_199\n      jump\t// in\n    tag_208:\n        /* \"#utility.yul\":6268:6357   */\n      tag_209\n        /* \"#utility.yul\":6350:6356   */\n      dup2\n        /* \"#utility.yul\":6345:6348   */\n      dup6\n        /* \"#utility.yul\":6268:6357   */\n      tag_210\n      jump\t// in\n    tag_209:\n        /* \"#utility.yul\":6261:6357   */\n      swap4\n      pop\n        /* \"#utility.yul\":6366:6418   */\n      tag_211\n        /* \"#utility.yul\":6411:6417   */\n      dup2\n        /* \"#utility.yul\":6406:6409   */\n      dup6\n        /* \"#utility.yul\":6399:6403   */\n      0x20\n        /* \"#utility.yul\":6392:6397   */\n      dup7\n        /* \"#utility.yul\":6388:6404   */\n      add\n        /* \"#utility.yul\":6366:6418   */\n      tag_203\n      jump\t// in\n    tag_211:\n        /* \"#utility.yul\":6443:6449   */\n      dup1\n        /* \"#utility.yul\":6438:6441   */\n      dup5\n        /* \"#utility.yul\":6434:6450   */\n      add\n        /* \"#utility.yul\":6427:6450   */\n      swap2\n      pop\n        /* \"#utility.yul\":6189:6456   */\n      pop\n        /* \"#utility.yul\":6079:6456   */\n      swap3\n      swap2\n      pop\n      pop\n      jump\t// out\n        /* \"#utility.yul\":6462:6828   */\n    tag_212:\n        /* \"#utility.yul\":6604:6607   */\n      0x00\n        /* \"#utility.yul\":6625:6692   */\n      tag_214\n        /* \"#utility.yul\":6689:6691   */\n      0x20\n        /* \"#utility.yul\":6684:6687   */\n      dup4\n        /* \"#utility.yul\":6625:6692   */\n      tag_215\n      jump\t// in\n    tag_214:\n        /* \"#utility.yul\":6618:6692   */\n      swap2\n      pop\n        /* \"#utility.yul\":6701:6794   */\n      tag_216\n        /* \"#utility.yul\":6790:6793   */\n      dup3\n        /* \"#utility.yul\":6701:6794   */\n      tag_217\n      jump\t// in\n    tag_216:\n        /* \"#utility.yul\":6819:6821   */\n      0x20\n        /* \"#utility.yul\":6814:6817   */\n      dup3\n        /* \"#utility.yul\":6810:6822   */\n      add\n        /* \"#utility.yul\":6803:6822   */\n      swap1\n      pop\n        /* \"#utility.yul\":6462:6828   */\n      swap2\n      swap1\n      pop\n      jump\t// out\n        /* \"#utility.yul\":6834:7234   */\n    tag_218:\n        /* \"#utility.yul\":6994:6997   */\n      0x00\n        /* \"#utility.yul\":7015:7099   */\n      tag_220\n        /* \"#utility.yul\":7097:7098   */\n      0x09\n        /* \"#utility.yul\":7092:7095   */\n      dup4\n        /* \"#utility.yul\":7015:7099   */\n      tag_210\n      jump\t// in\n    tag_220:\n        /* \"#utility.yul\":7008:7099   */\n      swap2\n      pop\n        /* \"#utility.yul\":7108:7201   */\n      tag_221\n        /* \"#utility.yul\":7197:7200   */\n      dup3\n        /* \"#utility.yul\":7108:7201   */\n      tag_222\n      jump\t// in\n    tag_221:\n        /* \"#utility.yul\":7226:7227   */\n      0x09\n        /* \"#utility.yul\":7221:7224   */\n      dup3\n        /* \"#utility.yul\":7217:7228   */\n      add\n        /* \"#utility.yul\":7210:7228   */\n      swap1\n      pop\n        /* \"#utility.yul\":6834:7234   */\n      swap2\n      swap1\n      pop\n      jump\t// out\n        /* \"#utility.yul\":7240:7642   */\n    tag_223:\n        /* \"#utility.yul\":7400:7403   */\n      0x00\n        /* \"#utility.yul\":7421:7506   */\n      tag_225\n        /* \"#utility.yul\":7503:7505   */\n      0x0a\n        /* \"#utility.yul\":7498:7501   */\n      dup4\n        /* \"#utility.yul\":7421:7506   */\n      tag_210\n      jump\t// in\n    tag_225:\n        /* \"#utility.yul\":7414:7506   */\n      swap2\n      pop\n        /* \"#utility.yul\":7515:7608   */\n      tag_226\n        /* \"#utility.yul\":7604:7607   */\n      dup3\n        /* \"#utility.yul\":7515:7608   */\n      tag_227\n      jump\t// in\n    tag_226:\n        /* \"#utility.yul\":7633:7635   */\n      0x0a\n        /* \"#utility.yul\":7628:7631   */\n      dup3\n        /* \"#utility.yul\":7624:7636   */\n      add\n        /* \"#utility.yul\":7617:7636   */\n      swap1\n      pop\n        /* \"#utility.yul\":7240:7642   */\n      swap2\n      swap1\n      pop\n      jump\t// out\n        /* \"#utility.yul\":7648:8052   */\n    tag_228:\n        /* \"#utility.yul\":7808:7811   */\n      0x00\n        /* \"#utility.yul\":7829:7915   */\n      tag_230\n        /* \"#utility.yul\":7911:7914   */\n      0x82\n        /* \"#utility.yul\":7906:7909   */\n      dup4\n        /* \"#utility.yul\":7829:7915   */\n      tag_210\n      jump\t// in\n    tag_230:\n        /* \"#utility.yul\":7822:7915   */\n      swap2\n      pop\n        /* \"#utility.yul\":7924:8017   */\n      tag_231\n        /* \"#utility.yul\":8013:8016   */\n      dup3\n        /* \"#utility.yul\":7924:8017   */\n      tag_232\n      jump\t// in\n    tag_231:\n        /* \"#utility.yul\":8042:8045   */\n      0x82\n        /* \"#utility.yul\":8037:8040   */\n      dup3\n        /* \"#utility.yul\":8033:8046   */\n      add\n        /* \"#utility.yul\":8026:8046   */\n      swap1\n      pop\n        /* \"#utility.yul\":7648:8052   */\n      swap2\n      swap1\n      pop\n      jump\t// out\n        /* \"#utility.yul\":8058:8460   */\n    tag_233:\n        /* \"#utility.yul\":8218:8221   */\n      0x00\n        /* \"#utility.yul\":8239:8324   */\n      tag_235\n        /* \"#utility.yul\":8321:8323   */\n      0x32\n        /* \"#utility.yul\":8316:8319   */\n      dup4\n        /* \"#utility.yul\":8239:8324   */\n      tag_210\n      jump\t// in\n    tag_235:\n        /* \"#utility.yul\":8232:8324   */\n      swap2\n      pop\n        /* \"#utility.yul\":8333:8426   */\n      tag_236\n        /* \"#utility.yul\":8422:8425   */\n      dup3\n        /* \"#utility.yul\":8333:8426   */\n      tag_237\n      jump\t// in\n    tag_236:\n        /* \"#utility.yul\":8451:8453   */\n      0x32\n        /* \"#utility.yul\":8446:8449   */\n      dup3\n        /* \"#utility.yul\":8442:8454   */\n      add\n        /* \"#utility.yul\":8435:8454   */\n      swap1\n      pop\n        /* \"#utility.yul\":8058:8460   */\n      swap2\n      swap1\n      pop\n      jump\t// out\n        /* \"#utility.yul\":8466:8868   */\n    tag_238:\n        /* \"#utility.yul\":8626:8629   */\n      0x00\n        /* \"#utility.yul\":8647:8732   */\n      tag_240\n        /* \"#utility.yul\":8729:8731   */\n      0x1f\n        /* \"#utility.yul\":8724:8727   */\n      dup4\n        /* \"#utility.yul\":8647:8732   */\n      tag_210\n      jump\t// in\n    tag_240:\n        /* \"#utility.yul\":8640:8732   */\n      swap2\n      pop\n        /* \"#utility.yul\":8741:8834   */\n      tag_241\n        /* \"#utility.yul\":8830:8833   */\n      dup3\n        /* \"#utility.yul\":8741:8834   */\n      tag_242\n      jump\t// in\n    tag_241:\n        /* \"#utility.yul\":8859:8861   */\n      0x1f\n        /* \"#utility.yul\":8854:8857   */\n      dup3\n        /* \"#utility.yul\":8850:8862   */\n      add\n        /* \"#utility.yul\":8843:8862   */\n      swap1\n      pop\n        /* \"#utility.yul\":8466:8868   */\n      swap2\n      swap1\n      pop\n      jump\t// out\n        /* \"#utility.yul\":8874:9276   */\n    tag_243:\n        /* \"#utility.yul\":9034:9037   */\n      0x00\n        /* \"#utility.yul\":9055:9140   */\n      tag_245\n        /* \"#utility.yul\":9137:9139   */\n      0x1d\n        /* \"#utility.yul\":9132:9135   */\n      dup4\n        /* \"#utility.yul\":9055:9140   */\n      tag_210\n      jump\t// in\n    tag_245:\n        /* \"#utility.yul\":9048:9140   */\n      swap2\n      pop\n        /* \"#utility.yul\":9149:9242   */\n      tag_246\n        /* \"#utility.yul\":9238:9241   */\n      dup3\n        /* \"#utility.yul\":9149:9242   */\n      tag_247\n      jump\t// in\n    tag_246:\n        /* \"#utility.yul\":9267:9269   */\n      0x1d\n        /* \"#utility.yul\":9262:9265   */\n      dup3\n        /* \"#utility.yul\":9258:9270   */\n      add\n        /* \"#utility.yul\":9251:9270   */\n      swap1\n      pop\n        /* \"#utility.yul\":8874:9276   */\n      swap2\n      swap1\n      pop\n      jump\t// out\n        /* \"#utility.yul\":9282:9684   */\n    tag_248:\n        /* \"#utility.yul\":9442:9445   */\n      0x00\n        /* \"#utility.yul\":9463:9548   */\n      tag_250\n        /* \"#utility.yul\":9545:9547   */\n      0x16\n        /* \"#utility.yul\":9540:9543   */\n      dup4\n        /* \"#utility.yul\":9463:9548   */\n      tag_210\n      jump\t// in\n    tag_250:\n        /* \"#utility.yul\":9456:9548   */\n      swap2\n      pop\n        /* \"#utility.yul\":9557:9650   */\n      tag_251\n        /* \"#utility.yul\":9646:9649   */\n      dup3\n        /* \"#utility.yul\":9557:9650   */\n      tag_252\n      jump\t// in\n    tag_251:\n        /* \"#utility.yul\":9675:9677   */\n      0x16\n        /* \"#utility.yul\":9670:9673   */\n      dup3\n        /* \"#utility.yul\":9666:9678   */\n      add\n        /* \"#utility.yul\":9659:9678   */\n      swap1\n      pop\n        /* \"#utility.yul\":9282:9684   */\n      swap2\n      swap1\n      pop\n      jump\t// out\n        /* \"#utility.yul\":9690:10092   */\n    tag_253:\n        /* \"#utility.yul\":9850:9853   */\n      0x00\n        /* \"#utility.yul\":9871:9956   */\n      tag_255\n        /* \"#utility.yul\":9953:9955   */\n      0x3a\n        /* \"#utility.yul\":9948:9951   */\n      dup4\n        /* \"#utility.yul\":9871:9956   */\n      tag_210\n      jump\t// in\n    tag_255:\n        /* \"#utility.yul\":9864:9956   */\n      swap2\n      pop\n        /* \"#utility.yul\":9965:10058   */\n      tag_256\n        /* \"#utility.yul\":10054:10057   */\n      dup3\n        /* \"#utility.yul\":9965:10058   */\n      tag_257\n      jump\t// in\n    tag_256:\n        /* \"#utility.yul\":10083:10085   */\n      0x3a\n        /* \"#utility.yul\":10078:10081   */\n      dup3\n        /* \"#utility.yul\":10074:10086   */\n      add\n        /* \"#utility.yul\":10067:10086   */\n      swap1\n      pop\n        /* \"#utility.yul\":9690:10092   */\n      swap2\n      swap1\n      pop\n      jump\t// out\n        /* \"#utility.yul\":10098:10500   */\n    tag_258:\n        /* \"#utility.yul\":10258:10261   */\n      0x00\n        /* \"#utility.yul\":10279:10364   */\n      tag_260\n        /* \"#utility.yul\":10361:10363   */\n      0x0f\n        /* \"#utility.yul\":10356:10359   */\n      dup4\n        /* \"#utility.yul\":10279:10364   */\n      tag_210\n      jump\t// in\n    tag_260:\n        /* \"#utility.yul\":10272:10364   */\n      swap2\n      pop\n        /* \"#utility.yul\":10373:10466   */\n      tag_261\n        /* \"#utility.yul\":10462:10465   */\n      dup3\n        /* \"#utility.yul\":10373:10466   */\n      tag_262\n      jump\t// in\n    tag_261:\n        /* \"#utility.yul\":10491:10493   */\n      0x0f\n        /* \"#utility.yul\":10486:10489   */\n      dup3\n        /* \"#utility.yul\":10482:10494   */\n      add\n        /* \"#utility.yul\":10475:10494   */\n      swap1\n      pop\n        /* \"#utility.yul\":10098:10500   */\n      swap2\n      swap1\n      pop\n      jump\t// out\n        /* \"#utility.yul\":10506:10910   */\n    tag_263:\n        /* \"#utility.yul\":10666:10669   */\n      0x00\n        /* \"#utility.yul\":10687:10773   */\n      tag_265\n        /* \"#utility.yul\":10769:10772   */\n      0x83\n        /* \"#utility.yul\":10764:10767   */\n      dup4\n        /* \"#utility.yul\":10687:10773   */\n      tag_210\n      jump\t// in\n    tag_265:\n        /* \"#utility.yul\":10680:10773   */\n      swap2\n      pop\n        /* \"#utility.yul\":10782:10875   */\n      tag_266\n        /* \"#utility.yul\":10871:10874   */\n      dup3\n        /* \"#utility.yul\":10782:10875   */\n      tag_267\n      jump\t// in\n    tag_266:\n        /* \"#utility.yul\":10900:10903   */\n      0x83\n        /* \"#utility.yul\":10895:10898   */\n      dup3\n        /* \"#utility.yul\":10891:10904   */\n      add\n        /* \"#utility.yul\":10884:10904   */\n      swap1\n      pop\n        /* \"#utility.yul\":10506:10910   */\n      swap2\n      swap1\n      pop\n      jump\t// out\n        /* \"#utility.yul\":10916:11316   */\n    tag_268:\n        /* \"#utility.yul\":11076:11079   */\n      0x00\n        /* \"#utility.yul\":11097:11181   */\n      tag_270\n        /* \"#utility.yul\":11179:11180   */\n      0x07\n        /* \"#utility.yul\":11174:11177   */\n      dup4\n        /* \"#utility.yul\":11097:11181   */\n      tag_210\n      jump\t// in\n    tag_270:\n        /* \"#utility.yul\":11090:11181   */\n      swap2\n      pop\n        /* \"#utility.yul\":11190:11283   */\n      tag_271\n        /* \"#utility.yul\":11279:11282   */\n      dup3\n        /* \"#utility.yul\":11190:11283   */\n      tag_272\n      jump\t// in\n    tag_271:\n        /* \"#utility.yul\":11308:11309   */\n      0x07\n        /* \"#utility.yul\":11303:11306   */\n      dup3\n        /* \"#utility.yul\":11299:11310   */\n      add\n        /* \"#utility.yul\":11292:11310   */\n      swap1\n      pop\n        /* \"#utility.yul\":10916:11316   */\n      swap2\n      swap1\n      pop\n      jump\t// out\n        /* \"#utility.yul\":11322:11724   */\n    tag_273:\n        /* \"#utility.yul\":11482:11485   */\n      0x00\n        /* \"#utility.yul\":11503:11588   */\n      tag_275\n        /* \"#utility.yul\":11585:11587   */\n      0x16\n        /* \"#utility.yul\":11580:11583   */\n      dup4\n        /* \"#utility.yul\":11503:11588   */\n      tag_210\n      jump\t// in\n    tag_275:\n        /* \"#utility.yul\":11496:11588   */\n      swap2\n      pop\n        /* \"#utility.yul\":11597:11690   */\n      tag_276\n        /* \"#utility.yul\":11686:11689   */\n      dup3\n        /* \"#utility.yul\":11597:11690   */\n      tag_277\n      jump\t// in\n    tag_276:\n        /* \"#utility.yul\":11715:11717   */\n      0x16\n        /* \"#utility.yul\":11710:11713   */\n      dup3\n        /* \"#utility.yul\":11706:11718   */\n      add\n        /* \"#utility.yul\":11699:11718   */\n      swap1\n      pop\n        /* \"#utility.yul\":11322:11724   */\n      swap2\n      swap1\n      pop\n      jump\t// out\n        /* \"#utility.yul\":11730:12132   */\n    tag_278:\n        /* \"#utility.yul\":11890:11893   */\n      0x00\n        /* \"#utility.yul\":11911:11996   */\n      tag_280\n        /* \"#utility.yul\":11993:11995   */\n      0x1e\n        /* \"#utility.yul\":11988:11991   */\n      dup4\n        /* \"#utility.yul\":11911:11996   */\n      tag_210\n      jump\t// in\n    tag_280:\n        /* \"#utility.yul\":11904:11996   */\n      swap2\n      pop\n        /* \"#utility.yul\":12005:12098   */\n      tag_281\n        /* \"#utility.yul\":12094:12097   */\n      dup3\n        /* \"#utility.yul\":12005:12098   */\n      tag_282\n      jump\t// in\n    tag_281:\n        /* \"#utility.yul\":12123:12125   */\n      0x1e\n        /* \"#utility.yul\":12118:12121   */\n      dup3\n        /* \"#utility.yul\":12114:12126   */\n      add\n        /* \"#utility.yul\":12107:12126   */\n      swap1\n      pop\n        /* \"#utility.yul\":11730:12132   */\n      swap2\n      swap1\n      pop\n      jump\t// out\n        /* \"#utility.yul\":12138:12540   */\n    tag_283:\n        /* \"#utility.yul\":12298:12301   */\n      0x00\n        /* \"#utility.yul\":12319:12404   */\n      tag_285\n        /* \"#utility.yul\":12401:12403   */\n      0x39\n        /* \"#utility.yul\":12396:12399   */\n      dup4\n        /* \"#utility.yul\":12319:12404   */\n      tag_210\n      jump\t// in\n    tag_285:\n        /* \"#utility.yul\":12312:12404   */\n      swap2\n      pop\n        /* \"#utility.yul\":12413:12506   */\n      tag_286\n        /* \"#utility.yul\":12502:12505   */\n      dup3\n        /* \"#utility.yul\":12413:12506   */\n      tag_287\n      jump\t// in\n    tag_286:\n        /* \"#utility.yul\":12531:12533   */\n      0x39\n        /* \"#utility.yul\":12526:12529   */\n      dup3\n        /* \"#utility.yul\":12522:12534   */\n      add\n        /* \"#utility.yul\":12515:12534   */\n      swap1\n      pop\n        /* \"#utility.yul\":12138:12540   */\n      swap2\n      swap1\n      pop\n      jump\t// out\n        /* \"#utility.yul\":12546:12948   */\n    tag_288:\n        /* \"#utility.yul\":12706:12709   */\n      0x00\n        /* \"#utility.yul\":12727:12812   */\n      tag_290\n        /* \"#utility.yul\":12809:12811   */\n      0x1e\n        /* \"#utility.yul\":12804:12807   */\n      dup4\n        /* \"#utility.yul\":12727:12812   */\n      tag_210\n      jump\t// in\n    tag_290:\n        /* \"#utility.yul\":12720:12812   */\n      swap2\n      pop\n        /* \"#utility.yul\":12821:12914   */\n      tag_291\n        /* \"#utility.yul\":12910:12913   */\n      dup3\n        /* \"#utility.yul\":12821:12914   */\n      tag_292\n      jump\t// in\n    tag_291:\n        /* \"#utility.yul\":12939:12941   */\n      0x1e\n        /* \"#utility.yul\":12934:12937   */\n      dup3\n        /* \"#utility.yul\":12930:12942   */\n      add\n        /* \"#utility.yul\":12923:12942   */\n      swap1\n      pop\n        /* \"#utility.yul\":12546:12948   */\n      swap2\n      swap1\n      pop\n      jump\t// out\n        /* \"#utility.yul\":12954:13354   */\n    tag_293:\n        /* \"#utility.yul\":13114:13117   */\n      0x00\n        /* \"#utility.yul\":13135:13219   */\n      tag_295\n        /* \"#utility.yul\":13217:13218   */\n      0x02\n        /* \"#utility.yul\":13212:13215   */\n      dup4\n        /* \"#utility.yul\":13135:13219   */\n      tag_210\n      jump\t// in\n    tag_295:\n        /* \"#utility.yul\":13128:13219   */\n      swap2\n      pop\n        /* \"#utility.yul\":13228:13321   */\n      tag_296\n        /* \"#utility.yul\":13317:13320   */\n      dup3\n        /* \"#utility.yul\":13228:13321   */\n      tag_297\n      jump\t// in\n    tag_296:\n        /* \"#utility.yul\":13346:13347   */\n      0x02\n        /* \"#utility.yul\":13341:13344   */\n      dup3\n        /* \"#utility.yul\":13337:13348   */\n      add\n        /* \"#utility.yul\":13330:13348   */\n      swap1\n      pop\n        /* \"#utility.yul\":12954:13354   */\n      swap2\n      swap1\n      pop\n      jump\t// out\n        /* \"#utility.yul\":13360:13762   */\n    tag_298:\n        /* \"#utility.yul\":13520:13523   */\n      0x00\n        /* \"#utility.yul\":13541:13626   */\n      tag_300\n        /* \"#utility.yul\":13623:13625   */\n      0x12\n        /* \"#utility.yul\":13618:13621   */\n      dup4\n        /* \"#utility.yul\":13541:13626   */\n      tag_210\n      jump\t// in\n    tag_300:\n        /* \"#utility.yul\":13534:13626   */\n      swap2\n      pop\n        /* \"#utility.yul\":13635:13728   */\n      tag_301\n        /* \"#utility.yul\":13724:13727   */\n      dup3\n        /* \"#utility.yul\":13635:13728   */\n      tag_302\n      jump\t// in\n    tag_301:\n        /* \"#utility.yul\":13753:13755   */\n      0x12\n        /* \"#utility.yul\":13748:13751   */\n      dup3\n        /* \"#utility.yul\":13744:13756   */\n      add\n        /* \"#utility.yul\":13737:13756   */\n      swap1\n      pop\n        /* \"#utility.yul\":13360:13762   */\n      swap2\n      swap1\n      pop\n      jump\t// out\n        /* \"#utility.yul\":13768:14170   */\n    tag_303:\n        /* \"#utility.yul\":13928:13931   */\n      0x00\n        /* \"#utility.yul\":13949:14034   */\n      tag_305\n        /* \"#utility.yul\":14031:14033   */\n      0x0d\n        /* \"#utility.yul\":14026:14029   */\n      dup4\n        /* \"#utility.yul\":13949:14034   */\n      tag_210\n      jump\t// in\n    tag_305:\n        /* \"#utility.yul\":13942:14034   */\n      swap2\n      pop\n        /* \"#utility.yul\":14043:14136   */\n      tag_306\n        /* \"#utility.yul\":14132:14135   */\n      dup3\n        /* \"#utility.yul\":14043:14136   */\n      tag_307\n      jump\t// in\n    tag_306:\n        /* \"#utility.yul\":14161:14163   */\n      0x0d\n        /* \"#utility.yul\":14156:14159   */\n      dup3\n        /* \"#utility.yul\":14152:14164   */\n      add\n        /* \"#utility.yul\":14145:14164   */\n      swap1\n      pop\n        /* \"#utility.yul\":13768:14170   */\n      swap2\n      swap1\n      pop\n      jump\t// out\n        /* \"#utility.yul\":14176:14578   */\n    tag_308:\n        /* \"#utility.yul\":14336:14339   */\n      0x00\n        /* \"#utility.yul\":14357:14442   */\n      tag_310\n        /* \"#utility.yul\":14439:14441   */\n      0x28\n        /* \"#utility.yul\":14434:14437   */\n      dup4\n        /* \"#utility.yul\":14357:14442   */\n      tag_210\n      jump\t// in\n    tag_310:\n        /* \"#utility.yul\":14350:14442   */\n      swap2\n      pop\n        /* \"#utility.yul\":14451:14544   */\n      tag_311\n        /* \"#utility.yul\":14540:14543   */\n      dup3\n        /* \"#utility.yul\":14451:14544   */\n      tag_312\n      jump\t// in\n    tag_311:\n        /* \"#utility.yul\":14569:14571   */\n      0x28\n        /* \"#utility.yul\":14564:14567   */\n      dup3\n        /* \"#utility.yul\":14560:14572   */\n      add\n        /* \"#utility.yul\":14553:14572   */\n      swap1\n      pop\n        /* \"#utility.yul\":14176:14578   */\n      swap2\n      swap1\n      pop\n      jump\t// out\n        /* \"#utility.yul\":14584:14986   */\n    tag_313:\n        /* \"#utility.yul\":14744:14747   */\n      0x00\n        /* \"#utility.yul\":14765:14850   */\n      tag_315\n        /* \"#utility.yul\":14847:14849   */\n      0x44\n        /* \"#utility.yul\":14842:14845   */\n      dup4\n        /* \"#utility.yul\":14765:14850   */\n      tag_210\n      jump\t// in\n    tag_315:\n        /* \"#utility.yul\":14758:14850   */\n      swap2\n      pop\n        /* \"#utility.yul\":14859:14952   */\n      tag_316\n        /* \"#utility.yul\":14948:14951   */\n      dup3\n        /* \"#utility.yul\":14859:14952   */\n      tag_317\n      jump\t// in\n    tag_316:\n        /* \"#utility.yul\":14977:14979   */\n      0x44\n        /* \"#utility.yul\":14972:14975   */\n      dup3\n        /* \"#utility.yul\":14968:14980   */\n      add\n        /* \"#utility.yul\":14961:14980   */\n      swap1\n      pop\n        /* \"#utility.yul\":14584:14986   */\n      swap2\n      swap1\n      pop\n      jump\t// out\n        /* \"#utility.yul\":14992:15394   */\n    tag_318:\n        /* \"#utility.yul\":15152:15155   */\n      0x00\n        /* \"#utility.yul\":15173:15258   */\n      tag_320\n        /* \"#utility.yul\":15255:15257   */\n      0x30\n        /* \"#utility.yul\":15250:15253   */\n      dup4\n        /* \"#utility.yul\":15173:15258   */\n      tag_210\n      jump\t// in\n    tag_320:\n        /* \"#utility.yul\":15166:15258   */\n      swap2\n      pop\n        /* \"#utility.yul\":15267:15360   */\n      tag_321\n        /* \"#utility.yul\":15356:15359   */\n      dup3\n        /* \"#utility.yul\":15267:15360   */\n      tag_322\n      jump\t// in\n    tag_321:\n        /* \"#utility.yul\":15385:15387   */\n      0x30\n        /* \"#utility.yul\":15380:15383   */\n      dup3\n        /* \"#utility.yul\":15376:15388   */\n      add\n        /* \"#utility.yul\":15369:15388   */\n      swap1\n      pop\n        /* \"#utility.yul\":14992:15394   */\n      swap2\n      swap1\n      pop\n      jump\t// out\n        /* \"#utility.yul\":15400:15802   */\n    tag_323:\n        /* \"#utility.yul\":15560:15563   */\n      0x00\n        /* \"#utility.yul\":15581:15666   */\n      tag_325\n        /* \"#utility.yul\":15663:15665   */\n      0x14\n        /* \"#utility.yul\":15658:15661   */\n      dup4\n        /* \"#utility.yul\":15581:15666   */\n      tag_210\n      jump\t// in\n    tag_325:\n        /* \"#utility.yul\":15574:15666   */\n      swap2\n      pop\n        /* \"#utility.yul\":15675:15768   */\n      tag_326\n        /* \"#utility.yul\":15764:15767   */\n      dup3\n        /* \"#utility.yul\":15675:15768   */\n      tag_327\n      jump\t// in\n    tag_326:\n        /* \"#utility.yul\":15793:15795   */\n      0x14\n        /* \"#utility.yul\":15788:15791   */\n      dup3\n        /* \"#utility.yul\":15784:15796   */\n      add\n        /* \"#utility.yul\":15777:15796   */\n      swap1\n      pop\n        /* \"#utility.yul\":15400:15802   */\n      swap2\n      swap1\n      pop\n      jump\t// out\n        /* \"#utility.yul\":15808:16210   */\n    tag_328:\n        /* \"#utility.yul\":15968:15971   */\n      0x00\n        /* \"#utility.yul\":15989:16074   */\n      tag_330\n        /* \"#utility.yul\":16071:16073   */\n      0x1d\n        /* \"#utility.yul\":16066:16069   */\n      dup4\n        /* \"#utility.yul\":15989:16074   */\n      tag_210\n      jump\t// in\n    tag_330:\n        /* \"#utility.yul\":15982:16074   */\n      swap2\n      pop\n        /* \"#utility.yul\":16083:16176   */\n      tag_331\n        /* \"#utility.yul\":16172:16175   */\n      dup3\n        /* \"#utility.yul\":16083:16176   */\n      tag_332\n      jump\t// in\n    tag_331:\n        /* \"#utility.yul\":16201:16203   */\n      0x1d\n        /* \"#utility.yul\":16196:16199   */\n      dup3\n        /* \"#utility.yul\":16192:16204   */\n      add\n        /* \"#utility.yul\":16185:16204   */\n      swap1\n      pop\n        /* \"#utility.yul\":15808:16210   */\n      swap2\n      swap1\n      pop\n      jump\t// out\n        /* \"#utility.yul\":16216:16618   */\n    tag_333:\n        /* \"#utility.yul\":16376:16379   */\n      0x00\n        /* \"#utility.yul\":16397:16482   */\n      tag_335\n        /* \"#utility.yul\":16479:16481   */\n      0x29\n        /* \"#utility.yul\":16474:16477   */\n      dup4\n        /* \"#utility.yul\":16397:16482   */\n      tag_210\n      jump\t// in\n    tag_335:\n        /* \"#utility.yul\":16390:16482   */\n      swap2\n      pop\n        /* \"#utility.yul\":16491:16584   */\n      tag_336\n        /* \"#utility.yul\":16580:16583   */\n      dup3\n        /* \"#utility.yul\":16491:16584   */\n      tag_337\n      jump\t// in\n    tag_336:\n        /* \"#utility.yul\":16609:16611   */\n      0x29\n        /* \"#utility.yul\":16604:16607   */\n      dup3\n        /* \"#utility.yul\":16600:16612   */\n      add\n        /* \"#utility.yul\":16593:16612   */\n      swap1\n      pop\n        /* \"#utility.yul\":16216:16618   */\n      swap2\n      swap1\n      pop\n      jump\t// out\n        /* \"#utility.yul\":16624:17026   */\n    tag_338:\n        /* \"#utility.yul\":16784:16787   */\n      0x00\n        /* \"#utility.yul\":16805:16890   */\n      tag_340\n        /* \"#utility.yul\":16887:16889   */\n      0x0e\n        /* \"#utility.yul\":16882:16885   */\n      dup4\n        /* \"#utility.yul\":16805:16890   */\n      tag_210\n      jump\t// in\n    tag_340:\n        /* \"#utility.yul\":16798:16890   */\n      swap2\n      pop\n        /* \"#utility.yul\":16899:16992   */\n      tag_341\n        /* \"#utility.yul\":16988:16991   */\n      dup3\n        /* \"#utility.yul\":16899:16992   */\n      tag_342\n      jump\t// in\n    tag_341:\n        /* \"#utility.yul\":17017:17019   */\n      0x0e\n        /* \"#utility.yul\":17012:17015   */\n      dup3\n        /* \"#utility.yul\":17008:17020   */\n      add\n        /* \"#utility.yul\":17001:17020   */\n      swap1\n      pop\n        /* \"#utility.yul\":16624:17026   */\n      swap2\n      swap1\n      pop\n      jump\t// out\n        /* \"#utility.yul\":17032:17434   */\n    tag_343:\n        /* \"#utility.yul\":17192:17195   */\n      0x00\n        /* \"#utility.yul\":17213:17298   */\n      tag_345\n        /* \"#utility.yul\":17295:17297   */\n      0x12\n        /* \"#utility.yul\":17290:17293   */\n      dup4\n        /* \"#utility.yul\":17213:17298   */\n      tag_210\n      jump\t// in\n    tag_345:\n        /* \"#utility.yul\":17206:17298   */\n      swap2\n      pop\n        /* \"#utility.yul\":17307:17400   */\n      tag_346\n        /* \"#utility.yul\":17396:17399   */\n      dup3\n        /* \"#utility.yul\":17307:17400   */\n      tag_347\n      jump\t// in\n    tag_346:\n        /* \"#utility.yul\":17425:17427   */\n      0x12\n        /* \"#utility.yul\":17420:17423   */\n      dup3\n        /* \"#utility.yul\":17416:17428   */\n      add\n        /* \"#utility.yul\":17409:17428   */\n      swap1\n      pop\n        /* \"#utility.yul\":17032:17434   */\n      swap2\n      swap1\n      pop\n      jump\t// out\n        /* \"#utility.yul\":17440:17840   */\n    tag_348:\n        /* \"#utility.yul\":17600:17603   */\n      0x00\n        /* \"#utility.yul\":17621:17705   */\n      tag_350\n        /* \"#utility.yul\":17703:17704   */\n      0x07\n        /* \"#utility.yul\":17698:17701   */\n      dup4\n        /* \"#utility.yul\":17621:17705   */\n      tag_210\n      jump\t// in\n    tag_350:\n        /* \"#utility.yul\":17614:17705   */\n      swap2\n      pop\n        /* \"#utility.yul\":17714:17807   */\n      tag_351\n        /* \"#utility.yul\":17803:17806   */\n      dup3\n        /* \"#utility.yul\":17714:17807   */\n      tag_352\n      jump\t// in\n    tag_351:\n        /* \"#utility.yul\":17832:17833   */\n      0x07\n        /* \"#utility.yul\":17827:17830   */\n      dup3\n        /* \"#utility.yul\":17823:17834   */\n      add\n        /* \"#utility.yul\":17816:17834   */\n      swap1\n      pop\n        /* \"#utility.yul\":17440:17840   */\n      swap2\n      swap1\n      pop\n      jump\t// out\n        /* \"#utility.yul\":17846:18246   */\n    tag_353:\n        /* \"#utility.yul\":18006:18009   */\n      0x00\n        /* \"#utility.yul\":18027:18111   */\n      tag_355\n        /* \"#utility.yul\":18109:18110   */\n      0x06\n        /* \"#utility.yul\":18104:18107   */\n      dup4\n        /* \"#utility.yul\":18027:18111   */\n      tag_210\n      jump\t// in\n    tag_355:\n        /* \"#utility.yul\":18020:18111   */\n      swap2\n      pop\n        /* \"#utility.yul\":18120:18213   */\n      tag_356\n        /* \"#utility.yul\":18209:18212   */\n      dup3\n        /* \"#utility.yul\":18120:18213   */\n      tag_357\n      jump\t// in\n    tag_356:\n        /* \"#utility.yul\":18238:18239   */\n      0x06\n        /* \"#utility.yul\":18233:18236   */\n      dup3\n        /* \"#utility.yul\":18229:18240   */\n      add\n        /* \"#utility.yul\":18222:18240   */\n      swap1\n      pop\n        /* \"#utility.yul\":17846:18246   */\n      swap2\n      swap1\n      pop\n      jump\t// out\n        /* \"#utility.yul\":18252:18654   */\n    tag_358:\n        /* \"#utility.yul\":18412:18415   */\n      0x00\n        /* \"#utility.yul\":18433:18518   */\n      tag_360\n        /* \"#utility.yul\":18515:18517   */\n      0x26\n        /* \"#utility.yul\":18510:18513   */\n      dup4\n        /* \"#utility.yul\":18433:18518   */\n      tag_210\n      jump\t// in\n    tag_360:\n        /* \"#utility.yul\":18426:18518   */\n      swap2\n      pop\n        /* \"#utility.yul\":18527:18620   */\n      tag_361\n        /* \"#utility.yul\":18616:18619   */\n      dup3\n        /* \"#utility.yul\":18527:18620   */\n      tag_362\n      jump\t// in\n    tag_361:\n        /* \"#utility.yul\":18645:18647   */\n      0x26\n        /* \"#utility.yul\":18640:18643   */\n      dup3\n        /* \"#utility.yul\":18636:18648   */\n      add\n        /* \"#utility.yul\":18629:18648   */\n      swap1\n      pop\n        /* \"#utility.yul\":18252:18654   */\n      swap2\n      swap1\n      pop\n      jump\t// out\n        /* \"#utility.yul\":18660:19062   */\n    tag_363:\n        /* \"#utility.yul\":18820:18823   */\n      0x00\n        /* \"#utility.yul\":18841:18926   */\n      tag_365\n        /* \"#utility.yul\":18923:18925   */\n      0x11\n        /* \"#utility.yul\":18918:18921   */\n      dup4\n        /* \"#utility.yul\":18841:18926   */\n      tag_210\n      jump\t// in\n    tag_365:\n        /* \"#utility.yul\":18834:18926   */\n      swap2\n      pop\n        /* \"#utility.yul\":18935:19028   */\n      tag_366\n        /* \"#utility.yul\":19024:19027   */\n      dup3\n        /* \"#utility.yul\":18935:19028   */\n      tag_367\n      jump\t// in\n    tag_366:\n        /* \"#utility.yul\":19053:19055   */\n      0x11\n        /* \"#utility.yul\":19048:19051   */\n      dup3\n        /* \"#utility.yul\":19044:19056   */\n      add\n        /* \"#utility.yul\":19037:19056   */\n      swap1\n      pop\n        /* \"#utility.yul\":18660:19062   */\n      swap2\n      swap1\n      pop\n      jump\t// out\n        /* \"#utility.yul\":19068:19470   */\n    tag_368:\n        /* \"#utility.yul\":19228:19231   */\n      0x00\n        /* \"#utility.yul\":19249:19334   */\n      tag_370\n        /* \"#utility.yul\":19331:19333   */\n      0x1a\n        /* \"#utility.yul\":19326:19329   */\n      dup4\n        /* \"#utility.yul\":19249:19334   */\n      tag_210\n      jump\t// in\n    tag_370:\n        /* \"#utility.yul\":19242:19334   */\n      swap2\n      pop\n        /* \"#utility.yul\":19343:19436   */\n      tag_371\n        /* \"#utility.yul\":19432:19435   */\n      dup3\n        /* \"#utility.yul\":19343:19436   */\n      tag_372\n      jump\t// in\n    tag_371:\n        /* \"#utility.yul\":19461:19463   */\n      0x1a\n        /* \"#utility.yul\":19456:19459   */\n      dup3\n        /* \"#utility.yul\":19452:19464   */\n      add\n        /* \"#utility.yul\":19445:19464   */\n      swap1\n      pop\n        /* \"#utility.yul\":19068:19470   */\n      swap2\n      swap1\n      pop\n      jump\t// out\n        /* \"#utility.yul\":19476:20817   */\n    tag_108:\n        /* \"#utility.yul\":19949:19952   */\n      0x00\n        /* \"#utility.yul\":19971:20066   */\n      tag_374\n        /* \"#utility.yul\":20062:20065   */\n      dup3\n        /* \"#utility.yul\":20053:20059   */\n      dup10\n        /* \"#utility.yul\":19971:20066   */\n      tag_206\n      jump\t// in\n    tag_374:\n        /* \"#utility.yul\":19964:20066   */\n      swap2\n      pop\n        /* \"#utility.yul\":20083:20178   */\n      tag_375\n        /* \"#utility.yul\":20174:20177   */\n      dup3\n        /* \"#utility.yul\":20165:20171   */\n      dup9\n        /* \"#utility.yul\":20083:20178   */\n      tag_206\n      jump\t// in\n    tag_375:\n        /* \"#utility.yul\":20076:20178   */\n      swap2\n      pop\n        /* \"#utility.yul\":20195:20290   */\n      tag_376\n        /* \"#utility.yul\":20286:20289   */\n      dup3\n        /* \"#utility.yul\":20277:20283   */\n      dup8\n        /* \"#utility.yul\":20195:20290   */\n      tag_206\n      jump\t// in\n    tag_376:\n        /* \"#utility.yul\":20188:20290   */\n      swap2\n      pop\n        /* \"#utility.yul\":20307:20402   */\n      tag_377\n        /* \"#utility.yul\":20398:20401   */\n      dup3\n        /* \"#utility.yul\":20389:20395   */\n      dup7\n        /* \"#utility.yul\":20307:20402   */\n      tag_206\n      jump\t// in\n    tag_377:\n        /* \"#utility.yul\":20300:20402   */\n      swap2\n      pop\n        /* \"#utility.yul\":20419:20514   */\n      tag_378\n        /* \"#utility.yul\":20510:20513   */\n      dup3\n        /* \"#utility.yul\":20501:20507   */\n      dup6\n        /* \"#utility.yul\":20419:20514   */\n      tag_206\n      jump\t// in\n    tag_378:\n        /* \"#utility.yul\":20412:20514   */\n      swap2\n      pop\n        /* \"#utility.yul\":20531:20626   */\n      tag_379\n        /* \"#utility.yul\":20622:20625   */\n      dup3\n        /* \"#utility.yul\":20613:20619   */\n      dup5\n        /* \"#utility.yul\":20531:20626   */\n      tag_206\n      jump\t// in\n    tag_379:\n        /* \"#utility.yul\":20524:20626   */\n      swap2\n      pop\n        /* \"#utility.yul\":20643:20791   */\n      tag_380\n        /* \"#utility.yul\":20787:20790   */\n      dup3\n        /* \"#utility.yul\":20643:20791   */\n      tag_353\n      jump\t// in\n    tag_380:\n        /* \"#utility.yul\":20636:20791   */\n      swap2\n      pop\n        /* \"#utility.yul\":20808:20811   */\n      dup2\n        /* \"#utility.yul\":20801:20811   */\n      swap1\n      pop\n        /* \"#utility.yul\":19476:20817   */\n      swap8\n      swap7\n      pop\n      pop\n      pop\n      pop\n      pop\n      pop\n      pop\n      jump\t// out\n        /* \"#utility.yul\":20823:22004   */\n    tag_113:\n        /* \"#utility.yul\":21248:21251   */\n      0x00\n        /* \"#utility.yul\":21270:21365   */\n      tag_382\n        /* \"#utility.yul\":21361:21364   */\n      dup3\n        /* \"#utility.yul\":21352:21358   */\n      dup9\n        /* \"#utility.yul\":21270:21365   */\n      tag_206\n      jump\t// in\n    tag_382:\n        /* \"#utility.yul\":21263:21365   */\n      swap2\n      pop\n        /* \"#utility.yul\":21382:21477   */\n      tag_383\n        /* \"#utility.yul\":21473:21476   */\n      dup3\n        /* \"#utility.yul\":21464:21470   */\n      dup8\n        /* \"#utility.yul\":21382:21477   */\n      tag_206\n      jump\t// in\n    tag_383:\n        /* \"#utility.yul\":21375:21477   */\n      swap2\n      pop\n        /* \"#utility.yul\":21494:21589   */\n      tag_384\n        /* \"#utility.yul\":21585:21588   */\n      dup3\n        /* \"#utility.yul\":21576:21582   */\n      dup7\n        /* \"#utility.yul\":21494:21589   */\n      tag_206\n      jump\t// in\n    tag_384:\n        /* \"#utility.yul\":21487:21589   */\n      swap2\n      pop\n        /* \"#utility.yul\":21606:21701   */\n      tag_385\n        /* \"#utility.yul\":21697:21700   */\n      dup3\n        /* \"#utility.yul\":21688:21694   */\n      dup6\n        /* \"#utility.yul\":21606:21701   */\n      tag_206\n      jump\t// in\n    tag_385:\n        /* \"#utility.yul\":21599:21701   */\n      swap2\n      pop\n        /* \"#utility.yul\":21718:21813   */\n      tag_386\n        /* \"#utility.yul\":21809:21812   */\n      dup3\n        /* \"#utility.yul\":21800:21806   */\n      dup5\n        /* \"#utility.yul\":21718:21813   */\n      tag_206\n      jump\t// in\n    tag_386:\n        /* \"#utility.yul\":21711:21813   */\n      swap2\n      pop\n        /* \"#utility.yul\":21830:21978   */\n      tag_387\n        /* \"#utility.yul\":21974:21977   */\n      dup3\n        /* \"#utility.yul\":21830:21978   */\n      tag_353\n      jump\t// in\n    tag_387:\n        /* \"#utility.yul\":21823:21978   */\n      swap2\n      pop\n        /* \"#utility.yul\":21995:21998   */\n      dup2\n        /* \"#utility.yul\":21988:21998   */\n      swap1\n      pop\n        /* \"#utility.yul\":20823:22004   */\n      swap7\n      swap6\n      pop\n      pop\n      pop\n      pop\n      pop\n      pop\n      jump\t// out\n        /* \"#utility.yul\":22010:26171   */\n    tag_21:\n        /* \"#utility.yul\":23541:23544   */\n      0x00\n        /* \"#utility.yul\":23563:23711   */\n      tag_389\n        /* \"#utility.yul\":23707:23710   */\n      dup3\n        /* \"#utility.yul\":23563:23711   */\n      tag_218\n      jump\t// in\n    tag_389:\n        /* \"#utility.yul\":23556:23711   */\n      swap2\n      pop\n        /* \"#utility.yul\":23728:23876   */\n      tag_390\n        /* \"#utility.yul\":23872:23875   */\n      dup3\n        /* \"#utility.yul\":23728:23876   */\n      tag_348\n      jump\t// in\n    tag_390:\n        /* \"#utility.yul\":23721:23876   */\n      swap2\n      pop\n        /* \"#utility.yul\":23893:23988   */\n      tag_391\n        /* \"#utility.yul\":23984:23987   */\n      dup3\n        /* \"#utility.yul\":23975:23981   */\n      dup11\n        /* \"#utility.yul\":23893:23988   */\n      tag_206\n      jump\t// in\n    tag_391:\n        /* \"#utility.yul\":23886:23988   */\n      swap2\n      pop\n        /* \"#utility.yul\":24005:24153   */\n      tag_392\n        /* \"#utility.yul\":24149:24152   */\n      dup3\n        /* \"#utility.yul\":24005:24153   */\n      tag_363\n      jump\t// in\n    tag_392:\n        /* \"#utility.yul\":23998:24153   */\n      swap2\n      pop\n        /* \"#utility.yul\":24170:24318   */\n      tag_393\n        /* \"#utility.yul\":24314:24317   */\n      dup3\n        /* \"#utility.yul\":24170:24318   */\n      tag_263\n      jump\t// in\n    tag_393:\n        /* \"#utility.yul\":24163:24318   */\n      swap2\n      pop\n        /* \"#utility.yul\":24335:24430   */\n      tag_394\n        /* \"#utility.yul\":24426:24429   */\n      dup3\n        /* \"#utility.yul\":24417:24423   */\n      dup10\n        /* \"#utility.yul\":24335:24430   */\n      tag_206\n      jump\t// in\n    tag_394:\n        /* \"#utility.yul\":24328:24430   */\n      swap2\n      pop\n        /* \"#utility.yul\":24447:24595   */\n      tag_395\n        /* \"#utility.yul\":24591:24594   */\n      dup3\n        /* \"#utility.yul\":24447:24595   */\n      tag_238\n      jump\t// in\n    tag_395:\n        /* \"#utility.yul\":24440:24595   */\n      swap2\n      pop\n        /* \"#utility.yul\":24612:24760   */\n      tag_396\n        /* \"#utility.yul\":24756:24759   */\n      dup3\n        /* \"#utility.yul\":24612:24760   */\n      tag_343\n      jump\t// in\n    tag_396:\n        /* \"#utility.yul\":24605:24760   */\n      swap2\n      pop\n        /* \"#utility.yul\":24777:24872   */\n      tag_397\n        /* \"#utility.yul\":24868:24871   */\n      dup3\n        /* \"#utility.yul\":24859:24865   */\n      dup9\n        /* \"#utility.yul\":24777:24872   */\n      tag_206\n      jump\t// in\n    tag_397:\n        /* \"#utility.yul\":24770:24872   */\n      swap2\n      pop\n        /* \"#utility.yul\":24889:25037   */\n      tag_398\n        /* \"#utility.yul\":25033:25036   */\n      dup3\n        /* \"#utility.yul\":24889:25037   */\n      tag_253\n      jump\t// in\n    tag_398:\n        /* \"#utility.yul\":24882:25037   */\n      swap2\n      pop\n        /* \"#utility.yul\":25054:25149   */\n      tag_399\n        /* \"#utility.yul\":25145:25148   */\n      dup3\n        /* \"#utility.yul\":25136:25142   */\n      dup8\n        /* \"#utility.yul\":25054:25149   */\n      tag_206\n      jump\t// in\n    tag_399:\n        /* \"#utility.yul\":25047:25149   */\n      swap2\n      pop\n        /* \"#utility.yul\":25166:25314   */\n      tag_400\n        /* \"#utility.yul\":25310:25313   */\n      dup3\n        /* \"#utility.yul\":25166:25314   */\n      tag_338\n      jump\t// in\n    tag_400:\n        /* \"#utility.yul\":25159:25314   */\n      swap2\n      pop\n        /* \"#utility.yul\":25331:25426   */\n      tag_401\n        /* \"#utility.yul\":25422:25425   */\n      dup3\n        /* \"#utility.yul\":25413:25419   */\n      dup7\n        /* \"#utility.yul\":25331:25426   */\n      tag_206\n      jump\t// in\n    tag_401:\n        /* \"#utility.yul\":25324:25426   */\n      swap2\n      pop\n        /* \"#utility.yul\":25443:25591   */\n      tag_402\n        /* \"#utility.yul\":25587:25590   */\n      dup3\n        /* \"#utility.yul\":25443:25591   */\n      tag_303\n      jump\t// in\n    tag_402:\n        /* \"#utility.yul\":25436:25591   */\n      swap2\n      pop\n        /* \"#utility.yul\":25608:25703   */\n      tag_403\n        /* \"#utility.yul\":25699:25702   */\n      dup3\n        /* \"#utility.yul\":25690:25696   */\n      dup6\n        /* \"#utility.yul\":25608:25703   */\n      tag_206\n      jump\t// in\n    tag_403:\n        /* \"#utility.yul\":25601:25703   */\n      swap2\n      pop\n        /* \"#utility.yul\":25720:25868   */\n      tag_404\n        /* \"#utility.yul\":25864:25867   */\n      dup3\n        /* \"#utility.yul\":25720:25868   */\n      tag_323\n      jump\t// in\n    tag_404:\n        /* \"#utility.yul\":25713:25868   */\n      swap2\n      pop\n        /* \"#utility.yul\":25885:25980   */\n      tag_405\n        /* \"#utility.yul\":25976:25979   */\n      dup3\n        /* \"#utility.yul\":25967:25973   */\n      dup5\n        /* \"#utility.yul\":25885:25980   */\n      tag_206\n      jump\t// in\n    tag_405:\n        /* \"#utility.yul\":25878:25980   */\n      swap2\n      pop\n        /* \"#utility.yul\":25997:26145   */\n      tag_406\n        /* \"#utility.yul\":26141:26144   */\n      dup3\n        /* \"#utility.yul\":25997:26145   */\n      tag_293\n      jump\t// in\n    tag_406:\n        /* \"#utility.yul\":25990:26145   */\n      swap2\n      pop\n        /* \"#utility.yul\":26162:26165   */\n      dup2\n        /* \"#utility.yul\":26155:26165   */\n      swap1\n      pop\n        /* \"#utility.yul\":22010:26171   */\n      swap9\n      swap8\n      pop\n      pop\n      pop\n      pop\n      pop\n      pop\n      pop\n      pop\n      jump\t// out\n        /* \"#utility.yul\":26177:27144   */\n    tag_36:\n        /* \"#utility.yul\":26559:26562   */\n      0x00\n        /* \"#utility.yul\":26581:26729   */\n      tag_408\n        /* \"#utility.yul\":26725:26728   */\n      dup3\n        /* \"#utility.yul\":26581:26729   */\n      tag_228\n      jump\t// in\n    tag_408:\n        /* \"#utility.yul\":26574:26729   */\n      swap2\n      pop\n        /* \"#utility.yul\":26746:26841   */\n      tag_409\n        /* \"#utility.yul\":26837:26840   */\n      dup3\n        /* \"#utility.yul\":26828:26834   */\n      dup6\n        /* \"#utility.yul\":26746:26841   */\n      tag_206\n      jump\t// in\n    tag_409:\n        /* \"#utility.yul\":26739:26841   */\n      swap2\n      pop\n        /* \"#utility.yul\":26858:26953   */\n      tag_410\n        /* \"#utility.yul\":26949:26952   */\n      dup3\n        /* \"#utility.yul\":26940:26946   */\n      dup5\n        /* \"#utility.yul\":26858:26953   */\n      tag_206\n      jump\t// in\n    tag_410:\n        /* \"#utility.yul\":26851:26953   */\n      swap2\n      pop\n        /* \"#utility.yul\":26970:27118   */\n      tag_411\n        /* \"#utility.yul\":27114:27117   */\n      dup3\n        /* \"#utility.yul\":26970:27118   */\n      tag_268\n      jump\t// in\n    tag_411:\n        /* \"#utility.yul\":26963:27118   */\n      swap2\n      pop\n        /* \"#utility.yul\":27135:27138   */\n      dup2\n        /* \"#utility.yul\":27128:27138   */\n      swap1\n      pop\n        /* \"#utility.yul\":26177:27144   */\n      swap4\n      swap3\n      pop\n      pop\n      pop\n      jump\t// out\n        /* \"#utility.yul\":27150:28383   */\n    tag_118:\n        /* \"#utility.yul\":27633:27636   */\n      0x00\n        /* \"#utility.yul\":27655:27803   */\n      tag_413\n        /* \"#utility.yul\":27799:27802   */\n      dup3\n        /* \"#utility.yul\":27655:27803   */\n      tag_233\n      jump\t// in\n    tag_413:\n        /* \"#utility.yul\":27648:27803   */\n      swap2\n      pop\n        /* \"#utility.yul\":27820:27915   */\n      tag_414\n        /* \"#utility.yul\":27911:27914   */\n      dup3\n        /* \"#utility.yul\":27902:27908   */\n      dup6\n        /* \"#utility.yul\":27820:27915   */\n      tag_206\n      jump\t// in\n    tag_414:\n        /* \"#utility.yul\":27813:27915   */\n      swap2\n      pop\n        /* \"#utility.yul\":27932:28080   */\n      tag_415\n        /* \"#utility.yul\":28076:28079   */\n      dup3\n        /* \"#utility.yul\":27932:28080   */\n      tag_243\n      jump\t// in\n    tag_415:\n        /* \"#utility.yul\":27925:28080   */\n      swap2\n      pop\n        /* \"#utility.yul\":28097:28192   */\n      tag_416\n        /* \"#utility.yul\":28188:28191   */\n      dup3\n        /* \"#utility.yul\":28179:28185   */\n      dup5\n        /* \"#utility.yul\":28097:28192   */\n      tag_206\n      jump\t// in\n    tag_416:\n        /* \"#utility.yul\":28090:28192   */\n      swap2\n      pop\n        /* \"#utility.yul\":28209:28357   */\n      tag_417\n        /* \"#utility.yul\":28353:28356   */\n      dup3\n        /* \"#utility.yul\":28209:28357   */\n      tag_298\n      jump\t// in\n    tag_417:\n        /* \"#utility.yul\":28202:28357   */\n      swap2\n      pop\n        /* \"#utility.yul\":28374:28377   */\n      dup2\n        /* \"#utility.yul\":28367:28377   */\n      swap1\n      pop\n        /* \"#utility.yul\":27150:28383   */\n      swap4\n      swap3\n      pop\n      pop\n      pop\n      jump\t// out\n        /* \"#utility.yul\":28389:28930   */\n    tag_38:\n        /* \"#utility.yul\":28622:28625   */\n      0x00\n        /* \"#utility.yul\":28644:28792   */\n      tag_419\n        /* \"#utility.yul\":28788:28791   */\n      dup3\n        /* \"#utility.yul\":28644:28792   */\n      tag_273\n      jump\t// in\n    tag_419:\n        /* \"#utility.yul\":28637:28792   */\n      swap2\n      pop\n        /* \"#utility.yul\":28809:28904   */\n      tag_420\n        /* \"#utility.yul\":28900:28903   */\n      dup3\n        /* \"#utility.yul\":28891:28897   */\n      dup5\n        /* \"#utility.yul\":28809:28904   */\n      tag_206\n      jump\t// in\n    tag_420:\n        /* \"#utility.yul\":28802:28904   */\n      swap2\n      pop\n        /* \"#utility.yul\":28921:28924   */\n      dup2\n        /* \"#utility.yul\":28914:28924   */\n      swap1\n      pop\n        /* \"#utility.yul\":28389:28930   */\n      swap3\n      swap2\n      pop\n      pop\n      jump\t// out\n        /* \"#utility.yul\":28936:33577   */\n    tag_121:\n        /* \"#utility.yul\":30611:30614   */\n      0x00\n        /* \"#utility.yul\":30633:30781   */\n      tag_422\n        /* \"#utility.yul\":30777:30780   */\n      dup3\n        /* \"#utility.yul\":30633:30781   */\n      tag_318\n      jump\t// in\n    tag_422:\n        /* \"#utility.yul\":30626:30781   */\n      swap2\n      pop\n        /* \"#utility.yul\":30798:30893   */\n      tag_423\n        /* \"#utility.yul\":30889:30892   */\n      dup3\n        /* \"#utility.yul\":30880:30886   */\n      dup14\n        /* \"#utility.yul\":30798:30893   */\n      tag_206\n      jump\t// in\n    tag_423:\n        /* \"#utility.yul\":30791:30893   */\n      swap2\n      pop\n        /* \"#utility.yul\":30910:31058   */\n      tag_424\n        /* \"#utility.yul\":31054:31057   */\n      dup3\n        /* \"#utility.yul\":30910:31058   */\n      tag_308\n      jump\t// in\n    tag_424:\n        /* \"#utility.yul\":30903:31058   */\n      swap2\n      pop\n        /* \"#utility.yul\":31075:31170   */\n      tag_425\n        /* \"#utility.yul\":31166:31169   */\n      dup3\n        /* \"#utility.yul\":31157:31163   */\n      dup13\n        /* \"#utility.yul\":31075:31170   */\n      tag_206\n      jump\t// in\n    tag_425:\n        /* \"#utility.yul\":31068:31170   */\n      swap2\n      pop\n        /* \"#utility.yul\":31187:31335   */\n      tag_426\n        /* \"#utility.yul\":31331:31334   */\n      dup3\n        /* \"#utility.yul\":31187:31335   */\n      tag_283\n      jump\t// in\n    tag_426:\n        /* \"#utility.yul\":31180:31335   */\n      swap2\n      pop\n        /* \"#utility.yul\":31352:31447   */\n      tag_427\n        /* \"#utility.yul\":31443:31446   */\n      dup3\n        /* \"#utility.yul\":31434:31440   */\n      dup12\n        /* \"#utility.yul\":31352:31447   */\n      tag_206\n      jump\t// in\n    tag_427:\n        /* \"#utility.yul\":31345:31447   */\n      swap2\n      pop\n        /* \"#utility.yul\":31464:31612   */\n      tag_428\n        /* \"#utility.yul\":31608:31611   */\n      dup3\n        /* \"#utility.yul\":31464:31612   */\n      tag_313\n      jump\t// in\n    tag_428:\n        /* \"#utility.yul\":31457:31612   */\n      swap2\n      pop\n        /* \"#utility.yul\":31629:31724   */\n      tag_429\n        /* \"#utility.yul\":31720:31723   */\n      dup3\n        /* \"#utility.yul\":31711:31717   */\n      dup11\n        /* \"#utility.yul\":31629:31724   */\n      tag_206\n      jump\t// in\n    tag_429:\n        /* \"#utility.yul\":31622:31724   */\n      swap2\n      pop\n        /* \"#utility.yul\":31741:31889   */\n      tag_430\n        /* \"#utility.yul\":31885:31888   */\n      dup3\n        /* \"#utility.yul\":31741:31889   */\n      tag_358\n      jump\t// in\n    tag_430:\n        /* \"#utility.yul\":31734:31889   */\n      swap2\n      pop\n        /* \"#utility.yul\":31906:32001   */\n      tag_431\n        /* \"#utility.yul\":31997:32000   */\n      dup3\n        /* \"#utility.yul\":31988:31994   */\n      dup10\n        /* \"#utility.yul\":31906:32001   */\n      tag_206\n      jump\t// in\n    tag_431:\n        /* \"#utility.yul\":31899:32001   */\n      swap2\n      pop\n        /* \"#utility.yul\":32018:32166   */\n      tag_432\n        /* \"#utility.yul\":32162:32165   */\n      dup3\n        /* \"#utility.yul\":32018:32166   */\n      tag_333\n      jump\t// in\n    tag_432:\n        /* \"#utility.yul\":32011:32166   */\n      swap2\n      pop\n        /* \"#utility.yul\":32183:32278   */\n      tag_433\n        /* \"#utility.yul\":32274:32277   */\n      dup3\n        /* \"#utility.yul\":32265:32271   */\n      dup9\n        /* \"#utility.yul\":32183:32278   */\n      tag_206\n      jump\t// in\n    tag_433:\n        /* \"#utility.yul\":32176:32278   */\n      swap2\n      pop\n        /* \"#utility.yul\":32295:32443   */\n      tag_434\n        /* \"#utility.yul\":32439:32442   */\n      dup3\n        /* \"#utility.yul\":32295:32443   */\n      tag_248\n      jump\t// in\n    tag_434:\n        /* \"#utility.yul\":32288:32443   */\n      swap2\n      pop\n        /* \"#utility.yul\":32460:32555   */\n      tag_435\n        /* \"#utility.yul\":32551:32554   */\n      dup3\n        /* \"#utility.yul\":32542:32548   */\n      dup8\n        /* \"#utility.yul\":32460:32555   */\n      tag_206\n      jump\t// in\n    tag_435:\n        /* \"#utility.yul\":32453:32555   */\n      swap2\n      pop\n        /* \"#utility.yul\":32572:32720   */\n      tag_436\n        /* \"#utility.yul\":32716:32719   */\n      dup3\n        /* \"#utility.yul\":32572:32720   */\n      tag_258\n      jump\t// in\n    tag_436:\n        /* \"#utility.yul\":32565:32720   */\n      swap2\n      pop\n        /* \"#utility.yul\":32737:32832   */\n      tag_437\n        /* \"#utility.yul\":32828:32831   */\n      dup3\n        /* \"#utility.yul\":32819:32825   */\n      dup7\n        /* \"#utility.yul\":32737:32832   */\n      tag_206\n      jump\t// in\n    tag_437:\n        /* \"#utility.yul\":32730:32832   */\n      swap2\n      pop\n        /* \"#utility.yul\":32849:32997   */\n      tag_438\n        /* \"#utility.yul\":32993:32996   */\n      dup3\n        /* \"#utility.yul\":32849:32997   */\n      tag_278\n      jump\t// in\n    tag_438:\n        /* \"#utility.yul\":32842:32997   */\n      swap2\n      pop\n        /* \"#utility.yul\":33014:33109   */\n      tag_439\n        /* \"#utility.yul\":33105:33108   */\n      dup3\n        /* \"#utility.yul\":33096:33102   */\n      dup6\n        /* \"#utility.yul\":33014:33109   */\n      tag_206\n      jump\t// in\n    tag_439:\n        /* \"#utility.yul\":33007:33109   */\n      swap2\n      pop\n        /* \"#utility.yul\":33126:33274   */\n      tag_440\n        /* \"#utility.yul\":33270:33273   */\n      dup3\n        /* \"#utility.yul\":33126:33274   */\n      tag_288\n      jump\t// in\n    tag_440:\n        /* \"#utility.yul\":33119:33274   */\n      swap2\n      pop\n        /* \"#utility.yul\":33291:33386   */\n      tag_441\n        /* \"#utility.yul\":33382:33385   */\n      dup3\n        /* \"#utility.yul\":33373:33379   */\n      dup5\n        /* \"#utility.yul\":33291:33386   */\n      tag_206\n      jump\t// in\n    tag_441:\n        /* \"#utility.yul\":33284:33386   */\n      swap2\n      pop\n        /* \"#utility.yul\":33403:33551   */\n      tag_442\n        /* \"#utility.yul\":33547:33550   */\n      dup3\n        /* \"#utility.yul\":33403:33551   */\n      tag_223\n      jump\t// in\n    tag_442:\n        /* \"#utility.yul\":33396:33551   */\n      swap2\n      pop\n        /* \"#utility.yul\":33568:33571   */\n      dup2\n        /* \"#utility.yul\":33561:33571   */\n      swap1\n      pop\n        /* \"#utility.yul\":28936:33577   */\n      swap12\n      swap11\n      pop\n      pop\n      pop\n      pop\n      pop\n      pop\n      pop\n      pop\n      pop\n      pop\n      pop\n      jump\t// out\n        /* \"#utility.yul\":33583:34124   */\n    tag_24:\n        /* \"#utility.yul\":33816:33819   */\n      0x00\n        /* \"#utility.yul\":33838:33986   */\n      tag_444\n        /* \"#utility.yul\":33982:33985   */\n      dup3\n        /* \"#utility.yul\":33838:33986   */\n      tag_328\n      jump\t// in\n    tag_444:\n        /* \"#utility.yul\":33831:33986   */\n      swap2\n      pop\n        /* \"#utility.yul\":34003:34098   */\n      tag_445\n        /* \"#utility.yul\":34094:34097   */\n      dup3\n        /* \"#utility.yul\":34085:34091   */\n      dup5\n        /* \"#utility.yul\":34003:34098   */\n      tag_206\n      jump\t// in\n    tag_445:\n        /* \"#utility.yul\":33996:34098   */\n      swap2\n      pop\n        /* \"#utility.yul\":34115:34118   */\n      dup2\n        /* \"#utility.yul\":34108:34118   */\n      swap1\n      pop\n        /* \"#utility.yul\":33583:34124   */\n      swap3\n      swap2\n      pop\n      pop\n      jump\t// out\n        /* \"#utility.yul\":34130:34671   */\n    tag_30:\n        /* \"#utility.yul\":34363:34366   */\n      0x00\n        /* \"#utility.yul\":34385:34533   */\n      tag_447\n        /* \"#utility.yul\":34529:34532   */\n      dup3\n        /* \"#utility.yul\":34385:34533   */\n      tag_368\n      jump\t// in\n    tag_447:\n        /* \"#utility.yul\":34378:34533   */\n      swap2\n      pop\n        /* \"#utility.yul\":34550:34645   */\n      tag_448\n        /* \"#utility.yul\":34641:34644   */\n      dup3\n        /* \"#utility.yul\":34632:34638   */\n      dup5\n        /* \"#utility.yul\":34550:34645   */\n      tag_206\n      jump\t// in\n    tag_448:\n        /* \"#utility.yul\":34543:34645   */\n      swap2\n      pop\n        /* \"#utility.yul\":34662:34665   */\n      dup2\n        /* \"#utility.yul\":34655:34665   */\n      swap1\n      pop\n        /* \"#utility.yul\":34130:34671   */\n      swap3\n      swap2\n      pop\n      pop\n      jump\t// out\n        /* \"#utility.yul\":34677:35006   */\n    tag_8:\n        /* \"#utility.yul\":34798:34802   */\n      0x00\n        /* \"#utility.yul\":34836:34838   */\n      0x20\n        /* \"#utility.yul\":34825:34834   */\n      dup3\n        /* \"#utility.yul\":34821:34839   */\n      add\n        /* \"#utility.yul\":34813:34839   */\n      swap1\n      pop\n        /* \"#utility.yul\":34885:34894   */\n      dup2\n        /* \"#utility.yul\":34879:34883   */\n      dup2\n        /* \"#utility.yul\":34875:34895   */\n      sub\n        /* \"#utility.yul\":34871:34872   */\n      0x00\n        /* \"#utility.yul\":34860:34869   */\n      dup4\n        /* \"#utility.yul\":34856:34873   */\n      add\n        /* \"#utility.yul\":34849:34896   */\n      mstore\n        /* \"#utility.yul\":34913:34999   */\n      tag_450\n        /* \"#utility.yul\":34994:34998   */\n      dup2\n        /* \"#utility.yul\":34985:34991   */\n      dup5\n        /* \"#utility.yul\":34913:34999   */\n      tag_196\n      jump\t// in\n    tag_450:\n        /* \"#utility.yul\":34905:34999   */\n      swap1\n      pop\n        /* \"#utility.yul\":34677:35006   */\n      swap3\n      swap2\n      pop\n      pop\n      jump\t// out\n        /* \"#utility.yul\":35012:35431   */\n    tag_87:\n        /* \"#utility.yul\":35178:35182   */\n      0x00\n        /* \"#utility.yul\":35216:35218   */\n      0x20\n        /* \"#utility.yul\":35205:35214   */\n      dup3\n        /* \"#utility.yul\":35201:35219   */\n      add\n        /* \"#utility.yul\":35193:35219   */\n      swap1\n      pop\n        /* \"#utility.yul\":35265:35274   */\n      dup2\n        /* \"#utility.yul\":35259:35263   */\n      dup2\n        /* \"#utility.yul\":35255:35275   */\n      sub\n        /* \"#utility.yul\":35251:35252   */\n      0x00\n        /* \"#utility.yul\":35240:35249   */\n      dup4\n        /* \"#utility.yul\":35236:35253   */\n      add\n        /* \"#utility.yul\":35229:35276   */\n      mstore\n        /* \"#utility.yul\":35293:35424   */\n      tag_452\n        /* \"#utility.yul\":35419:35423   */\n      dup2\n        /* \"#utility.yul\":35293:35424   */\n      tag_212\n      jump\t// in\n    tag_452:\n        /* \"#utility.yul\":35285:35424   */\n      swap1\n      pop\n        /* \"#utility.yul\":35012:35431   */\n      swap2\n      swap1\n      pop\n      jump\t// out\n        /* \"#utility.yul\":35437:35566   */\n    tag_128:\n        /* \"#utility.yul\":35471:35477   */\n      0x00\n        /* \"#utility.yul\":35498:35518   */\n      tag_454\n      tag_455\n      jump\t// in\n    tag_454:\n        /* \"#utility.yul\":35488:35518   */\n      swap1\n      pop\n        /* \"#utility.yul\":35527:35560   */\n      tag_456\n        /* \"#utility.yul\":35555:35559   */\n      dup3\n        /* \"#utility.yul\":35547:35553   */\n      dup3\n        /* \"#utility.yul\":35527:35560   */\n      tag_457\n      jump\t// in\n    tag_456:\n        /* \"#utility.yul\":35437:35566   */\n      swap2\n      swap1\n      pop\n      jump\t// out\n        /* \"#utility.yul\":35572:35647   */\n    tag_455:\n        /* \"#utility.yul\":35605:35611   */\n      0x00\n        /* \"#utility.yul\":35638:35640   */\n      0x40\n        /* \"#utility.yul\":35632:35641   */\n      mload\n        /* \"#utility.yul\":35622:35641   */\n      swap1\n      pop\n        /* \"#utility.yul\":35572:35647   */\n      swap1\n      jump\t// out\n        /* \"#utility.yul\":35653:35961   */\n    tag_127:\n        /* \"#utility.yul\":35715:35719   */\n      0x00\n        /* \"#utility.yul\":35805:35823   */\n      0xffffffffffffffff\n        /* \"#utility.yul\":35797:35803   */\n      dup3\n        /* \"#utility.yul\":35794:35824   */\n      gt\n        /* \"#utility.yul\":35791:35847   */\n      iszero\n      tag_460\n      jumpi\n        /* \"#utility.yul\":35827:35845   */\n      tag_461\n      tag_49\n      jump\t// in\n    tag_461:\n        /* \"#utility.yul\":35791:35847   */\n    tag_460:\n        /* \"#utility.yul\":35865:35894   */\n      tag_462\n        /* \"#utility.yul\":35887:35893   */\n      dup3\n        /* \"#utility.yul\":35865:35894   */\n      tag_205\n      jump\t// in\n    tag_462:\n        /* \"#utility.yul\":35857:35894   */\n      swap1\n      pop\n        /* \"#utility.yul\":35949:35953   */\n      0x20\n        /* \"#utility.yul\":35943:35947   */\n      dup2\n        /* \"#utility.yul\":35939:35954   */\n      add\n        /* \"#utility.yul\":35931:35954   */\n      swap1\n      pop\n        /* \"#utility.yul\":35653:35961   */\n      swap2\n      swap1\n      pop\n      jump\t// out\n        /* \"#utility.yul\":35967:36066   */\n    tag_199:\n        /* \"#utility.yul\":36019:36025   */\n      0x00\n        /* \"#utility.yul\":36053:36058   */\n      dup2\n        /* \"#utility.yul\":36047:36059   */\n      mload\n        /* \"#utility.yul\":36037:36059   */\n      swap1\n      pop\n        /* \"#utility.yul\":35967:36066   */\n      swap2\n      swap1\n      pop\n      jump\t// out\n        /* \"#utility.yul\":36072:36241   */\n    tag_215:\n        /* \"#utility.yul\":36156:36167   */\n      0x00\n        /* \"#utility.yul\":36190:36196   */\n      dup3\n        /* \"#utility.yul\":36185:36188   */\n      dup3\n        /* \"#utility.yul\":36178:36197   */\n      mstore\n        /* \"#utility.yul\":36230:36234   */\n      0x20\n        /* \"#utility.yul\":36225:36228   */\n      dup3\n        /* \"#utility.yul\":36221:36235   */\n      add\n        /* \"#utility.yul\":36206:36235   */\n      swap1\n      pop\n        /* \"#utility.yul\":36072:36241   */\n      swap3\n      swap2\n      pop\n      pop\n      jump\t// out\n        /* \"#utility.yul\":36247:36424   */\n    tag_201:\n        /* \"#utility.yul\":36339:36350   */\n      0x00\n        /* \"#utility.yul\":36373:36379   */\n      dup3\n        /* \"#utility.yul\":36368:36371   */\n      dup3\n        /* \"#utility.yul\":36361:36380   */\n      mstore\n        /* \"#utility.yul\":36413:36417   */\n      0x20\n        /* \"#utility.yul\":36408:36411   */\n      dup3\n        /* \"#utility.yul\":36404:36418   */\n      add\n        /* \"#utility.yul\":36389:36418   */\n      swap1\n      pop\n        /* \"#utility.yul\":36247:36424   */\n      swap3\n      swap2\n      pop\n      pop\n      jump\t// out\n        /* \"#utility.yul\":36430:36578   */\n    tag_210:\n        /* \"#utility.yul\":36532:36543   */\n      0x00\n        /* \"#utility.yul\":36569:36572   */\n      dup2\n        /* \"#utility.yul\":36554:36572   */\n      swap1\n      pop\n        /* \"#utility.yul\":36430:36578   */\n      swap3\n      swap2\n      pop\n      pop\n      jump\t// out\n        /* \"#utility.yul\":36584:36889   */\n    tag_58:\n        /* \"#utility.yul\":36624:36627   */\n      0x00\n        /* \"#utility.yul\":36643:36663   */\n      tag_468\n        /* \"#utility.yul\":36661:36662   */\n      dup3\n        /* \"#utility.yul\":36643:36663   */\n      tag_469\n      jump\t// in\n    tag_468:\n        /* \"#utility.yul\":36638:36663   */\n      swap2\n      pop\n        /* \"#utility.yul\":36677:36697   */\n      tag_470\n        /* \"#utility.yul\":36695:36696   */\n      dup4\n        /* \"#utility.yul\":36677:36697   */\n      tag_469\n      jump\t// in\n    tag_470:\n        /* \"#utility.yul\":36672:36697   */\n      swap3\n      pop\n        /* \"#utility.yul\":36831:36832   */\n      dup3\n        /* \"#utility.yul\":36763:36829   */\n      0xffffffffffffffffffffffffffffffffffffffffffffffffffffffffffffffff\n        /* \"#utility.yul\":36759:36833   */\n      sub\n        /* \"#utility.yul\":36756:36757   */\n      dup3\n        /* \"#utility.yul\":36753:36834   */\n      gt\n        /* \"#utility.yul\":36750:36857   */\n      iszero\n      tag_471\n      jumpi\n        /* \"#utility.yul\":36837:36855   */\n      tag_472\n      tag_473\n      jump\t// in\n    tag_472:\n        /* \"#utility.yul\":36750:36857   */\n    tag_471:\n        /* \"#utility.yul\":36881:36882   */\n      dup3\n        /* \"#utility.yul\":36878:36879   */\n      dup3\n        /* \"#utility.yul\":36874:36883   */\n      add\n        /* \"#utility.yul\":36867:36883   */\n      swap1\n      pop\n        /* \"#utility.yul\":36584:36889   */\n      swap3\n      swap2\n      pop\n      pop\n      jump\t// out\n        /* \"#utility.yul\":36895:37080   */\n    tag_46:\n        /* \"#utility.yul\":36935:36936   */\n      0x00\n        /* \"#utility.yul\":36952:36972   */\n      tag_475\n        /* \"#utility.yul\":36970:36971   */\n      dup3\n        /* \"#utility.yul\":36952:36972   */\n      tag_469\n      jump\t// in\n    tag_475:\n        /* \"#utility.yul\":36947:36972   */\n      swap2\n      pop\n        /* \"#utility.yul\":36986:37006   */\n      tag_476\n        /* \"#utility.yul\":37004:37005   */\n      dup4\n        /* \"#utility.yul\":36986:37006   */\n      tag_469\n      jump\t// in\n    tag_476:\n        /* \"#utility.yul\":36981:37006   */\n      swap3\n      pop\n        /* \"#utility.yul\":37025:37026   */\n      dup3\n        /* \"#utility.yul\":37015:37050   */\n      tag_477\n      jumpi\n        /* \"#utility.yul\":37030:37048   */\n      tag_478\n      tag_479\n      jump\t// in\n    tag_478:\n        /* \"#utility.yul\":37015:37050   */\n    tag_477:\n        /* \"#utility.yul\":37072:37073   */\n      dup3\n        /* \"#utility.yul\":37069:37070   */\n      dup3\n        /* \"#utility.yul\":37065:37074   */\n      div\n        /* \"#utility.yul\":37060:37074   */\n      swap1\n      pop\n        /* \"#utility.yul\":36895:37080   */\n      swap3\n      swap2\n      pop\n      pop\n      jump\t// out\n        /* \"#utility.yul\":37086:37434   */\n    tag_65:\n        /* \"#utility.yul\":37126:37133   */\n      0x00\n        /* \"#utility.yul\":37149:37169   */\n      tag_481\n        /* \"#utility.yul\":37167:37168   */\n      dup3\n        /* \"#utility.yul\":37149:37169   */\n      tag_469\n      jump\t// in\n    tag_481:\n        /* \"#utility.yul\":37144:37169   */\n      swap2\n      pop\n        /* \"#utility.yul\":37183:37203   */\n      tag_482\n        /* \"#utility.yul\":37201:37202   */\n      dup4\n        /* \"#utility.yul\":37183:37203   */\n      tag_469\n      jump\t// in\n    tag_482:\n        /* \"#utility.yul\":37178:37203   */\n      swap3\n      pop\n        /* \"#utility.yul\":37371:37372   */\n      dup2\n        /* \"#utility.yul\":37303:37369   */\n      0xffffffffffffffffffffffffffffffffffffffffffffffffffffffffffffffff\n        /* \"#utility.yul\":37299:37373   */\n      div\n        /* \"#utility.yul\":37296:37297   */\n      dup4\n        /* \"#utility.yul\":37293:37374   */\n      gt\n        /* \"#utility.yul\":37288:37289   */\n      dup3\n        /* \"#utility.yul\":37281:37290   */\n      iszero\n        /* \"#utility.yul\":37274:37291   */\n      iszero\n        /* \"#utility.yul\":37270:37375   */\n      and\n        /* \"#utility.yul\":37267:37398   */\n      iszero\n      tag_483\n      jumpi\n        /* \"#utility.yul\":37378:37396   */\n      tag_484\n      tag_473\n      jump\t// in\n    tag_484:\n        /* \"#utility.yul\":37267:37398   */\n    tag_483:\n        /* \"#utility.yul\":37426:37427   */\n      dup3\n        /* \"#utility.yul\":37423:37424   */\n      dup3\n        /* \"#utility.yul\":37419:37428   */\n      mul\n        /* \"#utility.yul\":37408:37428   */\n      swap1\n      pop\n        /* \"#utility.yul\":37086:37434   */\n      swap3\n      swap2\n      pop\n      pop\n      jump\t// out\n        /* \"#utility.yul\":37440:37631   */\n    tag_54:\n        /* \"#utility.yul\":37480:37484   */\n      0x00\n        /* \"#utility.yul\":37500:37520   */\n      tag_486\n        /* \"#utility.yul\":37518:37519   */\n      dup3\n        /* \"#utility.yul\":37500:37520   */\n      tag_469\n      jump\t// in\n    tag_486:\n        /* \"#utility.yul\":37495:37520   */\n      swap2\n      pop\n        /* \"#utility.yul\":37534:37554   */\n      tag_487\n        /* \"#utility.yul\":37552:37553   */\n      dup4\n        /* \"#utility.yul\":37534:37554   */\n      tag_469\n      jump\t// in\n    tag_487:\n        /* \"#utility.yul\":37529:37554   */\n      swap3\n      pop\n        /* \"#utility.yul\":37573:37574   */\n      dup3\n        /* \"#utility.yul\":37570:37571   */\n      dup3\n        /* \"#utility.yul\":37567:37575   */\n      lt\n        /* \"#utility.yul\":37564:37598   */\n      iszero\n      tag_488\n      jumpi\n        /* \"#utility.yul\":37578:37596   */\n      tag_489\n      tag_473\n      jump\t// in\n    tag_489:\n        /* \"#utility.yul\":37564:37598   */\n    tag_488:\n        /* \"#utility.yul\":37623:37624   */\n      dup3\n        /* \"#utility.yul\":37620:37621   */\n      dup3\n        /* \"#utility.yul\":37616:37625   */\n      sub\n        /* \"#utility.yul\":37608:37625   */\n      swap1\n      pop\n        /* \"#utility.yul\":37440:37631   */\n      swap3\n      swap2\n      pop\n      pop\n      jump\t// out\n        /* \"#utility.yul\":37637:37733   */\n    tag_490:\n        /* \"#utility.yul\":37674:37681   */\n      0x00\n        /* \"#utility.yul\":37703:37727   */\n      tag_492\n        /* \"#utility.yul\":37721:37726   */\n      dup3\n        /* \"#utility.yul\":37703:37727   */\n      tag_493\n      jump\t// in\n    tag_492:\n        /* \"#utility.yul\":37692:37727   */\n      swap1\n      pop\n        /* \"#utility.yul\":37637:37733   */\n      swap2\n      swap1\n      pop\n      jump\t// out\n        /* \"#utility.yul\":37739:37865   */\n    tag_493:\n        /* \"#utility.yul\":37776:37783   */\n      0x00\n        /* \"#utility.yul\":37816:37858   */\n      0xffffffffffffffffffffffffffffffffffffffff\n        /* \"#utility.yul\":37809:37814   */\n      dup3\n        /* \"#utility.yul\":37805:37859   */\n      and\n        /* \"#utility.yul\":37794:37859   */\n      swap1\n      pop\n        /* \"#utility.yul\":37739:37865   */\n      swap2\n      swap1\n      pop\n      jump\t// out\n        /* \"#utility.yul\":37871:37948   */\n    tag_469:\n        /* \"#utility.yul\":37908:37915   */\n      0x00\n        /* \"#utility.yul\":37937:37942   */\n      dup2\n        /* \"#utility.yul\":37926:37942   */\n      swap1\n      pop\n        /* \"#utility.yul\":37871:37948   */\n      swap2\n      swap1\n      pop\n      jump\t// out\n        /* \"#utility.yul\":37954:38108   */\n    tag_133:\n        /* \"#utility.yul\":38038:38044   */\n      dup3\n        /* \"#utility.yul\":38033:38036   */\n      dup2\n        /* \"#utility.yul\":38028:38031   */\n      dup4\n        /* \"#utility.yul\":38015:38045   */\n      calldatacopy\n        /* \"#utility.yul\":38100:38101   */\n      0x00\n        /* \"#utility.yul\":38091:38097   */\n      dup4\n        /* \"#utility.yul\":38086:38089   */\n      dup4\n        /* \"#utility.yul\":38082:38098   */\n      add\n        /* \"#utility.yul\":38075:38102   */\n      mstore\n        /* \"#utility.yul\":37954:38108   */\n      pop\n      pop\n      pop\n      jump\t// out\n        /* \"#utility.yul\":38114:38421   */\n    tag_203:\n        /* \"#utility.yul\":38182:38183   */\n      0x00\n        /* \"#utility.yul\":38192:38305   */\n    tag_498:\n        /* \"#utility.yul\":38206:38212   */\n      dup4\n        /* \"#utility.yul\":38203:38204   */\n      dup2\n        /* \"#utility.yul\":38200:38213   */\n      lt\n        /* \"#utility.yul\":38192:38305   */\n      iszero\n      tag_500\n      jumpi\n        /* \"#utility.yul\":38291:38292   */\n      dup1\n        /* \"#utility.yul\":38286:38289   */\n      dup3\n        /* \"#utility.yul\":38282:38293   */\n      add\n        /* \"#utility.yul\":38276:38294   */\n      mload\n        /* \"#utility.yul\":38272:38273   */\n      dup2\n        /* \"#utility.yul\":38267:38270   */\n      dup5\n        /* \"#utility.yul\":38263:38274   */\n      add\n        /* \"#utility.yul\":38256:38295   */\n      mstore\n        /* \"#utility.yul\":38228:38230   */\n      0x20\n        /* \"#utility.yul\":38225:38226   */\n      dup2\n        /* \"#utility.yul\":38221:38231   */\n      add\n        /* \"#utility.yul\":38216:38231   */\n      swap1\n      pop\n        /* \"#utility.yul\":38192:38305   */\n      jump(tag_498)\n    tag_500:\n        /* \"#utility.yul\":38323:38329   */\n      dup4\n        /* \"#utility.yul\":38320:38321   */\n      dup2\n        /* \"#utility.yul\":38317:38330   */\n      gt\n        /* \"#utility.yul\":38314:38415   */\n      iszero\n      tag_501\n      jumpi\n        /* \"#utility.yul\":38403:38404   */\n      0x00\n        /* \"#utility.yul\":38394:38400   */\n      dup5\n        /* \"#utility.yul\":38389:38392   */\n      dup5\n        /* \"#utility.yul\":38385:38401   */\n      add\n        /* \"#utility.yul\":38378:38405   */\n      mstore\n        /* \"#utility.yul\":38314:38415   */\n    tag_501:\n        /* \"#utility.yul\":38163:38421   */\n      pop\n        /* \"#utility.yul\":38114:38421   */\n      pop\n      pop\n      pop\n      jump\t// out\n        /* \"#utility.yul\":38427:38598   */\n    tag_84:\n        /* \"#utility.yul\":38466:38469   */\n      0x00\n        /* \"#utility.yul\":38489:38513   */\n      tag_503\n        /* \"#utility.yul\":38507:38512   */\n      dup3\n        /* \"#utility.yul\":38489:38513   */\n      tag_469\n      jump\t// in\n    tag_503:\n        /* \"#utility.yul\":38480:38513   */\n      swap2\n      pop\n        /* \"#utility.yul\":38535:38539   */\n      0x00\n        /* \"#utility.yul\":38528:38533   */\n      dup3\n        /* \"#utility.yul\":38525:38540   */\n      eq\n        /* \"#utility.yul\":38522:38563   */\n      iszero\n      tag_504\n      jumpi\n        /* \"#utility.yul\":38543:38561   */\n      tag_505\n      tag_473\n      jump\t// in\n    tag_505:\n        /* \"#utility.yul\":38522:38563   */\n    tag_504:\n        /* \"#utility.yul\":38590:38591   */\n      0x01\n        /* \"#utility.yul\":38583:38588   */\n      dup3\n        /* \"#utility.yul\":38579:38592   */\n      sub\n        /* \"#utility.yul\":38572:38592   */\n      swap1\n      pop\n        /* \"#utility.yul\":38427:38598   */\n      swap2\n      swap1\n      pop\n      jump\t// out\n        /* \"#utility.yul\":38604:38885   */\n    tag_457:\n        /* \"#utility.yul\":38687:38714   */\n      tag_507\n        /* \"#utility.yul\":38709:38713   */\n      dup3\n        /* \"#utility.yul\":38687:38714   */\n      tag_205\n      jump\t// in\n    tag_507:\n        /* \"#utility.yul\":38679:38685   */\n      dup2\n        /* \"#utility.yul\":38675:38715   */\n      add\n        /* \"#utility.yul\":38817:38823   */\n      dup2\n        /* \"#utility.yul\":38805:38815   */\n      dup2\n        /* \"#utility.yul\":38802:38824   */\n      lt\n        /* \"#utility.yul\":38781:38799   */\n      0xffffffffffffffff\n        /* \"#utility.yul\":38769:38779   */\n      dup3\n        /* \"#utility.yul\":38766:38800   */\n      gt\n        /* \"#utility.yul\":38763:38825   */\n      or\n        /* \"#utility.yul\":38760:38848   */\n      iszero\n      tag_508\n      jumpi\n        /* \"#utility.yul\":38828:38846   */\n      tag_509\n      tag_49\n      jump\t// in\n    tag_509:\n        /* \"#utility.yul\":38760:38848   */\n    tag_508:\n        /* \"#utility.yul\":38868:38878   */\n      dup1\n        /* \"#utility.yul\":38864:38866   */\n      0x40\n        /* \"#utility.yul\":38857:38879   */\n      mstore\n        /* \"#utility.yul\":38647:38885   */\n      pop\n        /* \"#utility.yul\":38604:38885   */\n      pop\n      pop\n      jump\t// out\n        /* \"#utility.yul\":38891:39124   */\n    tag_44:\n        /* \"#utility.yul\":38930:38933   */\n      0x00\n        /* \"#utility.yul\":38953:38977   */\n      tag_511\n        /* \"#utility.yul\":38971:38976   */\n      dup3\n        /* \"#utility.yul\":38953:38977   */\n      tag_469\n      jump\t// in\n    tag_511:\n        /* \"#utility.yul\":38944:38977   */\n      swap2\n      pop\n        /* \"#utility.yul\":38999:39065   */\n      0xffffffffffffffffffffffffffffffffffffffffffffffffffffffffffffffff\n        /* \"#utility.yul\":38992:38997   */\n      dup3\n        /* \"#utility.yul\":38989:39066   */\n      eq\n        /* \"#utility.yul\":38986:39089   */\n      iszero\n      tag_512\n      jumpi\n        /* \"#utility.yul\":39069:39087   */\n      tag_513\n      tag_473\n      jump\t// in\n    tag_513:\n        /* \"#utility.yul\":38986:39089   */\n    tag_512:\n        /* \"#utility.yul\":39116:39117   */\n      0x01\n        /* \"#utility.yul\":39109:39114   */\n      dup3\n        /* \"#utility.yul\":39105:39118   */\n      add\n        /* \"#utility.yul\":39098:39118   */\n      swap1\n      pop\n        /* \"#utility.yul\":38891:39124   */\n      swap2\n      swap1\n      pop\n      jump\t// out\n        /* \"#utility.yul\":39130:39306   */\n    tag_56:\n        /* \"#utility.yul\":39162:39163   */\n      0x00\n        /* \"#utility.yul\":39179:39199   */\n      tag_515\n        /* \"#utility.yul\":39197:39198   */\n      dup3\n        /* \"#utility.yul\":39179:39199   */\n      tag_469\n      jump\t// in\n    tag_515:\n        /* \"#utility.yul\":39174:39199   */\n      swap2\n      pop\n        /* \"#utility.yul\":39213:39233   */\n      tag_516\n        /* \"#utility.yul\":39231:39232   */\n      dup4\n        /* \"#utility.yul\":39213:39233   */\n      tag_469\n      jump\t// in\n    tag_516:\n        /* \"#utility.yul\":39208:39233   */\n      swap3\n      pop\n        /* \"#utility.yul\":39252:39253   */\n      dup3\n        /* \"#utility.yul\":39242:39277   */\n      tag_517\n      jumpi\n        /* \"#utility.yul\":39257:39275   */\n      tag_518\n      tag_479\n      jump\t// in\n    tag_518:\n        /* \"#utility.yul\":39242:39277   */\n    tag_517:\n        /* \"#utility.yul\":39298:39299   */\n      dup3\n        /* \"#utility.yul\":39295:39296   */\n      dup3\n        /* \"#utility.yul\":39291:39300   */\n      mod\n        /* \"#utility.yul\":39286:39300   */\n      swap1\n      pop\n        /* \"#utility.yul\":39130:39306   */\n      swap3\n      swap2\n      pop\n      pop\n      jump\t// out\n        /* \"#utility.yul\":39312:39492   */\n    tag_473:\n        /* \"#utility.yul\":39360:39437   */\n      0x4e487b7100000000000000000000000000000000000000000000000000000000\n        /* \"#utility.yul\":39357:39358   */\n      0x00\n        /* \"#utility.yul\":39350:39438   */\n      mstore\n        /* \"#utility.yul\":39457:39461   */\n      0x11\n        /* \"#utility.yul\":39454:39455   */\n      0x04\n        /* \"#utility.yul\":39447:39462   */\n      mstore\n        /* \"#utility.yul\":39481:39485   */\n      0x24\n        /* \"#utility.yul\":39478:39479   */\n      0x00\n        /* \"#utility.yul\":39471:39486   */\n      revert\n        /* \"#utility.yul\":39498:39678   */\n    tag_479:\n        /* \"#utility.yul\":39546:39623   */\n      0x4e487b7100000000000000000000000000000000000000000000000000000000\n        /* \"#utility.yul\":39543:39544   */\n      0x00\n        /* \"#utility.yul\":39536:39624   */\n      mstore\n        /* \"#utility.yul\":39643:39647   */\n      0x12\n        /* \"#utility.yul\":39640:39641   */\n      0x04\n        /* \"#utility.yul\":39633:39648   */\n      mstore\n        /* \"#utility.yul\":39667:39671   */\n      0x24\n        /* \"#utility.yul\":39664:39665   */\n      0x00\n        /* \"#utility.yul\":39657:39672   */\n      revert\n        /* \"#utility.yul\":39684:39864   */\n    tag_61:\n        /* \"#utility.yul\":39732:39809   */\n      0x4e487b7100000000000000000000000000000000000000000000000000000000\n        /* \"#utility.yul\":39729:39730   */\n      0x00\n        /* \"#utility.yul\":39722:39810   */\n      mstore\n        /* \"#utility.yul\":39829:39833   */\n      0x32\n        /* \"#utility.yul\":39826:39827   */\n      0x04\n        /* \"#utility.yul\":39819:39834   */\n      mstore\n        /* \"#utility.yul\":39853:39857   */\n      0x24\n        /* \"#utility.yul\":39850:39851   */\n      0x00\n        /* \"#utility.yul\":39843:39858   */\n      revert\n        /* \"#utility.yul\":39870:40050   */\n    tag_49:\n        /* \"#utility.yul\":39918:39995   */\n      0x4e487b7100000000000000000000000000000000000000000000000000000000\n        /* \"#utility.yul\":39915:39916   */\n      0x00\n        /* \"#utility.yul\":39908:39996   */\n      mstore\n        /* \"#utility.yul\":40015:40019   */\n      0x41\n        /* \"#utility.yul\":40012:40013   */\n      0x04\n        /* \"#utility.yul\":40005:40020   */\n      mstore\n        /* \"#utility.yul\":40039:40043   */\n      0x24\n        /* \"#utility.yul\":40036:40037   */\n      0x00\n        /* \"#utility.yul\":40029:40044   */\n      revert\n        /* \"#utility.yul\":40056:40173   */\n    tag_142:\n        /* \"#utility.yul\":40165:40166   */\n      0x00\n        /* \"#utility.yul\":40162:40163   */\n      dup1\n        /* \"#utility.yul\":40155:40167   */\n      revert\n        /* \"#utility.yul\":40179:40296   */\n    tag_148:\n        /* \"#utility.yul\":40288:40289   */\n      0x00\n        /* \"#utility.yul\":40285:40286   */\n      dup1\n        /* \"#utility.yul\":40278:40290   */\n      revert\n        /* \"#utility.yul\":40302:40419   */\n    tag_152:\n        /* \"#utility.yul\":40411:40412   */\n      0x00\n        /* \"#utility.yul\":40408:40409   */\n      dup1\n        /* \"#utility.yul\":40401:40413   */\n      revert\n        /* \"#utility.yul\":40425:40542   */\n    tag_131:\n        /* \"#utility.yul\":40534:40535   */\n      0x00\n        /* \"#utility.yul\":40531:40532   */\n      dup1\n        /* \"#utility.yul\":40524:40536   */\n      revert\n        /* \"#utility.yul\":40548:40665   */\n    tag_190:\n        /* \"#utility.yul\":40657:40658   */\n      0x00\n        /* \"#utility.yul\":40654:40655   */\n      dup1\n        /* \"#utility.yul\":40647:40659   */\n      revert\n        /* \"#utility.yul\":40671:40788   */\n    tag_185:\n        /* \"#utility.yul\":40780:40781   */\n      0x00\n        /* \"#utility.yul\":40777:40778   */\n      dup1\n        /* \"#utility.yul\":40770:40782   */\n      revert\n        /* \"#utility.yul\":40794:40896   */\n    tag_205:\n        /* \"#utility.yul\":40835:40841   */\n      0x00\n        /* \"#utility.yul\":40886:40888   */\n      0x1f\n        /* \"#utility.yul\":40882:40889   */\n      not\n        /* \"#utility.yul\":40877:40879   */\n      0x1f\n        /* \"#utility.yul\":40870:40875   */\n      dup4\n        /* \"#utility.yul\":40866:40880   */\n      add\n        /* \"#utility.yul\":40862:40890   */\n      and\n        /* \"#utility.yul\":40852:40890   */\n      swap1\n      pop\n        /* \"#utility.yul\":40794:40896   */\n      swap2\n      swap1\n      pop\n      jump\t// out\n        /* \"#utility.yul\":40902:41084   */\n    tag_217:\n        /* \"#utility.yul\":41042:41076   */\n      0x537472696e67733a20686578206c656e67746820696e73756666696369656e74\n        /* \"#utility.yul\":41038:41039   */\n      0x00\n        /* \"#utility.yul\":41030:41036   */\n      dup3\n        /* \"#utility.yul\":41026:41040   */\n      add\n        /* \"#utility.yul\":41019:41077   */\n      mstore\n        /* \"#utility.yul\":40902:41084   */\n      pop\n      jump\t// out\n        /* \"#utility.yul\":41090:41304   */\n    tag_222:\n        /* \"#utility.yul\":41230:41296   */\n      0x7b226e616d65223a220000000000000000000000000000000000000000000000\n        /* \"#utility.yul\":41226:41227   */\n      0x00\n        /* \"#utility.yul\":41218:41224   */\n      dup3\n        /* \"#utility.yul\":41214:41228   */\n      add\n        /* \"#utility.yul\":41207:41297   */\n      mstore\n        /* \"#utility.yul\":41090:41304   */\n      pop\n      jump\t// out\n        /* \"#utility.yul\":41310:41462   */\n    tag_227:\n        /* \"#utility.yul\":41446:41458   */\n      0x7d203c2f7374796c653e00000000000000000000000000000000000000000000\n        /* \"#utility.yul\":41442:41443   */\n      0x00\n        /* \"#utility.yul\":41434:41440   */\n      dup3\n        /* \"#utility.yul\":41430:41444   */\n      add\n        /* \"#utility.yul\":41423:41459   */\n      mstore\n        /* \"#utility.yul\":41310:41462   */\n      pop\n      jump\t// out\n        /* \"#utility.yul\":41464:41933   */\n    tag_232:\n        /* \"#utility.yul\":41600:41634   */\n      0x3c21444f43545950452068746d6c3e3c68746d6c3e3c6d657461206e616d653d\n        /* \"#utility.yul\":41596:41597   */\n      0x00\n        /* \"#utility.yul\":41588:41594   */\n      dup3\n        /* \"#utility.yul\":41584:41598   */\n      add\n        /* \"#utility.yul\":41577:41635   */\n      mstore\n        /* \"#utility.yul\":41665:41731   */\n      0x2276696577706f72742220636f6e74656e743d2277696474683d646576696365\n        /* \"#utility.yul\":41660:41662   */\n      0x20\n        /* \"#utility.yul\":41652:41658   */\n      dup3\n        /* \"#utility.yul\":41648:41663   */\n      add\n        /* \"#utility.yul\":41641:41732   */\n      mstore\n        /* \"#utility.yul\":41762:41796   */\n      0x2d77696474682c20696e697469616c2d7363616c653d312c206d6178696d756d\n        /* \"#utility.yul\":41757:41759   */\n      0x40\n        /* \"#utility.yul\":41749:41755   */\n      dup3\n        /* \"#utility.yul\":41745:41760   */\n      add\n        /* \"#utility.yul\":41738:41797   */\n      mstore\n        /* \"#utility.yul\":41827:41893   */\n      0x2d7363616c653d31222f3e3c6d65746120636861727365743d227574662d3822\n        /* \"#utility.yul\":41822:41824   */\n      0x60\n        /* \"#utility.yul\":41814:41820   */\n      dup3\n        /* \"#utility.yul\":41810:41825   */\n      add\n        /* \"#utility.yul\":41803:41894   */\n      mstore\n        /* \"#utility.yul\":41925:41929   */\n      0x2f3e000000000000000000000000000000000000000000000000000000000000\n        /* \"#utility.yul\":41919:41922   */\n      0x80\n        /* \"#utility.yul\":41911:41917   */\n      dup3\n        /* \"#utility.yul\":41907:41923   */\n      add\n        /* \"#utility.yul\":41900:41930   */\n      mstore\n        /* \"#utility.yul\":41464:41933   */\n      pop\n      jump\t// out\n        /* \"#utility.yul\":41935:42238   */\n    tag_237:\n        /* \"#utility.yul\":42071:42137   */\n      0x3c6720636c6173733d226d65746164617461223e203c7465787420783d223530\n        /* \"#utility.yul\":42067:42068   */\n      0x00\n        /* \"#utility.yul\":42059:42065   */\n      dup3\n        /* \"#utility.yul\":42055:42069   */\n      add\n        /* \"#utility.yul\":42048:42138   */\n      mstore\n        /* \"#utility.yul\":42168:42234   */\n      0x2220793d2239303022203e6f776e65723a200000000000000000000000000000\n        /* \"#utility.yul\":42163:42165   */\n      0x20\n        /* \"#utility.yul\":42155:42161   */\n      dup3\n        /* \"#utility.yul\":42151:42166   */\n      add\n        /* \"#utility.yul\":42144:42235   */\n      mstore\n        /* \"#utility.yul\":41935:42238   */\n      pop\n      jump\t// out\n        /* \"#utility.yul\":42240:42446   */\n    tag_242:\n        /* \"#utility.yul\":42376:42442   */\n      0x2920746f207669657720616e6420706c617920796f75722067616d65732e2200\n        /* \"#utility.yul\":42372:42373   */\n      0x00\n        /* \"#utility.yul\":42364:42370   */\n      dup3\n        /* \"#utility.yul\":42360:42374   */\n      add\n        /* \"#utility.yul\":42353:42443   */\n      mstore\n        /* \"#utility.yul\":42240:42446   */\n      pop\n      jump\t// out\n        /* \"#utility.yul\":42448:42654   */\n    tag_247:\n        /* \"#utility.yul\":42584:42650   */\n      0x3c2f746578743e203c7465787420783d2235302220793d22393530223e000000\n        /* \"#utility.yul\":42580:42581   */\n      0x00\n        /* \"#utility.yul\":42572:42578   */\n      dup3\n        /* \"#utility.yul\":42568:42582   */\n      add\n        /* \"#utility.yul\":42561:42651   */\n      mstore\n        /* \"#utility.yul\":42448:42654   */\n      pop\n      jump\t// out\n        /* \"#utility.yul\":42656:42820   */\n    tag_252:\n        /* \"#utility.yul\":42792:42816   */\n      0x7d202e6261636b67726f756e64207b66696c6c3a202300000000000000000000\n        /* \"#utility.yul\":42788:42789   */\n      0x00\n        /* \"#utility.yul\":42780:42786   */\n      dup3\n        /* \"#utility.yul\":42776:42790   */\n      add\n        /* \"#utility.yul\":42769:42817   */\n      mstore\n        /* \"#utility.yul\":42656:42820   */\n      pop\n      jump\t// out\n        /* \"#utility.yul\":42822:43125   */\n    tag_257:\n        /* \"#utility.yul\":42958:43024   */\n      0x222c202261747472696275746573223a205b7b2274726169745f74797065223a\n        /* \"#utility.yul\":42954:42955   */\n      0x00\n        /* \"#utility.yul\":42946:42952   */\n      dup3\n        /* \"#utility.yul\":42942:42956   */\n      add\n        /* \"#utility.yul\":42935:43025   */\n      mstore\n        /* \"#utility.yul\":43055:43121   */\n      0x2022436f6c6f7220536368656d65222c202276616c7565223a22000000000000\n        /* \"#utility.yul\":43050:43052   */\n      0x20\n        /* \"#utility.yul\":43042:43048   */\n      dup3\n        /* \"#utility.yul\":43038:43053   */\n      add\n        /* \"#utility.yul\":43031:43122   */\n      mstore\n        /* \"#utility.yul\":42822:43125   */\n      pop\n      jump\t// out\n        /* \"#utility.yul\":43127:43284   */\n    tag_262:\n        /* \"#utility.yul\":43263:43280   */\n      0x7d202e6d6170207b66696c6c3a20230000000000000000000000000000000000\n        /* \"#utility.yul\":43259:43260   */\n      0x00\n        /* \"#utility.yul\":43251:43257   */\n      dup3\n        /* \"#utility.yul\":43247:43261   */\n      add\n        /* \"#utility.yul\":43240:43281   */\n      mstore\n        /* \"#utility.yul\":43127:43284   */\n      pop\n      jump\t// out\n        /* \"#utility.yul\":43286:43728   */\n    tag_267:\n        /* \"#utility.yul\":43422:43488   */\n      0x2246756c6c79206f6e20636861696e2067616d65206f6620536e616b652e2054\n        /* \"#utility.yul\":43418:43419   */\n      0x00\n        /* \"#utility.yul\":43410:43416   */\n      dup3\n        /* \"#utility.yul\":43406:43420   */\n      add\n        /* \"#utility.yul\":43399:43489   */\n      mstore\n        /* \"#utility.yul\":43519:43553   */\n      0x6f20656e6a6f792c2073696d706c7920636f70792074686520696d6167652075\n        /* \"#utility.yul\":43514:43516   */\n      0x20\n        /* \"#utility.yul\":43506:43512   */\n      dup3\n        /* \"#utility.yul\":43502:43517   */\n      add\n        /* \"#utility.yul\":43495:43554   */\n      mstore\n        /* \"#utility.yul\":43584:43618   */\n      0x726c20616e6420706173746520697420696e2061207765622062726f77736572\n        /* \"#utility.yul\":43579:43581   */\n      0x40\n        /* \"#utility.yul\":43571:43577   */\n      dup3\n        /* \"#utility.yul\":43567:43582   */\n      add\n        /* \"#utility.yul\":43560:43619   */\n      mstore\n        /* \"#utility.yul\":43649:43683   */\n      0x2e204f722c207669736974206f7572205b4f6666696369616c20576562736974\n        /* \"#utility.yul\":43644:43646   */\n      0x60\n        /* \"#utility.yul\":43636:43642   */\n      dup3\n        /* \"#utility.yul\":43632:43647   */\n      add\n        /* \"#utility.yul\":43625:43684   */\n      mstore\n        /* \"#utility.yul\":43715:43720   */\n      0x655d280000000000000000000000000000000000000000000000000000000000\n        /* \"#utility.yul\":43709:43712   */\n      0x80\n        /* \"#utility.yul\":43701:43707   */\n      dup3\n        /* \"#utility.yul\":43697:43713   */\n      add\n        /* \"#utility.yul\":43690:43721   */\n      mstore\n        /* \"#utility.yul\":43286:43728   */\n      pop\n      jump\t// out\n        /* \"#utility.yul\":43734:43891   */\n    tag_272:\n        /* \"#utility.yul\":43874:43883   */\n      0x3c2f68746d6c3e00000000000000000000000000000000000000000000000000\n        /* \"#utility.yul\":43870:43871   */\n      0x00\n        /* \"#utility.yul\":43862:43868   */\n      dup3\n        /* \"#utility.yul\":43858:43872   */\n      add\n        /* \"#utility.yul\":43851:43884   */\n      mstore\n        /* \"#utility.yul\":43734:43891   */\n      pop\n      jump\t// out\n        /* \"#utility.yul\":43897:44069   */\n    tag_277:\n        /* \"#utility.yul\":44037:44061   */\n      0x646174613a746578742f68746d6c3b6261736536342c00000000000000000000\n        /* \"#utility.yul\":44033:44034   */\n      0x00\n        /* \"#utility.yul\":44025:44031   */\n      dup3\n        /* \"#utility.yul\":44021:44035   */\n      add\n        /* \"#utility.yul\":44014:44062   */\n      mstore\n        /* \"#utility.yul\":43897:44069   */\n      pop\n      jump\t// out\n        /* \"#utility.yul\":44075:44255   */\n    tag_282:\n        /* \"#utility.yul\":44215:44247   */\n      0x7d202e666f6f64207b7374726f6b653a20233030303b2066696c6c3a20230000\n        /* \"#utility.yul\":44211:44212   */\n      0x00\n        /* \"#utility.yul\":44203:44209   */\n      dup3\n        /* \"#utility.yul\":44199:44213   */\n      add\n        /* \"#utility.yul\":44192:44248   */\n      mstore\n        /* \"#utility.yul\":44075:44255   */\n      pop\n      jump\t// out\n        /* \"#utility.yul\":44261:44505   */\n    tag_287:\n        /* \"#utility.yul\":44401:44435   */\n      0x207d202e7374617274207b666f6e743a203335707820436f75726965723b2066\n        /* \"#utility.yul\":44397:44398   */\n      0x00\n        /* \"#utility.yul\":44389:44395   */\n      dup3\n        /* \"#utility.yul\":44385:44399   */\n      add\n        /* \"#utility.yul\":44378:44436   */\n      mstore\n        /* \"#utility.yul\":44470:44497   */\n      0x696c6c2d6f7061636974793a202e37303b2066696c6c3a202300000000000000\n        /* \"#utility.yul\":44465:44467   */\n      0x20\n        /* \"#utility.yul\":44457:44463   */\n      dup3\n        /* \"#utility.yul\":44453:44468   */\n      add\n        /* \"#utility.yul\":44446:44498   */\n      mstore\n        /* \"#utility.yul\":44261:44505   */\n      pop\n      jump\t// out\n        /* \"#utility.yul\":44511:44691   */\n    tag_292:\n        /* \"#utility.yul\":44651:44683   */\n      0x7d202e736e616b657b7374726f6b653a20233030303b2066696c6c3a20230000\n        /* \"#utility.yul\":44647:44648   */\n      0x00\n        /* \"#utility.yul\":44639:44645   */\n      dup3\n        /* \"#utility.yul\":44635:44649   */\n      add\n        /* \"#utility.yul\":44628:44684   */\n      mstore\n        /* \"#utility.yul\":44511:44691   */\n      pop\n      jump\t// out\n        /* \"#utility.yul\":44697:44911   */\n    tag_297:\n        /* \"#utility.yul\":44837:44903   */\n      0x227d000000000000000000000000000000000000000000000000000000000000\n        /* \"#utility.yul\":44833:44834   */\n      0x00\n        /* \"#utility.yul\":44825:44831   */\n      dup3\n        /* \"#utility.yul\":44821:44835   */\n      add\n        /* \"#utility.yul\":44814:44904   */\n      mstore\n        /* \"#utility.yul\":44697:44911   */\n      pop\n      jump\t// out\n        /* \"#utility.yul\":44917:45085   */\n    tag_302:\n        /* \"#utility.yul\":45057:45077   */\n      0x2f31303030303c2f746578743e203c2f673e0000000000000000000000000000\n        /* \"#utility.yul\":45053:45054   */\n      0x00\n        /* \"#utility.yul\":45045:45051   */\n      dup3\n        /* \"#utility.yul\":45041:45055   */\n      add\n        /* \"#utility.yul\":45034:45078   */\n      mstore\n        /* \"#utility.yul\":44917:45085   */\n      pop\n      jump\t// out\n        /* \"#utility.yul\":45091:45305   */\n    tag_307:\n        /* \"#utility.yul\":45231:45297   */\n      0x222c2022696d616765223a202200000000000000000000000000000000000000\n        /* \"#utility.yul\":45227:45228   */\n      0x00\n        /* \"#utility.yul\":45219:45225   */\n      dup3\n        /* \"#utility.yul\":45215:45229   */\n      add\n        /* \"#utility.yul\":45208:45298   */\n      mstore\n        /* \"#utility.yul\":45091:45305   */\n      pop\n      jump\t// out\n        /* \"#utility.yul\":45311:45538   */\n    tag_312:\n        /* \"#utility.yul\":45451:45485   */\n      0x207d202e7469746c65207b20666f6e743a20203830707820436f75726965723b\n        /* \"#utility.yul\":45447:45448   */\n      0x00\n        /* \"#utility.yul\":45439:45445   */\n      dup3\n        /* \"#utility.yul\":45435:45449   */\n      add\n        /* \"#utility.yul\":45428:45486   */\n      mstore\n        /* \"#utility.yul\":45520:45530   */\n      0x2066696c6c3a2023000000000000000000000000000000000000000000000000\n        /* \"#utility.yul\":45515:45517   */\n      0x20\n        /* \"#utility.yul\":45507:45513   */\n      dup3\n        /* \"#utility.yul\":45503:45518   */\n      add\n        /* \"#utility.yul\":45496:45531   */\n      mstore\n        /* \"#utility.yul\":45311:45538   */\n      pop\n      jump\t// out\n        /* \"#utility.yul\":45544:45836   */\n    tag_317:\n        /* \"#utility.yul\":45684:45718   */\n      0x7d202e646972656374696f6e73207b666f6e743a206974616c69632033307078\n        /* \"#utility.yul\":45680:45681   */\n      0x00\n        /* \"#utility.yul\":45672:45678   */\n      dup3\n        /* \"#utility.yul\":45668:45682   */\n      add\n        /* \"#utility.yul\":45661:45719   */\n      mstore\n        /* \"#utility.yul\":45753:45787   */\n      0x20436f75726965723b2066696c6c2d6f7061636974793a202e37303b2066696c\n        /* \"#utility.yul\":45748:45750   */\n      0x20\n        /* \"#utility.yul\":45740:45746   */\n      dup3\n        /* \"#utility.yul\":45736:45751   */\n      add\n        /* \"#utility.yul\":45729:45788   */\n      mstore\n        /* \"#utility.yul\":45822:45828   */\n      0x6c3a202300000000000000000000000000000000000000000000000000000000\n        /* \"#utility.yul\":45817:45819   */\n      0x40\n        /* \"#utility.yul\":45809:45815   */\n      dup3\n        /* \"#utility.yul\":45805:45820   */\n      add\n        /* \"#utility.yul\":45798:45829   */\n      mstore\n        /* \"#utility.yul\":45544:45836   */\n      pop\n      jump\t// out\n        /* \"#utility.yul\":45842:46085   */\n    tag_322:\n        /* \"#utility.yul\":45982:46016   */\n      0x3c7374796c653e202e6d65746164617461207b20666f6e743a20203330707820\n        /* \"#utility.yul\":45978:45979   */\n      0x00\n        /* \"#utility.yul\":45970:45976   */\n      dup3\n        /* \"#utility.yul\":45966:45980   */\n      add\n        /* \"#utility.yul\":45959:46017   */\n      mstore\n        /* \"#utility.yul\":46055:46073   */\n      0x436f75726965723b2066696c6c3a202300000000000000000000000000000000\n        /* \"#utility.yul\":46050:46052   */\n      0x20\n        /* \"#utility.yul\":46042:46048   */\n      dup3\n        /* \"#utility.yul\":46038:46053   */\n      add\n        /* \"#utility.yul\":46031:46074   */\n      mstore\n        /* \"#utility.yul\":45842:46085   */\n      pop\n      jump\t// out\n        /* \"#utility.yul\":46095:46317   */\n    tag_327:\n        /* \"#utility.yul\":46239:46305   */\n      0x222c2022616e696d6174696f6e5f75726c223a22000000000000000000000000\n        /* \"#utility.yul\":46235:46236   */\n      0x00\n        /* \"#utility.yul\":46227:46233   */\n      dup3\n        /* \"#utility.yul\":46223:46237   */\n      add\n        /* \"#utility.yul\":46216:46306   */\n      mstore\n        /* \"#utility.yul\":46095:46317   */\n      pop\n      jump\t// out\n        /* \"#utility.yul\":46327:46514   */\n    tag_332:\n        /* \"#utility.yul\":46471:46502   */\n      0x646174613a6170706c69636174696f6e2f6a736f6e3b6261736536342c000000\n        /* \"#utility.yul\":46467:46468   */\n      0x00\n        /* \"#utility.yul\":46459:46465   */\n      dup3\n        /* \"#utility.yul\":46455:46469   */\n      add\n        /* \"#utility.yul\":46448:46503   */\n      mstore\n        /* \"#utility.yul\":46327:46514   */\n      pop\n      jump\t// out\n        /* \"#utility.yul\":46524:46764   */\n    tag_337:\n        /* \"#utility.yul\":46668:46702   */\n      0x7d202e6869676853636f7265207b666f6e743a203235707820436f7572696572\n        /* \"#utility.yul\":46664:46665   */\n      0x00\n        /* \"#utility.yul\":46656:46662   */\n      dup3\n        /* \"#utility.yul\":46652:46666   */\n      add\n        /* \"#utility.yul\":46645:46703   */\n      mstore\n        /* \"#utility.yul\":46741:46752   */\n      0x3b2066696c6c3a20230000000000000000000000000000000000000000000000\n        /* \"#utility.yul\":46736:46738   */\n      0x20\n        /* \"#utility.yul\":46728:46734   */\n      dup3\n        /* \"#utility.yul\":46724:46739   */\n      add\n        /* \"#utility.yul\":46717:46753   */\n      mstore\n        /* \"#utility.yul\":46524:46764   */\n      pop\n      jump\t// out\n        /* \"#utility.yul\":46774:46996   */\n    tag_342:\n        /* \"#utility.yul\":46918:46984   */\n      0x227d5d2c20226f776e6572223a22000000000000000000000000000000000000\n        /* \"#utility.yul\":46914:46915   */\n      0x00\n        /* \"#utility.yul\":46906:46912   */\n      dup3\n        /* \"#utility.yul\":46902:46916   */\n      add\n        /* \"#utility.yul\":46895:46985   */\n      mstore\n        /* \"#utility.yul\":46774:46996   */\n      pop\n      jump\t// out\n        /* \"#utility.yul\":47006:47228   */\n    tag_347:\n        /* \"#utility.yul\":47150:47216   */\n      0x2c202265787465726e616c5f75726c223a220000000000000000000000000000\n        /* \"#utility.yul\":47146:47147   */\n      0x00\n        /* \"#utility.yul\":47138:47144   */\n      dup3\n        /* \"#utility.yul\":47134:47148   */\n      add\n        /* \"#utility.yul\":47127:47217   */\n      mstore\n        /* \"#utility.yul\":47006:47228   */\n      pop\n      jump\t// out\n        /* \"#utility.yul\":47238:47403   */\n    tag_352:\n        /* \"#utility.yul\":47382:47391   */\n      0x536e616b65202300000000000000000000000000000000000000000000000000\n        /* \"#utility.yul\":47378:47379   */\n      0x00\n        /* \"#utility.yul\":47370:47376   */\n      dup3\n        /* \"#utility.yul\":47366:47380   */\n      add\n        /* \"#utility.yul\":47359:47392   */\n      mstore\n        /* \"#utility.yul\":47238:47403   */\n      pop\n      jump\t// out\n        /* \"#utility.yul\":47413:47577   */\n    tag_357:\n        /* \"#utility.yul\":47557:47565   */\n      0x3c2f7376673e0000000000000000000000000000000000000000000000000000\n        /* \"#utility.yul\":47553:47554   */\n      0x00\n        /* \"#utility.yul\":47545:47551   */\n      dup3\n        /* \"#utility.yul\":47541:47555   */\n      add\n        /* \"#utility.yul\":47534:47566   */\n      mstore\n        /* \"#utility.yul\":47413:47577   */\n      pop\n      jump\t// out\n        /* \"#utility.yul\":47587:47824   */\n    tag_362:\n        /* \"#utility.yul\":47731:47765   */\n      0x207d202e73636f7265207b666f6e743a203430707820436f75726965723b2066\n        /* \"#utility.yul\":47727:47728   */\n      0x00\n        /* \"#utility.yul\":47719:47725   */\n      dup3\n        /* \"#utility.yul\":47715:47729   */\n      add\n        /* \"#utility.yul\":47708:47766   */\n      mstore\n        /* \"#utility.yul\":47804:47812   */\n      0x696c6c3a20230000000000000000000000000000000000000000000000000000\n        /* \"#utility.yul\":47799:47801   */\n      0x20\n        /* \"#utility.yul\":47791:47797   */\n      dup3\n        /* \"#utility.yul\":47787:47802   */\n      add\n        /* \"#utility.yul\":47780:47813   */\n      mstore\n        /* \"#utility.yul\":47587:47824   */\n      pop\n      jump\t// out\n        /* \"#utility.yul\":47834:48056   */\n    tag_367:\n        /* \"#utility.yul\":47978:48044   */\n      0x222c20226465736372697074696f6e223a000000000000000000000000000000\n        /* \"#utility.yul\":47974:47975   */\n      0x00\n        /* \"#utility.yul\":47966:47972   */\n      dup3\n        /* \"#utility.yul\":47962:47976   */\n      add\n        /* \"#utility.yul\":47955:48045   */\n      mstore\n        /* \"#utility.yul\":47834:48056   */\n      pop\n      jump\t// out\n        /* \"#utility.yul\":48066:48250   */\n    tag_372:\n        /* \"#utility.yul\":48210:48238   */\n      0x646174613a696d6167652f7376672b786d6c3b6261736536342c000000000000\n        /* \"#utility.yul\":48206:48207   */\n      0x00\n        /* \"#utility.yul\":48198:48204   */\n      dup3\n        /* \"#utility.yul\":48194:48208   */\n      add\n        /* \"#utility.yul\":48187:48239   */\n      mstore\n        /* \"#utility.yul\":48066:48250   */\n      pop\n      jump\t// out\n        /* \"#utility.yul\":48260:48390   */\n    tag_137:\n        /* \"#utility.yul\":48337:48361   */\n      tag_563\n        /* \"#utility.yul\":48355:48360   */\n      dup2\n        /* \"#utility.yul\":48337:48361   */\n      tag_490\n      jump\t// in\n    tag_563:\n        /* \"#utility.yul\":48330:48335   */\n      dup2\n        /* \"#utility.yul\":48327:48362   */\n      eq\n        /* \"#utility.yul\":48317:48380   */\n      tag_564\n      jumpi\n        /* \"#utility.yul\":48376:48377   */\n      0x00\n        /* \"#utility.yul\":48373:48374   */\n      dup1\n        /* \"#utility.yul\":48366:48378   */\n      revert\n        /* \"#utility.yul\":48317:48380   */\n    tag_564:\n        /* \"#utility.yul\":48260:48390   */\n      pop\n      jump\t// out\n        /* \"#utility.yul\":48400:48530   */\n    tag_181:\n        /* \"#utility.yul\":48477:48501   */\n      tag_566\n        /* \"#utility.yul\":48495:48500   */\n      dup2\n        /* \"#utility.yul\":48477:48501   */\n      tag_469\n      jump\t// in\n    tag_566:\n        /* \"#utility.yul\":48470:48475   */\n      dup2\n        /* \"#utility.yul\":48467:48502   */\n      eq\n        /* \"#utility.yul\":48457:48520   */\n      tag_567\n      jumpi\n        /* \"#utility.yul\":48516:48517   */\n      0x00\n        /* \"#utility.yul\":48513:48514   */\n      dup1\n        /* \"#utility.yul\":48506:48518   */\n      revert\n        /* \"#utility.yul\":48457:48520   */\n    tag_567:\n        /* \"#utility.yul\":48400:48530   */\n      pop\n      jump\t// out\n    stop\n    data_037b11088d78279926466cbcc7af075945a20b9b8d29de7bf533b907ca0264ee 3c726563742069643d22736e616b652220636c6173733d22736e616b652220783d223530302220793d22353030222077696474683d22323022206865696768743d223230222f3e203c726563742069643d22666f6f642220636c6173733d22666f6f642220783d222d35302220793d222d3530222077696474683d22323022206865696768743d223230222f3e\n    data_1612e8e6ccbee1fa8d996aa3dc44666fa648a4a61b2a9f395867b6775ab86b43 3c73637269707420747970653d22746578742f6a617661736372697074223e3c215b43444154415b2076617220666f6f64436f6f7264732c4b45593d7b773a38372c613a36352c733a38332c643a36382c73706163653a33327d2c6d6f766553706565643d32302c73636f72653d302c6869676853636f7265733d5b5d2c736e616b65486561643d646f63756d656e742e676574456c656d656e74427949642822736e616b6522292c7376673d646f63756d656e742e676574456c656d656e747342795461674e616d65282273766722295b305d2c7374617274546578743d646f63756d656e742e676574456c656d656e7442794964282273746172745465787422292c646972656374696f6e733d646f63756d656e742e676574456c656d656e74427949642822646972656374696f6e7322292c666f6f643d646f63756d656e742e676574456c656d656e74427949642822666f6f6422292c73636f7265436f756e7465723d646f63756d656e742e676574456c656d656e7442794964282273636f7265436f756e74657222293b7374617274546578742e74657874436f6e74656e743d22707265737320737061636520746f207374617274222c646972656374696f6e732e74657874436f6e74656e743d227468656e20772c20612c20732c2064223b76617220736e616b65426f64793d5b5d3b69735475726e696e673d21312c697352756e6e696e673d21313b7661722063757272656e74446972656374696f6e3d227269676874223b646f63756d656e742e646f63756d656e74456c656d656e742e6164644576656e744c697374656e657228226b6579646f776e222c66756e6374696f6e2865297b68616e646c65496e7075742865297d2c2131293b7661722074696d657246756e6374696f6e3d6e756c6c3b66756e6374696f6e20737461727447616d6528297b6e756c6c3d3d74696d657246756e6374696f6e26262874696d657246756e6374696f6e3d736574496e74657276616c28676f2c3830292c72616e646f6d5f666f6f6428292c7374617274546578742e74657874436f6e74656e743d22222c646972656374696f6e732e74657874436f6e74656e743d22222c73636f7265436f756e7465722e74657874436f6e74656e743d73636f72652c697352756e6e696e673d2130297d66756e6374696f6e2075706461746553636f726528297b73636f72652b3d312c73636f7265436f756e7465722e74657874436f6e74656e743d73636f72657d66756e6374696f6e2072616e646f6d5f666f6f6428297b76617220653d4d6174682e666c6f6f722833302a4d6174682e72616e646f6d2829292c743d4d6174682e666c6f6f722833302a4d6174682e72616e646f6d2829293b652b3230303e373830262628653d373830292c742b3230303e373830262628743d373830292c666f6f64436f6f7264733d5b32302a652b3230302c32302a742b3230305d2c666f6f642e736574417474726962757465282278222c32302a652b323030292c666f6f642e736574417474726962757465282279222c32302a742b323030297d66756e6374696f6e207570646174654869676853636f726528297b696628212873636f72653c3d6869676853636f7265735b305d7c7c303d3d73636f726529297b6869676853636f7265732e6c656e6774683e3d3526266869676853636f7265732e706f7028292c6869676853636f7265732e756e73686966742873636f7265293b666f722876617220653d313b653c3d6869676853636f7265732e6c656e6774683b652b2b297b646f63756d656e742e676574456c656d656e744279496428606873247b657d60292e74657874436f6e74656e743d6869676853636f7265735b652d315d7d7d7d66756e6374696f6e20726573657428297b69662831213d697352756e6e696e67297b646f63756d656e742e646f63756d656e74456c656d656e742e72656d6f76654576656e744c697374656e657228226b6579646f776e222c66756e6374696f6e2865297b68616e646c65496e7075742865297d2c2131292c636c656172496e74657276616c2874696d657246756e6374696f6e292c74696d657246756e6374696f6e3d6e756c6c2c69735475726e696e673d21313b666f722876617220653d303b653c736e616b65426f64792e6c656e6774683b652b2b297376672e72656d6f76654368696c6428736e616b65426f64795b655d293b736e616b65426f64793d5b5d2c73636f7265436f756e7465722e74657874436f6e74656e743d73636f72653d302c666f6f642e736574417474726962757465282278222c2d3530292c666f6f642e736574417474726962757465282279222c2d3530292c7374617274546578742e74657874436f6e74656e743d22707265737320737061636520746f207374617274222c646972656374696f6e732e74657874436f6e74656e743d227468656e20772c20612c20732c2064222c736e616b65486561642e736574417474726962757465282278222c353030292c736e616b65486561642e736574417474726962757465282279222c353030292c646f63756d656e742e646f63756d656e74456c656d656e742e6164644576656e744c697374656e657228226b6579646f776e222c66756e6374696f6e2865297b68616e646c65496e7075742865297d2c2131297d7d66756e6374696f6e20617070656e64536e616b6528297b76617220653d736e616b65486561642e636c6f6e654e6f6465282130292c743d736e616b65426f64792e6c656e6774683b743e30262628652e736574417474726962757465282278222c312a736e616b65426f64795b742d315d2e6765744174747269627574652822782229292c652e736574417474726962757465282279222c312a736e616b65426f64795b742d315d2e676574417474726962757465282279222929292c736e616b65426f64792e707573682865292c7376672e617070656e644368696c642865297d66756e6374696f6e20757064617465536e616b6528297b666f722876617220653d312a736e616b65486561642e67657441747472696275746528227822292c743d312a736e616b65486561642e67657441747472696275746528227922292c6e3d736e616b65426f64792e6c656e6774682d313b6e3e3d303b6e2d2d29696628303d3d6e29736e616b65426f64795b305d2e736574417474726962757465282278222c65292c736e616b65426f64795b305d2e736574417474726962757465282279222c74293b656c73657b766172206f3d312a736e616b65426f64795b6e2d315d2e67657441747472696275746528227822292c723d312a736e616b65426f64795b6e2d315d2e67657441747472696275746528227922293b696628736e616b65426f64795b6e5d2e736574417474726962757465282278222c6f292c736e616b65426f64795b6e5d2e736574417474726962757465282279222c72292c6f3d3d652626723d3d74297b636f6e736f6c652e6c6f6728223a2822292c697352756e6e696e673d21312c7570646174654869676853636f726528292c726573657428293b627265616b7d7d69735475726e696e673d21317d66756e6374696f6e20676f28297b76617220653d312a736e616b65486561642e67657441747472696275746528227822292c743d312a736e616b65486561642e67657441747472696275746528227922293b696628757064617465536e616b6528292c313d3d697352756e6e696e67297377697463682863757272656e74446972656374696f6e297b63617365227269676874223a736e616b65486561642e736574417474726962757465282278222c652b3d6d6f76655370656564293b627265616b3b63617365226c656674223a736e616b65486561642e736574417474726962757465282278222c652d3d6d6f76655370656564293b627265616b3b63617365227570223a736e616b65486561642e736574417474726962757465282279222c742d3d6d6f76655370656564293b627265616b3b6361736522646f776e223a736e616b65486561642e736574417474726962757465282279222c742b3d6d6f76655370656564297d28653c3d3138307c7c653e3d3830307c7c743c3d3138307c7c743e3d38303029262628636f6e736f6c652e6c6f6728223a2822292c697352756e6e696e673d21312c7570646174654869676853636f726528292c72657365742829292c653d3d666f6f64436f6f7264735b305d2626743d3d666f6f64436f6f7264735b315d26262872616e646f6d5f666f6f6428292c75706461746553636f726528292c617070656e64536e616b652829297d66756e6374696f6e2068616e646c65496e7075742865297b696628652e6b6579436f64653d3d4b45592e73706163652626737461727447616d6528292c31213d69735475726e696e67297377697463682869735475726e696e673d21302c652e6b6579436f6465297b63617365204b45592e773a22646f776e22213d63757272656e74446972656374696f6e26262863757272656e74446972656374696f6e3d22757022293b627265616b3b63617365204b45592e733a22757022213d63757272656e74446972656374696f6e26262863757272656e74446972656374696f6e3d22646f776e22293b627265616b3b63617365204b45592e613a22726967687422213d63757272656e74446972656374696f6e26262863757272656e74446972656374696f6e3d226c65667422293b627265616b3b63617365204b45592e643a226c65667422213d63757272656e74446972656374696f6e26262863757272656e74446972656374696f6e3d22726967687422297d7d205d5d3e3c2f7363726970743e\n    data_84d8a590de33e00cbdc16e1f28c3506f5ec15c599fab9a6a4bcd575cc2f110ce 4142434445464748494a4b4c4d4e4f505152535455565758595a6162636465666768696a6b6c6d6e6f707172737475767778797a303132333435363738392b2f\n    data_9701c834e84e089352a70f2d8f5353fea8c3612b17ecf2f807a5838bfeed65fc 3c736372697074207372633d2268747470733a2f2f617277656176652e6e65742f6d49773074574b71393478547a744f6b304c5639714937395449535651765664695a776746384668766738223e3c2f7363726970743e\n    data_b88ee8134ff87ba704f1bf913f630372b396c726346bce32ed867da9913730dd 3c67207374726f6b653d222330303022203e203c7265637420636c6173733d226261636b67726f756e642220783d22302220793d2230222077696474683d223130303022206865696768743d2231303030222f3e203c7265637420636c6173733d226d61702220783d223230302220793d22323030222077696474683d2236303022206865696768743d22363030222f3e203c2f673e203c7465787420793d223132302220783d223530252220746578742d616e63686f723d226d6964646c652220636c6173733d227469746c65223e736e616b653c2f746578743e203c746578742069643d227374617274546578742220783d223530252220793d223630302220746578742d616e63686f723d226d6964646c652220636c6173733d22737461727422203e3c2f746578743e203c746578742069643d22646972656374696f6e732220783d223530252220793d223635302220746578742d616e63686f723d226d6964646c652220636c6173733d22646972656374696f6e7322203e3c2f746578743e203c7465787420783d223930302220793d223235302220746578742d616e63686f723d226d6964646c652220636c6173733d2273636f726522203e2053636f72653a3c2f746578743e203c746578742069643d2273636f7265436f756e7465722220783d223833302220793d223330302220636c6173733d2273636f726522203e3c2f746578743e203c746578742020783d223930302220793d223535302220746578742d616e63686f723d226d6964646c652220636c6173733d226869676853636f726522203e20686967682073636f7265733a3c2f746578743e203c746578742069643d226873312220783d223833302220793d223630302220636c6173733d2273636f726522203e3c2f746578743e203c746578742069643d226873322220783d223833302220793d223635302220636c6173733d2273636f726522203e3c2f746578743e203c746578742069643d226873332220783d223833302220793d223730302220636c6173733d2273636f726522203e3c2f746578743e203c746578742069643d226873342220783d223833302220793d223735302220636c6173733d2273636f726522203e3c2f746578743e203c746578742069643d226873352220783d223833302220793d223830302220636c6173733d2273636f726522203e3c2f746578743e\n    data_fa0a9da7a25bdbe895b2ac5b50d2a1e25997bc6fb87035bf1369cfa022bf3515 3c73766720786d6c6e733d22687474703a2f2f7777772e77332e6f72672f323030302f7376672220786d6c6e733a786c696e6b3d22687474703a2f2f7777772e77332e6f72672f313939392f786c696e6b222076696577426f783d2230203020313030302031303030223e\n\n    auxdata: 0xa26469706673582212204bae06f61ee67f8d4c177c574acf1111588fa5302eaad45e5fef14e610ba81cb64736f6c63430008070033\n}\n",
				"bytecode": {
					"linkReferences": {},
					"object": "613360610053600b82828239805160001a607314610046577f4e487b7100000000000000000000000000000000000000000000000000000000600052600060045260246000fd5b30600052607381538281f3fe73000000000000000000000000000000000000000030146080604052600436106100355760003560e01c80639ec1e2801461003a575b600080fd5b610054600480360381019061004f9190610b67565b61006a565b6040516100619190611465565b60405180910390f35b6060600061007987878761011a565b9050600061008888888861015d565b90506100ee610096886101d9565b86876100a1886101d9565b6100c28d73ffffffffffffffffffffffffffffffffffffffff16601461033a565b87876040516020016100da979695949392919061119d565b604051602081830303815290604052610576565b6040516020016100fe9190611421565b6040516020818303038152906040529250505095945050505050565b6060600061013161012c8686866106da565b610576565b9050806040516020016101449190611443565b6040516020818303038152906040529150509392505050565b606060006101ad61016f868686610792565b604051806080016040528060578152602001612efb6057913960405160200161019992919061127b565b604051602081830303815290604052610576565b9050806040516020016101c091906112fa565b6040516020818303038152906040529150509392505050565b60606000821415610221576040518060400160405280600181526020017f30000000000000000000000000000000000000000000000000000000000000008152509050610335565b600082905060005b6000821461025357808061023c90611723565b915050600a8261024c919061158b565b9150610229565b60008167ffffffffffffffff81111561026f5761026e61182a565b5b6040519080825280601f01601f1916602001820160405280156102a15781602001600182028036833780820191505090505b5090505b6000851461032e576001826102ba9190611616565b9150600a856102c9919061176c565b60306102d59190611535565b60f81b8183815181106102eb576102ea6117fb565b5b60200101907effffffffffffffffffffffffffffffffffffffffffffffffffffffffffffff1916908160001a905350600a85610327919061158b565b94506102a5565b8093505050505b919050565b60606000600283600261034d91906115bc565b6103579190611535565b67ffffffffffffffff8111156103705761036f61182a565b5b6040519080825280601f01601f1916602001820160405280156103a25781602001600182028036833780820191505090505b5090507f3000000000000000000000000000000000000000000000000000000000000000816000815181106103da576103d96117fb565b5b60200101907effffffffffffffffffffffffffffffffffffffffffffffffffffffffffffff1916908160001a9053507f78000000000000000000000000000000000000000000000000000000000000008160018151811061043e5761043d6117fb565b5b60200101907effffffffffffffffffffffffffffffffffffffffffffffffffffffffffffff1916908160001a9053506000600184600261047e91906115bc565b6104889190611535565b90505b6001811115610528577f3031323334353637383961626364656600000000000000000000000000000000600f8616601081106104ca576104c96117fb565b5b1a60f81b8282815181106104e1576104e06117fb565b5b60200101907effffffffffffffffffffffffffffffffffffffffffffffffffffffffffffff1916908160001a905350600485901c945080610521906116c8565b905061048b565b506000841461056c576040517f08c379a000000000000000000000000000000000000000000000000000000000815260040161056390611487565b60405180910390fd5b8091505092915050565b6060600082511415610599576040518060200160405280600081525090506106d5565b6000604051806060016040528060408152602001612ebb60409139905060006003600285516105c89190611535565b6105d2919061158b565b60046105de91906115bc565b67ffffffffffffffff8111156105f7576105f661182a565b5b6040519080825280601f01601f1916602001820160405280156106295781602001600182028036833780820191505090505b509050600182016020820185865187015b80821015610695576003820191508151603f8160121c168501518453600184019350603f81600c1c168501518453600184019350603f8160061c168501518453600184019350603f811685015184536001840193505061063a565b50506003865106600181146106b157600281146106c4576106cc565b603d6001830353603d60028303536106cc565b603d60018303535b50505080925050505b919050565b606060006106e8858561082d565b905060006106f58461088d565b90506040518060a00160405280606b81526020016132c0606b913981604051806103a0016040528061036e8152602001612f5261036e9139846040518060c00160405280608d815260200161205d608d913960405180610e000160405280610dd181526020016120ea610dd19139604051602001610778969594939291906110e4565b604051602081830303815290604052925050509392505050565b606060006107a0858561082d565b905060006107ad8461088d565b90506040518060a00160405280606b81526020016132c0606b913981604051806103a0016040528061036e8152602001612f5261036e9139846040518060c00160405280608d815260200161205d608d9139604051602001610813959493929190611147565b604051602081830303815290604052925050509392505050565b606060006108528473ffffffffffffffffffffffffffffffffffffffff16601461033a565b9050600061085f846101d9565b905081816040516020016108749291906112b5565b6040516020818303038152906040529250505092915050565b60608160000151826020015183604001518460600151856080015186608001518760a001518860c001518960e001518a61010001516040516020016108db9a9998979695949392919061131c565b6040516020818303038152906040529050919050565b60006109046108ff846114cc565b6114a7565b9050828152602081018484840111156109205761091f611868565b5b61092b848285611686565b509392505050565b6000813590506109428161202e565b92915050565b600082601f83011261095d5761095c611859565b5b813561096d8482602086016108f1565b91505092915050565b6000610120828403121561098d5761098c61185e565b5b6109986101206114a7565b9050600082013567ffffffffffffffff8111156109b8576109b7611863565b5b6109c484828501610948565b600083015250602082013567ffffffffffffffff8111156109e8576109e7611863565b5b6109f484828501610948565b602083015250604082013567ffffffffffffffff811115610a1857610a17611863565b5b610a2484828501610948565b604083015250606082013567ffffffffffffffff811115610a4857610a47611863565b5b610a5484828501610948565b606083015250608082013567ffffffffffffffff811115610a7857610a77611863565b5b610a8484828501610948565b60808301525060a082013567ffffffffffffffff811115610aa857610aa7611863565b5b610ab484828501610948565b60a08301525060c082013567ffffffffffffffff811115610ad857610ad7611863565b5b610ae484828501610948565b60c08301525060e082013567ffffffffffffffff811115610b0857610b07611863565b5b610b1484828501610948565b60e08301525061010082013567ffffffffffffffff811115610b3957610b38611863565b5b610b4584828501610948565b6101008301525092915050565b600081359050610b6181612045565b92915050565b600080600080600060a08688031215610b8357610b82611872565b5b6000610b9188828901610933565b9550506020610ba288828901610b52565b945050604086013567ffffffffffffffff811115610bc357610bc261186d565b5b610bcf88828901610976565b935050606086013567ffffffffffffffff811115610bf057610bef61186d565b5b610bfc88828901610948565b9250506080610c0d88828901610b52565b9150509295509295909350565b6000610c25826114fd565b610c2f8185611519565b9350610c3f818560208601611695565b610c4881611877565b840191505092915050565b6000610c5e826114fd565b610c68818561152a565b9350610c78818560208601611695565b80840191505092915050565b6000610c91602083611508565b9150610c9c82611888565b602082019050919050565b6000610cb460098361152a565b9150610cbf826118b1565b600982019050919050565b6000610cd7600a8361152a565b9150610ce2826118da565b600a82019050919050565b6000610cfa60828361152a565b9150610d0582611903565b608282019050919050565b6000610d1d60328361152a565b9150610d28826119c4565b603282019050919050565b6000610d40601f8361152a565b9150610d4b82611a13565b601f82019050919050565b6000610d63601d8361152a565b9150610d6e82611a3c565b601d82019050919050565b6000610d8660168361152a565b9150610d9182611a65565b601682019050919050565b6000610da9603a8361152a565b9150610db482611a8e565b603a82019050919050565b6000610dcc600f8361152a565b9150610dd782611add565b600f82019050919050565b6000610def60838361152a565b9150610dfa82611b06565b608382019050919050565b6000610e1260078361152a565b9150610e1d82611bc7565b600782019050919050565b6000610e3560168361152a565b9150610e4082611bf0565b601682019050919050565b6000610e58601e8361152a565b9150610e6382611c19565b601e82019050919050565b6000610e7b60398361152a565b9150610e8682611c42565b603982019050919050565b6000610e9e601e8361152a565b9150610ea982611c91565b601e82019050919050565b6000610ec160028361152a565b9150610ecc82611cba565b600282019050919050565b6000610ee460128361152a565b9150610eef82611ce3565b601282019050919050565b6000610f07600d8361152a565b9150610f1282611d0c565b600d82019050919050565b6000610f2a60288361152a565b9150610f3582611d35565b602882019050919050565b6000610f4d60448361152a565b9150610f5882611d84565b604482019050919050565b6000610f7060308361152a565b9150610f7b82611df9565b603082019050919050565b6000610f9360148361152a565b9150610f9e82611e48565b601482019050919050565b6000610fb6601d8361152a565b9150610fc182611e71565b601d82019050919050565b6000610fd960298361152a565b9150610fe482611e9a565b602982019050919050565b6000610ffc600e8361152a565b915061100782611ee9565b600e82019050919050565b600061101f60128361152a565b915061102a82611f12565b601282019050919050565b600061104260078361152a565b915061104d82611f3b565b600782019050919050565b600061106560068361152a565b915061107082611f64565b600682019050919050565b600061108860268361152a565b915061109382611f8d565b602682019050919050565b60006110ab60118361152a565b91506110b682611fdc565b601182019050919050565b60006110ce601a8361152a565b91506110d982612005565b601a82019050919050565b60006110f08289610c53565b91506110fc8288610c53565b91506111088287610c53565b91506111148286610c53565b91506111208285610c53565b915061112c8284610c53565b915061113782611058565b9150819050979650505050505050565b60006111538288610c53565b915061115f8287610c53565b915061116b8286610c53565b91506111778285610c53565b91506111838284610c53565b915061118e82611058565b91508190509695505050505050565b60006111a882610ca7565b91506111b382611035565b91506111bf828a610c53565b91506111ca8261109e565b91506111d582610de2565b91506111e18289610c53565b91506111ec82610d33565b91506111f782611012565b91506112038288610c53565b915061120e82610d9c565b915061121a8287610c53565b915061122582610fef565b91506112318286610c53565b915061123c82610efa565b91506112488285610c53565b915061125382610f86565b915061125f8284610c53565b915061126a82610eb4565b915081905098975050505050505050565b600061128682610ced565b91506112928285610c53565b915061129e8284610c53565b91506112a982610e05565b91508190509392505050565b60006112c082610d10565b91506112cc8285610c53565b91506112d782610d56565b91506112e38284610c53565b91506112ee82610ed7565b91508190509392505050565b600061130582610e28565b91506113118284610c53565b915081905092915050565b600061132782610f63565b9150611333828d610c53565b915061133e82610f1d565b915061134a828c610c53565b915061135582610e6e565b9150611361828b610c53565b915061136c82610f40565b9150611378828a610c53565b91506113838261107b565b915061138f8289610c53565b915061139a82610fcc565b91506113a68288610c53565b91506113b182610d79565b91506113bd8287610c53565b91506113c882610dbf565b91506113d48286610c53565b91506113df82610e4b565b91506113eb8285610c53565b91506113f682610e91565b91506114028284610c53565b915061140d82610cca565b91508190509b9a5050505050505050505050565b600061142c82610fa9565b91506114388284610c53565b915081905092915050565b600061144e826110c1565b915061145a8284610c53565b915081905092915050565b6000602082019050818103600083015261147f8184610c1a565b905092915050565b600060208201905081810360008301526114a081610c84565b9050919050565b60006114b16114c2565b90506114bd82826116f2565b919050565b6000604051905090565b600067ffffffffffffffff8211156114e7576114e661182a565b5b6114f082611877565b9050602081019050919050565b600081519050919050565b600082825260208201905092915050565b600082825260208201905092915050565b600081905092915050565b60006115408261167c565b915061154b8361167c565b9250827fffffffffffffffffffffffffffffffffffffffffffffffffffffffffffffffff038211156115805761157f61179d565b5b828201905092915050565b60006115968261167c565b91506115a18361167c565b9250826115b1576115b06117cc565b5b828204905092915050565b60006115c78261167c565b91506115d28361167c565b9250817fffffffffffffffffffffffffffffffffffffffffffffffffffffffffffffffff048311821515161561160b5761160a61179d565b5b828202905092915050565b60006116218261167c565b915061162c8361167c565b92508282101561163f5761163e61179d565b5b828203905092915050565b60006116558261165c565b9050919050565b600073ffffffffffffffffffffffffffffffffffffffff82169050919050565b6000819050919050565b82818337600083830152505050565b60005b838110156116b3578082015181840152602081019050611698565b838111156116c2576000848401525b50505050565b60006116d38261167c565b915060008214156116e7576116e661179d565b5b600182039050919050565b6116fb82611877565b810181811067ffffffffffffffff8211171561171a5761171961182a565b5b80604052505050565b600061172e8261167c565b91507fffffffffffffffffffffffffffffffffffffffffffffffffffffffffffffffff8214156117615761176061179d565b5b600182019050919050565b60006117778261167c565b91506117828361167c565b925082611792576117916117cc565b5b828206905092915050565b7f4e487b7100000000000000000000000000000000000000000000000000000000600052601160045260246000fd5b7f4e487b7100000000000000000000000000000000000000000000000000000000600052601260045260246000fd5b7f4e487b7100000000000000000000000000000000000000000000000000000000600052603260045260246000fd5b7f4e487b7100000000000000000000000000000000000000000000000000000000600052604160045260246000fd5b600080fd5b600080fd5b600080fd5b600080fd5b600080fd5b600080fd5b6000601f19601f8301169050919050565b7f537472696e67733a20686578206c656e67746820696e73756666696369656e74600082015250565b7f7b226e616d65223a220000000000000000000000000000000000000000000000600082015250565b7f7d203c2f7374796c653e00000000000000000000000000000000000000000000600082015250565b7f3c21444f43545950452068746d6c3e3c68746d6c3e3c6d657461206e616d653d60008201527f2276696577706f72742220636f6e74656e743d2277696474683d64657669636560208201527f2d77696474682c20696e697469616c2d7363616c653d312c206d6178696d756d60408201527f2d7363616c653d31222f3e3c6d65746120636861727365743d227574662d382260608201527f2f3e000000000000000000000000000000000000000000000000000000000000608082015250565b7f3c6720636c6173733d226d65746164617461223e203c7465787420783d22353060008201527f2220793d2239303022203e6f776e65723a200000000000000000000000000000602082015250565b7f2920746f207669657720616e6420706c617920796f75722067616d65732e2200600082015250565b7f3c2f746578743e203c7465787420783d2235302220793d22393530223e000000600082015250565b7f7d202e6261636b67726f756e64207b66696c6c3a202300000000000000000000600082015250565b7f222c202261747472696275746573223a205b7b2274726169745f74797065223a60008201527f2022436f6c6f7220536368656d65222c202276616c7565223a22000000000000602082015250565b7f7d202e6d6170207b66696c6c3a20230000000000000000000000000000000000600082015250565b7f2246756c6c79206f6e20636861696e2067616d65206f6620536e616b652e205460008201527f6f20656e6a6f792c2073696d706c7920636f70792074686520696d616765207560208201527f726c20616e6420706173746520697420696e2061207765622062726f7773657260408201527f2e204f722c207669736974206f7572205b4f6666696369616c2057656273697460608201527f655d280000000000000000000000000000000000000000000000000000000000608082015250565b7f3c2f68746d6c3e00000000000000000000000000000000000000000000000000600082015250565b7f646174613a746578742f68746d6c3b6261736536342c00000000000000000000600082015250565b7f7d202e666f6f64207b7374726f6b653a20233030303b2066696c6c3a20230000600082015250565b7f207d202e7374617274207b666f6e743a203335707820436f75726965723b206660008201527f696c6c2d6f7061636974793a202e37303b2066696c6c3a202300000000000000602082015250565b7f7d202e736e616b657b7374726f6b653a20233030303b2066696c6c3a20230000600082015250565b7f227d000000000000000000000000000000000000000000000000000000000000600082015250565b7f2f31303030303c2f746578743e203c2f673e0000000000000000000000000000600082015250565b7f222c2022696d616765223a202200000000000000000000000000000000000000600082015250565b7f207d202e7469746c65207b20666f6e743a20203830707820436f75726965723b60008201527f2066696c6c3a2023000000000000000000000000000000000000000000000000602082015250565b7f7d202e646972656374696f6e73207b666f6e743a206974616c6963203330707860008201527f20436f75726965723b2066696c6c2d6f7061636974793a202e37303b2066696c60208201527f6c3a202300000000000000000000000000000000000000000000000000000000604082015250565b7f3c7374796c653e202e6d65746164617461207b20666f6e743a2020333070782060008201527f436f75726965723b2066696c6c3a202300000000000000000000000000000000602082015250565b7f222c2022616e696d6174696f6e5f75726c223a22000000000000000000000000600082015250565b7f646174613a6170706c69636174696f6e2f6a736f6e3b6261736536342c000000600082015250565b7f7d202e6869676853636f7265207b666f6e743a203235707820436f757269657260008201527f3b2066696c6c3a20230000000000000000000000000000000000000000000000602082015250565b7f227d5d2c20226f776e6572223a22000000000000000000000000000000000000600082015250565b7f2c202265787465726e616c5f75726c223a220000000000000000000000000000600082015250565b7f536e616b65202300000000000000000000000000000000000000000000000000600082015250565b7f3c2f7376673e0000000000000000000000000000000000000000000000000000600082015250565b7f207d202e73636f7265207b666f6e743a203430707820436f75726965723b206660008201527f696c6c3a20230000000000000000000000000000000000000000000000000000602082015250565b7f222c20226465736372697074696f6e223a000000000000000000000000000000600082015250565b7f646174613a696d6167652f7376672b786d6c3b6261736536342c000000000000600082015250565b6120378161164a565b811461204257600080fd5b50565b61204e8161167c565b811461205957600080fd5b5056fe3c726563742069643d22736e616b652220636c6173733d22736e616b652220783d223530302220793d22353030222077696474683d22323022206865696768743d223230222f3e203c726563742069643d22666f6f642220636c6173733d22666f6f642220783d222d35302220793d222d3530222077696474683d22323022206865696768743d223230222f3e3c73637269707420747970653d22746578742f6a617661736372697074223e3c215b43444154415b2076617220666f6f64436f6f7264732c4b45593d7b773a38372c613a36352c733a38332c643a36382c73706163653a33327d2c6d6f766553706565643d32302c73636f72653d302c6869676853636f7265733d5b5d2c736e616b65486561643d646f63756d656e742e676574456c656d656e74427949642822736e616b6522292c7376673d646f63756d656e742e676574456c656d656e747342795461674e616d65282273766722295b305d2c7374617274546578743d646f63756d656e742e676574456c656d656e7442794964282273746172745465787422292c646972656374696f6e733d646f63756d656e742e676574456c656d656e74427949642822646972656374696f6e7322292c666f6f643d646f63756d656e742e676574456c656d656e74427949642822666f6f6422292c73636f7265436f756e7465723d646f63756d656e742e676574456c656d656e7442794964282273636f7265436f756e74657222293b7374617274546578742e74657874436f6e74656e743d22707265737320737061636520746f207374617274222c646972656374696f6e732e74657874436f6e74656e743d227468656e20772c20612c20732c2064223b76617220736e616b65426f64793d5b5d3b69735475726e696e673d21312c697352756e6e696e673d21313b7661722063757272656e74446972656374696f6e3d227269676874223b646f63756d656e742e646f63756d656e74456c656d656e742e6164644576656e744c697374656e657228226b6579646f776e222c66756e6374696f6e2865297b68616e646c65496e7075742865297d2c2131293b7661722074696d657246756e6374696f6e3d6e756c6c3b66756e6374696f6e20737461727447616d6528297b6e756c6c3d3d74696d657246756e6374696f6e26262874696d657246756e6374696f6e3d736574496e74657276616c28676f2c3830292c72616e646f6d5f666f6f6428292c7374617274546578742e74657874436f6e74656e743d22222c646972656374696f6e732e74657874436f6e74656e743d22222c73636f7265436f756e7465722e74657874436f6e74656e743d73636f72652c697352756e6e696e673d2130297d66756e6374696f6e2075706461746553636f726528297b73636f72652b3d312c73636f7265436f756e7465722e74657874436f6e74656e743d73636f72657d66756e6374696f6e2072616e646f6d5f666f6f6428297b76617220653d4d6174682e666c6f6f722833302a4d6174682e72616e646f6d2829292c743d4d6174682e666c6f6f722833302a4d6174682e72616e646f6d2829293b652b3230303e373830262628653d373830292c742b3230303e373830262628743d373830292c666f6f64436f6f7264733d5b32302a652b3230302c32302a742b3230305d2c666f6f642e736574417474726962757465282278222c32302a652b323030292c666f6f642e736574417474726962757465282279222c32302a742b323030297d66756e6374696f6e207570646174654869676853636f726528297b696628212873636f72653c3d6869676853636f7265735b305d7c7c303d3d73636f726529297b6869676853636f7265732e6c656e6774683e3d3526266869676853636f7265732e706f7028292c6869676853636f7265732e756e73686966742873636f7265293b666f722876617220653d313b653c3d6869676853636f7265732e6c656e6774683b652b2b297b646f63756d656e742e676574456c656d656e744279496428606873247b657d60292e74657874436f6e74656e743d6869676853636f7265735b652d315d7d7d7d66756e6374696f6e20726573657428297b69662831213d697352756e6e696e67297b646f63756d656e742e646f63756d656e74456c656d656e742e72656d6f76654576656e744c697374656e657228226b6579646f776e222c66756e6374696f6e2865297b68616e646c65496e7075742865297d2c2131292c636c656172496e74657276616c2874696d657246756e6374696f6e292c74696d657246756e6374696f6e3d6e756c6c2c69735475726e696e673d21313b666f722876617220653d303b653c736e616b65426f64792e6c656e6774683b652b2b297376672e72656d6f76654368696c6428736e616b65426f64795b655d293b736e616b65426f64793d5b5d2c73636f7265436f756e7465722e74657874436f6e74656e743d73636f72653d302c666f6f642e736574417474726962757465282278222c2d3530292c666f6f642e736574417474726962757465282279222c2d3530292c7374617274546578742e74657874436f6e74656e743d22707265737320737061636520746f207374617274222c646972656374696f6e732e74657874436f6e74656e743d227468656e20772c20612c20732c2064222c736e616b65486561642e736574417474726962757465282278222c353030292c736e616b65486561642e736574417474726962757465282279222c353030292c646f63756d656e742e646f63756d656e74456c656d656e742e6164644576656e744c697374656e657228226b6579646f776e222c66756e6374696f6e2865297b68616e646c65496e7075742865297d2c2131297d7d66756e6374696f6e20617070656e64536e616b6528297b76617220653d736e616b65486561642e636c6f6e654e6f6465282130292c743d736e616b65426f64792e6c656e6774683b743e30262628652e736574417474726962757465282278222c312a736e616b65426f64795b742d315d2e6765744174747269627574652822782229292c652e736574417474726962757465282279222c312a736e616b65426f64795b742d315d2e676574417474726962757465282279222929292c736e616b65426f64792e707573682865292c7376672e617070656e644368696c642865297d66756e6374696f6e20757064617465536e616b6528297b666f722876617220653d312a736e616b65486561642e67657441747472696275746528227822292c743d312a736e616b65486561642e67657441747472696275746528227922292c6e3d736e616b65426f64792e6c656e6774682d313b6e3e3d303b6e2d2d29696628303d3d6e29736e616b65426f64795b305d2e736574417474726962757465282278222c65292c736e616b65426f64795b305d2e736574417474726962757465282279222c74293b656c73657b766172206f3d312a736e616b65426f64795b6e2d315d2e67657441747472696275746528227822292c723d312a736e616b65426f64795b6e2d315d2e67657441747472696275746528227922293b696628736e616b65426f64795b6e5d2e736574417474726962757465282278222c6f292c736e616b65426f64795b6e5d2e736574417474726962757465282279222c72292c6f3d3d652626723d3d74297b636f6e736f6c652e6c6f6728223a2822292c697352756e6e696e673d21312c7570646174654869676853636f726528292c726573657428293b627265616b7d7d69735475726e696e673d21317d66756e6374696f6e20676f28297b76617220653d312a736e616b65486561642e67657441747472696275746528227822292c743d312a736e616b65486561642e67657441747472696275746528227922293b696628757064617465536e616b6528292c313d3d697352756e6e696e67297377697463682863757272656e74446972656374696f6e297b63617365227269676874223a736e616b65486561642e736574417474726962757465282278222c652b3d6d6f76655370656564293b627265616b3b63617365226c656674223a736e616b65486561642e736574417474726962757465282278222c652d3d6d6f76655370656564293b627265616b3b63617365227570223a736e616b65486561642e736574417474726962757465282279222c742d3d6d6f76655370656564293b627265616b3b6361736522646f776e223a736e616b65486561642e736574417474726962757465282279222c742b3d6d6f76655370656564297d28653c3d3138307c7c653e3d3830307c7c743c3d3138307c7c743e3d38303029262628636f6e736f6c652e6c6f6728223a2822292c697352756e6e696e673d21312c7570646174654869676853636f726528292c72657365742829292c653d3d666f6f64436f6f7264735b305d2626743d3d666f6f64436f6f7264735b315d26262872616e646f6d5f666f6f6428292c75706461746553636f726528292c617070656e64536e616b652829297d66756e6374696f6e2068616e646c65496e7075742865297b696628652e6b6579436f64653d3d4b45592e73706163652626737461727447616d6528292c31213d69735475726e696e67297377697463682869735475726e696e673d21302c652e6b6579436f6465297b63617365204b45592e773a22646f776e22213d63757272656e74446972656374696f6e26262863757272656e74446972656374696f6e3d22757022293b627265616b3b63617365204b45592e733a22757022213d63757272656e74446972656374696f6e26262863757272656e74446972656374696f6e3d22646f776e22293b627265616b3b63617365204b45592e613a22726967687422213d63757272656e74446972656374696f6e26262863757272656e74446972656374696f6e3d226c65667422293b627265616b3b63617365204b45592e643a226c65667422213d63757272656e74446972656374696f6e26262863757272656e74446972656374696f6e3d22726967687422297d7d205d5d3e3c2f7363726970743e4142434445464748494a4b4c4d4e4f505152535455565758595a6162636465666768696a6b6c6d6e6f707172737475767778797a303132333435363738392b2f3c736372697074207372633d2268747470733a2f2f617277656176652e6e65742f6d49773074574b71393478547a744f6b304c5639714937395449535651765664695a776746384668766738223e3c2f7363726970743e3c67207374726f6b653d222330303022203e203c7265637420636c6173733d226261636b67726f756e642220783d22302220793d2230222077696474683d223130303022206865696768743d2231303030222f3e203c7265637420636c6173733d226d61702220783d223230302220793d22323030222077696474683d2236303022206865696768743d22363030222f3e203c2f673e203c7465787420793d223132302220783d223530252220746578742d616e63686f723d226d6964646c652220636c6173733d227469746c65223e736e616b653c2f746578743e203c746578742069643d227374617274546578742220783d223530252220793d223630302220746578742d616e63686f723d226d6964646c652220636c6173733d22737461727422203e3c2f746578743e203c746578742069643d22646972656374696f6e732220783d223530252220793d223635302220746578742d616e63686f723d226d6964646c652220636c6173733d22646972656374696f6e7322203e3c2f746578743e203c7465787420783d223930302220793d223235302220746578742d616e63686f723d226d6964646c652220636c6173733d2273636f726522203e2053636f72653a3c2f746578743e203c746578742069643d2273636f7265436f756e7465722220783d223833302220793d223330302220636c6173733d2273636f726522203e3c2f746578743e203c746578742020783d223930302220793d223535302220746578742d616e63686f723d226d6964646c652220636c6173733d226869676853636f726522203e20686967682073636f7265733a3c2f746578743e203c746578742069643d226873312220783d223833302220793d223630302220636c6173733d2273636f726522203e3c2f746578743e203c746578742069643d226873322220783d223833302220793d223635302220636c6173733d2273636f726522203e3c2f746578743e203c746578742069643d226873332220783d223833302220793d223730302220636c6173733d2273636f726522203e3c2f746578743e203c746578742069643d226873342220783d223833302220793d223735302220636c6173733d2273636f726522203e3c2f746578743e203c746578742069643d226873352220783d223833302220793d223830302220636c6173733d2273636f726522203e3c2f746578743e3c73766720786d6c6e733d22687474703a2f2f7777772e77332e6f72672f323030302f7376672220786d6c6e733a786c696e6b3d22687474703a2f2f7777772e77332e6f72672f313939392f786c696e6b222076696577426f783d2230203020313030302031303030223ea26469706673582212204bae06f61ee67f8d4c177c574acf1111588fa5302eaad45e5fef14e610ba81cb64736f6c63430008070033",
					"opcodes": "PUSH2 0x3360 PUSH2 0x53 PUSH1 0xB DUP3 DUP3 DUP3 CODECOPY DUP1 MLOAD PUSH1 0x0 BYTE PUSH1 0x73 EQ PUSH2 0x46 JUMPI PUSH32 0x4E487B7100000000000000000000000000000000000000000000000000000000 PUSH1 0x0 MSTORE PUSH1 0x0 PUSH1 0x4 MSTORE PUSH1 0x24 PUSH1 0x0 REVERT JUMPDEST ADDRESS PUSH1 0x0 MSTORE PUSH1 0x73 DUP2 MSTORE8 DUP3 DUP2 RETURN INVALID PUSH20 0x0 ADDRESS EQ PUSH1 0x80 PUSH1 0x40 MSTORE PUSH1 0x4 CALLDATASIZE LT PUSH2 0x35 JUMPI PUSH1 0x0 CALLDATALOAD PUSH1 0xE0 SHR DUP1 PUSH4 0x9EC1E280 EQ PUSH2 0x3A JUMPI JUMPDEST PUSH1 0x0 DUP1 REVERT JUMPDEST PUSH2 0x54 PUSH1 0x4 DUP1 CALLDATASIZE SUB DUP2 ADD SWAP1 PUSH2 0x4F SWAP2 SWAP1 PUSH2 0xB67 JUMP JUMPDEST PUSH2 0x6A JUMP JUMPDEST PUSH1 0x40 MLOAD PUSH2 0x61 SWAP2 SWAP1 PUSH2 0x1465 JUMP JUMPDEST PUSH1 0x40 MLOAD DUP1 SWAP2 SUB SWAP1 RETURN JUMPDEST PUSH1 0x60 PUSH1 0x0 PUSH2 0x79 DUP8 DUP8 DUP8 PUSH2 0x11A JUMP JUMPDEST SWAP1 POP PUSH1 0x0 PUSH2 0x88 DUP9 DUP9 DUP9 PUSH2 0x15D JUMP JUMPDEST SWAP1 POP PUSH2 0xEE PUSH2 0x96 DUP9 PUSH2 0x1D9 JUMP JUMPDEST DUP7 DUP8 PUSH2 0xA1 DUP9 PUSH2 0x1D9 JUMP JUMPDEST PUSH2 0xC2 DUP14 PUSH20 0xFFFFFFFFFFFFFFFFFFFFFFFFFFFFFFFFFFFFFFFF AND PUSH1 0x14 PUSH2 0x33A JUMP JUMPDEST DUP8 DUP8 PUSH1 0x40 MLOAD PUSH1 0x20 ADD PUSH2 0xDA SWAP8 SWAP7 SWAP6 SWAP5 SWAP4 SWAP3 SWAP2 SWAP1 PUSH2 0x119D JUMP JUMPDEST PUSH1 0x40 MLOAD PUSH1 0x20 DUP2 DUP4 SUB SUB DUP2 MSTORE SWAP1 PUSH1 0x40 MSTORE PUSH2 0x576 JUMP JUMPDEST PUSH1 0x40 MLOAD PUSH1 0x20 ADD PUSH2 0xFE SWAP2 SWAP1 PUSH2 0x1421 JUMP JUMPDEST PUSH1 0x40 MLOAD PUSH1 0x20 DUP2 DUP4 SUB SUB DUP2 MSTORE SWAP1 PUSH1 0x40 MSTORE SWAP3 POP POP POP SWAP6 SWAP5 POP POP POP POP POP JUMP JUMPDEST PUSH1 0x60 PUSH1 0x0 PUSH2 0x131 PUSH2 0x12C DUP7 DUP7 DUP7 PUSH2 0x6DA JUMP JUMPDEST PUSH2 0x576 JUMP JUMPDEST SWAP1 POP DUP1 PUSH1 0x40 MLOAD PUSH1 0x20 ADD PUSH2 0x144 SWAP2 SWAP1 PUSH2 0x1443 JUMP JUMPDEST PUSH1 0x40 MLOAD PUSH1 0x20 DUP2 DUP4 SUB SUB DUP2 MSTORE SWAP1 PUSH1 0x40 MSTORE SWAP2 POP POP SWAP4 SWAP3 POP POP POP JUMP JUMPDEST PUSH1 0x60 PUSH1 0x0 PUSH2 0x1AD PUSH2 0x16F DUP7 DUP7 DUP7 PUSH2 0x792 JUMP JUMPDEST PUSH1 0x40 MLOAD DUP1 PUSH1 0x80 ADD PUSH1 0x40 MSTORE DUP1 PUSH1 0x57 DUP2 MSTORE PUSH1 0x20 ADD PUSH2 0x2EFB PUSH1 0x57 SWAP2 CODECOPY PUSH1 0x40 MLOAD PUSH1 0x20 ADD PUSH2 0x199 SWAP3 SWAP2 SWAP1 PUSH2 0x127B JUMP JUMPDEST PUSH1 0x40 MLOAD PUSH1 0x20 DUP2 DUP4 SUB SUB DUP2 MSTORE SWAP1 PUSH1 0x40 MSTORE PUSH2 0x576 JUMP JUMPDEST SWAP1 POP DUP1 PUSH1 0x40 MLOAD PUSH1 0x20 ADD PUSH2 0x1C0 SWAP2 SWAP1 PUSH2 0x12FA JUMP JUMPDEST PUSH1 0x40 MLOAD PUSH1 0x20 DUP2 DUP4 SUB SUB DUP2 MSTORE SWAP1 PUSH1 0x40 MSTORE SWAP2 POP POP SWAP4 SWAP3 POP POP POP JUMP JUMPDEST PUSH1 0x60 PUSH1 0x0 DUP3 EQ ISZERO PUSH2 0x221 JUMPI PUSH1 0x40 MLOAD DUP1 PUSH1 0x40 ADD PUSH1 0x40 MSTORE DUP1 PUSH1 0x1 DUP2 MSTORE PUSH1 0x20 ADD PUSH32 0x3000000000000000000000000000000000000000000000000000000000000000 DUP2 MSTORE POP SWAP1 POP PUSH2 0x335 JUMP JUMPDEST PUSH1 0x0 DUP3 SWAP1 POP PUSH1 0x0 JUMPDEST PUSH1 0x0 DUP3 EQ PUSH2 0x253 JUMPI DUP1 DUP1 PUSH2 0x23C SWAP1 PUSH2 0x1723 JUMP JUMPDEST SWAP2 POP POP PUSH1 0xA DUP3 PUSH2 0x24C SWAP2 SWAP1 PUSH2 0x158B JUMP JUMPDEST SWAP2 POP PUSH2 0x229 JUMP JUMPDEST PUSH1 0x0 DUP2 PUSH8 0xFFFFFFFFFFFFFFFF DUP2 GT ISZERO PUSH2 0x26F JUMPI PUSH2 0x26E PUSH2 0x182A JUMP JUMPDEST JUMPDEST PUSH1 0x40 MLOAD SWAP1 DUP1 DUP3 MSTORE DUP1 PUSH1 0x1F ADD PUSH1 0x1F NOT AND PUSH1 0x20 ADD DUP3 ADD PUSH1 0x40 MSTORE DUP1 ISZERO PUSH2 0x2A1 JUMPI DUP2 PUSH1 0x20 ADD PUSH1 0x1 DUP3 MUL DUP1 CALLDATASIZE DUP4 CALLDATACOPY DUP1 DUP3 ADD SWAP2 POP POP SWAP1 POP JUMPDEST POP SWAP1 POP JUMPDEST PUSH1 0x0 DUP6 EQ PUSH2 0x32E JUMPI PUSH1 0x1 DUP3 PUSH2 0x2BA SWAP2 SWAP1 PUSH2 0x1616 JUMP JUMPDEST SWAP2 POP PUSH1 0xA DUP6 PUSH2 0x2C9 SWAP2 SWAP1 PUSH2 0x176C JUMP JUMPDEST PUSH1 0x30 PUSH2 0x2D5 SWAP2 SWAP1 PUSH2 0x1535 JUMP JUMPDEST PUSH1 0xF8 SHL DUP2 DUP4 DUP2 MLOAD DUP2 LT PUSH2 0x2EB JUMPI PUSH2 0x2EA PUSH2 0x17FB JUMP JUMPDEST JUMPDEST PUSH1 0x20 ADD ADD SWAP1 PUSH31 0xFFFFFFFFFFFFFFFFFFFFFFFFFFFFFFFFFFFFFFFFFFFFFFFFFFFFFFFFFFFFFF NOT AND SWAP1 DUP2 PUSH1 0x0 BYTE SWAP1 MSTORE8 POP PUSH1 0xA DUP6 PUSH2 0x327 SWAP2 SWAP1 PUSH2 0x158B JUMP JUMPDEST SWAP5 POP PUSH2 0x2A5 JUMP JUMPDEST DUP1 SWAP4 POP POP POP POP JUMPDEST SWAP2 SWAP1 POP JUMP JUMPDEST PUSH1 0x60 PUSH1 0x0 PUSH1 0x2 DUP4 PUSH1 0x2 PUSH2 0x34D SWAP2 SWAP1 PUSH2 0x15BC JUMP JUMPDEST PUSH2 0x357 SWAP2 SWAP1 PUSH2 0x1535 JUMP JUMPDEST PUSH8 0xFFFFFFFFFFFFFFFF DUP2 GT ISZERO PUSH2 0x370 JUMPI PUSH2 0x36F PUSH2 0x182A JUMP JUMPDEST JUMPDEST PUSH1 0x40 MLOAD SWAP1 DUP1 DUP3 MSTORE DUP1 PUSH1 0x1F ADD PUSH1 0x1F NOT AND PUSH1 0x20 ADD DUP3 ADD PUSH1 0x40 MSTORE DUP1 ISZERO PUSH2 0x3A2 JUMPI DUP2 PUSH1 0x20 ADD PUSH1 0x1 DUP3 MUL DUP1 CALLDATASIZE DUP4 CALLDATACOPY DUP1 DUP3 ADD SWAP2 POP POP SWAP1 POP JUMPDEST POP SWAP1 POP PUSH32 0x3000000000000000000000000000000000000000000000000000000000000000 DUP2 PUSH1 0x0 DUP2 MLOAD DUP2 LT PUSH2 0x3DA JUMPI PUSH2 0x3D9 PUSH2 0x17FB JUMP JUMPDEST JUMPDEST PUSH1 0x20 ADD ADD SWAP1 PUSH31 0xFFFFFFFFFFFFFFFFFFFFFFFFFFFFFFFFFFFFFFFFFFFFFFFFFFFFFFFFFFFFFF NOT AND SWAP1 DUP2 PUSH1 0x0 BYTE SWAP1 MSTORE8 POP PUSH32 0x7800000000000000000000000000000000000000000000000000000000000000 DUP2 PUSH1 0x1 DUP2 MLOAD DUP2 LT PUSH2 0x43E JUMPI PUSH2 0x43D PUSH2 0x17FB JUMP JUMPDEST JUMPDEST PUSH1 0x20 ADD ADD SWAP1 PUSH31 0xFFFFFFFFFFFFFFFFFFFFFFFFFFFFFFFFFFFFFFFFFFFFFFFFFFFFFFFFFFFFFF NOT AND SWAP1 DUP2 PUSH1 0x0 BYTE SWAP1 MSTORE8 POP PUSH1 0x0 PUSH1 0x1 DUP5 PUSH1 0x2 PUSH2 0x47E SWAP2 SWAP1 PUSH2 0x15BC JUMP JUMPDEST PUSH2 0x488 SWAP2 SWAP1 PUSH2 0x1535 JUMP JUMPDEST SWAP1 POP JUMPDEST PUSH1 0x1 DUP2 GT ISZERO PUSH2 0x528 JUMPI PUSH32 0x3031323334353637383961626364656600000000000000000000000000000000 PUSH1 0xF DUP7 AND PUSH1 0x10 DUP2 LT PUSH2 0x4CA JUMPI PUSH2 0x4C9 PUSH2 0x17FB JUMP JUMPDEST JUMPDEST BYTE PUSH1 0xF8 SHL DUP3 DUP3 DUP2 MLOAD DUP2 LT PUSH2 0x4E1 JUMPI PUSH2 0x4E0 PUSH2 0x17FB JUMP JUMPDEST JUMPDEST PUSH1 0x20 ADD ADD SWAP1 PUSH31 0xFFFFFFFFFFFFFFFFFFFFFFFFFFFFFFFFFFFFFFFFFFFFFFFFFFFFFFFFFFFFFF NOT AND SWAP1 DUP2 PUSH1 0x0 BYTE SWAP1 MSTORE8 POP PUSH1 0x4 DUP6 SWAP1 SHR SWAP5 POP DUP1 PUSH2 0x521 SWAP1 PUSH2 0x16C8 JUMP JUMPDEST SWAP1 POP PUSH2 0x48B JUMP JUMPDEST POP PUSH1 0x0 DUP5 EQ PUSH2 0x56C JUMPI PUSH1 0x40 MLOAD PUSH32 0x8C379A000000000000000000000000000000000000000000000000000000000 DUP2 MSTORE PUSH1 0x4 ADD PUSH2 0x563 SWAP1 PUSH2 0x1487 JUMP JUMPDEST PUSH1 0x40 MLOAD DUP1 SWAP2 SUB SWAP1 REVERT JUMPDEST DUP1 SWAP2 POP POP SWAP3 SWAP2 POP POP JUMP JUMPDEST PUSH1 0x60 PUSH1 0x0 DUP3 MLOAD EQ ISZERO PUSH2 0x599 JUMPI PUSH1 0x40 MLOAD DUP1 PUSH1 0x20 ADD PUSH1 0x40 MSTORE DUP1 PUSH1 0x0 DUP2 MSTORE POP SWAP1 POP PUSH2 0x6D5 JUMP JUMPDEST PUSH1 0x0 PUSH1 0x40 MLOAD DUP1 PUSH1 0x60 ADD PUSH1 0x40 MSTORE DUP1 PUSH1 0x40 DUP2 MSTORE PUSH1 0x20 ADD PUSH2 0x2EBB PUSH1 0x40 SWAP2 CODECOPY SWAP1 POP PUSH1 0x0 PUSH1 0x3 PUSH1 0x2 DUP6 MLOAD PUSH2 0x5C8 SWAP2 SWAP1 PUSH2 0x1535 JUMP JUMPDEST PUSH2 0x5D2 SWAP2 SWAP1 PUSH2 0x158B JUMP JUMPDEST PUSH1 0x4 PUSH2 0x5DE SWAP2 SWAP1 PUSH2 0x15BC JUMP JUMPDEST PUSH8 0xFFFFFFFFFFFFFFFF DUP2 GT ISZERO PUSH2 0x5F7 JUMPI PUSH2 0x5F6 PUSH2 0x182A JUMP JUMPDEST JUMPDEST PUSH1 0x40 MLOAD SWAP1 DUP1 DUP3 MSTORE DUP1 PUSH1 0x1F ADD PUSH1 0x1F NOT AND PUSH1 0x20 ADD DUP3 ADD PUSH1 0x40 MSTORE DUP1 ISZERO PUSH2 0x629 JUMPI DUP2 PUSH1 0x20 ADD PUSH1 0x1 DUP3 MUL DUP1 CALLDATASIZE DUP4 CALLDATACOPY DUP1 DUP3 ADD SWAP2 POP POP SWAP1 POP JUMPDEST POP SWAP1 POP PUSH1 0x1 DUP3 ADD PUSH1 0x20 DUP3 ADD DUP6 DUP7 MLOAD DUP8 ADD JUMPDEST DUP1 DUP3 LT ISZERO PUSH2 0x695 JUMPI PUSH1 0x3 DUP3 ADD SWAP2 POP DUP2 MLOAD PUSH1 0x3F DUP2 PUSH1 0x12 SHR AND DUP6 ADD MLOAD DUP5 MSTORE8 PUSH1 0x1 DUP5 ADD SWAP4 POP PUSH1 0x3F DUP2 PUSH1 0xC SHR AND DUP6 ADD MLOAD DUP5 MSTORE8 PUSH1 0x1 DUP5 ADD SWAP4 POP PUSH1 0x3F DUP2 PUSH1 0x6 SHR AND DUP6 ADD MLOAD DUP5 MSTORE8 PUSH1 0x1 DUP5 ADD SWAP4 POP PUSH1 0x3F DUP2 AND DUP6 ADD MLOAD DUP5 MSTORE8 PUSH1 0x1 DUP5 ADD SWAP4 POP POP PUSH2 0x63A JUMP JUMPDEST POP POP PUSH1 0x3 DUP7 MLOAD MOD PUSH1 0x1 DUP2 EQ PUSH2 0x6B1 JUMPI PUSH1 0x2 DUP2 EQ PUSH2 0x6C4 JUMPI PUSH2 0x6CC JUMP JUMPDEST PUSH1 0x3D PUSH1 0x1 DUP4 SUB MSTORE8 PUSH1 0x3D PUSH1 0x2 DUP4 SUB MSTORE8 PUSH2 0x6CC JUMP JUMPDEST PUSH1 0x3D PUSH1 0x1 DUP4 SUB MSTORE8 JUMPDEST POP POP POP DUP1 SWAP3 POP POP POP JUMPDEST SWAP2 SWAP1 POP JUMP JUMPDEST PUSH1 0x60 PUSH1 0x0 PUSH2 0x6E8 DUP6 DUP6 PUSH2 0x82D JUMP JUMPDEST SWAP1 POP PUSH1 0x0 PUSH2 0x6F5 DUP5 PUSH2 0x88D JUMP JUMPDEST SWAP1 POP PUSH1 0x40 MLOAD DUP1 PUSH1 0xA0 ADD PUSH1 0x40 MSTORE DUP1 PUSH1 0x6B DUP2 MSTORE PUSH1 0x20 ADD PUSH2 0x32C0 PUSH1 0x6B SWAP2 CODECOPY DUP2 PUSH1 0x40 MLOAD DUP1 PUSH2 0x3A0 ADD PUSH1 0x40 MSTORE DUP1 PUSH2 0x36E DUP2 MSTORE PUSH1 0x20 ADD PUSH2 0x2F52 PUSH2 0x36E SWAP2 CODECOPY DUP5 PUSH1 0x40 MLOAD DUP1 PUSH1 0xC0 ADD PUSH1 0x40 MSTORE DUP1 PUSH1 0x8D DUP2 MSTORE PUSH1 0x20 ADD PUSH2 0x205D PUSH1 0x8D SWAP2 CODECOPY PUSH1 0x40 MLOAD DUP1 PUSH2 0xE00 ADD PUSH1 0x40 MSTORE DUP1 PUSH2 0xDD1 DUP2 MSTORE PUSH1 0x20 ADD PUSH2 0x20EA PUSH2 0xDD1 SWAP2 CODECOPY PUSH1 0x40 MLOAD PUSH1 0x20 ADD PUSH2 0x778 SWAP7 SWAP6 SWAP5 SWAP4 SWAP3 SWAP2 SWAP1 PUSH2 0x10E4 JUMP JUMPDEST PUSH1 0x40 MLOAD PUSH1 0x20 DUP2 DUP4 SUB SUB DUP2 MSTORE SWAP1 PUSH1 0x40 MSTORE SWAP3 POP POP POP SWAP4 SWAP3 POP POP POP JUMP JUMPDEST PUSH1 0x60 PUSH1 0x0 PUSH2 0x7A0 DUP6 DUP6 PUSH2 0x82D JUMP JUMPDEST SWAP1 POP PUSH1 0x0 PUSH2 0x7AD DUP5 PUSH2 0x88D JUMP JUMPDEST SWAP1 POP PUSH1 0x40 MLOAD DUP1 PUSH1 0xA0 ADD PUSH1 0x40 MSTORE DUP1 PUSH1 0x6B DUP2 MSTORE PUSH1 0x20 ADD PUSH2 0x32C0 PUSH1 0x6B SWAP2 CODECOPY DUP2 PUSH1 0x40 MLOAD DUP1 PUSH2 0x3A0 ADD PUSH1 0x40 MSTORE DUP1 PUSH2 0x36E DUP2 MSTORE PUSH1 0x20 ADD PUSH2 0x2F52 PUSH2 0x36E SWAP2 CODECOPY DUP5 PUSH1 0x40 MLOAD DUP1 PUSH1 0xC0 ADD PUSH1 0x40 MSTORE DUP1 PUSH1 0x8D DUP2 MSTORE PUSH1 0x20 ADD PUSH2 0x205D PUSH1 0x8D SWAP2 CODECOPY PUSH1 0x40 MLOAD PUSH1 0x20 ADD PUSH2 0x813 SWAP6 SWAP5 SWAP4 SWAP3 SWAP2 SWAP1 PUSH2 0x1147 JUMP JUMPDEST PUSH1 0x40 MLOAD PUSH1 0x20 DUP2 DUP4 SUB SUB DUP2 MSTORE SWAP1 PUSH1 0x40 MSTORE SWAP3 POP POP POP SWAP4 SWAP3 POP POP POP JUMP JUMPDEST PUSH1 0x60 PUSH1 0x0 PUSH2 0x852 DUP5 PUSH20 0xFFFFFFFFFFFFFFFFFFFFFFFFFFFFFFFFFFFFFFFF AND PUSH1 0x14 PUSH2 0x33A JUMP JUMPDEST SWAP1 POP PUSH1 0x0 PUSH2 0x85F DUP5 PUSH2 0x1D9 JUMP JUMPDEST SWAP1 POP DUP2 DUP2 PUSH1 0x40 MLOAD PUSH1 0x20 ADD PUSH2 0x874 SWAP3 SWAP2 SWAP1 PUSH2 0x12B5 JUMP JUMPDEST PUSH1 0x40 MLOAD PUSH1 0x20 DUP2 DUP4 SUB SUB DUP2 MSTORE SWAP1 PUSH1 0x40 MSTORE SWAP3 POP POP POP SWAP3 SWAP2 POP POP JUMP JUMPDEST PUSH1 0x60 DUP2 PUSH1 0x0 ADD MLOAD DUP3 PUSH1 0x20 ADD MLOAD DUP4 PUSH1 0x40 ADD MLOAD DUP5 PUSH1 0x60 ADD MLOAD DUP6 PUSH1 0x80 ADD MLOAD DUP7 PUSH1 0x80 ADD MLOAD DUP8 PUSH1 0xA0 ADD MLOAD DUP9 PUSH1 0xC0 ADD MLOAD DUP10 PUSH1 0xE0 ADD MLOAD DUP11 PUSH2 0x100 ADD MLOAD PUSH1 0x40 MLOAD PUSH1 0x20 ADD PUSH2 0x8DB SWAP11 SWAP10 SWAP9 SWAP8 SWAP7 SWAP6 SWAP5 SWAP4 SWAP3 SWAP2 SWAP1 PUSH2 0x131C JUMP JUMPDEST PUSH1 0x40 MLOAD PUSH1 0x20 DUP2 DUP4 SUB SUB DUP2 MSTORE SWAP1 PUSH1 0x40 MSTORE SWAP1 POP SWAP2 SWAP1 POP JUMP JUMPDEST PUSH1 0x0 PUSH2 0x904 PUSH2 0x8FF DUP5 PUSH2 0x14CC JUMP JUMPDEST PUSH2 0x14A7 JUMP JUMPDEST SWAP1 POP DUP3 DUP2 MSTORE PUSH1 0x20 DUP2 ADD DUP5 DUP5 DUP5 ADD GT ISZERO PUSH2 0x920 JUMPI PUSH2 0x91F PUSH2 0x1868 JUMP JUMPDEST JUMPDEST PUSH2 0x92B DUP5 DUP3 DUP6 PUSH2 0x1686 JUMP JUMPDEST POP SWAP4 SWAP3 POP POP POP JUMP JUMPDEST PUSH1 0x0 DUP2 CALLDATALOAD SWAP1 POP PUSH2 0x942 DUP2 PUSH2 0x202E JUMP JUMPDEST SWAP3 SWAP2 POP POP JUMP JUMPDEST PUSH1 0x0 DUP3 PUSH1 0x1F DUP4 ADD SLT PUSH2 0x95D JUMPI PUSH2 0x95C PUSH2 0x1859 JUMP JUMPDEST JUMPDEST DUP2 CALLDATALOAD PUSH2 0x96D DUP5 DUP3 PUSH1 0x20 DUP7 ADD PUSH2 0x8F1 JUMP JUMPDEST SWAP2 POP POP SWAP3 SWAP2 POP POP JUMP JUMPDEST PUSH1 0x0 PUSH2 0x120 DUP3 DUP5 SUB SLT ISZERO PUSH2 0x98D JUMPI PUSH2 0x98C PUSH2 0x185E JUMP JUMPDEST JUMPDEST PUSH2 0x998 PUSH2 0x120 PUSH2 0x14A7 JUMP JUMPDEST SWAP1 POP PUSH1 0x0 DUP3 ADD CALLDATALOAD PUSH8 0xFFFFFFFFFFFFFFFF DUP2 GT ISZERO PUSH2 0x9B8 JUMPI PUSH2 0x9B7 PUSH2 0x1863 JUMP JUMPDEST JUMPDEST PUSH2 0x9C4 DUP5 DUP3 DUP6 ADD PUSH2 0x948 JUMP JUMPDEST PUSH1 0x0 DUP4 ADD MSTORE POP PUSH1 0x20 DUP3 ADD CALLDATALOAD PUSH8 0xFFFFFFFFFFFFFFFF DUP2 GT ISZERO PUSH2 0x9E8 JUMPI PUSH2 0x9E7 PUSH2 0x1863 JUMP JUMPDEST JUMPDEST PUSH2 0x9F4 DUP5 DUP3 DUP6 ADD PUSH2 0x948 JUMP JUMPDEST PUSH1 0x20 DUP4 ADD MSTORE POP PUSH1 0x40 DUP3 ADD CALLDATALOAD PUSH8 0xFFFFFFFFFFFFFFFF DUP2 GT ISZERO PUSH2 0xA18 JUMPI PUSH2 0xA17 PUSH2 0x1863 JUMP JUMPDEST JUMPDEST PUSH2 0xA24 DUP5 DUP3 DUP6 ADD PUSH2 0x948 JUMP JUMPDEST PUSH1 0x40 DUP4 ADD MSTORE POP PUSH1 0x60 DUP3 ADD CALLDATALOAD PUSH8 0xFFFFFFFFFFFFFFFF DUP2 GT ISZERO PUSH2 0xA48 JUMPI PUSH2 0xA47 PUSH2 0x1863 JUMP JUMPDEST JUMPDEST PUSH2 0xA54 DUP5 DUP3 DUP6 ADD PUSH2 0x948 JUMP JUMPDEST PUSH1 0x60 DUP4 ADD MSTORE POP PUSH1 0x80 DUP3 ADD CALLDATALOAD PUSH8 0xFFFFFFFFFFFFFFFF DUP2 GT ISZERO PUSH2 0xA78 JUMPI PUSH2 0xA77 PUSH2 0x1863 JUMP JUMPDEST JUMPDEST PUSH2 0xA84 DUP5 DUP3 DUP6 ADD PUSH2 0x948 JUMP JUMPDEST PUSH1 0x80 DUP4 ADD MSTORE POP PUSH1 0xA0 DUP3 ADD CALLDATALOAD PUSH8 0xFFFFFFFFFFFFFFFF DUP2 GT ISZERO PUSH2 0xAA8 JUMPI PUSH2 0xAA7 PUSH2 0x1863 JUMP JUMPDEST JUMPDEST PUSH2 0xAB4 DUP5 DUP3 DUP6 ADD PUSH2 0x948 JUMP JUMPDEST PUSH1 0xA0 DUP4 ADD MSTORE POP PUSH1 0xC0 DUP3 ADD CALLDATALOAD PUSH8 0xFFFFFFFFFFFFFFFF DUP2 GT ISZERO PUSH2 0xAD8 JUMPI PUSH2 0xAD7 PUSH2 0x1863 JUMP JUMPDEST JUMPDEST PUSH2 0xAE4 DUP5 DUP3 DUP6 ADD PUSH2 0x948 JUMP JUMPDEST PUSH1 0xC0 DUP4 ADD MSTORE POP PUSH1 0xE0 DUP3 ADD CALLDATALOAD PUSH8 0xFFFFFFFFFFFFFFFF DUP2 GT ISZERO PUSH2 0xB08 JUMPI PUSH2 0xB07 PUSH2 0x1863 JUMP JUMPDEST JUMPDEST PUSH2 0xB14 DUP5 DUP3 DUP6 ADD PUSH2 0x948 JUMP JUMPDEST PUSH1 0xE0 DUP4 ADD MSTORE POP PUSH2 0x100 DUP3 ADD CALLDATALOAD PUSH8 0xFFFFFFFFFFFFFFFF DUP2 GT ISZERO PUSH2 0xB39 JUMPI PUSH2 0xB38 PUSH2 0x1863 JUMP JUMPDEST JUMPDEST PUSH2 0xB45 DUP5 DUP3 DUP6 ADD PUSH2 0x948 JUMP JUMPDEST PUSH2 0x100 DUP4 ADD MSTORE POP SWAP3 SWAP2 POP POP JUMP JUMPDEST PUSH1 0x0 DUP2 CALLDATALOAD SWAP1 POP PUSH2 0xB61 DUP2 PUSH2 0x2045 JUMP JUMPDEST SWAP3 SWAP2 POP POP JUMP JUMPDEST PUSH1 0x0 DUP1 PUSH1 0x0 DUP1 PUSH1 0x0 PUSH1 0xA0 DUP7 DUP9 SUB SLT ISZERO PUSH2 0xB83 JUMPI PUSH2 0xB82 PUSH2 0x1872 JUMP JUMPDEST JUMPDEST PUSH1 0x0 PUSH2 0xB91 DUP9 DUP3 DUP10 ADD PUSH2 0x933 JUMP JUMPDEST SWAP6 POP POP PUSH1 0x20 PUSH2 0xBA2 DUP9 DUP3 DUP10 ADD PUSH2 0xB52 JUMP JUMPDEST SWAP5 POP POP PUSH1 0x40 DUP7 ADD CALLDATALOAD PUSH8 0xFFFFFFFFFFFFFFFF DUP2 GT ISZERO PUSH2 0xBC3 JUMPI PUSH2 0xBC2 PUSH2 0x186D JUMP JUMPDEST JUMPDEST PUSH2 0xBCF DUP9 DUP3 DUP10 ADD PUSH2 0x976 JUMP JUMPDEST SWAP4 POP POP PUSH1 0x60 DUP7 ADD CALLDATALOAD PUSH8 0xFFFFFFFFFFFFFFFF DUP2 GT ISZERO PUSH2 0xBF0 JUMPI PUSH2 0xBEF PUSH2 0x186D JUMP JUMPDEST JUMPDEST PUSH2 0xBFC DUP9 DUP3 DUP10 ADD PUSH2 0x948 JUMP JUMPDEST SWAP3 POP POP PUSH1 0x80 PUSH2 0xC0D DUP9 DUP3 DUP10 ADD PUSH2 0xB52 JUMP JUMPDEST SWAP2 POP POP SWAP3 SWAP6 POP SWAP3 SWAP6 SWAP1 SWAP4 POP JUMP JUMPDEST PUSH1 0x0 PUSH2 0xC25 DUP3 PUSH2 0x14FD JUMP JUMPDEST PUSH2 0xC2F DUP2 DUP6 PUSH2 0x1519 JUMP JUMPDEST SWAP4 POP PUSH2 0xC3F DUP2 DUP6 PUSH1 0x20 DUP7 ADD PUSH2 0x1695 JUMP JUMPDEST PUSH2 0xC48 DUP2 PUSH2 0x1877 JUMP JUMPDEST DUP5 ADD SWAP2 POP POP SWAP3 SWAP2 POP POP JUMP JUMPDEST PUSH1 0x0 PUSH2 0xC5E DUP3 PUSH2 0x14FD JUMP JUMPDEST PUSH2 0xC68 DUP2 DUP6 PUSH2 0x152A JUMP JUMPDEST SWAP4 POP PUSH2 0xC78 DUP2 DUP6 PUSH1 0x20 DUP7 ADD PUSH2 0x1695 JUMP JUMPDEST DUP1 DUP5 ADD SWAP2 POP POP SWAP3 SWAP2 POP POP JUMP JUMPDEST PUSH1 0x0 PUSH2 0xC91 PUSH1 0x20 DUP4 PUSH2 0x1508 JUMP JUMPDEST SWAP2 POP PUSH2 0xC9C DUP3 PUSH2 0x1888 JUMP JUMPDEST PUSH1 0x20 DUP3 ADD SWAP1 POP SWAP2 SWAP1 POP JUMP JUMPDEST PUSH1 0x0 PUSH2 0xCB4 PUSH1 0x9 DUP4 PUSH2 0x152A JUMP JUMPDEST SWAP2 POP PUSH2 0xCBF DUP3 PUSH2 0x18B1 JUMP JUMPDEST PUSH1 0x9 DUP3 ADD SWAP1 POP SWAP2 SWAP1 POP JUMP JUMPDEST PUSH1 0x0 PUSH2 0xCD7 PUSH1 0xA DUP4 PUSH2 0x152A JUMP JUMPDEST SWAP2 POP PUSH2 0xCE2 DUP3 PUSH2 0x18DA JUMP JUMPDEST PUSH1 0xA DUP3 ADD SWAP1 POP SWAP2 SWAP1 POP JUMP JUMPDEST PUSH1 0x0 PUSH2 0xCFA PUSH1 0x82 DUP4 PUSH2 0x152A JUMP JUMPDEST SWAP2 POP PUSH2 0xD05 DUP3 PUSH2 0x1903 JUMP JUMPDEST PUSH1 0x82 DUP3 ADD SWAP1 POP SWAP2 SWAP1 POP JUMP JUMPDEST PUSH1 0x0 PUSH2 0xD1D PUSH1 0x32 DUP4 PUSH2 0x152A JUMP JUMPDEST SWAP2 POP PUSH2 0xD28 DUP3 PUSH2 0x19C4 JUMP JUMPDEST PUSH1 0x32 DUP3 ADD SWAP1 POP SWAP2 SWAP1 POP JUMP JUMPDEST PUSH1 0x0 PUSH2 0xD40 PUSH1 0x1F DUP4 PUSH2 0x152A JUMP JUMPDEST SWAP2 POP PUSH2 0xD4B DUP3 PUSH2 0x1A13 JUMP JUMPDEST PUSH1 0x1F DUP3 ADD SWAP1 POP SWAP2 SWAP1 POP JUMP JUMPDEST PUSH1 0x0 PUSH2 0xD63 PUSH1 0x1D DUP4 PUSH2 0x152A JUMP JUMPDEST SWAP2 POP PUSH2 0xD6E DUP3 PUSH2 0x1A3C JUMP JUMPDEST PUSH1 0x1D DUP3 ADD SWAP1 POP SWAP2 SWAP1 POP JUMP JUMPDEST PUSH1 0x0 PUSH2 0xD86 PUSH1 0x16 DUP4 PUSH2 0x152A JUMP JUMPDEST SWAP2 POP PUSH2 0xD91 DUP3 PUSH2 0x1A65 JUMP JUMPDEST PUSH1 0x16 DUP3 ADD SWAP1 POP SWAP2 SWAP1 POP JUMP JUMPDEST PUSH1 0x0 PUSH2 0xDA9 PUSH1 0x3A DUP4 PUSH2 0x152A JUMP JUMPDEST SWAP2 POP PUSH2 0xDB4 DUP3 PUSH2 0x1A8E JUMP JUMPDEST PUSH1 0x3A DUP3 ADD SWAP1 POP SWAP2 SWAP1 POP JUMP JUMPDEST PUSH1 0x0 PUSH2 0xDCC PUSH1 0xF DUP4 PUSH2 0x152A JUMP JUMPDEST SWAP2 POP PUSH2 0xDD7 DUP3 PUSH2 0x1ADD JUMP JUMPDEST PUSH1 0xF DUP3 ADD SWAP1 POP SWAP2 SWAP1 POP JUMP JUMPDEST PUSH1 0x0 PUSH2 0xDEF PUSH1 0x83 DUP4 PUSH2 0x152A JUMP JUMPDEST SWAP2 POP PUSH2 0xDFA DUP3 PUSH2 0x1B06 JUMP JUMPDEST PUSH1 0x83 DUP3 ADD SWAP1 POP SWAP2 SWAP1 POP JUMP JUMPDEST PUSH1 0x0 PUSH2 0xE12 PUSH1 0x7 DUP4 PUSH2 0x152A JUMP JUMPDEST SWAP2 POP PUSH2 0xE1D DUP3 PUSH2 0x1BC7 JUMP JUMPDEST PUSH1 0x7 DUP3 ADD SWAP1 POP SWAP2 SWAP1 POP JUMP JUMPDEST PUSH1 0x0 PUSH2 0xE35 PUSH1 0x16 DUP4 PUSH2 0x152A JUMP JUMPDEST SWAP2 POP PUSH2 0xE40 DUP3 PUSH2 0x1BF0 JUMP JUMPDEST PUSH1 0x16 DUP3 ADD SWAP1 POP SWAP2 SWAP1 POP JUMP JUMPDEST PUSH1 0x0 PUSH2 0xE58 PUSH1 0x1E DUP4 PUSH2 0x152A JUMP JUMPDEST SWAP2 POP PUSH2 0xE63 DUP3 PUSH2 0x1C19 JUMP JUMPDEST PUSH1 0x1E DUP3 ADD SWAP1 POP SWAP2 SWAP1 POP JUMP JUMPDEST PUSH1 0x0 PUSH2 0xE7B PUSH1 0x39 DUP4 PUSH2 0x152A JUMP JUMPDEST SWAP2 POP PUSH2 0xE86 DUP3 PUSH2 0x1C42 JUMP JUMPDEST PUSH1 0x39 DUP3 ADD SWAP1 POP SWAP2 SWAP1 POP JUMP JUMPDEST PUSH1 0x0 PUSH2 0xE9E PUSH1 0x1E DUP4 PUSH2 0x152A JUMP JUMPDEST SWAP2 POP PUSH2 0xEA9 DUP3 PUSH2 0x1C91 JUMP JUMPDEST PUSH1 0x1E DUP3 ADD SWAP1 POP SWAP2 SWAP1 POP JUMP JUMPDEST PUSH1 0x0 PUSH2 0xEC1 PUSH1 0x2 DUP4 PUSH2 0x152A JUMP JUMPDEST SWAP2 POP PUSH2 0xECC DUP3 PUSH2 0x1CBA JUMP JUMPDEST PUSH1 0x2 DUP3 ADD SWAP1 POP SWAP2 SWAP1 POP JUMP JUMPDEST PUSH1 0x0 PUSH2 0xEE4 PUSH1 0x12 DUP4 PUSH2 0x152A JUMP JUMPDEST SWAP2 POP PUSH2 0xEEF DUP3 PUSH2 0x1CE3 JUMP JUMPDEST PUSH1 0x12 DUP3 ADD SWAP1 POP SWAP2 SWAP1 POP JUMP JUMPDEST PUSH1 0x0 PUSH2 0xF07 PUSH1 0xD DUP4 PUSH2 0x152A JUMP JUMPDEST SWAP2 POP PUSH2 0xF12 DUP3 PUSH2 0x1D0C JUMP JUMPDEST PUSH1 0xD DUP3 ADD SWAP1 POP SWAP2 SWAP1 POP JUMP JUMPDEST PUSH1 0x0 PUSH2 0xF2A PUSH1 0x28 DUP4 PUSH2 0x152A JUMP JUMPDEST SWAP2 POP PUSH2 0xF35 DUP3 PUSH2 0x1D35 JUMP JUMPDEST PUSH1 0x28 DUP3 ADD SWAP1 POP SWAP2 SWAP1 POP JUMP JUMPDEST PUSH1 0x0 PUSH2 0xF4D PUSH1 0x44 DUP4 PUSH2 0x152A JUMP JUMPDEST SWAP2 POP PUSH2 0xF58 DUP3 PUSH2 0x1D84 JUMP JUMPDEST PUSH1 0x44 DUP3 ADD SWAP1 POP SWAP2 SWAP1 POP JUMP JUMPDEST PUSH1 0x0 PUSH2 0xF70 PUSH1 0x30 DUP4 PUSH2 0x152A JUMP JUMPDEST SWAP2 POP PUSH2 0xF7B DUP3 PUSH2 0x1DF9 JUMP JUMPDEST PUSH1 0x30 DUP3 ADD SWAP1 POP SWAP2 SWAP1 POP JUMP JUMPDEST PUSH1 0x0 PUSH2 0xF93 PUSH1 0x14 DUP4 PUSH2 0x152A JUMP JUMPDEST SWAP2 POP PUSH2 0xF9E DUP3 PUSH2 0x1E48 JUMP JUMPDEST PUSH1 0x14 DUP3 ADD SWAP1 POP SWAP2 SWAP1 POP JUMP JUMPDEST PUSH1 0x0 PUSH2 0xFB6 PUSH1 0x1D DUP4 PUSH2 0x152A JUMP JUMPDEST SWAP2 POP PUSH2 0xFC1 DUP3 PUSH2 0x1E71 JUMP JUMPDEST PUSH1 0x1D DUP3 ADD SWAP1 POP SWAP2 SWAP1 POP JUMP JUMPDEST PUSH1 0x0 PUSH2 0xFD9 PUSH1 0x29 DUP4 PUSH2 0x152A JUMP JUMPDEST SWAP2 POP PUSH2 0xFE4 DUP3 PUSH2 0x1E9A JUMP JUMPDEST PUSH1 0x29 DUP3 ADD SWAP1 POP SWAP2 SWAP1 POP JUMP JUMPDEST PUSH1 0x0 PUSH2 0xFFC PUSH1 0xE DUP4 PUSH2 0x152A JUMP JUMPDEST SWAP2 POP PUSH2 0x1007 DUP3 PUSH2 0x1EE9 JUMP JUMPDEST PUSH1 0xE DUP3 ADD SWAP1 POP SWAP2 SWAP1 POP JUMP JUMPDEST PUSH1 0x0 PUSH2 0x101F PUSH1 0x12 DUP4 PUSH2 0x152A JUMP JUMPDEST SWAP2 POP PUSH2 0x102A DUP3 PUSH2 0x1F12 JUMP JUMPDEST PUSH1 0x12 DUP3 ADD SWAP1 POP SWAP2 SWAP1 POP JUMP JUMPDEST PUSH1 0x0 PUSH2 0x1042 PUSH1 0x7 DUP4 PUSH2 0x152A JUMP JUMPDEST SWAP2 POP PUSH2 0x104D DUP3 PUSH2 0x1F3B JUMP JUMPDEST PUSH1 0x7 DUP3 ADD SWAP1 POP SWAP2 SWAP1 POP JUMP JUMPDEST PUSH1 0x0 PUSH2 0x1065 PUSH1 0x6 DUP4 PUSH2 0x152A JUMP JUMPDEST SWAP2 POP PUSH2 0x1070 DUP3 PUSH2 0x1F64 JUMP JUMPDEST PUSH1 0x6 DUP3 ADD SWAP1 POP SWAP2 SWAP1 POP JUMP JUMPDEST PUSH1 0x0 PUSH2 0x1088 PUSH1 0x26 DUP4 PUSH2 0x152A JUMP JUMPDEST SWAP2 POP PUSH2 0x1093 DUP3 PUSH2 0x1F8D JUMP JUMPDEST PUSH1 0x26 DUP3 ADD SWAP1 POP SWAP2 SWAP1 POP JUMP JUMPDEST PUSH1 0x0 PUSH2 0x10AB PUSH1 0x11 DUP4 PUSH2 0x152A JUMP JUMPDEST SWAP2 POP PUSH2 0x10B6 DUP3 PUSH2 0x1FDC JUMP JUMPDEST PUSH1 0x11 DUP3 ADD SWAP1 POP SWAP2 SWAP1 POP JUMP JUMPDEST PUSH1 0x0 PUSH2 0x10CE PUSH1 0x1A DUP4 PUSH2 0x152A JUMP JUMPDEST SWAP2 POP PUSH2 0x10D9 DUP3 PUSH2 0x2005 JUMP JUMPDEST PUSH1 0x1A DUP3 ADD SWAP1 POP SWAP2 SWAP1 POP JUMP JUMPDEST PUSH1 0x0 PUSH2 0x10F0 DUP3 DUP10 PUSH2 0xC53 JUMP JUMPDEST SWAP2 POP PUSH2 0x10FC DUP3 DUP9 PUSH2 0xC53 JUMP JUMPDEST SWAP2 POP PUSH2 0x1108 DUP3 DUP8 PUSH2 0xC53 JUMP JUMPDEST SWAP2 POP PUSH2 0x1114 DUP3 DUP7 PUSH2 0xC53 JUMP JUMPDEST SWAP2 POP PUSH2 0x1120 DUP3 DUP6 PUSH2 0xC53 JUMP JUMPDEST SWAP2 POP PUSH2 0x112C DUP3 DUP5 PUSH2 0xC53 JUMP JUMPDEST SWAP2 POP PUSH2 0x1137 DUP3 PUSH2 0x1058 JUMP JUMPDEST SWAP2 POP DUP2 SWAP1 POP SWAP8 SWAP7 POP POP POP POP POP POP POP JUMP JUMPDEST PUSH1 0x0 PUSH2 0x1153 DUP3 DUP9 PUSH2 0xC53 JUMP JUMPDEST SWAP2 POP PUSH2 0x115F DUP3 DUP8 PUSH2 0xC53 JUMP JUMPDEST SWAP2 POP PUSH2 0x116B DUP3 DUP7 PUSH2 0xC53 JUMP JUMPDEST SWAP2 POP PUSH2 0x1177 DUP3 DUP6 PUSH2 0xC53 JUMP JUMPDEST SWAP2 POP PUSH2 0x1183 DUP3 DUP5 PUSH2 0xC53 JUMP JUMPDEST SWAP2 POP PUSH2 0x118E DUP3 PUSH2 0x1058 JUMP JUMPDEST SWAP2 POP DUP2 SWAP1 POP SWAP7 SWAP6 POP POP POP POP POP POP JUMP JUMPDEST PUSH1 0x0 PUSH2 0x11A8 DUP3 PUSH2 0xCA7 JUMP JUMPDEST SWAP2 POP PUSH2 0x11B3 DUP3 PUSH2 0x1035 JUMP JUMPDEST SWAP2 POP PUSH2 0x11BF DUP3 DUP11 PUSH2 0xC53 JUMP JUMPDEST SWAP2 POP PUSH2 0x11CA DUP3 PUSH2 0x109E JUMP JUMPDEST SWAP2 POP PUSH2 0x11D5 DUP3 PUSH2 0xDE2 JUMP JUMPDEST SWAP2 POP PUSH2 0x11E1 DUP3 DUP10 PUSH2 0xC53 JUMP JUMPDEST SWAP2 POP PUSH2 0x11EC DUP3 PUSH2 0xD33 JUMP JUMPDEST SWAP2 POP PUSH2 0x11F7 DUP3 PUSH2 0x1012 JUMP JUMPDEST SWAP2 POP PUSH2 0x1203 DUP3 DUP9 PUSH2 0xC53 JUMP JUMPDEST SWAP2 POP PUSH2 0x120E DUP3 PUSH2 0xD9C JUMP JUMPDEST SWAP2 POP PUSH2 0x121A DUP3 DUP8 PUSH2 0xC53 JUMP JUMPDEST SWAP2 POP PUSH2 0x1225 DUP3 PUSH2 0xFEF JUMP JUMPDEST SWAP2 POP PUSH2 0x1231 DUP3 DUP7 PUSH2 0xC53 JUMP JUMPDEST SWAP2 POP PUSH2 0x123C DUP3 PUSH2 0xEFA JUMP JUMPDEST SWAP2 POP PUSH2 0x1248 DUP3 DUP6 PUSH2 0xC53 JUMP JUMPDEST SWAP2 POP PUSH2 0x1253 DUP3 PUSH2 0xF86 JUMP JUMPDEST SWAP2 POP PUSH2 0x125F DUP3 DUP5 PUSH2 0xC53 JUMP JUMPDEST SWAP2 POP PUSH2 0x126A DUP3 PUSH2 0xEB4 JUMP JUMPDEST SWAP2 POP DUP2 SWAP1 POP SWAP9 SWAP8 POP POP POP POP POP POP POP POP JUMP JUMPDEST PUSH1 0x0 PUSH2 0x1286 DUP3 PUSH2 0xCED JUMP JUMPDEST SWAP2 POP PUSH2 0x1292 DUP3 DUP6 PUSH2 0xC53 JUMP JUMPDEST SWAP2 POP PUSH2 0x129E DUP3 DUP5 PUSH2 0xC53 JUMP JUMPDEST SWAP2 POP PUSH2 0x12A9 DUP3 PUSH2 0xE05 JUMP JUMPDEST SWAP2 POP DUP2 SWAP1 POP SWAP4 SWAP3 POP POP POP JUMP JUMPDEST PUSH1 0x0 PUSH2 0x12C0 DUP3 PUSH2 0xD10 JUMP JUMPDEST SWAP2 POP PUSH2 0x12CC DUP3 DUP6 PUSH2 0xC53 JUMP JUMPDEST SWAP2 POP PUSH2 0x12D7 DUP3 PUSH2 0xD56 JUMP JUMPDEST SWAP2 POP PUSH2 0x12E3 DUP3 DUP5 PUSH2 0xC53 JUMP JUMPDEST SWAP2 POP PUSH2 0x12EE DUP3 PUSH2 0xED7 JUMP JUMPDEST SWAP2 POP DUP2 SWAP1 POP SWAP4 SWAP3 POP POP POP JUMP JUMPDEST PUSH1 0x0 PUSH2 0x1305 DUP3 PUSH2 0xE28 JUMP JUMPDEST SWAP2 POP PUSH2 0x1311 DUP3 DUP5 PUSH2 0xC53 JUMP JUMPDEST SWAP2 POP DUP2 SWAP1 POP SWAP3 SWAP2 POP POP JUMP JUMPDEST PUSH1 0x0 PUSH2 0x1327 DUP3 PUSH2 0xF63 JUMP JUMPDEST SWAP2 POP PUSH2 0x1333 DUP3 DUP14 PUSH2 0xC53 JUMP JUMPDEST SWAP2 POP PUSH2 0x133E DUP3 PUSH2 0xF1D JUMP JUMPDEST SWAP2 POP PUSH2 0x134A DUP3 DUP13 PUSH2 0xC53 JUMP JUMPDEST SWAP2 POP PUSH2 0x1355 DUP3 PUSH2 0xE6E JUMP JUMPDEST SWAP2 POP PUSH2 0x1361 DUP3 DUP12 PUSH2 0xC53 JUMP JUMPDEST SWAP2 POP PUSH2 0x136C DUP3 PUSH2 0xF40 JUMP JUMPDEST SWAP2 POP PUSH2 0x1378 DUP3 DUP11 PUSH2 0xC53 JUMP JUMPDEST SWAP2 POP PUSH2 0x1383 DUP3 PUSH2 0x107B JUMP JUMPDEST SWAP2 POP PUSH2 0x138F DUP3 DUP10 PUSH2 0xC53 JUMP JUMPDEST SWAP2 POP PUSH2 0x139A DUP3 PUSH2 0xFCC JUMP JUMPDEST SWAP2 POP PUSH2 0x13A6 DUP3 DUP9 PUSH2 0xC53 JUMP JUMPDEST SWAP2 POP PUSH2 0x13B1 DUP3 PUSH2 0xD79 JUMP JUMPDEST SWAP2 POP PUSH2 0x13BD DUP3 DUP8 PUSH2 0xC53 JUMP JUMPDEST SWAP2 POP PUSH2 0x13C8 DUP3 PUSH2 0xDBF JUMP JUMPDEST SWAP2 POP PUSH2 0x13D4 DUP3 DUP7 PUSH2 0xC53 JUMP JUMPDEST SWAP2 POP PUSH2 0x13DF DUP3 PUSH2 0xE4B JUMP JUMPDEST SWAP2 POP PUSH2 0x13EB DUP3 DUP6 PUSH2 0xC53 JUMP JUMPDEST SWAP2 POP PUSH2 0x13F6 DUP3 PUSH2 0xE91 JUMP JUMPDEST SWAP2 POP PUSH2 0x1402 DUP3 DUP5 PUSH2 0xC53 JUMP JUMPDEST SWAP2 POP PUSH2 0x140D DUP3 PUSH2 0xCCA JUMP JUMPDEST SWAP2 POP DUP2 SWAP1 POP SWAP12 SWAP11 POP POP POP POP POP POP POP POP POP POP POP JUMP JUMPDEST PUSH1 0x0 PUSH2 0x142C DUP3 PUSH2 0xFA9 JUMP JUMPDEST SWAP2 POP PUSH2 0x1438 DUP3 DUP5 PUSH2 0xC53 JUMP JUMPDEST SWAP2 POP DUP2 SWAP1 POP SWAP3 SWAP2 POP POP JUMP JUMPDEST PUSH1 0x0 PUSH2 0x144E DUP3 PUSH2 0x10C1 JUMP JUMPDEST SWAP2 POP PUSH2 0x145A DUP3 DUP5 PUSH2 0xC53 JUMP JUMPDEST SWAP2 POP DUP2 SWAP1 POP SWAP3 SWAP2 POP POP JUMP JUMPDEST PUSH1 0x0 PUSH1 0x20 DUP3 ADD SWAP1 POP DUP2 DUP2 SUB PUSH1 0x0 DUP4 ADD MSTORE PUSH2 0x147F DUP2 DUP5 PUSH2 0xC1A JUMP JUMPDEST SWAP1 POP SWAP3 SWAP2 POP POP JUMP JUMPDEST PUSH1 0x0 PUSH1 0x20 DUP3 ADD SWAP1 POP DUP2 DUP2 SUB PUSH1 0x0 DUP4 ADD MSTORE PUSH2 0x14A0 DUP2 PUSH2 0xC84 JUMP JUMPDEST SWAP1 POP SWAP2 SWAP1 POP JUMP JUMPDEST PUSH1 0x0 PUSH2 0x14B1 PUSH2 0x14C2 JUMP JUMPDEST SWAP1 POP PUSH2 0x14BD DUP3 DUP3 PUSH2 0x16F2 JUMP JUMPDEST SWAP2 SWAP1 POP JUMP JUMPDEST PUSH1 0x0 PUSH1 0x40 MLOAD SWAP1 POP SWAP1 JUMP JUMPDEST PUSH1 0x0 PUSH8 0xFFFFFFFFFFFFFFFF DUP3 GT ISZERO PUSH2 0x14E7 JUMPI PUSH2 0x14E6 PUSH2 0x182A JUMP JUMPDEST JUMPDEST PUSH2 0x14F0 DUP3 PUSH2 0x1877 JUMP JUMPDEST SWAP1 POP PUSH1 0x20 DUP2 ADD SWAP1 POP SWAP2 SWAP1 POP JUMP JUMPDEST PUSH1 0x0 DUP2 MLOAD SWAP1 POP SWAP2 SWAP1 POP JUMP JUMPDEST PUSH1 0x0 DUP3 DUP3 MSTORE PUSH1 0x20 DUP3 ADD SWAP1 POP SWAP3 SWAP2 POP POP JUMP JUMPDEST PUSH1 0x0 DUP3 DUP3 MSTORE PUSH1 0x20 DUP3 ADD SWAP1 POP SWAP3 SWAP2 POP POP JUMP JUMPDEST PUSH1 0x0 DUP2 SWAP1 POP SWAP3 SWAP2 POP POP JUMP JUMPDEST PUSH1 0x0 PUSH2 0x1540 DUP3 PUSH2 0x167C JUMP JUMPDEST SWAP2 POP PUSH2 0x154B DUP4 PUSH2 0x167C JUMP JUMPDEST SWAP3 POP DUP3 PUSH32 0xFFFFFFFFFFFFFFFFFFFFFFFFFFFFFFFFFFFFFFFFFFFFFFFFFFFFFFFFFFFFFFFF SUB DUP3 GT ISZERO PUSH2 0x1580 JUMPI PUSH2 0x157F PUSH2 0x179D JUMP JUMPDEST JUMPDEST DUP3 DUP3 ADD SWAP1 POP SWAP3 SWAP2 POP POP JUMP JUMPDEST PUSH1 0x0 PUSH2 0x1596 DUP3 PUSH2 0x167C JUMP JUMPDEST SWAP2 POP PUSH2 0x15A1 DUP4 PUSH2 0x167C JUMP JUMPDEST SWAP3 POP DUP3 PUSH2 0x15B1 JUMPI PUSH2 0x15B0 PUSH2 0x17CC JUMP JUMPDEST JUMPDEST DUP3 DUP3 DIV SWAP1 POP SWAP3 SWAP2 POP POP JUMP JUMPDEST PUSH1 0x0 PUSH2 0x15C7 DUP3 PUSH2 0x167C JUMP JUMPDEST SWAP2 POP PUSH2 0x15D2 DUP4 PUSH2 0x167C JUMP JUMPDEST SWAP3 POP DUP2 PUSH32 0xFFFFFFFFFFFFFFFFFFFFFFFFFFFFFFFFFFFFFFFFFFFFFFFFFFFFFFFFFFFFFFFF DIV DUP4 GT DUP3 ISZERO ISZERO AND ISZERO PUSH2 0x160B JUMPI PUSH2 0x160A PUSH2 0x179D JUMP JUMPDEST JUMPDEST DUP3 DUP3 MUL SWAP1 POP SWAP3 SWAP2 POP POP JUMP JUMPDEST PUSH1 0x0 PUSH2 0x1621 DUP3 PUSH2 0x167C JUMP JUMPDEST SWAP2 POP PUSH2 0x162C DUP4 PUSH2 0x167C JUMP JUMPDEST SWAP3 POP DUP3 DUP3 LT ISZERO PUSH2 0x163F JUMPI PUSH2 0x163E PUSH2 0x179D JUMP JUMPDEST JUMPDEST DUP3 DUP3 SUB SWAP1 POP SWAP3 SWAP2 POP POP JUMP JUMPDEST PUSH1 0x0 PUSH2 0x1655 DUP3 PUSH2 0x165C JUMP JUMPDEST SWAP1 POP SWAP2 SWAP1 POP JUMP JUMPDEST PUSH1 0x0 PUSH20 0xFFFFFFFFFFFFFFFFFFFFFFFFFFFFFFFFFFFFFFFF DUP3 AND SWAP1 POP SWAP2 SWAP1 POP JUMP JUMPDEST PUSH1 0x0 DUP2 SWAP1 POP SWAP2 SWAP1 POP JUMP JUMPDEST DUP3 DUP2 DUP4 CALLDATACOPY PUSH1 0x0 DUP4 DUP4 ADD MSTORE POP POP POP JUMP JUMPDEST PUSH1 0x0 JUMPDEST DUP4 DUP2 LT ISZERO PUSH2 0x16B3 JUMPI DUP1 DUP3 ADD MLOAD DUP2 DUP5 ADD MSTORE PUSH1 0x20 DUP2 ADD SWAP1 POP PUSH2 0x1698 JUMP JUMPDEST DUP4 DUP2 GT ISZERO PUSH2 0x16C2 JUMPI PUSH1 0x0 DUP5 DUP5 ADD MSTORE JUMPDEST POP POP POP POP JUMP JUMPDEST PUSH1 0x0 PUSH2 0x16D3 DUP3 PUSH2 0x167C JUMP JUMPDEST SWAP2 POP PUSH1 0x0 DUP3 EQ ISZERO PUSH2 0x16E7 JUMPI PUSH2 0x16E6 PUSH2 0x179D JUMP JUMPDEST JUMPDEST PUSH1 0x1 DUP3 SUB SWAP1 POP SWAP2 SWAP1 POP JUMP JUMPDEST PUSH2 0x16FB DUP3 PUSH2 0x1877 JUMP JUMPDEST DUP2 ADD DUP2 DUP2 LT PUSH8 0xFFFFFFFFFFFFFFFF DUP3 GT OR ISZERO PUSH2 0x171A JUMPI PUSH2 0x1719 PUSH2 0x182A JUMP JUMPDEST JUMPDEST DUP1 PUSH1 0x40 MSTORE POP POP POP JUMP JUMPDEST PUSH1 0x0 PUSH2 0x172E DUP3 PUSH2 0x167C JUMP JUMPDEST SWAP2 POP PUSH32 0xFFFFFFFFFFFFFFFFFFFFFFFFFFFFFFFFFFFFFFFFFFFFFFFFFFFFFFFFFFFFFFFF DUP3 EQ ISZERO PUSH2 0x1761 JUMPI PUSH2 0x1760 PUSH2 0x179D JUMP JUMPDEST JUMPDEST PUSH1 0x1 DUP3 ADD SWAP1 POP SWAP2 SWAP1 POP JUMP JUMPDEST PUSH1 0x0 PUSH2 0x1777 DUP3 PUSH2 0x167C JUMP JUMPDEST SWAP2 POP PUSH2 0x1782 DUP4 PUSH2 0x167C JUMP JUMPDEST SWAP3 POP DUP3 PUSH2 0x1792 JUMPI PUSH2 0x1791 PUSH2 0x17CC JUMP JUMPDEST JUMPDEST DUP3 DUP3 MOD SWAP1 POP SWAP3 SWAP2 POP POP JUMP JUMPDEST PUSH32 0x4E487B7100000000000000000000000000000000000000000000000000000000 PUSH1 0x0 MSTORE PUSH1 0x11 PUSH1 0x4 MSTORE PUSH1 0x24 PUSH1 0x0 REVERT JUMPDEST PUSH32 0x4E487B7100000000000000000000000000000000000000000000000000000000 PUSH1 0x0 MSTORE PUSH1 0x12 PUSH1 0x4 MSTORE PUSH1 0x24 PUSH1 0x0 REVERT JUMPDEST PUSH32 0x4E487B7100000000000000000000000000000000000000000000000000000000 PUSH1 0x0 MSTORE PUSH1 0x32 PUSH1 0x4 MSTORE PUSH1 0x24 PUSH1 0x0 REVERT JUMPDEST PUSH32 0x4E487B7100000000000000000000000000000000000000000000000000000000 PUSH1 0x0 MSTORE PUSH1 0x41 PUSH1 0x4 MSTORE PUSH1 0x24 PUSH1 0x0 REVERT JUMPDEST PUSH1 0x0 DUP1 REVERT JUMPDEST PUSH1 0x0 DUP1 REVERT JUMPDEST PUSH1 0x0 DUP1 REVERT JUMPDEST PUSH1 0x0 DUP1 REVERT JUMPDEST PUSH1 0x0 DUP1 REVERT JUMPDEST PUSH1 0x0 DUP1 REVERT JUMPDEST PUSH1 0x0 PUSH1 0x1F NOT PUSH1 0x1F DUP4 ADD AND SWAP1 POP SWAP2 SWAP1 POP JUMP JUMPDEST PUSH32 0x537472696E67733A20686578206C656E67746820696E73756666696369656E74 PUSH1 0x0 DUP3 ADD MSTORE POP JUMP JUMPDEST PUSH32 0x7B226E616D65223A220000000000000000000000000000000000000000000000 PUSH1 0x0 DUP3 ADD MSTORE POP JUMP JUMPDEST PUSH32 0x7D203C2F7374796C653E00000000000000000000000000000000000000000000 PUSH1 0x0 DUP3 ADD MSTORE POP JUMP JUMPDEST PUSH32 0x3C21444F43545950452068746D6C3E3C68746D6C3E3C6D657461206E616D653D PUSH1 0x0 DUP3 ADD MSTORE PUSH32 0x2276696577706F72742220636F6E74656E743D2277696474683D646576696365 PUSH1 0x20 DUP3 ADD MSTORE PUSH32 0x2D77696474682C20696E697469616C2D7363616C653D312C206D6178696D756D PUSH1 0x40 DUP3 ADD MSTORE PUSH32 0x2D7363616C653D31222F3E3C6D65746120636861727365743D227574662D3822 PUSH1 0x60 DUP3 ADD MSTORE PUSH32 0x2F3E000000000000000000000000000000000000000000000000000000000000 PUSH1 0x80 DUP3 ADD MSTORE POP JUMP JUMPDEST PUSH32 0x3C6720636C6173733D226D65746164617461223E203C7465787420783D223530 PUSH1 0x0 DUP3 ADD MSTORE PUSH32 0x2220793D2239303022203E6F776E65723A200000000000000000000000000000 PUSH1 0x20 DUP3 ADD MSTORE POP JUMP JUMPDEST PUSH32 0x2920746F207669657720616E6420706C617920796F75722067616D65732E2200 PUSH1 0x0 DUP3 ADD MSTORE POP JUMP JUMPDEST PUSH32 0x3C2F746578743E203C7465787420783D2235302220793D22393530223E000000 PUSH1 0x0 DUP3 ADD MSTORE POP JUMP JUMPDEST PUSH32 0x7D202E6261636B67726F756E64207B66696C6C3A202300000000000000000000 PUSH1 0x0 DUP3 ADD MSTORE POP JUMP JUMPDEST PUSH32 0x222C202261747472696275746573223A205B7B2274726169745F74797065223A PUSH1 0x0 DUP3 ADD MSTORE PUSH32 0x2022436F6C6F7220536368656D65222C202276616C7565223A22000000000000 PUSH1 0x20 DUP3 ADD MSTORE POP JUMP JUMPDEST PUSH32 0x7D202E6D6170207B66696C6C3A20230000000000000000000000000000000000 PUSH1 0x0 DUP3 ADD MSTORE POP JUMP JUMPDEST PUSH32 0x2246756C6C79206F6E20636861696E2067616D65206F6620536E616B652E2054 PUSH1 0x0 DUP3 ADD MSTORE PUSH32 0x6F20656E6A6F792C2073696D706C7920636F70792074686520696D6167652075 PUSH1 0x20 DUP3 ADD MSTORE PUSH32 0x726C20616E6420706173746520697420696E2061207765622062726F77736572 PUSH1 0x40 DUP3 ADD MSTORE PUSH32 0x2E204F722C207669736974206F7572205B4F6666696369616C20576562736974 PUSH1 0x60 DUP3 ADD MSTORE PUSH32 0x655D280000000000000000000000000000000000000000000000000000000000 PUSH1 0x80 DUP3 ADD MSTORE POP JUMP JUMPDEST PUSH32 0x3C2F68746D6C3E00000000000000000000000000000000000000000000000000 PUSH1 0x0 DUP3 ADD MSTORE POP JUMP JUMPDEST PUSH32 0x646174613A746578742F68746D6C3B6261736536342C00000000000000000000 PUSH1 0x0 DUP3 ADD MSTORE POP JUMP JUMPDEST PUSH32 0x7D202E666F6F64207B7374726F6B653A20233030303B2066696C6C3A20230000 PUSH1 0x0 DUP3 ADD MSTORE POP JUMP JUMPDEST PUSH32 0x207D202E7374617274207B666F6E743A203335707820436F75726965723B2066 PUSH1 0x0 DUP3 ADD MSTORE PUSH32 0x696C6C2D6F7061636974793A202E37303B2066696C6C3A202300000000000000 PUSH1 0x20 DUP3 ADD MSTORE POP JUMP JUMPDEST PUSH32 0x7D202E736E616B657B7374726F6B653A20233030303B2066696C6C3A20230000 PUSH1 0x0 DUP3 ADD MSTORE POP JUMP JUMPDEST PUSH32 0x227D000000000000000000000000000000000000000000000000000000000000 PUSH1 0x0 DUP3 ADD MSTORE POP JUMP JUMPDEST PUSH32 0x2F31303030303C2F746578743E203C2F673E0000000000000000000000000000 PUSH1 0x0 DUP3 ADD MSTORE POP JUMP JUMPDEST PUSH32 0x222C2022696D616765223A202200000000000000000000000000000000000000 PUSH1 0x0 DUP3 ADD MSTORE POP JUMP JUMPDEST PUSH32 0x207D202E7469746C65207B20666F6E743A20203830707820436F75726965723B PUSH1 0x0 DUP3 ADD MSTORE PUSH32 0x2066696C6C3A2023000000000000000000000000000000000000000000000000 PUSH1 0x20 DUP3 ADD MSTORE POP JUMP JUMPDEST PUSH32 0x7D202E646972656374696F6E73207B666F6E743A206974616C69632033307078 PUSH1 0x0 DUP3 ADD MSTORE PUSH32 0x20436F75726965723B2066696C6C2D6F7061636974793A202E37303B2066696C PUSH1 0x20 DUP3 ADD MSTORE PUSH32 0x6C3A202300000000000000000000000000000000000000000000000000000000 PUSH1 0x40 DUP3 ADD MSTORE POP JUMP JUMPDEST PUSH32 0x3C7374796C653E202E6D65746164617461207B20666F6E743A20203330707820 PUSH1 0x0 DUP3 ADD MSTORE PUSH32 0x436F75726965723B2066696C6C3A202300000000000000000000000000000000 PUSH1 0x20 DUP3 ADD MSTORE POP JUMP JUMPDEST PUSH32 0x222C2022616E696D6174696F6E5F75726C223A22000000000000000000000000 PUSH1 0x0 DUP3 ADD MSTORE POP JUMP JUMPDEST PUSH32 0x646174613A6170706C69636174696F6E2F6A736F6E3B6261736536342C000000 PUSH1 0x0 DUP3 ADD MSTORE POP JUMP JUMPDEST PUSH32 0x7D202E6869676853636F7265207B666F6E743A203235707820436F7572696572 PUSH1 0x0 DUP3 ADD MSTORE PUSH32 0x3B2066696C6C3A20230000000000000000000000000000000000000000000000 PUSH1 0x20 DUP3 ADD MSTORE POP JUMP JUMPDEST PUSH32 0x227D5D2C20226F776E6572223A22000000000000000000000000000000000000 PUSH1 0x0 DUP3 ADD MSTORE POP JUMP JUMPDEST PUSH32 0x2C202265787465726E616C5F75726C223A220000000000000000000000000000 PUSH1 0x0 DUP3 ADD MSTORE POP JUMP JUMPDEST PUSH32 0x536E616B65202300000000000000000000000000000000000000000000000000 PUSH1 0x0 DUP3 ADD MSTORE POP JUMP JUMPDEST PUSH32 0x3C2F7376673E0000000000000000000000000000000000000000000000000000 PUSH1 0x0 DUP3 ADD MSTORE POP JUMP JUMPDEST PUSH32 0x207D202E73636F7265207B666F6E743A203430707820436F75726965723B2066 PUSH1 0x0 DUP3 ADD MSTORE PUSH32 0x696C6C3A20230000000000000000000000000000000000000000000000000000 PUSH1 0x20 DUP3 ADD MSTORE POP JUMP JUMPDEST PUSH32 0x222C20226465736372697074696F6E223A000000000000000000000000000000 PUSH1 0x0 DUP3 ADD MSTORE POP JUMP JUMPDEST PUSH32 0x646174613A696D6167652F7376672B786D6C3B6261736536342C000000000000 PUSH1 0x0 DUP3 ADD MSTORE POP JUMP JUMPDEST PUSH2 0x2037 DUP2 PUSH2 0x164A JUMP JUMPDEST DUP2 EQ PUSH2 0x2042 JUMPI PUSH1 0x0 DUP1 REVERT JUMPDEST POP JUMP JUMPDEST PUSH2 0x204E DUP2 PUSH2 0x167C JUMP JUMPDEST DUP2 EQ PUSH2 0x2059 JUMPI PUSH1 0x0 DUP1 REVERT JUMPDEST POP JUMP INVALID EXTCODECOPY PUSH19 0x6563742069643D22736E616B652220636C6173 PUSH20 0x3D22736E616B652220783D223530302220793D22 CALLDATALOAD ADDRESS ADDRESS 0x22 KECCAK256 PUSH24 0x696474683D22323022206865696768743D223230222F3E20 EXTCODECOPY PUSH19 0x6563742069643D22666F6F642220636C617373 RETURNDATASIZE 0x22 PUSH7 0x6F6F642220783D 0x22 0x2D CALLDATALOAD ADDRESS 0x22 KECCAK256 PUSH26 0x3D222D3530222077696474683D22323022206865696768743D22 ORIGIN ADDRESS 0x22 0x2F RETURNDATACOPY EXTCODECOPY PUSH20 0x637269707420747970653D22746578742F6A6176 PUSH2 0x7363 PUSH19 0x697074223E3C215B43444154415B2076617220 PUSH7 0x6F6F64436F6F72 PUSH5 0x732C4B4559 RETURNDATASIZE PUSH28 0x773A38372C613A36352C733A38332C643A36382C73706163653A3332 PUSH30 0x2C6D6F766553706565643D32302C73636F72653D302C6869676853636F72 PUSH6 0x733D5B5D2C73 PUSH15 0x616B65486561643D646F63756D656E PUSH21 0x2E676574456C656D656E74427949642822736E616B PUSH6 0x22292C737667 RETURNDATASIZE PUSH5 0x6F63756D65 PUSH15 0x742E676574456C656D656E74734279 SLOAD PUSH2 0x674E PUSH2 0x6D65 0x28 0x22 PUSH20 0x766722295B305D2C7374617274546578743D646F PUSH4 0x756D656E PUSH21 0x2E676574456C656D656E7442794964282273746172 PUSH21 0x5465787422292C646972656374696F6E733D646F63 PUSH22 0x6D656E742E676574456C656D656E7442794964282264 PUSH10 0x72656374696F6E732229 0x2C PUSH7 0x6F6F643D646F63 PUSH22 0x6D656E742E676574456C656D656E7442794964282266 PUSH16 0x6F6422292C73636F7265436F756E7465 PUSH19 0x3D646F63756D656E742E676574456C656D656E PUSH21 0x42794964282273636F7265436F756E74657222293B PUSH20 0x74617274546578742E74657874436F6E74656E74 RETURNDATASIZE 0x22 PUSH17 0x7265737320737061636520746F20737461 PUSH19 0x74222C646972656374696F6E732E7465787443 PUSH16 0x6E74656E743D227468656E20772C2061 0x2C KECCAK256 PUSH20 0x2C2064223B76617220736E616B65426F64793D5B 0x5D EXTCODESIZE PUSH10 0x735475726E696E673D21 BALANCE 0x2C PUSH10 0x7352756E6E696E673D21 BALANCE EXTCODESIZE PUSH23 0x61722063757272656E74446972656374696F6E3D227269 PUSH8 0x6874223B646F6375 PUSH14 0x656E742E646F63756D656E74456C PUSH6 0x6D656E742E61 PUSH5 0x644576656E PUSH21 0x4C697374656E657228226B6579646F776E222C6675 PUSH15 0x6374696F6E2865297B68616E646C65 0x49 PUSH15 0x7075742865297D2C2131293B766172 KECCAK256 PUSH21 0x696D657246756E6374696F6E3D6E756C6C3B66756E PUSH4 0x74696F6E KECCAK256 PUSH20 0x7461727447616D6528297B6E756C6C3D3D74696D PUSH6 0x7246756E6374 PUSH10 0x6F6E26262874696D6572 CHAINID PUSH22 0x6E6374696F6E3D736574496E74657276616C28676F2C CODESIZE ADDRESS 0x29 0x2C PUSH19 0x616E646F6D5F666F6F6428292C737461727454 PUSH6 0x78742E746578 PUSH21 0x436F6E74656E743D22222C646972656374696F6E73 0x2E PUSH21 0x657874436F6E74656E743D22222C73636F7265436F PUSH22 0x6E7465722E74657874436F6E74656E743D73636F7265 0x2C PUSH10 0x7352756E6E696E673D21 ADDRESS 0x29 PUSH30 0x66756E6374696F6E2075706461746553636F726528297B73636F72652B3D BALANCE 0x2C PUSH20 0x636F7265436F756E7465722E74657874436F6E74 PUSH6 0x6E743D73636F PUSH19 0x657D66756E6374696F6E2072616E646F6D5F66 PUSH16 0x6F6428297B76617220653D4D6174682E PUSH7 0x6C6F6F72283330 0x2A 0x4D PUSH2 0x7468 0x2E PUSH19 0x616E646F6D2829292C743D4D6174682E666C6F PUSH16 0x722833302A4D6174682E72616E646F6D 0x28 0x29 0x29 EXTCODESIZE PUSH6 0x2B3230303E37 CODESIZE ADDRESS 0x26 0x26 0x28 PUSH6 0x3D373830292C PUSH21 0x2B3230303E373830262628743D373830292C666F6F PUSH5 0x436F6F7264 PUSH20 0x3D5B32302A652B3230302C32302A742B3230305D 0x2C PUSH7 0x6F6F642E736574 COINBASE PUSH21 0x74726962757465282278222C32302A652B32303029 0x2C PUSH7 0x6F6F642E736574 COINBASE PUSH21 0x74726962757465282279222C32302A742B32303029 PUSH30 0x66756E6374696F6E207570646174654869676853636F726528297B696628 0x21 0x28 PUSH20 0x636F72653C3D6869676853636F7265735B305D7C PUSH29 0x303D3D73636F726529297B6869676853636F7265732E6C656E6774683E RETURNDATASIZE CALLDATALOAD 0x26 0x26 PUSH9 0x69676853636F726573 0x2E PUSH17 0x6F7028292C6869676853636F7265732E75 PUSH15 0x73686966742873636F7265293B666F PUSH19 0x2876617220653D313B653C3D6869676853636F PUSH19 0x65732E6C656E6774683B652B2B297B646F6375 PUSH14 0x656E742E676574456C656D656E74 TIMESTAMP PUSH26 0x496428606873247B657D60292E74657874436F6E74656E743D68 PUSH10 0x676853636F7265735B65 0x2D BALANCE 0x5D PUSH30 0x7D7D66756E6374696F6E20726573657428297B69662831213D697352756E PUSH15 0x696E67297B646F63756D656E742E64 PUSH16 0x63756D656E74456C656D656E742E7265 PUSH14 0x6F76654576656E744C697374656E PUSH6 0x7228226B6579 PUSH5 0x6F776E222C PUSH7 0x756E6374696F6E 0x28 PUSH6 0x297B68616E64 PUSH13 0x65496E7075742865297D2C2131 0x29 0x2C PUSH4 0x6C656172 0x49 PUSH15 0x74657276616C2874696D657246756E PUSH4 0x74696F6E 0x29 0x2C PUSH21 0x696D657246756E6374696F6E3D6E756C6C2C697354 PUSH22 0x726E696E673D21313B666F722876617220653D303B65 EXTCODECOPY PUSH20 0x6E616B65426F64792E6C656E6774683B652B2B29 PUSH20 0x76672E72656D6F76654368696C6428736E616B65 TIMESTAMP PUSH16 0x64795B655D293B736E616B65426F6479 RETURNDATASIZE JUMPDEST 0x5D 0x2C PUSH20 0x636F7265436F756E7465722E74657874436F6E74 PUSH6 0x6E743D73636F PUSH19 0x653D302C666F6F642E73657441747472696275 PUSH21 0x65282278222C2D3530292C666F6F642E7365744174 PUSH21 0x726962757465282279222C2D3530292C7374617274 SLOAD PUSH6 0x78742E746578 PUSH21 0x436F6E74656E743D22707265737320737061636520 PUSH21 0x6F207374617274222C646972656374696F6E732E74 PUSH6 0x7874436F6E74 PUSH6 0x6E743D227468 PUSH6 0x6E20772C2061 0x2C KECCAK256 PUSH20 0x2C2064222C736E616B65486561642E7365744174 PUSH21 0x726962757465282278222C353030292C736E616B65 BASEFEE PUSH6 0x61642E736574 COINBASE PUSH21 0x74726962757465282279222C353030292C646F6375 PUSH14 0x656E742E646F63756D656E74456C PUSH6 0x6D656E742E61 PUSH5 0x644576656E PUSH21 0x4C697374656E657228226B6579646F776E222C6675 PUSH15 0x6374696F6E2865297B68616E646C65 0x49 PUSH15 0x7075742865297D2C2131297D7D6675 PUSH15 0x6374696F6E20617070656E64536E61 PUSH12 0x6528297B76617220653D736E PUSH2 0x6B65 BASEFEE PUSH6 0x61642E636C6F PUSH15 0x654E6F6465282130292C743D736E61 PUSH12 0x65426F64792E6C656E677468 EXTCODESIZE PUSH21 0x3E30262628652E7365744174747269627574652822 PUSH25 0x222C312A736E616B65426F64795B742D315D2E676574417474 PUSH19 0x69627574652822782229292C652E7365744174 PUSH21 0x726962757465282279222C312A736E616B65426F64 PUSH26 0x5B742D315D2E676574417474726962757465282279222929292C PUSH20 0x6E616B65426F64792E707573682865292C737667 0x2E PUSH2 0x7070 PUSH6 0x6E644368696C PUSH5 0x2865297D66 PUSH22 0x6E6374696F6E20757064617465536E616B6528297B66 PUSH16 0x722876617220653D312A736E616B6548 PUSH6 0x61642E676574 COINBASE PUSH21 0x7472696275746528227822292C743D312A736E616B PUSH6 0x486561642E67 PUSH6 0x744174747269 PUSH3 0x757465 0x28 0x22 PUSH26 0x22292C6E3D736E616B65426F64792E6C656E6774682D313B6E3E RETURNDATASIZE ADDRESS EXTCODESIZE PUSH15 0x2D2D29696628303D3D6E29736E616B PUSH6 0x426F64795B30 0x5D 0x2E PUSH20 0x6574417474726962757465282278222C65292C73 PUSH15 0x616B65426F64795B305D2E73657441 PUSH21 0x74726962757465282279222C74293B656C73657B76 PUSH2 0x7220 PUSH16 0x3D312A736E616B65426F64795B6E2D31 0x5D 0x2E PUSH8 0x6574417474726962 PUSH22 0x746528227822292C723D312A736E616B65426F64795B PUSH15 0x2D315D2E6765744174747269627574 PUSH6 0x28227922293B PUSH10 0x6628736E616B65426F64 PUSH26 0x5B6E5D2E736574417474726962757465282278222C6F292C736E PUSH2 0x6B65 TIMESTAMP PUSH16 0x64795B6E5D2E73657441747472696275 PUSH21 0x65282279222C72292C6F3D3D652626723D3D74297B PUSH4 0x6F6E736F PUSH13 0x652E6C6F6728223A2822292C69 PUSH20 0x52756E6E696E673D21312C757064617465486967 PUSH9 0x53636F726528292C72 PUSH6 0x73657428293B PUSH3 0x726561 PUSH12 0x7D7D69735475726E696E673D 0x21 BALANCE PUSH30 0x66756E6374696F6E20676F28297B76617220653D312A736E616B65486561 PUSH5 0x2E67657441 PUSH21 0x7472696275746528227822292C743D312A736E616B PUSH6 0x486561642E67 PUSH6 0x744174747269 PUSH3 0x757465 0x28 0x22 PUSH26 0x22293B696628757064617465536E616B6528292C313D3D697352 PUSH22 0x6E6E696E67297377697463682863757272656E744469 PUSH19 0x656374696F6E297B6361736522726967687422 GASPRICE PUSH20 0x6E616B65486561642E7365744174747269627574 PUSH6 0x282278222C65 0x2B RETURNDATASIZE PUSH14 0x6F76655370656564293B62726561 PUSH12 0x3B63617365226C656674223A PUSH20 0x6E616B65486561642E7365744174747269627574 PUSH6 0x282278222C65 0x2D RETURNDATASIZE PUSH14 0x6F76655370656564293B62726561 PUSH12 0x3B63617365227570223A736E PUSH2 0x6B65 BASEFEE PUSH6 0x61642E736574 COINBASE PUSH21 0x74726962757465282279222C742D3D6D6F76655370 PUSH6 0x6564293B6272 PUSH6 0x616B3B636173 PUSH6 0x22646F776E22 GASPRICE PUSH20 0x6E616B65486561642E7365744174747269627574 PUSH6 0x282279222C74 0x2B RETURNDATASIZE PUSH14 0x6F76655370656564297D28653C3D BALANCE CODESIZE ADDRESS PUSH29 0x7C653E3D3830307C7C743C3D3138307C7C743E3D38303029262628636F PUSH15 0x736F6C652E6C6F6728223A2822292C PUSH10 0x7352756E6E696E673D21 BALANCE 0x2C PUSH22 0x70646174654869676853636F726528292C7265736574 0x28 0x29 0x29 0x2C PUSH6 0x3D3D666F6F64 NUMBER PUSH16 0x6F7264735B305D2626743D3D666F6F64 NUMBER PUSH16 0x6F7264735B315D26262872616E646F6D 0x5F PUSH7 0x6F6F6428292C75 PUSH17 0x6461746553636F726528292C617070656E PUSH5 0x536E616B65 0x28 0x29 0x29 PUSH30 0x66756E6374696F6E2068616E646C65496E7075742865297B696628652E6B PUSH6 0x79436F64653D RETURNDATASIZE 0x4B GASLIMIT MSIZE 0x2E PUSH20 0x706163652626737461727447616D6528292C3121 RETURNDATASIZE PUSH10 0x735475726E696E672973 PUSH24 0x697463682869735475726E696E673D21302C652E6B657943 PUSH16 0x6465297B63617365204B45592E773A22 PUSH5 0x6F776E2221 RETURNDATASIZE PUSH4 0x75727265 PUSH15 0x74446972656374696F6E2626286375 PUSH19 0x72656E74446972656374696F6E3D2275702229 EXTCODESIZE PUSH3 0x726561 PUSH12 0x3B63617365204B45592E733A 0x22 PUSH22 0x7022213D63757272656E74446972656374696F6E2626 0x28 PUSH4 0x75727265 PUSH15 0x74446972656374696F6E3D22646F77 PUSH15 0x22293B627265616B3B63617365204B GASLIMIT MSIZE 0x2E PUSH2 0x3A22 PUSH19 0x6967687422213D63757272656E744469726563 PUSH21 0x696F6E26262863757272656E74446972656374696F PUSH15 0x3D226C65667422293B627265616B3B PUSH4 0x61736520 0x4B GASLIMIT MSIZE 0x2E PUSH5 0x3A226C6566 PUSH21 0x22213D63757272656E74446972656374696F6E2626 0x28 PUSH4 0x75727265 PUSH15 0x74446972656374696F6E3D22726967 PUSH9 0x7422297D7D205D5D3E EXTCODECOPY 0x2F PUSH20 0x63726970743E4142434445464748494A4B4C4D4E 0x4F POP MLOAD MSTORE MSTORE8 SLOAD SSTORE JUMP JUMPI PC MSIZE GAS PUSH2 0x6263 PUSH5 0x6566676869 PUSH11 0x6B6C6D6E6F707172737475 PUSH23 0x7778797A303132333435363738392B2F3C736372697074 KECCAK256 PUSH20 0x72633D2268747470733A2F2F617277656176652E PUSH15 0x65742F6D49773074574B7139347854 PUSH27 0x744F6B304C5639714937395449535651765664695A776746384668 PUSH23 0x6738223E3C2F7363726970743E3C67207374726F6B653D 0x22 0x23 ADDRESS ADDRESS ADDRESS 0x22 KECCAK256 RETURNDATACOPY KECCAK256 EXTCODECOPY PUSH19 0x65637420636C6173733D226261636B67726F75 PUSH15 0x642220783D22302220793D22302220 PUSH24 0x696474683D223130303022206865696768743D2231303030 0x22 0x2F RETURNDATACOPY KECCAK256 EXTCODECOPY PUSH19 0x65637420636C6173733D226D61702220783D22 ORIGIN ADDRESS ADDRESS 0x22 KECCAK256 PUSH26 0x3D22323030222077696474683D2236303022206865696768743D 0x22 CALLDATASIZE ADDRESS ADDRESS 0x22 0x2F RETURNDATACOPY KECCAK256 EXTCODECOPY 0x2F PUSH8 0x3E203C7465787420 PUSH26 0x3D223132302220783D223530252220746578742D616E63686F72 RETURNDATASIZE 0x22 PUSH14 0x6964646C652220636C6173733D22 PUSH21 0x69746C65223E736E616B653C2F746578743E203C74 PUSH6 0x78742069643D 0x22 PUSH20 0x74617274546578742220783D223530252220793D 0x22 CALLDATASIZE ADDRESS ADDRESS 0x22 KECCAK256 PUSH21 0x6578742D616E63686F723D226D6964646C65222063 PUSH13 0x6173733D22737461727422203E EXTCODECOPY 0x2F PUSH21 0x6578743E203C746578742069643D22646972656374 PUSH10 0x6F6E732220783D223530 0x25 0x22 KECCAK256 PUSH26 0x3D223635302220746578742D616E63686F723D226D6964646C65 0x22 KECCAK256 PUSH4 0x6C617373 RETURNDATASIZE 0x22 PUSH5 0x6972656374 PUSH10 0x6F6E7322203E3C2F7465 PUSH25 0x743E203C7465787420783D223930302220793D223235302220 PUSH21 0x6578742D616E63686F723D226D6964646C65222063 PUSH13 0x6173733D2273636F726522203E KECCAK256 MSTORE8 PUSH4 0x6F72653A EXTCODECOPY 0x2F PUSH21 0x6578743E203C746578742069643D2273636F726543 PUSH16 0x756E7465722220783D22383330222079 RETURNDATASIZE 0x22 CALLER ADDRESS ADDRESS 0x22 KECCAK256 PUSH4 0x6C617373 RETURNDATASIZE 0x22 PUSH20 0x636F726522203E3C2F746578743E203C74657874 KECCAK256 KECCAK256 PUSH25 0x3D223930302220793D223535302220746578742D616E63686F PUSH19 0x3D226D6964646C652220636C6173733D226869 PUSH8 0x6853636F72652220 RETURNDATACOPY KECCAK256 PUSH9 0x6967682073636F7265 PUSH20 0x3A3C2F746578743E203C746578742069643D2268 PUSH20 0x312220783D223833302220793D22363030222063 PUSH13 0x6173733D2273636F726522203E EXTCODECOPY 0x2F PUSH21 0x6578743E203C746578742069643D22687332222078 RETURNDATASIZE 0x22 CODESIZE CALLER ADDRESS 0x22 KECCAK256 PUSH26 0x3D223635302220636C6173733D2273636F726522203E3C2F7465 PUSH25 0x743E203C746578742069643D226873332220783D2238333022 KECCAK256 PUSH26 0x3D223730302220636C6173733D2273636F726522203E3C2F7465 PUSH25 0x743E203C746578742069643D226873342220783D2238333022 KECCAK256 PUSH26 0x3D223735302220636C6173733D2273636F726522203E3C2F7465 PUSH25 0x743E203C746578742069643D226873352220783D2238333022 KECCAK256 PUSH26 0x3D223830302220636C6173733D2273636F726522203E3C2F7465 PUSH25 0x743E3C73766720786D6C6E733D22687474703A2F2F7777772E PUSH24 0x332E6F72672F323030302F7376672220786D6C6E733A786C PUSH10 0x6E6B3D22687474703A2F 0x2F PUSH24 0x77772E77332E6F72672F313939392F786C696E6B22207669 PUSH6 0x77426F783D22 ADDRESS KECCAK256 ADDRESS KECCAK256 BALANCE ADDRESS ADDRESS ADDRESS KECCAK256 BALANCE ADDRESS ADDRESS ADDRESS 0x22 RETURNDATACOPY LOG2 PUSH5 0x6970667358 0x22 SLT KECCAK256 0x4B 0xAE MOD 0xF6 0x1E 0xE6 PUSH32 0x8D4C177C574ACF1111588FA5302EAAD45E5FEF14E610BA81CB64736F6C634300 ADDMOD SMOD STOP CALLER "
				},
				"gasEstimates": {
					"creation": {
						"codeDepositCost": "2630400",
						"executionCost": "2876",
						"totalCost": "2633276"
					},
					"external": {
						"generateTokenURI(address,uint256,SnakeLib.ColorScheme,string,uint256)": "infinite"
					},
					"internal": {
						"base64HtmlUrl(address,uint256,struct SnakeLib.ColorScheme memory)": "infinite",
						"base64ImageUrl(address,uint256,struct SnakeLib.ColorScheme memory)": "infinite",
						"fullSVGImage(address,uint256,struct SnakeLib.ColorScheme memory)": "infinite",
						"getMetadata(address,uint256)": "infinite",
						"getStyle(struct SnakeLib.ColorScheme memory)": "infinite",
						"pureSVGImage(address,uint256,struct SnakeLib.ColorScheme memory)": "infinite"
					}
				},
				"methodIdentifiers": {
					"generateTokenURI(address,uint256,SnakeLib.ColorScheme,string,uint256)": "9ec1e280"
				}
			},
			"userdoc": {
				"kind": "user",
				"methods": {},
				"version": 1
			}
		}
	}
}