{
	"CalcLib.sol": {
		"CalcLib": {
			"abi": [
				{
					"inputs": [
						{
							"internalType": "address",
							"name": "owner",
							"type": "address"
						},
						{
							"internalType": "uint256",
							"name": "id",
							"type": "uint256"
						},
						{
							"internalType": "string",
							"name": "color",
							"type": "string"
						}
					],
					"name": "OwnerandIdText",
					"outputs": [
						{
							"internalType": "string",
							"name": "",
							"type": "string"
						}
					],
					"stateMutability": "pure",
					"type": "function"
				},
				{
					"inputs": [
						{
							"internalType": "address",
							"name": "owner",
							"type": "address"
						},
						{
							"internalType": "uint256",
							"name": "id",
							"type": "uint256"
						},
						{
							"components": [
								{
									"internalType": "string[2]",
									"name": "gradient1",
									"type": "string[2]"
								},
								{
									"internalType": "string[2]",
									"name": "gradient2",
									"type": "string[2]"
								},
								{
									"internalType": "string[2]",
									"name": "gradient3",
									"type": "string[2]"
								},
								{
									"internalType": "string[2]",
									"name": "gradient4",
									"type": "string[2]"
								},
								{
									"internalType": "string",
									"name": "buttonBackground",
									"type": "string"
								},
								{
									"internalType": "string",
									"name": "borderStrip",
									"type": "string"
								},
								{
									"internalType": "string",
									"name": "buttonText",
									"type": "string"
								},
								{
									"internalType": "string",
									"name": "screenText",
									"type": "string"
								},
								{
									"internalType": "string",
									"name": "screen",
									"type": "string"
								},
								{
									"internalType": "string",
									"name": "ownerText",
									"type": "string"
								}
							],
							"internalType": "struct CalcLib.ColorScheme",
							"name": "scheme",
							"type": "tuple"
						}
					],
					"name": "base64ImageUrl",
					"outputs": [
						{
							"internalType": "string",
							"name": "",
							"type": "string"
						}
					],
					"stateMutability": "pure",
					"type": "function"
				},
				{
					"inputs": [
						{
							"components": [
								{
									"internalType": "string[2]",
									"name": "gradient1",
									"type": "string[2]"
								},
								{
									"internalType": "string[2]",
									"name": "gradient2",
									"type": "string[2]"
								},
								{
									"internalType": "string[2]",
									"name": "gradient3",
									"type": "string[2]"
								},
								{
									"internalType": "string[2]",
									"name": "gradient4",
									"type": "string[2]"
								},
								{
									"internalType": "string",
									"name": "buttonBackground",
									"type": "string"
								},
								{
									"internalType": "string",
									"name": "borderStrip",
									"type": "string"
								},
								{
									"internalType": "string",
									"name": "buttonText",
									"type": "string"
								},
								{
									"internalType": "string",
									"name": "screenText",
									"type": "string"
								},
								{
									"internalType": "string",
									"name": "screen",
									"type": "string"
								},
								{
									"internalType": "string",
									"name": "ownerText",
									"type": "string"
								}
							],
							"internalType": "struct CalcLib.ColorScheme",
							"name": "scheme",
							"type": "tuple"
						}
					],
					"name": "getBackground",
					"outputs": [
						{
							"internalType": "string",
							"name": "",
							"type": "string"
						}
					],
					"stateMutability": "pure",
					"type": "function"
				},
				{
					"inputs": [
						{
							"components": [
								{
									"internalType": "string[2]",
									"name": "gradient1",
									"type": "string[2]"
								},
								{
									"internalType": "string[2]",
									"name": "gradient2",
									"type": "string[2]"
								},
								{
									"internalType": "string[2]",
									"name": "gradient3",
									"type": "string[2]"
								},
								{
									"internalType": "string[2]",
									"name": "gradient4",
									"type": "string[2]"
								},
								{
									"internalType": "string",
									"name": "buttonBackground",
									"type": "string"
								},
								{
									"internalType": "string",
									"name": "borderStrip",
									"type": "string"
								},
								{
									"internalType": "string",
									"name": "buttonText",
									"type": "string"
								},
								{
									"internalType": "string",
									"name": "screenText",
									"type": "string"
								},
								{
									"internalType": "string",
									"name": "screen",
									"type": "string"
								},
								{
									"internalType": "string",
									"name": "ownerText",
									"type": "string"
								}
							],
							"internalType": "struct CalcLib.ColorScheme",
							"name": "scheme",
							"type": "tuple"
						}
					],
					"name": "getGradients",
					"outputs": [
						{
							"internalType": "string",
							"name": "",
							"type": "string"
						}
					],
					"stateMutability": "pure",
					"type": "function"
				},
				{
					"inputs": [
						{
							"components": [
								{
									"internalType": "string[2]",
									"name": "gradient1",
									"type": "string[2]"
								},
								{
									"internalType": "string[2]",
									"name": "gradient2",
									"type": "string[2]"
								},
								{
									"internalType": "string[2]",
									"name": "gradient3",
									"type": "string[2]"
								},
								{
									"internalType": "string[2]",
									"name": "gradient4",
									"type": "string[2]"
								},
								{
									"internalType": "string",
									"name": "buttonBackground",
									"type": "string"
								},
								{
									"internalType": "string",
									"name": "borderStrip",
									"type": "string"
								},
								{
									"internalType": "string",
									"name": "buttonText",
									"type": "string"
								},
								{
									"internalType": "string",
									"name": "screenText",
									"type": "string"
								},
								{
									"internalType": "string",
									"name": "screen",
									"type": "string"
								},
								{
									"internalType": "string",
									"name": "ownerText",
									"type": "string"
								}
							],
							"internalType": "struct CalcLib.ColorScheme",
							"name": "scheme",
							"type": "tuple"
						}
					],
					"name": "getScreenText",
					"outputs": [
						{
							"internalType": "string",
							"name": "",
							"type": "string"
						}
					],
					"stateMutability": "pure",
					"type": "function"
				},
				{
					"inputs": [
						{
							"components": [
								{
									"internalType": "string[2]",
									"name": "gradient1",
									"type": "string[2]"
								},
								{
									"internalType": "string[2]",
									"name": "gradient2",
									"type": "string[2]"
								},
								{
									"internalType": "string[2]",
									"name": "gradient3",
									"type": "string[2]"
								},
								{
									"internalType": "string[2]",
									"name": "gradient4",
									"type": "string[2]"
								},
								{
									"internalType": "string",
									"name": "buttonBackground",
									"type": "string"
								},
								{
									"internalType": "string",
									"name": "borderStrip",
									"type": "string"
								},
								{
									"internalType": "string",
									"name": "buttonText",
									"type": "string"
								},
								{
									"internalType": "string",
									"name": "screenText",
									"type": "string"
								},
								{
									"internalType": "string",
									"name": "screen",
									"type": "string"
								},
								{
									"internalType": "string",
									"name": "ownerText",
									"type": "string"
								}
							],
							"internalType": "struct CalcLib.ColorScheme",
							"name": "scheme",
							"type": "tuple"
						}
					],
					"name": "getStyle",
					"outputs": [
						{
							"internalType": "string",
							"name": "",
							"type": "string"
						}
					],
					"stateMutability": "pure",
					"type": "function"
				}
			],
			"devdoc": {
				"kind": "dev",
				"methods": {},
				"version": 1
			},
			"evm": {
				"assembly": "    /* \"CalcLib.sol\":168:12694  library CalcLib {\r... */\n  dataSize(sub_0)\n  dataOffset(sub_0)\n  0x0b\n  dup3\n  dup3\n  dup3\n  codecopy\n  dup1\n  mload\n  0x00\n  byte\n  0x73\n  eq\n  tag_1\n  jumpi\n  mstore(0x00, shl(0xe0, 0x4e487b71))\n  mstore(0x04, 0x00)\n  revert(0x00, 0x24)\ntag_1:\n  mstore(0x00, address)\n  0x73\n  dup2\n  mstore8\n  dup3\n  dup2\n  return\nstop\n\nsub_0: assembly {\n        /* \"CalcLib.sol\":168:12694  library CalcLib {\r... */\n      eq(address, deployTimeAddress())\n      mstore(0x40, 0x80)\n      jumpi(tag_1, lt(calldatasize, 0x04))\n      shr(0xe0, calldataload(0x00))\n      dup1\n      0x3ce61661\n      eq\n      tag_2\n      jumpi\n      dup1\n      0x96ac761a\n      eq\n      tag_3\n      jumpi\n      dup1\n      0xb491605c\n      eq\n      tag_4\n      jumpi\n      dup1\n      0xc32d0289\n      eq\n      tag_5\n      jumpi\n      dup1\n      0xc98b4b31\n      eq\n      tag_6\n      jumpi\n      dup1\n      0xd7be44a9\n      eq\n      tag_7\n      jumpi\n    tag_1:\n      0x00\n      dup1\n      revert\n        /* \"CalcLib.sol\":9245:10705  function getGradients(ColorScheme memory scheme) public pure returns (string memory) {\r... */\n    tag_2:\n      tag_8\n      tag_9\n      calldatasize\n      0x04\n      tag_10\n      jump\t// in\n    tag_9:\n      tag_11\n      jump\t// in\n    tag_8:\n      mload(0x40)\n      tag_12\n      swap2\n      swap1\n      tag_13\n      jump\t// in\n    tag_12:\n      mload(0x40)\n      dup1\n      swap2\n      sub\n      swap1\n      return\n        /* \"CalcLib.sol\":11484:11909  function getScreenText(ColorScheme memory scheme) public pure returns(string memory) {\r... */\n    tag_3:\n      tag_8\n      tag_15\n      calldatasize\n      0x04\n      tag_10\n      jump\t// in\n    tag_15:\n      tag_16\n      jump\t// in\n        /* \"CalcLib.sol\":10713:11476  function getBackground(ColorScheme memory scheme) public pure returns (string memory) {\r... */\n    tag_4:\n      tag_8\n      tag_19\n      calldatasize\n      0x04\n      tag_10\n      jump\t// in\n    tag_19:\n      tag_20\n      jump\t// in\n        /* \"CalcLib.sol\":8015:8688  function base64ImageUrl(address owner, uint id, ColorScheme memory scheme) public pure returns (string memory) {\r... */\n    tag_5:\n      tag_8\n      tag_23\n      calldatasize\n      0x04\n      tag_24\n      jump\t// in\n    tag_23:\n      tag_25\n      jump\t// in\n        /* \"CalcLib.sol\":8700:9237  function OwnerandIdText(address owner, uint id, string memory color) public pure returns (string memory){\r... */\n    tag_6:\n      tag_8\n      tag_28\n      calldatasize\n      0x04\n      tag_29\n      jump\t// in\n    tag_28:\n      tag_30\n      jump\t// in\n        /* \"CalcLib.sol\":11917:12687  function getStyle(ColorScheme memory scheme) public pure returns(string memory ) {\r... */\n    tag_7:\n      tag_8\n      tag_33\n      calldatasize\n      0x04\n      tag_10\n      jump\t// in\n    tag_33:\n      tag_34\n      jump\t// in\n        /* \"CalcLib.sol\":9245:10705  function getGradients(ColorScheme memory scheme) public pure returns (string memory) {\r... */\n    tag_11:\n        /* \"CalcLib.sol\":9315:9328  string memory */\n      0x60\n        /* \"CalcLib.sol\":9341:9360  string memory first */\n      0x00\n        /* \"CalcLib.sol\":9341:9385  string memory first = '<linearGradient id=\"' */\n      mload(0x40)\n      dup1\n      0x40\n      add\n      0x40\n      mstore\n      dup1\n      0x14\n      dup2\n      mstore\n      0x20\n      add\n      shl(0x61, 0x1e3634b732b0b923b930b234b2b73a1034b21e91)\n      dup2\n      mstore\n      pop\n      swap1\n      pop\n        /* \"CalcLib.sol\":9396:9416  string memory second */\n      0x00\n        /* \"CalcLib.sol\":9396:9483  string memory second = '\" x1=\"1\" x2=\"0\" y1=\"0\" y2=\"0\"> <stop offset=\"0%\" stop-color=\"#' */\n      mload(0x40)\n      dup1\n      0x60\n      add\n      0x40\n      mstore\n      dup1\n      0x3e\n      dup2\n      mstore\n      0x20\n      add\n      data_ece1fe403cb44847d22010c3b8b124c8ae24fa3257971ea73f08d0ed9e6255cc\n      0x3e\n      swap2\n      codecopy\n      swap1\n      pop\n        /* \"CalcLib.sol\":9494:9513  string memory third */\n      0x00\n        /* \"CalcLib.sol\":9494:9555  string memory third = '\"/> <stop offset=\"100%\" stop-color=\"#' */\n      mload(0x40)\n      dup1\n      0x60\n      add\n      0x40\n      mstore\n      dup1\n      0x25\n      dup2\n      mstore\n      0x20\n      add\n      data_6e356c6433762ff4dc458b84769187fad17314db464d6d7dcb31e4b1ae35741d\n      0x25\n      swap2\n      codecopy\n        /* \"CalcLib.sol\":9566:9613  string memory fourth = '\" /> </linearGradient>' */\n      0x40\n      dup1\n      mload\n      dup1\n      dup3\n      add\n      dup3\n      mstore\n      0x16\n      dup2\n      mstore\n      shl(0x51, 0x1110179f101e17b634b732b0b923b930b234b2b73a1f)\n      0x20\n      dup1\n      dup4\n      add\n      swap2\n      swap1\n      swap2\n      mstore\n        /* \"CalcLib.sol\":9757:9773  scheme.gradient1 */\n      dup9\n      mload\n        /* \"CalcLib.sol\":9757:9776  scheme.gradient1[0] */\n      dup1\n      mload\n        /* \"CalcLib.sol\":9811:9830  scheme.gradient1[1] */\n      swap1\n      dup3\n      add\n      mload\n        /* \"CalcLib.sol\":9655:9866  abi.encodePacked(\r... */\n      swap4\n      mload\n        /* \"CalcLib.sol\":9494:9555  string memory third = '\"/> <stop offset=\"100%\" stop-color=\"#' */\n      swap5\n      swap6\n      pop\n        /* \"CalcLib.sol\":9566:9613  string memory fourth = '\" /> </linearGradient>' */\n      swap2\n      swap4\n      0x00\n      swap4\n        /* \"CalcLib.sol\":9655:9866  abi.encodePacked(\r... */\n      tag_42\n      swap4\n        /* \"CalcLib.sol\":9686:9691  first */\n      dup10\n      swap4\n        /* \"CalcLib.sol\":9735:9741  second */\n      dup10\n      swap4\n        /* \"CalcLib.sol\":9757:9776  scheme.gradient1[0] */\n      swap2\n      swap3\n        /* \"CalcLib.sol\":9494:9555  string memory third = '\"/> <stop offset=\"100%\" stop-color=\"#' */\n      dup10\n      swap3\n        /* \"CalcLib.sol\":9811:9830  scheme.gradient1[1] */\n      swap1\n      swap2\n        /* \"CalcLib.sol\":9566:9613  string memory fourth = '\" /> </linearGradient>' */\n      dup10\n      swap2\n        /* \"CalcLib.sol\":9655:9866  abi.encodePacked(\r... */\n      add\n      tag_43\n      jump\t// in\n    tag_42:\n      mload(0x40)\n      0x20\n      dup2\n      dup4\n      sub\n      sub\n      dup2\n      mstore\n      swap1\n      0x40\n      mstore\n        /* \"CalcLib.sol\":9626:9867  string memory grad1 = string(abi.encodePacked(\r... */\n      swap1\n      pop\n        /* \"CalcLib.sol\":9878:9897  string memory grad2 */\n      0x00\n        /* \"CalcLib.sol\":9938:9943  first */\n      dup6\n        /* \"CalcLib.sol\":9987:9993  second */\n      dup6\n        /* \"CalcLib.sol\":10009:10015  scheme */\n      dup10\n        /* \"CalcLib.sol\":10009:10025  scheme.gradient2 */\n      0x20\n      add\n      mload\n        /* \"CalcLib.sol\":10026:10027  0 */\n      0x00\n        /* \"CalcLib.sol\":10009:10028  scheme.gradient2[0] */\n      0x02\n      dup2\n      lt\n      tag_45\n      jumpi\n      tag_45\n      tag_39\n      jump\t// in\n    tag_45:\n      0x20\n      mul\n      add\n      mload\n        /* \"CalcLib.sol\":10043:10048  third */\n      dup7\n        /* \"CalcLib.sol\":10063:10069  scheme */\n      dup12\n        /* \"CalcLib.sol\":10063:10079  scheme.gradient2 */\n      0x20\n      add\n      mload\n        /* \"CalcLib.sol\":10080:10081  1 */\n      0x01\n        /* \"CalcLib.sol\":10063:10082  scheme.gradient2[1] */\n      0x02\n      dup2\n      lt\n      tag_47\n      jumpi\n      tag_47\n      tag_39\n      jump\t// in\n    tag_47:\n      0x20\n      mul\n      add\n      mload\n        /* \"CalcLib.sol\":10097:10103  fourth */\n      dup8\n        /* \"CalcLib.sol\":9907:10118  abi.encodePacked(\r... */\n      add(0x20, mload(0x40))\n      tag_48\n      swap7\n      swap6\n      swap5\n      swap4\n      swap3\n      swap2\n      swap1\n      tag_49\n      jump\t// in\n    tag_48:\n      mload(0x40)\n      0x20\n      dup2\n      dup4\n      sub\n      sub\n      dup2\n      mstore\n      swap1\n      0x40\n      mstore\n        /* \"CalcLib.sol\":9878:10119  string memory grad2 = string(abi.encodePacked(\r... */\n      swap1\n      pop\n        /* \"CalcLib.sol\":10130:10149  string memory grad3 */\n      0x00\n        /* \"CalcLib.sol\":10190:10195  first */\n      dup7\n        /* \"CalcLib.sol\":10239:10245  second */\n      dup7\n        /* \"CalcLib.sol\":10261:10267  scheme */\n      dup11\n        /* \"CalcLib.sol\":10261:10277  scheme.gradient3 */\n      0x40\n      add\n      mload\n        /* \"CalcLib.sol\":10278:10279  0 */\n      0x00\n        /* \"CalcLib.sol\":10261:10280  scheme.gradient3[0] */\n      0x02\n      dup2\n      lt\n      tag_51\n      jumpi\n      tag_51\n      tag_39\n      jump\t// in\n    tag_51:\n      0x20\n      mul\n      add\n      mload\n        /* \"CalcLib.sol\":10315:10331  scheme.gradient3 */\n      0x40\n      dup13\n      add\n      mload\n        /* \"CalcLib.sol\":10295:10300  third */\n      dup9\n      swap1\n        /* \"CalcLib.sol\":10332:10333  1 */\n      0x01\n        /* \"CalcLib.sol\":10315:10334  scheme.gradient3[1] */\n      0x20\n      mul\n      add\n      mload\n        /* \"CalcLib.sol\":10349:10355  fourth */\n      dup9\n        /* \"CalcLib.sol\":10159:10370  abi.encodePacked(\r... */\n      add(0x20, mload(0x40))\n      tag_54\n      swap7\n      swap6\n      swap5\n      swap4\n      swap3\n      swap2\n      swap1\n      tag_55\n      jump\t// in\n    tag_54:\n      mload(0x40)\n      0x20\n      dup2\n      dup4\n      sub\n      sub\n      dup2\n      mstore\n      swap1\n      0x40\n      mstore\n        /* \"CalcLib.sol\":10130:10371  string memory grad3 = string(abi.encodePacked(\r... */\n      swap1\n      pop\n        /* \"CalcLib.sol\":10382:10401  string memory grad4 */\n      0x00\n        /* \"CalcLib.sol\":10442:10447  first */\n      dup8\n        /* \"CalcLib.sol\":10491:10497  second */\n      dup8\n        /* \"CalcLib.sol\":10513:10519  scheme */\n      dup12\n        /* \"CalcLib.sol\":10513:10529  scheme.gradient4 */\n      0x60\n      add\n      mload\n        /* \"CalcLib.sol\":10530:10531  0 */\n      0x00\n        /* \"CalcLib.sol\":10513:10532  scheme.gradient4[0] */\n      0x02\n      dup2\n      lt\n      tag_57\n      jumpi\n      tag_57\n      tag_39\n      jump\t// in\n    tag_57:\n      0x20\n      mul\n      add\n      mload\n        /* \"CalcLib.sol\":10567:10583  scheme.gradient4 */\n      0x60\n      dup14\n      add\n      mload\n        /* \"CalcLib.sol\":10547:10552  third */\n      dup10\n      swap1\n        /* \"CalcLib.sol\":10584:10585  1 */\n      0x01\n        /* \"CalcLib.sol\":10567:10586  scheme.gradient4[1] */\n      0x20\n      mul\n      add\n      mload\n        /* \"CalcLib.sol\":10601:10607  fourth */\n      dup10\n        /* \"CalcLib.sol\":10411:10622  abi.encodePacked(\r... */\n      add(0x20, mload(0x40))\n      tag_60\n      swap7\n      swap6\n      swap5\n      swap4\n      swap3\n      swap2\n      swap1\n      tag_61\n      jump\t// in\n    tag_60:\n      mload(0x40)\n      0x20\n      dup2\n      dup4\n      sub\n      sub\n      dup2\n      mstore\n      swap1\n      0x40\n      mstore\n        /* \"CalcLib.sol\":10382:10623  string memory grad4 = string(abi.encodePacked(\r... */\n      swap1\n      pop\n        /* \"CalcLib.sol\":10667:10672  grad1 */\n      dup4\n        /* \"CalcLib.sol\":10674:10679  grad2 */\n      dup4\n        /* \"CalcLib.sol\":10681:10686  grad3 */\n      dup4\n        /* \"CalcLib.sol\":10688:10693  grad4 */\n      dup4\n        /* \"CalcLib.sol\":10650:10694  abi.encodePacked(grad1, grad2, grad3, grad4) */\n      add(0x20, mload(0x40))\n      tag_62\n      swap5\n      swap4\n      swap3\n      swap2\n      swap1\n      tag_63\n      jump\t// in\n    tag_62:\n      mload(0x40)\n      0x20\n      dup2\n      dup4\n      sub\n      sub\n      dup2\n      mstore\n      swap1\n      0x40\n      mstore\n        /* \"CalcLib.sol\":10636:10695  return string(abi.encodePacked(grad1, grad2, grad3, grad4)) */\n      swap9\n      pop\n      pop\n      pop\n      pop\n      pop\n      pop\n      pop\n      pop\n      pop\n        /* \"CalcLib.sol\":9245:10705  function getGradients(ColorScheme memory scheme) public pure returns (string memory) {\r... */\n      swap2\n      swap1\n      pop\n      jump\t// out\n        /* \"CalcLib.sol\":11484:11909  function getScreenText(ColorScheme memory scheme) public pure returns(string memory) {\r... */\n    tag_16:\n        /* \"CalcLib.sol\":11554:11567  string memory */\n      0x60\n        /* \"CalcLib.sol\":11580:11599  string memory first */\n      0x00\n        /* \"CalcLib.sol\":11580:11615  string memory first = '<g fill= \"#' */\n      mload(0x40)\n      dup1\n      0x40\n      add\n      0x40\n      mstore\n      dup1\n      0x0b\n      dup2\n      mstore\n      0x20\n      add\n      shl(0xa8, 0x3c672066696c6c3d202223)\n      dup2\n      mstore\n      pop\n      swap1\n      pop\n        /* \"CalcLib.sol\":11627:11647  string memory second */\n      0x00\n        /* \"CalcLib.sol\":11627:11823  string memory second = '\"> <text id=\"screenLarge\" x=\"70\" y=\"160\"></text> <text id=\"screenTop\" x=\"70\" y=\"105\" class=\"light\"></text> <text id=\"screenTiny\" x=\"430\" y=\"170\" class=\"tiny\"></text> </g >' */\n      mload(0x40)\n      dup1\n      0xe0\n      add\n      0x40\n      mstore\n      dup1\n      0xab\n      dup2\n      mstore\n      0x20\n      add\n      data_dc0ebeee3a775c3d054d2b04f292428f024151a09629099d68a58bacf745ab91\n      0xab\n      swap2\n      codecopy\n      swap1\n      pop\n        /* \"CalcLib.sol\":11865:11870  first */\n      dup2\n        /* \"CalcLib.sol\":11872:11878  scheme */\n      dup5\n        /* \"CalcLib.sol\":11872:11889  scheme.screenText */\n      0xe0\n      add\n      mload\n        /* \"CalcLib.sol\":11891:11897  second */\n      dup3\n        /* \"CalcLib.sol\":11848:11898  abi.encodePacked(first, scheme.screenText, second) */\n      add(0x20, mload(0x40))\n      tag_65\n      swap4\n      swap3\n      swap2\n      swap1\n      tag_66\n      jump\t// in\n    tag_65:\n      mload(0x40)\n      0x20\n      dup2\n      dup4\n      sub\n      sub\n      dup2\n      mstore\n      swap1\n      0x40\n      mstore\n        /* \"CalcLib.sol\":11834:11899  return string(abi.encodePacked(first, scheme.screenText, second)) */\n      swap3\n      pop\n      pop\n      pop\n        /* \"CalcLib.sol\":11484:11909  function getScreenText(ColorScheme memory scheme) public pure returns(string memory) {\r... */\n      swap2\n      swap1\n      pop\n      jump\t// out\n        /* \"CalcLib.sol\":10713:11476  function getBackground(ColorScheme memory scheme) public pure returns (string memory) {\r... */\n    tag_20:\n        /* \"CalcLib.sol\":10784:10797  string memory */\n      0x60\n        /* \"CalcLib.sol\":10810:10829  string memory first */\n      0x00\n        /* \"CalcLib.sol\":10810:10847  string memory first = '<g  stroke=\"#' */\n      mload(0x40)\n      dup1\n      0x40\n      add\n      0x40\n      mstore\n      dup1\n      0x0d\n      dup2\n      mstore\n      0x20\n      add\n      shl(0x98, 0x3c6720207374726f6b653d2223)\n      dup2\n      mstore\n      pop\n      swap1\n      pop\n        /* \"CalcLib.sol\":10858:10878  string memory second */\n      0x00\n        /* \"CalcLib.sol\":10858:11324  string memory second = '\" stroke-width=\"3\" > <rect id=\"border\" fill=\"url(#Gradient4)\" rx=\"7\" x=\"0\" y=\"0\" width=\"550\" height=\"760\"/> <rect class=\"buttonBackground\"   rx=\"7\" x=\"30\" y=\"30\" width=\"490\" height=\"700\"/> <rect id=\"screenBorder\" rx=\"7\" fill=\"url(#Gradient2)\" x=\"45\" y=\"50\" width=\"460\" height=\"150\"/> <rect class=\"screen\"  rx=\"7\" x=\"65\" y=\"70\" width=\"420\" height=\"110\"/> <rect rx=\"7\" stroke-width=\"5\" fill=\"none\" x=\"10\" y=\"10\" width=\"530\" height=\"740\"/> </g>' */\n      mload(0x40)\n      dup1\n      0x01e0\n      add\n      0x40\n      mstore\n      dup1\n      0x01b9\n      dup2\n      mstore\n      0x20\n      add\n      data_d394c0642c8d37f9343a9a92f5cf93c0c5adde1d3f001e2367291655d15bb59e\n      0x01b9\n      swap2\n      codecopy\n      swap1\n      pop\n        /* \"CalcLib.sol\":11388:11393  first */\n      dup2\n        /* \"CalcLib.sol\":11409:11415  scheme */\n      dup5\n        /* \"CalcLib.sol\":11409:11427  scheme.borderStrip */\n      0xa0\n      add\n      mload\n        /* \"CalcLib.sol\":11442:11448  second */\n      dup3\n        /* \"CalcLib.sol\":11357:11465  abi.encodePacked(\r... */\n      add(0x20, mload(0x40))\n      tag_65\n      swap4\n      swap3\n      swap2\n      swap1\n      tag_66\n      jump\t// in\n        /* \"CalcLib.sol\":8015:8688  function base64ImageUrl(address owner, uint id, ColorScheme memory scheme) public pure returns (string memory) {\r... */\n    tag_25:\n        /* \"CalcLib.sol\":8111:8124  string memory */\n      0x60\n        /* \"CalcLib.sol\":8137:8158  string memory ownerId */\n      0x00\n        /* \"CalcLib.sol\":8161:8204  OwnerandIdText(owner, id, scheme.ownerText) */\n      tag_70\n        /* \"CalcLib.sol\":8176:8181  owner */\n      dup6\n        /* \"CalcLib.sol\":8183:8185  id */\n      dup6\n        /* \"CalcLib.sol\":8187:8193  scheme */\n      dup6\n        /* \"CalcLib.sol\":8187:8203  scheme.ownerText */\n      0x0120\n      add\n      mload\n        /* \"CalcLib.sol\":8161:8175  OwnerandIdText */\n      tag_30\n        /* \"CalcLib.sol\":8161:8204  OwnerandIdText(owner, id, scheme.ownerText) */\n      jump\t// in\n    tag_70:\n        /* \"CalcLib.sol\":8137:8204  string memory ownerId = OwnerandIdText(owner, id, scheme.ownerText) */\n      swap1\n      pop\n        /* \"CalcLib.sol\":8215:8238  string memory gradients */\n      0x00\n        /* \"CalcLib.sol\":8241:8261  getGradients(scheme) */\n      tag_71\n        /* \"CalcLib.sol\":8254:8260  scheme */\n      dup5\n        /* \"CalcLib.sol\":8241:8253  getGradients */\n      tag_11\n        /* \"CalcLib.sol\":8241:8261  getGradients(scheme) */\n      jump\t// in\n    tag_71:\n        /* \"CalcLib.sol\":8215:8261  string memory gradients = getGradients(scheme) */\n      swap1\n      pop\n        /* \"CalcLib.sol\":8272:8296  string memory background */\n      0x00\n        /* \"CalcLib.sol\":8299:8320  getBackground(scheme) */\n      tag_72\n        /* \"CalcLib.sol\":8313:8319  scheme */\n      dup6\n        /* \"CalcLib.sol\":8299:8312  getBackground */\n      tag_20\n        /* \"CalcLib.sol\":8299:8320  getBackground(scheme) */\n      jump\t// in\n    tag_72:\n        /* \"CalcLib.sol\":8272:8320  string memory background = getBackground(scheme) */\n      swap1\n      pop\n        /* \"CalcLib.sol\":8331:8355  string memory screenText */\n      0x00\n        /* \"CalcLib.sol\":8358:8379  getScreenText(scheme) */\n      tag_73\n        /* \"CalcLib.sol\":8372:8378  scheme */\n      dup7\n        /* \"CalcLib.sol\":8358:8371  getScreenText */\n      tag_16\n        /* \"CalcLib.sol\":8358:8379  getScreenText(scheme) */\n      jump\t// in\n    tag_73:\n        /* \"CalcLib.sol\":8331:8379  string memory screenText = getScreenText(scheme) */\n      swap1\n      pop\n        /* \"CalcLib.sol\":8390:8410  string memory styles */\n      0x00\n        /* \"CalcLib.sol\":8413:8429  getStyle(scheme) */\n      tag_74\n        /* \"CalcLib.sol\":8422:8428  scheme */\n      dup8\n        /* \"CalcLib.sol\":8413:8421  getStyle */\n      tag_34\n        /* \"CalcLib.sol\":8413:8429  getStyle(scheme) */\n      jump\t// in\n    tag_74:\n        /* \"CalcLib.sol\":8390:8429  string memory styles = getStyle(scheme) */\n      swap1\n      pop\n        /* \"CalcLib.sol\":8442:8465  string memory svgBase64 */\n      0x00\n        /* \"CalcLib.sol\":8468:8596  Base64.encode(abi.encodePacked(svgStart, styles, gradients, background, svgButtons, screenText, svgButtonText, ownerId, svgEnd)) */\n      tag_75\n        /* \"CalcLib.sol\":8499:8507  svgStart */\n      mload(0x40)\n      dup1\n      0xa0\n      add\n      0x40\n      mstore\n      dup1\n      0x69\n      dup2\n      mstore\n      0x20\n      add\n      data_7a5ace098b4317d9adc09a6826c4619430c8b3d39b2c152cc6a29aaa4a165c9a\n      0x69\n      swap2\n      codecopy\n        /* \"CalcLib.sol\":8509:8515  styles */\n      dup4\n        /* \"CalcLib.sol\":8517:8526  gradients */\n      dup8\n        /* \"CalcLib.sol\":8528:8538  background */\n      dup8\n        /* \"CalcLib.sol\":8540:8550  svgButtons */\n      mload(0x40)\n      dup1\n      0x06e0\n      add\n      0x40\n      mstore\n      dup1\n      0x06ba\n      dup2\n      mstore\n      0x20\n      add\n      data_0166d81d6c1aa60530a32cf67b3b5544dfbbea01b5fbe7fbf5703b5b4ecfc066\n      0x06ba\n      swap2\n      codecopy\n        /* \"CalcLib.sol\":8552:8562  screenText */\n      dup9\n        /* \"CalcLib.sol\":8564:8577  svgButtonText */\n      mload(0x40)\n      dup1\n      0x04c0\n      add\n      0x40\n      mstore\n      dup1\n      0x049e\n      dup2\n      mstore\n      0x20\n      add\n      data_8513231d7802466c4d092d131b9adcfbd9bc03e9441278029ff12c3502279be2\n      0x049e\n      swap2\n      codecopy\n        /* \"CalcLib.sol\":8579:8586  ownerId */\n      dup14\n        /* \"CalcLib.sol\":8588:8594  svgEnd */\n      mload(0x40)\n      dup1\n      0x0aa0\n      add\n      0x40\n      mstore\n      dup1\n      0x0a68\n      dup2\n      mstore\n      0x20\n      add\n      data_8980008e256eb1a96cead8f85c588a0fe9126e56aa0e4ac21a29ba0692cb537c\n      0x0a68\n      swap2\n      codecopy\n        /* \"CalcLib.sol\":8482:8595  abi.encodePacked(svgStart, styles, gradients, background, svgButtons, screenText, svgButtonText, ownerId, svgEnd) */\n      add(0x20, mload(0x40))\n      tag_76\n      swap10\n      swap9\n      swap8\n      swap7\n      swap6\n      swap5\n      swap4\n      swap3\n      swap2\n      swap1\n      tag_77\n      jump\t// in\n    tag_76:\n      mload(0x40)\n      0x20\n      dup2\n      dup4\n      sub\n      sub\n      dup2\n      mstore\n      swap1\n      0x40\n      mstore\n        /* \"CalcLib.sol\":8468:8481  Base64.encode */\n      tag_78\n        /* \"CalcLib.sol\":8468:8596  Base64.encode(abi.encodePacked(svgStart, styles, gradients, background, svgButtons, screenText, svgButtonText, ownerId, svgEnd)) */\n      jump\t// in\n    tag_75:\n        /* \"CalcLib.sol\":8442:8596  string memory svgBase64 = Base64.encode(abi.encodePacked(svgStart, styles, gradients, background, svgButtons, screenText, svgButtonText, ownerId, svgEnd)) */\n      swap1\n      pop\n        /* \"CalcLib.sol\":8667:8676  svgBase64 */\n      dup1\n        /* \"CalcLib.sol\":8621:8677  abi.encodePacked(\"data:image/svg+xml;base64,\",svgBase64) */\n      add(0x20, mload(0x40))\n      tag_79\n      swap2\n      swap1\n      tag_80\n      jump\t// in\n    tag_79:\n      mload(0x40)\n      0x20\n      dup2\n      dup4\n      sub\n      sub\n      dup2\n      mstore\n      swap1\n      0x40\n      mstore\n        /* \"CalcLib.sol\":8607:8678  return string(abi.encodePacked(\"data:image/svg+xml;base64,\",svgBase64)) */\n      swap7\n      pop\n      pop\n      pop\n      pop\n      pop\n      pop\n      pop\n        /* \"CalcLib.sol\":8015:8688  function base64ImageUrl(address owner, uint id, ColorScheme memory scheme) public pure returns (string memory) {\r... */\n      swap4\n      swap3\n      pop\n      pop\n      pop\n      jump\t// out\n        /* \"CalcLib.sol\":8700:9237  function OwnerandIdText(address owner, uint id, string memory color) public pure returns (string memory){\r... */\n    tag_30:\n        /* \"CalcLib.sol\":8790:8803  string memory */\n      0x60\n        /* \"CalcLib.sol\":8815:8835  string memory _owner */\n      0x00\n        /* \"CalcLib.sol\":8838:8877  Strings.toHexString(uint160(owner), 20) */\n      tag_82\n        /* \"CalcLib.sol\":8866:8871  owner */\n      dup6\n      sub(shl(0xa0, 0x01), 0x01)\n        /* \"CalcLib.sol\":8838:8877  Strings.toHexString(uint160(owner), 20) */\n      and\n        /* \"CalcLib.sol\":8874:8876  20 */\n      0x14\n        /* \"CalcLib.sol\":8838:8857  Strings.toHexString */\n      tag_83\n        /* \"CalcLib.sol\":8838:8877  Strings.toHexString(uint160(owner), 20) */\n      jump\t// in\n    tag_82:\n        /* \"CalcLib.sol\":8815:8877  string memory _owner = Strings.toHexString(uint160(owner), 20) */\n      swap1\n      pop\n        /* \"CalcLib.sol\":8888:8905  string memory _id */\n      0x00\n        /* \"CalcLib.sol\":8908:8928  Strings.toString(id) */\n      tag_84\n        /* \"CalcLib.sol\":8925:8927  id */\n      dup6\n        /* \"CalcLib.sol\":8908:8924  Strings.toString */\n      tag_85\n        /* \"CalcLib.sol\":8908:8928  Strings.toString(id) */\n      jump\t// in\n    tag_84:\n        /* \"CalcLib.sol\":8888:8928  string memory _id = Strings.toString(id) */\n      swap1\n      pop\n        /* \"CalcLib.sol\":8998:9003  color */\n      dup4\n        /* \"CalcLib.sol\":9084:9090  _owner */\n      dup3\n        /* \"CalcLib.sol\":9177:9180  _id */\n      dup3\n        /* \"CalcLib.sol\":8955:9222  abi.encodePacked('<text fill=\"#',\r... */\n      add(0x20, mload(0x40))\n      tag_86\n      swap4\n      swap3\n      swap2\n      swap1\n      tag_87\n      jump\t// in\n    tag_86:\n      mload(0x40)\n      0x20\n      dup2\n      dup4\n      sub\n      sub\n      dup2\n      mstore\n      swap1\n      0x40\n      mstore\n        /* \"CalcLib.sol\":8941:9223  return string(abi.encodePacked('<text fill=\"#',\r... */\n      swap3\n      pop\n      pop\n      pop\n        /* \"CalcLib.sol\":8700:9237  function OwnerandIdText(address owner, uint id, string memory color) public pure returns (string memory){\r... */\n      swap4\n      swap3\n      pop\n      pop\n      pop\n      jump\t// out\n        /* \"CalcLib.sol\":11917:12687  function getStyle(ColorScheme memory scheme) public pure returns(string memory ) {\r... */\n    tag_34:\n        /* \"CalcLib.sol\":11982:11995  string memory */\n      0x60\n        /* \"CalcLib.sol\":12276:12282  scheme */\n      dup2\n        /* \"CalcLib.sol\":12276:12293  scheme.buttonText */\n      0xc0\n      add\n      mload\n        /* \"CalcLib.sol\":12375:12381  scheme */\n      dup3\n        /* \"CalcLib.sol\":12375:12391  scheme.ownerText */\n      0x0120\n      add\n      mload\n        /* \"CalcLib.sol\":12453:12459  scheme */\n      dup4\n        /* \"CalcLib.sol\":12453:12476  scheme.buttonBackground */\n      0x80\n      add\n      mload\n        /* \"CalcLib.sol\":12525:12531  scheme */\n      dup5\n        /* \"CalcLib.sol\":12525:12538  scheme.screen */\n      0x0100\n      add\n      mload\n        /* \"CalcLib.sol\":12594:12600  scheme */\n      dup6\n        /* \"CalcLib.sol\":12594:12612  scheme.borderStrip */\n      0xa0\n      add\n      mload\n        /* \"CalcLib.sol\":12023:12654  abi.encodePacked(\r... */\n      add(0x20, mload(0x40))\n      tag_89\n      swap6\n      swap5\n      swap4\n      swap3\n      swap2\n      swap1\n      tag_90\n      jump\t// in\n    tag_89:\n      mload(0x40)\n      0x20\n      dup2\n      dup4\n      sub\n      sub\n      dup2\n      mstore\n      swap1\n      0x40\n      mstore\n        /* \"CalcLib.sol\":12009:12655  return string(abi.encodePacked(\r... */\n      swap1\n      pop\n        /* \"CalcLib.sol\":11917:12687  function getStyle(ColorScheme memory scheme) public pure returns(string memory ) {\r... */\n      swap2\n      swap1\n      pop\n      jump\t// out\n        /* \"@openzeppelin/contracts/utils/Base64.sol\":505:3488  function encode(bytes memory data) internal pure returns (string memory) {... */\n    tag_78:\n        /* \"@openzeppelin/contracts/utils/Base64.sol\":563:576  string memory */\n      0x60\n        /* \"@openzeppelin/contracts/utils/Base64.sol\":795:799  data */\n      dup2\n        /* \"@openzeppelin/contracts/utils/Base64.sol\":795:806  data.length */\n      mload\n        /* \"@openzeppelin/contracts/utils/Base64.sol\":810:811  0 */\n      0x00\n        /* \"@openzeppelin/contracts/utils/Base64.sol\":795:811  data.length == 0 */\n      eq\n        /* \"@openzeppelin/contracts/utils/Base64.sol\":791:822  if (data.length == 0) return \"\" */\n      iszero\n      tag_92\n      jumpi\n      pop\n      pop\n        /* \"@openzeppelin/contracts/utils/Base64.sol\":813:822  return \"\" */\n      0x40\n      dup1\n      mload\n      0x20\n      dup2\n      add\n      swap1\n      swap2\n      mstore\n      0x00\n      dup2\n      mstore\n      swap1\n        /* \"@openzeppelin/contracts/utils/Base64.sol\":505:3488  function encode(bytes memory data) internal pure returns (string memory) {... */\n      jump\t// out\n        /* \"@openzeppelin/contracts/utils/Base64.sol\":791:822  if (data.length == 0) return \"\" */\n    tag_92:\n        /* \"@openzeppelin/contracts/utils/Base64.sol\":872:891  string memory table */\n      0x00\n        /* \"@openzeppelin/contracts/utils/Base64.sol\":894:900  _TABLE */\n      mload(0x40)\n      dup1\n      0x60\n      add\n      0x40\n      mstore\n      dup1\n      0x40\n      dup2\n      mstore\n      0x20\n      add\n      data_84d8a590de33e00cbdc16e1f28c3506f5ec15c599fab9a6a4bcd575cc2f110ce\n      0x40\n      swap2\n      codecopy\n        /* \"@openzeppelin/contracts/utils/Base64.sol\":872:900  string memory table = _TABLE */\n      swap1\n      pop\n        /* \"@openzeppelin/contracts/utils/Base64.sol\":1303:1323  string memory result */\n      0x00\n        /* \"@openzeppelin/contracts/utils/Base64.sol\":1362:1363  3 */\n      0x03\n        /* \"@openzeppelin/contracts/utils/Base64.sol\":1343:1347  data */\n      dup5\n        /* \"@openzeppelin/contracts/utils/Base64.sol\":1343:1354  data.length */\n      mload\n        /* \"@openzeppelin/contracts/utils/Base64.sol\":1357:1358  2 */\n      0x02\n        /* \"@openzeppelin/contracts/utils/Base64.sol\":1343:1358  data.length + 2 */\n      tag_93\n      swap2\n      swap1\n      tag_94\n      jump\t// in\n    tag_93:\n        /* \"@openzeppelin/contracts/utils/Base64.sol\":1342:1363  (data.length + 2) / 3 */\n      tag_95\n      swap2\n      swap1\n      tag_96\n      jump\t// in\n    tag_95:\n        /* \"@openzeppelin/contracts/utils/Base64.sol\":1337:1364  4 * ((data.length + 2) / 3) */\n      tag_97\n      swap1\n        /* \"@openzeppelin/contracts/utils/Base64.sol\":1337:1338  4 */\n      0x04\n        /* \"@openzeppelin/contracts/utils/Base64.sol\":1337:1364  4 * ((data.length + 2) / 3) */\n      tag_98\n      jump\t// in\n    tag_97:\n      sub(shl(0x40, 0x01), 0x01)\n        /* \"@openzeppelin/contracts/utils/Base64.sol\":1326:1365  new string(4 * ((data.length + 2) / 3)) */\n      dup2\n      gt\n      iszero\n      tag_100\n      jumpi\n      tag_100\n      tag_101\n      jump\t// in\n    tag_100:\n      mload(0x40)\n      swap1\n      dup1\n      dup3\n      mstore\n      dup1\n      0x1f\n      add\n      not(0x1f)\n      and\n      0x20\n      add\n      dup3\n      add\n      0x40\n      mstore\n      dup1\n      iszero\n      tag_102\n      jumpi\n      0x20\n      dup3\n      add\n      dup2\n      dup1\n      calldatasize\n      dup4\n      calldatacopy\n      add\n      swap1\n      pop\n    tag_102:\n      pop\n        /* \"@openzeppelin/contracts/utils/Base64.sol\":1303:1365  string memory result = new string(4 * ((data.length + 2) / 3)) */\n      swap1\n      pop\n        /* \"@openzeppelin/contracts/utils/Base64.sol\":1497:1498  1 */\n      0x01\n        /* \"@openzeppelin/contracts/utils/Base64.sol\":1490:1495  table */\n      dup3\n        /* \"@openzeppelin/contracts/utils/Base64.sol\":1486:1499  add(table, 1) */\n      add\n        /* \"@openzeppelin/contracts/utils/Base64.sol\":1598:1600  32 */\n      0x20\n        /* \"@openzeppelin/contracts/utils/Base64.sol\":1590:1596  result */\n      dup3\n        /* \"@openzeppelin/contracts/utils/Base64.sol\":1586:1601  add(result, 32) */\n      add\n        /* \"@openzeppelin/contracts/utils/Base64.sol\":1705:1709  data */\n      dup6\n        /* \"@openzeppelin/contracts/utils/Base64.sol\":1756:1760  data */\n      dup7\n        /* \"@openzeppelin/contracts/utils/Base64.sol\":1750:1761  mload(data) */\n      mload\n        /* \"@openzeppelin/contracts/utils/Base64.sol\":1744:1748  data */\n      dup8\n        /* \"@openzeppelin/contracts/utils/Base64.sol\":1740:1762  add(data, mload(data)) */\n      add\n        /* \"@openzeppelin/contracts/utils/Base64.sol\":1668:3071  for {... */\n    tag_103:\n        /* \"@openzeppelin/contracts/utils/Base64.sol\":1789:1795  endPtr */\n      dup1\n        /* \"@openzeppelin/contracts/utils/Base64.sol\":1780:1787  dataPtr */\n      dup3\n        /* \"@openzeppelin/contracts/utils/Base64.sol\":1777:1796  lt(dataPtr, endPtr) */\n      lt\n        /* \"@openzeppelin/contracts/utils/Base64.sol\":1668:3071  for {... */\n      iszero\n      tag_105\n      jumpi\n        /* \"@openzeppelin/contracts/utils/Base64.sol\":1891:1892  3 */\n      0x03\n        /* \"@openzeppelin/contracts/utils/Base64.sol\":1882:1889  dataPtr */\n      dup3\n        /* \"@openzeppelin/contracts/utils/Base64.sol\":1878:1893  add(dataPtr, 3) */\n      add\n        /* \"@openzeppelin/contracts/utils/Base64.sol\":1867:1893  dataPtr := add(dataPtr, 3) */\n      swap2\n      pop\n        /* \"@openzeppelin/contracts/utils/Base64.sol\":1929:1936  dataPtr */\n      dup2\n        /* \"@openzeppelin/contracts/utils/Base64.sol\":1923:1937  mload(dataPtr) */\n      mload\n        /* \"@openzeppelin/contracts/utils/Base64.sol\":2572:2576  0x3F */\n      0x3f\n        /* \"@openzeppelin/contracts/utils/Base64.sol\":2564:2569  input */\n      dup2\n        /* \"@openzeppelin/contracts/utils/Base64.sol\":2560:2562  18 */\n      0x12\n        /* \"@openzeppelin/contracts/utils/Base64.sol\":2556:2570  shr(18, input) */\n      shr\n        /* \"@openzeppelin/contracts/utils/Base64.sol\":2552:2577  and(shr(18, input), 0x3F) */\n      and\n        /* \"@openzeppelin/contracts/utils/Base64.sol\":2542:2550  tablePtr */\n      dup6\n        /* \"@openzeppelin/contracts/utils/Base64.sol\":2538:2578  add(tablePtr, and(shr(18, input), 0x3F)) */\n      add\n        /* \"@openzeppelin/contracts/utils/Base64.sol\":2532:2579  mload(add(tablePtr, and(shr(18, input), 0x3F))) */\n      mload\n        /* \"@openzeppelin/contracts/utils/Base64.sol\":2521:2530  resultPtr */\n      dup5\n        /* \"@openzeppelin/contracts/utils/Base64.sol\":2513:2580  mstore8(resultPtr, mload(add(tablePtr, and(shr(18, input), 0x3F)))) */\n      mstore8\n        /* \"@openzeppelin/contracts/utils/Base64.sol\":2625:2626  1 */\n      0x01\n        /* \"@openzeppelin/contracts/utils/Base64.sol\":2614:2623  resultPtr */\n      dup5\n        /* \"@openzeppelin/contracts/utils/Base64.sol\":2610:2627  add(resultPtr, 1) */\n      add\n        /* \"@openzeppelin/contracts/utils/Base64.sol\":2597:2627  resultPtr := add(resultPtr, 1) */\n      swap4\n      pop\n        /* \"@openzeppelin/contracts/utils/Base64.sol\":2715:2719  0x3F */\n      0x3f\n        /* \"@openzeppelin/contracts/utils/Base64.sol\":2707:2712  input */\n      dup2\n        /* \"@openzeppelin/contracts/utils/Base64.sol\":2703:2705  12 */\n      0x0c\n        /* \"@openzeppelin/contracts/utils/Base64.sol\":2699:2713  shr(12, input) */\n      shr\n        /* \"@openzeppelin/contracts/utils/Base64.sol\":2695:2720  and(shr(12, input), 0x3F) */\n      and\n        /* \"@openzeppelin/contracts/utils/Base64.sol\":2685:2693  tablePtr */\n      dup6\n        /* \"@openzeppelin/contracts/utils/Base64.sol\":2681:2721  add(tablePtr, and(shr(12, input), 0x3F)) */\n      add\n        /* \"@openzeppelin/contracts/utils/Base64.sol\":2675:2722  mload(add(tablePtr, and(shr(12, input), 0x3F))) */\n      mload\n        /* \"@openzeppelin/contracts/utils/Base64.sol\":2664:2673  resultPtr */\n      dup5\n        /* \"@openzeppelin/contracts/utils/Base64.sol\":2656:2723  mstore8(resultPtr, mload(add(tablePtr, and(shr(12, input), 0x3F)))) */\n      mstore8\n        /* \"@openzeppelin/contracts/utils/Base64.sol\":2768:2769  1 */\n      0x01\n        /* \"@openzeppelin/contracts/utils/Base64.sol\":2757:2766  resultPtr */\n      dup5\n        /* \"@openzeppelin/contracts/utils/Base64.sol\":2753:2770  add(resultPtr, 1) */\n      add\n        /* \"@openzeppelin/contracts/utils/Base64.sol\":2740:2770  resultPtr := add(resultPtr, 1) */\n      swap4\n      pop\n        /* \"@openzeppelin/contracts/utils/Base64.sol\":2857:2861  0x3F */\n      0x3f\n        /* \"@openzeppelin/contracts/utils/Base64.sol\":2849:2854  input */\n      dup2\n        /* \"@openzeppelin/contracts/utils/Base64.sol\":2846:2847  6 */\n      0x06\n        /* \"@openzeppelin/contracts/utils/Base64.sol\":2842:2855  shr(6, input) */\n      shr\n        /* \"@openzeppelin/contracts/utils/Base64.sol\":2838:2862  and(shr(6, input), 0x3F) */\n      and\n        /* \"@openzeppelin/contracts/utils/Base64.sol\":2828:2836  tablePtr */\n      dup6\n        /* \"@openzeppelin/contracts/utils/Base64.sol\":2824:2863  add(tablePtr, and(shr(6, input), 0x3F)) */\n      add\n        /* \"@openzeppelin/contracts/utils/Base64.sol\":2818:2864  mload(add(tablePtr, and(shr(6, input), 0x3F))) */\n      mload\n        /* \"@openzeppelin/contracts/utils/Base64.sol\":2807:2816  resultPtr */\n      dup5\n        /* \"@openzeppelin/contracts/utils/Base64.sol\":2799:2865  mstore8(resultPtr, mload(add(tablePtr, and(shr(6, input), 0x3F)))) */\n      mstore8\n        /* \"@openzeppelin/contracts/utils/Base64.sol\":2910:2911  1 */\n      0x01\n        /* \"@openzeppelin/contracts/utils/Base64.sol\":2899:2908  resultPtr */\n      dup5\n        /* \"@openzeppelin/contracts/utils/Base64.sol\":2895:2912  add(resultPtr, 1) */\n      add\n        /* \"@openzeppelin/contracts/utils/Base64.sol\":2882:2912  resultPtr := add(resultPtr, 1) */\n      swap4\n      pop\n        /* \"@openzeppelin/contracts/utils/Base64.sol\":2991:2995  0x3F */\n      0x3f\n        /* \"@openzeppelin/contracts/utils/Base64.sol\":2984:2989  input */\n      dup2\n        /* \"@openzeppelin/contracts/utils/Base64.sol\":2980:2996  and(input, 0x3F) */\n      and\n        /* \"@openzeppelin/contracts/utils/Base64.sol\":2970:2978  tablePtr */\n      dup6\n        /* \"@openzeppelin/contracts/utils/Base64.sol\":2966:2997  add(tablePtr, and(input, 0x3F)) */\n      add\n        /* \"@openzeppelin/contracts/utils/Base64.sol\":2960:2998  mload(add(tablePtr, and(input, 0x3F))) */\n      mload\n        /* \"@openzeppelin/contracts/utils/Base64.sol\":2949:2958  resultPtr */\n      dup5\n        /* \"@openzeppelin/contracts/utils/Base64.sol\":2941:2999  mstore8(resultPtr, mload(add(tablePtr, and(input, 0x3F)))) */\n      mstore8\n      pop\n        /* \"@openzeppelin/contracts/utils/Base64.sol\":3044:3045  1 */\n      0x01\n        /* \"@openzeppelin/contracts/utils/Base64.sol\":3033:3042  resultPtr */\n      dup4\n        /* \"@openzeppelin/contracts/utils/Base64.sol\":3029:3046  add(resultPtr, 1) */\n      add\n        /* \"@openzeppelin/contracts/utils/Base64.sol\":3016:3046  resultPtr := add(resultPtr, 1) */\n      swap3\n      pop\n        /* \"@openzeppelin/contracts/utils/Base64.sol\":1668:3071  for {... */\n      jump(tag_103)\n    tag_105:\n        /* \"@openzeppelin/contracts/utils/Base64.sol\":1672:1776  {... */\n      pop\n      pop\n        /* \"@openzeppelin/contracts/utils/Base64.sol\":3229:3230  3 */\n      0x03\n        /* \"@openzeppelin/contracts/utils/Base64.sol\":3222:3226  data */\n      dup7\n        /* \"@openzeppelin/contracts/utils/Base64.sol\":3216:3227  mload(data) */\n      mload\n        /* \"@openzeppelin/contracts/utils/Base64.sol\":3212:3231  mod(mload(data), 3) */\n      mod\n        /* \"@openzeppelin/contracts/utils/Base64.sol\":3249:3250  1 */\n      0x01\n        /* \"@openzeppelin/contracts/utils/Base64.sol\":3244:3364  case 1 {... */\n      dup2\n      eq\n      tag_107\n      jumpi\n        /* \"@openzeppelin/contracts/utils/Base64.sol\":3382:3383  2 */\n      0x02\n        /* \"@openzeppelin/contracts/utils/Base64.sol\":3377:3448  case 2 {... */\n      dup2\n      eq\n      tag_108\n      jumpi\n        /* \"@openzeppelin/contracts/utils/Base64.sol\":3205:3448  switch mod(mload(data), 3)... */\n      jump(tag_106)\n        /* \"@openzeppelin/contracts/utils/Base64.sol\":3244:3364  case 1 {... */\n    tag_107:\n        /* \"@openzeppelin/contracts/utils/Base64.sol\":3296:3300  0x3d */\n      0x3d\n        /* \"@openzeppelin/contracts/utils/Base64.sol\":3292:3293  1 */\n      0x01\n        /* \"@openzeppelin/contracts/utils/Base64.sol\":3281:3290  resultPtr */\n      dup4\n        /* \"@openzeppelin/contracts/utils/Base64.sol\":3277:3294  sub(resultPtr, 1) */\n      sub\n        /* \"@openzeppelin/contracts/utils/Base64.sol\":3269:3301  mstore8(sub(resultPtr, 1), 0x3d) */\n      mstore8\n        /* \"@openzeppelin/contracts/utils/Base64.sol\":3345:3349  0x3d */\n      0x3d\n        /* \"@openzeppelin/contracts/utils/Base64.sol\":3341:3342  2 */\n      0x02\n        /* \"@openzeppelin/contracts/utils/Base64.sol\":3330:3339  resultPtr */\n      dup4\n        /* \"@openzeppelin/contracts/utils/Base64.sol\":3326:3343  sub(resultPtr, 2) */\n      sub\n        /* \"@openzeppelin/contracts/utils/Base64.sol\":3318:3350  mstore8(sub(resultPtr, 2), 0x3d) */\n      mstore8\n        /* \"@openzeppelin/contracts/utils/Base64.sol\":3244:3364  case 1 {... */\n      jump(tag_106)\n        /* \"@openzeppelin/contracts/utils/Base64.sol\":3377:3448  case 2 {... */\n    tag_108:\n        /* \"@openzeppelin/contracts/utils/Base64.sol\":3429:3433  0x3d */\n      0x3d\n        /* \"@openzeppelin/contracts/utils/Base64.sol\":3425:3426  1 */\n      0x01\n        /* \"@openzeppelin/contracts/utils/Base64.sol\":3414:3423  resultPtr */\n      dup4\n        /* \"@openzeppelin/contracts/utils/Base64.sol\":3410:3427  sub(resultPtr, 1) */\n      sub\n        /* \"@openzeppelin/contracts/utils/Base64.sol\":3402:3434  mstore8(sub(resultPtr, 1), 0x3d) */\n      mstore8\n        /* \"@openzeppelin/contracts/utils/Base64.sol\":3205:3448  switch mod(mload(data), 3)... */\n    tag_106:\n      pop\n        /* \"@openzeppelin/contracts/utils/Base64.sol\":3475:3481  result */\n      swap2\n      swap6\n        /* \"@openzeppelin/contracts/utils/Base64.sol\":505:3488  function encode(bytes memory data) internal pure returns (string memory) {... */\n      swap5\n      pop\n      pop\n      pop\n      pop\n      pop\n      jump\t// out\n        /* \"@openzeppelin/contracts/utils/Strings.sol\":1588:2029  function toHexString(uint256 value, uint256 length) internal pure returns (string memory) {... */\n    tag_83:\n        /* \"@openzeppelin/contracts/utils/Strings.sol\":1663:1676  string memory */\n      0x60\n        /* \"@openzeppelin/contracts/utils/Strings.sol\":1688:1707  bytes memory buffer */\n      0x00\n        /* \"@openzeppelin/contracts/utils/Strings.sol\":1720:1730  2 * length */\n      tag_110\n        /* \"@openzeppelin/contracts/utils/Strings.sol\":1724:1730  length */\n      dup4\n        /* \"@openzeppelin/contracts/utils/Strings.sol\":1720:1721  2 */\n      0x02\n        /* \"@openzeppelin/contracts/utils/Strings.sol\":1720:1730  2 * length */\n      tag_98\n      jump\t// in\n    tag_110:\n        /* \"@openzeppelin/contracts/utils/Strings.sol\":1720:1734  2 * length + 2 */\n      tag_111\n      swap1\n        /* \"@openzeppelin/contracts/utils/Strings.sol\":1733:1734  2 */\n      0x02\n        /* \"@openzeppelin/contracts/utils/Strings.sol\":1720:1734  2 * length + 2 */\n      tag_94\n      jump\t// in\n    tag_111:\n      sub(shl(0x40, 0x01), 0x01)\n        /* \"@openzeppelin/contracts/utils/Strings.sol\":1710:1735  new bytes(2 * length + 2) */\n      dup2\n      gt\n      iszero\n      tag_113\n      jumpi\n      tag_113\n      tag_101\n      jump\t// in\n    tag_113:\n      mload(0x40)\n      swap1\n      dup1\n      dup3\n      mstore\n      dup1\n      0x1f\n      add\n      not(0x1f)\n      and\n      0x20\n      add\n      dup3\n      add\n      0x40\n      mstore\n      dup1\n      iszero\n      tag_114\n      jumpi\n      0x20\n      dup3\n      add\n      dup2\n      dup1\n      calldatasize\n      dup4\n      calldatacopy\n      add\n      swap1\n      pop\n    tag_114:\n      pop\n        /* \"@openzeppelin/contracts/utils/Strings.sol\":1688:1735  bytes memory buffer = new bytes(2 * length + 2) */\n      swap1\n      pop\n      shl(0xfc, 0x03)\n        /* \"@openzeppelin/contracts/utils/Strings.sol\":1745:1751  buffer */\n      dup2\n        /* \"@openzeppelin/contracts/utils/Strings.sol\":1752:1753  0 */\n      0x00\n        /* \"@openzeppelin/contracts/utils/Strings.sol\":1745:1754  buffer[0] */\n      dup2\n      mload\n      dup2\n      lt\n      tag_116\n      jumpi\n      tag_116\n      tag_39\n      jump\t// in\n    tag_116:\n      0x20\n      add\n      add\n        /* \"@openzeppelin/contracts/utils/Strings.sol\":1745:1760  buffer[0] = \"0\" */\n      swap1\n      not(sub(shl(0xf8, 0x01), 0x01))\n      and\n      swap1\n      dup2\n      0x00\n      byte\n      swap1\n      mstore8\n      pop\n      shl(0xfb, 0x0f)\n        /* \"@openzeppelin/contracts/utils/Strings.sol\":1770:1776  buffer */\n      dup2\n        /* \"@openzeppelin/contracts/utils/Strings.sol\":1777:1778  1 */\n      0x01\n        /* \"@openzeppelin/contracts/utils/Strings.sol\":1770:1779  buffer[1] */\n      dup2\n      mload\n      dup2\n      lt\n      tag_118\n      jumpi\n      tag_118\n      tag_39\n      jump\t// in\n    tag_118:\n      0x20\n      add\n      add\n        /* \"@openzeppelin/contracts/utils/Strings.sol\":1770:1785  buffer[1] = \"x\" */\n      swap1\n      not(sub(shl(0xf8, 0x01), 0x01))\n      and\n      swap1\n      dup2\n      0x00\n      byte\n      swap1\n      mstore8\n      pop\n        /* \"@openzeppelin/contracts/utils/Strings.sol\":1800:1809  uint256 i */\n      0x00\n        /* \"@openzeppelin/contracts/utils/Strings.sol\":1812:1822  2 * length */\n      tag_122\n        /* \"@openzeppelin/contracts/utils/Strings.sol\":1816:1822  length */\n      dup5\n        /* \"@openzeppelin/contracts/utils/Strings.sol\":1812:1813  2 */\n      0x02\n        /* \"@openzeppelin/contracts/utils/Strings.sol\":1812:1822  2 * length */\n      tag_98\n      jump\t// in\n    tag_122:\n        /* \"@openzeppelin/contracts/utils/Strings.sol\":1812:1826  2 * length + 1 */\n      tag_123\n      swap1\n        /* \"@openzeppelin/contracts/utils/Strings.sol\":1825:1826  1 */\n      0x01\n        /* \"@openzeppelin/contracts/utils/Strings.sol\":1812:1826  2 * length + 1 */\n      tag_94\n      jump\t// in\n    tag_123:\n        /* \"@openzeppelin/contracts/utils/Strings.sol\":1800:1826  uint256 i = 2 * length + 1 */\n      swap1\n      pop\n        /* \"@openzeppelin/contracts/utils/Strings.sol\":1795:1927  for (uint256 i = 2 * length + 1; i > 1; --i) {... */\n    tag_119:\n        /* \"@openzeppelin/contracts/utils/Strings.sol\":1832:1833  1 */\n      0x01\n        /* \"@openzeppelin/contracts/utils/Strings.sol\":1828:1829  i */\n      dup2\n        /* \"@openzeppelin/contracts/utils/Strings.sol\":1828:1833  i > 1 */\n      gt\n        /* \"@openzeppelin/contracts/utils/Strings.sol\":1795:1927  for (uint256 i = 2 * length + 1; i > 1; --i) {... */\n      iszero\n      tag_120\n      jumpi\n      shl(0x81, 0x181899199a1a9b1b9c1cb0b131b232b3)\n        /* \"@openzeppelin/contracts/utils/Strings.sol\":1879:1884  value */\n      dup6\n        /* \"@openzeppelin/contracts/utils/Strings.sol\":1887:1890  0xf */\n      0x0f\n        /* \"@openzeppelin/contracts/utils/Strings.sol\":1879:1890  value & 0xf */\n      and\n        /* \"@openzeppelin/contracts/utils/Strings.sol\":1866:1891  _HEX_SYMBOLS[value & 0xf] */\n      0x10\n      dup2\n      lt\n      tag_125\n      jumpi\n      tag_125\n      tag_39\n      jump\t// in\n    tag_125:\n      byte\n      0xf8\n      shl\n        /* \"@openzeppelin/contracts/utils/Strings.sol\":1854:1860  buffer */\n      dup3\n        /* \"@openzeppelin/contracts/utils/Strings.sol\":1861:1862  i */\n      dup3\n        /* \"@openzeppelin/contracts/utils/Strings.sol\":1854:1863  buffer[i] */\n      dup2\n      mload\n      dup2\n      lt\n      tag_127\n      jumpi\n      tag_127\n      tag_39\n      jump\t// in\n    tag_127:\n      0x20\n      add\n      add\n        /* \"@openzeppelin/contracts/utils/Strings.sol\":1854:1891  buffer[i] = _HEX_SYMBOLS[value & 0xf] */\n      swap1\n      not(sub(shl(0xf8, 0x01), 0x01))\n      and\n      swap1\n      dup2\n      0x00\n      byte\n      swap1\n      mstore8\n      pop\n        /* \"@openzeppelin/contracts/utils/Strings.sol\":1915:1916  4 */\n      0x04\n        /* \"@openzeppelin/contracts/utils/Strings.sol\":1905:1916  value >>= 4 */\n      swap5\n      swap1\n      swap5\n      shr\n      swap4\n        /* \"@openzeppelin/contracts/utils/Strings.sol\":1835:1838  --i */\n      tag_128\n      dup2\n      tag_129\n      jump\t// in\n    tag_128:\n      swap1\n      pop\n        /* \"@openzeppelin/contracts/utils/Strings.sol\":1795:1927  for (uint256 i = 2 * length + 1; i > 1; --i) {... */\n      jump(tag_119)\n    tag_120:\n      pop\n        /* \"@openzeppelin/contracts/utils/Strings.sol\":1944:1954  value == 0 */\n      dup4\n      iszero\n        /* \"@openzeppelin/contracts/utils/Strings.sol\":1936:1991  require(value == 0, \"Strings: hex length insufficient\") */\n      tag_130\n      jumpi\n      mload(0x40)\n      shl(0xe5, 0x461bcd)\n      dup2\n      mstore\n        /* \"#utility.yul\":19765:19767   */\n      0x20\n        /* \"@openzeppelin/contracts/utils/Strings.sol\":1936:1991  require(value == 0, \"Strings: hex length insufficient\") */\n      0x04\n      dup3\n      add\n        /* \"#utility.yul\":19747:19768   */\n      dup2\n      swap1\n      mstore\n        /* \"#utility.yul\":19784:19802   */\n      0x24\n      dup3\n      add\n        /* \"#utility.yul\":19777:19807   */\n      mstore\n        /* \"#utility.yul\":19843:19877   */\n      0x537472696e67733a20686578206c656e67746820696e73756666696369656e74\n        /* \"#utility.yul\":19823:19841   */\n      0x44\n      dup3\n      add\n        /* \"#utility.yul\":19816:19878   */\n      mstore\n        /* \"#utility.yul\":19895:19913   */\n      0x64\n      add\n        /* \"@openzeppelin/contracts/utils/Strings.sol\":1936:1991  require(value == 0, \"Strings: hex length insufficient\") */\n      mload(0x40)\n      dup1\n      swap2\n      sub\n      swap1\n      revert\n    tag_130:\n        /* \"@openzeppelin/contracts/utils/Strings.sol\":2015:2021  buffer */\n      swap4\n        /* \"@openzeppelin/contracts/utils/Strings.sol\":1588:2029  function toHexString(uint256 value, uint256 length) internal pure returns (string memory) {... */\n      swap3\n      pop\n      pop\n      pop\n      jump\t// out\n        /* \"@openzeppelin/contracts/utils/Strings.sol\":328:1031  function toString(uint256 value) internal pure returns (string memory) {... */\n    tag_85:\n        /* \"@openzeppelin/contracts/utils/Strings.sol\":384:397  string memory */\n      0x60\n        /* \"@openzeppelin/contracts/utils/Strings.sol\":601:611  value == 0 */\n      dup2\n        /* \"@openzeppelin/contracts/utils/Strings.sol\":597:648  if (value == 0) {... */\n      tag_134\n      jumpi\n      pop\n      pop\n        /* \"@openzeppelin/contracts/utils/Strings.sol\":627:637  return \"0\" */\n      0x40\n      dup1\n      mload\n      dup1\n      dup3\n      add\n      swap1\n      swap2\n      mstore\n      0x01\n      dup2\n      mstore\n      shl(0xfc, 0x03)\n      0x20\n      dup3\n      add\n      mstore\n      swap1\n        /* \"@openzeppelin/contracts/utils/Strings.sol\":328:1031  function toString(uint256 value) internal pure returns (string memory) {... */\n      jump\t// out\n        /* \"@openzeppelin/contracts/utils/Strings.sol\":597:648  if (value == 0) {... */\n    tag_134:\n        /* \"@openzeppelin/contracts/utils/Strings.sol\":672:677  value */\n      dup2\n        /* \"@openzeppelin/contracts/utils/Strings.sol\":657:669  uint256 temp */\n      0x00\n        /* \"@openzeppelin/contracts/utils/Strings.sol\":711:786  while (temp != 0) {... */\n    tag_135:\n        /* \"@openzeppelin/contracts/utils/Strings.sol\":718:727  temp != 0 */\n      dup2\n      iszero\n        /* \"@openzeppelin/contracts/utils/Strings.sol\":711:786  while (temp != 0) {... */\n      tag_136\n      jumpi\n        /* \"@openzeppelin/contracts/utils/Strings.sol\":743:751  digits++ */\n      dup1\n      tag_137\n      dup2\n      tag_138\n      jump\t// in\n    tag_137:\n      swap2\n      pop\n        /* \"@openzeppelin/contracts/utils/Strings.sol\":765:775  temp /= 10 */\n      tag_139\n      swap1\n      pop\n        /* \"@openzeppelin/contracts/utils/Strings.sol\":773:775  10 */\n      0x0a\n        /* \"@openzeppelin/contracts/utils/Strings.sol\":765:775  temp /= 10 */\n      dup4\n      tag_96\n      jump\t// in\n    tag_139:\n      swap2\n      pop\n        /* \"@openzeppelin/contracts/utils/Strings.sol\":711:786  while (temp != 0) {... */\n      jump(tag_135)\n    tag_136:\n        /* \"@openzeppelin/contracts/utils/Strings.sol\":795:814  bytes memory buffer */\n      0x00\n        /* \"@openzeppelin/contracts/utils/Strings.sol\":827:833  digits */\n      dup2\n      sub(shl(0x40, 0x01), 0x01)\n        /* \"@openzeppelin/contracts/utils/Strings.sol\":817:834  new bytes(digits) */\n      dup2\n      gt\n      iszero\n      tag_141\n      jumpi\n      tag_141\n      tag_101\n      jump\t// in\n    tag_141:\n      mload(0x40)\n      swap1\n      dup1\n      dup3\n      mstore\n      dup1\n      0x1f\n      add\n      not(0x1f)\n      and\n      0x20\n      add\n      dup3\n      add\n      0x40\n      mstore\n      dup1\n      iszero\n      tag_142\n      jumpi\n      0x20\n      dup3\n      add\n      dup2\n      dup1\n      calldatasize\n      dup4\n      calldatacopy\n      add\n      swap1\n      pop\n    tag_142:\n      pop\n        /* \"@openzeppelin/contracts/utils/Strings.sol\":795:834  bytes memory buffer = new bytes(digits) */\n      swap1\n      pop\n        /* \"@openzeppelin/contracts/utils/Strings.sol\":844:994  while (value != 0) {... */\n    tag_143:\n        /* \"@openzeppelin/contracts/utils/Strings.sol\":851:861  value != 0 */\n      dup5\n      iszero\n        /* \"@openzeppelin/contracts/utils/Strings.sol\":844:994  while (value != 0) {... */\n      tag_144\n      jumpi\n        /* \"@openzeppelin/contracts/utils/Strings.sol\":877:888  digits -= 1 */\n      tag_145\n        /* \"@openzeppelin/contracts/utils/Strings.sol\":887:888  1 */\n      0x01\n        /* \"@openzeppelin/contracts/utils/Strings.sol\":877:888  digits -= 1 */\n      dup4\n      tag_146\n      jump\t// in\n    tag_145:\n      swap2\n      pop\n        /* \"@openzeppelin/contracts/utils/Strings.sol\":945:955  value % 10 */\n      tag_147\n        /* \"@openzeppelin/contracts/utils/Strings.sol\":953:955  10 */\n      0x0a\n        /* \"@openzeppelin/contracts/utils/Strings.sol\":945:950  value */\n      dup7\n        /* \"@openzeppelin/contracts/utils/Strings.sol\":945:955  value % 10 */\n      tag_148\n      jump\t// in\n    tag_147:\n        /* \"@openzeppelin/contracts/utils/Strings.sol\":932:956  48 + uint256(value % 10) */\n      tag_149\n      swap1\n        /* \"@openzeppelin/contracts/utils/Strings.sol\":932:934  48 */\n      0x30\n        /* \"@openzeppelin/contracts/utils/Strings.sol\":932:956  48 + uint256(value % 10) */\n      tag_94\n      jump\t// in\n    tag_149:\n        /* \"@openzeppelin/contracts/utils/Strings.sol\":919:958  bytes1(uint8(48 + uint256(value % 10))) */\n      0xf8\n      shl\n        /* \"@openzeppelin/contracts/utils/Strings.sol\":902:908  buffer */\n      dup2\n        /* \"@openzeppelin/contracts/utils/Strings.sol\":909:915  digits */\n      dup4\n        /* \"@openzeppelin/contracts/utils/Strings.sol\":902:916  buffer[digits] */\n      dup2\n      mload\n      dup2\n      lt\n      tag_151\n      jumpi\n      tag_151\n      tag_39\n      jump\t// in\n    tag_151:\n      0x20\n      add\n      add\n        /* \"@openzeppelin/contracts/utils/Strings.sol\":902:958  buffer[digits] = bytes1(uint8(48 + uint256(value % 10))) */\n      swap1\n      not(sub(shl(0xf8, 0x01), 0x01))\n      and\n      swap1\n      dup2\n      0x00\n      byte\n      swap1\n      mstore8\n      pop\n        /* \"@openzeppelin/contracts/utils/Strings.sol\":972:983  value /= 10 */\n      tag_152\n        /* \"@openzeppelin/contracts/utils/Strings.sol\":981:983  10 */\n      0x0a\n        /* \"@openzeppelin/contracts/utils/Strings.sol\":972:983  value /= 10 */\n      dup7\n      tag_96\n      jump\t// in\n    tag_152:\n      swap5\n      pop\n        /* \"@openzeppelin/contracts/utils/Strings.sol\":844:994  while (value != 0) {... */\n      jump(tag_143)\n    tag_144:\n        /* \"@openzeppelin/contracts/utils/Strings.sol\":1017:1023  buffer */\n      swap5\n        /* \"@openzeppelin/contracts/utils/Strings.sol\":328:1031  function toString(uint256 value) internal pure returns (string memory) {... */\n      swap4\n      pop\n      pop\n      pop\n      pop\n      jump\t// out\n        /* \"#utility.yul\":14:187   */\n    tag_154:\n        /* \"#utility.yul\":82:102   */\n      dup1\n      calldataload\n      sub(shl(0xa0, 0x01), 0x01)\n        /* \"#utility.yul\":131:162   */\n      dup2\n      and\n        /* \"#utility.yul\":121:163   */\n      dup2\n      eq\n        /* \"#utility.yul\":111:181   */\n      tag_156\n      jumpi\n        /* \"#utility.yul\":177:178   */\n      0x00\n        /* \"#utility.yul\":174:175   */\n      dup1\n        /* \"#utility.yul\":167:179   */\n      revert\n        /* \"#utility.yul\":111:181   */\n    tag_156:\n        /* \"#utility.yul\":14:187   */\n      swap2\n      swap1\n      pop\n      jump\t// out\n        /* \"#utility.yul\":192:1053   */\n    tag_157:\n        /* \"#utility.yul\":241:246   */\n      0x00\n        /* \"#utility.yul\":294:297   */\n      dup3\n        /* \"#utility.yul\":287:291   */\n      0x1f\n        /* \"#utility.yul\":279:285   */\n      dup4\n        /* \"#utility.yul\":275:292   */\n      add\n        /* \"#utility.yul\":271:298   */\n      slt\n        /* \"#utility.yul\":261:316   */\n      tag_159\n      jumpi\n        /* \"#utility.yul\":312:313   */\n      0x00\n        /* \"#utility.yul\":309:310   */\n      dup1\n        /* \"#utility.yul\":302:314   */\n      revert\n        /* \"#utility.yul\":261:316   */\n    tag_159:\n        /* \"#utility.yul\":345:347   */\n      0x40\n        /* \"#utility.yul\":339:348   */\n      mload\n        /* \"#utility.yul\":387:389   */\n      0x40\n        /* \"#utility.yul\":379:385   */\n      dup2\n        /* \"#utility.yul\":375:390   */\n      add\n      sub(shl(0x40, 0x01), 0x01)\n        /* \"#utility.yul\":477:483   */\n      dup3\n        /* \"#utility.yul\":465:475   */\n      dup3\n        /* \"#utility.yul\":462:484   */\n      lt\n        /* \"#utility.yul\":457:459   */\n      dup2\n        /* \"#utility.yul\":445:455   */\n      dup4\n        /* \"#utility.yul\":442:460   */\n      gt\n        /* \"#utility.yul\":439:485   */\n      or\n        /* \"#utility.yul\":436:508   */\n      iszero\n      tag_161\n      jumpi\n        /* \"#utility.yul\":488:506   */\n      tag_161\n      tag_101\n      jump\t// in\n    tag_161:\n        /* \"#utility.yul\":528:538   */\n      dup2\n        /* \"#utility.yul\":524:526   */\n      0x40\n        /* \"#utility.yul\":517:539   */\n      mstore\n        /* \"#utility.yul\":559:565   */\n      dup3\n        /* \"#utility.yul\":548:565   */\n      swap2\n      pop\n        /* \"#utility.yul\":585:591   */\n      dup5\n        /* \"#utility.yul\":623:626   */\n      dup7\n        /* \"#utility.yul\":618:620   */\n      0x40\n        /* \"#utility.yul\":610:616   */\n      dup8\n        /* \"#utility.yul\":606:621   */\n      add\n        /* \"#utility.yul\":603:627   */\n      gt\n        /* \"#utility.yul\":600:644   */\n      iszero\n      tag_162\n      jumpi\n        /* \"#utility.yul\":640:641   */\n      0x00\n        /* \"#utility.yul\":637:638   */\n      dup1\n        /* \"#utility.yul\":630:642   */\n      revert\n        /* \"#utility.yul\":600:644   */\n    tag_162:\n        /* \"#utility.yul\":662:663   */\n      0x00\n        /* \"#utility.yul\":683:684   */\n      dup1\n        /* \"#utility.yul\":693:1023   */\n    tag_163:\n        /* \"#utility.yul\":709:713   */\n      0x02\n        /* \"#utility.yul\":704:707   */\n      dup2\n        /* \"#utility.yul\":701:714   */\n      lt\n        /* \"#utility.yul\":693:1023   */\n      iszero\n      tag_165\n      jumpi\n        /* \"#utility.yul\":792:795   */\n      dup3\n        /* \"#utility.yul\":779:796   */\n      calldataload\n        /* \"#utility.yul\":828:830   */\n      dup5\n        /* \"#utility.yul\":815:826   */\n      dup2\n        /* \"#utility.yul\":812:831   */\n      gt\n        /* \"#utility.yul\":809:848   */\n      iszero\n      tag_166\n      jumpi\n        /* \"#utility.yul\":844:845   */\n      dup3\n        /* \"#utility.yul\":841:842   */\n      dup4\n        /* \"#utility.yul\":834:846   */\n      revert\n        /* \"#utility.yul\":809:848   */\n    tag_166:\n        /* \"#utility.yul\":873:921   */\n      tag_167\n        /* \"#utility.yul\":917:920   */\n      dup11\n        /* \"#utility.yul\":903:914   */\n      dup3\n        /* \"#utility.yul\":895:901   */\n      dup12\n        /* \"#utility.yul\":891:915   */\n      add\n        /* \"#utility.yul\":873:921   */\n      tag_168\n      jump\t// in\n    tag_167:\n        /* \"#utility.yul\":861:922   */\n      dup7\n      mstore\n      pop\n        /* \"#utility.yul\":945:949   */\n      0x20\n        /* \"#utility.yul\":969:981   */\n      swap5\n      dup6\n      add\n      swap5\n        /* \"#utility.yul\":1001:1013   */\n      swap3\n      swap1\n      swap3\n      add\n      swap2\n        /* \"#utility.yul\":733:734   */\n      0x01\n        /* \"#utility.yul\":724:735   */\n      add\n        /* \"#utility.yul\":693:1023   */\n      jump(tag_163)\n    tag_165:\n      pop\n        /* \"#utility.yul\":1041:1047   */\n      swap4\n      swap8\n        /* \"#utility.yul\":192:1053   */\n      swap7\n      pop\n      pop\n      pop\n      pop\n      pop\n      pop\n      pop\n      jump\t// out\n        /* \"#utility.yul\":1058:1777   */\n    tag_168:\n        /* \"#utility.yul\":1101:1106   */\n      0x00\n        /* \"#utility.yul\":1154:1157   */\n      dup3\n        /* \"#utility.yul\":1147:1151   */\n      0x1f\n        /* \"#utility.yul\":1139:1145   */\n      dup4\n        /* \"#utility.yul\":1135:1152   */\n      add\n        /* \"#utility.yul\":1131:1158   */\n      slt\n        /* \"#utility.yul\":1121:1176   */\n      tag_170\n      jumpi\n        /* \"#utility.yul\":1172:1173   */\n      0x00\n        /* \"#utility.yul\":1169:1170   */\n      dup1\n        /* \"#utility.yul\":1162:1174   */\n      revert\n        /* \"#utility.yul\":1121:1176   */\n    tag_170:\n        /* \"#utility.yul\":1208:1214   */\n      dup2\n        /* \"#utility.yul\":1195:1215   */\n      calldataload\n      sub(shl(0x40, 0x01), 0x01)\n        /* \"#utility.yul\":1271:1273   */\n      dup1\n        /* \"#utility.yul\":1267:1269   */\n      dup3\n        /* \"#utility.yul\":1264:1274   */\n      gt\n        /* \"#utility.yul\":1261:1297   */\n      iszero\n      tag_172\n      jumpi\n        /* \"#utility.yul\":1277:1295   */\n      tag_172\n      tag_101\n      jump\t// in\n    tag_172:\n        /* \"#utility.yul\":1352:1354   */\n      0x40\n        /* \"#utility.yul\":1346:1355   */\n      mload\n        /* \"#utility.yul\":1320:1322   */\n      0x1f\n        /* \"#utility.yul\":1406:1419   */\n      dup4\n      add\n      not(0x1f)\n        /* \"#utility.yul\":1402:1424   */\n      swap1\n      dup2\n      and\n        /* \"#utility.yul\":1426:1428   */\n      0x3f\n        /* \"#utility.yul\":1398:1429   */\n      add\n        /* \"#utility.yul\":1394:1434   */\n      and\n        /* \"#utility.yul\":1382:1435   */\n      dup2\n      add\n      swap1\n        /* \"#utility.yul\":1450:1468   */\n      dup3\n      dup3\n      gt\n        /* \"#utility.yul\":1470:1492   */\n      dup2\n      dup4\n      lt\n        /* \"#utility.yul\":1447:1493   */\n      or\n        /* \"#utility.yul\":1444:1516   */\n      iszero\n      tag_174\n      jumpi\n        /* \"#utility.yul\":1496:1514   */\n      tag_174\n      tag_101\n      jump\t// in\n    tag_174:\n        /* \"#utility.yul\":1536:1546   */\n      dup2\n        /* \"#utility.yul\":1532:1534   */\n      0x40\n        /* \"#utility.yul\":1525:1547   */\n      mstore\n        /* \"#utility.yul\":1571:1573   */\n      dup4\n        /* \"#utility.yul\":1563:1569   */\n      dup2\n        /* \"#utility.yul\":1556:1574   */\n      mstore\n        /* \"#utility.yul\":1617:1620   */\n      dup7\n        /* \"#utility.yul\":1610:1614   */\n      0x20\n        /* \"#utility.yul\":1605:1607   */\n      dup6\n        /* \"#utility.yul\":1597:1603   */\n      dup9\n        /* \"#utility.yul\":1593:1608   */\n      add\n        /* \"#utility.yul\":1589:1615   */\n      add\n        /* \"#utility.yul\":1586:1621   */\n      gt\n        /* \"#utility.yul\":1583:1638   */\n      iszero\n      tag_175\n      jumpi\n        /* \"#utility.yul\":1634:1635   */\n      0x00\n        /* \"#utility.yul\":1631:1632   */\n      dup1\n        /* \"#utility.yul\":1624:1636   */\n      revert\n        /* \"#utility.yul\":1583:1638   */\n    tag_175:\n        /* \"#utility.yul\":1698:1700   */\n      dup4\n        /* \"#utility.yul\":1691:1695   */\n      0x20\n        /* \"#utility.yul\":1683:1689   */\n      dup8\n        /* \"#utility.yul\":1679:1696   */\n      add\n        /* \"#utility.yul\":1672:1676   */\n      0x20\n        /* \"#utility.yul\":1664:1670   */\n      dup4\n        /* \"#utility.yul\":1660:1677   */\n      add\n        /* \"#utility.yul\":1647:1701   */\n      calldatacopy\n        /* \"#utility.yul\":1745:1746   */\n      0x00\n        /* \"#utility.yul\":1738:1742   */\n      0x20\n        /* \"#utility.yul\":1733:1735   */\n      dup6\n        /* \"#utility.yul\":1725:1731   */\n      dup4\n        /* \"#utility.yul\":1721:1736   */\n      add\n        /* \"#utility.yul\":1717:1743   */\n      add\n        /* \"#utility.yul\":1710:1747   */\n      mstore\n        /* \"#utility.yul\":1765:1771   */\n      dup1\n        /* \"#utility.yul\":1756:1771   */\n      swap5\n      pop\n      pop\n      pop\n      pop\n      pop\n        /* \"#utility.yul\":1058:1777   */\n      swap3\n      swap2\n      pop\n      pop\n      jump\t// out\n        /* \"#utility.yul\":1782:3872   */\n    tag_176:\n        /* \"#utility.yul\":1840:1845   */\n      0x00\n        /* \"#utility.yul\":1888:1894   */\n      0x0140\n        /* \"#utility.yul\":1876:1885   */\n      dup3\n        /* \"#utility.yul\":1871:1874   */\n      dup5\n        /* \"#utility.yul\":1867:1886   */\n      sub\n        /* \"#utility.yul\":1863:1895   */\n      slt\n        /* \"#utility.yul\":1860:1912   */\n      iszero\n      tag_178\n      jumpi\n        /* \"#utility.yul\":1908:1909   */\n      0x00\n        /* \"#utility.yul\":1905:1906   */\n      dup1\n        /* \"#utility.yul\":1898:1910   */\n      revert\n        /* \"#utility.yul\":1860:1912   */\n    tag_178:\n        /* \"#utility.yul\":1930:1947   */\n      tag_179\n      tag_180\n      jump\t// in\n    tag_179:\n        /* \"#utility.yul\":1921:1947   */\n      swap1\n      pop\n        /* \"#utility.yul\":1983:1992   */\n      dup2\n        /* \"#utility.yul\":1970:1993   */\n      calldataload\n      sub(shl(0x40, 0x01), 0x01)\n        /* \"#utility.yul\":2053:2055   */\n      dup1\n        /* \"#utility.yul\":2045:2051   */\n      dup3\n        /* \"#utility.yul\":2042:2056   */\n      gt\n        /* \"#utility.yul\":2039:2073   */\n      iszero\n      tag_181\n      jumpi\n        /* \"#utility.yul\":2069:2070   */\n      0x00\n        /* \"#utility.yul\":2066:2067   */\n      dup1\n        /* \"#utility.yul\":2059:2071   */\n      revert\n        /* \"#utility.yul\":2039:2073   */\n    tag_181:\n        /* \"#utility.yul\":2096:2148   */\n      tag_182\n        /* \"#utility.yul\":2144:2147   */\n      dup6\n        /* \"#utility.yul\":2135:2141   */\n      dup4\n        /* \"#utility.yul\":2124:2133   */\n      dup7\n        /* \"#utility.yul\":2120:2142   */\n      add\n        /* \"#utility.yul\":2096:2148   */\n      tag_157\n      jump\t// in\n    tag_182:\n        /* \"#utility.yul\":2089:2094   */\n      dup4\n        /* \"#utility.yul\":2082:2149   */\n      mstore\n        /* \"#utility.yul\":2202:2204   */\n      0x20\n        /* \"#utility.yul\":2191:2200   */\n      dup5\n        /* \"#utility.yul\":2187:2205   */\n      add\n        /* \"#utility.yul\":2174:2206   */\n      calldataload\n        /* \"#utility.yul\":2158:2206   */\n      swap2\n      pop\n        /* \"#utility.yul\":2231:2233   */\n      dup1\n        /* \"#utility.yul\":2221:2229   */\n      dup3\n        /* \"#utility.yul\":2218:2234   */\n      gt\n        /* \"#utility.yul\":2215:2251   */\n      iszero\n      tag_183\n      jumpi\n        /* \"#utility.yul\":2247:2248   */\n      0x00\n        /* \"#utility.yul\":2244:2245   */\n      dup1\n        /* \"#utility.yul\":2237:2249   */\n      revert\n        /* \"#utility.yul\":2215:2251   */\n    tag_183:\n        /* \"#utility.yul\":2283:2337   */\n      tag_184\n        /* \"#utility.yul\":2333:2336   */\n      dup6\n        /* \"#utility.yul\":2322:2330   */\n      dup4\n        /* \"#utility.yul\":2311:2320   */\n      dup7\n        /* \"#utility.yul\":2307:2331   */\n      add\n        /* \"#utility.yul\":2283:2337   */\n      tag_157\n      jump\t// in\n    tag_184:\n        /* \"#utility.yul\":2278:2280   */\n      0x20\n        /* \"#utility.yul\":2271:2276   */\n      dup5\n        /* \"#utility.yul\":2267:2281   */\n      add\n        /* \"#utility.yul\":2260:2338   */\n      mstore\n        /* \"#utility.yul\":2391:2393   */\n      0x40\n        /* \"#utility.yul\":2380:2389   */\n      dup5\n        /* \"#utility.yul\":2376:2394   */\n      add\n        /* \"#utility.yul\":2363:2395   */\n      calldataload\n        /* \"#utility.yul\":2347:2395   */\n      swap2\n      pop\n        /* \"#utility.yul\":2420:2422   */\n      dup1\n        /* \"#utility.yul\":2410:2418   */\n      dup3\n        /* \"#utility.yul\":2407:2423   */\n      gt\n        /* \"#utility.yul\":2404:2440   */\n      iszero\n      tag_185\n      jumpi\n        /* \"#utility.yul\":2436:2437   */\n      0x00\n        /* \"#utility.yul\":2433:2434   */\n      dup1\n        /* \"#utility.yul\":2426:2438   */\n      revert\n        /* \"#utility.yul\":2404:2440   */\n    tag_185:\n        /* \"#utility.yul\":2472:2526   */\n      tag_186\n        /* \"#utility.yul\":2522:2525   */\n      dup6\n        /* \"#utility.yul\":2511:2519   */\n      dup4\n        /* \"#utility.yul\":2500:2509   */\n      dup7\n        /* \"#utility.yul\":2496:2520   */\n      add\n        /* \"#utility.yul\":2472:2526   */\n      tag_157\n      jump\t// in\n    tag_186:\n        /* \"#utility.yul\":2467:2469   */\n      0x40\n        /* \"#utility.yul\":2460:2465   */\n      dup5\n        /* \"#utility.yul\":2456:2470   */\n      add\n        /* \"#utility.yul\":2449:2527   */\n      mstore\n        /* \"#utility.yul\":2580:2582   */\n      0x60\n        /* \"#utility.yul\":2569:2578   */\n      dup5\n        /* \"#utility.yul\":2565:2583   */\n      add\n        /* \"#utility.yul\":2552:2584   */\n      calldataload\n        /* \"#utility.yul\":2536:2584   */\n      swap2\n      pop\n        /* \"#utility.yul\":2609:2611   */\n      dup1\n        /* \"#utility.yul\":2599:2607   */\n      dup3\n        /* \"#utility.yul\":2596:2612   */\n      gt\n        /* \"#utility.yul\":2593:2629   */\n      iszero\n      tag_187\n      jumpi\n        /* \"#utility.yul\":2625:2626   */\n      0x00\n        /* \"#utility.yul\":2622:2623   */\n      dup1\n        /* \"#utility.yul\":2615:2627   */\n      revert\n        /* \"#utility.yul\":2593:2629   */\n    tag_187:\n        /* \"#utility.yul\":2661:2715   */\n      tag_188\n        /* \"#utility.yul\":2711:2714   */\n      dup6\n        /* \"#utility.yul\":2700:2708   */\n      dup4\n        /* \"#utility.yul\":2689:2698   */\n      dup7\n        /* \"#utility.yul\":2685:2709   */\n      add\n        /* \"#utility.yul\":2661:2715   */\n      tag_157\n      jump\t// in\n    tag_188:\n        /* \"#utility.yul\":2656:2658   */\n      0x60\n        /* \"#utility.yul\":2649:2654   */\n      dup5\n        /* \"#utility.yul\":2645:2659   */\n      add\n        /* \"#utility.yul\":2638:2716   */\n      mstore\n        /* \"#utility.yul\":2769:2772   */\n      0x80\n        /* \"#utility.yul\":2758:2767   */\n      dup5\n        /* \"#utility.yul\":2754:2773   */\n      add\n        /* \"#utility.yul\":2741:2774   */\n      calldataload\n        /* \"#utility.yul\":2725:2774   */\n      swap2\n      pop\n        /* \"#utility.yul\":2799:2801   */\n      dup1\n        /* \"#utility.yul\":2789:2797   */\n      dup3\n        /* \"#utility.yul\":2786:2802   */\n      gt\n        /* \"#utility.yul\":2783:2819   */\n      iszero\n      tag_189\n      jumpi\n        /* \"#utility.yul\":2815:2816   */\n      0x00\n        /* \"#utility.yul\":2812:2813   */\n      dup1\n        /* \"#utility.yul\":2805:2817   */\n      revert\n        /* \"#utility.yul\":2783:2819   */\n    tag_189:\n        /* \"#utility.yul\":2852:2900   */\n      tag_190\n        /* \"#utility.yul\":2896:2899   */\n      dup6\n        /* \"#utility.yul\":2885:2893   */\n      dup4\n        /* \"#utility.yul\":2874:2883   */\n      dup7\n        /* \"#utility.yul\":2870:2894   */\n      add\n        /* \"#utility.yul\":2852:2900   */\n      tag_168\n      jump\t// in\n    tag_190:\n        /* \"#utility.yul\":2846:2849   */\n      0x80\n        /* \"#utility.yul\":2839:2844   */\n      dup5\n        /* \"#utility.yul\":2835:2850   */\n      add\n        /* \"#utility.yul\":2828:2901   */\n      mstore\n        /* \"#utility.yul\":2954:2957   */\n      0xa0\n        /* \"#utility.yul\":2943:2952   */\n      dup5\n        /* \"#utility.yul\":2939:2958   */\n      add\n        /* \"#utility.yul\":2926:2959   */\n      calldataload\n        /* \"#utility.yul\":2910:2959   */\n      swap2\n      pop\n        /* \"#utility.yul\":2984:2986   */\n      dup1\n        /* \"#utility.yul\":2974:2982   */\n      dup3\n        /* \"#utility.yul\":2971:2987   */\n      gt\n        /* \"#utility.yul\":2968:3004   */\n      iszero\n      tag_191\n      jumpi\n        /* \"#utility.yul\":3000:3001   */\n      0x00\n        /* \"#utility.yul\":2997:2998   */\n      dup1\n        /* \"#utility.yul\":2990:3002   */\n      revert\n        /* \"#utility.yul\":2968:3004   */\n    tag_191:\n        /* \"#utility.yul\":3037:3085   */\n      tag_192\n        /* \"#utility.yul\":3081:3084   */\n      dup6\n        /* \"#utility.yul\":3070:3078   */\n      dup4\n        /* \"#utility.yul\":3059:3068   */\n      dup7\n        /* \"#utility.yul\":3055:3079   */\n      add\n        /* \"#utility.yul\":3037:3085   */\n      tag_168\n      jump\t// in\n    tag_192:\n        /* \"#utility.yul\":3031:3034   */\n      0xa0\n        /* \"#utility.yul\":3024:3029   */\n      dup5\n        /* \"#utility.yul\":3020:3035   */\n      add\n        /* \"#utility.yul\":3013:3086   */\n      mstore\n        /* \"#utility.yul\":3139:3142   */\n      0xc0\n        /* \"#utility.yul\":3128:3137   */\n      dup5\n        /* \"#utility.yul\":3124:3143   */\n      add\n        /* \"#utility.yul\":3111:3144   */\n      calldataload\n        /* \"#utility.yul\":3095:3144   */\n      swap2\n      pop\n        /* \"#utility.yul\":3169:3171   */\n      dup1\n        /* \"#utility.yul\":3159:3167   */\n      dup3\n        /* \"#utility.yul\":3156:3172   */\n      gt\n        /* \"#utility.yul\":3153:3189   */\n      iszero\n      tag_193\n      jumpi\n        /* \"#utility.yul\":3185:3186   */\n      0x00\n        /* \"#utility.yul\":3182:3183   */\n      dup1\n        /* \"#utility.yul\":3175:3187   */\n      revert\n        /* \"#utility.yul\":3153:3189   */\n    tag_193:\n        /* \"#utility.yul\":3222:3270   */\n      tag_194\n        /* \"#utility.yul\":3266:3269   */\n      dup6\n        /* \"#utility.yul\":3255:3263   */\n      dup4\n        /* \"#utility.yul\":3244:3253   */\n      dup7\n        /* \"#utility.yul\":3240:3264   */\n      add\n        /* \"#utility.yul\":3222:3270   */\n      tag_168\n      jump\t// in\n    tag_194:\n        /* \"#utility.yul\":3216:3219   */\n      0xc0\n        /* \"#utility.yul\":3209:3214   */\n      dup5\n        /* \"#utility.yul\":3205:3220   */\n      add\n        /* \"#utility.yul\":3198:3271   */\n      mstore\n        /* \"#utility.yul\":3324:3327   */\n      0xe0\n        /* \"#utility.yul\":3313:3322   */\n      dup5\n        /* \"#utility.yul\":3309:3328   */\n      add\n        /* \"#utility.yul\":3296:3329   */\n      calldataload\n        /* \"#utility.yul\":3280:3329   */\n      swap2\n      pop\n        /* \"#utility.yul\":3354:3356   */\n      dup1\n        /* \"#utility.yul\":3344:3352   */\n      dup3\n        /* \"#utility.yul\":3341:3357   */\n      gt\n        /* \"#utility.yul\":3338:3374   */\n      iszero\n      tag_195\n      jumpi\n        /* \"#utility.yul\":3370:3371   */\n      0x00\n        /* \"#utility.yul\":3367:3368   */\n      dup1\n        /* \"#utility.yul\":3360:3372   */\n      revert\n        /* \"#utility.yul\":3338:3374   */\n    tag_195:\n        /* \"#utility.yul\":3407:3455   */\n      tag_196\n        /* \"#utility.yul\":3451:3454   */\n      dup6\n        /* \"#utility.yul\":3440:3448   */\n      dup4\n        /* \"#utility.yul\":3429:3438   */\n      dup7\n        /* \"#utility.yul\":3425:3449   */\n      add\n        /* \"#utility.yul\":3407:3455   */\n      tag_168\n      jump\t// in\n    tag_196:\n        /* \"#utility.yul\":3401:3404   */\n      0xe0\n        /* \"#utility.yul\":3394:3399   */\n      dup5\n        /* \"#utility.yul\":3390:3405   */\n      add\n        /* \"#utility.yul\":3383:3456   */\n      mstore\n        /* \"#utility.yul\":3475:3478   */\n      0x0100\n        /* \"#utility.yul\":3465:3478   */\n      swap2\n      pop\n        /* \"#utility.yul\":3531:3533   */\n      dup2\n        /* \"#utility.yul\":3520:3529   */\n      dup5\n        /* \"#utility.yul\":3516:3534   */\n      add\n        /* \"#utility.yul\":3503:3535   */\n      calldataload\n        /* \"#utility.yul\":3560:3562   */\n      dup2\n        /* \"#utility.yul\":3550:3558   */\n      dup2\n        /* \"#utility.yul\":3547:3563   */\n      gt\n        /* \"#utility.yul\":3544:3580   */\n      iszero\n      tag_197\n      jumpi\n        /* \"#utility.yul\":3576:3577   */\n      0x00\n        /* \"#utility.yul\":3573:3574   */\n      dup1\n        /* \"#utility.yul\":3566:3578   */\n      revert\n        /* \"#utility.yul\":3544:3580   */\n    tag_197:\n        /* \"#utility.yul\":3612:3660   */\n      tag_198\n        /* \"#utility.yul\":3656:3659   */\n      dup7\n        /* \"#utility.yul\":3645:3653   */\n      dup3\n        /* \"#utility.yul\":3634:3643   */\n      dup8\n        /* \"#utility.yul\":3630:3654   */\n      add\n        /* \"#utility.yul\":3612:3660   */\n      tag_168\n      jump\t// in\n    tag_198:\n        /* \"#utility.yul\":3607:3609   */\n      dup4\n        /* \"#utility.yul\":3600:3605   */\n      dup6\n        /* \"#utility.yul\":3596:3610   */\n      add\n        /* \"#utility.yul\":3589:3661   */\n      mstore\n      pop\n        /* \"#utility.yul\":3680:3683   */\n      0x0120\n        /* \"#utility.yul\":3670:3683   */\n      swap2\n      pop\n        /* \"#utility.yul\":3736:3738   */\n      dup2\n        /* \"#utility.yul\":3725:3734   */\n      dup5\n        /* \"#utility.yul\":3721:3739   */\n      add\n        /* \"#utility.yul\":3708:3740   */\n      calldataload\n        /* \"#utility.yul\":3765:3767   */\n      dup2\n        /* \"#utility.yul\":3755:3763   */\n      dup2\n        /* \"#utility.yul\":3752:3768   */\n      gt\n        /* \"#utility.yul\":3749:3785   */\n      iszero\n      tag_199\n      jumpi\n        /* \"#utility.yul\":3781:3782   */\n      0x00\n        /* \"#utility.yul\":3778:3779   */\n      dup1\n        /* \"#utility.yul\":3771:3783   */\n      revert\n        /* \"#utility.yul\":3749:3785   */\n    tag_199:\n        /* \"#utility.yul\":3817:3865   */\n      tag_200\n        /* \"#utility.yul\":3861:3864   */\n      dup7\n        /* \"#utility.yul\":3850:3858   */\n      dup3\n        /* \"#utility.yul\":3839:3848   */\n      dup8\n        /* \"#utility.yul\":3835:3859   */\n      add\n        /* \"#utility.yul\":3817:3865   */\n      tag_168\n      jump\t// in\n    tag_200:\n        /* \"#utility.yul\":3812:3814   */\n      dup4\n        /* \"#utility.yul\":3805:3810   */\n      dup6\n        /* \"#utility.yul\":3801:3815   */\n      add\n        /* \"#utility.yul\":3794:3866   */\n      mstore\n      pop\n      pop\n      pop\n        /* \"#utility.yul\":1782:3872   */\n      swap3\n      swap2\n      pop\n      pop\n      jump\t// out\n        /* \"#utility.yul\":3877:4341   */\n    tag_29:\n        /* \"#utility.yul\":3964:3970   */\n      0x00\n        /* \"#utility.yul\":3972:3978   */\n      dup1\n        /* \"#utility.yul\":3980:3986   */\n      0x00\n        /* \"#utility.yul\":4033:4035   */\n      0x60\n        /* \"#utility.yul\":4021:4030   */\n      dup5\n        /* \"#utility.yul\":4012:4019   */\n      dup7\n        /* \"#utility.yul\":4008:4031   */\n      sub\n        /* \"#utility.yul\":4004:4036   */\n      slt\n        /* \"#utility.yul\":4001:4053   */\n      iszero\n      tag_202\n      jumpi\n        /* \"#utility.yul\":4049:4050   */\n      0x00\n        /* \"#utility.yul\":4046:4047   */\n      dup1\n        /* \"#utility.yul\":4039:4051   */\n      revert\n        /* \"#utility.yul\":4001:4053   */\n    tag_202:\n        /* \"#utility.yul\":4072:4101   */\n      tag_203\n        /* \"#utility.yul\":4091:4100   */\n      dup5\n        /* \"#utility.yul\":4072:4101   */\n      tag_154\n      jump\t// in\n    tag_203:\n        /* \"#utility.yul\":4062:4101   */\n      swap3\n      pop\n        /* \"#utility.yul\":4148:4150   */\n      0x20\n        /* \"#utility.yul\":4137:4146   */\n      dup5\n        /* \"#utility.yul\":4133:4151   */\n      add\n        /* \"#utility.yul\":4120:4152   */\n      calldataload\n        /* \"#utility.yul\":4110:4152   */\n      swap2\n      pop\n        /* \"#utility.yul\":4203:4205   */\n      0x40\n        /* \"#utility.yul\":4192:4201   */\n      dup5\n        /* \"#utility.yul\":4188:4206   */\n      add\n        /* \"#utility.yul\":4175:4207   */\n      calldataload\n      sub(shl(0x40, 0x01), 0x01)\n        /* \"#utility.yul\":4222:4228   */\n      dup2\n        /* \"#utility.yul\":4219:4249   */\n      gt\n        /* \"#utility.yul\":4216:4266   */\n      iszero\n      tag_204\n      jumpi\n        /* \"#utility.yul\":4262:4263   */\n      0x00\n        /* \"#utility.yul\":4259:4260   */\n      dup1\n        /* \"#utility.yul\":4252:4264   */\n      revert\n        /* \"#utility.yul\":4216:4266   */\n    tag_204:\n        /* \"#utility.yul\":4285:4335   */\n      tag_205\n        /* \"#utility.yul\":4327:4334   */\n      dup7\n        /* \"#utility.yul\":4318:4324   */\n      dup3\n        /* \"#utility.yul\":4307:4316   */\n      dup8\n        /* \"#utility.yul\":4303:4325   */\n      add\n        /* \"#utility.yul\":4285:4335   */\n      tag_168\n      jump\t// in\n    tag_205:\n        /* \"#utility.yul\":4275:4335   */\n      swap2\n      pop\n      pop\n        /* \"#utility.yul\":3877:4341   */\n      swap3\n      pop\n      swap3\n      pop\n      swap3\n      jump\t// out\n        /* \"#utility.yul\":4346:4840   */\n    tag_24:\n        /* \"#utility.yul\":4451:4457   */\n      0x00\n        /* \"#utility.yul\":4459:4465   */\n      dup1\n        /* \"#utility.yul\":4467:4473   */\n      0x00\n        /* \"#utility.yul\":4520:4522   */\n      0x60\n        /* \"#utility.yul\":4508:4517   */\n      dup5\n        /* \"#utility.yul\":4499:4506   */\n      dup7\n        /* \"#utility.yul\":4495:4518   */\n      sub\n        /* \"#utility.yul\":4491:4523   */\n      slt\n        /* \"#utility.yul\":4488:4540   */\n      iszero\n      tag_207\n      jumpi\n        /* \"#utility.yul\":4536:4537   */\n      0x00\n        /* \"#utility.yul\":4533:4534   */\n      dup1\n        /* \"#utility.yul\":4526:4538   */\n      revert\n        /* \"#utility.yul\":4488:4540   */\n    tag_207:\n        /* \"#utility.yul\":4559:4588   */\n      tag_208\n        /* \"#utility.yul\":4578:4587   */\n      dup5\n        /* \"#utility.yul\":4559:4588   */\n      tag_154\n      jump\t// in\n    tag_208:\n        /* \"#utility.yul\":4549:4588   */\n      swap3\n      pop\n        /* \"#utility.yul\":4635:4637   */\n      0x20\n        /* \"#utility.yul\":4624:4633   */\n      dup5\n        /* \"#utility.yul\":4620:4638   */\n      add\n        /* \"#utility.yul\":4607:4639   */\n      calldataload\n        /* \"#utility.yul\":4597:4639   */\n      swap2\n      pop\n        /* \"#utility.yul\":4690:4692   */\n      0x40\n        /* \"#utility.yul\":4679:4688   */\n      dup5\n        /* \"#utility.yul\":4675:4693   */\n      add\n        /* \"#utility.yul\":4662:4694   */\n      calldataload\n      sub(shl(0x40, 0x01), 0x01)\n        /* \"#utility.yul\":4709:4715   */\n      dup2\n        /* \"#utility.yul\":4706:4736   */\n      gt\n        /* \"#utility.yul\":4703:4753   */\n      iszero\n      tag_209\n      jumpi\n        /* \"#utility.yul\":4749:4750   */\n      0x00\n        /* \"#utility.yul\":4746:4747   */\n      dup1\n        /* \"#utility.yul\":4739:4751   */\n      revert\n        /* \"#utility.yul\":4703:4753   */\n    tag_209:\n        /* \"#utility.yul\":4772:4834   */\n      tag_205\n        /* \"#utility.yul\":4826:4833   */\n      dup7\n        /* \"#utility.yul\":4817:4823   */\n      dup3\n        /* \"#utility.yul\":4806:4815   */\n      dup8\n        /* \"#utility.yul\":4802:4824   */\n      add\n        /* \"#utility.yul\":4772:4834   */\n      tag_176\n      jump\t// in\n        /* \"#utility.yul\":4845:5197   */\n    tag_10:\n        /* \"#utility.yul\":4932:4938   */\n      0x00\n        /* \"#utility.yul\":4985:4987   */\n      0x20\n        /* \"#utility.yul\":4973:4982   */\n      dup3\n        /* \"#utility.yul\":4964:4971   */\n      dup5\n        /* \"#utility.yul\":4960:4983   */\n      sub\n        /* \"#utility.yul\":4956:4988   */\n      slt\n        /* \"#utility.yul\":4953:5005   */\n      iszero\n      tag_212\n      jumpi\n        /* \"#utility.yul\":5001:5002   */\n      0x00\n        /* \"#utility.yul\":4998:4999   */\n      dup1\n        /* \"#utility.yul\":4991:5003   */\n      revert\n        /* \"#utility.yul\":4953:5005   */\n    tag_212:\n        /* \"#utility.yul\":5041:5050   */\n      dup2\n        /* \"#utility.yul\":5028:5051   */\n      calldataload\n      sub(shl(0x40, 0x01), 0x01)\n        /* \"#utility.yul\":5066:5072   */\n      dup2\n        /* \"#utility.yul\":5063:5093   */\n      gt\n        /* \"#utility.yul\":5060:5110   */\n      iszero\n      tag_213\n      jumpi\n        /* \"#utility.yul\":5106:5107   */\n      0x00\n        /* \"#utility.yul\":5103:5104   */\n      dup1\n        /* \"#utility.yul\":5096:5108   */\n      revert\n        /* \"#utility.yul\":5060:5110   */\n    tag_213:\n        /* \"#utility.yul\":5129:5191   */\n      tag_144\n        /* \"#utility.yul\":5183:5190   */\n      dup5\n        /* \"#utility.yul\":5174:5180   */\n      dup3\n        /* \"#utility.yul\":5163:5172   */\n      dup6\n        /* \"#utility.yul\":5159:5181   */\n      add\n        /* \"#utility.yul\":5129:5191   */\n      tag_176\n      jump\t// in\n        /* \"#utility.yul\":5202:5387   */\n    tag_215:\n        /* \"#utility.yul\":5244:5247   */\n      0x00\n        /* \"#utility.yul\":5282:5287   */\n      dup2\n        /* \"#utility.yul\":5276:5288   */\n      mload\n        /* \"#utility.yul\":5297:5349   */\n      tag_217\n        /* \"#utility.yul\":5342:5348   */\n      dup2\n        /* \"#utility.yul\":5337:5340   */\n      dup6\n        /* \"#utility.yul\":5330:5334   */\n      0x20\n        /* \"#utility.yul\":5323:5328   */\n      dup7\n        /* \"#utility.yul\":5319:5335   */\n      add\n        /* \"#utility.yul\":5297:5349   */\n      tag_218\n      jump\t// in\n    tag_217:\n        /* \"#utility.yul\":5365:5381   */\n      swap3\n      swap1\n      swap3\n      add\n      swap3\n        /* \"#utility.yul\":5202:5387   */\n      swap2\n      pop\n      pop\n      jump\t// out\n        /* \"#utility.yul\":5942:6606   */\n    tag_66:\n        /* \"#utility.yul\":6169:6172   */\n      0x00\n        /* \"#utility.yul\":6207:6213   */\n      dup5\n        /* \"#utility.yul\":6201:6214   */\n      mload\n        /* \"#utility.yul\":6223:6276   */\n      tag_228\n        /* \"#utility.yul\":6269:6275   */\n      dup2\n        /* \"#utility.yul\":6264:6267   */\n      dup5\n        /* \"#utility.yul\":6257:6261   */\n      0x20\n        /* \"#utility.yul\":6249:6255   */\n      dup10\n        /* \"#utility.yul\":6245:6262   */\n      add\n        /* \"#utility.yul\":6223:6276   */\n      tag_218\n      jump\t// in\n    tag_228:\n        /* \"#utility.yul\":6339:6352   */\n      dup5\n      mload\n        /* \"#utility.yul\":6298:6314   */\n      swap1\n      dup4\n      add\n      swap1\n        /* \"#utility.yul\":6361:6418   */\n      tag_229\n        /* \"#utility.yul\":6339:6352   */\n      dup2\n        /* \"#utility.yul\":6298:6314   */\n      dup4\n        /* \"#utility.yul\":6395:6399   */\n      0x20\n        /* \"#utility.yul\":6383:6400   */\n      dup10\n      add\n        /* \"#utility.yul\":6361:6418   */\n      tag_218\n      jump\t// in\n    tag_229:\n        /* \"#utility.yul\":6485:6498   */\n      dup5\n      mload\n        /* \"#utility.yul\":6440:6460   */\n      swap2\n      add\n      swap1\n        /* \"#utility.yul\":6507:6564   */\n      tag_230\n        /* \"#utility.yul\":6485:6498   */\n      dup2\n        /* \"#utility.yul\":6440:6460   */\n      dup4\n        /* \"#utility.yul\":6541:6545   */\n      0x20\n        /* \"#utility.yul\":6529:6546   */\n      dup9\n      add\n        /* \"#utility.yul\":6507:6564   */\n      tag_218\n      jump\t// in\n    tag_230:\n        /* \"#utility.yul\":6580:6600   */\n      add\n      swap6\n        /* \"#utility.yul\":5942:6606   */\n      swap5\n      pop\n      pop\n      pop\n      pop\n      pop\n      jump\t// out\n        /* \"#utility.yul\":6611:7469   */\n    tag_63:\n        /* \"#utility.yul\":6886:6889   */\n      0x00\n        /* \"#utility.yul\":6924:6930   */\n      dup6\n        /* \"#utility.yul\":6918:6931   */\n      mload\n        /* \"#utility.yul\":6940:6993   */\n      tag_232\n        /* \"#utility.yul\":6986:6992   */\n      dup2\n        /* \"#utility.yul\":6981:6984   */\n      dup5\n        /* \"#utility.yul\":6974:6978   */\n      0x20\n        /* \"#utility.yul\":6966:6972   */\n      dup11\n        /* \"#utility.yul\":6962:6979   */\n      add\n        /* \"#utility.yul\":6940:6993   */\n      tag_218\n      jump\t// in\n    tag_232:\n        /* \"#utility.yul\":7056:7069   */\n      dup6\n      mload\n        /* \"#utility.yul\":7015:7031   */\n      swap1\n      dup4\n      add\n      swap1\n        /* \"#utility.yul\":7078:7135   */\n      tag_233\n        /* \"#utility.yul\":7056:7069   */\n      dup2\n        /* \"#utility.yul\":7015:7031   */\n      dup4\n        /* \"#utility.yul\":7112:7116   */\n      0x20\n        /* \"#utility.yul\":7100:7117   */\n      dup11\n      add\n        /* \"#utility.yul\":7078:7135   */\n      tag_218\n      jump\t// in\n    tag_233:\n        /* \"#utility.yul\":7202:7215   */\n      dup6\n      mload\n        /* \"#utility.yul\":7157:7177   */\n      swap2\n      add\n      swap1\n        /* \"#utility.yul\":7224:7281   */\n      tag_234\n        /* \"#utility.yul\":7202:7215   */\n      dup2\n        /* \"#utility.yul\":7157:7177   */\n      dup4\n        /* \"#utility.yul\":7258:7262   */\n      0x20\n        /* \"#utility.yul\":7246:7263   */\n      dup10\n      add\n        /* \"#utility.yul\":7224:7281   */\n      tag_218\n      jump\t// in\n    tag_234:\n        /* \"#utility.yul\":7348:7361   */\n      dup5\n      mload\n        /* \"#utility.yul\":7303:7323   */\n      swap2\n      add\n      swap1\n        /* \"#utility.yul\":7370:7427   */\n      tag_235\n        /* \"#utility.yul\":7348:7361   */\n      dup2\n        /* \"#utility.yul\":7303:7323   */\n      dup4\n        /* \"#utility.yul\":7404:7408   */\n      0x20\n        /* \"#utility.yul\":7392:7409   */\n      dup9\n      add\n        /* \"#utility.yul\":7370:7427   */\n      tag_218\n      jump\t// in\n    tag_235:\n        /* \"#utility.yul\":7443:7463   */\n      add\n      swap7\n        /* \"#utility.yul\":6611:7469   */\n      swap6\n      pop\n      pop\n      pop\n      pop\n      pop\n      pop\n      jump\t// out\n        /* \"#utility.yul\":7474:9250   */\n    tag_77:\n        /* \"#utility.yul\":7989:7992   */\n      0x00\n        /* \"#utility.yul\":8027:8033   */\n      dup11\n        /* \"#utility.yul\":8021:8034   */\n      mload\n        /* \"#utility.yul\":8043:8096   */\n      tag_237\n        /* \"#utility.yul\":8089:8095   */\n      dup2\n        /* \"#utility.yul\":8084:8087   */\n      dup5\n        /* \"#utility.yul\":8077:8081   */\n      0x20\n        /* \"#utility.yul\":8069:8075   */\n      dup16\n        /* \"#utility.yul\":8065:8082   */\n      add\n        /* \"#utility.yul\":8043:8096   */\n      tag_218\n      jump\t// in\n    tag_237:\n        /* \"#utility.yul\":8127:8133   */\n      dup11\n        /* \"#utility.yul\":8121:8134   */\n      mload\n        /* \"#utility.yul\":8143:8211   */\n      tag_238\n        /* \"#utility.yul\":8202:8210   */\n      dup2\n        /* \"#utility.yul\":8193:8199   */\n      dup4\n        /* \"#utility.yul\":8188:8191   */\n      dup7\n        /* \"#utility.yul\":8184:8200   */\n      add\n        /* \"#utility.yul\":8177:8181   */\n      0x20\n        /* \"#utility.yul\":8169:8175   */\n      dup16\n        /* \"#utility.yul\":8165:8182   */\n      add\n        /* \"#utility.yul\":8143:8211   */\n      tag_218\n      jump\t// in\n    tag_238:\n        /* \"#utility.yul\":8289:8302   */\n      dup11\n      mload\n        /* \"#utility.yul\":8237:8253   */\n      swap2\n      dup5\n      add\n        /* \"#utility.yul\":8233:8264   */\n      add\n      swap1\n        /* \"#utility.yul\":8311:8368   */\n      tag_239\n        /* \"#utility.yul\":8289:8302   */\n      dup2\n        /* \"#utility.yul\":8233:8264   */\n      dup4\n        /* \"#utility.yul\":8345:8349   */\n      0x20\n        /* \"#utility.yul\":8333:8350   */\n      dup15\n      add\n        /* \"#utility.yul\":8311:8368   */\n      tag_218\n      jump\t// in\n    tag_239:\n        /* \"#utility.yul\":8399:8405   */\n      dup10\n        /* \"#utility.yul\":8393:8406   */\n      mload\n        /* \"#utility.yul\":8415:8487   */\n      tag_240\n        /* \"#utility.yul\":8478:8486   */\n      dup2\n        /* \"#utility.yul\":8467:8475   */\n      dup4\n        /* \"#utility.yul\":8460:8465   */\n      dup6\n        /* \"#utility.yul\":8456:8476   */\n      add\n        /* \"#utility.yul\":8449:8453   */\n      0x20\n        /* \"#utility.yul\":8441:8447   */\n      dup15\n        /* \"#utility.yul\":8437:8454   */\n      add\n        /* \"#utility.yul\":8415:8487   */\n      tag_218\n      jump\t// in\n    tag_240:\n        /* \"#utility.yul\":8569:8582   */\n      dup10\n      mload\n        /* \"#utility.yul\":8513:8533   */\n      swap3\n      swap1\n      swap2\n      add\n        /* \"#utility.yul\":8509:8544   */\n      add\n      swap1\n        /* \"#utility.yul\":8591:8648   */\n      tag_241\n        /* \"#utility.yul\":8569:8582   */\n      dup2\n        /* \"#utility.yul\":8509:8544   */\n      dup4\n        /* \"#utility.yul\":8625:8629   */\n      0x20\n        /* \"#utility.yul\":8613:8630   */\n      dup13\n      add\n        /* \"#utility.yul\":8591:8648   */\n      tag_218\n      jump\t// in\n    tag_241:\n        /* \"#utility.yul\":8679:8685   */\n      dup8\n        /* \"#utility.yul\":8673:8686   */\n      mload\n        /* \"#utility.yul\":8695:8767   */\n      tag_242\n        /* \"#utility.yul\":8758:8766   */\n      dup2\n        /* \"#utility.yul\":8747:8755   */\n      dup4\n        /* \"#utility.yul\":8740:8745   */\n      dup6\n        /* \"#utility.yul\":8736:8756   */\n      add\n        /* \"#utility.yul\":8729:8733   */\n      0x20\n        /* \"#utility.yul\":8721:8727   */\n      dup13\n        /* \"#utility.yul\":8717:8734   */\n      add\n        /* \"#utility.yul\":8695:8767   */\n      tag_218\n      jump\t// in\n    tag_242:\n        /* \"#utility.yul\":8849:8862   */\n      dup8\n      mload\n        /* \"#utility.yul\":8793:8813   */\n      swap3\n      swap1\n      swap2\n      add\n        /* \"#utility.yul\":8789:8824   */\n      add\n      swap1\n        /* \"#utility.yul\":8871:8928   */\n      tag_243\n        /* \"#utility.yul\":8849:8862   */\n      dup2\n        /* \"#utility.yul\":8789:8824   */\n      dup4\n        /* \"#utility.yul\":8905:8909   */\n      0x20\n        /* \"#utility.yul\":8893:8910   */\n      dup11\n      add\n        /* \"#utility.yul\":8871:8928   */\n      tag_218\n      jump\t// in\n    tag_243:\n        /* \"#utility.yul\":8995:9008   */\n      dup6\n      mload\n        /* \"#utility.yul\":8950:8970   */\n      swap2\n      add\n      swap1\n        /* \"#utility.yul\":9017:9074   */\n      tag_244\n        /* \"#utility.yul\":8995:9008   */\n      dup2\n        /* \"#utility.yul\":8950:8970   */\n      dup4\n        /* \"#utility.yul\":9051:9055   */\n      0x20\n        /* \"#utility.yul\":9039:9056   */\n      dup10\n      add\n        /* \"#utility.yul\":9017:9074   */\n      tag_218\n      jump\t// in\n    tag_244:\n        /* \"#utility.yul\":9105:9111   */\n      dup5\n        /* \"#utility.yul\":9099:9112   */\n      mload\n        /* \"#utility.yul\":9121:9193   */\n      tag_245\n        /* \"#utility.yul\":9184:9192   */\n      dup2\n        /* \"#utility.yul\":9173:9181   */\n      dup4\n        /* \"#utility.yul\":9166:9171   */\n      dup6\n        /* \"#utility.yul\":9162:9182   */\n      add\n        /* \"#utility.yul\":9155:9159   */\n      0x20\n        /* \"#utility.yul\":9147:9153   */\n      dup10\n        /* \"#utility.yul\":9143:9160   */\n      add\n        /* \"#utility.yul\":9121:9193   */\n      tag_218\n      jump\t// in\n    tag_245:\n        /* \"#utility.yul\":9213:9233   */\n      swap2\n      add\n        /* \"#utility.yul\":9209:9244   */\n      add\n      swap12\n        /* \"#utility.yul\":7474:9250   */\n      swap11\n      pop\n      pop\n      pop\n      pop\n      pop\n      pop\n      pop\n      pop\n      pop\n      pop\n      pop\n      jump\t// out\n        /* \"#utility.yul\":9255:10686   */\n    tag_43:\n        /* \"#utility.yul\":9727:9730   */\n      0x00\n        /* \"#utility.yul\":9765:9771   */\n      dup8\n        /* \"#utility.yul\":9759:9772   */\n      mload\n        /* \"#utility.yul\":9791:9795   */\n      0x20\n        /* \"#utility.yul\":9804:9855   */\n      tag_247\n        /* \"#utility.yul\":9848:9854   */\n      dup3\n        /* \"#utility.yul\":9843:9846   */\n      dup6\n        /* \"#utility.yul\":9838:9840   */\n      dup4\n        /* \"#utility.yul\":9830:9836   */\n      dup14\n        /* \"#utility.yul\":9826:9841   */\n      add\n        /* \"#utility.yul\":9804:9855   */\n      tag_218\n      jump\t// in\n    tag_247:\n        /* \"#utility.yul\":9886:9892   */\n      dup2\n        /* \"#utility.yul\":9881:9884   */\n      dup5\n        /* \"#utility.yul\":9877:9893   */\n      add\n        /* \"#utility.yul\":9864:9893   */\n      swap2\n      pop\n      shl(0xb8, 0x4772616469656e7431)\n        /* \"#utility.yul\":9909:9914   */\n      dup3\n        /* \"#utility.yul\":9902:9928   */\n      mstore\n        /* \"#utility.yul\":9947:9948   */\n      0x09\n        /* \"#utility.yul\":9979:9985   */\n      dup10\n        /* \"#utility.yul\":9973:9986   */\n      mload\n        /* \"#utility.yul\":9995:10059   */\n      tag_248\n        /* \"#utility.yul\":10050:10058   */\n      dup2\n        /* \"#utility.yul\":10045:10047   */\n      dup4\n        /* \"#utility.yul\":10038:10043   */\n      dup7\n        /* \"#utility.yul\":10034:10048   */\n      add\n        /* \"#utility.yul\":10029:10031   */\n      dup6\n        /* \"#utility.yul\":10021:10027   */\n      dup15\n        /* \"#utility.yul\":10017:10032   */\n      add\n        /* \"#utility.yul\":9995:10059   */\n      tag_218\n      jump\t// in\n    tag_248:\n        /* \"#utility.yul\":10123:10136   */\n      dup10\n      mload\n        /* \"#utility.yul\":10078:10098   */\n      swap4\n      add\n      swap3\n        /* \"#utility.yul\":10145:10206   */\n      tag_249\n        /* \"#utility.yul\":10123:10136   */\n      dup2\n        /* \"#utility.yul\":10184:10195   */\n      dup4\n      dup7\n      add\n        /* \"#utility.yul\":10167:10182   */\n      dup6\n      dup14\n      add\n        /* \"#utility.yul\":10145:10206   */\n      tag_218\n      jump\t// in\n    tag_249:\n        /* \"#utility.yul\":10267:10280   */\n      dup9\n      mload\n        /* \"#utility.yul\":10225:10242   */\n      swap4\n      add\n      swap3\n        /* \"#utility.yul\":10289:10350   */\n      tag_250\n        /* \"#utility.yul\":10267:10280   */\n      dup2\n        /* \"#utility.yul\":10328:10339   */\n      dup4\n      dup7\n      add\n        /* \"#utility.yul\":10311:10326   */\n      dup6\n      dup13\n      add\n        /* \"#utility.yul\":10289:10350   */\n      tag_218\n      jump\t// in\n    tag_250:\n        /* \"#utility.yul\":10411:10424   */\n      dup8\n      mload\n        /* \"#utility.yul\":10369:10386   */\n      swap4\n      add\n      swap3\n        /* \"#utility.yul\":10433:10494   */\n      tag_251\n        /* \"#utility.yul\":10411:10424   */\n      dup2\n        /* \"#utility.yul\":10472:10483   */\n      dup4\n      dup7\n      add\n        /* \"#utility.yul\":10455:10470   */\n      dup6\n      dup12\n      add\n        /* \"#utility.yul\":10433:10494   */\n      tag_218\n      jump\t// in\n    tag_251:\n        /* \"#utility.yul\":10555:10568   */\n      dup7\n      mload\n        /* \"#utility.yul\":10513:10530   */\n      swap4\n      add\n      swap3\n        /* \"#utility.yul\":10577:10638   */\n      tag_252\n        /* \"#utility.yul\":10555:10568   */\n      dup2\n        /* \"#utility.yul\":10616:10627   */\n      dup4\n      dup7\n      add\n        /* \"#utility.yul\":10599:10614   */\n      dup6\n      dup11\n      add\n        /* \"#utility.yul\":10577:10638   */\n      tag_218\n      jump\t// in\n    tag_252:\n        /* \"#utility.yul\":10658:10675   */\n      swap3\n      swap1\n      swap3\n      add\n        /* \"#utility.yul\":10654:10680   */\n      swap1\n      swap2\n      add\n      swap10\n        /* \"#utility.yul\":9255:10686   */\n      swap9\n      pop\n      pop\n      pop\n      pop\n      pop\n      pop\n      pop\n      pop\n      pop\n      jump\t// out\n        /* \"#utility.yul\":10691:12122   */\n    tag_49:\n        /* \"#utility.yul\":11163:11166   */\n      0x00\n        /* \"#utility.yul\":11201:11207   */\n      dup8\n        /* \"#utility.yul\":11195:11208   */\n      mload\n        /* \"#utility.yul\":11227:11231   */\n      0x20\n        /* \"#utility.yul\":11240:11291   */\n      tag_254\n        /* \"#utility.yul\":11284:11290   */\n      dup3\n        /* \"#utility.yul\":11279:11282   */\n      dup6\n        /* \"#utility.yul\":11274:11276   */\n      dup4\n        /* \"#utility.yul\":11266:11272   */\n      dup14\n        /* \"#utility.yul\":11262:11277   */\n      add\n        /* \"#utility.yul\":11240:11291   */\n      tag_218\n      jump\t// in\n    tag_254:\n        /* \"#utility.yul\":11322:11328   */\n      dup2\n        /* \"#utility.yul\":11317:11320   */\n      dup5\n        /* \"#utility.yul\":11313:11329   */\n      add\n        /* \"#utility.yul\":11300:11329   */\n      swap2\n      pop\n      shl(0xb9, 0x23b930b234b2b73a19)\n        /* \"#utility.yul\":11345:11350   */\n      dup3\n        /* \"#utility.yul\":11338:11364   */\n      mstore\n        /* \"#utility.yul\":11383:11384   */\n      0x09\n        /* \"#utility.yul\":11415:11421   */\n      dup10\n        /* \"#utility.yul\":11409:11422   */\n      mload\n        /* \"#utility.yul\":11431:11495   */\n      tag_248\n        /* \"#utility.yul\":11486:11494   */\n      dup2\n        /* \"#utility.yul\":11481:11483   */\n      dup4\n        /* \"#utility.yul\":11474:11479   */\n      dup7\n        /* \"#utility.yul\":11470:11484   */\n      add\n        /* \"#utility.yul\":11465:11467   */\n      dup6\n        /* \"#utility.yul\":11457:11463   */\n      dup15\n        /* \"#utility.yul\":11453:11468   */\n      add\n        /* \"#utility.yul\":11431:11495   */\n      tag_218\n      jump\t// in\n        /* \"#utility.yul\":12127:13558   */\n    tag_55:\n        /* \"#utility.yul\":12599:12602   */\n      0x00\n        /* \"#utility.yul\":12637:12643   */\n      dup8\n        /* \"#utility.yul\":12631:12644   */\n      mload\n        /* \"#utility.yul\":12663:12667   */\n      0x20\n        /* \"#utility.yul\":12676:12727   */\n      tag_261\n        /* \"#utility.yul\":12720:12726   */\n      dup3\n        /* \"#utility.yul\":12715:12718   */\n      dup6\n        /* \"#utility.yul\":12710:12712   */\n      dup4\n        /* \"#utility.yul\":12702:12708   */\n      dup14\n        /* \"#utility.yul\":12698:12713   */\n      add\n        /* \"#utility.yul\":12676:12727   */\n      tag_218\n      jump\t// in\n    tag_261:\n        /* \"#utility.yul\":12758:12764   */\n      dup2\n        /* \"#utility.yul\":12753:12756   */\n      dup5\n        /* \"#utility.yul\":12749:12765   */\n      add\n        /* \"#utility.yul\":12736:12765   */\n      swap2\n      pop\n      shl(0xb8, 0x4772616469656e7433)\n        /* \"#utility.yul\":12781:12786   */\n      dup3\n        /* \"#utility.yul\":12774:12800   */\n      mstore\n        /* \"#utility.yul\":12819:12820   */\n      0x09\n        /* \"#utility.yul\":12851:12857   */\n      dup10\n        /* \"#utility.yul\":12845:12858   */\n      mload\n        /* \"#utility.yul\":12867:12931   */\n      tag_248\n        /* \"#utility.yul\":12922:12930   */\n      dup2\n        /* \"#utility.yul\":12917:12919   */\n      dup4\n        /* \"#utility.yul\":12910:12915   */\n      dup7\n        /* \"#utility.yul\":12906:12920   */\n      add\n        /* \"#utility.yul\":12901:12903   */\n      dup6\n        /* \"#utility.yul\":12893:12899   */\n      dup15\n        /* \"#utility.yul\":12889:12904   */\n      add\n        /* \"#utility.yul\":12867:12931   */\n      tag_218\n      jump\t// in\n        /* \"#utility.yul\":13563:14994   */\n    tag_61:\n        /* \"#utility.yul\":14035:14038   */\n      0x00\n        /* \"#utility.yul\":14073:14079   */\n      dup8\n        /* \"#utility.yul\":14067:14080   */\n      mload\n        /* \"#utility.yul\":14099:14103   */\n      0x20\n        /* \"#utility.yul\":14112:14163   */\n      tag_268\n        /* \"#utility.yul\":14156:14162   */\n      dup3\n        /* \"#utility.yul\":14151:14154   */\n      dup6\n        /* \"#utility.yul\":14146:14148   */\n      dup4\n        /* \"#utility.yul\":14138:14144   */\n      dup14\n        /* \"#utility.yul\":14134:14149   */\n      add\n        /* \"#utility.yul\":14112:14163   */\n      tag_218\n      jump\t// in\n    tag_268:\n        /* \"#utility.yul\":14194:14200   */\n      dup2\n        /* \"#utility.yul\":14189:14192   */\n      dup5\n        /* \"#utility.yul\":14185:14201   */\n      add\n        /* \"#utility.yul\":14172:14201   */\n      swap2\n      pop\n      shl(0xba, 0x11dc98591a595b9d0d)\n        /* \"#utility.yul\":14217:14222   */\n      dup3\n        /* \"#utility.yul\":14210:14236   */\n      mstore\n        /* \"#utility.yul\":14255:14256   */\n      0x09\n        /* \"#utility.yul\":14287:14293   */\n      dup10\n        /* \"#utility.yul\":14281:14294   */\n      mload\n        /* \"#utility.yul\":14303:14367   */\n      tag_248\n        /* \"#utility.yul\":14358:14366   */\n      dup2\n        /* \"#utility.yul\":14353:14355   */\n      dup4\n        /* \"#utility.yul\":14346:14351   */\n      dup7\n        /* \"#utility.yul\":14342:14356   */\n      add\n        /* \"#utility.yul\":14337:14339   */\n      dup6\n        /* \"#utility.yul\":14329:14335   */\n      dup15\n        /* \"#utility.yul\":14325:14340   */\n      add\n        /* \"#utility.yul\":14303:14367   */\n      tag_218\n      jump\t// in\n        /* \"#utility.yul\":14999:16823   */\n    tag_87:\n      shl(0x98, 0x3c746578742066696c6c3d2223)\n        /* \"#utility.yul\":15850:15901   */\n      dup2\n      mstore\n        /* \"#utility.yul\":15924:15937   */\n      dup4\n      mload\n        /* \"#utility.yul\":15832:15835   */\n      0x00\n      swap1\n        /* \"#utility.yul\":15946:16008   */\n      tag_275\n        /* \"#utility.yul\":15924:15937   */\n      dup2\n        /* \"#utility.yul\":15996:15998   */\n      0x0d\n        /* \"#utility.yul\":15987:15999   */\n      dup6\n      add\n        /* \"#utility.yul\":15980:15984   */\n      0x20\n        /* \"#utility.yul\":15968:15985   */\n      dup10\n      add\n        /* \"#utility.yul\":15946:16008   */\n      tag_218\n      jump\t// in\n    tag_275:\n        /* \"#utility.yul\":16072:16138   */\n      0x2220783d223139302220793d223734332220636c6173733d226d657461646174\n        /* \"#utility.yul\":16067:16069   */\n      0x0d\n        /* \"#utility.yul\":16027:16043   */\n      swap2\n      dup5\n      add\n        /* \"#utility.yul\":16059:16070   */\n      swap2\n      dup3\n      add\n        /* \"#utility.yul\":16052:16139   */\n      mstore\n      shl(0xe9, 0x30911f)\n        /* \"#utility.yul\":16163:16165   */\n      0x2d\n        /* \"#utility.yul\":16155:16166   */\n      dup3\n      add\n        /* \"#utility.yul\":16148:16186   */\n      mstore\n      shl(0xcd, 0x027bbb732b91d1)\n        /* \"#utility.yul\":16210:16212   */\n      0x30\n        /* \"#utility.yul\":16202:16213   */\n      dup3\n      add\n        /* \"#utility.yul\":16195:16225   */\n      mstore\n        /* \"#utility.yul\":16250:16263   */\n      dup5\n      mload\n        /* \"#utility.yul\":16272:16335   */\n      tag_276\n        /* \"#utility.yul\":16250:16263   */\n      dup2\n        /* \"#utility.yul\":16321:16323   */\n      0x37\n        /* \"#utility.yul\":16313:16324   */\n      dup5\n      add\n        /* \"#utility.yul\":16306:16310   */\n      0x20\n        /* \"#utility.yul\":16294:16311   */\n      dup10\n      add\n        /* \"#utility.yul\":16272:16335   */\n      tag_218\n      jump\t// in\n    tag_276:\n        /* \"#utility.yul\":16400:16466   */\n      0x3c2f746578743e203c746578742066696c6c3d22236438653165302220783d22\n        /* \"#utility.yul\":16395:16397   */\n      0x37\n        /* \"#utility.yul\":16354:16371   */\n      swap3\n      swap1\n      swap2\n      add\n        /* \"#utility.yul\":16387:16398   */\n      swap2\n      dup3\n      add\n        /* \"#utility.yul\":16380:16467   */\n      mstore\n        /* \"#utility.yul\":16496:16562   */\n      0x33302220793d223734332220636c6173733d226d65746164617461223e000000\n        /* \"#utility.yul\":16491:16493   */\n      0x57\n        /* \"#utility.yul\":16483:16494   */\n      dup3\n      add\n        /* \"#utility.yul\":16476:16563   */\n      mstore\n        /* \"#utility.yul\":16588:16601   */\n      dup4\n      mload\n        /* \"#utility.yul\":16610:16674   */\n      tag_277\n        /* \"#utility.yul\":16588:16601   */\n      dup2\n        /* \"#utility.yul\":16659:16662   */\n      0x74\n        /* \"#utility.yul\":16651:16663   */\n      dup5\n      add\n        /* \"#utility.yul\":16644:16648   */\n      0x20\n        /* \"#utility.yul\":16632:16649   */\n      dup9\n      add\n        /* \"#utility.yul\":16610:16674   */\n      tag_218\n      jump\t// in\n    tag_277:\n      shl(0xd4, 0x02f313030303)\n        /* \"#utility.yul\":16734:16737   */\n      0x74\n        /* \"#utility.yul\":16693:16710   */\n      swap3\n      swap1\n      swap2\n      add\n        /* \"#utility.yul\":16726:16738   */\n      swap2\n      dup3\n      add\n        /* \"#utility.yul\":16719:16749   */\n      mstore\n      shl(0xc9, 0x1e17ba32bc3a1f)\n        /* \"#utility.yul\":16773:16776   */\n      0x7a\n        /* \"#utility.yul\":16765:16777   */\n      dup3\n      add\n        /* \"#utility.yul\":16758:16789   */\n      mstore\n        /* \"#utility.yul\":16813:16816   */\n      0x81\n        /* \"#utility.yul\":16805:16817   */\n      add\n      swap6\n        /* \"#utility.yul\":14999:16823   */\n      swap5\n      pop\n      pop\n      pop\n      pop\n      pop\n      jump\t// out\n        /* \"#utility.yul\":16828:18712   */\n    tag_90:\n        /* \"#utility.yul\":17787:17821   */\n      0x3c7374796c653e202e6c69676874207b20666f6e743a206974616c6963203330\n        /* \"#utility.yul\":17782:17785   */\n      dup2\n        /* \"#utility.yul\":17775:17822   */\n      mstore\n        /* \"#utility.yul\":17852:17886   */\n      0x70782073616e732d73657269663b207d202e74696e79207b20666f6e743a2038\n        /* \"#utility.yul\":17847:17849   */\n      0x20\n        /* \"#utility.yul\":17842:17845   */\n      dup3\n        /* \"#utility.yul\":17838:17850   */\n      add\n        /* \"#utility.yul\":17831:17887   */\n      mstore\n        /* \"#utility.yul\":17917:17951   */\n      0x70782073616e732d73657269663b20207d202e6c61726765207b20666f6e743a\n        /* \"#utility.yul\":17912:17914   */\n      0x40\n        /* \"#utility.yul\":17907:17910   */\n      dup3\n        /* \"#utility.yul\":17903:17915   */\n      add\n        /* \"#utility.yul\":17896:17952   */\n      mstore\n        /* \"#utility.yul\":17982:18016   */\n      0x20626f6c6420353070782073616e732d73657269663b207d202e736d616c6c20\n        /* \"#utility.yul\":17977:17979   */\n      0x60\n        /* \"#utility.yul\":17972:17975   */\n      dup3\n        /* \"#utility.yul\":17968:17980   */\n      add\n        /* \"#utility.yul\":17961:18017   */\n      mstore\n        /* \"#utility.yul\":18048:18082   */\n      0x7b20666f6e743a20626f6c6420333070782073616e732d73657269663b207d20\n        /* \"#utility.yul\":18042:18045   */\n      0x80\n        /* \"#utility.yul\":18037:18040   */\n      dup3\n        /* \"#utility.yul\":18033:18046   */\n      add\n        /* \"#utility.yul\":18026:18083   */\n      mstore\n        /* \"#utility.yul\":18114:18148   */\n      0x2e627574746f6e207b20666f6e743a20626f6c6420353070782073616e732d73\n        /* \"#utility.yul\":18108:18111   */\n      0xa0\n        /* \"#utility.yul\":18103:18106   */\n      dup3\n        /* \"#utility.yul\":18099:18112   */\n      add\n        /* \"#utility.yul\":18092:18149   */\n      mstore\n      shl(0x98, 0x657269663b2066696c6c3a2023)\n        /* \"#utility.yul\":18174:18177   */\n      0xc0\n        /* \"#utility.yul\":18169:18172   */\n      dup3\n        /* \"#utility.yul\":18165:18178   */\n      add\n        /* \"#utility.yul\":18158:18196   */\n      mstore\n        /* \"#utility.yul\":17757:17760   */\n      0x00\n        /* \"#utility.yul\":18225:18231   */\n      dup7\n        /* \"#utility.yul\":18219:18232   */\n      mload\n        /* \"#utility.yul\":18241:18302   */\n      tag_279\n        /* \"#utility.yul\":18295:18301   */\n      dup2\n        /* \"#utility.yul\":18289:18292   */\n      0xcd\n        /* \"#utility.yul\":18284:18287   */\n      dup6\n        /* \"#utility.yul\":18280:18293   */\n      add\n        /* \"#utility.yul\":18275:18277   */\n      0x20\n        /* \"#utility.yul\":18267:18273   */\n      dup12\n        /* \"#utility.yul\":18263:18278   */\n      add\n        /* \"#utility.yul\":18241:18302   */\n      tag_218\n      jump\t// in\n    tag_279:\n        /* \"#utility.yul\":18367:18401   */\n      0x7d202e6d657461646174617b20666f6e743a20626f6c6420313270782073616e\n        /* \"#utility.yul\":18361:18364   */\n      0xcd\n        /* \"#utility.yul\":18321:18337   */\n      swap2\n      dup5\n      add\n        /* \"#utility.yul\":18353:18365   */\n      swap2\n      dup3\n      add\n        /* \"#utility.yul\":18346:18402   */\n      mstore\n      shl(0x80, 0x732d73657269663b2066696c6c3a2023)\n        /* \"#utility.yul\":18426:18429   */\n      0xed\n        /* \"#utility.yul\":18418:18430   */\n      dup3\n      add\n        /* \"#utility.yul\":18411:18451   */\n      mstore\n        /* \"#utility.yul\":18467:18706   */\n      tag_280\n        /* \"#utility.yul\":18497:18705   */\n      tag_281\n        /* \"#utility.yul\":18523:18704   */\n      tag_282\n        /* \"#utility.yul\":18553:18703   */\n      tag_283\n        /* \"#utility.yul\":18579:18702   */\n      tag_284\n        /* \"#utility.yul\":18609:18701   */\n      tag_285\n        /* \"#utility.yul\":18635:18700   */\n      tag_286\n        /* \"#utility.yul\":18660:18699   */\n      tag_287\n        /* \"#utility.yul\":18694:18697   */\n      0xfd\n        /* \"#utility.yul\":18686:18698   */\n      dup10\n      add\n        /* \"#utility.yul\":18678:18684   */\n      dup16\n        /* \"#utility.yul\":18660:18699   */\n      tag_215\n      jump\t// in\n    tag_287:\n        /* \"#utility.yul\":5729:5759   */\n      0x207d202e627574746f6e4261636b67726f756e647b66696c6c3a202300000000\n        /* \"#utility.yul\":5717:5760   */\n      dup2\n      mstore\n        /* \"#utility.yul\":5785:5787   */\n      0x1c\n        /* \"#utility.yul\":5776:5788   */\n      add\n      swap1\n        /* \"#utility.yul\":5657:5794   */\n      jump\n        /* \"#utility.yul\":18635:18700   */\n    tag_286:\n        /* \"#utility.yul\":18627:18633   */\n      dup13\n        /* \"#utility.yul\":18609:18701   */\n      tag_215\n      jump\t// in\n    tag_285:\n      shl(0x78, 0x7d202e73637265656e7b66696c6c3a2023)\n        /* \"#utility.yul\":5457:5489   */\n      dup2\n      mstore\n        /* \"#utility.yul\":5514:5516   */\n      0x11\n        /* \"#utility.yul\":5505:5517   */\n      add\n      swap1\n        /* \"#utility.yul\":5392:5523   */\n      jump\n        /* \"#utility.yul\":18579:18702   */\n    tag_284:\n        /* \"#utility.yul\":18571:18577   */\n      dup10\n        /* \"#utility.yul\":18553:18703   */\n      tag_215\n      jump\t// in\n    tag_283:\n      shl(0x40, 0x7d202e626f7264657253747269707b7374726f6b653a2023)\n        /* \"#utility.yul\":5864:5903   */\n      dup2\n      mstore\n        /* \"#utility.yul\":5928:5930   */\n      0x18\n        /* \"#utility.yul\":5919:5931   */\n      add\n      swap1\n        /* \"#utility.yul\":5799:5937   */\n      jump\n        /* \"#utility.yul\":18523:18704   */\n    tag_282:\n        /* \"#utility.yul\":18515:18521   */\n      dup7\n        /* \"#utility.yul\":18497:18705   */\n      tag_215\n      jump\t// in\n    tag_281:\n      shl(0xb1, 0x3e901e17b9ba3cb6329f)\n        /* \"#utility.yul\":5593:5618   */\n      dup2\n      mstore\n        /* \"#utility.yul\":5643:5645   */\n      0x0a\n        /* \"#utility.yul\":5634:5646   */\n      add\n      swap1\n        /* \"#utility.yul\":5528:5652   */\n      jump\n        /* \"#utility.yul\":18467:18706   */\n    tag_280:\n        /* \"#utility.yul\":18460:18706   */\n      swap9\n        /* \"#utility.yul\":16828:18712   */\n      swap8\n      pop\n      pop\n      pop\n      pop\n      pop\n      pop\n      pop\n      pop\n      jump\t// out\n        /* \"#utility.yul\":18717:19162   */\n    tag_80:\n        /* \"#utility.yul\":18979:19007   */\n      0x646174613a696d6167652f7376672b786d6c3b6261736536342c000000000000\n        /* \"#utility.yul\":18974:18977   */\n      dup2\n        /* \"#utility.yul\":18967:19008   */\n      mstore\n        /* \"#utility.yul\":18949:18952   */\n      0x00\n        /* \"#utility.yul\":19037:19043   */\n      dup3\n        /* \"#utility.yul\":19031:19044   */\n      mload\n        /* \"#utility.yul\":19053:19115   */\n      tag_289\n        /* \"#utility.yul\":19108:19114   */\n      dup2\n        /* \"#utility.yul\":19103:19105   */\n      0x1a\n        /* \"#utility.yul\":19098:19101   */\n      dup6\n        /* \"#utility.yul\":19094:19106   */\n      add\n        /* \"#utility.yul\":19087:19091   */\n      0x20\n        /* \"#utility.yul\":19079:19085   */\n      dup8\n        /* \"#utility.yul\":19075:19092   */\n      add\n        /* \"#utility.yul\":19053:19115   */\n      tag_218\n      jump\t// in\n    tag_289:\n        /* \"#utility.yul\":19135:19151   */\n      swap2\n      swap1\n      swap2\n      add\n        /* \"#utility.yul\":19153:19155   */\n      0x1a\n        /* \"#utility.yul\":19131:19156   */\n      add\n      swap3\n        /* \"#utility.yul\":18717:19162   */\n      swap2\n      pop\n      pop\n      jump\t// out\n        /* \"#utility.yul\":19167:19558   */\n    tag_13:\n        /* \"#utility.yul\":19324:19326   */\n      0x20\n        /* \"#utility.yul\":19313:19322   */\n      dup2\n        /* \"#utility.yul\":19306:19327   */\n      mstore\n        /* \"#utility.yul\":19287:19291   */\n      0x00\n        /* \"#utility.yul\":19356:19362   */\n      dup3\n        /* \"#utility.yul\":19350:19363   */\n      mload\n        /* \"#utility.yul\":19399:19405   */\n      dup1\n        /* \"#utility.yul\":19394:19396   */\n      0x20\n        /* \"#utility.yul\":19383:19392   */\n      dup5\n        /* \"#utility.yul\":19379:19397   */\n      add\n        /* \"#utility.yul\":19372:19406   */\n      mstore\n        /* \"#utility.yul\":19415:19481   */\n      tag_291\n        /* \"#utility.yul\":19474:19480   */\n      dup2\n        /* \"#utility.yul\":19469:19471   */\n      0x40\n        /* \"#utility.yul\":19458:19467   */\n      dup6\n        /* \"#utility.yul\":19454:19472   */\n      add\n        /* \"#utility.yul\":19449:19451   */\n      0x20\n        /* \"#utility.yul\":19441:19447   */\n      dup8\n        /* \"#utility.yul\":19437:19452   */\n      add\n        /* \"#utility.yul\":19415:19481   */\n      tag_218\n      jump\t// in\n    tag_291:\n        /* \"#utility.yul\":19542:19544   */\n      0x1f\n        /* \"#utility.yul\":19521:19536   */\n      add\n      not(0x1f)\n        /* \"#utility.yul\":19517:19546   */\n      and\n        /* \"#utility.yul\":19502:19547   */\n      swap2\n      swap1\n      swap2\n      add\n        /* \"#utility.yul\":19549:19551   */\n      0x40\n        /* \"#utility.yul\":19498:19552   */\n      add\n      swap3\n        /* \"#utility.yul\":19167:19558   */\n      swap2\n      pop\n      pop\n      jump\t// out\n        /* \"#utility.yul\":19924:20174   */\n    tag_180:\n        /* \"#utility.yul\":19991:19993   */\n      0x40\n        /* \"#utility.yul\":19985:19994   */\n      mload\n        /* \"#utility.yul\":20033:20039   */\n      0x0140\n        /* \"#utility.yul\":20021:20040   */\n      dup2\n      add\n      sub(shl(0x40, 0x01), 0x01)\n        /* \"#utility.yul\":20055:20089   */\n      dup2\n      gt\n        /* \"#utility.yul\":20091:20113   */\n      dup3\n      dup3\n      lt\n        /* \"#utility.yul\":20052:20114   */\n      or\n        /* \"#utility.yul\":20049:20137   */\n      iszero\n      tag_295\n      jumpi\n        /* \"#utility.yul\":20117:20135   */\n      tag_295\n      tag_101\n      jump\t// in\n    tag_295:\n        /* \"#utility.yul\":20153:20155   */\n      0x40\n        /* \"#utility.yul\":20146:20168   */\n      mstore\n        /* \"#utility.yul\":19924:20174   */\n      swap1\n      jump\t// out\n        /* \"#utility.yul\":20179:20307   */\n    tag_94:\n        /* \"#utility.yul\":20219:20222   */\n      0x00\n        /* \"#utility.yul\":20250:20251   */\n      dup3\n        /* \"#utility.yul\":20246:20252   */\n      not\n        /* \"#utility.yul\":20243:20244   */\n      dup3\n        /* \"#utility.yul\":20240:20253   */\n      gt\n        /* \"#utility.yul\":20237:20276   */\n      iszero\n      tag_298\n      jumpi\n        /* \"#utility.yul\":20256:20274   */\n      tag_298\n      tag_299\n      jump\t// in\n    tag_298:\n      pop\n        /* \"#utility.yul\":20292:20301   */\n      add\n      swap1\n        /* \"#utility.yul\":20179:20307   */\n      jump\t// out\n        /* \"#utility.yul\":20312:20432   */\n    tag_96:\n        /* \"#utility.yul\":20352:20353   */\n      0x00\n        /* \"#utility.yul\":20378:20379   */\n      dup3\n        /* \"#utility.yul\":20368:20403   */\n      tag_302\n      jumpi\n        /* \"#utility.yul\":20383:20401   */\n      tag_302\n      tag_303\n      jump\t// in\n    tag_302:\n      pop\n        /* \"#utility.yul\":20417:20426   */\n      div\n      swap1\n        /* \"#utility.yul\":20312:20432   */\n      jump\t// out\n        /* \"#utility.yul\":20437:20605   */\n    tag_98:\n        /* \"#utility.yul\":20477:20484   */\n      0x00\n        /* \"#utility.yul\":20543:20544   */\n      dup2\n        /* \"#utility.yul\":20539:20540   */\n      0x00\n        /* \"#utility.yul\":20535:20541   */\n      not\n        /* \"#utility.yul\":20531:20545   */\n      div\n        /* \"#utility.yul\":20528:20529   */\n      dup4\n        /* \"#utility.yul\":20525:20546   */\n      gt\n        /* \"#utility.yul\":20520:20521   */\n      dup3\n        /* \"#utility.yul\":20513:20522   */\n      iszero\n        /* \"#utility.yul\":20506:20523   */\n      iszero\n        /* \"#utility.yul\":20502:20547   */\n      and\n        /* \"#utility.yul\":20499:20570   */\n      iszero\n      tag_306\n      jumpi\n        /* \"#utility.yul\":20550:20568   */\n      tag_306\n      tag_299\n      jump\t// in\n    tag_306:\n      pop\n        /* \"#utility.yul\":20590:20599   */\n      mul\n      swap1\n        /* \"#utility.yul\":20437:20605   */\n      jump\t// out\n        /* \"#utility.yul\":20610:20735   */\n    tag_146:\n        /* \"#utility.yul\":20650:20654   */\n      0x00\n        /* \"#utility.yul\":20678:20679   */\n      dup3\n        /* \"#utility.yul\":20675:20676   */\n      dup3\n        /* \"#utility.yul\":20672:20680   */\n      lt\n        /* \"#utility.yul\":20669:20703   */\n      iszero\n      tag_309\n      jumpi\n        /* \"#utility.yul\":20683:20701   */\n      tag_309\n      tag_299\n      jump\t// in\n    tag_309:\n      pop\n        /* \"#utility.yul\":20720:20729   */\n      sub\n      swap1\n        /* \"#utility.yul\":20610:20735   */\n      jump\t// out\n        /* \"#utility.yul\":20740:20998   */\n    tag_218:\n        /* \"#utility.yul\":20812:20813   */\n      0x00\n        /* \"#utility.yul\":20822:20935   */\n    tag_311:\n        /* \"#utility.yul\":20836:20842   */\n      dup4\n        /* \"#utility.yul\":20833:20834   */\n      dup2\n        /* \"#utility.yul\":20830:20843   */\n      lt\n        /* \"#utility.yul\":20822:20935   */\n      iszero\n      tag_313\n      jumpi\n        /* \"#utility.yul\":20912:20923   */\n      dup2\n      dup2\n      add\n        /* \"#utility.yul\":20906:20924   */\n      mload\n        /* \"#utility.yul\":20893:20904   */\n      dup4\n      dup3\n      add\n        /* \"#utility.yul\":20886:20925   */\n      mstore\n        /* \"#utility.yul\":20858:20860   */\n      0x20\n        /* \"#utility.yul\":20851:20861   */\n      add\n        /* \"#utility.yul\":20822:20935   */\n      jump(tag_311)\n    tag_313:\n        /* \"#utility.yul\":20953:20959   */\n      dup4\n        /* \"#utility.yul\":20950:20951   */\n      dup2\n        /* \"#utility.yul\":20947:20960   */\n      gt\n        /* \"#utility.yul\":20944:20992   */\n      iszero\n      tag_314\n      jumpi\n        /* \"#utility.yul\":20988:20989   */\n      0x00\n        /* \"#utility.yul\":20979:20985   */\n      dup5\n        /* \"#utility.yul\":20974:20977   */\n      dup5\n        /* \"#utility.yul\":20970:20986   */\n      add\n        /* \"#utility.yul\":20963:20990   */\n      mstore\n        /* \"#utility.yul\":20944:20992   */\n    tag_314:\n      pop\n        /* \"#utility.yul\":20740:20998   */\n      pop\n      pop\n      pop\n      jump\t// out\n        /* \"#utility.yul\":21003:21139   */\n    tag_129:\n        /* \"#utility.yul\":21042:21045   */\n      0x00\n        /* \"#utility.yul\":21070:21075   */\n      dup2\n        /* \"#utility.yul\":21060:21099   */\n      tag_317\n      jumpi\n        /* \"#utility.yul\":21079:21097   */\n      tag_317\n      tag_299\n      jump\t// in\n    tag_317:\n      pop\n      not(0x00)\n        /* \"#utility.yul\":21115:21133   */\n      add\n      swap1\n        /* \"#utility.yul\":21003:21139   */\n      jump\t// out\n        /* \"#utility.yul\":21144:21279   */\n    tag_138:\n        /* \"#utility.yul\":21183:21186   */\n      0x00\n      not(0x00)\n        /* \"#utility.yul\":21204:21221   */\n      dup3\n      eq\n        /* \"#utility.yul\":21201:21244   */\n      iszero\n      tag_320\n      jumpi\n        /* \"#utility.yul\":21224:21242   */\n      tag_320\n      tag_299\n      jump\t// in\n    tag_320:\n      pop\n        /* \"#utility.yul\":21271:21272   */\n      0x01\n        /* \"#utility.yul\":21260:21273   */\n      add\n      swap1\n        /* \"#utility.yul\":21144:21279   */\n      jump\t// out\n        /* \"#utility.yul\":21284:21396   */\n    tag_148:\n        /* \"#utility.yul\":21316:21317   */\n      0x00\n        /* \"#utility.yul\":21342:21343   */\n      dup3\n        /* \"#utility.yul\":21332:21367   */\n      tag_323\n      jumpi\n        /* \"#utility.yul\":21347:21365   */\n      tag_323\n      tag_303\n      jump\t// in\n    tag_323:\n      pop\n        /* \"#utility.yul\":21381:21390   */\n      mod\n      swap1\n        /* \"#utility.yul\":21284:21396   */\n      jump\t// out\n        /* \"#utility.yul\":21401:21528   */\n    tag_299:\n        /* \"#utility.yul\":21462:21472   */\n      0x4e487b71\n        /* \"#utility.yul\":21457:21460   */\n      0xe0\n        /* \"#utility.yul\":21453:21473   */\n      shl\n        /* \"#utility.yul\":21450:21451   */\n      0x00\n        /* \"#utility.yul\":21443:21474   */\n      mstore\n        /* \"#utility.yul\":21493:21497   */\n      0x11\n        /* \"#utility.yul\":21490:21491   */\n      0x04\n        /* \"#utility.yul\":21483:21498   */\n      mstore\n        /* \"#utility.yul\":21517:21521   */\n      0x24\n        /* \"#utility.yul\":21514:21515   */\n      0x00\n        /* \"#utility.yul\":21507:21522   */\n      revert\n        /* \"#utility.yul\":21533:21660   */\n    tag_303:\n        /* \"#utility.yul\":21594:21604   */\n      0x4e487b71\n        /* \"#utility.yul\":21589:21592   */\n      0xe0\n        /* \"#utility.yul\":21585:21605   */\n      shl\n        /* \"#utility.yul\":21582:21583   */\n      0x00\n        /* \"#utility.yul\":21575:21606   */\n      mstore\n        /* \"#utility.yul\":21625:21629   */\n      0x12\n        /* \"#utility.yul\":21622:21623   */\n      0x04\n        /* \"#utility.yul\":21615:21630   */\n      mstore\n        /* \"#utility.yul\":21649:21653   */\n      0x24\n        /* \"#utility.yul\":21646:21647   */\n      0x00\n        /* \"#utility.yul\":21639:21654   */\n      revert\n        /* \"#utility.yul\":21665:21792   */\n    tag_39:\n        /* \"#utility.yul\":21726:21736   */\n      0x4e487b71\n        /* \"#utility.yul\":21721:21724   */\n      0xe0\n        /* \"#utility.yul\":21717:21737   */\n      shl\n        /* \"#utility.yul\":21714:21715   */\n      0x00\n        /* \"#utility.yul\":21707:21738   */\n      mstore\n        /* \"#utility.yul\":21757:21761   */\n      0x32\n        /* \"#utility.yul\":21754:21755   */\n      0x04\n        /* \"#utility.yul\":21747:21762   */\n      mstore\n        /* \"#utility.yul\":21781:21785   */\n      0x24\n        /* \"#utility.yul\":21778:21779   */\n      0x00\n        /* \"#utility.yul\":21771:21786   */\n      revert\n        /* \"#utility.yul\":21797:21924   */\n    tag_101:\n        /* \"#utility.yul\":21858:21868   */\n      0x4e487b71\n        /* \"#utility.yul\":21853:21856   */\n      0xe0\n        /* \"#utility.yul\":21849:21869   */\n      shl\n        /* \"#utility.yul\":21846:21847   */\n      0x00\n        /* \"#utility.yul\":21839:21870   */\n      mstore\n        /* \"#utility.yul\":21889:21893   */\n      0x41\n        /* \"#utility.yul\":21886:21887   */\n      0x04\n        /* \"#utility.yul\":21879:21894   */\n      mstore\n        /* \"#utility.yul\":21913:21917   */\n      0x24\n        /* \"#utility.yul\":21910:21911   */\n      0x00\n        /* \"#utility.yul\":21903:21918   */\n      revert\n    stop\n    data_0166d81d6c1aa60530a32cf67b3b5544dfbbea01b5fbe7fbf5703b5b4ecfc066 203c67207374726f6b653d222333303331333322207374726f6b652d77696474683d2235222066696c6c3d2275726c28234772616469656e74322922203e203c72656374206f6e636c69636b3d2268616e646c654e756d626572283129222072783d22372220783d2235302220793d22353330222077696474683d22383022206865696768743d223830222f3e203c72656374206f6e636c69636b3d2268616e646c654e756d626572283229222072783d22372220783d223135302220793d22353330222077696474683d22383022206865696768743d223830222f3e203c72656374206f6e636c69636b3d2268616e646c654e756d626572283329222072783d22372220783d223235302220793d22353330222077696474683d22383022206865696768743d223830222f3e203c72656374206f6e636c69636b3d2268616e646c654e756d626572283429222072783d22372220783d2235302220793d22343330222077696474683d22383022206865696768743d223830222f3e203c72656374206f6e636c69636b3d2268616e646c654e756d626572283529222072783d22372220783d223135302220793d22343330222077696474683d22383022206865696768743d223830222f3e203c72656374206f6e636c69636b3d2268616e646c654e756d626572283629222072783d22372220783d223235302220793d22343330222077696474683d22383022206865696768743d223830222f3e203c72656374206f6e636c69636b3d2268616e646c654e756d626572283729222072783d22372220783d2235302220793d22333330222077696474683d22383022206865696768743d223830222f3e203c72656374206f6e636c69636b3d2268616e646c654e756d626572283829222072783d22372220783d223135302220793d22333330222077696474683d22383022206865696768743d223830222f3e203c72656374206f6e636c69636b3d2268616e646c654e756d626572283929222072783d22372220783d223235302220793d22333330222077696474683d22383022206865696768743d223830222f3e203c72656374206f6e636c69636b3d2268616e646c654e756d626572283029222072783d22372220783d2235302220793d22363330222077696474683d22383022206865696768743d223830222f3e203c72656374206f6e636c69636b3d2268616e646c654e756d6265722873796d626f6c732e64656329222072783d22372220783d223135302220793d22363330222077696474683d22383022206865696768743d223830222f3e202f2f2e203c72656374206f6e636c69636b3d2268616e646c654f70286164642c2073796d626f6c732e61646429222072783d22372220783d223335302220793d22353330222077696474683d2231353022206865696768743d223830222f3e202f2f2b203c72656374206f6e636c69636b3d2268616e646c654f70287375622c2073796d626f6c732e73756229222072783d22372220783d223335302220793d22343330222077696474683d2231353022206865696768743d223830222f3e202f2f2d203c72656374206f6e636c69636b3d2268616e646c654f70286d756c2c2073796d626f6c732e6d756c29222072783d22372220783d223335302220793d22333330222077696474683d2231353022206865696768743d223830222f3e202f2f78203c72656374206f6e636c69636b3d2268616e646c654f70286469762c2073796d626f6c732e64697629222072783d22372220783d223335302220793d22323330222077696474683d2231353022206865696768743d223830222f3e202f2f202f203c72656374206f6e636c69636b3d2268616e646c654f70286d6f642c2073796d626f6c732e6d6f6429222072783d22372220783d223135302220793d22323330222077696474683d22383022206865696768743d223830222f3e203c72656374206f6e636c69636b3d2268616e646c654f7028706f772c2073796d626f6c732e706f7729222072783d22372220783d223235302220793d22323330222077696474683d22383022206865696768743d223830222f3e203c72656374206f6e636c69636b3d22636c65617253637265656e2829222066696c6c3d2275726c28234772616469656e743329222072783d22372220783d2235302220793d22323330222077696474683d22383022206865696768743d223830222f3e203c72656374206f6e636c69636b3d22657175616c732829222066696c6c3d2275726c28234772616469656e743129222072783d22372220783d223235302220793d22363330222077696474683d2232353022206865696768743d223830222f3e203c2f67203e\n    data_6e356c6433762ff4dc458b84769187fad17314db464d6d7dcb31e4b1ae35741d 222f3e203c73746f70206f66667365743d2231303025222073746f702d636f6c6f723d2223\n    data_7a5ace098b4317d9adc09a6826c4619430c8b3d39b2c152cc6a29aaa4a165c9a 3c73766720786d6c6e733d22687474703a2f2f7777772e77332e6f72672f323030302f7376672220786d6c6e733a786c696e6b3d22687474703a2f2f7777772e77332e6f72672f313939392f786c696e6b222076696577426f783d223020302035353020373630223e\n    data_84d8a590de33e00cbdc16e1f28c3506f5ec15c599fab9a6a4bcd575cc2f110ce 4142434445464748494a4b4c4d4e4f505152535455565758595a6162636465666768696a6b6c6d6e6f707172737475767778797a303132333435363738392b2f\n    data_8513231d7802466c4d092d131b9adcfbd9bc03e9441278029ff12c3502279be2 3c6720636c6173733d22627574746f6e223e203c74657874206f6e636c69636b3d22657175616c73282922207374726f6b653d226e6f6e652220783d223336302220793d22363835223e3d3c2f746578743e203c74657874206f6e636c69636b3d22636c65617253637265656e28292220783d2237312220793d22323835223e433c2f746578743e203c74657874206f6e636c69636b3d2268616e646c654e756d6265722831292220783d2237352220793d22353835223e313c2f746578743e203c74657874206f6e636c69636b3d2268616e646c654e756d6265722832292220783d223137352220793d22353835223e323c2f746578743e203c74657874206f6e636c69636b3d2268616e646c654e756d6265722833292220783d223237352220793d22353835223e333c2f746578743e203c74657874206f6e636c69636b3d2268616e646c654e756d6265722834292220783d2237352220793d22343835223e343c2f746578743e203c74657874206f6e636c69636b3d2268616e646c654e756d6265722835292220783d223137352220793d22343835223e353c2f746578743e203c74657874206f6e636c69636b3d2268616e646c654e756d6265722836292220783d223237352220793d22343835223e363c2f746578743e203c74657874206f6e636c69636b3d2268616e646c654e756d6265722837292220783d2237352220793d22333835223e373c2f746578743e203c74657874206f6e636c69636b3d2268616e646c654e756d6265722838292220783d223137352220793d22333835223e383c2f746578743e203c74657874206f6e636c69636b3d2268616e646c654e756d6265722839292220783d223237352220793d22333835223e393c2f746578743e203c74657874206f6e636c69636b3d2268616e646c654e756d6265722830292220783d2237352220793d22363835223e303c2f746578743e203c74657874206f6e636c69636b3d2268616e646c654e756d6265722873796d626f6c732e646563292220783d223138332220793d22363734223e2e3c2f746578743e203c74657874206f6e636c69636b3d2268616e646c654f70286164642c2073796d626f6c732e616464292220783d223430382220793d22353835223e2b3c2f746578743e203c74657874206f6e636c69636b3d2268616e646c654f70287375622c2073796d626f6c732e737562292220783d223431352220793d22343831223e2d3c2f746578743e203c74657874206f6e636c69636b3d2268616e646c654f70286d756c2c2073796d626f6c732e6d756c292220783d223431302220793d22333830223e783c2f746578743e203c74657874206f6e636c69636b3d2268616e646c654f70286469762c2073796d626f6c732e646976292220783d223431302220793d22323836223e2f3c2f746578743e203c74657874206f6e636c69636b3d2268616e646c654f70286d6f642c2073796d626f6c732e6d6f64292220783d223136352220793d22323835223e253c2f746578743e203c74657874206f6e636c69636b3d2268616e646c654f7028706f772c2073796d626f6c732e706f77292220783d223237352220793d22323933223e5e3c2f746578743e203c2f673e\n    data_8980008e256eb1a96cead8f85c588a0fe9126e56aa0e4ac21a29ba0692cb537c 3c73637269707420747970653d22746578742f6a617661736372697074223e3c215b43444154415b207661722073796d626f6c733d7b6d756c3a2278222c6469763a222f222c6d6f643a2225222c7375623a222d222c6164643a222b222c6465633a222e222c706f773a225e227d2c73637265656e4c617267653d646f63756d656e742e676574456c656d656e7442794964282273637265656e4c6172676522292c73637265656e546f703d646f63756d656e742e676574456c656d656e7442794964282273637265656e546f7022292c73637265656e54696e793d646f63756d656e742e676574456c656d656e7442794964282273637265656e54696e7922293b66756e6374696f6e2061646428652c74297b766172206e3d652b743b72657475726e2073697a65526573756c74286e292c6e7d66756e6374696f6e2073756228652c74297b766172206e3d652d743b72657475726e2073697a65526573756c74286e292c6e7d66756e6374696f6e206d756c28652c74297b766172206e3d652a743b72657475726e2073697a65526573756c74286e292c6e7d66756e6374696f6e2064697628652c74297b766172206e3d652f743b72657475726e2073697a65526573756c74286e292c6e7d66756e6374696f6e206d6f6428652c74297b766172206e3d6525743b72657475726e2073697a65526573756c74286e292c6e7d66756e6374696f6e20706f7728652c74297b766172206e3d652a2a743b72657475726e2073697a65526573756c74286e292c6e7d66756e6374696f6e20657175616c7328297b696628303d3d4e756d626572287365636f6e644e756d2926266f7065726174696f6e53796d3d3d73796d626f6c732e6469762972657475726e2073637265656e4c617267652e74657874436f6e74656e743d226572726f72222c766f6964287265616479546f436c6561723d2130293b66697273744e756d2e6c656e6774682b7365636f6e644e756d2e6c656e6774683c31393f73637265656e546f702e74657874436f6e74656e743d66697273744e756d2b2220222b6f7065726174696f6e53796d2b2220222b7365636f6e644e756d2b22203d223a66697273744e756d2e6c656e6774683c31393f287365636f6e644e756d3d7365636f6e644e756d2e736c69636528302c31392d66697273744e756d2e6c656e677468292c73637265656e546f702e74657874436f6e74656e743d66697273744e756d2b2220222b6f7065726174696f6e53796d2b2220222b7365636f6e644e756d2b222e2e2e203d22293a73637265656e546f702e74657874436f6e74656e743d66697273744e756d2e736c69636528302c3230292b222e2e2e203d222c66697273744e756d3d6f7065726174696f6e284e756d6265722866697273744e756d292c4e756d626572287365636f6e644e756d29292e746f537472696e6728292c7265616479546f436c6561723d21307d66756e6374696f6e2073697a65526573756c742865297b696628652e746f537472696e6728292e6c656e6774683c31332973637265656e4c617267652e7365744174747269627574652822636c617373222c226c6172676522292c73637265656e4c617267652e74657874436f6e74656e743d652e746f537472696e6728293b656c73657b6966282128652e746f537472696e6728292e6c656e6774683c3234292972657475726e2073637265656e4c617267652e74657874436f6e74656e743d652e746f537472696e6728292e736c69636528302c3234292b222e2e2e222c766f69642873637265656e54696e792e74657874436f6e74656e743d22746f6f206c6172676522293b73637265656e4c617267652e7365744174747269627574652822636c617373222c22736d616c6c22292c73637265656e4c617267652e74657874436f6e74656e743d652e746f537472696e6728297d7d66756e6374696f6e20636c65617253637265656e28297b73637265656e4c617267652e74657874436f6e74656e743d22222c73637265656e546f702e74657874436f6e74656e743d22222c6e756d436f756e7465723d312c66697273744e756d3d22222c7365636f6e644e756d3d22222c6f7065726174696f6e3d6e756c6c2c6f7065726174696f6e53796d3d22222c73637265656e54696e792e74657874436f6e74656e743d22222c7265616479546f436c6561723d21317d66756e6374696f6e2068616e646c654e756d6265722865297b6966287265616479546f436c6561722626636c65617253637265656e28292c313d3d6e756d436f756e7465722969662866697273744e756d2e6c656e6774683c31332973637265656e4c617267652e7365744174747269627574652822636c617373222c226c6172676522292c73637265656e4c617267652e74657874436f6e74656e743d66697273744e756d2b652e746f537472696e6728292c66697273744e756d2b3d652e746f537472696e6728293b656c73657b696628212866697273744e756d2e6c656e6774683c3234292972657475726e20766f69642873637265656e54696e792e74657874436f6e74656e743d22746f6f206c6172676522293b73637265656e4c617267652e7365744174747269627574652822636c617373222c22736d616c6c22292c73637265656e4c617267652e74657874436f6e74656e743d66697273744e756d2b652e746f537472696e6728292c66697273744e756d2b3d652e746f537472696e6728297d656c7365206966287365636f6e644e756d2e6c656e6774683c31332973637265656e4c617267652e7365744174747269627574652822636c617373222c226c6172676522292c73637265656e4c617267652e74657874436f6e74656e743d7365636f6e644e756d2b652e746f537472696e6728292c7365636f6e644e756d2b3d652e746f537472696e6728293b656c73657b69662821287365636f6e644e756d2e6c656e6774683c3234292972657475726e20766f69642873637265656e54696e792e74657874436f6e74656e743d22746f6f206c6172676522293b73637265656e4c617267652e7365744174747269627574652822636c617373222c22736d616c6c22292c73637265656e4c617267652e74657874436f6e74656e743d7365636f6e644e756d2b652e746f537472696e6728292c7365636f6e644e756d2b3d652e746f537472696e6728297d7d66756e6374696f6e2068616e646c654f7028652c74297b7365636f6e644e756d3d22222c73637265656e4c617267652e74657874436f6e74656e743d22222c6f7065726174696f6e53796d3d742e746f537472696e6728292c66697273744e756d2e6c656e6774683c31393f73637265656e546f702e74657874436f6e74656e743d66697273744e756d2b2220222b6f7065726174696f6e53796d3a73637265656e546f702e74657874436f6e74656e743d66697273744e756d2e736c69636528302c3230292b222e2e2e203d222c6f7065726174696f6e3d652c6e756d436f756e7465723d327d6e756d436f756e7465723d312c66697273744e756d3d22222c7365636f6e644e756d3d22222c6f7065726174696f6e3d6e756c6c2c6f7065726174696f6e53796d3d22222c7265616479546f436c6561723d21313b205d5d3e3c2f7363726970743e203c2f7376673e\n    data_d394c0642c8d37f9343a9a92f5cf93c0c5adde1d3f001e2367291655d15bb59e 22207374726f6b652d77696474683d223322203e203c726563742069643d22626f72646572222066696c6c3d2275726c28234772616469656e743429222072783d22372220783d22302220793d2230222077696474683d2235353022206865696768743d22373630222f3e203c7265637420636c6173733d22627574746f6e4261636b67726f756e642220202072783d22372220783d2233302220793d223330222077696474683d2234393022206865696768743d22373030222f3e203c726563742069643d2273637265656e426f72646572222072783d2237222066696c6c3d2275726c28234772616469656e7432292220783d2234352220793d223530222077696474683d2234363022206865696768743d22313530222f3e203c7265637420636c6173733d2273637265656e22202072783d22372220783d2236352220793d223730222077696474683d2234323022206865696768743d22313130222f3e203c726563742072783d223722207374726f6b652d77696474683d2235222066696c6c3d226e6f6e652220783d2231302220793d223130222077696474683d2235333022206865696768743d22373430222f3e203c2f673e\n    data_dc0ebeee3a775c3d054d2b04f292428f024151a09629099d68a58bacf745ab91 223e203c746578742069643d2273637265656e4c617267652220783d2237302220793d22313630223e3c2f746578743e203c746578742069643d2273637265656e546f702220783d2237302220793d223130352220636c6173733d226c69676874223e3c2f746578743e203c746578742069643d2273637265656e54696e792220783d223433302220793d223137302220636c6173733d2274696e79223e3c2f746578743e203c2f67203e\n    data_ece1fe403cb44847d22010c3b8b124c8ae24fa3257971ea73f08d0ed9e6255cc 222078313d2231222078323d2230222079313d2230222079323d2230223e203c73746f70206f66667365743d223025222073746f702d636f6c6f723d2223\n\n    auxdata: 0xa2646970667358221220805f22617be08fbad1986e8641cd68debc1070f05fcec6374ad5ebba8f5977d264736f6c63430008070033\n}\n",
				"bytecode": {
					"linkReferences": {},
					"object": "612e7361003a600b82828239805160001a60731461002d57634e487b7160e01b600052600060045260246000fd5b30600052607381538281f3fe730000000000000000000000000000000000000000301460806040526004361061006c5760003560e01c80633ce616611461007157806396ac761a1461009a578063b491605c146100ad578063c32d0289146100c0578063c98b4b31146100d3578063d7be44a9146100e6575b600080fd5b61008461007f366004610d21565b6100f9565b6040516100919190611381565b60405180910390f35b6100846100a8366004610d21565b610310565b6100846100bb366004610d21565b610388565b6100846100ce366004610cd5565b6103ed565b6100846100e1366004610c7f565b61050b565b6100846100f4366004610d21565b610561565b60606000604051806040016040528060148152602001731e3634b732b0b923b930b234b2b73a1034b21e9160611b815250905060006040518060600160405280603e8152602001612e00603e913990506000604051806060016040528060258152602001611bc86025913960408051808201825260168152751110179f101e17b634b732b0b923b930b234b2b73a1f60511b6020808301919091528851805190820151935194955091936000936101bc9389938993919289929091899101610ecb565b60405160208183030381529060405290506000858589602001516000600281106101e8576101e86114e1565b6020020151868b60200151600160028110610205576102056114e1565b60200201518760405160200161022096959493929190610f69565b6040516020818303038152906040529050600086868a6040015160006002811061024c5761024c6114e1565b602002015160408c01518890600160200201518860405160200161027596959493929190610fa3565b6040516020818303038152906040529050600087878b606001516000600281106102a1576102a16114e1565b602002015160608d0151899060016020020151896040516020016102ca96959493929190610fdd565b6040516020818303038152906040529050838383836040516020016102f29493929190610db4565b60405160208183030381529060405298505050505050505050919050565b606060006040518060400160405280600b81526020016a3c672066696c6c3d20222360a81b815250905060006040518060e0016040528060ab8152602001612d5560ab91399050818460e001518260405160200161037093929190610d71565b60405160208183030381529060405292505050919050565b606060006040518060400160405280600d81526020016c3c6720207374726f6b653d222360981b81525090506000604051806101e001604052806101b98152602001612b9c6101b991399050818460a001518260405160200161037093929190610d71565b60606000610401858585610120015161050b565b9050600061040e846100f9565b9050600061041b85610388565b9050600061042886610310565b9050600061043587610561565b905060006104da6040518060a0016040528060698152602001611bed60699139838787604051806106e001604052806106ba815260200161150e6106ba913988604051806104c0016040528061049e8152602001611c9661049e91398d60405180610aa00160405280610a688152602001612134610a6891396040516020016104c699989796959493929190610e0b565b6040516020818303038152906040526105a8565b9050806040516020016104ed919061133c565b60405160208183030381529060405296505050505050509392505050565b60606000610523856001600160a01b031660146106fb565b90506000610530856108a1565b905083828260405160200161054793929190611017565b604051602081830303815290604052925050509392505050565b60608160c0015182610120015183608001518461010001518560a0015160405160200161059295949392919061112d565b6040516020818303038152906040529050919050565b60608151600014156105c857505060408051602081019091526000815290565b6000604051806060016040528060408152602001611c5660409139905060006003845160026105f791906113dd565b61060191906113f5565b61060c906004611409565b6001600160401b03811115610623576106236114f7565b6040519080825280601f01601f19166020018201604052801561064d576020820181803683370190505b509050600182016020820185865187015b808210156106b9576003820191508151603f8160121c168501518453600184019350603f81600c1c168501518453600184019350603f8160061c168501518453600184019350603f811685015184535060018301925061065e565b50506003865106600181146106d557600281146106e8576106f0565b603d6001830353603d60028303536106f0565b603d60018303535b509195945050505050565b6060600061070a836002611409565b6107159060026113dd565b6001600160401b0381111561072c5761072c6114f7565b6040519080825280601f01601f191660200182016040528015610756576020820181803683370190505b509050600360fc1b81600081518110610771576107716114e1565b60200101906001600160f81b031916908160001a905350600f60fb1b816001815181106107a0576107a06114e1565b60200101906001600160f81b031916908160001a90535060006107c4846002611409565b6107cf9060016113dd565b90505b6001811115610847576f181899199a1a9b1b9c1cb0b131b232b360811b85600f1660108110610803576108036114e1565b1a60f81b828281518110610819576108196114e1565b60200101906001600160f81b031916908160001a90535060049490941c936108408161146f565b90506107d2565b50831561089a5760405162461bcd60e51b815260206004820181905260248201527f537472696e67733a20686578206c656e67746820696e73756666696369656e74604482015260640160405180910390fd5b9392505050565b6060816108c55750506040805180820190915260018152600360fc1b602082015290565b8160005b81156108ef57806108d981611486565b91506108e89050600a836113f5565b91506108c9565b6000816001600160401b03811115610909576109096114f7565b6040519080825280601f01601f191660200182016040528015610933576020820181803683370190505b5090505b841561099e57610948600183611428565b9150610955600a866114a1565b6109609060306113dd565b60f81b818381518110610975576109756114e1565b60200101906001600160f81b031916908160001a905350610997600a866113f5565b9450610937565b949350505050565b80356001600160a01b03811681146109bd57600080fd5b919050565b600082601f8301126109d357600080fd5b604051604081016001600160401b0382821081831117156109f6576109f66114f7565b816040528291508486604087011115610a0e57600080fd5b6000805b6002811015610a4b57823584811115610a29578283fd5b610a358a828b01610a58565b8652506020948501949290920191600101610a12565b5093979650505050505050565b600082601f830112610a6957600080fd5b81356001600160401b0380821115610a8357610a836114f7565b604051601f8301601f19908116603f01168101908282118183101715610aab57610aab6114f7565b81604052838152866020858801011115610ac457600080fd5b836020870160208301376000602085830101528094505050505092915050565b60006101408284031215610af757600080fd5b610aff6113b4565b905081356001600160401b0380821115610b1857600080fd5b610b24858386016109c2565b83526020840135915080821115610b3a57600080fd5b610b46858386016109c2565b60208401526040840135915080821115610b5f57600080fd5b610b6b858386016109c2565b60408401526060840135915080821115610b8457600080fd5b610b90858386016109c2565b60608401526080840135915080821115610ba957600080fd5b610bb585838601610a58565b608084015260a0840135915080821115610bce57600080fd5b610bda85838601610a58565b60a084015260c0840135915080821115610bf357600080fd5b610bff85838601610a58565b60c084015260e0840135915080821115610c1857600080fd5b610c2485838601610a58565b60e084015261010091508184013581811115610c3f57600080fd5b610c4b86828701610a58565b838501525061012091508184013581811115610c6657600080fd5b610c7286828701610a58565b8385015250505092915050565b600080600060608486031215610c9457600080fd5b610c9d846109a6565b92506020840135915060408401356001600160401b03811115610cbf57600080fd5b610ccb86828701610a58565b9150509250925092565b600080600060608486031215610cea57600080fd5b610cf3846109a6565b92506020840135915060408401356001600160401b03811115610d1557600080fd5b610ccb86828701610ae4565b600060208284031215610d3357600080fd5b81356001600160401b03811115610d4957600080fd5b61099e84828501610ae4565b60008151610d6781856020860161143f565b9290920192915050565b60008451610d8381846020890161143f565b845190830190610d9781836020890161143f565b8451910190610daa81836020880161143f565b0195945050505050565b60008551610dc6818460208a0161143f565b855190830190610dda818360208a0161143f565b8551910190610ded81836020890161143f565b8451910190610e0081836020880161143f565b019695505050505050565b60008a51610e1d818460208f0161143f565b8a51610e2f8183860160208f0161143f565b8a519184010190610e44818360208e0161143f565b8951610e568183850160208e0161143f565b8951929091010190610e6c818360208c0161143f565b8751610e7e8183850160208c0161143f565b8751929091010190610e94818360208a0161143f565b8551910190610ea781836020890161143f565b8451610eb9818385016020890161143f565b9101019b9a5050505050505050505050565b600087516020610ede8285838d0161143f565b8184019150684772616469656e743160b81b825260098951610f0581838601858e0161143f565b8951930192610f1981838601858d0161143f565b8851930192610f2d81838601858c0161143f565b8751930192610f4181838601858b0161143f565b8651930192610f5581838601858a0161143f565b929092019091019998505050505050505050565b600087516020610f7c8285838d0161143f565b81840191506823b930b234b2b73a1960b91b825260098951610f0581838601858e0161143f565b600087516020610fb68285838d0161143f565b8184019150684772616469656e743360b81b825260098951610f0581838601858e0161143f565b600087516020610ff08285838d0161143f565b81840191506811dc98591a595b9d0d60ba1b825260098951610f0581838601858e0161143f565b6c3c746578742066696c6c3d222360981b8152835160009061104081600d85016020890161143f565b7f2220783d223139302220793d223734332220636c6173733d226d657461646174600d918401918201526230911f60e91b602d82015266027bbb732b91d160cd1b6030820152845161109981603784016020890161143f565b7f3c2f746578743e203c746578742066696c6c3d22236438653165302220783d22603792909101918201527f33302220793d223734332220636c6173733d226d65746164617461223e000000605782015283516110fd81607484016020880161143f565b6502f31303030360d41b60749290910191820152661e17ba32bc3a1f60c91b607a82015260810195945050505050565b7f3c7374796c653e202e6c69676874207b20666f6e743a206974616c696320333081527f70782073616e732d73657269663b207d202e74696e79207b20666f6e743a203860208201527f70782073616e732d73657269663b20207d202e6c61726765207b20666f6e743a60408201527f20626f6c6420353070782073616e732d73657269663b207d202e736d616c6c2060608201527f7b20666f6e743a20626f6c6420333070782073616e732d73657269663b207d2060808201527f2e627574746f6e207b20666f6e743a20626f6c6420353070782073616e732d7360a08201526c657269663b2066696c6c3a202360981b60c0820152600086516112398160cd850160208b0161143f565b7f7d202e6d657461646174617b20666f6e743a20626f6c6420313270782073616e60cd918401918201526f732d73657269663b2066696c6c3a202360801b60ed82015261133061131a6113146112f06112ea6112cd6112c761129e60fd89018f610d55565b7f207d202e627574746f6e4261636b67726f756e647b66696c6c3a2023000000008152601c0190565b8c610d55565b707d202e73637265656e7b66696c6c3a202360781b815260110190565b89610d55565b777d202e626f7264657253747269707b7374726f6b653a202360401b815260180190565b86610d55565b693e901e17b9ba3cb6329f60b11b8152600a0190565b98975050505050505050565b7f646174613a696d6167652f7376672b786d6c3b6261736536342c00000000000081526000825161137481601a85016020870161143f565b91909101601a0192915050565b60208152600082518060208401526113a081604085016020870161143f565b601f01601f19169190910160400192915050565b60405161014081016001600160401b03811182821017156113d7576113d76114f7565b60405290565b600082198211156113f0576113f06114b5565b500190565b600082611404576114046114cb565b500490565b6000816000190483118215151615611423576114236114b5565b500290565b60008282101561143a5761143a6114b5565b500390565b60005b8381101561145a578181015183820152602001611442565b83811115611469576000848401525b50505050565b60008161147e5761147e6114b5565b506000190190565b600060001982141561149a5761149a6114b5565b5060010190565b6000826114b0576114b06114cb565b500690565b634e487b7160e01b600052601160045260246000fd5b634e487b7160e01b600052601260045260246000fd5b634e487b7160e01b600052603260045260246000fd5b634e487b7160e01b600052604160045260246000fdfe203c67207374726f6b653d222333303331333322207374726f6b652d77696474683d2235222066696c6c3d2275726c28234772616469656e74322922203e203c72656374206f6e636c69636b3d2268616e646c654e756d626572283129222072783d22372220783d2235302220793d22353330222077696474683d22383022206865696768743d223830222f3e203c72656374206f6e636c69636b3d2268616e646c654e756d626572283229222072783d22372220783d223135302220793d22353330222077696474683d22383022206865696768743d223830222f3e203c72656374206f6e636c69636b3d2268616e646c654e756d626572283329222072783d22372220783d223235302220793d22353330222077696474683d22383022206865696768743d223830222f3e203c72656374206f6e636c69636b3d2268616e646c654e756d626572283429222072783d22372220783d2235302220793d22343330222077696474683d22383022206865696768743d223830222f3e203c72656374206f6e636c69636b3d2268616e646c654e756d626572283529222072783d22372220783d223135302220793d22343330222077696474683d22383022206865696768743d223830222f3e203c72656374206f6e636c69636b3d2268616e646c654e756d626572283629222072783d22372220783d223235302220793d22343330222077696474683d22383022206865696768743d223830222f3e203c72656374206f6e636c69636b3d2268616e646c654e756d626572283729222072783d22372220783d2235302220793d22333330222077696474683d22383022206865696768743d223830222f3e203c72656374206f6e636c69636b3d2268616e646c654e756d626572283829222072783d22372220783d223135302220793d22333330222077696474683d22383022206865696768743d223830222f3e203c72656374206f6e636c69636b3d2268616e646c654e756d626572283929222072783d22372220783d223235302220793d22333330222077696474683d22383022206865696768743d223830222f3e203c72656374206f6e636c69636b3d2268616e646c654e756d626572283029222072783d22372220783d2235302220793d22363330222077696474683d22383022206865696768743d223830222f3e203c72656374206f6e636c69636b3d2268616e646c654e756d6265722873796d626f6c732e64656329222072783d22372220783d223135302220793d22363330222077696474683d22383022206865696768743d223830222f3e202f2f2e203c72656374206f6e636c69636b3d2268616e646c654f70286164642c2073796d626f6c732e61646429222072783d22372220783d223335302220793d22353330222077696474683d2231353022206865696768743d223830222f3e202f2f2b203c72656374206f6e636c69636b3d2268616e646c654f70287375622c2073796d626f6c732e73756229222072783d22372220783d223335302220793d22343330222077696474683d2231353022206865696768743d223830222f3e202f2f2d203c72656374206f6e636c69636b3d2268616e646c654f70286d756c2c2073796d626f6c732e6d756c29222072783d22372220783d223335302220793d22333330222077696474683d2231353022206865696768743d223830222f3e202f2f78203c72656374206f6e636c69636b3d2268616e646c654f70286469762c2073796d626f6c732e64697629222072783d22372220783d223335302220793d22323330222077696474683d2231353022206865696768743d223830222f3e202f2f202f203c72656374206f6e636c69636b3d2268616e646c654f70286d6f642c2073796d626f6c732e6d6f6429222072783d22372220783d223135302220793d22323330222077696474683d22383022206865696768743d223830222f3e203c72656374206f6e636c69636b3d2268616e646c654f7028706f772c2073796d626f6c732e706f7729222072783d22372220783d223235302220793d22323330222077696474683d22383022206865696768743d223830222f3e203c72656374206f6e636c69636b3d22636c65617253637265656e2829222066696c6c3d2275726c28234772616469656e743329222072783d22372220783d2235302220793d22323330222077696474683d22383022206865696768743d223830222f3e203c72656374206f6e636c69636b3d22657175616c732829222066696c6c3d2275726c28234772616469656e743129222072783d22372220783d223235302220793d22363330222077696474683d2232353022206865696768743d223830222f3e203c2f67203e222f3e203c73746f70206f66667365743d2231303025222073746f702d636f6c6f723d22233c73766720786d6c6e733d22687474703a2f2f7777772e77332e6f72672f323030302f7376672220786d6c6e733a786c696e6b3d22687474703a2f2f7777772e77332e6f72672f313939392f786c696e6b222076696577426f783d223020302035353020373630223e4142434445464748494a4b4c4d4e4f505152535455565758595a6162636465666768696a6b6c6d6e6f707172737475767778797a303132333435363738392b2f3c6720636c6173733d22627574746f6e223e203c74657874206f6e636c69636b3d22657175616c73282922207374726f6b653d226e6f6e652220783d223336302220793d22363835223e3d3c2f746578743e203c74657874206f6e636c69636b3d22636c65617253637265656e28292220783d2237312220793d22323835223e433c2f746578743e203c74657874206f6e636c69636b3d2268616e646c654e756d6265722831292220783d2237352220793d22353835223e313c2f746578743e203c74657874206f6e636c69636b3d2268616e646c654e756d6265722832292220783d223137352220793d22353835223e323c2f746578743e203c74657874206f6e636c69636b3d2268616e646c654e756d6265722833292220783d223237352220793d22353835223e333c2f746578743e203c74657874206f6e636c69636b3d2268616e646c654e756d6265722834292220783d2237352220793d22343835223e343c2f746578743e203c74657874206f6e636c69636b3d2268616e646c654e756d6265722835292220783d223137352220793d22343835223e353c2f746578743e203c74657874206f6e636c69636b3d2268616e646c654e756d6265722836292220783d223237352220793d22343835223e363c2f746578743e203c74657874206f6e636c69636b3d2268616e646c654e756d6265722837292220783d2237352220793d22333835223e373c2f746578743e203c74657874206f6e636c69636b3d2268616e646c654e756d6265722838292220783d223137352220793d22333835223e383c2f746578743e203c74657874206f6e636c69636b3d2268616e646c654e756d6265722839292220783d223237352220793d22333835223e393c2f746578743e203c74657874206f6e636c69636b3d2268616e646c654e756d6265722830292220783d2237352220793d22363835223e303c2f746578743e203c74657874206f6e636c69636b3d2268616e646c654e756d6265722873796d626f6c732e646563292220783d223138332220793d22363734223e2e3c2f746578743e203c74657874206f6e636c69636b3d2268616e646c654f70286164642c2073796d626f6c732e616464292220783d223430382220793d22353835223e2b3c2f746578743e203c74657874206f6e636c69636b3d2268616e646c654f70287375622c2073796d626f6c732e737562292220783d223431352220793d22343831223e2d3c2f746578743e203c74657874206f6e636c69636b3d2268616e646c654f70286d756c2c2073796d626f6c732e6d756c292220783d223431302220793d22333830223e783c2f746578743e203c74657874206f6e636c69636b3d2268616e646c654f70286469762c2073796d626f6c732e646976292220783d223431302220793d22323836223e2f3c2f746578743e203c74657874206f6e636c69636b3d2268616e646c654f70286d6f642c2073796d626f6c732e6d6f64292220783d223136352220793d22323835223e253c2f746578743e203c74657874206f6e636c69636b3d2268616e646c654f7028706f772c2073796d626f6c732e706f77292220783d223237352220793d22323933223e5e3c2f746578743e203c2f673e3c73637269707420747970653d22746578742f6a617661736372697074223e3c215b43444154415b207661722073796d626f6c733d7b6d756c3a2278222c6469763a222f222c6d6f643a2225222c7375623a222d222c6164643a222b222c6465633a222e222c706f773a225e227d2c73637265656e4c617267653d646f63756d656e742e676574456c656d656e7442794964282273637265656e4c6172676522292c73637265656e546f703d646f63756d656e742e676574456c656d656e7442794964282273637265656e546f7022292c73637265656e54696e793d646f63756d656e742e676574456c656d656e7442794964282273637265656e54696e7922293b66756e6374696f6e2061646428652c74297b766172206e3d652b743b72657475726e2073697a65526573756c74286e292c6e7d66756e6374696f6e2073756228652c74297b766172206e3d652d743b72657475726e2073697a65526573756c74286e292c6e7d66756e6374696f6e206d756c28652c74297b766172206e3d652a743b72657475726e2073697a65526573756c74286e292c6e7d66756e6374696f6e2064697628652c74297b766172206e3d652f743b72657475726e2073697a65526573756c74286e292c6e7d66756e6374696f6e206d6f6428652c74297b766172206e3d6525743b72657475726e2073697a65526573756c74286e292c6e7d66756e6374696f6e20706f7728652c74297b766172206e3d652a2a743b72657475726e2073697a65526573756c74286e292c6e7d66756e6374696f6e20657175616c7328297b696628303d3d4e756d626572287365636f6e644e756d2926266f7065726174696f6e53796d3d3d73796d626f6c732e6469762972657475726e2073637265656e4c617267652e74657874436f6e74656e743d226572726f72222c766f6964287265616479546f436c6561723d2130293b66697273744e756d2e6c656e6774682b7365636f6e644e756d2e6c656e6774683c31393f73637265656e546f702e74657874436f6e74656e743d66697273744e756d2b2220222b6f7065726174696f6e53796d2b2220222b7365636f6e644e756d2b22203d223a66697273744e756d2e6c656e6774683c31393f287365636f6e644e756d3d7365636f6e644e756d2e736c69636528302c31392d66697273744e756d2e6c656e677468292c73637265656e546f702e74657874436f6e74656e743d66697273744e756d2b2220222b6f7065726174696f6e53796d2b2220222b7365636f6e644e756d2b222e2e2e203d22293a73637265656e546f702e74657874436f6e74656e743d66697273744e756d2e736c69636528302c3230292b222e2e2e203d222c66697273744e756d3d6f7065726174696f6e284e756d6265722866697273744e756d292c4e756d626572287365636f6e644e756d29292e746f537472696e6728292c7265616479546f436c6561723d21307d66756e6374696f6e2073697a65526573756c742865297b696628652e746f537472696e6728292e6c656e6774683c31332973637265656e4c617267652e7365744174747269627574652822636c617373222c226c6172676522292c73637265656e4c617267652e74657874436f6e74656e743d652e746f537472696e6728293b656c73657b6966282128652e746f537472696e6728292e6c656e6774683c3234292972657475726e2073637265656e4c617267652e74657874436f6e74656e743d652e746f537472696e6728292e736c69636528302c3234292b222e2e2e222c766f69642873637265656e54696e792e74657874436f6e74656e743d22746f6f206c6172676522293b73637265656e4c617267652e7365744174747269627574652822636c617373222c22736d616c6c22292c73637265656e4c617267652e74657874436f6e74656e743d652e746f537472696e6728297d7d66756e6374696f6e20636c65617253637265656e28297b73637265656e4c617267652e74657874436f6e74656e743d22222c73637265656e546f702e74657874436f6e74656e743d22222c6e756d436f756e7465723d312c66697273744e756d3d22222c7365636f6e644e756d3d22222c6f7065726174696f6e3d6e756c6c2c6f7065726174696f6e53796d3d22222c73637265656e54696e792e74657874436f6e74656e743d22222c7265616479546f436c6561723d21317d66756e6374696f6e2068616e646c654e756d6265722865297b6966287265616479546f436c6561722626636c65617253637265656e28292c313d3d6e756d436f756e7465722969662866697273744e756d2e6c656e6774683c31332973637265656e4c617267652e7365744174747269627574652822636c617373222c226c6172676522292c73637265656e4c617267652e74657874436f6e74656e743d66697273744e756d2b652e746f537472696e6728292c66697273744e756d2b3d652e746f537472696e6728293b656c73657b696628212866697273744e756d2e6c656e6774683c3234292972657475726e20766f69642873637265656e54696e792e74657874436f6e74656e743d22746f6f206c6172676522293b73637265656e4c617267652e7365744174747269627574652822636c617373222c22736d616c6c22292c73637265656e4c617267652e74657874436f6e74656e743d66697273744e756d2b652e746f537472696e6728292c66697273744e756d2b3d652e746f537472696e6728297d656c7365206966287365636f6e644e756d2e6c656e6774683c31332973637265656e4c617267652e7365744174747269627574652822636c617373222c226c6172676522292c73637265656e4c617267652e74657874436f6e74656e743d7365636f6e644e756d2b652e746f537472696e6728292c7365636f6e644e756d2b3d652e746f537472696e6728293b656c73657b69662821287365636f6e644e756d2e6c656e6774683c3234292972657475726e20766f69642873637265656e54696e792e74657874436f6e74656e743d22746f6f206c6172676522293b73637265656e4c617267652e7365744174747269627574652822636c617373222c22736d616c6c22292c73637265656e4c617267652e74657874436f6e74656e743d7365636f6e644e756d2b652e746f537472696e6728292c7365636f6e644e756d2b3d652e746f537472696e6728297d7d66756e6374696f6e2068616e646c654f7028652c74297b7365636f6e644e756d3d22222c73637265656e4c617267652e74657874436f6e74656e743d22222c6f7065726174696f6e53796d3d742e746f537472696e6728292c66697273744e756d2e6c656e6774683c31393f73637265656e546f702e74657874436f6e74656e743d66697273744e756d2b2220222b6f7065726174696f6e53796d3a73637265656e546f702e74657874436f6e74656e743d66697273744e756d2e736c69636528302c3230292b222e2e2e203d222c6f7065726174696f6e3d652c6e756d436f756e7465723d327d6e756d436f756e7465723d312c66697273744e756d3d22222c7365636f6e644e756d3d22222c6f7065726174696f6e3d6e756c6c2c6f7065726174696f6e53796d3d22222c7265616479546f436c6561723d21313b205d5d3e3c2f7363726970743e203c2f7376673e22207374726f6b652d77696474683d223322203e203c726563742069643d22626f72646572222066696c6c3d2275726c28234772616469656e743429222072783d22372220783d22302220793d2230222077696474683d2235353022206865696768743d22373630222f3e203c7265637420636c6173733d22627574746f6e4261636b67726f756e642220202072783d22372220783d2233302220793d223330222077696474683d2234393022206865696768743d22373030222f3e203c726563742069643d2273637265656e426f72646572222072783d2237222066696c6c3d2275726c28234772616469656e7432292220783d2234352220793d223530222077696474683d2234363022206865696768743d22313530222f3e203c7265637420636c6173733d2273637265656e22202072783d22372220783d2236352220793d223730222077696474683d2234323022206865696768743d22313130222f3e203c726563742072783d223722207374726f6b652d77696474683d2235222066696c6c3d226e6f6e652220783d2231302220793d223130222077696474683d2235333022206865696768743d22373430222f3e203c2f673e223e203c746578742069643d2273637265656e4c617267652220783d2237302220793d22313630223e3c2f746578743e203c746578742069643d2273637265656e546f702220783d2237302220793d223130352220636c6173733d226c69676874223e3c2f746578743e203c746578742069643d2273637265656e54696e792220783d223433302220793d223137302220636c6173733d2274696e79223e3c2f746578743e203c2f67203e222078313d2231222078323d2230222079313d2230222079323d2230223e203c73746f70206f66667365743d223025222073746f702d636f6c6f723d2223a2646970667358221220805f22617be08fbad1986e8641cd68debc1070f05fcec6374ad5ebba8f5977d264736f6c63430008070033",
					"opcodes": "PUSH2 0x2E73 PUSH2 0x3A PUSH1 0xB DUP3 DUP3 DUP3 CODECOPY DUP1 MLOAD PUSH1 0x0 BYTE PUSH1 0x73 EQ PUSH2 0x2D JUMPI PUSH4 0x4E487B71 PUSH1 0xE0 SHL PUSH1 0x0 MSTORE PUSH1 0x0 PUSH1 0x4 MSTORE PUSH1 0x24 PUSH1 0x0 REVERT JUMPDEST ADDRESS PUSH1 0x0 MSTORE PUSH1 0x73 DUP2 MSTORE8 DUP3 DUP2 RETURN INVALID PUSH20 0x0 ADDRESS EQ PUSH1 0x80 PUSH1 0x40 MSTORE PUSH1 0x4 CALLDATASIZE LT PUSH2 0x6C JUMPI PUSH1 0x0 CALLDATALOAD PUSH1 0xE0 SHR DUP1 PUSH4 0x3CE61661 EQ PUSH2 0x71 JUMPI DUP1 PUSH4 0x96AC761A EQ PUSH2 0x9A JUMPI DUP1 PUSH4 0xB491605C EQ PUSH2 0xAD JUMPI DUP1 PUSH4 0xC32D0289 EQ PUSH2 0xC0 JUMPI DUP1 PUSH4 0xC98B4B31 EQ PUSH2 0xD3 JUMPI DUP1 PUSH4 0xD7BE44A9 EQ PUSH2 0xE6 JUMPI JUMPDEST PUSH1 0x0 DUP1 REVERT JUMPDEST PUSH2 0x84 PUSH2 0x7F CALLDATASIZE PUSH1 0x4 PUSH2 0xD21 JUMP JUMPDEST PUSH2 0xF9 JUMP JUMPDEST PUSH1 0x40 MLOAD PUSH2 0x91 SWAP2 SWAP1 PUSH2 0x1381 JUMP JUMPDEST PUSH1 0x40 MLOAD DUP1 SWAP2 SUB SWAP1 RETURN JUMPDEST PUSH2 0x84 PUSH2 0xA8 CALLDATASIZE PUSH1 0x4 PUSH2 0xD21 JUMP JUMPDEST PUSH2 0x310 JUMP JUMPDEST PUSH2 0x84 PUSH2 0xBB CALLDATASIZE PUSH1 0x4 PUSH2 0xD21 JUMP JUMPDEST PUSH2 0x388 JUMP JUMPDEST PUSH2 0x84 PUSH2 0xCE CALLDATASIZE PUSH1 0x4 PUSH2 0xCD5 JUMP JUMPDEST PUSH2 0x3ED JUMP JUMPDEST PUSH2 0x84 PUSH2 0xE1 CALLDATASIZE PUSH1 0x4 PUSH2 0xC7F JUMP JUMPDEST PUSH2 0x50B JUMP JUMPDEST PUSH2 0x84 PUSH2 0xF4 CALLDATASIZE PUSH1 0x4 PUSH2 0xD21 JUMP JUMPDEST PUSH2 0x561 JUMP JUMPDEST PUSH1 0x60 PUSH1 0x0 PUSH1 0x40 MLOAD DUP1 PUSH1 0x40 ADD PUSH1 0x40 MSTORE DUP1 PUSH1 0x14 DUP2 MSTORE PUSH1 0x20 ADD PUSH20 0x1E3634B732B0B923B930B234B2B73A1034B21E91 PUSH1 0x61 SHL DUP2 MSTORE POP SWAP1 POP PUSH1 0x0 PUSH1 0x40 MLOAD DUP1 PUSH1 0x60 ADD PUSH1 0x40 MSTORE DUP1 PUSH1 0x3E DUP2 MSTORE PUSH1 0x20 ADD PUSH2 0x2E00 PUSH1 0x3E SWAP2 CODECOPY SWAP1 POP PUSH1 0x0 PUSH1 0x40 MLOAD DUP1 PUSH1 0x60 ADD PUSH1 0x40 MSTORE DUP1 PUSH1 0x25 DUP2 MSTORE PUSH1 0x20 ADD PUSH2 0x1BC8 PUSH1 0x25 SWAP2 CODECOPY PUSH1 0x40 DUP1 MLOAD DUP1 DUP3 ADD DUP3 MSTORE PUSH1 0x16 DUP2 MSTORE PUSH22 0x1110179F101E17B634B732B0B923B930B234B2B73A1F PUSH1 0x51 SHL PUSH1 0x20 DUP1 DUP4 ADD SWAP2 SWAP1 SWAP2 MSTORE DUP9 MLOAD DUP1 MLOAD SWAP1 DUP3 ADD MLOAD SWAP4 MLOAD SWAP5 SWAP6 POP SWAP2 SWAP4 PUSH1 0x0 SWAP4 PUSH2 0x1BC SWAP4 DUP10 SWAP4 DUP10 SWAP4 SWAP2 SWAP3 DUP10 SWAP3 SWAP1 SWAP2 DUP10 SWAP2 ADD PUSH2 0xECB JUMP JUMPDEST PUSH1 0x40 MLOAD PUSH1 0x20 DUP2 DUP4 SUB SUB DUP2 MSTORE SWAP1 PUSH1 0x40 MSTORE SWAP1 POP PUSH1 0x0 DUP6 DUP6 DUP10 PUSH1 0x20 ADD MLOAD PUSH1 0x0 PUSH1 0x2 DUP2 LT PUSH2 0x1E8 JUMPI PUSH2 0x1E8 PUSH2 0x14E1 JUMP JUMPDEST PUSH1 0x20 MUL ADD MLOAD DUP7 DUP12 PUSH1 0x20 ADD MLOAD PUSH1 0x1 PUSH1 0x2 DUP2 LT PUSH2 0x205 JUMPI PUSH2 0x205 PUSH2 0x14E1 JUMP JUMPDEST PUSH1 0x20 MUL ADD MLOAD DUP8 PUSH1 0x40 MLOAD PUSH1 0x20 ADD PUSH2 0x220 SWAP7 SWAP6 SWAP5 SWAP4 SWAP3 SWAP2 SWAP1 PUSH2 0xF69 JUMP JUMPDEST PUSH1 0x40 MLOAD PUSH1 0x20 DUP2 DUP4 SUB SUB DUP2 MSTORE SWAP1 PUSH1 0x40 MSTORE SWAP1 POP PUSH1 0x0 DUP7 DUP7 DUP11 PUSH1 0x40 ADD MLOAD PUSH1 0x0 PUSH1 0x2 DUP2 LT PUSH2 0x24C JUMPI PUSH2 0x24C PUSH2 0x14E1 JUMP JUMPDEST PUSH1 0x20 MUL ADD MLOAD PUSH1 0x40 DUP13 ADD MLOAD DUP9 SWAP1 PUSH1 0x1 PUSH1 0x20 MUL ADD MLOAD DUP9 PUSH1 0x40 MLOAD PUSH1 0x20 ADD PUSH2 0x275 SWAP7 SWAP6 SWAP5 SWAP4 SWAP3 SWAP2 SWAP1 PUSH2 0xFA3 JUMP JUMPDEST PUSH1 0x40 MLOAD PUSH1 0x20 DUP2 DUP4 SUB SUB DUP2 MSTORE SWAP1 PUSH1 0x40 MSTORE SWAP1 POP PUSH1 0x0 DUP8 DUP8 DUP12 PUSH1 0x60 ADD MLOAD PUSH1 0x0 PUSH1 0x2 DUP2 LT PUSH2 0x2A1 JUMPI PUSH2 0x2A1 PUSH2 0x14E1 JUMP JUMPDEST PUSH1 0x20 MUL ADD MLOAD PUSH1 0x60 DUP14 ADD MLOAD DUP10 SWAP1 PUSH1 0x1 PUSH1 0x20 MUL ADD MLOAD DUP10 PUSH1 0x40 MLOAD PUSH1 0x20 ADD PUSH2 0x2CA SWAP7 SWAP6 SWAP5 SWAP4 SWAP3 SWAP2 SWAP1 PUSH2 0xFDD JUMP JUMPDEST PUSH1 0x40 MLOAD PUSH1 0x20 DUP2 DUP4 SUB SUB DUP2 MSTORE SWAP1 PUSH1 0x40 MSTORE SWAP1 POP DUP4 DUP4 DUP4 DUP4 PUSH1 0x40 MLOAD PUSH1 0x20 ADD PUSH2 0x2F2 SWAP5 SWAP4 SWAP3 SWAP2 SWAP1 PUSH2 0xDB4 JUMP JUMPDEST PUSH1 0x40 MLOAD PUSH1 0x20 DUP2 DUP4 SUB SUB DUP2 MSTORE SWAP1 PUSH1 0x40 MSTORE SWAP9 POP POP POP POP POP POP POP POP POP SWAP2 SWAP1 POP JUMP JUMPDEST PUSH1 0x60 PUSH1 0x0 PUSH1 0x40 MLOAD DUP1 PUSH1 0x40 ADD PUSH1 0x40 MSTORE DUP1 PUSH1 0xB DUP2 MSTORE PUSH1 0x20 ADD PUSH11 0x3C672066696C6C3D202223 PUSH1 0xA8 SHL DUP2 MSTORE POP SWAP1 POP PUSH1 0x0 PUSH1 0x40 MLOAD DUP1 PUSH1 0xE0 ADD PUSH1 0x40 MSTORE DUP1 PUSH1 0xAB DUP2 MSTORE PUSH1 0x20 ADD PUSH2 0x2D55 PUSH1 0xAB SWAP2 CODECOPY SWAP1 POP DUP2 DUP5 PUSH1 0xE0 ADD MLOAD DUP3 PUSH1 0x40 MLOAD PUSH1 0x20 ADD PUSH2 0x370 SWAP4 SWAP3 SWAP2 SWAP1 PUSH2 0xD71 JUMP JUMPDEST PUSH1 0x40 MLOAD PUSH1 0x20 DUP2 DUP4 SUB SUB DUP2 MSTORE SWAP1 PUSH1 0x40 MSTORE SWAP3 POP POP POP SWAP2 SWAP1 POP JUMP JUMPDEST PUSH1 0x60 PUSH1 0x0 PUSH1 0x40 MLOAD DUP1 PUSH1 0x40 ADD PUSH1 0x40 MSTORE DUP1 PUSH1 0xD DUP2 MSTORE PUSH1 0x20 ADD PUSH13 0x3C6720207374726F6B653D2223 PUSH1 0x98 SHL DUP2 MSTORE POP SWAP1 POP PUSH1 0x0 PUSH1 0x40 MLOAD DUP1 PUSH2 0x1E0 ADD PUSH1 0x40 MSTORE DUP1 PUSH2 0x1B9 DUP2 MSTORE PUSH1 0x20 ADD PUSH2 0x2B9C PUSH2 0x1B9 SWAP2 CODECOPY SWAP1 POP DUP2 DUP5 PUSH1 0xA0 ADD MLOAD DUP3 PUSH1 0x40 MLOAD PUSH1 0x20 ADD PUSH2 0x370 SWAP4 SWAP3 SWAP2 SWAP1 PUSH2 0xD71 JUMP JUMPDEST PUSH1 0x60 PUSH1 0x0 PUSH2 0x401 DUP6 DUP6 DUP6 PUSH2 0x120 ADD MLOAD PUSH2 0x50B JUMP JUMPDEST SWAP1 POP PUSH1 0x0 PUSH2 0x40E DUP5 PUSH2 0xF9 JUMP JUMPDEST SWAP1 POP PUSH1 0x0 PUSH2 0x41B DUP6 PUSH2 0x388 JUMP JUMPDEST SWAP1 POP PUSH1 0x0 PUSH2 0x428 DUP7 PUSH2 0x310 JUMP JUMPDEST SWAP1 POP PUSH1 0x0 PUSH2 0x435 DUP8 PUSH2 0x561 JUMP JUMPDEST SWAP1 POP PUSH1 0x0 PUSH2 0x4DA PUSH1 0x40 MLOAD DUP1 PUSH1 0xA0 ADD PUSH1 0x40 MSTORE DUP1 PUSH1 0x69 DUP2 MSTORE PUSH1 0x20 ADD PUSH2 0x1BED PUSH1 0x69 SWAP2 CODECOPY DUP4 DUP8 DUP8 PUSH1 0x40 MLOAD DUP1 PUSH2 0x6E0 ADD PUSH1 0x40 MSTORE DUP1 PUSH2 0x6BA DUP2 MSTORE PUSH1 0x20 ADD PUSH2 0x150E PUSH2 0x6BA SWAP2 CODECOPY DUP9 PUSH1 0x40 MLOAD DUP1 PUSH2 0x4C0 ADD PUSH1 0x40 MSTORE DUP1 PUSH2 0x49E DUP2 MSTORE PUSH1 0x20 ADD PUSH2 0x1C96 PUSH2 0x49E SWAP2 CODECOPY DUP14 PUSH1 0x40 MLOAD DUP1 PUSH2 0xAA0 ADD PUSH1 0x40 MSTORE DUP1 PUSH2 0xA68 DUP2 MSTORE PUSH1 0x20 ADD PUSH2 0x2134 PUSH2 0xA68 SWAP2 CODECOPY PUSH1 0x40 MLOAD PUSH1 0x20 ADD PUSH2 0x4C6 SWAP10 SWAP9 SWAP8 SWAP7 SWAP6 SWAP5 SWAP4 SWAP3 SWAP2 SWAP1 PUSH2 0xE0B JUMP JUMPDEST PUSH1 0x40 MLOAD PUSH1 0x20 DUP2 DUP4 SUB SUB DUP2 MSTORE SWAP1 PUSH1 0x40 MSTORE PUSH2 0x5A8 JUMP JUMPDEST SWAP1 POP DUP1 PUSH1 0x40 MLOAD PUSH1 0x20 ADD PUSH2 0x4ED SWAP2 SWAP1 PUSH2 0x133C JUMP JUMPDEST PUSH1 0x40 MLOAD PUSH1 0x20 DUP2 DUP4 SUB SUB DUP2 MSTORE SWAP1 PUSH1 0x40 MSTORE SWAP7 POP POP POP POP POP POP POP SWAP4 SWAP3 POP POP POP JUMP JUMPDEST PUSH1 0x60 PUSH1 0x0 PUSH2 0x523 DUP6 PUSH1 0x1 PUSH1 0x1 PUSH1 0xA0 SHL SUB AND PUSH1 0x14 PUSH2 0x6FB JUMP JUMPDEST SWAP1 POP PUSH1 0x0 PUSH2 0x530 DUP6 PUSH2 0x8A1 JUMP JUMPDEST SWAP1 POP DUP4 DUP3 DUP3 PUSH1 0x40 MLOAD PUSH1 0x20 ADD PUSH2 0x547 SWAP4 SWAP3 SWAP2 SWAP1 PUSH2 0x1017 JUMP JUMPDEST PUSH1 0x40 MLOAD PUSH1 0x20 DUP2 DUP4 SUB SUB DUP2 MSTORE SWAP1 PUSH1 0x40 MSTORE SWAP3 POP POP POP SWAP4 SWAP3 POP POP POP JUMP JUMPDEST PUSH1 0x60 DUP2 PUSH1 0xC0 ADD MLOAD DUP3 PUSH2 0x120 ADD MLOAD DUP4 PUSH1 0x80 ADD MLOAD DUP5 PUSH2 0x100 ADD MLOAD DUP6 PUSH1 0xA0 ADD MLOAD PUSH1 0x40 MLOAD PUSH1 0x20 ADD PUSH2 0x592 SWAP6 SWAP5 SWAP4 SWAP3 SWAP2 SWAP1 PUSH2 0x112D JUMP JUMPDEST PUSH1 0x40 MLOAD PUSH1 0x20 DUP2 DUP4 SUB SUB DUP2 MSTORE SWAP1 PUSH1 0x40 MSTORE SWAP1 POP SWAP2 SWAP1 POP JUMP JUMPDEST PUSH1 0x60 DUP2 MLOAD PUSH1 0x0 EQ ISZERO PUSH2 0x5C8 JUMPI POP POP PUSH1 0x40 DUP1 MLOAD PUSH1 0x20 DUP2 ADD SWAP1 SWAP2 MSTORE PUSH1 0x0 DUP2 MSTORE SWAP1 JUMP JUMPDEST PUSH1 0x0 PUSH1 0x40 MLOAD DUP1 PUSH1 0x60 ADD PUSH1 0x40 MSTORE DUP1 PUSH1 0x40 DUP2 MSTORE PUSH1 0x20 ADD PUSH2 0x1C56 PUSH1 0x40 SWAP2 CODECOPY SWAP1 POP PUSH1 0x0 PUSH1 0x3 DUP5 MLOAD PUSH1 0x2 PUSH2 0x5F7 SWAP2 SWAP1 PUSH2 0x13DD JUMP JUMPDEST PUSH2 0x601 SWAP2 SWAP1 PUSH2 0x13F5 JUMP JUMPDEST PUSH2 0x60C SWAP1 PUSH1 0x4 PUSH2 0x1409 JUMP JUMPDEST PUSH1 0x1 PUSH1 0x1 PUSH1 0x40 SHL SUB DUP2 GT ISZERO PUSH2 0x623 JUMPI PUSH2 0x623 PUSH2 0x14F7 JUMP JUMPDEST PUSH1 0x40 MLOAD SWAP1 DUP1 DUP3 MSTORE DUP1 PUSH1 0x1F ADD PUSH1 0x1F NOT AND PUSH1 0x20 ADD DUP3 ADD PUSH1 0x40 MSTORE DUP1 ISZERO PUSH2 0x64D JUMPI PUSH1 0x20 DUP3 ADD DUP2 DUP1 CALLDATASIZE DUP4 CALLDATACOPY ADD SWAP1 POP JUMPDEST POP SWAP1 POP PUSH1 0x1 DUP3 ADD PUSH1 0x20 DUP3 ADD DUP6 DUP7 MLOAD DUP8 ADD JUMPDEST DUP1 DUP3 LT ISZERO PUSH2 0x6B9 JUMPI PUSH1 0x3 DUP3 ADD SWAP2 POP DUP2 MLOAD PUSH1 0x3F DUP2 PUSH1 0x12 SHR AND DUP6 ADD MLOAD DUP5 MSTORE8 PUSH1 0x1 DUP5 ADD SWAP4 POP PUSH1 0x3F DUP2 PUSH1 0xC SHR AND DUP6 ADD MLOAD DUP5 MSTORE8 PUSH1 0x1 DUP5 ADD SWAP4 POP PUSH1 0x3F DUP2 PUSH1 0x6 SHR AND DUP6 ADD MLOAD DUP5 MSTORE8 PUSH1 0x1 DUP5 ADD SWAP4 POP PUSH1 0x3F DUP2 AND DUP6 ADD MLOAD DUP5 MSTORE8 POP PUSH1 0x1 DUP4 ADD SWAP3 POP PUSH2 0x65E JUMP JUMPDEST POP POP PUSH1 0x3 DUP7 MLOAD MOD PUSH1 0x1 DUP2 EQ PUSH2 0x6D5 JUMPI PUSH1 0x2 DUP2 EQ PUSH2 0x6E8 JUMPI PUSH2 0x6F0 JUMP JUMPDEST PUSH1 0x3D PUSH1 0x1 DUP4 SUB MSTORE8 PUSH1 0x3D PUSH1 0x2 DUP4 SUB MSTORE8 PUSH2 0x6F0 JUMP JUMPDEST PUSH1 0x3D PUSH1 0x1 DUP4 SUB MSTORE8 JUMPDEST POP SWAP2 SWAP6 SWAP5 POP POP POP POP POP JUMP JUMPDEST PUSH1 0x60 PUSH1 0x0 PUSH2 0x70A DUP4 PUSH1 0x2 PUSH2 0x1409 JUMP JUMPDEST PUSH2 0x715 SWAP1 PUSH1 0x2 PUSH2 0x13DD JUMP JUMPDEST PUSH1 0x1 PUSH1 0x1 PUSH1 0x40 SHL SUB DUP2 GT ISZERO PUSH2 0x72C JUMPI PUSH2 0x72C PUSH2 0x14F7 JUMP JUMPDEST PUSH1 0x40 MLOAD SWAP1 DUP1 DUP3 MSTORE DUP1 PUSH1 0x1F ADD PUSH1 0x1F NOT AND PUSH1 0x20 ADD DUP3 ADD PUSH1 0x40 MSTORE DUP1 ISZERO PUSH2 0x756 JUMPI PUSH1 0x20 DUP3 ADD DUP2 DUP1 CALLDATASIZE DUP4 CALLDATACOPY ADD SWAP1 POP JUMPDEST POP SWAP1 POP PUSH1 0x3 PUSH1 0xFC SHL DUP2 PUSH1 0x0 DUP2 MLOAD DUP2 LT PUSH2 0x771 JUMPI PUSH2 0x771 PUSH2 0x14E1 JUMP JUMPDEST PUSH1 0x20 ADD ADD SWAP1 PUSH1 0x1 PUSH1 0x1 PUSH1 0xF8 SHL SUB NOT AND SWAP1 DUP2 PUSH1 0x0 BYTE SWAP1 MSTORE8 POP PUSH1 0xF PUSH1 0xFB SHL DUP2 PUSH1 0x1 DUP2 MLOAD DUP2 LT PUSH2 0x7A0 JUMPI PUSH2 0x7A0 PUSH2 0x14E1 JUMP JUMPDEST PUSH1 0x20 ADD ADD SWAP1 PUSH1 0x1 PUSH1 0x1 PUSH1 0xF8 SHL SUB NOT AND SWAP1 DUP2 PUSH1 0x0 BYTE SWAP1 MSTORE8 POP PUSH1 0x0 PUSH2 0x7C4 DUP5 PUSH1 0x2 PUSH2 0x1409 JUMP JUMPDEST PUSH2 0x7CF SWAP1 PUSH1 0x1 PUSH2 0x13DD JUMP JUMPDEST SWAP1 POP JUMPDEST PUSH1 0x1 DUP2 GT ISZERO PUSH2 0x847 JUMPI PUSH16 0x181899199A1A9B1B9C1CB0B131B232B3 PUSH1 0x81 SHL DUP6 PUSH1 0xF AND PUSH1 0x10 DUP2 LT PUSH2 0x803 JUMPI PUSH2 0x803 PUSH2 0x14E1 JUMP JUMPDEST BYTE PUSH1 0xF8 SHL DUP3 DUP3 DUP2 MLOAD DUP2 LT PUSH2 0x819 JUMPI PUSH2 0x819 PUSH2 0x14E1 JUMP JUMPDEST PUSH1 0x20 ADD ADD SWAP1 PUSH1 0x1 PUSH1 0x1 PUSH1 0xF8 SHL SUB NOT AND SWAP1 DUP2 PUSH1 0x0 BYTE SWAP1 MSTORE8 POP PUSH1 0x4 SWAP5 SWAP1 SWAP5 SHR SWAP4 PUSH2 0x840 DUP2 PUSH2 0x146F JUMP JUMPDEST SWAP1 POP PUSH2 0x7D2 JUMP JUMPDEST POP DUP4 ISZERO PUSH2 0x89A JUMPI PUSH1 0x40 MLOAD PUSH3 0x461BCD PUSH1 0xE5 SHL DUP2 MSTORE PUSH1 0x20 PUSH1 0x4 DUP3 ADD DUP2 SWAP1 MSTORE PUSH1 0x24 DUP3 ADD MSTORE PUSH32 0x537472696E67733A20686578206C656E67746820696E73756666696369656E74 PUSH1 0x44 DUP3 ADD MSTORE PUSH1 0x64 ADD PUSH1 0x40 MLOAD DUP1 SWAP2 SUB SWAP1 REVERT JUMPDEST SWAP4 SWAP3 POP POP POP JUMP JUMPDEST PUSH1 0x60 DUP2 PUSH2 0x8C5 JUMPI POP POP PUSH1 0x40 DUP1 MLOAD DUP1 DUP3 ADD SWAP1 SWAP2 MSTORE PUSH1 0x1 DUP2 MSTORE PUSH1 0x3 PUSH1 0xFC SHL PUSH1 0x20 DUP3 ADD MSTORE SWAP1 JUMP JUMPDEST DUP2 PUSH1 0x0 JUMPDEST DUP2 ISZERO PUSH2 0x8EF JUMPI DUP1 PUSH2 0x8D9 DUP2 PUSH2 0x1486 JUMP JUMPDEST SWAP2 POP PUSH2 0x8E8 SWAP1 POP PUSH1 0xA DUP4 PUSH2 0x13F5 JUMP JUMPDEST SWAP2 POP PUSH2 0x8C9 JUMP JUMPDEST PUSH1 0x0 DUP2 PUSH1 0x1 PUSH1 0x1 PUSH1 0x40 SHL SUB DUP2 GT ISZERO PUSH2 0x909 JUMPI PUSH2 0x909 PUSH2 0x14F7 JUMP JUMPDEST PUSH1 0x40 MLOAD SWAP1 DUP1 DUP3 MSTORE DUP1 PUSH1 0x1F ADD PUSH1 0x1F NOT AND PUSH1 0x20 ADD DUP3 ADD PUSH1 0x40 MSTORE DUP1 ISZERO PUSH2 0x933 JUMPI PUSH1 0x20 DUP3 ADD DUP2 DUP1 CALLDATASIZE DUP4 CALLDATACOPY ADD SWAP1 POP JUMPDEST POP SWAP1 POP JUMPDEST DUP5 ISZERO PUSH2 0x99E JUMPI PUSH2 0x948 PUSH1 0x1 DUP4 PUSH2 0x1428 JUMP JUMPDEST SWAP2 POP PUSH2 0x955 PUSH1 0xA DUP7 PUSH2 0x14A1 JUMP JUMPDEST PUSH2 0x960 SWAP1 PUSH1 0x30 PUSH2 0x13DD JUMP JUMPDEST PUSH1 0xF8 SHL DUP2 DUP4 DUP2 MLOAD DUP2 LT PUSH2 0x975 JUMPI PUSH2 0x975 PUSH2 0x14E1 JUMP JUMPDEST PUSH1 0x20 ADD ADD SWAP1 PUSH1 0x1 PUSH1 0x1 PUSH1 0xF8 SHL SUB NOT AND SWAP1 DUP2 PUSH1 0x0 BYTE SWAP1 MSTORE8 POP PUSH2 0x997 PUSH1 0xA DUP7 PUSH2 0x13F5 JUMP JUMPDEST SWAP5 POP PUSH2 0x937 JUMP JUMPDEST SWAP5 SWAP4 POP POP POP POP JUMP JUMPDEST DUP1 CALLDATALOAD PUSH1 0x1 PUSH1 0x1 PUSH1 0xA0 SHL SUB DUP2 AND DUP2 EQ PUSH2 0x9BD JUMPI PUSH1 0x0 DUP1 REVERT JUMPDEST SWAP2 SWAP1 POP JUMP JUMPDEST PUSH1 0x0 DUP3 PUSH1 0x1F DUP4 ADD SLT PUSH2 0x9D3 JUMPI PUSH1 0x0 DUP1 REVERT JUMPDEST PUSH1 0x40 MLOAD PUSH1 0x40 DUP2 ADD PUSH1 0x1 PUSH1 0x1 PUSH1 0x40 SHL SUB DUP3 DUP3 LT DUP2 DUP4 GT OR ISZERO PUSH2 0x9F6 JUMPI PUSH2 0x9F6 PUSH2 0x14F7 JUMP JUMPDEST DUP2 PUSH1 0x40 MSTORE DUP3 SWAP2 POP DUP5 DUP7 PUSH1 0x40 DUP8 ADD GT ISZERO PUSH2 0xA0E JUMPI PUSH1 0x0 DUP1 REVERT JUMPDEST PUSH1 0x0 DUP1 JUMPDEST PUSH1 0x2 DUP2 LT ISZERO PUSH2 0xA4B JUMPI DUP3 CALLDATALOAD DUP5 DUP2 GT ISZERO PUSH2 0xA29 JUMPI DUP3 DUP4 REVERT JUMPDEST PUSH2 0xA35 DUP11 DUP3 DUP12 ADD PUSH2 0xA58 JUMP JUMPDEST DUP7 MSTORE POP PUSH1 0x20 SWAP5 DUP6 ADD SWAP5 SWAP3 SWAP1 SWAP3 ADD SWAP2 PUSH1 0x1 ADD PUSH2 0xA12 JUMP JUMPDEST POP SWAP4 SWAP8 SWAP7 POP POP POP POP POP POP POP JUMP JUMPDEST PUSH1 0x0 DUP3 PUSH1 0x1F DUP4 ADD SLT PUSH2 0xA69 JUMPI PUSH1 0x0 DUP1 REVERT JUMPDEST DUP2 CALLDATALOAD PUSH1 0x1 PUSH1 0x1 PUSH1 0x40 SHL SUB DUP1 DUP3 GT ISZERO PUSH2 0xA83 JUMPI PUSH2 0xA83 PUSH2 0x14F7 JUMP JUMPDEST PUSH1 0x40 MLOAD PUSH1 0x1F DUP4 ADD PUSH1 0x1F NOT SWAP1 DUP2 AND PUSH1 0x3F ADD AND DUP2 ADD SWAP1 DUP3 DUP3 GT DUP2 DUP4 LT OR ISZERO PUSH2 0xAAB JUMPI PUSH2 0xAAB PUSH2 0x14F7 JUMP JUMPDEST DUP2 PUSH1 0x40 MSTORE DUP4 DUP2 MSTORE DUP7 PUSH1 0x20 DUP6 DUP9 ADD ADD GT ISZERO PUSH2 0xAC4 JUMPI PUSH1 0x0 DUP1 REVERT JUMPDEST DUP4 PUSH1 0x20 DUP8 ADD PUSH1 0x20 DUP4 ADD CALLDATACOPY PUSH1 0x0 PUSH1 0x20 DUP6 DUP4 ADD ADD MSTORE DUP1 SWAP5 POP POP POP POP POP SWAP3 SWAP2 POP POP JUMP JUMPDEST PUSH1 0x0 PUSH2 0x140 DUP3 DUP5 SUB SLT ISZERO PUSH2 0xAF7 JUMPI PUSH1 0x0 DUP1 REVERT JUMPDEST PUSH2 0xAFF PUSH2 0x13B4 JUMP JUMPDEST SWAP1 POP DUP2 CALLDATALOAD PUSH1 0x1 PUSH1 0x1 PUSH1 0x40 SHL SUB DUP1 DUP3 GT ISZERO PUSH2 0xB18 JUMPI PUSH1 0x0 DUP1 REVERT JUMPDEST PUSH2 0xB24 DUP6 DUP4 DUP7 ADD PUSH2 0x9C2 JUMP JUMPDEST DUP4 MSTORE PUSH1 0x20 DUP5 ADD CALLDATALOAD SWAP2 POP DUP1 DUP3 GT ISZERO PUSH2 0xB3A JUMPI PUSH1 0x0 DUP1 REVERT JUMPDEST PUSH2 0xB46 DUP6 DUP4 DUP7 ADD PUSH2 0x9C2 JUMP JUMPDEST PUSH1 0x20 DUP5 ADD MSTORE PUSH1 0x40 DUP5 ADD CALLDATALOAD SWAP2 POP DUP1 DUP3 GT ISZERO PUSH2 0xB5F JUMPI PUSH1 0x0 DUP1 REVERT JUMPDEST PUSH2 0xB6B DUP6 DUP4 DUP7 ADD PUSH2 0x9C2 JUMP JUMPDEST PUSH1 0x40 DUP5 ADD MSTORE PUSH1 0x60 DUP5 ADD CALLDATALOAD SWAP2 POP DUP1 DUP3 GT ISZERO PUSH2 0xB84 JUMPI PUSH1 0x0 DUP1 REVERT JUMPDEST PUSH2 0xB90 DUP6 DUP4 DUP7 ADD PUSH2 0x9C2 JUMP JUMPDEST PUSH1 0x60 DUP5 ADD MSTORE PUSH1 0x80 DUP5 ADD CALLDATALOAD SWAP2 POP DUP1 DUP3 GT ISZERO PUSH2 0xBA9 JUMPI PUSH1 0x0 DUP1 REVERT JUMPDEST PUSH2 0xBB5 DUP6 DUP4 DUP7 ADD PUSH2 0xA58 JUMP JUMPDEST PUSH1 0x80 DUP5 ADD MSTORE PUSH1 0xA0 DUP5 ADD CALLDATALOAD SWAP2 POP DUP1 DUP3 GT ISZERO PUSH2 0xBCE JUMPI PUSH1 0x0 DUP1 REVERT JUMPDEST PUSH2 0xBDA DUP6 DUP4 DUP7 ADD PUSH2 0xA58 JUMP JUMPDEST PUSH1 0xA0 DUP5 ADD MSTORE PUSH1 0xC0 DUP5 ADD CALLDATALOAD SWAP2 POP DUP1 DUP3 GT ISZERO PUSH2 0xBF3 JUMPI PUSH1 0x0 DUP1 REVERT JUMPDEST PUSH2 0xBFF DUP6 DUP4 DUP7 ADD PUSH2 0xA58 JUMP JUMPDEST PUSH1 0xC0 DUP5 ADD MSTORE PUSH1 0xE0 DUP5 ADD CALLDATALOAD SWAP2 POP DUP1 DUP3 GT ISZERO PUSH2 0xC18 JUMPI PUSH1 0x0 DUP1 REVERT JUMPDEST PUSH2 0xC24 DUP6 DUP4 DUP7 ADD PUSH2 0xA58 JUMP JUMPDEST PUSH1 0xE0 DUP5 ADD MSTORE PUSH2 0x100 SWAP2 POP DUP2 DUP5 ADD CALLDATALOAD DUP2 DUP2 GT ISZERO PUSH2 0xC3F JUMPI PUSH1 0x0 DUP1 REVERT JUMPDEST PUSH2 0xC4B DUP7 DUP3 DUP8 ADD PUSH2 0xA58 JUMP JUMPDEST DUP4 DUP6 ADD MSTORE POP PUSH2 0x120 SWAP2 POP DUP2 DUP5 ADD CALLDATALOAD DUP2 DUP2 GT ISZERO PUSH2 0xC66 JUMPI PUSH1 0x0 DUP1 REVERT JUMPDEST PUSH2 0xC72 DUP7 DUP3 DUP8 ADD PUSH2 0xA58 JUMP JUMPDEST DUP4 DUP6 ADD MSTORE POP POP POP SWAP3 SWAP2 POP POP JUMP JUMPDEST PUSH1 0x0 DUP1 PUSH1 0x0 PUSH1 0x60 DUP5 DUP7 SUB SLT ISZERO PUSH2 0xC94 JUMPI PUSH1 0x0 DUP1 REVERT JUMPDEST PUSH2 0xC9D DUP5 PUSH2 0x9A6 JUMP JUMPDEST SWAP3 POP PUSH1 0x20 DUP5 ADD CALLDATALOAD SWAP2 POP PUSH1 0x40 DUP5 ADD CALLDATALOAD PUSH1 0x1 PUSH1 0x1 PUSH1 0x40 SHL SUB DUP2 GT ISZERO PUSH2 0xCBF JUMPI PUSH1 0x0 DUP1 REVERT JUMPDEST PUSH2 0xCCB DUP7 DUP3 DUP8 ADD PUSH2 0xA58 JUMP JUMPDEST SWAP2 POP POP SWAP3 POP SWAP3 POP SWAP3 JUMP JUMPDEST PUSH1 0x0 DUP1 PUSH1 0x0 PUSH1 0x60 DUP5 DUP7 SUB SLT ISZERO PUSH2 0xCEA JUMPI PUSH1 0x0 DUP1 REVERT JUMPDEST PUSH2 0xCF3 DUP5 PUSH2 0x9A6 JUMP JUMPDEST SWAP3 POP PUSH1 0x20 DUP5 ADD CALLDATALOAD SWAP2 POP PUSH1 0x40 DUP5 ADD CALLDATALOAD PUSH1 0x1 PUSH1 0x1 PUSH1 0x40 SHL SUB DUP2 GT ISZERO PUSH2 0xD15 JUMPI PUSH1 0x0 DUP1 REVERT JUMPDEST PUSH2 0xCCB DUP7 DUP3 DUP8 ADD PUSH2 0xAE4 JUMP JUMPDEST PUSH1 0x0 PUSH1 0x20 DUP3 DUP5 SUB SLT ISZERO PUSH2 0xD33 JUMPI PUSH1 0x0 DUP1 REVERT JUMPDEST DUP2 CALLDATALOAD PUSH1 0x1 PUSH1 0x1 PUSH1 0x40 SHL SUB DUP2 GT ISZERO PUSH2 0xD49 JUMPI PUSH1 0x0 DUP1 REVERT JUMPDEST PUSH2 0x99E DUP5 DUP3 DUP6 ADD PUSH2 0xAE4 JUMP JUMPDEST PUSH1 0x0 DUP2 MLOAD PUSH2 0xD67 DUP2 DUP6 PUSH1 0x20 DUP7 ADD PUSH2 0x143F JUMP JUMPDEST SWAP3 SWAP1 SWAP3 ADD SWAP3 SWAP2 POP POP JUMP JUMPDEST PUSH1 0x0 DUP5 MLOAD PUSH2 0xD83 DUP2 DUP5 PUSH1 0x20 DUP10 ADD PUSH2 0x143F JUMP JUMPDEST DUP5 MLOAD SWAP1 DUP4 ADD SWAP1 PUSH2 0xD97 DUP2 DUP4 PUSH1 0x20 DUP10 ADD PUSH2 0x143F JUMP JUMPDEST DUP5 MLOAD SWAP2 ADD SWAP1 PUSH2 0xDAA DUP2 DUP4 PUSH1 0x20 DUP9 ADD PUSH2 0x143F JUMP JUMPDEST ADD SWAP6 SWAP5 POP POP POP POP POP JUMP JUMPDEST PUSH1 0x0 DUP6 MLOAD PUSH2 0xDC6 DUP2 DUP5 PUSH1 0x20 DUP11 ADD PUSH2 0x143F JUMP JUMPDEST DUP6 MLOAD SWAP1 DUP4 ADD SWAP1 PUSH2 0xDDA DUP2 DUP4 PUSH1 0x20 DUP11 ADD PUSH2 0x143F JUMP JUMPDEST DUP6 MLOAD SWAP2 ADD SWAP1 PUSH2 0xDED DUP2 DUP4 PUSH1 0x20 DUP10 ADD PUSH2 0x143F JUMP JUMPDEST DUP5 MLOAD SWAP2 ADD SWAP1 PUSH2 0xE00 DUP2 DUP4 PUSH1 0x20 DUP9 ADD PUSH2 0x143F JUMP JUMPDEST ADD SWAP7 SWAP6 POP POP POP POP POP POP JUMP JUMPDEST PUSH1 0x0 DUP11 MLOAD PUSH2 0xE1D DUP2 DUP5 PUSH1 0x20 DUP16 ADD PUSH2 0x143F JUMP JUMPDEST DUP11 MLOAD PUSH2 0xE2F DUP2 DUP4 DUP7 ADD PUSH1 0x20 DUP16 ADD PUSH2 0x143F JUMP JUMPDEST DUP11 MLOAD SWAP2 DUP5 ADD ADD SWAP1 PUSH2 0xE44 DUP2 DUP4 PUSH1 0x20 DUP15 ADD PUSH2 0x143F JUMP JUMPDEST DUP10 MLOAD PUSH2 0xE56 DUP2 DUP4 DUP6 ADD PUSH1 0x20 DUP15 ADD PUSH2 0x143F JUMP JUMPDEST DUP10 MLOAD SWAP3 SWAP1 SWAP2 ADD ADD SWAP1 PUSH2 0xE6C DUP2 DUP4 PUSH1 0x20 DUP13 ADD PUSH2 0x143F JUMP JUMPDEST DUP8 MLOAD PUSH2 0xE7E DUP2 DUP4 DUP6 ADD PUSH1 0x20 DUP13 ADD PUSH2 0x143F JUMP JUMPDEST DUP8 MLOAD SWAP3 SWAP1 SWAP2 ADD ADD SWAP1 PUSH2 0xE94 DUP2 DUP4 PUSH1 0x20 DUP11 ADD PUSH2 0x143F JUMP JUMPDEST DUP6 MLOAD SWAP2 ADD SWAP1 PUSH2 0xEA7 DUP2 DUP4 PUSH1 0x20 DUP10 ADD PUSH2 0x143F JUMP JUMPDEST DUP5 MLOAD PUSH2 0xEB9 DUP2 DUP4 DUP6 ADD PUSH1 0x20 DUP10 ADD PUSH2 0x143F JUMP JUMPDEST SWAP2 ADD ADD SWAP12 SWAP11 POP POP POP POP POP POP POP POP POP POP POP JUMP JUMPDEST PUSH1 0x0 DUP8 MLOAD PUSH1 0x20 PUSH2 0xEDE DUP3 DUP6 DUP4 DUP14 ADD PUSH2 0x143F JUMP JUMPDEST DUP2 DUP5 ADD SWAP2 POP PUSH9 0x4772616469656E7431 PUSH1 0xB8 SHL DUP3 MSTORE PUSH1 0x9 DUP10 MLOAD PUSH2 0xF05 DUP2 DUP4 DUP7 ADD DUP6 DUP15 ADD PUSH2 0x143F JUMP JUMPDEST DUP10 MLOAD SWAP4 ADD SWAP3 PUSH2 0xF19 DUP2 DUP4 DUP7 ADD DUP6 DUP14 ADD PUSH2 0x143F JUMP JUMPDEST DUP9 MLOAD SWAP4 ADD SWAP3 PUSH2 0xF2D DUP2 DUP4 DUP7 ADD DUP6 DUP13 ADD PUSH2 0x143F JUMP JUMPDEST DUP8 MLOAD SWAP4 ADD SWAP3 PUSH2 0xF41 DUP2 DUP4 DUP7 ADD DUP6 DUP12 ADD PUSH2 0x143F JUMP JUMPDEST DUP7 MLOAD SWAP4 ADD SWAP3 PUSH2 0xF55 DUP2 DUP4 DUP7 ADD DUP6 DUP11 ADD PUSH2 0x143F JUMP JUMPDEST SWAP3 SWAP1 SWAP3 ADD SWAP1 SWAP2 ADD SWAP10 SWAP9 POP POP POP POP POP POP POP POP POP JUMP JUMPDEST PUSH1 0x0 DUP8 MLOAD PUSH1 0x20 PUSH2 0xF7C DUP3 DUP6 DUP4 DUP14 ADD PUSH2 0x143F JUMP JUMPDEST DUP2 DUP5 ADD SWAP2 POP PUSH9 0x23B930B234B2B73A19 PUSH1 0xB9 SHL DUP3 MSTORE PUSH1 0x9 DUP10 MLOAD PUSH2 0xF05 DUP2 DUP4 DUP7 ADD DUP6 DUP15 ADD PUSH2 0x143F JUMP JUMPDEST PUSH1 0x0 DUP8 MLOAD PUSH1 0x20 PUSH2 0xFB6 DUP3 DUP6 DUP4 DUP14 ADD PUSH2 0x143F JUMP JUMPDEST DUP2 DUP5 ADD SWAP2 POP PUSH9 0x4772616469656E7433 PUSH1 0xB8 SHL DUP3 MSTORE PUSH1 0x9 DUP10 MLOAD PUSH2 0xF05 DUP2 DUP4 DUP7 ADD DUP6 DUP15 ADD PUSH2 0x143F JUMP JUMPDEST PUSH1 0x0 DUP8 MLOAD PUSH1 0x20 PUSH2 0xFF0 DUP3 DUP6 DUP4 DUP14 ADD PUSH2 0x143F JUMP JUMPDEST DUP2 DUP5 ADD SWAP2 POP PUSH9 0x11DC98591A595B9D0D PUSH1 0xBA SHL DUP3 MSTORE PUSH1 0x9 DUP10 MLOAD PUSH2 0xF05 DUP2 DUP4 DUP7 ADD DUP6 DUP15 ADD PUSH2 0x143F JUMP JUMPDEST PUSH13 0x3C746578742066696C6C3D2223 PUSH1 0x98 SHL DUP2 MSTORE DUP4 MLOAD PUSH1 0x0 SWAP1 PUSH2 0x1040 DUP2 PUSH1 0xD DUP6 ADD PUSH1 0x20 DUP10 ADD PUSH2 0x143F JUMP JUMPDEST PUSH32 0x2220783D223139302220793D223734332220636C6173733D226D657461646174 PUSH1 0xD SWAP2 DUP5 ADD SWAP2 DUP3 ADD MSTORE PUSH3 0x30911F PUSH1 0xE9 SHL PUSH1 0x2D DUP3 ADD MSTORE PUSH7 0x27BBB732B91D1 PUSH1 0xCD SHL PUSH1 0x30 DUP3 ADD MSTORE DUP5 MLOAD PUSH2 0x1099 DUP2 PUSH1 0x37 DUP5 ADD PUSH1 0x20 DUP10 ADD PUSH2 0x143F JUMP JUMPDEST PUSH32 0x3C2F746578743E203C746578742066696C6C3D22236438653165302220783D22 PUSH1 0x37 SWAP3 SWAP1 SWAP2 ADD SWAP2 DUP3 ADD MSTORE PUSH32 0x33302220793D223734332220636C6173733D226D65746164617461223E000000 PUSH1 0x57 DUP3 ADD MSTORE DUP4 MLOAD PUSH2 0x10FD DUP2 PUSH1 0x74 DUP5 ADD PUSH1 0x20 DUP9 ADD PUSH2 0x143F JUMP JUMPDEST PUSH6 0x2F313030303 PUSH1 0xD4 SHL PUSH1 0x74 SWAP3 SWAP1 SWAP2 ADD SWAP2 DUP3 ADD MSTORE PUSH7 0x1E17BA32BC3A1F PUSH1 0xC9 SHL PUSH1 0x7A DUP3 ADD MSTORE PUSH1 0x81 ADD SWAP6 SWAP5 POP POP POP POP POP JUMP JUMPDEST PUSH32 0x3C7374796C653E202E6C69676874207B20666F6E743A206974616C6963203330 DUP2 MSTORE PUSH32 0x70782073616E732D73657269663B207D202E74696E79207B20666F6E743A2038 PUSH1 0x20 DUP3 ADD MSTORE PUSH32 0x70782073616E732D73657269663B20207D202E6C61726765207B20666F6E743A PUSH1 0x40 DUP3 ADD MSTORE PUSH32 0x20626F6C6420353070782073616E732D73657269663B207D202E736D616C6C20 PUSH1 0x60 DUP3 ADD MSTORE PUSH32 0x7B20666F6E743A20626F6C6420333070782073616E732D73657269663B207D20 PUSH1 0x80 DUP3 ADD MSTORE PUSH32 0x2E627574746F6E207B20666F6E743A20626F6C6420353070782073616E732D73 PUSH1 0xA0 DUP3 ADD MSTORE PUSH13 0x657269663B2066696C6C3A2023 PUSH1 0x98 SHL PUSH1 0xC0 DUP3 ADD MSTORE PUSH1 0x0 DUP7 MLOAD PUSH2 0x1239 DUP2 PUSH1 0xCD DUP6 ADD PUSH1 0x20 DUP12 ADD PUSH2 0x143F JUMP JUMPDEST PUSH32 0x7D202E6D657461646174617B20666F6E743A20626F6C6420313270782073616E PUSH1 0xCD SWAP2 DUP5 ADD SWAP2 DUP3 ADD MSTORE PUSH16 0x732D73657269663B2066696C6C3A2023 PUSH1 0x80 SHL PUSH1 0xED DUP3 ADD MSTORE PUSH2 0x1330 PUSH2 0x131A PUSH2 0x1314 PUSH2 0x12F0 PUSH2 0x12EA PUSH2 0x12CD PUSH2 0x12C7 PUSH2 0x129E PUSH1 0xFD DUP10 ADD DUP16 PUSH2 0xD55 JUMP JUMPDEST PUSH32 0x207D202E627574746F6E4261636B67726F756E647B66696C6C3A202300000000 DUP2 MSTORE PUSH1 0x1C ADD SWAP1 JUMP JUMPDEST DUP13 PUSH2 0xD55 JUMP JUMPDEST PUSH17 0x7D202E73637265656E7B66696C6C3A2023 PUSH1 0x78 SHL DUP2 MSTORE PUSH1 0x11 ADD SWAP1 JUMP JUMPDEST DUP10 PUSH2 0xD55 JUMP JUMPDEST PUSH24 0x7D202E626F7264657253747269707B7374726F6B653A2023 PUSH1 0x40 SHL DUP2 MSTORE PUSH1 0x18 ADD SWAP1 JUMP JUMPDEST DUP7 PUSH2 0xD55 JUMP JUMPDEST PUSH10 0x3E901E17B9BA3CB6329F PUSH1 0xB1 SHL DUP2 MSTORE PUSH1 0xA ADD SWAP1 JUMP JUMPDEST SWAP9 SWAP8 POP POP POP POP POP POP POP POP JUMP JUMPDEST PUSH32 0x646174613A696D6167652F7376672B786D6C3B6261736536342C000000000000 DUP2 MSTORE PUSH1 0x0 DUP3 MLOAD PUSH2 0x1374 DUP2 PUSH1 0x1A DUP6 ADD PUSH1 0x20 DUP8 ADD PUSH2 0x143F JUMP JUMPDEST SWAP2 SWAP1 SWAP2 ADD PUSH1 0x1A ADD SWAP3 SWAP2 POP POP JUMP JUMPDEST PUSH1 0x20 DUP2 MSTORE PUSH1 0x0 DUP3 MLOAD DUP1 PUSH1 0x20 DUP5 ADD MSTORE PUSH2 0x13A0 DUP2 PUSH1 0x40 DUP6 ADD PUSH1 0x20 DUP8 ADD PUSH2 0x143F JUMP JUMPDEST PUSH1 0x1F ADD PUSH1 0x1F NOT AND SWAP2 SWAP1 SWAP2 ADD PUSH1 0x40 ADD SWAP3 SWAP2 POP POP JUMP JUMPDEST PUSH1 0x40 MLOAD PUSH2 0x140 DUP2 ADD PUSH1 0x1 PUSH1 0x1 PUSH1 0x40 SHL SUB DUP2 GT DUP3 DUP3 LT OR ISZERO PUSH2 0x13D7 JUMPI PUSH2 0x13D7 PUSH2 0x14F7 JUMP JUMPDEST PUSH1 0x40 MSTORE SWAP1 JUMP JUMPDEST PUSH1 0x0 DUP3 NOT DUP3 GT ISZERO PUSH2 0x13F0 JUMPI PUSH2 0x13F0 PUSH2 0x14B5 JUMP JUMPDEST POP ADD SWAP1 JUMP JUMPDEST PUSH1 0x0 DUP3 PUSH2 0x1404 JUMPI PUSH2 0x1404 PUSH2 0x14CB JUMP JUMPDEST POP DIV SWAP1 JUMP JUMPDEST PUSH1 0x0 DUP2 PUSH1 0x0 NOT DIV DUP4 GT DUP3 ISZERO ISZERO AND ISZERO PUSH2 0x1423 JUMPI PUSH2 0x1423 PUSH2 0x14B5 JUMP JUMPDEST POP MUL SWAP1 JUMP JUMPDEST PUSH1 0x0 DUP3 DUP3 LT ISZERO PUSH2 0x143A JUMPI PUSH2 0x143A PUSH2 0x14B5 JUMP JUMPDEST POP SUB SWAP1 JUMP JUMPDEST PUSH1 0x0 JUMPDEST DUP4 DUP2 LT ISZERO PUSH2 0x145A JUMPI DUP2 DUP2 ADD MLOAD DUP4 DUP3 ADD MSTORE PUSH1 0x20 ADD PUSH2 0x1442 JUMP JUMPDEST DUP4 DUP2 GT ISZERO PUSH2 0x1469 JUMPI PUSH1 0x0 DUP5 DUP5 ADD MSTORE JUMPDEST POP POP POP POP JUMP JUMPDEST PUSH1 0x0 DUP2 PUSH2 0x147E JUMPI PUSH2 0x147E PUSH2 0x14B5 JUMP JUMPDEST POP PUSH1 0x0 NOT ADD SWAP1 JUMP JUMPDEST PUSH1 0x0 PUSH1 0x0 NOT DUP3 EQ ISZERO PUSH2 0x149A JUMPI PUSH2 0x149A PUSH2 0x14B5 JUMP JUMPDEST POP PUSH1 0x1 ADD SWAP1 JUMP JUMPDEST PUSH1 0x0 DUP3 PUSH2 0x14B0 JUMPI PUSH2 0x14B0 PUSH2 0x14CB JUMP JUMPDEST POP MOD SWAP1 JUMP JUMPDEST PUSH4 0x4E487B71 PUSH1 0xE0 SHL PUSH1 0x0 MSTORE PUSH1 0x11 PUSH1 0x4 MSTORE PUSH1 0x24 PUSH1 0x0 REVERT JUMPDEST PUSH4 0x4E487B71 PUSH1 0xE0 SHL PUSH1 0x0 MSTORE PUSH1 0x12 PUSH1 0x4 MSTORE PUSH1 0x24 PUSH1 0x0 REVERT JUMPDEST PUSH4 0x4E487B71 PUSH1 0xE0 SHL PUSH1 0x0 MSTORE PUSH1 0x32 PUSH1 0x4 MSTORE PUSH1 0x24 PUSH1 0x0 REVERT JUMPDEST PUSH4 0x4E487B71 PUSH1 0xE0 SHL PUSH1 0x0 MSTORE PUSH1 0x41 PUSH1 0x4 MSTORE PUSH1 0x24 PUSH1 0x0 REVERT INVALID KECCAK256 EXTCODECOPY PUSH8 0x207374726F6B653D 0x22 0x23 CALLER ADDRESS CALLER BALANCE CALLER CALLER 0x22 KECCAK256 PUSH20 0x74726F6B652D77696474683D2235222066696C6C RETURNDATASIZE 0x22 PUSH22 0x726C28234772616469656E74322922203E203C726563 PUSH21 0x206F6E636C69636B3D2268616E646C654E756D6265 PUSH19 0x283129222072783D22372220783D2235302220 PUSH26 0x3D22353330222077696474683D22383022206865696768743D22 CODESIZE ADDRESS 0x22 0x2F RETURNDATACOPY KECCAK256 EXTCODECOPY PUSH19 0x656374206F6E636C69636B3D2268616E646C65 0x4E PUSH22 0x6D626572283229222072783D22372220783D22313530 0x22 KECCAK256 PUSH26 0x3D22353330222077696474683D22383022206865696768743D22 CODESIZE ADDRESS 0x22 0x2F RETURNDATACOPY KECCAK256 EXTCODECOPY PUSH19 0x656374206F6E636C69636B3D2268616E646C65 0x4E PUSH22 0x6D626572283329222072783D22372220783D22323530 0x22 KECCAK256 PUSH26 0x3D22353330222077696474683D22383022206865696768743D22 CODESIZE ADDRESS 0x22 0x2F RETURNDATACOPY KECCAK256 EXTCODECOPY PUSH19 0x656374206F6E636C69636B3D2268616E646C65 0x4E PUSH22 0x6D626572283429222072783D22372220783D22353022 KECCAK256 PUSH26 0x3D22343330222077696474683D22383022206865696768743D22 CODESIZE ADDRESS 0x22 0x2F RETURNDATACOPY KECCAK256 EXTCODECOPY PUSH19 0x656374206F6E636C69636B3D2268616E646C65 0x4E PUSH22 0x6D626572283529222072783D22372220783D22313530 0x22 KECCAK256 PUSH26 0x3D22343330222077696474683D22383022206865696768743D22 CODESIZE ADDRESS 0x22 0x2F RETURNDATACOPY KECCAK256 EXTCODECOPY PUSH19 0x656374206F6E636C69636B3D2268616E646C65 0x4E PUSH22 0x6D626572283629222072783D22372220783D22323530 0x22 KECCAK256 PUSH26 0x3D22343330222077696474683D22383022206865696768743D22 CODESIZE ADDRESS 0x22 0x2F RETURNDATACOPY KECCAK256 EXTCODECOPY PUSH19 0x656374206F6E636C69636B3D2268616E646C65 0x4E PUSH22 0x6D626572283729222072783D22372220783D22353022 KECCAK256 PUSH26 0x3D22333330222077696474683D22383022206865696768743D22 CODESIZE ADDRESS 0x22 0x2F RETURNDATACOPY KECCAK256 EXTCODECOPY PUSH19 0x656374206F6E636C69636B3D2268616E646C65 0x4E PUSH22 0x6D626572283829222072783D22372220783D22313530 0x22 KECCAK256 PUSH26 0x3D22333330222077696474683D22383022206865696768743D22 CODESIZE ADDRESS 0x22 0x2F RETURNDATACOPY KECCAK256 EXTCODECOPY PUSH19 0x656374206F6E636C69636B3D2268616E646C65 0x4E PUSH22 0x6D626572283929222072783D22372220783D22323530 0x22 KECCAK256 PUSH26 0x3D22333330222077696474683D22383022206865696768743D22 CODESIZE ADDRESS 0x22 0x2F RETURNDATACOPY KECCAK256 EXTCODECOPY PUSH19 0x656374206F6E636C69636B3D2268616E646C65 0x4E PUSH22 0x6D626572283029222072783D22372220783D22353022 KECCAK256 PUSH26 0x3D22363330222077696474683D22383022206865696768743D22 CODESIZE ADDRESS 0x22 0x2F RETURNDATACOPY KECCAK256 EXTCODECOPY PUSH19 0x656374206F6E636C69636B3D2268616E646C65 0x4E PUSH22 0x6D6265722873796D626F6C732E64656329222072783D 0x22 CALLDATACOPY 0x22 KECCAK256 PUSH25 0x3D223135302220793D22363330222077696474683D22383022 KECCAK256 PUSH9 0x65696768743D223830 0x22 0x2F RETURNDATACOPY KECCAK256 0x2F 0x2F 0x2E KECCAK256 EXTCODECOPY PUSH19 0x656374206F6E636C69636B3D2268616E646C65 0x4F PUSH17 0x286164642C2073796D626F6C732E616464 0x29 0x22 KECCAK256 PUSH19 0x783D22372220783D223335302220793D223533 ADDRESS 0x22 KECCAK256 PUSH24 0x696474683D2231353022206865696768743D223830222F3E KECCAK256 0x2F 0x2F 0x2B KECCAK256 EXTCODECOPY PUSH19 0x656374206F6E636C69636B3D2268616E646C65 0x4F PUSH17 0x287375622C2073796D626F6C732E737562 0x29 0x22 KECCAK256 PUSH19 0x783D22372220783D223335302220793D223433 ADDRESS 0x22 KECCAK256 PUSH24 0x696474683D2231353022206865696768743D223830222F3E KECCAK256 0x2F 0x2F 0x2D KECCAK256 EXTCODECOPY PUSH19 0x656374206F6E636C69636B3D2268616E646C65 0x4F PUSH17 0x286D756C2C2073796D626F6C732E6D756C 0x29 0x22 KECCAK256 PUSH19 0x783D22372220783D223335302220793D223333 ADDRESS 0x22 KECCAK256 PUSH24 0x696474683D2231353022206865696768743D223830222F3E KECCAK256 0x2F 0x2F PUSH25 0x203C72656374206F6E636C69636B3D2268616E646C654F7028 PUSH5 0x69762C2073 PUSH26 0x6D626F6C732E64697629222072783D22372220783D2233353022 KECCAK256 PUSH26 0x3D22323330222077696474683D2231353022206865696768743D 0x22 CODESIZE ADDRESS 0x22 0x2F RETURNDATACOPY KECCAK256 0x2F 0x2F KECCAK256 0x2F KECCAK256 EXTCODECOPY PUSH19 0x656374206F6E636C69636B3D2268616E646C65 0x4F PUSH17 0x286D6F642C2073796D626F6C732E6D6F64 0x29 0x22 KECCAK256 PUSH19 0x783D22372220783D223135302220793D223233 ADDRESS 0x22 KECCAK256 PUSH24 0x696474683D22383022206865696768743D223830222F3E20 EXTCODECOPY PUSH19 0x656374206F6E636C69636B3D2268616E646C65 0x4F PUSH17 0x28706F772C2073796D626F6C732E706F77 0x29 0x22 KECCAK256 PUSH19 0x783D22372220783D223235302220793D223233 ADDRESS 0x22 KECCAK256 PUSH24 0x696474683D22383022206865696768743D223830222F3E20 EXTCODECOPY PUSH19 0x656374206F6E636C69636B3D22636C65617253 PUSH4 0x7265656E 0x28 0x29 0x22 KECCAK256 PUSH7 0x696C6C3D227572 PUSH13 0x28234772616469656E74332922 KECCAK256 PUSH19 0x783D22372220783D2235302220793D22323330 0x22 KECCAK256 PUSH24 0x696474683D22383022206865696768743D223830222F3E20 EXTCODECOPY PUSH19 0x656374206F6E636C69636B3D22657175616C73 0x28 0x29 0x22 KECCAK256 PUSH7 0x696C6C3D227572 PUSH13 0x28234772616469656E74312922 KECCAK256 PUSH19 0x783D22372220783D223235302220793D223633 ADDRESS 0x22 KECCAK256 PUSH24 0x696474683D2232353022206865696768743D223830222F3E KECCAK256 EXTCODECOPY 0x2F PUSH8 0x203E222F3E203C73 PUSH21 0x6F70206F66667365743D2231303025222073746F70 0x2D PUSH4 0x6F6C6F72 RETURNDATASIZE 0x22 0x23 EXTCODECOPY PUSH20 0x766720786D6C6E733D22687474703A2F2F777777 0x2E PUSH24 0x332E6F72672F323030302F7376672220786D6C6E733A786C PUSH10 0x6E6B3D22687474703A2F 0x2F PUSH24 0x77772E77332E6F72672F313939392F786C696E6B22207669 PUSH6 0x77426F783D22 ADDRESS KECCAK256 ADDRESS KECCAK256 CALLDATALOAD CALLDATALOAD ADDRESS KECCAK256 CALLDATACOPY CALLDATASIZE ADDRESS 0x22 RETURNDATACOPY COINBASE TIMESTAMP NUMBER DIFFICULTY GASLIMIT CHAINID SELFBALANCE BASEFEE 0x49 0x4A 0x4B 0x4C 0x4D 0x4E 0x4F POP MLOAD MSTORE MSTORE8 SLOAD SSTORE JUMP JUMPI PC MSIZE GAS PUSH2 0x6263 PUSH5 0x6566676869 PUSH11 0x6B6C6D6E6F707172737475 PUSH23 0x7778797A303132333435363738392B2F3C6720636C6173 PUSH20 0x3D22627574746F6E223E203C74657874206F6E63 PUSH13 0x69636B3D22657175616C732829 0x22 KECCAK256 PUSH20 0x74726F6B653D226E6F6E652220783D2233363022 KECCAK256 PUSH26 0x3D22363835223E3D3C2F746578743E203C74657874206F6E636C PUSH10 0x636B3D22636C65617253 PUSH4 0x7265656E 0x28 0x29 0x22 KECCAK256 PUSH25 0x3D2237312220793D22323835223E433C2F746578743E203C74 PUSH6 0x7874206F6E63 PUSH13 0x69636B3D2268616E646C654E75 PUSH14 0x6265722831292220783D22373522 KECCAK256 PUSH26 0x3D22353835223E313C2F746578743E203C74657874206F6E636C PUSH10 0x636B3D2268616E646C65 0x4E PUSH22 0x6D6265722832292220783D223137352220793D223538 CALLDATALOAD 0x22 RETURNDATACOPY ORIGIN EXTCODECOPY 0x2F PUSH21 0x6578743E203C74657874206F6E636C69636B3D2268 PUSH2 0x6E64 PUSH13 0x654E756D626572283329222078 RETURNDATASIZE 0x22 ORIGIN CALLDATACOPY CALLDATALOAD 0x22 KECCAK256 PUSH26 0x3D22353835223E333C2F746578743E203C74657874206F6E636C PUSH10 0x636B3D2268616E646C65 0x4E PUSH22 0x6D6265722834292220783D2237352220793D22343835 0x22 RETURNDATACOPY CALLVALUE EXTCODECOPY 0x2F PUSH21 0x6578743E203C74657874206F6E636C69636B3D2268 PUSH2 0x6E64 PUSH13 0x654E756D626572283529222078 RETURNDATASIZE 0x22 BALANCE CALLDATACOPY CALLDATALOAD 0x22 KECCAK256 PUSH26 0x3D22343835223E353C2F746578743E203C74657874206F6E636C PUSH10 0x636B3D2268616E646C65 0x4E PUSH22 0x6D6265722836292220783D223237352220793D223438 CALLDATALOAD 0x22 RETURNDATACOPY CALLDATASIZE EXTCODECOPY 0x2F PUSH21 0x6578743E203C74657874206F6E636C69636B3D2268 PUSH2 0x6E64 PUSH13 0x654E756D626572283729222078 RETURNDATASIZE 0x22 CALLDATACOPY CALLDATALOAD 0x22 KECCAK256 PUSH26 0x3D22333835223E373C2F746578743E203C74657874206F6E636C PUSH10 0x636B3D2268616E646C65 0x4E PUSH22 0x6D6265722838292220783D223137352220793D223338 CALLDATALOAD 0x22 RETURNDATACOPY CODESIZE EXTCODECOPY 0x2F PUSH21 0x6578743E203C74657874206F6E636C69636B3D2268 PUSH2 0x6E64 PUSH13 0x654E756D626572283929222078 RETURNDATASIZE 0x22 ORIGIN CALLDATACOPY CALLDATALOAD 0x22 KECCAK256 PUSH26 0x3D22333835223E393C2F746578743E203C74657874206F6E636C PUSH10 0x636B3D2268616E646C65 0x4E PUSH22 0x6D6265722830292220783D2237352220793D22363835 0x22 RETURNDATACOPY ADDRESS EXTCODECOPY 0x2F PUSH21 0x6578743E203C74657874206F6E636C69636B3D2268 PUSH2 0x6E64 PUSH13 0x654E756D6265722873796D626F PUSH13 0x732E646563292220783D223138 CALLER 0x22 KECCAK256 PUSH26 0x3D22363734223E2E3C2F746578743E203C74657874206F6E636C PUSH10 0x636B3D2268616E646C65 0x4F PUSH17 0x286164642C2073796D626F6C732E616464 0x29 0x22 KECCAK256 PUSH25 0x3D223430382220793D22353835223E2B3C2F746578743E203C PUSH21 0x657874206F6E636C69636B3D2268616E646C654F70 0x28 PUSH20 0x75622C2073796D626F6C732E737562292220783D 0x22 CALLVALUE BALANCE CALLDATALOAD 0x22 KECCAK256 PUSH26 0x3D22343831223E2D3C2F746578743E203C74657874206F6E636C PUSH10 0x636B3D2268616E646C65 0x4F PUSH17 0x286D756C2C2073796D626F6C732E6D756C 0x29 0x22 KECCAK256 PUSH25 0x3D223431302220793D22333830223E783C2F746578743E203C PUSH21 0x657874206F6E636C69636B3D2268616E646C654F70 0x28 PUSH5 0x69762C2073 PUSH26 0x6D626F6C732E646976292220783D223431302220793D22323836 0x22 RETURNDATACOPY 0x2F EXTCODECOPY 0x2F PUSH21 0x6578743E203C74657874206F6E636C69636B3D2268 PUSH2 0x6E64 PUSH13 0x654F70286D6F642C2073796D62 PUSH16 0x6C732E6D6F64292220783D2231363522 KECCAK256 PUSH26 0x3D22323835223E253C2F746578743E203C74657874206F6E636C PUSH10 0x636B3D2268616E646C65 0x4F PUSH17 0x28706F772C2073796D626F6C732E706F77 0x29 0x22 KECCAK256 PUSH25 0x3D223237352220793D22323933223E5E3C2F746578743E203C 0x2F PUSH8 0x3E3C736372697074 KECCAK256 PUSH21 0x7970653D22746578742F6A61766173637269707422 RETURNDATACOPY EXTCODECOPY 0x21 JUMPDEST NUMBER DIFFICULTY COINBASE SLOAD COINBASE JUMPDEST KECCAK256 PUSH23 0x61722073796D626F6C733D7B6D756C3A2278222C646976 GASPRICE 0x22 0x2F 0x22 0x2C PUSH14 0x6F643A2225222C7375623A222D22 0x2C PUSH2 0x6464 GASPRICE 0x22 0x2B 0x22 0x2C PUSH5 0x65633A222E 0x22 0x2C PUSH17 0x6F773A225E227D2C73637265656E4C6172 PUSH8 0x653D646F63756D65 PUSH15 0x742E676574456C656D656E74427949 PUSH5 0x2822736372 PUSH6 0x656E4C617267 PUSH6 0x22292C736372 PUSH6 0x656E546F703D PUSH5 0x6F63756D65 PUSH15 0x742E676574456C656D656E74427949 PUSH5 0x2822736372 PUSH6 0x656E546F7022 0x29 0x2C PUSH20 0x637265656E54696E793D646F63756D656E742E67 PUSH6 0x74456C656D65 PUSH15 0x7442794964282273637265656E5469 PUSH15 0x7922293B66756E6374696F6E206164 PUSH5 0x28652C7429 PUSH28 0x766172206E3D652B743B72657475726E2073697A65526573756C7428 PUSH15 0x292C6E7D66756E6374696F6E207375 PUSH3 0x28652C PUSH21 0x297B766172206E3D652D743B72657475726E207369 PUSH27 0x65526573756C74286E292C6E7D66756E6374696F6E206D756C2865 0x2C PUSH21 0x297B766172206E3D652A743B72657475726E207369 PUSH27 0x65526573756C74286E292C6E7D66756E6374696F6E206469762865 0x2C PUSH21 0x297B766172206E3D652F743B72657475726E207369 PUSH27 0x65526573756C74286E292C6E7D66756E6374696F6E206D6F642865 0x2C PUSH21 0x297B766172206E3D6525743B72657475726E207369 PUSH27 0x65526573756C74286E292C6E7D66756E6374696F6E20706F772865 0x2C PUSH21 0x297B766172206E3D652A2A743B72657475726E2073 PUSH10 0x7A65526573756C74286E 0x29 0x2C PUSH15 0x7D66756E6374696F6E20657175616C PUSH20 0x28297B696628303D3D4E756D626572287365636F PUSH15 0x644E756D2926266F7065726174696F PUSH15 0x53796D3D3D73796D626F6C732E6469 PUSH23 0x2972657475726E2073637265656E4C617267652E746578 PUSH21 0x436F6E74656E743D226572726F72222C766F696428 PUSH19 0x65616479546F436C6561723D2130293B666972 PUSH20 0x744E756D2E6C656E6774682B7365636F6E644E75 PUSH14 0x2E6C656E6774683C31393F736372 PUSH6 0x656E546F702E PUSH21 0x657874436F6E74656E743D66697273744E756D2B22 KECCAK256 0x22 0x2B PUSH16 0x7065726174696F6E53796D2B2220222B PUSH20 0x65636F6E644E756D2B22203D223A66697273744E PUSH22 0x6D2E6C656E6774683C31393F287365636F6E644E756D RETURNDATASIZE PUSH20 0x65636F6E644E756D2E736C69636528302C31392D PUSH7 0x697273744E756D 0x2E PUSH13 0x656E677468292C73637265656E SLOAD PUSH16 0x702E74657874436F6E74656E743D6669 PUSH19 0x73744E756D2B2220222B6F7065726174696F6E MSTORE8 PUSH26 0x6D2B2220222B7365636F6E644E756D2B222E2E2E203D22293A73 PUSH4 0x7265656E SLOAD PUSH16 0x702E74657874436F6E74656E743D6669 PUSH19 0x73744E756D2E736C69636528302C3230292B22 0x2E 0x2E 0x2E KECCAK256 RETURNDATASIZE 0x22 0x2C PUSH7 0x697273744E756D RETURNDATASIZE PUSH16 0x7065726174696F6E284E756D62657228 PUSH7 0x697273744E756D 0x29 0x2C 0x4E PUSH22 0x6D626572287365636F6E644E756D29292E746F537472 PUSH10 0x6E6728292C7265616479 SLOAD PUSH16 0x436C6561723D21307D66756E6374696F PUSH15 0x2073697A65526573756C742865297B PUSH10 0x6628652E746F53747269 PUSH15 0x6728292E6C656E6774683C31332973 PUSH4 0x7265656E 0x4C PUSH2 0x7267 PUSH6 0x2E7365744174 PUSH21 0x7269627574652822636C617373222C226C61726765 0x22 0x29 0x2C PUSH20 0x637265656E4C617267652E74657874436F6E7465 PUSH15 0x743D652E746F537472696E6728293B PUSH6 0x6C73657B6966 0x28 0x21 0x28 PUSH6 0x2E746F537472 PUSH10 0x6E6728292E6C656E6774 PUSH9 0x3C3234292972657475 PUSH19 0x6E2073637265656E4C617267652E7465787443 PUSH16 0x6E74656E743D652E746F537472696E67 0x28 0x29 0x2E PUSH20 0x6C69636528302C3234292B222E2E2E222C766F69 PUSH5 0x2873637265 PUSH6 0x6E54696E792E PUSH21 0x657874436F6E74656E743D22746F6F206C61726765 0x22 0x29 EXTCODESIZE PUSH20 0x637265656E4C617267652E736574417474726962 PUSH22 0x74652822636C617373222C22736D616C6C22292C7363 PUSH19 0x65656E4C617267652E74657874436F6E74656E PUSH21 0x3D652E746F537472696E6728297D7D66756E637469 PUSH16 0x6E20636C65617253637265656E28297B PUSH20 0x637265656E4C617267652E74657874436F6E7465 PUSH15 0x743D22222C73637265656E546F702E PUSH21 0x657874436F6E74656E743D22222C6E756D436F756E PUSH21 0x65723D312C66697273744E756D3D22222C7365636F PUSH15 0x644E756D3D22222C6F706572617469 PUSH16 0x6E3D6E756C6C2C6F7065726174696F6E MSTORE8 PUSH26 0x6D3D22222C73637265656E54696E792E74657874436F6E74656E PUSH21 0x3D22222C7265616479546F436C6561723D21317D66 PUSH22 0x6E6374696F6E2068616E646C654E756D626572286529 PUSH28 0x6966287265616479546F436C6561722626636C65617253637265656E 0x28 0x29 0x2C BALANCE RETURNDATASIZE RETURNDATASIZE PUSH15 0x756D436F756E746572296966286669 PUSH19 0x73744E756D2E6C656E6774683C313329736372 PUSH6 0x656E4C617267 PUSH6 0x2E7365744174 PUSH21 0x7269627574652822636C617373222C226C61726765 0x22 0x29 0x2C PUSH20 0x637265656E4C617267652E74657874436F6E7465 PUSH15 0x743D66697273744E756D2B652E746F MSTORE8 PUSH21 0x72696E6728292C66697273744E756D2B3D652E746F MSTORE8 PUSH21 0x72696E6728293B656C73657B696628212866697273 PUSH21 0x4E756D2E6C656E6774683C3234292972657475726E KECCAK256 PUSH23 0x6F69642873637265656E54696E792E74657874436F6E74 PUSH6 0x6E743D22746F PUSH16 0x206C6172676522293B73637265656E4C PUSH2 0x7267 PUSH6 0x2E7365744174 PUSH21 0x7269627574652822636C617373222C22736D616C6C 0x22 0x29 0x2C PUSH20 0x637265656E4C617267652E74657874436F6E7465 PUSH15 0x743D66697273744E756D2B652E746F MSTORE8 PUSH21 0x72696E6728292C66697273744E756D2B3D652E746F MSTORE8 PUSH21 0x72696E6728297D656C7365206966287365636F6E64 0x4E PUSH22 0x6D2E6C656E6774683C31332973637265656E4C617267 PUSH6 0x2E7365744174 PUSH21 0x7269627574652822636C617373222C226C61726765 0x22 0x29 0x2C PUSH20 0x637265656E4C617267652E74657874436F6E7465 PUSH15 0x743D7365636F6E644E756D2B652E74 PUSH16 0x537472696E6728292C7365636F6E644E PUSH22 0x6D2B3D652E746F537472696E6728293B656C73657B69 PUSH7 0x2821287365636F PUSH15 0x644E756D2E6C656E6774683C323429 0x29 PUSH19 0x657475726E20766F69642873637265656E5469 PUSH15 0x792E74657874436F6E74656E743D22 PUSH21 0x6F6F206C6172676522293B73637265656E4C617267 PUSH6 0x2E7365744174 PUSH21 0x7269627574652822636C617373222C22736D616C6C 0x22 0x29 0x2C PUSH20 0x637265656E4C617267652E74657874436F6E7465 PUSH15 0x743D7365636F6E644E756D2B652E74 PUSH16 0x537472696E6728292C7365636F6E644E PUSH22 0x6D2B3D652E746F537472696E6728297D7D66756E6374 PUSH10 0x6F6E2068616E646C654F PUSH17 0x28652C74297B7365636F6E644E756D3D22 0x22 0x2C PUSH20 0x637265656E4C617267652E74657874436F6E7465 PUSH15 0x743D22222C6F7065726174696F6E53 PUSH26 0x6D3D742E746F537472696E6728292C66697273744E756D2E6C65 PUSH15 0x6774683C31393F73637265656E546F PUSH17 0x2E74657874436F6E74656E743D66697273 PUSH21 0x4E756D2B2220222B6F7065726174696F6E53796D3A PUSH20 0x637265656E546F702E74657874436F6E74656E74 RETURNDATASIZE PUSH7 0x697273744E756D 0x2E PUSH20 0x6C69636528302C3230292B222E2E2E203D222C6F PUSH17 0x65726174696F6E3D652C6E756D436F756E PUSH21 0x65723D327D6E756D436F756E7465723D312C666972 PUSH20 0x744E756D3D22222C7365636F6E644E756D3D2222 0x2C PUSH16 0x7065726174696F6E3D6E756C6C2C6F70 PUSH6 0x726174696F6E MSTORE8 PUSH26 0x6D3D22222C7265616479546F436C6561723D21313B205D5D3E3C 0x2F PUSH20 0x63726970743E203C2F7376673E22207374726F6B PUSH6 0x2D7769647468 RETURNDATASIZE 0x22 CALLER 0x22 KECCAK256 RETURNDATACOPY KECCAK256 EXTCODECOPY PUSH19 0x6563742069643D22626F72646572222066696C PUSH13 0x3D2275726C2823477261646965 PUSH15 0x743429222072783D22372220783D22 ADDRESS 0x22 KECCAK256 PUSH26 0x3D2230222077696474683D2235353022206865696768743D2237 CALLDATASIZE ADDRESS 0x22 0x2F RETURNDATACOPY KECCAK256 EXTCODECOPY PUSH19 0x65637420636C6173733D22627574746F6E4261 PUSH4 0x6B67726F PUSH22 0x6E642220202072783D22372220783D2233302220793D 0x22 CALLER ADDRESS 0x22 KECCAK256 PUSH24 0x696474683D2234393022206865696768743D22373030222F RETURNDATACOPY KECCAK256 EXTCODECOPY PUSH19 0x6563742069643D2273637265656E426F726465 PUSH19 0x222072783D2237222066696C6C3D2275726C28 0x23 SELFBALANCE PUSH19 0x616469656E7432292220783D2234352220793D 0x22 CALLDATALOAD ADDRESS 0x22 KECCAK256 PUSH24 0x696474683D2234363022206865696768743D22313530222F RETURNDATACOPY KECCAK256 EXTCODECOPY PUSH19 0x65637420636C6173733D2273637265656E2220 KECCAK256 PUSH19 0x783D22372220783D2236352220793D22373022 KECCAK256 PUSH24 0x696474683D2234323022206865696768743D22313130222F RETURNDATACOPY KECCAK256 EXTCODECOPY PUSH19 0x6563742072783D223722207374726F6B652D77 PUSH10 0x6474683D223522206669 PUSH13 0x6C3D226E6F6E652220783D2231 ADDRESS 0x22 KECCAK256 PUSH26 0x3D223130222077696474683D2235333022206865696768743D22 CALLDATACOPY CALLVALUE ADDRESS 0x22 0x2F RETURNDATACOPY KECCAK256 EXTCODECOPY 0x2F PUSH8 0x3E223E203C746578 PUSH21 0x2069643D2273637265656E4C617267652220783D22 CALLDATACOPY ADDRESS 0x22 KECCAK256 PUSH26 0x3D22313630223E3C2F746578743E203C746578742069643D2273 PUSH4 0x7265656E SLOAD PUSH16 0x702220783D2237302220793D22313035 0x22 KECCAK256 PUSH4 0x6C617373 RETURNDATASIZE 0x22 PUSH13 0x69676874223E3C2F746578743E KECCAK256 EXTCODECOPY PUSH21 0x6578742069643D2273637265656E54696E79222078 RETURNDATASIZE 0x22 CALLVALUE CALLER ADDRESS 0x22 KECCAK256 PUSH26 0x3D223137302220636C6173733D2274696E79223E3C2F74657874 RETURNDATACOPY KECCAK256 EXTCODECOPY 0x2F PUSH8 0x203E222078313D22 BALANCE 0x22 KECCAK256 PUSH25 0x323D2230222079313D2230222079323D2230223E203C73746F PUSH17 0x206F66667365743D223025222073746F70 0x2D PUSH4 0x6F6C6F72 RETURNDATASIZE 0x22 0x23 LOG2 PUSH5 0x6970667358 0x22 SLT KECCAK256 DUP1 0x5F 0x22 PUSH2 0x7BE0 DUP16 0xBA 0xD1 SWAP9 PUSH15 0x8641CD68DEBC1070F05FCEC6374AD5 0xEB 0xBA DUP16 MSIZE PUSH24 0xD264736F6C63430008070033000000000000000000000000 "
				},
				"gasEstimates": {
					"creation": {
						"codeDepositCost": "2378200",
						"executionCost": "2584",
						"totalCost": "2380784"
					},
					"external": {
						"OwnerandIdText(address,uint256,string)": "infinite",
						"base64ImageUrl(address,uint256,CalcLib.ColorScheme)": "infinite",
						"getBackground(CalcLib.ColorScheme)": "infinite",
						"getGradients(CalcLib.ColorScheme)": "infinite",
						"getScreenText(CalcLib.ColorScheme)": "infinite",
						"getStyle(CalcLib.ColorScheme)": "infinite"
					}
				},
				"methodIdentifiers": {
					"OwnerandIdText(address,uint256,string)": "c98b4b31",
					"base64ImageUrl(address,uint256,CalcLib.ColorScheme)": "c32d0289",
					"getBackground(CalcLib.ColorScheme)": "b491605c",
					"getGradients(CalcLib.ColorScheme)": "3ce61661",
					"getScreenText(CalcLib.ColorScheme)": "96ac761a",
					"getStyle(CalcLib.ColorScheme)": "d7be44a9"
				}
			},
			"storageLayout": {
				"storage": [],
				"types": null
			},
			"userdoc": {
				"kind": "user",
				"methods": {},
				"version": 1
			}
		}
	}
}