{
	"data": {
		"bytecode": {
			"linkReferences": {},
			"object": "668e1bc9bf040000600a55612710600b5560c0604052600360808190526215109160ea1b60a09081526200003791600c919062000db2565b50600d80546001600160a01b03191673c3b88a12d8cda6b9802c30be4bb18bdd1828b3171790553480156200006b57600080fd5b5060405180604001604052806005815260200164536e616b6560d81b81525060405180604001604052806005815260200164534e414b4560d81b8152508160009080519060200190620000c092919062000db2565b508051620000d690600190602084019062000db2565b505050620000f3620000ed62000be860201b60201c565b62000bec565b620001003060fa62000c3e565b6200010c605062000d43565b6040805161016081018252600661012082018181526561363132646560d01b610140840181905290835283518085018552828152602081810183905280850191909152845180860186528381528082018390528486015284518086018652838152808201839052606085015284518086018652838152808201929092526080840191909152835180850185528281526504542444546360d41b8183015260a0840152835180850185528281526566666535393960d01b8183015260c0840152835180850185528281526503237414536360d41b8183015260e084015283518085019094529083526523231aa219a160d11b838201526101008201929092526001600052600f82528051805191927f169f97de0d9a84d840042b17d3c6b9638b3d6fd9024c9eb0c7a306a17b49f88f926200024a928492019062000db2565b50602082810151805162000265926001850192019062000db2565b50604082015180516200028391600284019160209091019062000db2565b5060608201518051620002a191600384019160209091019062000db2565b5060808201518051620002bf91600484019160209091019062000db2565b5060a08201518051620002dd91600584019160209091019062000db2565b5060c08201518051620002fb91600684019160209091019062000db2565b5060e082015180516200031991600784019160209091019062000db2565b5061010082015180516200033891600884019160209091019062000db2565b5050604080516101608101825260066101208201818152650c8c8dd8ce5960d21b61014084018190529083528351808501855282815260208181018390528085019190915284518086018652838152808201839052848601528451808601865283815280820183905260608501528451808601865283815280820192909252608084019190915283518085018552828152653332b31cb2b360d11b8183015260a08401528351808501855282815265189bb199b11960d11b8183015260c0840152835180850185528281526566653664373360d01b8183015260e084015283518085019094529083526566666362373760d01b838201526101008201929092526002600052600f8252805180519193507fa74ba3945261e09fde15ba3db55005b205e61eeb4ad811ac0faa2b315bffeead926200047b9284929091019062000db2565b50602082810151805162000496926001850192019062000db2565b5060408201518051620004b491600284019160209091019062000db2565b5060608201518051620004d291600384019160209091019062000db2565b5060808201518051620004f091600484019160209091019062000db2565b5060a082015180516200050e91600584019160209091019062000db2565b5060c082015180516200052c91600684019160209091019062000db2565b5060e082015180516200054a91600784019160209091019062000db2565b5061010082015180516200056991600884019160209091019062000db2565b50506040805161016081018252600661012082018181526532633665343960d01b6101408401528252825180840184528181526534633935366360d01b6020828101829052808501929092528451808601865283815280830182905284860152845180860186528381528083018290526060850152845180860186528381528083018290526080850152845180860186528381526566666339623960d01b81840181905260a0860191909152855180870187528481526566656665653360d01b8185015260c0860152855180870187528481528084019190915260e08501528451808601909552918452838101919091526101008201929092526003600052600f8252805180519193507f45f76dafbbad695564362934e24d72eedc57f9fc1a65f39bca62176cc829682892620006a69284929091019062000db2565b506020828101518051620006c1926001850192019062000db2565b5060408201518051620006df91600284019160209091019062000db2565b5060608201518051620006fd91600384019160209091019062000db2565b50608082015180516200071b91600484019160209091019062000db2565b5060a082015180516200073991600584019160209091019062000db2565b5060c082015180516200075791600684019160209091019062000db2565b5060e082015180516200077591600784019160209091019062000db2565b5061010082015180516200079491600884019160209091019062000db2565b50506040805161016081018252600661012082018181526530623039306160d01b610140840181905290835283518085018552828152602081810183905280850191909152845180860186528381528082018390528486015284518086018652838152808201839052606085015284518086018652838152808201839052608085015284518086018652838152653130989c18b160d11b81830181905260a086019190915285518087018752848152653118b09bb09b60d11b8184015260c0860152855180870187528481528083019190915260e08501528451808601909552918452838201526101008201929092526004600052600f8252805180519193507f367ccd2d0ac16bf7110a5dffe0801fdc9452a95a1adb7e1a12fe97dd3e9a4edd92620008c79284929091019062000db2565b506020828101518051620008e2926001850192019062000db2565b50604082015180516200090091600284019160209091019062000db2565b50606082015180516200091e91600384019160209091019062000db2565b50608082015180516200093c91600484019160209091019062000db2565b5060a082015180516200095a91600584019160209091019062000db2565b5060c082015180516200097891600684019160209091019062000db2565b5060e082015180516200099691600784019160209091019062000db2565b506101008201518051620009b591600884019160209091019062000db2565b50506040805161016081018252600661012082018181526506665653434360d41b610140840181905290835283518085018552828152602081810183905280850191909152845180860186528381526566313562623560d01b81830181905285870191909152855180870187528481528083018290526060860152855180870187528481528083018490526080860152855180870187528481526539623564653560d01b8184015260a086015285518087018752848152650c0c198d590d60d21b8184015260c0860152855180870187528481528083019190915260e08501528451808601909552918452838201526101008201929092526005600052600f8252805180519193507f6bda57492eba051cb4a12a1e19df47c9755d78165341d4009b1d09b3f36162049262000af09284929091019062000db2565b50602082810151805162000b0b926001850192019062000db2565b506040820151805162000b2991600284019160209091019062000db2565b506060820151805162000b4791600384019160209091019062000db2565b506080820151805162000b6591600484019160209091019062000db2565b5060a0820151805162000b8391600584019160209091019062000db2565b5060c0820151805162000ba191600684019160209091019062000db2565b5060e0820151805162000bbf91600784019160209091019062000db2565b50610100820151805162000bde91600884019160209091019062000db2565b5090505062000e95565b3390565b600880546001600160a01b038381166001600160a01b0319831681179093556040519116919082907f8be0079c531659141344cd1fd0a4f28419497f9722a3daafe3b4186f6b6457e090600090a35050565b6127106001600160601b038216111562000cb25760405162461bcd60e51b815260206004820152602a60248201527f455243323938313a20726f79616c7479206665652077696c6c206578636565646044820152692073616c65507269636560b01b60648201526084015b60405180910390fd5b6001600160a01b03821662000d0a5760405162461bcd60e51b815260206004820152601960248201527f455243323938313a20696e76616c696420726563656976657200000000000000604482015260640162000ca9565b604080518082019091526001600160a01b039092168083526001600160601b039091166020909201829052600160a01b90910217600655565b6008546001600160a01b0316331462000d9f5760405162461bcd60e51b815260206004820181905260248201527f4f776e61626c653a2063616c6c6572206973206e6f7420746865206f776e6572604482015260640162000ca9565b6064811062000dad57600080fd5b600e55565b82805462000dc09062000e58565b90600052602060002090601f01602090048101928262000de4576000855562000e2f565b82601f1062000dff57805160ff191683800117855562000e2f565b8280016001018555821562000e2f579182015b8281111562000e2f57825182559160200191906001019062000e12565b5062000e3d92915062000e41565b5090565b5b8082111562000e3d576000815560010162000e42565b600181811c9082168062000e6d57607f821691505b6020821081141562000e8f57634e487b7160e01b600052602260045260246000fd5b50919050565b6146588062000ea56000396000f3fe6080604052600436106101775760003560e01c80638da5cb5b116100cc578063c87b56dd1161007a578063c87b56dd14610422578063ce3e39c014610442578063d5abeb0114610462578063dabd271914610478578063e7514c9a14610498578063e985e9c5146104ad578063f2fde38b146104cd57600080fd5b80638da5cb5b14610379578063913e74ba1461038e57806395d89b41146103a4578063a035b1fe146103b9578063a22cb465146103cf578063b88d4fde146103ef578063c319a62e1461040f57600080fd5b8063295e328e11610129578063295e328e146102855780632a55205a146102a557806342842e0e146102e45780635593152c146103045780636352211e1461032457806370a0823114610344578063715018a61461036457600080fd5b806301ffc9a71461017c57806306fdde03146101b1578063081812fc146101d3578063095ea7b31461020b57806318160ddd1461022d57806323b872dd1461025057806324600fc314610270575b600080fd5b34801561018857600080fd5b5061019c61019736600461276e565b6104ed565b60405190151581526020015b60405180910390f35b3480156101bd57600080fd5b506101c66104fe565b6040516101a891906130e9565b3480156101df57600080fd5b506101f36101ee3660046127f0565b610590565b6040516001600160a01b0390911681526020016101a8565b34801561021757600080fd5b5061022b610226366004612698565b61061d565b005b34801561023957600080fd5b5061024261072e565b6040519081526020016101a8565b34801561025c57600080fd5b5061022b61026b3660046125a5565b61073e565b34801561027c57600080fd5b5061022b61076f565b34801561029157600080fd5b506102426102a0366004612822565b6107b3565b3480156102b157600080fd5b506102c56102c0366004612845565b610871565b604080516001600160a01b0390931683526020830191909152016101a8565b3480156102f057600080fd5b5061022b6102ff3660046125a5565b61091d565b34801561031057600080fd5b5061022b61031f3660046127a8565b610938565b34801561033057600080fd5b506101f361033f3660046127f0565b61097e565b34801561035057600080fd5b5061024261035f366004612557565b6109f5565b34801561037057600080fd5b5061022b610a7c565b34801561038557600080fd5b506101f3610ab7565b34801561039a57600080fd5b50610242600e5481565b3480156103b057600080fd5b506101c6610ac6565b3480156103c557600080fd5b50610242600a5481565b3480156103db57600080fd5b5061022b6103ea36600461265c565b610ad5565b3480156103fb57600080fd5b5061022b61040a3660046125e1565b610ae0565b61022b61041d3660046126c2565b610b18565b34801561042e57600080fd5b506101c661043d3660046127f0565b610d41565b34801561044e57600080fd5b50600d546101f3906001600160a01b031681565b34801561046e57600080fd5b50610242600b5481565b34801561048457600080fd5b5061022b6104933660046127f0565b6113b4565b3480156104a457600080fd5b506101c66113f5565b3480156104b957600080fd5b5061019c6104c8366004612572565b611483565b3480156104d957600080fd5b5061022b6104e8366004612557565b6114b1565b60006104f88261154e565b92915050565b60606000805461050d906132a9565b80601f0160208091040260200160405190810160405280929190818152602001828054610539906132a9565b80156105865780601f1061055b57610100808354040283529160200191610586565b820191906000526020600020905b81548152906001019060200180831161056957829003601f168201915b5050505050905090565b600061059b82611573565b6106015760405162461bcd60e51b815260206004820152602c60248201527f4552433732313a20617070726f76656420717565727920666f72206e6f6e657860448201526b34b9ba32b73a103a37b5b2b760a11b60648201526084015b60405180910390fd5b506000908152600460205260409020546001600160a01b031690565b60006106288261097e565b9050806001600160a01b0316836001600160a01b031614156106965760405162461bcd60e51b815260206004820152602160248201527f4552433732313a20617070726f76616c20746f2063757272656e74206f776e656044820152603960f91b60648201526084016105f8565b336001600160a01b03821614806106b257506106b28133611483565b61071f5760405162461bcd60e51b815260206004820152603860248201527f4552433732313a20617070726f76652063616c6c6572206973206e6f74206f776044820152771b995c881b9bdc88185c1c1c9bdd995908199bdc88185b1b60421b60648201526084016105f8565b6107298383611590565b505050565b600061073960095490565b905090565b61074833826115fe565b6107645760405162461bcd60e51b81526004016105f890613183565b6107298383836116c8565b33610778610ab7565b6001600160a01b03161461079e5760405162461bcd60e51b81526004016105f89061314e565b476107b06107aa610ab7565b82611864565b50565b60008083600a546107c49190613230565b600d546040516370a0823160e01b81526001600160a01b038681166004830152929350600092909116906370a082319060240160206040518083038186803b15801561080f57600080fd5b505afa158015610823573d6000803e3d6000fd5b505050506040513d601f19601f820116820180604052508101906108479190612809565b111561086a576064600e548261085d9190613230565b610867919061321c565b90505b9392505050565b60008281526007602090815260408083208151808301909252546001600160a01b038116808352600160a01b9091046001600160601b03169282019290925282916108e65750604080518082019091526006546001600160a01b0381168252600160a01b90046001600160601b031660208201525b602081015160009061271090610905906001600160601b031687613230565b61090f919061321c565b915196919550909350505050565b61072983838360405180602001604052806000815250610ae0565b33610941610ab7565b6001600160a01b0316146109675760405162461bcd60e51b81526004016105f89061314e565b805161097a90600c90602084019061244b565b5050565b6000818152600260205260408120546001600160a01b0316806104f85760405162461bcd60e51b815260206004820152602960248201527f4552433732313a206f776e657220717565727920666f72206e6f6e657869737460448201526832b73a103a37b5b2b760b91b60648201526084016105f8565b60006001600160a01b038216610a605760405162461bcd60e51b815260206004820152602a60248201527f4552433732313a2062616c616e636520717565727920666f7220746865207a65604482015269726f206164647265737360b01b60648201526084016105f8565b506001600160a01b031660009081526003602052604090205490565b33610a85610ab7565b6001600160a01b031614610aab5760405162461bcd60e51b81526004016105f89061314e565b610ab5600061197d565b565b6008546001600160a01b031690565b60606001805461050d906132a9565b61097a3383836119cf565b610aea33836115fe565b610b065760405162461bcd60e51b81526004016105f890613183565b610b1284848484611a9a565b50505050565b8051610b2481336107b3565b3414610b605760405162461bcd60e51b815260206004820152600b60248201526a77726f6e6720707269636560a81b60448201526064016105f8565b60058111158015610b715750600081115b610bb05760405162461bcd60e51b815260206004820152601060248201526f34b731b7b93932b1ba10373ab6b132b960811b60448201526064016105f8565b600b5481610bbd60095490565b610bc79190613204565b1115610c0a5760405162461bcd60e51b815260206004820152601260248201527165786365656473206d617820737570706c7960701b60448201526064016105f8565b60005b81811015610d03576000838281518110610c2957610c2961333f565b6020026020010151118015610c5857506005838281518110610c4d57610c4d61333f565b602002602001015111155b610c9a5760405162461bcd60e51b815260206004820152601360248201527218dbdb1bdc88191bd95cdb89dd08195e1a5cdd606a1b60448201526064016105f8565b610ca8600980546001019055565b6000610cb360095490565b9050838281518110610cc757610cc761333f565b60200260200101516010600083815260200190815260200160002081905550610cf03382611acd565b5080610cfb816132e4565b915050610c0d565b5060408051338152602081018390527f36bf5aa3964be01dbd95a0154a8930793fe68353bdc580871ffb2c911366bbc7910160405180910390a15050565b60606000610d4e8361097e565b9050610d5983611573565b610d965760405162461bcd60e51b815260206004820152600e60248201526d191bd95cc81b9bdd08195e1a5cdd60921b60448201526064016105f8565b600083815260106020908152604080832054808452600f90925280832081516101208101909252805492939282908290610dcf906132a9565b80601f0160208091040260200160405190810160405280929190818152602001828054610dfb906132a9565b8015610e485780601f10610e1d57610100808354040283529160200191610e48565b820191906000526020600020905b815481529060010190602001808311610e2b57829003601f168201915b50505050508152602001600182018054610e61906132a9565b80601f0160208091040260200160405190810160405280929190818152602001828054610e8d906132a9565b8015610eda5780601f10610eaf57610100808354040283529160200191610eda565b820191906000526020600020905b815481529060010190602001808311610ebd57829003601f168201915b50505050508152602001600282018054610ef3906132a9565b80601f0160208091040260200160405190810160405280929190818152602001828054610f1f906132a9565b8015610f6c5780601f10610f4157610100808354040283529160200191610f6c565b820191906000526020600020905b815481529060010190602001808311610f4f57829003601f168201915b50505050508152602001600382018054610f85906132a9565b80601f0160208091040260200160405190810160405280929190818152602001828054610fb1906132a9565b8015610ffe5780601f10610fd357610100808354040283529160200191610ffe565b820191906000526020600020905b815481529060010190602001808311610fe157829003601f168201915b50505050508152602001600482018054611017906132a9565b80601f0160208091040260200160405190810160405280929190818152602001828054611043906132a9565b80156110905780601f1061106557610100808354040283529160200191611090565b820191906000526020600020905b81548152906001019060200180831161107357829003601f168201915b505050505081526020016005820180546110a9906132a9565b80601f01602080910402602001604051908101604052809291908181526020018280546110d5906132a9565b80156111225780601f106110f757610100808354040283529160200191611122565b820191906000526020600020905b81548152906001019060200180831161110557829003601f168201915b5050505050815260200160068201805461113b906132a9565b80601f0160208091040260200160405190810160405280929190818152602001828054611167906132a9565b80156111b45780601f10611189576101008083540402835291602001916111b4565b820191906000526020600020905b81548152906001019060200180831161119757829003601f168201915b505050505081526020016007820180546111cd906132a9565b80601f01602080910402602001604051908101604052809291908181526020018280546111f9906132a9565b80156112465780601f1061121b57610100808354040283529160200191611246565b820191906000526020600020905b81548152906001019060200180831161122957829003601f168201915b5050505050815260200160088201805461125f906132a9565b80601f016020809104026020016040519081016040528092919081815260200182805461128b906132a9565b80156112d85780601f106112ad576101008083540402835291602001916112d8565b820191906000526020600020905b8154815290600101906020018083116112bb57829003601f168201915b505050505081525050905060006040518060a00160405280856001600160a01b03168152602001878152602001848152602001838152602001600c805461131e906132a9565b80601f016020809104026020016040519081016040528092919081815260200182805461134a906132a9565b80156113975780601f1061136c57610100808354040283529160200191611397565b820191906000526020600020905b81548152906001019060200180831161137a57829003601f168201915b505050505081525090506113aa81611ae7565b9695505050505050565b336113bd610ab7565b6001600160a01b0316146113e35760405162461bcd60e51b81526004016105f89061314e565b606481106113f057600080fd5b600e55565b600c8054611402906132a9565b80601f016020809104026020016040519081016040528092919081815260200182805461142e906132a9565b801561147b5780601f106114505761010080835404028352916020019161147b565b820191906000526020600020905b81548152906001019060200180831161145e57829003601f168201915b505050505081565b6001600160a01b03918216600090815260056020908152604080832093909416825291909152205460ff1690565b336114ba610ab7565b6001600160a01b0316146114e05760405162461bcd60e51b81526004016105f89061314e565b6001600160a01b0381166115455760405162461bcd60e51b815260206004820152602660248201527f4f776e61626c653a206e6577206f776e657220697320746865207a65726f206160448201526564647265737360d01b60648201526084016105f8565b6107b08161197d565b60006001600160e01b0319821663152a902d60e11b14806104f857506104f882611bfd565b6000908152600260205260409020546001600160a01b0316151590565b600081815260046020526040902080546001600160a01b0319166001600160a01b03841690811790915581906115c58261097e565b6001600160a01b03167f8c5be1e5ebec7d5bd14f71427d1e84f3dd0314c0f7b2291e5b200ac8c7c3b92560405160405180910390a45050565b600061160982611573565b61166a5760405162461bcd60e51b815260206004820152602c60248201527f4552433732313a206f70657261746f7220717565727920666f72206e6f6e657860448201526b34b9ba32b73a103a37b5b2b760a11b60648201526084016105f8565b60006116758361097e565b9050806001600160a01b0316846001600160a01b0316148061169c575061169c8185611483565b806116c05750836001600160a01b03166116b584610590565b6001600160a01b0316145b949350505050565b826001600160a01b03166116db8261097e565b6001600160a01b03161461173f5760405162461bcd60e51b815260206004820152602560248201527f4552433732313a207472616e736665722066726f6d20696e636f72726563742060448201526437bbb732b960d91b60648201526084016105f8565b6001600160a01b0382166117a15760405162461bcd60e51b8152602060048201526024808201527f4552433732313a207472616e7366657220746f20746865207a65726f206164646044820152637265737360e01b60648201526084016105f8565b6117ac600082611590565b6001600160a01b03831660009081526003602052604081208054600192906117d590849061324f565b90915550506001600160a01b0382166000908152600360205260408120805460019290611803908490613204565b909155505060008181526002602052604080822080546001600160a01b0319166001600160a01b0386811691821790925591518493918716917fddf252ad1be2c89b69c2b068fc378daa952ba7f163c4a11628f55a4df523b3ef91a4505050565b804710156118b45760405162461bcd60e51b815260206004820152601d60248201527f416464726573733a20696e73756666696369656e742062616c616e636500000060448201526064016105f8565b6000826001600160a01b03168260405160006040518083038185875af1925050503d8060008114611901576040519150601f19603f3d011682016040523d82523d6000602084013e611906565b606091505b50509050806107295760405162461bcd60e51b815260206004820152603a60248201527f416464726573733a20756e61626c6520746f2073656e642076616c75652c207260448201527f6563697069656e74206d6179206861766520726576657274656400000000000060648201526084016105f8565b600880546001600160a01b038381166001600160a01b0319831681179093556040519116919082907f8be0079c531659141344cd1fd0a4f28419497f9722a3daafe3b4186f6b6457e090600090a35050565b816001600160a01b0316836001600160a01b03161415611a2d5760405162461bcd60e51b815260206004820152601960248201527822a9219b99189d1030b8383937bb32903a379031b0b63632b960391b60448201526064016105f8565b6001600160a01b03838116600081815260056020908152604080832094871680845294825291829020805460ff191686151590811790915591519182527f17307eab39ab6107e8899845ad3d59bd9653f200f220920489ca2b5937696c31910160405180910390a3505050565b611aa58484846116c8565b611ab184848484611c4d565b610b125760405162461bcd60e51b81526004016105f8906130fc565b61097a828260405180602001604052806000815250611d5a565b60606000611af483611d8d565b90506000611b2082604051602001611b0c9190612b1d565b604051602081830303815290604052611e4e565b604051602001611b309190612c66565b60405160208183030381529060405290506000611b508560200151611fa1565b608086015160408701518190611b6590611fa1565b604051602001611b789493929190612ca4565b6040516020818303038152906040529050600081611ba487600001516001600160a01b0316601461209e565b8585604051602001611bb994939291906128af565b6040516020818303038152906040529050611bd381611e4e565b604051602001611be3919061302c565b604051602081830303815290604052945050505050919050565b60006001600160e01b031982166380ac58cd60e01b1480611c2e57506001600160e01b03198216635b5e139f60e01b145b806104f857506301ffc9a760e01b6001600160e01b03198316146104f8565b60006001600160a01b0384163b15611d4f57604051630a85bd0160e11b81526001600160a01b0385169063150b7a0290611c919033908990889088906004016130b6565b602060405180830381600087803b158015611cab57600080fd5b505af1925050508015611cdb575060408051601f3d908101601f19168201909252611cd89181019061278b565b60015b611d35573d808015611d09576040519150601f19603f3d011682016040523d82523d6000602084013e611d0e565b606091505b508051611d2d5760405162461bcd60e51b81526004016105f8906130fc565b805181602001fd5b6001600160e01b031916630a85bd0160e11b1490506116c0565b506001949350505050565b611d648383612239565b611d716000848484611c4d565b6107295760405162461bcd60e51b81526004016105f8906130fc565b60606000611da38360000151846020015161236c565b90506000611db484606001516123bf565b90506000611e226040518060a00160405280606b81526020016145b8606b913983604051806103a00160405280610376815260200161420261037691398660405180610ea00160405280610e808152602001613382610e809139604051602001611b0c959493929190612ab2565b905080604051602001611e359190613071565b6040516020818303038152906040529350505050919050565b6060815160001415611e6e57505060408051602081019091526000815290565b60006040518060600160405280604081526020016145786040913990506000600384516002611e9d9190613204565b611ea7919061321c565b611eb2906004613230565b6001600160401b03811115611ec957611ec9613355565b6040519080825280601f01601f191660200182016040528015611ef3576020820181803683370190505b509050600182016020820185865187015b80821015611f5f576003820191508151603f8160121c168501518453600184019350603f81600c1c168501518453600184019350603f8160061c168501518453600184019350603f8116850151845350600183019250611f04565b5050600386510660018114611f7b5760028114611f8e57611f96565b603d6001830353603d6002830353611f96565b603d60018303535b509195945050505050565b606081611fc55750506040805180820190915260018152600360fc1b602082015290565b8160005b8115611fef5780611fd9816132e4565b9150611fe89050600a8361321c565b9150611fc9565b6000816001600160401b0381111561200957612009613355565b6040519080825280601f01601f191660200182016040528015612033576020820181803683370190505b5090505b84156116c05761204860018361324f565b9150612055600a866132ff565b612060906030613204565b60f81b8183815181106120755761207561333f565b60200101906001600160f81b031916908160001a905350612097600a8661321c565b9450612037565b606060006120ad836002613230565b6120b8906002613204565b6001600160401b038111156120cf576120cf613355565b6040519080825280601f01601f1916602001820160405280156120f9576020820181803683370190505b509050600360fc1b816000815181106121145761211461333f565b60200101906001600160f81b031916908160001a905350600f60fb1b816001815181106121435761214361333f565b60200101906001600160f81b031916908160001a9053506000612167846002613230565b612172906001613204565b90505b60018111156121ea576f181899199a1a9b1b9c1cb0b131b232b360811b85600f16601081106121a6576121a661333f565b1a60f81b8282815181106121bc576121bc61333f565b60200101906001600160f81b031916908160001a90535060049490941c936121e381613292565b9050612175565b50831561086a5760405162461bcd60e51b815260206004820181905260248201527f537472696e67733a20686578206c656e67746820696e73756666696369656e7460448201526064016105f8565b6001600160a01b03821661228f5760405162461bcd60e51b815260206004820181905260248201527f4552433732313a206d696e7420746f20746865207a65726f206164647265737360448201526064016105f8565b61229881611573565b156122e55760405162461bcd60e51b815260206004820152601c60248201527f4552433732313a20746f6b656e20616c7265616479206d696e7465640000000060448201526064016105f8565b6001600160a01b038216600090815260036020526040812080546001929061230e908490613204565b909155505060008181526002602052604080822080546001600160a01b0319166001600160a01b03861690811790915590518392907fddf252ad1be2c89b69c2b068fc378daa952ba7f163c4a11628f55a4df523b3ef908290a45050565b60606000612384846001600160a01b0316601461209e565b9050600061239184611fa1565b905081816040516020016123a6929190612bab565b6040516020818303038152906040529250505092915050565b60606000826000015183602001518460400151856060015186608001516040516020016123f0959493929190612e72565b604051602081830303815290604052905060008184608001518560a001518660c001518760e0015188610100015160405160200161243396959493929190612950565b60408051601f19818403018152919052949350505050565b828054612457906132a9565b90600052602060002090601f01602090048101928261247957600085556124bf565b82601f1061249257805160ff19168380011785556124bf565b828001600101855582156124bf579182015b828111156124bf5782518255916020019190600101906124a4565b506124cb9291506124cf565b5090565b5b808211156124cb57600081556001016124d0565b60006001600160401b038311156124fd576124fd613355565b612510601f8401601f19166020016131d4565b905082815283838301111561252457600080fd5b828260208301376000602084830101529392505050565b80356001600160a01b038116811461255257600080fd5b919050565b60006020828403121561256957600080fd5b61086a8261253b565b6000806040838503121561258557600080fd5b61258e8361253b565b915061259c6020840161253b565b90509250929050565b6000806000606084860312156125ba57600080fd5b6125c38461253b565b92506125d16020850161253b565b9150604084013590509250925092565b600080600080608085870312156125f757600080fd5b6126008561253b565b935061260e6020860161253b565b92506040850135915060608501356001600160401b0381111561263057600080fd5b8501601f8101871361264157600080fd5b612650878235602084016124e4565b91505092959194509250565b6000806040838503121561266f57600080fd5b6126788361253b565b91506020830135801515811461268d57600080fd5b809150509250929050565b600080604083850312156126ab57600080fd5b6126b48361253b565b946020939093013593505050565b600060208083850312156126d557600080fd5b82356001600160401b03808211156126ec57600080fd5b818501915085601f83011261270057600080fd5b81358181111561271257612712613355565b8060051b91506127238483016131d4565b8181528481019084860184860187018a101561273e57600080fd5b600095505b83861015612761578035835260019590950194918601918601612743565b5098975050505050505050565b60006020828403121561278057600080fd5b813561086a8161336b565b60006020828403121561279d57600080fd5b815161086a8161336b565b6000602082840312156127ba57600080fd5b81356001600160401b038111156127d057600080fd5b8201601f810184136127e157600080fd5b6116c0848235602084016124e4565b60006020828403121561280257600080fd5b5035919050565b60006020828403121561281b57600080fd5b5051919050565b6000806040838503121561283557600080fd5b8235915061259c6020840161253b565b6000806040838503121561285857600080fd5b50508035926020909101359150565b6000815180845261287f816020860160208601613266565b601f01601f19169290920160200192915050565b600081516128a5818560208601613266565b9290920192915050565b600085516128c1818460208a01613266565b8551908301906128d5818360208a01613266565b6c1116101134b6b0b3b2911d101160991b910190815284516128fe81600d840160208901613266565b731116101130b734b6b0ba34b7b72fbab936111d1160611b600d92909101918201528351612933816021840160208801613266565b61227d60f01b602192909101918201526023019695505050505050565b6000875160206129638285838d01613266565b7f7d202e6869676853636f7265207b666f6e743a203235707820436f7572696572918401918252683b2066696c6c3a202360b81b8183015288516129ad81602985018c8501613266565b757d202e6261636b67726f756e64207b66696c6c3a202360501b6029939091019283015287516129e381603f8501848c01613266565b6e7d202e6d6170207b66696c6c3a202360881b603f93909101928301528651612a1281604e8501848b01613266565b7f7d202e666f6f64207b7374726f6b653a20233030303b2066696c6c3a20230000604e93909101928301528551612a4f81606c8501848a01613266565b612aa3612a8d612a87606c848701017f7d202e736e616b657b7374726f6b653a20233030303b2066696c6c3a202300008152601e0190565b88612893565b693e901e17b9ba3cb6329f60b11b8152600a0190565b9b9a5050505050505050505050565b60008651612ac4818460208b01613266565b865190830190612ad8818360208b01613266565b8651910190612aeb818360208a01613266565b8551910190612afe818360208901613266565b8451910190612b11818360208801613266565b01979650505050505050565b7f3c21444f43545950452068746d6c3e203c68746d6c3e3c6f626a65637420747981527838329e9134b6b0b3b297b9bb3395bc36b611103230ba309e9160391b602082015260008251612b77816039850160208701613266565b7f2220616c743d22736e616b65223e3c2f6f626a6563743e3c2f68746d6c3e00006039939091019283015250605701919050565b7f3c6720636c6173733d226d65746164617461223e203c7465787420783d223530815271011103c9e911c981811101f37bbb732b91d160751b602082015260008351612bfe816032850160208801613266565b7f3c2f746578743e203c7465787420783d2235302220793d22393530223e0000006032918401918201528351612c3b81604f840160208801613266565b711798981818181e17ba32bc3a1f101e17b39f60711b604f9290910191820152606101949350505050565b7519185d184e9d195e1d0bda1d1b5b0ed8985cd94d8d0b60521b815260008251612c97816016850160208701613266565b9190910160160192915050565b707b226e616d65223a2022536e616b65202360781b81528451600090612cd1816011850160208a01613266565b7f222c20226465736372697074696f6e223a202246756c6c79206f6e20636861696011918401918201527f6e2067616d65206f6620536e616b652e20546f20706c61792c2073696d706c7960318201527f20636f70792074686520696d6167652075726c20616e6420706173746520697460518201527f20696e2061207765622062726f777365722e204f722c20766973697420746865607182015273040b69eccccd2c6d2c2d840aecac4e6d2e8caba560631b60918201528551612d9d8160a5840160208a01613266565b7f2920746f207669657720616e6420706c617920796f75722067616d65732e222c60a5929091019182015270101132bc3a32b93730b62fbab936111d1160791b60c5820152612e67612e4d612e47612df860d6850189612893565b7f222c202261747472696275746573223a205b7b2274726169745f74797065223a81527f2022436f6c6f7220536368656d65222c202276616c7565223a220000000000006020820152603a0190565b86612893565b6d113eae96101137bbb732b9111d1160911b8152600e0190565b979650505050505050565b7f3c7374796c653e202e6d65746164617461207b20666f6e743a2020333070782081526f436f75726965723b2066696c6c3a202360801b602082015260008651612ec3816030850160208b01613266565b7f207d202e7469746c65207b20666f6e743a20203830707820436f75726965723b603091840191820152672066696c6c3a202360c01b60508201528651612f11816058840160208b01613266565b7f207d202e7374617274207b666f6e743a203335707820436f75726965723b20666058929091019182015278696c6c2d6f7061636974793a202e37303b2066696c6c3a202360381b60788201528551612f71816091840160208a01613266565b7f7d202e646972656374696f6e73207b666f6e743a206974616c69632033307078609192909101918201527f20436f75726965723b2066696c6c2d6f7061636974793a202e37303b2066696c60b1820152636c3a202360e01b60d182015261302061301a612fe260d5840188612893565b7f207d202e73636f7265207b666f6e743a203430707820436f75726965723b2066815265696c6c3a202360d01b602082015260260190565b85612893565b98975050505050505050565b7f646174613a6170706c69636174696f6e2f6a736f6e3b6261736536342c00000081526000825161306481601d850160208701613266565b91909101601d0192915050565b7f646174613a696d6167652f7376672b786d6c3b6261736536342c0000000000008152600082516130a981601a850160208701613266565b91909101601a0192915050565b6001600160a01b03858116825284166020820152604081018390526080606082018190526000906113aa90830184612867565b60208152600061086a6020830184612867565b60208082526032908201527f4552433732313a207472616e7366657220746f206e6f6e20455243373231526560408201527131b2b4bb32b91034b6b83632b6b2b73a32b960711b606082015260800190565b6020808252818101527f4f776e61626c653a2063616c6c6572206973206e6f7420746865206f776e6572604082015260600190565b60208082526031908201527f4552433732313a207472616e736665722063616c6c6572206973206e6f74206f6040820152701ddb995c881b9bdc88185c1c1c9bdd9959607a1b606082015260800190565b604051601f8201601f191681016001600160401b03811182821017156131fc576131fc613355565b604052919050565b6000821982111561321757613217613313565b500190565b60008261322b5761322b613329565b500490565b600081600019048311821515161561324a5761324a613313565b500290565b60008282101561326157613261613313565b500390565b60005b83811015613281578181015183820152602001613269565b83811115610b125750506000910152565b6000816132a1576132a1613313565b506000190190565b600181811c908216806132bd57607f821691505b602082108114156132de57634e487b7160e01b600052602260045260246000fd5b50919050565b60006000198214156132f8576132f8613313565b5060010190565b60008261330e5761330e613329565b500690565b634e487b7160e01b600052601160045260246000fd5b634e487b7160e01b600052601260045260246000fd5b634e487b7160e01b600052603260045260246000fd5b634e487b7160e01b600052604160045260246000fd5b6001600160e01b0319811681146107b057600080fdfe3c726563742069643d22736e616b652220636c6173733d22736e616b652220783d223530302220793d22353030222077696474683d22323022206865696768743d223230222f3e203c726563742069643d22666f6f642220636c6173733d22666f6f642220783d222d35302220793d222d3530222077696474683d22323022206865696768743d223230222f3e203c73637269707420747970653d22746578742f6a617661736372697074223e3c215b43444154415b76617220666f6f64436f6f7264732c4b45593d7b773a38372c613a36352c733a38332c643a36382c73706163653a33327d2c6d6f766553706565643d32302c73636f72653d302c6869676853636f7265733d5b5d2c736e616b65486561643d646f63756d656e742e676574456c656d656e74427949642822736e616b6522292c7376673d646f63756d656e742e676574456c656d656e747342795461674e616d65282273766722295b305d2c7374617274546578743d646f63756d656e742e676574456c656d656e7442794964282273746172745465787422292c646972656374696f6e733d646f63756d656e742e676574456c656d656e74427949642822646972656374696f6e7322292c666f6f643d646f63756d656e742e676574456c656d656e74427949642822666f6f6422292c73636f7265436f756e7465723d646f63756d656e742e676574456c656d656e7442794964282273636f7265436f756e74657222293b7374617274546578742e74657874436f6e74656e743d22707265737320737061636520746f207374617274222c646972656374696f6e732e74657874436f6e74656e743d227468656e20772c20612c20732c2064223b76617220736e616b65426f64793d5b5d3b69735475726e696e673d21312c697352756e6e696e673d21313b7661722063757272656e74446972656374696f6e3d227269676874223b646f63756d656e742e646f63756d656e74456c656d656e742e6164644576656e744c697374656e657228226b6579646f776e222c653d3e7b68616e646c65496e7075742865297d2c2131293b7661722074696d657246756e6374696f6e3d6e756c6c3b66756e6374696f6e20737461727447616d6528297b6e756c6c3d3d74696d657246756e6374696f6e26262874696d657246756e6374696f6e3d736574496e74657276616c28676f2c3830292c72616e646f6d5f666f6f6428292c7374617274546578742e74657874436f6e74656e743d22222c646972656374696f6e732e74657874436f6e74656e743d22222c73636f7265436f756e7465722e74657874436f6e74656e743d73636f72652c697352756e6e696e673d2130297d66756e6374696f6e2075706461746553636f726528297b73636f72652b3d312c73636f7265436f756e7465722e74657874436f6e74656e743d73636f72657d66756e6374696f6e2072616e646f6d5f666f6f6428297b76617220653d4d6174682e666c6f6f722833302a4d6174682e72616e646f6d2829292c743d4d6174682e666c6f6f722833302a4d6174682e72616e646f6d2829293b652b3230303e373830262628653d373830292c742b3230303e373830262628743d373830292c666f6f64436f6f7264733d5b32302a652b3230302c32302a742b3230305d2c666f6f642e736574417474726962757465282278222c32302a652b323030292c666f6f642e736574417474726962757465282279222c32302a742b323030297d66756e6374696f6e207570646174654869676853636f726528297b76617220653d6869676853636f7265732e6c656e6774683b69662873636f72653c3d6869676853636f7265735b652d315d7c7c6869676853636f7265732e696e636c756465732873636f7265292972657475726e3b653e3d3526266869676853636f7265732e706f7028293b6c657420743d6869676853636f7265732e66696e64496e64657828653d3e73636f72653e65293b6869676853636f7265732e73706c69636528742c302c73636f7265293b666f7228766172206e3d313b6e3c3d6869676853636f7265732e6c656e6774683b6e2b2b297b646f63756d656e742e676574456c656d656e744279496428606873247b6e7d60292e74657874436f6e74656e743d6869676853636f7265735b6e2d315d7d7d66756e6374696f6e20726573657428297b69662831213d697352756e6e696e67297b646f63756d656e742e646f63756d656e74456c656d656e742e72656d6f76654576656e744c697374656e657228226b6579646f776e222c66756e6374696f6e2865297b68616e646c65496e7075742865297d2c2131292c636c656172496e74657276616c2874696d657246756e6374696f6e292c74696d657246756e6374696f6e3d6e756c6c2c69735475726e696e673d21313b666f722876617220653d303b653c736e616b65426f64792e6c656e6774683b652b2b297376672e72656d6f76654368696c6428736e616b65426f64795b655d293b736e616b65426f64793d5b5d2c73636f7265436f756e7465722e74657874436f6e74656e743d73636f72653d302c666f6f642e736574417474726962757465282278222c2d3530292c666f6f642e736574417474726962757465282279222c2d3530292c7374617274546578742e74657874436f6e74656e743d22707265737320737061636520746f207374617274222c646972656374696f6e732e74657874436f6e74656e743d227468656e20772c20612c20732c2064222c736e616b65486561642e736574417474726962757465282278222c353030292c736e616b65486561642e736574417474726962757465282279222c353030292c646f63756d656e742e646f63756d656e74456c656d656e742e6164644576656e744c697374656e657228226b6579646f776e222c66756e6374696f6e2865297b68616e646c65496e7075742865297d2c2131297d7d66756e6374696f6e20617070656e64536e616b6528297b76617220653d736e616b65486561642e636c6f6e654e6f6465282130292c743d736e616b65426f64792e6c656e6774683b743e30262628652e736574417474726962757465282278222c312a736e616b65426f64795b742d315d2e6765744174747269627574652822782229292c652e736574417474726962757465282279222c312a736e616b65426f64795b742d315d2e676574417474726962757465282279222929292c736e616b65426f64792e707573682865292c7376672e617070656e644368696c642865297d66756e6374696f6e20757064617465536e616b6528297b666f722876617220653d312a736e616b65486561642e67657441747472696275746528227822292c743d312a736e616b65486561642e67657441747472696275746528227922292c6e3d736e616b65426f64792e6c656e6774682d313b6e3e3d303b6e2d2d29696628303d3d6e29736e616b65426f64795b305d2e736574417474726962757465282278222c65292c736e616b65426f64795b305d2e736574417474726962757465282279222c74293b656c73657b766172206f3d312a736e616b65426f64795b6e2d315d2e67657441747472696275746528227822292c723d312a736e616b65426f64795b6e2d315d2e67657441747472696275746528227922293b696628736e616b65426f64795b6e5d2e736574417474726962757465282278222c6f292c736e616b65426f64795b6e5d2e736574417474726962757465282279222c72292c6f3d3d652626723d3d74297b697352756e6e696e673d21312c7570646174654869676853636f726528292c726573657428293b627265616b7d7d69735475726e696e673d21317d66756e6374696f6e20676f28297b76617220653d312a736e616b65486561642e67657441747472696275746528227822292c743d312a736e616b65486561642e67657441747472696275746528227922293b696628757064617465536e616b6528292c313d3d697352756e6e696e67297377697463682863757272656e74446972656374696f6e297b63617365227269676874223a736e616b65486561642e736574417474726962757465282278222c652b3d6d6f76655370656564293b627265616b3b63617365226c656674223a736e616b65486561642e736574417474726962757465282278222c652d3d6d6f76655370656564293b627265616b3b63617365227570223a736e616b65486561642e736574417474726962757465282279222c742d3d6d6f76655370656564293b627265616b3b6361736522646f776e223a736e616b65486561642e736574417474726962757465282279222c742b3d6d6f76655370656564297d28653c3d3138307c7c653e3d3830307c7c743c3d3138307c7c743e3d38303029262628697352756e6e696e673d21312c7570646174654869676853636f726528292c72657365742829292c653d3d666f6f64436f6f7264735b305d2626743d3d666f6f64436f6f7264735b315d26262872616e646f6d5f666f6f6428292c75706461746553636f726528292c617070656e64536e616b652829297d66756e6374696f6e2068616e646c65496e7075742865297b696628652e6b6579436f64653d3d4b45592e73706163652626737461727447616d6528292c31213d69735475726e696e67297377697463682869735475726e696e673d21302c652e6b6579436f6465297b63617365204b45592e773a22646f776e22213d63757272656e74446972656374696f6e26262863757272656e74446972656374696f6e3d22757022293b627265616b3b63617365204b45592e733a22757022213d63757272656e74446972656374696f6e26262863757272656e74446972656374696f6e3d22646f776e22293b627265616b3b63617365204b45592e613a22726967687422213d63757272656e74446972656374696f6e26262863757272656e74446972656374696f6e3d226c65667422293b627265616b3b63617365204b45592e643a226c65667422213d63757272656e74446972656374696f6e26262863757272656e74446972656374696f6e3d22726967687422297d7d5d5d3e3c2f7363726970743e203c2f7376673e3c67207374726f6b653d222330303022203e203c7265637420636c6173733d226261636b67726f756e642220783d22302220793d2230222072783d223135222077696474683d223130303022206865696768743d2231303030222f3e203c7265637420636c6173733d226d61702220783d223230302220793d22323030222077696474683d2236303022206865696768743d22363030222f3e203c2f673e203c7465787420793d223132302220783d223530252220746578742d616e63686f723d226d6964646c652220636c6173733d227469746c65223e736e616b653c2f746578743e203c746578742069643d227374617274546578742220783d223530252220793d223630302220746578742d616e63686f723d226d6964646c652220636c6173733d22737461727422203e3c2f746578743e203c746578742069643d22646972656374696f6e732220783d223530252220793d223635302220746578742d616e63686f723d226d6964646c652220636c6173733d22646972656374696f6e7322203e3c2f746578743e203c7465787420783d223930302220793d223235302220746578742d616e63686f723d226d6964646c652220636c6173733d2273636f726522203e2053636f72653a3c2f746578743e203c746578742069643d2273636f7265436f756e7465722220783d223833302220793d223330302220636c6173733d2273636f726522203e3c2f746578743e203c746578742020783d223930302220793d223535302220746578742d616e63686f723d226d6964646c652220636c6173733d226869676853636f726522203e20686967682073636f7265733a3c2f746578743e203c746578742069643d226873312220783d223833302220793d223630302220636c6173733d2273636f726522203e3c2f746578743e203c746578742069643d226873322220783d223833302220793d223635302220636c6173733d2273636f726522203e3c2f746578743e203c746578742069643d226873332220783d223833302220793d223730302220636c6173733d2273636f726522203e3c2f746578743e203c746578742069643d226873342220783d223833302220793d223735302220636c6173733d2273636f726522203e3c2f746578743e203c746578742069643d226873352220783d223833302220793d223830302220636c6173733d2273636f726522203e3c2f746578743e4142434445464748494a4b4c4d4e4f505152535455565758595a6162636465666768696a6b6c6d6e6f707172737475767778797a303132333435363738392b2f3c73766720786d6c6e733d22687474703a2f2f7777772e77332e6f72672f323030302f7376672220786d6c6e733a786c696e6b3d22687474703a2f2f7777772e77332e6f72672f313939392f786c696e6b222076696577426f783d2230203020313030302031303030223ea26469706673582212201e0668634fde3fcca4fd28e14f1478d2bedd454275dc3fc71dac23c69a196f9264736f6c63430008070033",
			"opcodes": "PUSH7 0x8E1BC9BF040000 PUSH1 0xA SSTORE PUSH2 0x2710 PUSH1 0xB SSTORE PUSH1 0xC0 PUSH1 0x40 MSTORE PUSH1 0x3 PUSH1 0x80 DUP2 SWAP1 MSTORE PUSH3 0x151091 PUSH1 0xEA SHL PUSH1 0xA0 SWAP1 DUP2 MSTORE PUSH3 0x37 SWAP2 PUSH1 0xC SWAP2 SWAP1 PUSH3 0xDB2 JUMP JUMPDEST POP PUSH1 0xD DUP1 SLOAD PUSH1 0x1 PUSH1 0x1 PUSH1 0xA0 SHL SUB NOT AND PUSH20 0xC3B88A12D8CDA6B9802C30BE4BB18BDD1828B317 OR SWAP1 SSTORE CALLVALUE DUP1 ISZERO PUSH3 0x6B JUMPI PUSH1 0x0 DUP1 REVERT JUMPDEST POP PUSH1 0x40 MLOAD DUP1 PUSH1 0x40 ADD PUSH1 0x40 MSTORE DUP1 PUSH1 0x5 DUP2 MSTORE PUSH1 0x20 ADD PUSH5 0x536E616B65 PUSH1 0xD8 SHL DUP2 MSTORE POP PUSH1 0x40 MLOAD DUP1 PUSH1 0x40 ADD PUSH1 0x40 MSTORE DUP1 PUSH1 0x5 DUP2 MSTORE PUSH1 0x20 ADD PUSH5 0x534E414B45 PUSH1 0xD8 SHL DUP2 MSTORE POP DUP2 PUSH1 0x0 SWAP1 DUP1 MLOAD SWAP1 PUSH1 0x20 ADD SWAP1 PUSH3 0xC0 SWAP3 SWAP2 SWAP1 PUSH3 0xDB2 JUMP JUMPDEST POP DUP1 MLOAD PUSH3 0xD6 SWAP1 PUSH1 0x1 SWAP1 PUSH1 0x20 DUP5 ADD SWAP1 PUSH3 0xDB2 JUMP JUMPDEST POP POP POP PUSH3 0xF3 PUSH3 0xED PUSH3 0xBE8 PUSH1 0x20 SHL PUSH1 0x20 SHR JUMP JUMPDEST PUSH3 0xBEC JUMP JUMPDEST PUSH3 0x100 ADDRESS PUSH1 0xFA PUSH3 0xC3E JUMP JUMPDEST PUSH3 0x10C PUSH1 0x50 PUSH3 0xD43 JUMP JUMPDEST PUSH1 0x40 DUP1 MLOAD PUSH2 0x160 DUP2 ADD DUP3 MSTORE PUSH1 0x6 PUSH2 0x120 DUP3 ADD DUP2 DUP2 MSTORE PUSH6 0x613631326465 PUSH1 0xD0 SHL PUSH2 0x140 DUP5 ADD DUP2 SWAP1 MSTORE SWAP1 DUP4 MSTORE DUP4 MLOAD DUP1 DUP6 ADD DUP6 MSTORE DUP3 DUP2 MSTORE PUSH1 0x20 DUP2 DUP2 ADD DUP4 SWAP1 MSTORE DUP1 DUP6 ADD SWAP2 SWAP1 SWAP2 MSTORE DUP5 MLOAD DUP1 DUP7 ADD DUP7 MSTORE DUP4 DUP2 MSTORE DUP1 DUP3 ADD DUP4 SWAP1 MSTORE DUP5 DUP7 ADD MSTORE DUP5 MLOAD DUP1 DUP7 ADD DUP7 MSTORE DUP4 DUP2 MSTORE DUP1 DUP3 ADD DUP4 SWAP1 MSTORE PUSH1 0x60 DUP6 ADD MSTORE DUP5 MLOAD DUP1 DUP7 ADD DUP7 MSTORE DUP4 DUP2 MSTORE DUP1 DUP3 ADD SWAP3 SWAP1 SWAP3 MSTORE PUSH1 0x80 DUP5 ADD SWAP2 SWAP1 SWAP2 MSTORE DUP4 MLOAD DUP1 DUP6 ADD DUP6 MSTORE DUP3 DUP2 MSTORE PUSH6 0x45424445463 PUSH1 0xD4 SHL DUP2 DUP4 ADD MSTORE PUSH1 0xA0 DUP5 ADD MSTORE DUP4 MLOAD DUP1 DUP6 ADD DUP6 MSTORE DUP3 DUP2 MSTORE PUSH6 0x666665353939 PUSH1 0xD0 SHL DUP2 DUP4 ADD MSTORE PUSH1 0xC0 DUP5 ADD MSTORE DUP4 MLOAD DUP1 DUP6 ADD DUP6 MSTORE DUP3 DUP2 MSTORE PUSH6 0x32374145363 PUSH1 0xD4 SHL DUP2 DUP4 ADD MSTORE PUSH1 0xE0 DUP5 ADD MSTORE DUP4 MLOAD DUP1 DUP6 ADD SWAP1 SWAP5 MSTORE SWAP1 DUP4 MSTORE PUSH6 0x23231AA219A1 PUSH1 0xD1 SHL DUP4 DUP3 ADD MSTORE PUSH2 0x100 DUP3 ADD SWAP3 SWAP1 SWAP3 MSTORE PUSH1 0x1 PUSH1 0x0 MSTORE PUSH1 0xF DUP3 MSTORE DUP1 MLOAD DUP1 MLOAD SWAP2 SWAP3 PUSH32 0x169F97DE0D9A84D840042B17D3C6B9638B3D6FD9024C9EB0C7A306A17B49F88F SWAP3 PUSH3 0x24A SWAP3 DUP5 SWAP3 ADD SWAP1 PUSH3 0xDB2 JUMP JUMPDEST POP PUSH1 0x20 DUP3 DUP2 ADD MLOAD DUP1 MLOAD PUSH3 0x265 SWAP3 PUSH1 0x1 DUP6 ADD SWAP3 ADD SWAP1 PUSH3 0xDB2 JUMP JUMPDEST POP PUSH1 0x40 DUP3 ADD MLOAD DUP1 MLOAD PUSH3 0x283 SWAP2 PUSH1 0x2 DUP5 ADD SWAP2 PUSH1 0x20 SWAP1 SWAP2 ADD SWAP1 PUSH3 0xDB2 JUMP JUMPDEST POP PUSH1 0x60 DUP3 ADD MLOAD DUP1 MLOAD PUSH3 0x2A1 SWAP2 PUSH1 0x3 DUP5 ADD SWAP2 PUSH1 0x20 SWAP1 SWAP2 ADD SWAP1 PUSH3 0xDB2 JUMP JUMPDEST POP PUSH1 0x80 DUP3 ADD MLOAD DUP1 MLOAD PUSH3 0x2BF SWAP2 PUSH1 0x4 DUP5 ADD SWAP2 PUSH1 0x20 SWAP1 SWAP2 ADD SWAP1 PUSH3 0xDB2 JUMP JUMPDEST POP PUSH1 0xA0 DUP3 ADD MLOAD DUP1 MLOAD PUSH3 0x2DD SWAP2 PUSH1 0x5 DUP5 ADD SWAP2 PUSH1 0x20 SWAP1 SWAP2 ADD SWAP1 PUSH3 0xDB2 JUMP JUMPDEST POP PUSH1 0xC0 DUP3 ADD MLOAD DUP1 MLOAD PUSH3 0x2FB SWAP2 PUSH1 0x6 DUP5 ADD SWAP2 PUSH1 0x20 SWAP1 SWAP2 ADD SWAP1 PUSH3 0xDB2 JUMP JUMPDEST POP PUSH1 0xE0 DUP3 ADD MLOAD DUP1 MLOAD PUSH3 0x319 SWAP2 PUSH1 0x7 DUP5 ADD SWAP2 PUSH1 0x20 SWAP1 SWAP2 ADD SWAP1 PUSH3 0xDB2 JUMP JUMPDEST POP PUSH2 0x100 DUP3 ADD MLOAD DUP1 MLOAD PUSH3 0x338 SWAP2 PUSH1 0x8 DUP5 ADD SWAP2 PUSH1 0x20 SWAP1 SWAP2 ADD SWAP1 PUSH3 0xDB2 JUMP JUMPDEST POP POP PUSH1 0x40 DUP1 MLOAD PUSH2 0x160 DUP2 ADD DUP3 MSTORE PUSH1 0x6 PUSH2 0x120 DUP3 ADD DUP2 DUP2 MSTORE PUSH6 0xC8C8DD8CE59 PUSH1 0xD2 SHL PUSH2 0x140 DUP5 ADD DUP2 SWAP1 MSTORE SWAP1 DUP4 MSTORE DUP4 MLOAD DUP1 DUP6 ADD DUP6 MSTORE DUP3 DUP2 MSTORE PUSH1 0x20 DUP2 DUP2 ADD DUP4 SWAP1 MSTORE DUP1 DUP6 ADD SWAP2 SWAP1 SWAP2 MSTORE DUP5 MLOAD DUP1 DUP7 ADD DUP7 MSTORE DUP4 DUP2 MSTORE DUP1 DUP3 ADD DUP4 SWAP1 MSTORE DUP5 DUP7 ADD MSTORE DUP5 MLOAD DUP1 DUP7 ADD DUP7 MSTORE DUP4 DUP2 MSTORE DUP1 DUP3 ADD DUP4 SWAP1 MSTORE PUSH1 0x60 DUP6 ADD MSTORE DUP5 MLOAD DUP1 DUP7 ADD DUP7 MSTORE DUP4 DUP2 MSTORE DUP1 DUP3 ADD SWAP3 SWAP1 SWAP3 MSTORE PUSH1 0x80 DUP5 ADD SWAP2 SWAP1 SWAP2 MSTORE DUP4 MLOAD DUP1 DUP6 ADD DUP6 MSTORE DUP3 DUP2 MSTORE PUSH6 0x3332B31CB2B3 PUSH1 0xD1 SHL DUP2 DUP4 ADD MSTORE PUSH1 0xA0 DUP5 ADD MSTORE DUP4 MLOAD DUP1 DUP6 ADD DUP6 MSTORE DUP3 DUP2 MSTORE PUSH6 0x189BB199B119 PUSH1 0xD1 SHL DUP2 DUP4 ADD MSTORE PUSH1 0xC0 DUP5 ADD MSTORE DUP4 MLOAD DUP1 DUP6 ADD DUP6 MSTORE DUP3 DUP2 MSTORE PUSH6 0x666536643733 PUSH1 0xD0 SHL DUP2 DUP4 ADD MSTORE PUSH1 0xE0 DUP5 ADD MSTORE DUP4 MLOAD DUP1 DUP6 ADD SWAP1 SWAP5 MSTORE SWAP1 DUP4 MSTORE PUSH6 0x666663623737 PUSH1 0xD0 SHL DUP4 DUP3 ADD MSTORE PUSH2 0x100 DUP3 ADD SWAP3 SWAP1 SWAP3 MSTORE PUSH1 0x2 PUSH1 0x0 MSTORE PUSH1 0xF DUP3 MSTORE DUP1 MLOAD DUP1 MLOAD SWAP2 SWAP4 POP PUSH32 0xA74BA3945261E09FDE15BA3DB55005B205E61EEB4AD811AC0FAA2B315BFFEEAD SWAP3 PUSH3 0x47B SWAP3 DUP5 SWAP3 SWAP1 SWAP2 ADD SWAP1 PUSH3 0xDB2 JUMP JUMPDEST POP PUSH1 0x20 DUP3 DUP2 ADD MLOAD DUP1 MLOAD PUSH3 0x496 SWAP3 PUSH1 0x1 DUP6 ADD SWAP3 ADD SWAP1 PUSH3 0xDB2 JUMP JUMPDEST POP PUSH1 0x40 DUP3 ADD MLOAD DUP1 MLOAD PUSH3 0x4B4 SWAP2 PUSH1 0x2 DUP5 ADD SWAP2 PUSH1 0x20 SWAP1 SWAP2 ADD SWAP1 PUSH3 0xDB2 JUMP JUMPDEST POP PUSH1 0x60 DUP3 ADD MLOAD DUP1 MLOAD PUSH3 0x4D2 SWAP2 PUSH1 0x3 DUP5 ADD SWAP2 PUSH1 0x20 SWAP1 SWAP2 ADD SWAP1 PUSH3 0xDB2 JUMP JUMPDEST POP PUSH1 0x80 DUP3 ADD MLOAD DUP1 MLOAD PUSH3 0x4F0 SWAP2 PUSH1 0x4 DUP5 ADD SWAP2 PUSH1 0x20 SWAP1 SWAP2 ADD SWAP1 PUSH3 0xDB2 JUMP JUMPDEST POP PUSH1 0xA0 DUP3 ADD MLOAD DUP1 MLOAD PUSH3 0x50E SWAP2 PUSH1 0x5 DUP5 ADD SWAP2 PUSH1 0x20 SWAP1 SWAP2 ADD SWAP1 PUSH3 0xDB2 JUMP JUMPDEST POP PUSH1 0xC0 DUP3 ADD MLOAD DUP1 MLOAD PUSH3 0x52C SWAP2 PUSH1 0x6 DUP5 ADD SWAP2 PUSH1 0x20 SWAP1 SWAP2 ADD SWAP1 PUSH3 0xDB2 JUMP JUMPDEST POP PUSH1 0xE0 DUP3 ADD MLOAD DUP1 MLOAD PUSH3 0x54A SWAP2 PUSH1 0x7 DUP5 ADD SWAP2 PUSH1 0x20 SWAP1 SWAP2 ADD SWAP1 PUSH3 0xDB2 JUMP JUMPDEST POP PUSH2 0x100 DUP3 ADD MLOAD DUP1 MLOAD PUSH3 0x569 SWAP2 PUSH1 0x8 DUP5 ADD SWAP2 PUSH1 0x20 SWAP1 SWAP2 ADD SWAP1 PUSH3 0xDB2 JUMP JUMPDEST POP POP PUSH1 0x40 DUP1 MLOAD PUSH2 0x160 DUP2 ADD DUP3 MSTORE PUSH1 0x6 PUSH2 0x120 DUP3 ADD DUP2 DUP2 MSTORE PUSH6 0x326336653439 PUSH1 0xD0 SHL PUSH2 0x140 DUP5 ADD MSTORE DUP3 MSTORE DUP3 MLOAD DUP1 DUP5 ADD DUP5 MSTORE DUP2 DUP2 MSTORE PUSH6 0x346339353663 PUSH1 0xD0 SHL PUSH1 0x20 DUP3 DUP2 ADD DUP3 SWAP1 MSTORE DUP1 DUP6 ADD SWAP3 SWAP1 SWAP3 MSTORE DUP5 MLOAD DUP1 DUP7 ADD DUP7 MSTORE DUP4 DUP2 MSTORE DUP1 DUP4 ADD DUP3 SWAP1 MSTORE DUP5 DUP7 ADD MSTORE DUP5 MLOAD DUP1 DUP7 ADD DUP7 MSTORE DUP4 DUP2 MSTORE DUP1 DUP4 ADD DUP3 SWAP1 MSTORE PUSH1 0x60 DUP6 ADD MSTORE DUP5 MLOAD DUP1 DUP7 ADD DUP7 MSTORE DUP4 DUP2 MSTORE DUP1 DUP4 ADD DUP3 SWAP1 MSTORE PUSH1 0x80 DUP6 ADD MSTORE DUP5 MLOAD DUP1 DUP7 ADD DUP7 MSTORE DUP4 DUP2 MSTORE PUSH6 0x666663396239 PUSH1 0xD0 SHL DUP2 DUP5 ADD DUP2 SWAP1 MSTORE PUSH1 0xA0 DUP7 ADD SWAP2 SWAP1 SWAP2 MSTORE DUP6 MLOAD DUP1 DUP8 ADD DUP8 MSTORE DUP5 DUP2 MSTORE PUSH6 0x666566656533 PUSH1 0xD0 SHL DUP2 DUP6 ADD MSTORE PUSH1 0xC0 DUP7 ADD MSTORE DUP6 MLOAD DUP1 DUP8 ADD DUP8 MSTORE DUP5 DUP2 MSTORE DUP1 DUP5 ADD SWAP2 SWAP1 SWAP2 MSTORE PUSH1 0xE0 DUP6 ADD MSTORE DUP5 MLOAD DUP1 DUP7 ADD SWAP1 SWAP6 MSTORE SWAP2 DUP5 MSTORE DUP4 DUP2 ADD SWAP2 SWAP1 SWAP2 MSTORE PUSH2 0x100 DUP3 ADD SWAP3 SWAP1 SWAP3 MSTORE PUSH1 0x3 PUSH1 0x0 MSTORE PUSH1 0xF DUP3 MSTORE DUP1 MLOAD DUP1 MLOAD SWAP2 SWAP4 POP PUSH32 0x45F76DAFBBAD695564362934E24D72EEDC57F9FC1A65F39BCA62176CC8296828 SWAP3 PUSH3 0x6A6 SWAP3 DUP5 SWAP3 SWAP1 SWAP2 ADD SWAP1 PUSH3 0xDB2 JUMP JUMPDEST POP PUSH1 0x20 DUP3 DUP2 ADD MLOAD DUP1 MLOAD PUSH3 0x6C1 SWAP3 PUSH1 0x1 DUP6 ADD SWAP3 ADD SWAP1 PUSH3 0xDB2 JUMP JUMPDEST POP PUSH1 0x40 DUP3 ADD MLOAD DUP1 MLOAD PUSH3 0x6DF SWAP2 PUSH1 0x2 DUP5 ADD SWAP2 PUSH1 0x20 SWAP1 SWAP2 ADD SWAP1 PUSH3 0xDB2 JUMP JUMPDEST POP PUSH1 0x60 DUP3 ADD MLOAD DUP1 MLOAD PUSH3 0x6FD SWAP2 PUSH1 0x3 DUP5 ADD SWAP2 PUSH1 0x20 SWAP1 SWAP2 ADD SWAP1 PUSH3 0xDB2 JUMP JUMPDEST POP PUSH1 0x80 DUP3 ADD MLOAD DUP1 MLOAD PUSH3 0x71B SWAP2 PUSH1 0x4 DUP5 ADD SWAP2 PUSH1 0x20 SWAP1 SWAP2 ADD SWAP1 PUSH3 0xDB2 JUMP JUMPDEST POP PUSH1 0xA0 DUP3 ADD MLOAD DUP1 MLOAD PUSH3 0x739 SWAP2 PUSH1 0x5 DUP5 ADD SWAP2 PUSH1 0x20 SWAP1 SWAP2 ADD SWAP1 PUSH3 0xDB2 JUMP JUMPDEST POP PUSH1 0xC0 DUP3 ADD MLOAD DUP1 MLOAD PUSH3 0x757 SWAP2 PUSH1 0x6 DUP5 ADD SWAP2 PUSH1 0x20 SWAP1 SWAP2 ADD SWAP1 PUSH3 0xDB2 JUMP JUMPDEST POP PUSH1 0xE0 DUP3 ADD MLOAD DUP1 MLOAD PUSH3 0x775 SWAP2 PUSH1 0x7 DUP5 ADD SWAP2 PUSH1 0x20 SWAP1 SWAP2 ADD SWAP1 PUSH3 0xDB2 JUMP JUMPDEST POP PUSH2 0x100 DUP3 ADD MLOAD DUP1 MLOAD PUSH3 0x794 SWAP2 PUSH1 0x8 DUP5 ADD SWAP2 PUSH1 0x20 SWAP1 SWAP2 ADD SWAP1 PUSH3 0xDB2 JUMP JUMPDEST POP POP PUSH1 0x40 DUP1 MLOAD PUSH2 0x160 DUP2 ADD DUP3 MSTORE PUSH1 0x6 PUSH2 0x120 DUP3 ADD DUP2 DUP2 MSTORE PUSH6 0x306230393061 PUSH1 0xD0 SHL PUSH2 0x140 DUP5 ADD DUP2 SWAP1 MSTORE SWAP1 DUP4 MSTORE DUP4 MLOAD DUP1 DUP6 ADD DUP6 MSTORE DUP3 DUP2 MSTORE PUSH1 0x20 DUP2 DUP2 ADD DUP4 SWAP1 MSTORE DUP1 DUP6 ADD SWAP2 SWAP1 SWAP2 MSTORE DUP5 MLOAD DUP1 DUP7 ADD DUP7 MSTORE DUP4 DUP2 MSTORE DUP1 DUP3 ADD DUP4 SWAP1 MSTORE DUP5 DUP7 ADD MSTORE DUP5 MLOAD DUP1 DUP7 ADD DUP7 MSTORE DUP4 DUP2 MSTORE DUP1 DUP3 ADD DUP4 SWAP1 MSTORE PUSH1 0x60 DUP6 ADD MSTORE DUP5 MLOAD DUP1 DUP7 ADD DUP7 MSTORE DUP4 DUP2 MSTORE DUP1 DUP3 ADD DUP4 SWAP1 MSTORE PUSH1 0x80 DUP6 ADD MSTORE DUP5 MLOAD DUP1 DUP7 ADD DUP7 MSTORE DUP4 DUP2 MSTORE PUSH6 0x3130989C18B1 PUSH1 0xD1 SHL DUP2 DUP4 ADD DUP2 SWAP1 MSTORE PUSH1 0xA0 DUP7 ADD SWAP2 SWAP1 SWAP2 MSTORE DUP6 MLOAD DUP1 DUP8 ADD DUP8 MSTORE DUP5 DUP2 MSTORE PUSH6 0x3118B09BB09B PUSH1 0xD1 SHL DUP2 DUP5 ADD MSTORE PUSH1 0xC0 DUP7 ADD MSTORE DUP6 MLOAD DUP1 DUP8 ADD DUP8 MSTORE DUP5 DUP2 MSTORE DUP1 DUP4 ADD SWAP2 SWAP1 SWAP2 MSTORE PUSH1 0xE0 DUP6 ADD MSTORE DUP5 MLOAD DUP1 DUP7 ADD SWAP1 SWAP6 MSTORE SWAP2 DUP5 MSTORE DUP4 DUP3 ADD MSTORE PUSH2 0x100 DUP3 ADD SWAP3 SWAP1 SWAP3 MSTORE PUSH1 0x4 PUSH1 0x0 MSTORE PUSH1 0xF DUP3 MSTORE DUP1 MLOAD DUP1 MLOAD SWAP2 SWAP4 POP PUSH32 0x367CCD2D0AC16BF7110A5DFFE0801FDC9452A95A1ADB7E1A12FE97DD3E9A4EDD SWAP3 PUSH3 0x8C7 SWAP3 DUP5 SWAP3 SWAP1 SWAP2 ADD SWAP1 PUSH3 0xDB2 JUMP JUMPDEST POP PUSH1 0x20 DUP3 DUP2 ADD MLOAD DUP1 MLOAD PUSH3 0x8E2 SWAP3 PUSH1 0x1 DUP6 ADD SWAP3 ADD SWAP1 PUSH3 0xDB2 JUMP JUMPDEST POP PUSH1 0x40 DUP3 ADD MLOAD DUP1 MLOAD PUSH3 0x900 SWAP2 PUSH1 0x2 DUP5 ADD SWAP2 PUSH1 0x20 SWAP1 SWAP2 ADD SWAP1 PUSH3 0xDB2 JUMP JUMPDEST POP PUSH1 0x60 DUP3 ADD MLOAD DUP1 MLOAD PUSH3 0x91E SWAP2 PUSH1 0x3 DUP5 ADD SWAP2 PUSH1 0x20 SWAP1 SWAP2 ADD SWAP1 PUSH3 0xDB2 JUMP JUMPDEST POP PUSH1 0x80 DUP3 ADD MLOAD DUP1 MLOAD PUSH3 0x93C SWAP2 PUSH1 0x4 DUP5 ADD SWAP2 PUSH1 0x20 SWAP1 SWAP2 ADD SWAP1 PUSH3 0xDB2 JUMP JUMPDEST POP PUSH1 0xA0 DUP3 ADD MLOAD DUP1 MLOAD PUSH3 0x95A SWAP2 PUSH1 0x5 DUP5 ADD SWAP2 PUSH1 0x20 SWAP1 SWAP2 ADD SWAP1 PUSH3 0xDB2 JUMP JUMPDEST POP PUSH1 0xC0 DUP3 ADD MLOAD DUP1 MLOAD PUSH3 0x978 SWAP2 PUSH1 0x6 DUP5 ADD SWAP2 PUSH1 0x20 SWAP1 SWAP2 ADD SWAP1 PUSH3 0xDB2 JUMP JUMPDEST POP PUSH1 0xE0 DUP3 ADD MLOAD DUP1 MLOAD PUSH3 0x996 SWAP2 PUSH1 0x7 DUP5 ADD SWAP2 PUSH1 0x20 SWAP1 SWAP2 ADD SWAP1 PUSH3 0xDB2 JUMP JUMPDEST POP PUSH2 0x100 DUP3 ADD MLOAD DUP1 MLOAD PUSH3 0x9B5 SWAP2 PUSH1 0x8 DUP5 ADD SWAP2 PUSH1 0x20 SWAP1 SWAP2 ADD SWAP1 PUSH3 0xDB2 JUMP JUMPDEST POP POP PUSH1 0x40 DUP1 MLOAD PUSH2 0x160 DUP2 ADD DUP3 MSTORE PUSH1 0x6 PUSH2 0x120 DUP3 ADD DUP2 DUP2 MSTORE PUSH6 0x66656534343 PUSH1 0xD4 SHL PUSH2 0x140 DUP5 ADD DUP2 SWAP1 MSTORE SWAP1 DUP4 MSTORE DUP4 MLOAD DUP1 DUP6 ADD DUP6 MSTORE DUP3 DUP2 MSTORE PUSH1 0x20 DUP2 DUP2 ADD DUP4 SWAP1 MSTORE DUP1 DUP6 ADD SWAP2 SWAP1 SWAP2 MSTORE DUP5 MLOAD DUP1 DUP7 ADD DUP7 MSTORE DUP4 DUP2 MSTORE PUSH6 0x663135626235 PUSH1 0xD0 SHL DUP2 DUP4 ADD DUP2 SWAP1 MSTORE DUP6 DUP8 ADD SWAP2 SWAP1 SWAP2 MSTORE DUP6 MLOAD DUP1 DUP8 ADD DUP8 MSTORE DUP5 DUP2 MSTORE DUP1 DUP4 ADD DUP3 SWAP1 MSTORE PUSH1 0x60 DUP7 ADD MSTORE DUP6 MLOAD DUP1 DUP8 ADD DUP8 MSTORE DUP5 DUP2 MSTORE DUP1 DUP4 ADD DUP5 SWAP1 MSTORE PUSH1 0x80 DUP7 ADD MSTORE DUP6 MLOAD DUP1 DUP8 ADD DUP8 MSTORE DUP5 DUP2 MSTORE PUSH6 0x396235646535 PUSH1 0xD0 SHL DUP2 DUP5 ADD MSTORE PUSH1 0xA0 DUP7 ADD MSTORE DUP6 MLOAD DUP1 DUP8 ADD DUP8 MSTORE DUP5 DUP2 MSTORE PUSH6 0xC0C198D590D PUSH1 0xD2 SHL DUP2 DUP5 ADD MSTORE PUSH1 0xC0 DUP7 ADD MSTORE DUP6 MLOAD DUP1 DUP8 ADD DUP8 MSTORE DUP5 DUP2 MSTORE DUP1 DUP4 ADD SWAP2 SWAP1 SWAP2 MSTORE PUSH1 0xE0 DUP6 ADD MSTORE DUP5 MLOAD DUP1 DUP7 ADD SWAP1 SWAP6 MSTORE SWAP2 DUP5 MSTORE DUP4 DUP3 ADD MSTORE PUSH2 0x100 DUP3 ADD SWAP3 SWAP1 SWAP3 MSTORE PUSH1 0x5 PUSH1 0x0 MSTORE PUSH1 0xF DUP3 MSTORE DUP1 MLOAD DUP1 MLOAD SWAP2 SWAP4 POP PUSH32 0x6BDA57492EBA051CB4A12A1E19DF47C9755D78165341D4009B1D09B3F3616204 SWAP3 PUSH3 0xAF0 SWAP3 DUP5 SWAP3 SWAP1 SWAP2 ADD SWAP1 PUSH3 0xDB2 JUMP JUMPDEST POP PUSH1 0x20 DUP3 DUP2 ADD MLOAD DUP1 MLOAD PUSH3 0xB0B SWAP3 PUSH1 0x1 DUP6 ADD SWAP3 ADD SWAP1 PUSH3 0xDB2 JUMP JUMPDEST POP PUSH1 0x40 DUP3 ADD MLOAD DUP1 MLOAD PUSH3 0xB29 SWAP2 PUSH1 0x2 DUP5 ADD SWAP2 PUSH1 0x20 SWAP1 SWAP2 ADD SWAP1 PUSH3 0xDB2 JUMP JUMPDEST POP PUSH1 0x60 DUP3 ADD MLOAD DUP1 MLOAD PUSH3 0xB47 SWAP2 PUSH1 0x3 DUP5 ADD SWAP2 PUSH1 0x20 SWAP1 SWAP2 ADD SWAP1 PUSH3 0xDB2 JUMP JUMPDEST POP PUSH1 0x80 DUP3 ADD MLOAD DUP1 MLOAD PUSH3 0xB65 SWAP2 PUSH1 0x4 DUP5 ADD SWAP2 PUSH1 0x20 SWAP1 SWAP2 ADD SWAP1 PUSH3 0xDB2 JUMP JUMPDEST POP PUSH1 0xA0 DUP3 ADD MLOAD DUP1 MLOAD PUSH3 0xB83 SWAP2 PUSH1 0x5 DUP5 ADD SWAP2 PUSH1 0x20 SWAP1 SWAP2 ADD SWAP1 PUSH3 0xDB2 JUMP JUMPDEST POP PUSH1 0xC0 DUP3 ADD MLOAD DUP1 MLOAD PUSH3 0xBA1 SWAP2 PUSH1 0x6 DUP5 ADD SWAP2 PUSH1 0x20 SWAP1 SWAP2 ADD SWAP1 PUSH3 0xDB2 JUMP JUMPDEST POP PUSH1 0xE0 DUP3 ADD MLOAD DUP1 MLOAD PUSH3 0xBBF SWAP2 PUSH1 0x7 DUP5 ADD SWAP2 PUSH1 0x20 SWAP1 SWAP2 ADD SWAP1 PUSH3 0xDB2 JUMP JUMPDEST POP PUSH2 0x100 DUP3 ADD MLOAD DUP1 MLOAD PUSH3 0xBDE SWAP2 PUSH1 0x8 DUP5 ADD SWAP2 PUSH1 0x20 SWAP1 SWAP2 ADD SWAP1 PUSH3 0xDB2 JUMP JUMPDEST POP SWAP1 POP POP PUSH3 0xE95 JUMP JUMPDEST CALLER SWAP1 JUMP JUMPDEST PUSH1 0x8 DUP1 SLOAD PUSH1 0x1 PUSH1 0x1 PUSH1 0xA0 SHL SUB DUP4 DUP2 AND PUSH1 0x1 PUSH1 0x1 PUSH1 0xA0 SHL SUB NOT DUP4 AND DUP2 OR SWAP1 SWAP4 SSTORE PUSH1 0x40 MLOAD SWAP2 AND SWAP2 SWAP1 DUP3 SWAP1 PUSH32 0x8BE0079C531659141344CD1FD0A4F28419497F9722A3DAAFE3B4186F6B6457E0 SWAP1 PUSH1 0x0 SWAP1 LOG3 POP POP JUMP JUMPDEST PUSH2 0x2710 PUSH1 0x1 PUSH1 0x1 PUSH1 0x60 SHL SUB DUP3 AND GT ISZERO PUSH3 0xCB2 JUMPI PUSH1 0x40 MLOAD PUSH3 0x461BCD PUSH1 0xE5 SHL DUP2 MSTORE PUSH1 0x20 PUSH1 0x4 DUP3 ADD MSTORE PUSH1 0x2A PUSH1 0x24 DUP3 ADD MSTORE PUSH32 0x455243323938313A20726F79616C7479206665652077696C6C20657863656564 PUSH1 0x44 DUP3 ADD MSTORE PUSH10 0x2073616C655072696365 PUSH1 0xB0 SHL PUSH1 0x64 DUP3 ADD MSTORE PUSH1 0x84 ADD JUMPDEST PUSH1 0x40 MLOAD DUP1 SWAP2 SUB SWAP1 REVERT JUMPDEST PUSH1 0x1 PUSH1 0x1 PUSH1 0xA0 SHL SUB DUP3 AND PUSH3 0xD0A JUMPI PUSH1 0x40 MLOAD PUSH3 0x461BCD PUSH1 0xE5 SHL DUP2 MSTORE PUSH1 0x20 PUSH1 0x4 DUP3 ADD MSTORE PUSH1 0x19 PUSH1 0x24 DUP3 ADD MSTORE PUSH32 0x455243323938313A20696E76616C696420726563656976657200000000000000 PUSH1 0x44 DUP3 ADD MSTORE PUSH1 0x64 ADD PUSH3 0xCA9 JUMP JUMPDEST PUSH1 0x40 DUP1 MLOAD DUP1 DUP3 ADD SWAP1 SWAP2 MSTORE PUSH1 0x1 PUSH1 0x1 PUSH1 0xA0 SHL SUB SWAP1 SWAP3 AND DUP1 DUP4 MSTORE PUSH1 0x1 PUSH1 0x1 PUSH1 0x60 SHL SUB SWAP1 SWAP2 AND PUSH1 0x20 SWAP1 SWAP3 ADD DUP3 SWAP1 MSTORE PUSH1 0x1 PUSH1 0xA0 SHL SWAP1 SWAP2 MUL OR PUSH1 0x6 SSTORE JUMP JUMPDEST PUSH1 0x8 SLOAD PUSH1 0x1 PUSH1 0x1 PUSH1 0xA0 SHL SUB AND CALLER EQ PUSH3 0xD9F JUMPI PUSH1 0x40 MLOAD PUSH3 0x461BCD PUSH1 0xE5 SHL DUP2 MSTORE PUSH1 0x20 PUSH1 0x4 DUP3 ADD DUP2 SWAP1 MSTORE PUSH1 0x24 DUP3 ADD MSTORE PUSH32 0x4F776E61626C653A2063616C6C6572206973206E6F7420746865206F776E6572 PUSH1 0x44 DUP3 ADD MSTORE PUSH1 0x64 ADD PUSH3 0xCA9 JUMP JUMPDEST PUSH1 0x64 DUP2 LT PUSH3 0xDAD JUMPI PUSH1 0x0 DUP1 REVERT JUMPDEST PUSH1 0xE SSTORE JUMP JUMPDEST DUP3 DUP1 SLOAD PUSH3 0xDC0 SWAP1 PUSH3 0xE58 JUMP JUMPDEST SWAP1 PUSH1 0x0 MSTORE PUSH1 0x20 PUSH1 0x0 KECCAK256 SWAP1 PUSH1 0x1F ADD PUSH1 0x20 SWAP1 DIV DUP2 ADD SWAP3 DUP3 PUSH3 0xDE4 JUMPI PUSH1 0x0 DUP6 SSTORE PUSH3 0xE2F JUMP JUMPDEST DUP3 PUSH1 0x1F LT PUSH3 0xDFF JUMPI DUP1 MLOAD PUSH1 0xFF NOT AND DUP4 DUP1 ADD OR DUP6 SSTORE PUSH3 0xE2F JUMP JUMPDEST DUP3 DUP1 ADD PUSH1 0x1 ADD DUP6 SSTORE DUP3 ISZERO PUSH3 0xE2F JUMPI SWAP2 DUP3 ADD JUMPDEST DUP3 DUP2 GT ISZERO PUSH3 0xE2F JUMPI DUP3 MLOAD DUP3 SSTORE SWAP2 PUSH1 0x20 ADD SWAP2 SWAP1 PUSH1 0x1 ADD SWAP1 PUSH3 0xE12 JUMP JUMPDEST POP PUSH3 0xE3D SWAP3 SWAP2 POP PUSH3 0xE41 JUMP JUMPDEST POP SWAP1 JUMP JUMPDEST JUMPDEST DUP1 DUP3 GT ISZERO PUSH3 0xE3D JUMPI PUSH1 0x0 DUP2 SSTORE PUSH1 0x1 ADD PUSH3 0xE42 JUMP JUMPDEST PUSH1 0x1 DUP2 DUP2 SHR SWAP1 DUP3 AND DUP1 PUSH3 0xE6D JUMPI PUSH1 0x7F DUP3 AND SWAP2 POP JUMPDEST PUSH1 0x20 DUP3 LT DUP2 EQ ISZERO PUSH3 0xE8F JUMPI PUSH4 0x4E487B71 PUSH1 0xE0 SHL PUSH1 0x0 MSTORE PUSH1 0x22 PUSH1 0x4 MSTORE PUSH1 0x24 PUSH1 0x0 REVERT JUMPDEST POP SWAP2 SWAP1 POP JUMP JUMPDEST PUSH2 0x4658 DUP1 PUSH3 0xEA5 PUSH1 0x0 CODECOPY PUSH1 0x0 RETURN INVALID PUSH1 0x80 PUSH1 0x40 MSTORE PUSH1 0x4 CALLDATASIZE LT PUSH2 0x177 JUMPI PUSH1 0x0 CALLDATALOAD PUSH1 0xE0 SHR DUP1 PUSH4 0x8DA5CB5B GT PUSH2 0xCC JUMPI DUP1 PUSH4 0xC87B56DD GT PUSH2 0x7A JUMPI DUP1 PUSH4 0xC87B56DD EQ PUSH2 0x422 JUMPI DUP1 PUSH4 0xCE3E39C0 EQ PUSH2 0x442 JUMPI DUP1 PUSH4 0xD5ABEB01 EQ PUSH2 0x462 JUMPI DUP1 PUSH4 0xDABD2719 EQ PUSH2 0x478 JUMPI DUP1 PUSH4 0xE7514C9A EQ PUSH2 0x498 JUMPI DUP1 PUSH4 0xE985E9C5 EQ PUSH2 0x4AD JUMPI DUP1 PUSH4 0xF2FDE38B EQ PUSH2 0x4CD JUMPI PUSH1 0x0 DUP1 REVERT JUMPDEST DUP1 PUSH4 0x8DA5CB5B EQ PUSH2 0x379 JUMPI DUP1 PUSH4 0x913E74BA EQ PUSH2 0x38E JUMPI DUP1 PUSH4 0x95D89B41 EQ PUSH2 0x3A4 JUMPI DUP1 PUSH4 0xA035B1FE EQ PUSH2 0x3B9 JUMPI DUP1 PUSH4 0xA22CB465 EQ PUSH2 0x3CF JUMPI DUP1 PUSH4 0xB88D4FDE EQ PUSH2 0x3EF JUMPI DUP1 PUSH4 0xC319A62E EQ PUSH2 0x40F JUMPI PUSH1 0x0 DUP1 REVERT JUMPDEST DUP1 PUSH4 0x295E328E GT PUSH2 0x129 JUMPI DUP1 PUSH4 0x295E328E EQ PUSH2 0x285 JUMPI DUP1 PUSH4 0x2A55205A EQ PUSH2 0x2A5 JUMPI DUP1 PUSH4 0x42842E0E EQ PUSH2 0x2E4 JUMPI DUP1 PUSH4 0x5593152C EQ PUSH2 0x304 JUMPI DUP1 PUSH4 0x6352211E EQ PUSH2 0x324 JUMPI DUP1 PUSH4 0x70A08231 EQ PUSH2 0x344 JUMPI DUP1 PUSH4 0x715018A6 EQ PUSH2 0x364 JUMPI PUSH1 0x0 DUP1 REVERT JUMPDEST DUP1 PUSH4 0x1FFC9A7 EQ PUSH2 0x17C JUMPI DUP1 PUSH4 0x6FDDE03 EQ PUSH2 0x1B1 JUMPI DUP1 PUSH4 0x81812FC EQ PUSH2 0x1D3 JUMPI DUP1 PUSH4 0x95EA7B3 EQ PUSH2 0x20B JUMPI DUP1 PUSH4 0x18160DDD EQ PUSH2 0x22D JUMPI DUP1 PUSH4 0x23B872DD EQ PUSH2 0x250 JUMPI DUP1 PUSH4 0x24600FC3 EQ PUSH2 0x270 JUMPI JUMPDEST PUSH1 0x0 DUP1 REVERT JUMPDEST CALLVALUE DUP1 ISZERO PUSH2 0x188 JUMPI PUSH1 0x0 DUP1 REVERT JUMPDEST POP PUSH2 0x19C PUSH2 0x197 CALLDATASIZE PUSH1 0x4 PUSH2 0x276E JUMP JUMPDEST PUSH2 0x4ED JUMP JUMPDEST PUSH1 0x40 MLOAD SWAP1 ISZERO ISZERO DUP2 MSTORE PUSH1 0x20 ADD JUMPDEST PUSH1 0x40 MLOAD DUP1 SWAP2 SUB SWAP1 RETURN JUMPDEST CALLVALUE DUP1 ISZERO PUSH2 0x1BD JUMPI PUSH1 0x0 DUP1 REVERT JUMPDEST POP PUSH2 0x1C6 PUSH2 0x4FE JUMP JUMPDEST PUSH1 0x40 MLOAD PUSH2 0x1A8 SWAP2 SWAP1 PUSH2 0x30E9 JUMP JUMPDEST CALLVALUE DUP1 ISZERO PUSH2 0x1DF JUMPI PUSH1 0x0 DUP1 REVERT JUMPDEST POP PUSH2 0x1F3 PUSH2 0x1EE CALLDATASIZE PUSH1 0x4 PUSH2 0x27F0 JUMP JUMPDEST PUSH2 0x590 JUMP JUMPDEST PUSH1 0x40 MLOAD PUSH1 0x1 PUSH1 0x1 PUSH1 0xA0 SHL SUB SWAP1 SWAP2 AND DUP2 MSTORE PUSH1 0x20 ADD PUSH2 0x1A8 JUMP JUMPDEST CALLVALUE DUP1 ISZERO PUSH2 0x217 JUMPI PUSH1 0x0 DUP1 REVERT JUMPDEST POP PUSH2 0x22B PUSH2 0x226 CALLDATASIZE PUSH1 0x4 PUSH2 0x2698 JUMP JUMPDEST PUSH2 0x61D JUMP JUMPDEST STOP JUMPDEST CALLVALUE DUP1 ISZERO PUSH2 0x239 JUMPI PUSH1 0x0 DUP1 REVERT JUMPDEST POP PUSH2 0x242 PUSH2 0x72E JUMP JUMPDEST PUSH1 0x40 MLOAD SWAP1 DUP2 MSTORE PUSH1 0x20 ADD PUSH2 0x1A8 JUMP JUMPDEST CALLVALUE DUP1 ISZERO PUSH2 0x25C JUMPI PUSH1 0x0 DUP1 REVERT JUMPDEST POP PUSH2 0x22B PUSH2 0x26B CALLDATASIZE PUSH1 0x4 PUSH2 0x25A5 JUMP JUMPDEST PUSH2 0x73E JUMP JUMPDEST CALLVALUE DUP1 ISZERO PUSH2 0x27C JUMPI PUSH1 0x0 DUP1 REVERT JUMPDEST POP PUSH2 0x22B PUSH2 0x76F JUMP JUMPDEST CALLVALUE DUP1 ISZERO PUSH2 0x291 JUMPI PUSH1 0x0 DUP1 REVERT JUMPDEST POP PUSH2 0x242 PUSH2 0x2A0 CALLDATASIZE PUSH1 0x4 PUSH2 0x2822 JUMP JUMPDEST PUSH2 0x7B3 JUMP JUMPDEST CALLVALUE DUP1 ISZERO PUSH2 0x2B1 JUMPI PUSH1 0x0 DUP1 REVERT JUMPDEST POP PUSH2 0x2C5 PUSH2 0x2C0 CALLDATASIZE PUSH1 0x4 PUSH2 0x2845 JUMP JUMPDEST PUSH2 0x871 JUMP JUMPDEST PUSH1 0x40 DUP1 MLOAD PUSH1 0x1 PUSH1 0x1 PUSH1 0xA0 SHL SUB SWAP1 SWAP4 AND DUP4 MSTORE PUSH1 0x20 DUP4 ADD SWAP2 SWAP1 SWAP2 MSTORE ADD PUSH2 0x1A8 JUMP JUMPDEST CALLVALUE DUP1 ISZERO PUSH2 0x2F0 JUMPI PUSH1 0x0 DUP1 REVERT JUMPDEST POP PUSH2 0x22B PUSH2 0x2FF CALLDATASIZE PUSH1 0x4 PUSH2 0x25A5 JUMP JUMPDEST PUSH2 0x91D JUMP JUMPDEST CALLVALUE DUP1 ISZERO PUSH2 0x310 JUMPI PUSH1 0x0 DUP1 REVERT JUMPDEST POP PUSH2 0x22B PUSH2 0x31F CALLDATASIZE PUSH1 0x4 PUSH2 0x27A8 JUMP JUMPDEST PUSH2 0x938 JUMP JUMPDEST CALLVALUE DUP1 ISZERO PUSH2 0x330 JUMPI PUSH1 0x0 DUP1 REVERT JUMPDEST POP PUSH2 0x1F3 PUSH2 0x33F CALLDATASIZE PUSH1 0x4 PUSH2 0x27F0 JUMP JUMPDEST PUSH2 0x97E JUMP JUMPDEST CALLVALUE DUP1 ISZERO PUSH2 0x350 JUMPI PUSH1 0x0 DUP1 REVERT JUMPDEST POP PUSH2 0x242 PUSH2 0x35F CALLDATASIZE PUSH1 0x4 PUSH2 0x2557 JUMP JUMPDEST PUSH2 0x9F5 JUMP JUMPDEST CALLVALUE DUP1 ISZERO PUSH2 0x370 JUMPI PUSH1 0x0 DUP1 REVERT JUMPDEST POP PUSH2 0x22B PUSH2 0xA7C JUMP JUMPDEST CALLVALUE DUP1 ISZERO PUSH2 0x385 JUMPI PUSH1 0x0 DUP1 REVERT JUMPDEST POP PUSH2 0x1F3 PUSH2 0xAB7 JUMP JUMPDEST CALLVALUE DUP1 ISZERO PUSH2 0x39A JUMPI PUSH1 0x0 DUP1 REVERT JUMPDEST POP PUSH2 0x242 PUSH1 0xE SLOAD DUP2 JUMP JUMPDEST CALLVALUE DUP1 ISZERO PUSH2 0x3B0 JUMPI PUSH1 0x0 DUP1 REVERT JUMPDEST POP PUSH2 0x1C6 PUSH2 0xAC6 JUMP JUMPDEST CALLVALUE DUP1 ISZERO PUSH2 0x3C5 JUMPI PUSH1 0x0 DUP1 REVERT JUMPDEST POP PUSH2 0x242 PUSH1 0xA SLOAD DUP2 JUMP JUMPDEST CALLVALUE DUP1 ISZERO PUSH2 0x3DB JUMPI PUSH1 0x0 DUP1 REVERT JUMPDEST POP PUSH2 0x22B PUSH2 0x3EA CALLDATASIZE PUSH1 0x4 PUSH2 0x265C JUMP JUMPDEST PUSH2 0xAD5 JUMP JUMPDEST CALLVALUE DUP1 ISZERO PUSH2 0x3FB JUMPI PUSH1 0x0 DUP1 REVERT JUMPDEST POP PUSH2 0x22B PUSH2 0x40A CALLDATASIZE PUSH1 0x4 PUSH2 0x25E1 JUMP JUMPDEST PUSH2 0xAE0 JUMP JUMPDEST PUSH2 0x22B PUSH2 0x41D CALLDATASIZE PUSH1 0x4 PUSH2 0x26C2 JUMP JUMPDEST PUSH2 0xB18 JUMP JUMPDEST CALLVALUE DUP1 ISZERO PUSH2 0x42E JUMPI PUSH1 0x0 DUP1 REVERT JUMPDEST POP PUSH2 0x1C6 PUSH2 0x43D CALLDATASIZE PUSH1 0x4 PUSH2 0x27F0 JUMP JUMPDEST PUSH2 0xD41 JUMP JUMPDEST CALLVALUE DUP1 ISZERO PUSH2 0x44E JUMPI PUSH1 0x0 DUP1 REVERT JUMPDEST POP PUSH1 0xD SLOAD PUSH2 0x1F3 SWAP1 PUSH1 0x1 PUSH1 0x1 PUSH1 0xA0 SHL SUB AND DUP2 JUMP JUMPDEST CALLVALUE DUP1 ISZERO PUSH2 0x46E JUMPI PUSH1 0x0 DUP1 REVERT JUMPDEST POP PUSH2 0x242 PUSH1 0xB SLOAD DUP2 JUMP JUMPDEST CALLVALUE DUP1 ISZERO PUSH2 0x484 JUMPI PUSH1 0x0 DUP1 REVERT JUMPDEST POP PUSH2 0x22B PUSH2 0x493 CALLDATASIZE PUSH1 0x4 PUSH2 0x27F0 JUMP JUMPDEST PUSH2 0x13B4 JUMP JUMPDEST CALLVALUE DUP1 ISZERO PUSH2 0x4A4 JUMPI PUSH1 0x0 DUP1 REVERT JUMPDEST POP PUSH2 0x1C6 PUSH2 0x13F5 JUMP JUMPDEST CALLVALUE DUP1 ISZERO PUSH2 0x4B9 JUMPI PUSH1 0x0 DUP1 REVERT JUMPDEST POP PUSH2 0x19C PUSH2 0x4C8 CALLDATASIZE PUSH1 0x4 PUSH2 0x2572 JUMP JUMPDEST PUSH2 0x1483 JUMP JUMPDEST CALLVALUE DUP1 ISZERO PUSH2 0x4D9 JUMPI PUSH1 0x0 DUP1 REVERT JUMPDEST POP PUSH2 0x22B PUSH2 0x4E8 CALLDATASIZE PUSH1 0x4 PUSH2 0x2557 JUMP JUMPDEST PUSH2 0x14B1 JUMP JUMPDEST PUSH1 0x0 PUSH2 0x4F8 DUP3 PUSH2 0x154E JUMP JUMPDEST SWAP3 SWAP2 POP POP JUMP JUMPDEST PUSH1 0x60 PUSH1 0x0 DUP1 SLOAD PUSH2 0x50D SWAP1 PUSH2 0x32A9 JUMP JUMPDEST DUP1 PUSH1 0x1F ADD PUSH1 0x20 DUP1 SWAP2 DIV MUL PUSH1 0x20 ADD PUSH1 0x40 MLOAD SWAP1 DUP2 ADD PUSH1 0x40 MSTORE DUP1 SWAP3 SWAP2 SWAP1 DUP2 DUP2 MSTORE PUSH1 0x20 ADD DUP3 DUP1 SLOAD PUSH2 0x539 SWAP1 PUSH2 0x32A9 JUMP JUMPDEST DUP1 ISZERO PUSH2 0x586 JUMPI DUP1 PUSH1 0x1F LT PUSH2 0x55B JUMPI PUSH2 0x100 DUP1 DUP4 SLOAD DIV MUL DUP4 MSTORE SWAP2 PUSH1 0x20 ADD SWAP2 PUSH2 0x586 JUMP JUMPDEST DUP3 ADD SWAP2 SWAP1 PUSH1 0x0 MSTORE PUSH1 0x20 PUSH1 0x0 KECCAK256 SWAP1 JUMPDEST DUP2 SLOAD DUP2 MSTORE SWAP1 PUSH1 0x1 ADD SWAP1 PUSH1 0x20 ADD DUP1 DUP4 GT PUSH2 0x569 JUMPI DUP3 SWAP1 SUB PUSH1 0x1F AND DUP3 ADD SWAP2 JUMPDEST POP POP POP POP POP SWAP1 POP SWAP1 JUMP JUMPDEST PUSH1 0x0 PUSH2 0x59B DUP3 PUSH2 0x1573 JUMP JUMPDEST PUSH2 0x601 JUMPI PUSH1 0x40 MLOAD PUSH3 0x461BCD PUSH1 0xE5 SHL DUP2 MSTORE PUSH1 0x20 PUSH1 0x4 DUP3 ADD MSTORE PUSH1 0x2C PUSH1 0x24 DUP3 ADD MSTORE PUSH32 0x4552433732313A20617070726F76656420717565727920666F72206E6F6E6578 PUSH1 0x44 DUP3 ADD MSTORE PUSH12 0x34B9BA32B73A103A37B5B2B7 PUSH1 0xA1 SHL PUSH1 0x64 DUP3 ADD MSTORE PUSH1 0x84 ADD JUMPDEST PUSH1 0x40 MLOAD DUP1 SWAP2 SUB SWAP1 REVERT JUMPDEST POP PUSH1 0x0 SWAP1 DUP2 MSTORE PUSH1 0x4 PUSH1 0x20 MSTORE PUSH1 0x40 SWAP1 KECCAK256 SLOAD PUSH1 0x1 PUSH1 0x1 PUSH1 0xA0 SHL SUB AND SWAP1 JUMP JUMPDEST PUSH1 0x0 PUSH2 0x628 DUP3 PUSH2 0x97E JUMP JUMPDEST SWAP1 POP DUP1 PUSH1 0x1 PUSH1 0x1 PUSH1 0xA0 SHL SUB AND DUP4 PUSH1 0x1 PUSH1 0x1 PUSH1 0xA0 SHL SUB AND EQ ISZERO PUSH2 0x696 JUMPI PUSH1 0x40 MLOAD PUSH3 0x461BCD PUSH1 0xE5 SHL DUP2 MSTORE PUSH1 0x20 PUSH1 0x4 DUP3 ADD MSTORE PUSH1 0x21 PUSH1 0x24 DUP3 ADD MSTORE PUSH32 0x4552433732313A20617070726F76616C20746F2063757272656E74206F776E65 PUSH1 0x44 DUP3 ADD MSTORE PUSH1 0x39 PUSH1 0xF9 SHL PUSH1 0x64 DUP3 ADD MSTORE PUSH1 0x84 ADD PUSH2 0x5F8 JUMP JUMPDEST CALLER PUSH1 0x1 PUSH1 0x1 PUSH1 0xA0 SHL SUB DUP3 AND EQ DUP1 PUSH2 0x6B2 JUMPI POP PUSH2 0x6B2 DUP2 CALLER PUSH2 0x1483 JUMP JUMPDEST PUSH2 0x71F JUMPI PUSH1 0x40 MLOAD PUSH3 0x461BCD PUSH1 0xE5 SHL DUP2 MSTORE PUSH1 0x20 PUSH1 0x4 DUP3 ADD MSTORE PUSH1 0x38 PUSH1 0x24 DUP3 ADD MSTORE PUSH32 0x4552433732313A20617070726F76652063616C6C6572206973206E6F74206F77 PUSH1 0x44 DUP3 ADD MSTORE PUSH24 0x1B995C881B9BDC88185C1C1C9BDD995908199BDC88185B1B PUSH1 0x42 SHL PUSH1 0x64 DUP3 ADD MSTORE PUSH1 0x84 ADD PUSH2 0x5F8 JUMP JUMPDEST PUSH2 0x729 DUP4 DUP4 PUSH2 0x1590 JUMP JUMPDEST POP POP POP JUMP JUMPDEST PUSH1 0x0 PUSH2 0x739 PUSH1 0x9 SLOAD SWAP1 JUMP JUMPDEST SWAP1 POP SWAP1 JUMP JUMPDEST PUSH2 0x748 CALLER DUP3 PUSH2 0x15FE JUMP JUMPDEST PUSH2 0x764 JUMPI PUSH1 0x40 MLOAD PUSH3 0x461BCD PUSH1 0xE5 SHL DUP2 MSTORE PUSH1 0x4 ADD PUSH2 0x5F8 SWAP1 PUSH2 0x3183 JUMP JUMPDEST PUSH2 0x729 DUP4 DUP4 DUP4 PUSH2 0x16C8 JUMP JUMPDEST CALLER PUSH2 0x778 PUSH2 0xAB7 JUMP JUMPDEST PUSH1 0x1 PUSH1 0x1 PUSH1 0xA0 SHL SUB AND EQ PUSH2 0x79E JUMPI PUSH1 0x40 MLOAD PUSH3 0x461BCD PUSH1 0xE5 SHL DUP2 MSTORE PUSH1 0x4 ADD PUSH2 0x5F8 SWAP1 PUSH2 0x314E JUMP JUMPDEST SELFBALANCE PUSH2 0x7B0 PUSH2 0x7AA PUSH2 0xAB7 JUMP JUMPDEST DUP3 PUSH2 0x1864 JUMP JUMPDEST POP JUMP JUMPDEST PUSH1 0x0 DUP1 DUP4 PUSH1 0xA SLOAD PUSH2 0x7C4 SWAP2 SWAP1 PUSH2 0x3230 JUMP JUMPDEST PUSH1 0xD SLOAD PUSH1 0x40 MLOAD PUSH4 0x70A08231 PUSH1 0xE0 SHL DUP2 MSTORE PUSH1 0x1 PUSH1 0x1 PUSH1 0xA0 SHL SUB DUP7 DUP2 AND PUSH1 0x4 DUP4 ADD MSTORE SWAP3 SWAP4 POP PUSH1 0x0 SWAP3 SWAP1 SWAP2 AND SWAP1 PUSH4 0x70A08231 SWAP1 PUSH1 0x24 ADD PUSH1 0x20 PUSH1 0x40 MLOAD DUP1 DUP4 SUB DUP2 DUP7 DUP1 EXTCODESIZE ISZERO DUP1 ISZERO PUSH2 0x80F JUMPI PUSH1 0x0 DUP1 REVERT JUMPDEST POP GAS STATICCALL ISZERO DUP1 ISZERO PUSH2 0x823 JUMPI RETURNDATASIZE PUSH1 0x0 DUP1 RETURNDATACOPY RETURNDATASIZE PUSH1 0x0 REVERT JUMPDEST POP POP POP POP PUSH1 0x40 MLOAD RETURNDATASIZE PUSH1 0x1F NOT PUSH1 0x1F DUP3 ADD AND DUP3 ADD DUP1 PUSH1 0x40 MSTORE POP DUP2 ADD SWAP1 PUSH2 0x847 SWAP2 SWAP1 PUSH2 0x2809 JUMP JUMPDEST GT ISZERO PUSH2 0x86A JUMPI PUSH1 0x64 PUSH1 0xE SLOAD DUP3 PUSH2 0x85D SWAP2 SWAP1 PUSH2 0x3230 JUMP JUMPDEST PUSH2 0x867 SWAP2 SWAP1 PUSH2 0x321C JUMP JUMPDEST SWAP1 POP JUMPDEST SWAP4 SWAP3 POP POP POP JUMP JUMPDEST PUSH1 0x0 DUP3 DUP2 MSTORE PUSH1 0x7 PUSH1 0x20 SWAP1 DUP2 MSTORE PUSH1 0x40 DUP1 DUP4 KECCAK256 DUP2 MLOAD DUP1 DUP4 ADD SWAP1 SWAP3 MSTORE SLOAD PUSH1 0x1 PUSH1 0x1 PUSH1 0xA0 SHL SUB DUP2 AND DUP1 DUP4 MSTORE PUSH1 0x1 PUSH1 0xA0 SHL SWAP1 SWAP2 DIV PUSH1 0x1 PUSH1 0x1 PUSH1 0x60 SHL SUB AND SWAP3 DUP3 ADD SWAP3 SWAP1 SWAP3 MSTORE DUP3 SWAP2 PUSH2 0x8E6 JUMPI POP PUSH1 0x40 DUP1 MLOAD DUP1 DUP3 ADD SWAP1 SWAP2 MSTORE PUSH1 0x6 SLOAD PUSH1 0x1 PUSH1 0x1 PUSH1 0xA0 SHL SUB DUP2 AND DUP3 MSTORE PUSH1 0x1 PUSH1 0xA0 SHL SWAP1 DIV PUSH1 0x1 PUSH1 0x1 PUSH1 0x60 SHL SUB AND PUSH1 0x20 DUP3 ADD MSTORE JUMPDEST PUSH1 0x20 DUP2 ADD MLOAD PUSH1 0x0 SWAP1 PUSH2 0x2710 SWAP1 PUSH2 0x905 SWAP1 PUSH1 0x1 PUSH1 0x1 PUSH1 0x60 SHL SUB AND DUP8 PUSH2 0x3230 JUMP JUMPDEST PUSH2 0x90F SWAP2 SWAP1 PUSH2 0x321C JUMP JUMPDEST SWAP2 MLOAD SWAP7 SWAP2 SWAP6 POP SWAP1 SWAP4 POP POP POP POP JUMP JUMPDEST PUSH2 0x729 DUP4 DUP4 DUP4 PUSH1 0x40 MLOAD DUP1 PUSH1 0x20 ADD PUSH1 0x40 MSTORE DUP1 PUSH1 0x0 DUP2 MSTORE POP PUSH2 0xAE0 JUMP JUMPDEST CALLER PUSH2 0x941 PUSH2 0xAB7 JUMP JUMPDEST PUSH1 0x1 PUSH1 0x1 PUSH1 0xA0 SHL SUB AND EQ PUSH2 0x967 JUMPI PUSH1 0x40 MLOAD PUSH3 0x461BCD PUSH1 0xE5 SHL DUP2 MSTORE PUSH1 0x4 ADD PUSH2 0x5F8 SWAP1 PUSH2 0x314E JUMP JUMPDEST DUP1 MLOAD PUSH2 0x97A SWAP1 PUSH1 0xC SWAP1 PUSH1 0x20 DUP5 ADD SWAP1 PUSH2 0x244B JUMP JUMPDEST POP POP JUMP JUMPDEST PUSH1 0x0 DUP2 DUP2 MSTORE PUSH1 0x2 PUSH1 0x20 MSTORE PUSH1 0x40 DUP2 KECCAK256 SLOAD PUSH1 0x1 PUSH1 0x1 PUSH1 0xA0 SHL SUB AND DUP1 PUSH2 0x4F8 JUMPI PUSH1 0x40 MLOAD PUSH3 0x461BCD PUSH1 0xE5 SHL DUP2 MSTORE PUSH1 0x20 PUSH1 0x4 DUP3 ADD MSTORE PUSH1 0x29 PUSH1 0x24 DUP3 ADD MSTORE PUSH32 0x4552433732313A206F776E657220717565727920666F72206E6F6E6578697374 PUSH1 0x44 DUP3 ADD MSTORE PUSH9 0x32B73A103A37B5B2B7 PUSH1 0xB9 SHL PUSH1 0x64 DUP3 ADD MSTORE PUSH1 0x84 ADD PUSH2 0x5F8 JUMP JUMPDEST PUSH1 0x0 PUSH1 0x1 PUSH1 0x1 PUSH1 0xA0 SHL SUB DUP3 AND PUSH2 0xA60 JUMPI PUSH1 0x40 MLOAD PUSH3 0x461BCD PUSH1 0xE5 SHL DUP2 MSTORE PUSH1 0x20 PUSH1 0x4 DUP3 ADD MSTORE PUSH1 0x2A PUSH1 0x24 DUP3 ADD MSTORE PUSH32 0x4552433732313A2062616C616E636520717565727920666F7220746865207A65 PUSH1 0x44 DUP3 ADD MSTORE PUSH10 0x726F2061646472657373 PUSH1 0xB0 SHL PUSH1 0x64 DUP3 ADD MSTORE PUSH1 0x84 ADD PUSH2 0x5F8 JUMP JUMPDEST POP PUSH1 0x1 PUSH1 0x1 PUSH1 0xA0 SHL SUB AND PUSH1 0x0 SWAP1 DUP2 MSTORE PUSH1 0x3 PUSH1 0x20 MSTORE PUSH1 0x40 SWAP1 KECCAK256 SLOAD SWAP1 JUMP JUMPDEST CALLER PUSH2 0xA85 PUSH2 0xAB7 JUMP JUMPDEST PUSH1 0x1 PUSH1 0x1 PUSH1 0xA0 SHL SUB AND EQ PUSH2 0xAAB JUMPI PUSH1 0x40 MLOAD PUSH3 0x461BCD PUSH1 0xE5 SHL DUP2 MSTORE PUSH1 0x4 ADD PUSH2 0x5F8 SWAP1 PUSH2 0x314E JUMP JUMPDEST PUSH2 0xAB5 PUSH1 0x0 PUSH2 0x197D JUMP JUMPDEST JUMP JUMPDEST PUSH1 0x8 SLOAD PUSH1 0x1 PUSH1 0x1 PUSH1 0xA0 SHL SUB AND SWAP1 JUMP JUMPDEST PUSH1 0x60 PUSH1 0x1 DUP1 SLOAD PUSH2 0x50D SWAP1 PUSH2 0x32A9 JUMP JUMPDEST PUSH2 0x97A CALLER DUP4 DUP4 PUSH2 0x19CF JUMP JUMPDEST PUSH2 0xAEA CALLER DUP4 PUSH2 0x15FE JUMP JUMPDEST PUSH2 0xB06 JUMPI PUSH1 0x40 MLOAD PUSH3 0x461BCD PUSH1 0xE5 SHL DUP2 MSTORE PUSH1 0x4 ADD PUSH2 0x5F8 SWAP1 PUSH2 0x3183 JUMP JUMPDEST PUSH2 0xB12 DUP5 DUP5 DUP5 DUP5 PUSH2 0x1A9A JUMP JUMPDEST POP POP POP POP JUMP JUMPDEST DUP1 MLOAD PUSH2 0xB24 DUP2 CALLER PUSH2 0x7B3 JUMP JUMPDEST CALLVALUE EQ PUSH2 0xB60 JUMPI PUSH1 0x40 MLOAD PUSH3 0x461BCD PUSH1 0xE5 SHL DUP2 MSTORE PUSH1 0x20 PUSH1 0x4 DUP3 ADD MSTORE PUSH1 0xB PUSH1 0x24 DUP3 ADD MSTORE PUSH11 0x77726F6E67207072696365 PUSH1 0xA8 SHL PUSH1 0x44 DUP3 ADD MSTORE PUSH1 0x64 ADD PUSH2 0x5F8 JUMP JUMPDEST PUSH1 0x5 DUP2 GT ISZERO DUP1 ISZERO PUSH2 0xB71 JUMPI POP PUSH1 0x0 DUP2 GT JUMPDEST PUSH2 0xBB0 JUMPI PUSH1 0x40 MLOAD PUSH3 0x461BCD PUSH1 0xE5 SHL DUP2 MSTORE PUSH1 0x20 PUSH1 0x4 DUP3 ADD MSTORE PUSH1 0x10 PUSH1 0x24 DUP3 ADD MSTORE PUSH16 0x34B731B7B93932B1BA10373AB6B132B9 PUSH1 0x81 SHL PUSH1 0x44 DUP3 ADD MSTORE PUSH1 0x64 ADD PUSH2 0x5F8 JUMP JUMPDEST PUSH1 0xB SLOAD DUP2 PUSH2 0xBBD PUSH1 0x9 SLOAD SWAP1 JUMP JUMPDEST PUSH2 0xBC7 SWAP2 SWAP1 PUSH2 0x3204 JUMP JUMPDEST GT ISZERO PUSH2 0xC0A JUMPI PUSH1 0x40 MLOAD PUSH3 0x461BCD PUSH1 0xE5 SHL DUP2 MSTORE PUSH1 0x20 PUSH1 0x4 DUP3 ADD MSTORE PUSH1 0x12 PUSH1 0x24 DUP3 ADD MSTORE PUSH18 0x65786365656473206D617820737570706C79 PUSH1 0x70 SHL PUSH1 0x44 DUP3 ADD MSTORE PUSH1 0x64 ADD PUSH2 0x5F8 JUMP JUMPDEST PUSH1 0x0 JUMPDEST DUP2 DUP2 LT ISZERO PUSH2 0xD03 JUMPI PUSH1 0x0 DUP4 DUP3 DUP2 MLOAD DUP2 LT PUSH2 0xC29 JUMPI PUSH2 0xC29 PUSH2 0x333F JUMP JUMPDEST PUSH1 0x20 MUL PUSH1 0x20 ADD ADD MLOAD GT DUP1 ISZERO PUSH2 0xC58 JUMPI POP PUSH1 0x5 DUP4 DUP3 DUP2 MLOAD DUP2 LT PUSH2 0xC4D JUMPI PUSH2 0xC4D PUSH2 0x333F JUMP JUMPDEST PUSH1 0x20 MUL PUSH1 0x20 ADD ADD MLOAD GT ISZERO JUMPDEST PUSH2 0xC9A JUMPI PUSH1 0x40 MLOAD PUSH3 0x461BCD PUSH1 0xE5 SHL DUP2 MSTORE PUSH1 0x20 PUSH1 0x4 DUP3 ADD MSTORE PUSH1 0x13 PUSH1 0x24 DUP3 ADD MSTORE PUSH19 0x18DBDB1BDC88191BD95CDB89DD08195E1A5CDD PUSH1 0x6A SHL PUSH1 0x44 DUP3 ADD MSTORE PUSH1 0x64 ADD PUSH2 0x5F8 JUMP JUMPDEST PUSH2 0xCA8 PUSH1 0x9 DUP1 SLOAD PUSH1 0x1 ADD SWAP1 SSTORE JUMP JUMPDEST PUSH1 0x0 PUSH2 0xCB3 PUSH1 0x9 SLOAD SWAP1 JUMP JUMPDEST SWAP1 POP DUP4 DUP3 DUP2 MLOAD DUP2 LT PUSH2 0xCC7 JUMPI PUSH2 0xCC7 PUSH2 0x333F JUMP JUMPDEST PUSH1 0x20 MUL PUSH1 0x20 ADD ADD MLOAD PUSH1 0x10 PUSH1 0x0 DUP4 DUP2 MSTORE PUSH1 0x20 ADD SWAP1 DUP2 MSTORE PUSH1 0x20 ADD PUSH1 0x0 KECCAK256 DUP2 SWAP1 SSTORE POP PUSH2 0xCF0 CALLER DUP3 PUSH2 0x1ACD JUMP JUMPDEST POP DUP1 PUSH2 0xCFB DUP2 PUSH2 0x32E4 JUMP JUMPDEST SWAP2 POP POP PUSH2 0xC0D JUMP JUMPDEST POP PUSH1 0x40 DUP1 MLOAD CALLER DUP2 MSTORE PUSH1 0x20 DUP2 ADD DUP4 SWAP1 MSTORE PUSH32 0x36BF5AA3964BE01DBD95A0154A8930793FE68353BDC580871FFB2C911366BBC7 SWAP2 ADD PUSH1 0x40 MLOAD DUP1 SWAP2 SUB SWAP1 LOG1 POP POP JUMP JUMPDEST PUSH1 0x60 PUSH1 0x0 PUSH2 0xD4E DUP4 PUSH2 0x97E JUMP JUMPDEST SWAP1 POP PUSH2 0xD59 DUP4 PUSH2 0x1573 JUMP JUMPDEST PUSH2 0xD96 JUMPI PUSH1 0x40 MLOAD PUSH3 0x461BCD PUSH1 0xE5 SHL DUP2 MSTORE PUSH1 0x20 PUSH1 0x4 DUP3 ADD MSTORE PUSH1 0xE PUSH1 0x24 DUP3 ADD MSTORE PUSH14 0x191BD95CC81B9BDD08195E1A5CDD PUSH1 0x92 SHL PUSH1 0x44 DUP3 ADD MSTORE PUSH1 0x64 ADD PUSH2 0x5F8 JUMP JUMPDEST PUSH1 0x0 DUP4 DUP2 MSTORE PUSH1 0x10 PUSH1 0x20 SWAP1 DUP2 MSTORE PUSH1 0x40 DUP1 DUP4 KECCAK256 SLOAD DUP1 DUP5 MSTORE PUSH1 0xF SWAP1 SWAP3 MSTORE DUP1 DUP4 KECCAK256 DUP2 MLOAD PUSH2 0x120 DUP2 ADD SWAP1 SWAP3 MSTORE DUP1 SLOAD SWAP3 SWAP4 SWAP3 DUP3 SWAP1 DUP3 SWAP1 PUSH2 0xDCF SWAP1 PUSH2 0x32A9 JUMP JUMPDEST DUP1 PUSH1 0x1F ADD PUSH1 0x20 DUP1 SWAP2 DIV MUL PUSH1 0x20 ADD PUSH1 0x40 MLOAD SWAP1 DUP2 ADD PUSH1 0x40 MSTORE DUP1 SWAP3 SWAP2 SWAP1 DUP2 DUP2 MSTORE PUSH1 0x20 ADD DUP3 DUP1 SLOAD PUSH2 0xDFB SWAP1 PUSH2 0x32A9 JUMP JUMPDEST DUP1 ISZERO PUSH2 0xE48 JUMPI DUP1 PUSH1 0x1F LT PUSH2 0xE1D JUMPI PUSH2 0x100 DUP1 DUP4 SLOAD DIV MUL DUP4 MSTORE SWAP2 PUSH1 0x20 ADD SWAP2 PUSH2 0xE48 JUMP JUMPDEST DUP3 ADD SWAP2 SWAP1 PUSH1 0x0 MSTORE PUSH1 0x20 PUSH1 0x0 KECCAK256 SWAP1 JUMPDEST DUP2 SLOAD DUP2 MSTORE SWAP1 PUSH1 0x1 ADD SWAP1 PUSH1 0x20 ADD DUP1 DUP4 GT PUSH2 0xE2B JUMPI DUP3 SWAP1 SUB PUSH1 0x1F AND DUP3 ADD SWAP2 JUMPDEST POP POP POP POP POP DUP2 MSTORE PUSH1 0x20 ADD PUSH1 0x1 DUP3 ADD DUP1 SLOAD PUSH2 0xE61 SWAP1 PUSH2 0x32A9 JUMP JUMPDEST DUP1 PUSH1 0x1F ADD PUSH1 0x20 DUP1 SWAP2 DIV MUL PUSH1 0x20 ADD PUSH1 0x40 MLOAD SWAP1 DUP2 ADD PUSH1 0x40 MSTORE DUP1 SWAP3 SWAP2 SWAP1 DUP2 DUP2 MSTORE PUSH1 0x20 ADD DUP3 DUP1 SLOAD PUSH2 0xE8D SWAP1 PUSH2 0x32A9 JUMP JUMPDEST DUP1 ISZERO PUSH2 0xEDA JUMPI DUP1 PUSH1 0x1F LT PUSH2 0xEAF JUMPI PUSH2 0x100 DUP1 DUP4 SLOAD DIV MUL DUP4 MSTORE SWAP2 PUSH1 0x20 ADD SWAP2 PUSH2 0xEDA JUMP JUMPDEST DUP3 ADD SWAP2 SWAP1 PUSH1 0x0 MSTORE PUSH1 0x20 PUSH1 0x0 KECCAK256 SWAP1 JUMPDEST DUP2 SLOAD DUP2 MSTORE SWAP1 PUSH1 0x1 ADD SWAP1 PUSH1 0x20 ADD DUP1 DUP4 GT PUSH2 0xEBD JUMPI DUP3 SWAP1 SUB PUSH1 0x1F AND DUP3 ADD SWAP2 JUMPDEST POP POP POP POP POP DUP2 MSTORE PUSH1 0x20 ADD PUSH1 0x2 DUP3 ADD DUP1 SLOAD PUSH2 0xEF3 SWAP1 PUSH2 0x32A9 JUMP JUMPDEST DUP1 PUSH1 0x1F ADD PUSH1 0x20 DUP1 SWAP2 DIV MUL PUSH1 0x20 ADD PUSH1 0x40 MLOAD SWAP1 DUP2 ADD PUSH1 0x40 MSTORE DUP1 SWAP3 SWAP2 SWAP1 DUP2 DUP2 MSTORE PUSH1 0x20 ADD DUP3 DUP1 SLOAD PUSH2 0xF1F SWAP1 PUSH2 0x32A9 JUMP JUMPDEST DUP1 ISZERO PUSH2 0xF6C JUMPI DUP1 PUSH1 0x1F LT PUSH2 0xF41 JUMPI PUSH2 0x100 DUP1 DUP4 SLOAD DIV MUL DUP4 MSTORE SWAP2 PUSH1 0x20 ADD SWAP2 PUSH2 0xF6C JUMP JUMPDEST DUP3 ADD SWAP2 SWAP1 PUSH1 0x0 MSTORE PUSH1 0x20 PUSH1 0x0 KECCAK256 SWAP1 JUMPDEST DUP2 SLOAD DUP2 MSTORE SWAP1 PUSH1 0x1 ADD SWAP1 PUSH1 0x20 ADD DUP1 DUP4 GT PUSH2 0xF4F JUMPI DUP3 SWAP1 SUB PUSH1 0x1F AND DUP3 ADD SWAP2 JUMPDEST POP POP POP POP POP DUP2 MSTORE PUSH1 0x20 ADD PUSH1 0x3 DUP3 ADD DUP1 SLOAD PUSH2 0xF85 SWAP1 PUSH2 0x32A9 JUMP JUMPDEST DUP1 PUSH1 0x1F ADD PUSH1 0x20 DUP1 SWAP2 DIV MUL PUSH1 0x20 ADD PUSH1 0x40 MLOAD SWAP1 DUP2 ADD PUSH1 0x40 MSTORE DUP1 SWAP3 SWAP2 SWAP1 DUP2 DUP2 MSTORE PUSH1 0x20 ADD DUP3 DUP1 SLOAD PUSH2 0xFB1 SWAP1 PUSH2 0x32A9 JUMP JUMPDEST DUP1 ISZERO PUSH2 0xFFE JUMPI DUP1 PUSH1 0x1F LT PUSH2 0xFD3 JUMPI PUSH2 0x100 DUP1 DUP4 SLOAD DIV MUL DUP4 MSTORE SWAP2 PUSH1 0x20 ADD SWAP2 PUSH2 0xFFE JUMP JUMPDEST DUP3 ADD SWAP2 SWAP1 PUSH1 0x0 MSTORE PUSH1 0x20 PUSH1 0x0 KECCAK256 SWAP1 JUMPDEST DUP2 SLOAD DUP2 MSTORE SWAP1 PUSH1 0x1 ADD SWAP1 PUSH1 0x20 ADD DUP1 DUP4 GT PUSH2 0xFE1 JUMPI DUP3 SWAP1 SUB PUSH1 0x1F AND DUP3 ADD SWAP2 JUMPDEST POP POP POP POP POP DUP2 MSTORE PUSH1 0x20 ADD PUSH1 0x4 DUP3 ADD DUP1 SLOAD PUSH2 0x1017 SWAP1 PUSH2 0x32A9 JUMP JUMPDEST DUP1 PUSH1 0x1F ADD PUSH1 0x20 DUP1 SWAP2 DIV MUL PUSH1 0x20 ADD PUSH1 0x40 MLOAD SWAP1 DUP2 ADD PUSH1 0x40 MSTORE DUP1 SWAP3 SWAP2 SWAP1 DUP2 DUP2 MSTORE PUSH1 0x20 ADD DUP3 DUP1 SLOAD PUSH2 0x1043 SWAP1 PUSH2 0x32A9 JUMP JUMPDEST DUP1 ISZERO PUSH2 0x1090 JUMPI DUP1 PUSH1 0x1F LT PUSH2 0x1065 JUMPI PUSH2 0x100 DUP1 DUP4 SLOAD DIV MUL DUP4 MSTORE SWAP2 PUSH1 0x20 ADD SWAP2 PUSH2 0x1090 JUMP JUMPDEST DUP3 ADD SWAP2 SWAP1 PUSH1 0x0 MSTORE PUSH1 0x20 PUSH1 0x0 KECCAK256 SWAP1 JUMPDEST DUP2 SLOAD DUP2 MSTORE SWAP1 PUSH1 0x1 ADD SWAP1 PUSH1 0x20 ADD DUP1 DUP4 GT PUSH2 0x1073 JUMPI DUP3 SWAP1 SUB PUSH1 0x1F AND DUP3 ADD SWAP2 JUMPDEST POP POP POP POP POP DUP2 MSTORE PUSH1 0x20 ADD PUSH1 0x5 DUP3 ADD DUP1 SLOAD PUSH2 0x10A9 SWAP1 PUSH2 0x32A9 JUMP JUMPDEST DUP1 PUSH1 0x1F ADD PUSH1 0x20 DUP1 SWAP2 DIV MUL PUSH1 0x20 ADD PUSH1 0x40 MLOAD SWAP1 DUP2 ADD PUSH1 0x40 MSTORE DUP1 SWAP3 SWAP2 SWAP1 DUP2 DUP2 MSTORE PUSH1 0x20 ADD DUP3 DUP1 SLOAD PUSH2 0x10D5 SWAP1 PUSH2 0x32A9 JUMP JUMPDEST DUP1 ISZERO PUSH2 0x1122 JUMPI DUP1 PUSH1 0x1F LT PUSH2 0x10F7 JUMPI PUSH2 0x100 DUP1 DUP4 SLOAD DIV MUL DUP4 MSTORE SWAP2 PUSH1 0x20 ADD SWAP2 PUSH2 0x1122 JUMP JUMPDEST DUP3 ADD SWAP2 SWAP1 PUSH1 0x0 MSTORE PUSH1 0x20 PUSH1 0x0 KECCAK256 SWAP1 JUMPDEST DUP2 SLOAD DUP2 MSTORE SWAP1 PUSH1 0x1 ADD SWAP1 PUSH1 0x20 ADD DUP1 DUP4 GT PUSH2 0x1105 JUMPI DUP3 SWAP1 SUB PUSH1 0x1F AND DUP3 ADD SWAP2 JUMPDEST POP POP POP POP POP DUP2 MSTORE PUSH1 0x20 ADD PUSH1 0x6 DUP3 ADD DUP1 SLOAD PUSH2 0x113B SWAP1 PUSH2 0x32A9 JUMP JUMPDEST DUP1 PUSH1 0x1F ADD PUSH1 0x20 DUP1 SWAP2 DIV MUL PUSH1 0x20 ADD PUSH1 0x40 MLOAD SWAP1 DUP2 ADD PUSH1 0x40 MSTORE DUP1 SWAP3 SWAP2 SWAP1 DUP2 DUP2 MSTORE PUSH1 0x20 ADD DUP3 DUP1 SLOAD PUSH2 0x1167 SWAP1 PUSH2 0x32A9 JUMP JUMPDEST DUP1 ISZERO PUSH2 0x11B4 JUMPI DUP1 PUSH1 0x1F LT PUSH2 0x1189 JUMPI PUSH2 0x100 DUP1 DUP4 SLOAD DIV MUL DUP4 MSTORE SWAP2 PUSH1 0x20 ADD SWAP2 PUSH2 0x11B4 JUMP JUMPDEST DUP3 ADD SWAP2 SWAP1 PUSH1 0x0 MSTORE PUSH1 0x20 PUSH1 0x0 KECCAK256 SWAP1 JUMPDEST DUP2 SLOAD DUP2 MSTORE SWAP1 PUSH1 0x1 ADD SWAP1 PUSH1 0x20 ADD DUP1 DUP4 GT PUSH2 0x1197 JUMPI DUP3 SWAP1 SUB PUSH1 0x1F AND DUP3 ADD SWAP2 JUMPDEST POP POP POP POP POP DUP2 MSTORE PUSH1 0x20 ADD PUSH1 0x7 DUP3 ADD DUP1 SLOAD PUSH2 0x11CD SWAP1 PUSH2 0x32A9 JUMP JUMPDEST DUP1 PUSH1 0x1F ADD PUSH1 0x20 DUP1 SWAP2 DIV MUL PUSH1 0x20 ADD PUSH1 0x40 MLOAD SWAP1 DUP2 ADD PUSH1 0x40 MSTORE DUP1 SWAP3 SWAP2 SWAP1 DUP2 DUP2 MSTORE PUSH1 0x20 ADD DUP3 DUP1 SLOAD PUSH2 0x11F9 SWAP1 PUSH2 0x32A9 JUMP JUMPDEST DUP1 ISZERO PUSH2 0x1246 JUMPI DUP1 PUSH1 0x1F LT PUSH2 0x121B JUMPI PUSH2 0x100 DUP1 DUP4 SLOAD DIV MUL DUP4 MSTORE SWAP2 PUSH1 0x20 ADD SWAP2 PUSH2 0x1246 JUMP JUMPDEST DUP3 ADD SWAP2 SWAP1 PUSH1 0x0 MSTORE PUSH1 0x20 PUSH1 0x0 KECCAK256 SWAP1 JUMPDEST DUP2 SLOAD DUP2 MSTORE SWAP1 PUSH1 0x1 ADD SWAP1 PUSH1 0x20 ADD DUP1 DUP4 GT PUSH2 0x1229 JUMPI DUP3 SWAP1 SUB PUSH1 0x1F AND DUP3 ADD SWAP2 JUMPDEST POP POP POP POP POP DUP2 MSTORE PUSH1 0x20 ADD PUSH1 0x8 DUP3 ADD DUP1 SLOAD PUSH2 0x125F SWAP1 PUSH2 0x32A9 JUMP JUMPDEST DUP1 PUSH1 0x1F ADD PUSH1 0x20 DUP1 SWAP2 DIV MUL PUSH1 0x20 ADD PUSH1 0x40 MLOAD SWAP1 DUP2 ADD PUSH1 0x40 MSTORE DUP1 SWAP3 SWAP2 SWAP1 DUP2 DUP2 MSTORE PUSH1 0x20 ADD DUP3 DUP1 SLOAD PUSH2 0x128B SWAP1 PUSH2 0x32A9 JUMP JUMPDEST DUP1 ISZERO PUSH2 0x12D8 JUMPI DUP1 PUSH1 0x1F LT PUSH2 0x12AD JUMPI PUSH2 0x100 DUP1 DUP4 SLOAD DIV MUL DUP4 MSTORE SWAP2 PUSH1 0x20 ADD SWAP2 PUSH2 0x12D8 JUMP JUMPDEST DUP3 ADD SWAP2 SWAP1 PUSH1 0x0 MSTORE PUSH1 0x20 PUSH1 0x0 KECCAK256 SWAP1 JUMPDEST DUP2 SLOAD DUP2 MSTORE SWAP1 PUSH1 0x1 ADD SWAP1 PUSH1 0x20 ADD DUP1 DUP4 GT PUSH2 0x12BB JUMPI DUP3 SWAP1 SUB PUSH1 0x1F AND DUP3 ADD SWAP2 JUMPDEST POP POP POP POP POP DUP2 MSTORE POP POP SWAP1 POP PUSH1 0x0 PUSH1 0x40 MLOAD DUP1 PUSH1 0xA0 ADD PUSH1 0x40 MSTORE DUP1 DUP6 PUSH1 0x1 PUSH1 0x1 PUSH1 0xA0 SHL SUB AND DUP2 MSTORE PUSH1 0x20 ADD DUP8 DUP2 MSTORE PUSH1 0x20 ADD DUP5 DUP2 MSTORE PUSH1 0x20 ADD DUP4 DUP2 MSTORE PUSH1 0x20 ADD PUSH1 0xC DUP1 SLOAD PUSH2 0x131E SWAP1 PUSH2 0x32A9 JUMP JUMPDEST DUP1 PUSH1 0x1F ADD PUSH1 0x20 DUP1 SWAP2 DIV MUL PUSH1 0x20 ADD PUSH1 0x40 MLOAD SWAP1 DUP2 ADD PUSH1 0x40 MSTORE DUP1 SWAP3 SWAP2 SWAP1 DUP2 DUP2 MSTORE PUSH1 0x20 ADD DUP3 DUP1 SLOAD PUSH2 0x134A SWAP1 PUSH2 0x32A9 JUMP JUMPDEST DUP1 ISZERO PUSH2 0x1397 JUMPI DUP1 PUSH1 0x1F LT PUSH2 0x136C JUMPI PUSH2 0x100 DUP1 DUP4 SLOAD DIV MUL DUP4 MSTORE SWAP2 PUSH1 0x20 ADD SWAP2 PUSH2 0x1397 JUMP JUMPDEST DUP3 ADD SWAP2 SWAP1 PUSH1 0x0 MSTORE PUSH1 0x20 PUSH1 0x0 KECCAK256 SWAP1 JUMPDEST DUP2 SLOAD DUP2 MSTORE SWAP1 PUSH1 0x1 ADD SWAP1 PUSH1 0x20 ADD DUP1 DUP4 GT PUSH2 0x137A JUMPI DUP3 SWAP1 SUB PUSH1 0x1F AND DUP3 ADD SWAP2 JUMPDEST POP POP POP POP POP DUP2 MSTORE POP SWAP1 POP PUSH2 0x13AA DUP2 PUSH2 0x1AE7 JUMP JUMPDEST SWAP7 SWAP6 POP POP POP POP POP POP JUMP JUMPDEST CALLER PUSH2 0x13BD PUSH2 0xAB7 JUMP JUMPDEST PUSH1 0x1 PUSH1 0x1 PUSH1 0xA0 SHL SUB AND EQ PUSH2 0x13E3 JUMPI PUSH1 0x40 MLOAD PUSH3 0x461BCD PUSH1 0xE5 SHL DUP2 MSTORE PUSH1 0x4 ADD PUSH2 0x5F8 SWAP1 PUSH2 0x314E JUMP JUMPDEST PUSH1 0x64 DUP2 LT PUSH2 0x13F0 JUMPI PUSH1 0x0 DUP1 REVERT JUMPDEST PUSH1 0xE SSTORE JUMP JUMPDEST PUSH1 0xC DUP1 SLOAD PUSH2 0x1402 SWAP1 PUSH2 0x32A9 JUMP JUMPDEST DUP1 PUSH1 0x1F ADD PUSH1 0x20 DUP1 SWAP2 DIV MUL PUSH1 0x20 ADD PUSH1 0x40 MLOAD SWAP1 DUP2 ADD PUSH1 0x40 MSTORE DUP1 SWAP3 SWAP2 SWAP1 DUP2 DUP2 MSTORE PUSH1 0x20 ADD DUP3 DUP1 SLOAD PUSH2 0x142E SWAP1 PUSH2 0x32A9 JUMP JUMPDEST DUP1 ISZERO PUSH2 0x147B JUMPI DUP1 PUSH1 0x1F LT PUSH2 0x1450 JUMPI PUSH2 0x100 DUP1 DUP4 SLOAD DIV MUL DUP4 MSTORE SWAP2 PUSH1 0x20 ADD SWAP2 PUSH2 0x147B JUMP JUMPDEST DUP3 ADD SWAP2 SWAP1 PUSH1 0x0 MSTORE PUSH1 0x20 PUSH1 0x0 KECCAK256 SWAP1 JUMPDEST DUP2 SLOAD DUP2 MSTORE SWAP1 PUSH1 0x1 ADD SWAP1 PUSH1 0x20 ADD DUP1 DUP4 GT PUSH2 0x145E JUMPI DUP3 SWAP1 SUB PUSH1 0x1F AND DUP3 ADD SWAP2 JUMPDEST POP POP POP POP POP DUP2 JUMP JUMPDEST PUSH1 0x1 PUSH1 0x1 PUSH1 0xA0 SHL SUB SWAP2 DUP3 AND PUSH1 0x0 SWAP1 DUP2 MSTORE PUSH1 0x5 PUSH1 0x20 SWAP1 DUP2 MSTORE PUSH1 0x40 DUP1 DUP4 KECCAK256 SWAP4 SWAP1 SWAP5 AND DUP3 MSTORE SWAP2 SWAP1 SWAP2 MSTORE KECCAK256 SLOAD PUSH1 0xFF AND SWAP1 JUMP JUMPDEST CALLER PUSH2 0x14BA PUSH2 0xAB7 JUMP JUMPDEST PUSH1 0x1 PUSH1 0x1 PUSH1 0xA0 SHL SUB AND EQ PUSH2 0x14E0 JUMPI PUSH1 0x40 MLOAD PUSH3 0x461BCD PUSH1 0xE5 SHL DUP2 MSTORE PUSH1 0x4 ADD PUSH2 0x5F8 SWAP1 PUSH2 0x314E JUMP JUMPDEST PUSH1 0x1 PUSH1 0x1 PUSH1 0xA0 SHL SUB DUP2 AND PUSH2 0x1545 JUMPI PUSH1 0x40 MLOAD PUSH3 0x461BCD PUSH1 0xE5 SHL DUP2 MSTORE PUSH1 0x20 PUSH1 0x4 DUP3 ADD MSTORE PUSH1 0x26 PUSH1 0x24 DUP3 ADD MSTORE PUSH32 0x4F776E61626C653A206E6577206F776E657220697320746865207A65726F2061 PUSH1 0x44 DUP3 ADD MSTORE PUSH6 0x646472657373 PUSH1 0xD0 SHL PUSH1 0x64 DUP3 ADD MSTORE PUSH1 0x84 ADD PUSH2 0x5F8 JUMP JUMPDEST PUSH2 0x7B0 DUP2 PUSH2 0x197D JUMP JUMPDEST PUSH1 0x0 PUSH1 0x1 PUSH1 0x1 PUSH1 0xE0 SHL SUB NOT DUP3 AND PUSH4 0x152A902D PUSH1 0xE1 SHL EQ DUP1 PUSH2 0x4F8 JUMPI POP PUSH2 0x4F8 DUP3 PUSH2 0x1BFD JUMP JUMPDEST PUSH1 0x0 SWAP1 DUP2 MSTORE PUSH1 0x2 PUSH1 0x20 MSTORE PUSH1 0x40 SWAP1 KECCAK256 SLOAD PUSH1 0x1 PUSH1 0x1 PUSH1 0xA0 SHL SUB AND ISZERO ISZERO SWAP1 JUMP JUMPDEST PUSH1 0x0 DUP2 DUP2 MSTORE PUSH1 0x4 PUSH1 0x20 MSTORE PUSH1 0x40 SWAP1 KECCAK256 DUP1 SLOAD PUSH1 0x1 PUSH1 0x1 PUSH1 0xA0 SHL SUB NOT AND PUSH1 0x1 PUSH1 0x1 PUSH1 0xA0 SHL SUB DUP5 AND SWAP1 DUP2 OR SWAP1 SWAP2 SSTORE DUP2 SWAP1 PUSH2 0x15C5 DUP3 PUSH2 0x97E JUMP JUMPDEST PUSH1 0x1 PUSH1 0x1 PUSH1 0xA0 SHL SUB AND PUSH32 0x8C5BE1E5EBEC7D5BD14F71427D1E84F3DD0314C0F7B2291E5B200AC8C7C3B925 PUSH1 0x40 MLOAD PUSH1 0x40 MLOAD DUP1 SWAP2 SUB SWAP1 LOG4 POP POP JUMP JUMPDEST PUSH1 0x0 PUSH2 0x1609 DUP3 PUSH2 0x1573 JUMP JUMPDEST PUSH2 0x166A JUMPI PUSH1 0x40 MLOAD PUSH3 0x461BCD PUSH1 0xE5 SHL DUP2 MSTORE PUSH1 0x20 PUSH1 0x4 DUP3 ADD MSTORE PUSH1 0x2C PUSH1 0x24 DUP3 ADD MSTORE PUSH32 0x4552433732313A206F70657261746F7220717565727920666F72206E6F6E6578 PUSH1 0x44 DUP3 ADD MSTORE PUSH12 0x34B9BA32B73A103A37B5B2B7 PUSH1 0xA1 SHL PUSH1 0x64 DUP3 ADD MSTORE PUSH1 0x84 ADD PUSH2 0x5F8 JUMP JUMPDEST PUSH1 0x0 PUSH2 0x1675 DUP4 PUSH2 0x97E JUMP JUMPDEST SWAP1 POP DUP1 PUSH1 0x1 PUSH1 0x1 PUSH1 0xA0 SHL SUB AND DUP5 PUSH1 0x1 PUSH1 0x1 PUSH1 0xA0 SHL SUB AND EQ DUP1 PUSH2 0x169C JUMPI POP PUSH2 0x169C DUP2 DUP6 PUSH2 0x1483 JUMP JUMPDEST DUP1 PUSH2 0x16C0 JUMPI POP DUP4 PUSH1 0x1 PUSH1 0x1 PUSH1 0xA0 SHL SUB AND PUSH2 0x16B5 DUP5 PUSH2 0x590 JUMP JUMPDEST PUSH1 0x1 PUSH1 0x1 PUSH1 0xA0 SHL SUB AND EQ JUMPDEST SWAP5 SWAP4 POP POP POP POP JUMP JUMPDEST DUP3 PUSH1 0x1 PUSH1 0x1 PUSH1 0xA0 SHL SUB AND PUSH2 0x16DB DUP3 PUSH2 0x97E JUMP JUMPDEST PUSH1 0x1 PUSH1 0x1 PUSH1 0xA0 SHL SUB AND EQ PUSH2 0x173F JUMPI PUSH1 0x40 MLOAD PUSH3 0x461BCD PUSH1 0xE5 SHL DUP2 MSTORE PUSH1 0x20 PUSH1 0x4 DUP3 ADD MSTORE PUSH1 0x25 PUSH1 0x24 DUP3 ADD MSTORE PUSH32 0x4552433732313A207472616E736665722066726F6D20696E636F727265637420 PUSH1 0x44 DUP3 ADD MSTORE PUSH5 0x37BBB732B9 PUSH1 0xD9 SHL PUSH1 0x64 DUP3 ADD MSTORE PUSH1 0x84 ADD PUSH2 0x5F8 JUMP JUMPDEST PUSH1 0x1 PUSH1 0x1 PUSH1 0xA0 SHL SUB DUP3 AND PUSH2 0x17A1 JUMPI PUSH1 0x40 MLOAD PUSH3 0x461BCD PUSH1 0xE5 SHL DUP2 MSTORE PUSH1 0x20 PUSH1 0x4 DUP3 ADD MSTORE PUSH1 0x24 DUP1 DUP3 ADD MSTORE PUSH32 0x4552433732313A207472616E7366657220746F20746865207A65726F20616464 PUSH1 0x44 DUP3 ADD MSTORE PUSH4 0x72657373 PUSH1 0xE0 SHL PUSH1 0x64 DUP3 ADD MSTORE PUSH1 0x84 ADD PUSH2 0x5F8 JUMP JUMPDEST PUSH2 0x17AC PUSH1 0x0 DUP3 PUSH2 0x1590 JUMP JUMPDEST PUSH1 0x1 PUSH1 0x1 PUSH1 0xA0 SHL SUB DUP4 AND PUSH1 0x0 SWAP1 DUP2 MSTORE PUSH1 0x3 PUSH1 0x20 MSTORE PUSH1 0x40 DUP2 KECCAK256 DUP1 SLOAD PUSH1 0x1 SWAP3 SWAP1 PUSH2 0x17D5 SWAP1 DUP5 SWAP1 PUSH2 0x324F JUMP JUMPDEST SWAP1 SWAP2 SSTORE POP POP PUSH1 0x1 PUSH1 0x1 PUSH1 0xA0 SHL SUB DUP3 AND PUSH1 0x0 SWAP1 DUP2 MSTORE PUSH1 0x3 PUSH1 0x20 MSTORE PUSH1 0x40 DUP2 KECCAK256 DUP1 SLOAD PUSH1 0x1 SWAP3 SWAP1 PUSH2 0x1803 SWAP1 DUP5 SWAP1 PUSH2 0x3204 JUMP JUMPDEST SWAP1 SWAP2 SSTORE POP POP PUSH1 0x0 DUP2 DUP2 MSTORE PUSH1 0x2 PUSH1 0x20 MSTORE PUSH1 0x40 DUP1 DUP3 KECCAK256 DUP1 SLOAD PUSH1 0x1 PUSH1 0x1 PUSH1 0xA0 SHL SUB NOT AND PUSH1 0x1 PUSH1 0x1 PUSH1 0xA0 SHL SUB DUP7 DUP2 AND SWAP2 DUP3 OR SWAP1 SWAP3 SSTORE SWAP2 MLOAD DUP5 SWAP4 SWAP2 DUP8 AND SWAP2 PUSH32 0xDDF252AD1BE2C89B69C2B068FC378DAA952BA7F163C4A11628F55A4DF523B3EF SWAP2 LOG4 POP POP POP JUMP JUMPDEST DUP1 SELFBALANCE LT ISZERO PUSH2 0x18B4 JUMPI PUSH1 0x40 MLOAD PUSH3 0x461BCD PUSH1 0xE5 SHL DUP2 MSTORE PUSH1 0x20 PUSH1 0x4 DUP3 ADD MSTORE PUSH1 0x1D PUSH1 0x24 DUP3 ADD MSTORE PUSH32 0x416464726573733A20696E73756666696369656E742062616C616E6365000000 PUSH1 0x44 DUP3 ADD MSTORE PUSH1 0x64 ADD PUSH2 0x5F8 JUMP JUMPDEST PUSH1 0x0 DUP3 PUSH1 0x1 PUSH1 0x1 PUSH1 0xA0 SHL SUB AND DUP3 PUSH1 0x40 MLOAD PUSH1 0x0 PUSH1 0x40 MLOAD DUP1 DUP4 SUB DUP2 DUP6 DUP8 GAS CALL SWAP3 POP POP POP RETURNDATASIZE DUP1 PUSH1 0x0 DUP2 EQ PUSH2 0x1901 JUMPI PUSH1 0x40 MLOAD SWAP2 POP PUSH1 0x1F NOT PUSH1 0x3F RETURNDATASIZE ADD AND DUP3 ADD PUSH1 0x40 MSTORE RETURNDATASIZE DUP3 MSTORE RETURNDATASIZE PUSH1 0x0 PUSH1 0x20 DUP5 ADD RETURNDATACOPY PUSH2 0x1906 JUMP JUMPDEST PUSH1 0x60 SWAP2 POP JUMPDEST POP POP SWAP1 POP DUP1 PUSH2 0x729 JUMPI PUSH1 0x40 MLOAD PUSH3 0x461BCD PUSH1 0xE5 SHL DUP2 MSTORE PUSH1 0x20 PUSH1 0x4 DUP3 ADD MSTORE PUSH1 0x3A PUSH1 0x24 DUP3 ADD MSTORE PUSH32 0x416464726573733A20756E61626C6520746F2073656E642076616C75652C2072 PUSH1 0x44 DUP3 ADD MSTORE PUSH32 0x6563697069656E74206D61792068617665207265766572746564000000000000 PUSH1 0x64 DUP3 ADD MSTORE PUSH1 0x84 ADD PUSH2 0x5F8 JUMP JUMPDEST PUSH1 0x8 DUP1 SLOAD PUSH1 0x1 PUSH1 0x1 PUSH1 0xA0 SHL SUB DUP4 DUP2 AND PUSH1 0x1 PUSH1 0x1 PUSH1 0xA0 SHL SUB NOT DUP4 AND DUP2 OR SWAP1 SWAP4 SSTORE PUSH1 0x40 MLOAD SWAP2 AND SWAP2 SWAP1 DUP3 SWAP1 PUSH32 0x8BE0079C531659141344CD1FD0A4F28419497F9722A3DAAFE3B4186F6B6457E0 SWAP1 PUSH1 0x0 SWAP1 LOG3 POP POP JUMP JUMPDEST DUP2 PUSH1 0x1 PUSH1 0x1 PUSH1 0xA0 SHL SUB AND DUP4 PUSH1 0x1 PUSH1 0x1 PUSH1 0xA0 SHL SUB AND EQ ISZERO PUSH2 0x1A2D JUMPI PUSH1 0x40 MLOAD PUSH3 0x461BCD PUSH1 0xE5 SHL DUP2 MSTORE PUSH1 0x20 PUSH1 0x4 DUP3 ADD MSTORE PUSH1 0x19 PUSH1 0x24 DUP3 ADD MSTORE PUSH25 0x22A9219B99189D1030B8383937BB32903A379031B0B63632B9 PUSH1 0x39 SHL PUSH1 0x44 DUP3 ADD MSTORE PUSH1 0x64 ADD PUSH2 0x5F8 JUMP JUMPDEST PUSH1 0x1 PUSH1 0x1 PUSH1 0xA0 SHL SUB DUP4 DUP2 AND PUSH1 0x0 DUP2 DUP2 MSTORE PUSH1 0x5 PUSH1 0x20 SWAP1 DUP2 MSTORE PUSH1 0x40 DUP1 DUP4 KECCAK256 SWAP5 DUP8 AND DUP1 DUP5 MSTORE SWAP5 DUP3 MSTORE SWAP2 DUP3 SWAP1 KECCAK256 DUP1 SLOAD PUSH1 0xFF NOT AND DUP7 ISZERO ISZERO SWAP1 DUP2 OR SWAP1 SWAP2 SSTORE SWAP2 MLOAD SWAP2 DUP3 MSTORE PUSH32 0x17307EAB39AB6107E8899845AD3D59BD9653F200F220920489CA2B5937696C31 SWAP2 ADD PUSH1 0x40 MLOAD DUP1 SWAP2 SUB SWAP1 LOG3 POP POP POP JUMP JUMPDEST PUSH2 0x1AA5 DUP5 DUP5 DUP5 PUSH2 0x16C8 JUMP JUMPDEST PUSH2 0x1AB1 DUP5 DUP5 DUP5 DUP5 PUSH2 0x1C4D JUMP JUMPDEST PUSH2 0xB12 JUMPI PUSH1 0x40 MLOAD PUSH3 0x461BCD PUSH1 0xE5 SHL DUP2 MSTORE PUSH1 0x4 ADD PUSH2 0x5F8 SWAP1 PUSH2 0x30FC JUMP JUMPDEST PUSH2 0x97A DUP3 DUP3 PUSH1 0x40 MLOAD DUP1 PUSH1 0x20 ADD PUSH1 0x40 MSTORE DUP1 PUSH1 0x0 DUP2 MSTORE POP PUSH2 0x1D5A JUMP JUMPDEST PUSH1 0x60 PUSH1 0x0 PUSH2 0x1AF4 DUP4 PUSH2 0x1D8D JUMP JUMPDEST SWAP1 POP PUSH1 0x0 PUSH2 0x1B20 DUP3 PUSH1 0x40 MLOAD PUSH1 0x20 ADD PUSH2 0x1B0C SWAP2 SWAP1 PUSH2 0x2B1D JUMP JUMPDEST PUSH1 0x40 MLOAD PUSH1 0x20 DUP2 DUP4 SUB SUB DUP2 MSTORE SWAP1 PUSH1 0x40 MSTORE PUSH2 0x1E4E JUMP JUMPDEST PUSH1 0x40 MLOAD PUSH1 0x20 ADD PUSH2 0x1B30 SWAP2 SWAP1 PUSH2 0x2C66 JUMP JUMPDEST PUSH1 0x40 MLOAD PUSH1 0x20 DUP2 DUP4 SUB SUB DUP2 MSTORE SWAP1 PUSH1 0x40 MSTORE SWAP1 POP PUSH1 0x0 PUSH2 0x1B50 DUP6 PUSH1 0x20 ADD MLOAD PUSH2 0x1FA1 JUMP JUMPDEST PUSH1 0x80 DUP7 ADD MLOAD PUSH1 0x40 DUP8 ADD MLOAD DUP2 SWAP1 PUSH2 0x1B65 SWAP1 PUSH2 0x1FA1 JUMP JUMPDEST PUSH1 0x40 MLOAD PUSH1 0x20 ADD PUSH2 0x1B78 SWAP5 SWAP4 SWAP3 SWAP2 SWAP1 PUSH2 0x2CA4 JUMP JUMPDEST PUSH1 0x40 MLOAD PUSH1 0x20 DUP2 DUP4 SUB SUB DUP2 MSTORE SWAP1 PUSH1 0x40 MSTORE SWAP1 POP PUSH1 0x0 DUP2 PUSH2 0x1BA4 DUP8 PUSH1 0x0 ADD MLOAD PUSH1 0x1 PUSH1 0x1 PUSH1 0xA0 SHL SUB AND PUSH1 0x14 PUSH2 0x209E JUMP JUMPDEST DUP6 DUP6 PUSH1 0x40 MLOAD PUSH1 0x20 ADD PUSH2 0x1BB9 SWAP5 SWAP4 SWAP3 SWAP2 SWAP1 PUSH2 0x28AF JUMP JUMPDEST PUSH1 0x40 MLOAD PUSH1 0x20 DUP2 DUP4 SUB SUB DUP2 MSTORE SWAP1 PUSH1 0x40 MSTORE SWAP1 POP PUSH2 0x1BD3 DUP2 PUSH2 0x1E4E JUMP JUMPDEST PUSH1 0x40 MLOAD PUSH1 0x20 ADD PUSH2 0x1BE3 SWAP2 SWAP1 PUSH2 0x302C JUMP JUMPDEST PUSH1 0x40 MLOAD PUSH1 0x20 DUP2 DUP4 SUB SUB DUP2 MSTORE SWAP1 PUSH1 0x40 MSTORE SWAP5 POP POP POP POP POP SWAP2 SWAP1 POP JUMP JUMPDEST PUSH1 0x0 PUSH1 0x1 PUSH1 0x1 PUSH1 0xE0 SHL SUB NOT DUP3 AND PUSH4 0x80AC58CD PUSH1 0xE0 SHL EQ DUP1 PUSH2 0x1C2E JUMPI POP PUSH1 0x1 PUSH1 0x1 PUSH1 0xE0 SHL SUB NOT DUP3 AND PUSH4 0x5B5E139F PUSH1 0xE0 SHL EQ JUMPDEST DUP1 PUSH2 0x4F8 JUMPI POP PUSH4 0x1FFC9A7 PUSH1 0xE0 SHL PUSH1 0x1 PUSH1 0x1 PUSH1 0xE0 SHL SUB NOT DUP4 AND EQ PUSH2 0x4F8 JUMP JUMPDEST PUSH1 0x0 PUSH1 0x1 PUSH1 0x1 PUSH1 0xA0 SHL SUB DUP5 AND EXTCODESIZE ISZERO PUSH2 0x1D4F JUMPI PUSH1 0x40 MLOAD PUSH4 0xA85BD01 PUSH1 0xE1 SHL DUP2 MSTORE PUSH1 0x1 PUSH1 0x1 PUSH1 0xA0 SHL SUB DUP6 AND SWAP1 PUSH4 0x150B7A02 SWAP1 PUSH2 0x1C91 SWAP1 CALLER SWAP1 DUP10 SWAP1 DUP9 SWAP1 DUP9 SWAP1 PUSH1 0x4 ADD PUSH2 0x30B6 JUMP JUMPDEST PUSH1 0x20 PUSH1 0x40 MLOAD DUP1 DUP4 SUB DUP2 PUSH1 0x0 DUP8 DUP1 EXTCODESIZE ISZERO DUP1 ISZERO PUSH2 0x1CAB JUMPI PUSH1 0x0 DUP1 REVERT JUMPDEST POP GAS CALL SWAP3 POP POP POP DUP1 ISZERO PUSH2 0x1CDB JUMPI POP PUSH1 0x40 DUP1 MLOAD PUSH1 0x1F RETURNDATASIZE SWAP1 DUP2 ADD PUSH1 0x1F NOT AND DUP3 ADD SWAP1 SWAP3 MSTORE PUSH2 0x1CD8 SWAP2 DUP2 ADD SWAP1 PUSH2 0x278B JUMP JUMPDEST PUSH1 0x1 JUMPDEST PUSH2 0x1D35 JUMPI RETURNDATASIZE DUP1 DUP1 ISZERO PUSH2 0x1D09 JUMPI PUSH1 0x40 MLOAD SWAP2 POP PUSH1 0x1F NOT PUSH1 0x3F RETURNDATASIZE ADD AND DUP3 ADD PUSH1 0x40 MSTORE RETURNDATASIZE DUP3 MSTORE RETURNDATASIZE PUSH1 0x0 PUSH1 0x20 DUP5 ADD RETURNDATACOPY PUSH2 0x1D0E JUMP JUMPDEST PUSH1 0x60 SWAP2 POP JUMPDEST POP DUP1 MLOAD PUSH2 0x1D2D JUMPI PUSH1 0x40 MLOAD PUSH3 0x461BCD PUSH1 0xE5 SHL DUP2 MSTORE PUSH1 0x4 ADD PUSH2 0x5F8 SWAP1 PUSH2 0x30FC JUMP JUMPDEST DUP1 MLOAD DUP2 PUSH1 0x20 ADD REVERT JUMPDEST PUSH1 0x1 PUSH1 0x1 PUSH1 0xE0 SHL SUB NOT AND PUSH4 0xA85BD01 PUSH1 0xE1 SHL EQ SWAP1 POP PUSH2 0x16C0 JUMP JUMPDEST POP PUSH1 0x1 SWAP5 SWAP4 POP POP POP POP JUMP JUMPDEST PUSH2 0x1D64 DUP4 DUP4 PUSH2 0x2239 JUMP JUMPDEST PUSH2 0x1D71 PUSH1 0x0 DUP5 DUP5 DUP5 PUSH2 0x1C4D JUMP JUMPDEST PUSH2 0x729 JUMPI PUSH1 0x40 MLOAD PUSH3 0x461BCD PUSH1 0xE5 SHL DUP2 MSTORE PUSH1 0x4 ADD PUSH2 0x5F8 SWAP1 PUSH2 0x30FC JUMP JUMPDEST PUSH1 0x60 PUSH1 0x0 PUSH2 0x1DA3 DUP4 PUSH1 0x0 ADD MLOAD DUP5 PUSH1 0x20 ADD MLOAD PUSH2 0x236C JUMP JUMPDEST SWAP1 POP PUSH1 0x0 PUSH2 0x1DB4 DUP5 PUSH1 0x60 ADD MLOAD PUSH2 0x23BF JUMP JUMPDEST SWAP1 POP PUSH1 0x0 PUSH2 0x1E22 PUSH1 0x40 MLOAD DUP1 PUSH1 0xA0 ADD PUSH1 0x40 MSTORE DUP1 PUSH1 0x6B DUP2 MSTORE PUSH1 0x20 ADD PUSH2 0x45B8 PUSH1 0x6B SWAP2 CODECOPY DUP4 PUSH1 0x40 MLOAD DUP1 PUSH2 0x3A0 ADD PUSH1 0x40 MSTORE DUP1 PUSH2 0x376 DUP2 MSTORE PUSH1 0x20 ADD PUSH2 0x4202 PUSH2 0x376 SWAP2 CODECOPY DUP7 PUSH1 0x40 MLOAD DUP1 PUSH2 0xEA0 ADD PUSH1 0x40 MSTORE DUP1 PUSH2 0xE80 DUP2 MSTORE PUSH1 0x20 ADD PUSH2 0x3382 PUSH2 0xE80 SWAP2 CODECOPY PUSH1 0x40 MLOAD PUSH1 0x20 ADD PUSH2 0x1B0C SWAP6 SWAP5 SWAP4 SWAP3 SWAP2 SWAP1 PUSH2 0x2AB2 JUMP JUMPDEST SWAP1 POP DUP1 PUSH1 0x40 MLOAD PUSH1 0x20 ADD PUSH2 0x1E35 SWAP2 SWAP1 PUSH2 0x3071 JUMP JUMPDEST PUSH1 0x40 MLOAD PUSH1 0x20 DUP2 DUP4 SUB SUB DUP2 MSTORE SWAP1 PUSH1 0x40 MSTORE SWAP4 POP POP POP POP SWAP2 SWAP1 POP JUMP JUMPDEST PUSH1 0x60 DUP2 MLOAD PUSH1 0x0 EQ ISZERO PUSH2 0x1E6E JUMPI POP POP PUSH1 0x40 DUP1 MLOAD PUSH1 0x20 DUP2 ADD SWAP1 SWAP2 MSTORE PUSH1 0x0 DUP2 MSTORE SWAP1 JUMP JUMPDEST PUSH1 0x0 PUSH1 0x40 MLOAD DUP1 PUSH1 0x60 ADD PUSH1 0x40 MSTORE DUP1 PUSH1 0x40 DUP2 MSTORE PUSH1 0x20 ADD PUSH2 0x4578 PUSH1 0x40 SWAP2 CODECOPY SWAP1 POP PUSH1 0x0 PUSH1 0x3 DUP5 MLOAD PUSH1 0x2 PUSH2 0x1E9D SWAP2 SWAP1 PUSH2 0x3204 JUMP JUMPDEST PUSH2 0x1EA7 SWAP2 SWAP1 PUSH2 0x321C JUMP JUMPDEST PUSH2 0x1EB2 SWAP1 PUSH1 0x4 PUSH2 0x3230 JUMP JUMPDEST PUSH1 0x1 PUSH1 0x1 PUSH1 0x40 SHL SUB DUP2 GT ISZERO PUSH2 0x1EC9 JUMPI PUSH2 0x1EC9 PUSH2 0x3355 JUMP JUMPDEST PUSH1 0x40 MLOAD SWAP1 DUP1 DUP3 MSTORE DUP1 PUSH1 0x1F ADD PUSH1 0x1F NOT AND PUSH1 0x20 ADD DUP3 ADD PUSH1 0x40 MSTORE DUP1 ISZERO PUSH2 0x1EF3 JUMPI PUSH1 0x20 DUP3 ADD DUP2 DUP1 CALLDATASIZE DUP4 CALLDATACOPY ADD SWAP1 POP JUMPDEST POP SWAP1 POP PUSH1 0x1 DUP3 ADD PUSH1 0x20 DUP3 ADD DUP6 DUP7 MLOAD DUP8 ADD JUMPDEST DUP1 DUP3 LT ISZERO PUSH2 0x1F5F JUMPI PUSH1 0x3 DUP3 ADD SWAP2 POP DUP2 MLOAD PUSH1 0x3F DUP2 PUSH1 0x12 SHR AND DUP6 ADD MLOAD DUP5 MSTORE8 PUSH1 0x1 DUP5 ADD SWAP4 POP PUSH1 0x3F DUP2 PUSH1 0xC SHR AND DUP6 ADD MLOAD DUP5 MSTORE8 PUSH1 0x1 DUP5 ADD SWAP4 POP PUSH1 0x3F DUP2 PUSH1 0x6 SHR AND DUP6 ADD MLOAD DUP5 MSTORE8 PUSH1 0x1 DUP5 ADD SWAP4 POP PUSH1 0x3F DUP2 AND DUP6 ADD MLOAD DUP5 MSTORE8 POP PUSH1 0x1 DUP4 ADD SWAP3 POP PUSH2 0x1F04 JUMP JUMPDEST POP POP PUSH1 0x3 DUP7 MLOAD MOD PUSH1 0x1 DUP2 EQ PUSH2 0x1F7B JUMPI PUSH1 0x2 DUP2 EQ PUSH2 0x1F8E JUMPI PUSH2 0x1F96 JUMP JUMPDEST PUSH1 0x3D PUSH1 0x1 DUP4 SUB MSTORE8 PUSH1 0x3D PUSH1 0x2 DUP4 SUB MSTORE8 PUSH2 0x1F96 JUMP JUMPDEST PUSH1 0x3D PUSH1 0x1 DUP4 SUB MSTORE8 JUMPDEST POP SWAP2 SWAP6 SWAP5 POP POP POP POP POP JUMP JUMPDEST PUSH1 0x60 DUP2 PUSH2 0x1FC5 JUMPI POP POP PUSH1 0x40 DUP1 MLOAD DUP1 DUP3 ADD SWAP1 SWAP2 MSTORE PUSH1 0x1 DUP2 MSTORE PUSH1 0x3 PUSH1 0xFC SHL PUSH1 0x20 DUP3 ADD MSTORE SWAP1 JUMP JUMPDEST DUP2 PUSH1 0x0 JUMPDEST DUP2 ISZERO PUSH2 0x1FEF JUMPI DUP1 PUSH2 0x1FD9 DUP2 PUSH2 0x32E4 JUMP JUMPDEST SWAP2 POP PUSH2 0x1FE8 SWAP1 POP PUSH1 0xA DUP4 PUSH2 0x321C JUMP JUMPDEST SWAP2 POP PUSH2 0x1FC9 JUMP JUMPDEST PUSH1 0x0 DUP2 PUSH1 0x1 PUSH1 0x1 PUSH1 0x40 SHL SUB DUP2 GT ISZERO PUSH2 0x2009 JUMPI PUSH2 0x2009 PUSH2 0x3355 JUMP JUMPDEST PUSH1 0x40 MLOAD SWAP1 DUP1 DUP3 MSTORE DUP1 PUSH1 0x1F ADD PUSH1 0x1F NOT AND PUSH1 0x20 ADD DUP3 ADD PUSH1 0x40 MSTORE DUP1 ISZERO PUSH2 0x2033 JUMPI PUSH1 0x20 DUP3 ADD DUP2 DUP1 CALLDATASIZE DUP4 CALLDATACOPY ADD SWAP1 POP JUMPDEST POP SWAP1 POP JUMPDEST DUP5 ISZERO PUSH2 0x16C0 JUMPI PUSH2 0x2048 PUSH1 0x1 DUP4 PUSH2 0x324F JUMP JUMPDEST SWAP2 POP PUSH2 0x2055 PUSH1 0xA DUP7 PUSH2 0x32FF JUMP JUMPDEST PUSH2 0x2060 SWAP1 PUSH1 0x30 PUSH2 0x3204 JUMP JUMPDEST PUSH1 0xF8 SHL DUP2 DUP4 DUP2 MLOAD DUP2 LT PUSH2 0x2075 JUMPI PUSH2 0x2075 PUSH2 0x333F JUMP JUMPDEST PUSH1 0x20 ADD ADD SWAP1 PUSH1 0x1 PUSH1 0x1 PUSH1 0xF8 SHL SUB NOT AND SWAP1 DUP2 PUSH1 0x0 BYTE SWAP1 MSTORE8 POP PUSH2 0x2097 PUSH1 0xA DUP7 PUSH2 0x321C JUMP JUMPDEST SWAP5 POP PUSH2 0x2037 JUMP JUMPDEST PUSH1 0x60 PUSH1 0x0 PUSH2 0x20AD DUP4 PUSH1 0x2 PUSH2 0x3230 JUMP JUMPDEST PUSH2 0x20B8 SWAP1 PUSH1 0x2 PUSH2 0x3204 JUMP JUMPDEST PUSH1 0x1 PUSH1 0x1 PUSH1 0x40 SHL SUB DUP2 GT ISZERO PUSH2 0x20CF JUMPI PUSH2 0x20CF PUSH2 0x3355 JUMP JUMPDEST PUSH1 0x40 MLOAD SWAP1 DUP1 DUP3 MSTORE DUP1 PUSH1 0x1F ADD PUSH1 0x1F NOT AND PUSH1 0x20 ADD DUP3 ADD PUSH1 0x40 MSTORE DUP1 ISZERO PUSH2 0x20F9 JUMPI PUSH1 0x20 DUP3 ADD DUP2 DUP1 CALLDATASIZE DUP4 CALLDATACOPY ADD SWAP1 POP JUMPDEST POP SWAP1 POP PUSH1 0x3 PUSH1 0xFC SHL DUP2 PUSH1 0x0 DUP2 MLOAD DUP2 LT PUSH2 0x2114 JUMPI PUSH2 0x2114 PUSH2 0x333F JUMP JUMPDEST PUSH1 0x20 ADD ADD SWAP1 PUSH1 0x1 PUSH1 0x1 PUSH1 0xF8 SHL SUB NOT AND SWAP1 DUP2 PUSH1 0x0 BYTE SWAP1 MSTORE8 POP PUSH1 0xF PUSH1 0xFB SHL DUP2 PUSH1 0x1 DUP2 MLOAD DUP2 LT PUSH2 0x2143 JUMPI PUSH2 0x2143 PUSH2 0x333F JUMP JUMPDEST PUSH1 0x20 ADD ADD SWAP1 PUSH1 0x1 PUSH1 0x1 PUSH1 0xF8 SHL SUB NOT AND SWAP1 DUP2 PUSH1 0x0 BYTE SWAP1 MSTORE8 POP PUSH1 0x0 PUSH2 0x2167 DUP5 PUSH1 0x2 PUSH2 0x3230 JUMP JUMPDEST PUSH2 0x2172 SWAP1 PUSH1 0x1 PUSH2 0x3204 JUMP JUMPDEST SWAP1 POP JUMPDEST PUSH1 0x1 DUP2 GT ISZERO PUSH2 0x21EA JUMPI PUSH16 0x181899199A1A9B1B9C1CB0B131B232B3 PUSH1 0x81 SHL DUP6 PUSH1 0xF AND PUSH1 0x10 DUP2 LT PUSH2 0x21A6 JUMPI PUSH2 0x21A6 PUSH2 0x333F JUMP JUMPDEST BYTE PUSH1 0xF8 SHL DUP3 DUP3 DUP2 MLOAD DUP2 LT PUSH2 0x21BC JUMPI PUSH2 0x21BC PUSH2 0x333F JUMP JUMPDEST PUSH1 0x20 ADD ADD SWAP1 PUSH1 0x1 PUSH1 0x1 PUSH1 0xF8 SHL SUB NOT AND SWAP1 DUP2 PUSH1 0x0 BYTE SWAP1 MSTORE8 POP PUSH1 0x4 SWAP5 SWAP1 SWAP5 SHR SWAP4 PUSH2 0x21E3 DUP2 PUSH2 0x3292 JUMP JUMPDEST SWAP1 POP PUSH2 0x2175 JUMP JUMPDEST POP DUP4 ISZERO PUSH2 0x86A JUMPI PUSH1 0x40 MLOAD PUSH3 0x461BCD PUSH1 0xE5 SHL DUP2 MSTORE PUSH1 0x20 PUSH1 0x4 DUP3 ADD DUP2 SWAP1 MSTORE PUSH1 0x24 DUP3 ADD MSTORE PUSH32 0x537472696E67733A20686578206C656E67746820696E73756666696369656E74 PUSH1 0x44 DUP3 ADD MSTORE PUSH1 0x64 ADD PUSH2 0x5F8 JUMP JUMPDEST PUSH1 0x1 PUSH1 0x1 PUSH1 0xA0 SHL SUB DUP3 AND PUSH2 0x228F JUMPI PUSH1 0x40 MLOAD PUSH3 0x461BCD PUSH1 0xE5 SHL DUP2 MSTORE PUSH1 0x20 PUSH1 0x4 DUP3 ADD DUP2 SWAP1 MSTORE PUSH1 0x24 DUP3 ADD MSTORE PUSH32 0x4552433732313A206D696E7420746F20746865207A65726F2061646472657373 PUSH1 0x44 DUP3 ADD MSTORE PUSH1 0x64 ADD PUSH2 0x5F8 JUMP JUMPDEST PUSH2 0x2298 DUP2 PUSH2 0x1573 JUMP JUMPDEST ISZERO PUSH2 0x22E5 JUMPI PUSH1 0x40 MLOAD PUSH3 0x461BCD PUSH1 0xE5 SHL DUP2 MSTORE PUSH1 0x20 PUSH1 0x4 DUP3 ADD MSTORE PUSH1 0x1C PUSH1 0x24 DUP3 ADD MSTORE PUSH32 0x4552433732313A20746F6B656E20616C7265616479206D696E74656400000000 PUSH1 0x44 DUP3 ADD MSTORE PUSH1 0x64 ADD PUSH2 0x5F8 JUMP JUMPDEST PUSH1 0x1 PUSH1 0x1 PUSH1 0xA0 SHL SUB DUP3 AND PUSH1 0x0 SWAP1 DUP2 MSTORE PUSH1 0x3 PUSH1 0x20 MSTORE PUSH1 0x40 DUP2 KECCAK256 DUP1 SLOAD PUSH1 0x1 SWAP3 SWAP1 PUSH2 0x230E SWAP1 DUP5 SWAP1 PUSH2 0x3204 JUMP JUMPDEST SWAP1 SWAP2 SSTORE POP POP PUSH1 0x0 DUP2 DUP2 MSTORE PUSH1 0x2 PUSH1 0x20 MSTORE PUSH1 0x40 DUP1 DUP3 KECCAK256 DUP1 SLOAD PUSH1 0x1 PUSH1 0x1 PUSH1 0xA0 SHL SUB NOT AND PUSH1 0x1 PUSH1 0x1 PUSH1 0xA0 SHL SUB DUP7 AND SWAP1 DUP2 OR SWAP1 SWAP2 SSTORE SWAP1 MLOAD DUP4 SWAP3 SWAP1 PUSH32 0xDDF252AD1BE2C89B69C2B068FC378DAA952BA7F163C4A11628F55A4DF523B3EF SWAP1 DUP3 SWAP1 LOG4 POP POP JUMP JUMPDEST PUSH1 0x60 PUSH1 0x0 PUSH2 0x2384 DUP5 PUSH1 0x1 PUSH1 0x1 PUSH1 0xA0 SHL SUB AND PUSH1 0x14 PUSH2 0x209E JUMP JUMPDEST SWAP1 POP PUSH1 0x0 PUSH2 0x2391 DUP5 PUSH2 0x1FA1 JUMP JUMPDEST SWAP1 POP DUP2 DUP2 PUSH1 0x40 MLOAD PUSH1 0x20 ADD PUSH2 0x23A6 SWAP3 SWAP2 SWAP1 PUSH2 0x2BAB JUMP JUMPDEST PUSH1 0x40 MLOAD PUSH1 0x20 DUP2 DUP4 SUB SUB DUP2 MSTORE SWAP1 PUSH1 0x40 MSTORE SWAP3 POP POP POP SWAP3 SWAP2 POP POP JUMP JUMPDEST PUSH1 0x60 PUSH1 0x0 DUP3 PUSH1 0x0 ADD MLOAD DUP4 PUSH1 0x20 ADD MLOAD DUP5 PUSH1 0x40 ADD MLOAD DUP6 PUSH1 0x60 ADD MLOAD DUP7 PUSH1 0x80 ADD MLOAD PUSH1 0x40 MLOAD PUSH1 0x20 ADD PUSH2 0x23F0 SWAP6 SWAP5 SWAP4 SWAP3 SWAP2 SWAP1 PUSH2 0x2E72 JUMP JUMPDEST PUSH1 0x40 MLOAD PUSH1 0x20 DUP2 DUP4 SUB SUB DUP2 MSTORE SWAP1 PUSH1 0x40 MSTORE SWAP1 POP PUSH1 0x0 DUP2 DUP5 PUSH1 0x80 ADD MLOAD DUP6 PUSH1 0xA0 ADD MLOAD DUP7 PUSH1 0xC0 ADD MLOAD DUP8 PUSH1 0xE0 ADD MLOAD DUP9 PUSH2 0x100 ADD MLOAD PUSH1 0x40 MLOAD PUSH1 0x20 ADD PUSH2 0x2433 SWAP7 SWAP6 SWAP5 SWAP4 SWAP3 SWAP2 SWAP1 PUSH2 0x2950 JUMP JUMPDEST PUSH1 0x40 DUP1 MLOAD PUSH1 0x1F NOT DUP2 DUP5 SUB ADD DUP2 MSTORE SWAP2 SWAP1 MSTORE SWAP5 SWAP4 POP POP POP POP JUMP JUMPDEST DUP3 DUP1 SLOAD PUSH2 0x2457 SWAP1 PUSH2 0x32A9 JUMP JUMPDEST SWAP1 PUSH1 0x0 MSTORE PUSH1 0x20 PUSH1 0x0 KECCAK256 SWAP1 PUSH1 0x1F ADD PUSH1 0x20 SWAP1 DIV DUP2 ADD SWAP3 DUP3 PUSH2 0x2479 JUMPI PUSH1 0x0 DUP6 SSTORE PUSH2 0x24BF JUMP JUMPDEST DUP3 PUSH1 0x1F LT PUSH2 0x2492 JUMPI DUP1 MLOAD PUSH1 0xFF NOT AND DUP4 DUP1 ADD OR DUP6 SSTORE PUSH2 0x24BF JUMP JUMPDEST DUP3 DUP1 ADD PUSH1 0x1 ADD DUP6 SSTORE DUP3 ISZERO PUSH2 0x24BF JUMPI SWAP2 DUP3 ADD JUMPDEST DUP3 DUP2 GT ISZERO PUSH2 0x24BF JUMPI DUP3 MLOAD DUP3 SSTORE SWAP2 PUSH1 0x20 ADD SWAP2 SWAP1 PUSH1 0x1 ADD SWAP1 PUSH2 0x24A4 JUMP JUMPDEST POP PUSH2 0x24CB SWAP3 SWAP2 POP PUSH2 0x24CF JUMP JUMPDEST POP SWAP1 JUMP JUMPDEST JUMPDEST DUP1 DUP3 GT ISZERO PUSH2 0x24CB JUMPI PUSH1 0x0 DUP2 SSTORE PUSH1 0x1 ADD PUSH2 0x24D0 JUMP JUMPDEST PUSH1 0x0 PUSH1 0x1 PUSH1 0x1 PUSH1 0x40 SHL SUB DUP4 GT ISZERO PUSH2 0x24FD JUMPI PUSH2 0x24FD PUSH2 0x3355 JUMP JUMPDEST PUSH2 0x2510 PUSH1 0x1F DUP5 ADD PUSH1 0x1F NOT AND PUSH1 0x20 ADD PUSH2 0x31D4 JUMP JUMPDEST SWAP1 POP DUP3 DUP2 MSTORE DUP4 DUP4 DUP4 ADD GT ISZERO PUSH2 0x2524 JUMPI PUSH1 0x0 DUP1 REVERT JUMPDEST DUP3 DUP3 PUSH1 0x20 DUP4 ADD CALLDATACOPY PUSH1 0x0 PUSH1 0x20 DUP5 DUP4 ADD ADD MSTORE SWAP4 SWAP3 POP POP POP JUMP JUMPDEST DUP1 CALLDATALOAD PUSH1 0x1 PUSH1 0x1 PUSH1 0xA0 SHL SUB DUP2 AND DUP2 EQ PUSH2 0x2552 JUMPI PUSH1 0x0 DUP1 REVERT JUMPDEST SWAP2 SWAP1 POP JUMP JUMPDEST PUSH1 0x0 PUSH1 0x20 DUP3 DUP5 SUB SLT ISZERO PUSH2 0x2569 JUMPI PUSH1 0x0 DUP1 REVERT JUMPDEST PUSH2 0x86A DUP3 PUSH2 0x253B JUMP JUMPDEST PUSH1 0x0 DUP1 PUSH1 0x40 DUP4 DUP6 SUB SLT ISZERO PUSH2 0x2585 JUMPI PUSH1 0x0 DUP1 REVERT JUMPDEST PUSH2 0x258E DUP4 PUSH2 0x253B JUMP JUMPDEST SWAP2 POP PUSH2 0x259C PUSH1 0x20 DUP5 ADD PUSH2 0x253B JUMP JUMPDEST SWAP1 POP SWAP3 POP SWAP3 SWAP1 POP JUMP JUMPDEST PUSH1 0x0 DUP1 PUSH1 0x0 PUSH1 0x60 DUP5 DUP7 SUB SLT ISZERO PUSH2 0x25BA JUMPI PUSH1 0x0 DUP1 REVERT JUMPDEST PUSH2 0x25C3 DUP5 PUSH2 0x253B JUMP JUMPDEST SWAP3 POP PUSH2 0x25D1 PUSH1 0x20 DUP6 ADD PUSH2 0x253B JUMP JUMPDEST SWAP2 POP PUSH1 0x40 DUP5 ADD CALLDATALOAD SWAP1 POP SWAP3 POP SWAP3 POP SWAP3 JUMP JUMPDEST PUSH1 0x0 DUP1 PUSH1 0x0 DUP1 PUSH1 0x80 DUP6 DUP8 SUB SLT ISZERO PUSH2 0x25F7 JUMPI PUSH1 0x0 DUP1 REVERT JUMPDEST PUSH2 0x2600 DUP6 PUSH2 0x253B JUMP JUMPDEST SWAP4 POP PUSH2 0x260E PUSH1 0x20 DUP7 ADD PUSH2 0x253B JUMP JUMPDEST SWAP3 POP PUSH1 0x40 DUP6 ADD CALLDATALOAD SWAP2 POP PUSH1 0x60 DUP6 ADD CALLDATALOAD PUSH1 0x1 PUSH1 0x1 PUSH1 0x40 SHL SUB DUP2 GT ISZERO PUSH2 0x2630 JUMPI PUSH1 0x0 DUP1 REVERT JUMPDEST DUP6 ADD PUSH1 0x1F DUP2 ADD DUP8 SGT PUSH2 0x2641 JUMPI PUSH1 0x0 DUP1 REVERT JUMPDEST PUSH2 0x2650 DUP8 DUP3 CALLDATALOAD PUSH1 0x20 DUP5 ADD PUSH2 0x24E4 JUMP JUMPDEST SWAP2 POP POP SWAP3 SWAP6 SWAP2 SWAP5 POP SWAP3 POP JUMP JUMPDEST PUSH1 0x0 DUP1 PUSH1 0x40 DUP4 DUP6 SUB SLT ISZERO PUSH2 0x266F JUMPI PUSH1 0x0 DUP1 REVERT JUMPDEST PUSH2 0x2678 DUP4 PUSH2 0x253B JUMP JUMPDEST SWAP2 POP PUSH1 0x20 DUP4 ADD CALLDATALOAD DUP1 ISZERO ISZERO DUP2 EQ PUSH2 0x268D JUMPI PUSH1 0x0 DUP1 REVERT JUMPDEST DUP1 SWAP2 POP POP SWAP3 POP SWAP3 SWAP1 POP JUMP JUMPDEST PUSH1 0x0 DUP1 PUSH1 0x40 DUP4 DUP6 SUB SLT ISZERO PUSH2 0x26AB JUMPI PUSH1 0x0 DUP1 REVERT JUMPDEST PUSH2 0x26B4 DUP4 PUSH2 0x253B JUMP JUMPDEST SWAP5 PUSH1 0x20 SWAP4 SWAP1 SWAP4 ADD CALLDATALOAD SWAP4 POP POP POP JUMP JUMPDEST PUSH1 0x0 PUSH1 0x20 DUP1 DUP4 DUP6 SUB SLT ISZERO PUSH2 0x26D5 JUMPI PUSH1 0x0 DUP1 REVERT JUMPDEST DUP3 CALLDATALOAD PUSH1 0x1 PUSH1 0x1 PUSH1 0x40 SHL SUB DUP1 DUP3 GT ISZERO PUSH2 0x26EC JUMPI PUSH1 0x0 DUP1 REVERT JUMPDEST DUP2 DUP6 ADD SWAP2 POP DUP6 PUSH1 0x1F DUP4 ADD SLT PUSH2 0x2700 JUMPI PUSH1 0x0 DUP1 REVERT JUMPDEST DUP2 CALLDATALOAD DUP2 DUP2 GT ISZERO PUSH2 0x2712 JUMPI PUSH2 0x2712 PUSH2 0x3355 JUMP JUMPDEST DUP1 PUSH1 0x5 SHL SWAP2 POP PUSH2 0x2723 DUP5 DUP4 ADD PUSH2 0x31D4 JUMP JUMPDEST DUP2 DUP2 MSTORE DUP5 DUP2 ADD SWAP1 DUP5 DUP7 ADD DUP5 DUP7 ADD DUP8 ADD DUP11 LT ISZERO PUSH2 0x273E JUMPI PUSH1 0x0 DUP1 REVERT JUMPDEST PUSH1 0x0 SWAP6 POP JUMPDEST DUP4 DUP7 LT ISZERO PUSH2 0x2761 JUMPI DUP1 CALLDATALOAD DUP4 MSTORE PUSH1 0x1 SWAP6 SWAP1 SWAP6 ADD SWAP5 SWAP2 DUP7 ADD SWAP2 DUP7 ADD PUSH2 0x2743 JUMP JUMPDEST POP SWAP9 SWAP8 POP POP POP POP POP POP POP POP JUMP JUMPDEST PUSH1 0x0 PUSH1 0x20 DUP3 DUP5 SUB SLT ISZERO PUSH2 0x2780 JUMPI PUSH1 0x0 DUP1 REVERT JUMPDEST DUP2 CALLDATALOAD PUSH2 0x86A DUP2 PUSH2 0x336B JUMP JUMPDEST PUSH1 0x0 PUSH1 0x20 DUP3 DUP5 SUB SLT ISZERO PUSH2 0x279D JUMPI PUSH1 0x0 DUP1 REVERT JUMPDEST DUP2 MLOAD PUSH2 0x86A DUP2 PUSH2 0x336B JUMP JUMPDEST PUSH1 0x0 PUSH1 0x20 DUP3 DUP5 SUB SLT ISZERO PUSH2 0x27BA JUMPI PUSH1 0x0 DUP1 REVERT JUMPDEST DUP2 CALLDATALOAD PUSH1 0x1 PUSH1 0x1 PUSH1 0x40 SHL SUB DUP2 GT ISZERO PUSH2 0x27D0 JUMPI PUSH1 0x0 DUP1 REVERT JUMPDEST DUP3 ADD PUSH1 0x1F DUP2 ADD DUP5 SGT PUSH2 0x27E1 JUMPI PUSH1 0x0 DUP1 REVERT JUMPDEST PUSH2 0x16C0 DUP5 DUP3 CALLDATALOAD PUSH1 0x20 DUP5 ADD PUSH2 0x24E4 JUMP JUMPDEST PUSH1 0x0 PUSH1 0x20 DUP3 DUP5 SUB SLT ISZERO PUSH2 0x2802 JUMPI PUSH1 0x0 DUP1 REVERT JUMPDEST POP CALLDATALOAD SWAP2 SWAP1 POP JUMP JUMPDEST PUSH1 0x0 PUSH1 0x20 DUP3 DUP5 SUB SLT ISZERO PUSH2 0x281B JUMPI PUSH1 0x0 DUP1 REVERT JUMPDEST POP MLOAD SWAP2 SWAP1 POP JUMP JUMPDEST PUSH1 0x0 DUP1 PUSH1 0x40 DUP4 DUP6 SUB SLT ISZERO PUSH2 0x2835 JUMPI PUSH1 0x0 DUP1 REVERT JUMPDEST DUP3 CALLDATALOAD SWAP2 POP PUSH2 0x259C PUSH1 0x20 DUP5 ADD PUSH2 0x253B JUMP JUMPDEST PUSH1 0x0 DUP1 PUSH1 0x40 DUP4 DUP6 SUB SLT ISZERO PUSH2 0x2858 JUMPI PUSH1 0x0 DUP1 REVERT JUMPDEST POP POP DUP1 CALLDATALOAD SWAP3 PUSH1 0x20 SWAP1 SWAP2 ADD CALLDATALOAD SWAP2 POP JUMP JUMPDEST PUSH1 0x0 DUP2 MLOAD DUP1 DUP5 MSTORE PUSH2 0x287F DUP2 PUSH1 0x20 DUP7 ADD PUSH1 0x20 DUP7 ADD PUSH2 0x3266 JUMP JUMPDEST PUSH1 0x1F ADD PUSH1 0x1F NOT AND SWAP3 SWAP1 SWAP3 ADD PUSH1 0x20 ADD SWAP3 SWAP2 POP POP JUMP JUMPDEST PUSH1 0x0 DUP2 MLOAD PUSH2 0x28A5 DUP2 DUP6 PUSH1 0x20 DUP7 ADD PUSH2 0x3266 JUMP JUMPDEST SWAP3 SWAP1 SWAP3 ADD SWAP3 SWAP2 POP POP JUMP JUMPDEST PUSH1 0x0 DUP6 MLOAD PUSH2 0x28C1 DUP2 DUP5 PUSH1 0x20 DUP11 ADD PUSH2 0x3266 JUMP JUMPDEST DUP6 MLOAD SWAP1 DUP4 ADD SWAP1 PUSH2 0x28D5 DUP2 DUP4 PUSH1 0x20 DUP11 ADD PUSH2 0x3266 JUMP JUMPDEST PUSH13 0x1116101134B6B0B3B2911D1011 PUSH1 0x99 SHL SWAP2 ADD SWAP1 DUP2 MSTORE DUP5 MLOAD PUSH2 0x28FE DUP2 PUSH1 0xD DUP5 ADD PUSH1 0x20 DUP10 ADD PUSH2 0x3266 JUMP JUMPDEST PUSH20 0x1116101130B734B6B0BA34B7B72FBAB936111D11 PUSH1 0x61 SHL PUSH1 0xD SWAP3 SWAP1 SWAP2 ADD SWAP2 DUP3 ADD MSTORE DUP4 MLOAD PUSH2 0x2933 DUP2 PUSH1 0x21 DUP5 ADD PUSH1 0x20 DUP9 ADD PUSH2 0x3266 JUMP JUMPDEST PUSH2 0x227D PUSH1 0xF0 SHL PUSH1 0x21 SWAP3 SWAP1 SWAP2 ADD SWAP2 DUP3 ADD MSTORE PUSH1 0x23 ADD SWAP7 SWAP6 POP POP POP POP POP POP JUMP JUMPDEST PUSH1 0x0 DUP8 MLOAD PUSH1 0x20 PUSH2 0x2963 DUP3 DUP6 DUP4 DUP14 ADD PUSH2 0x3266 JUMP JUMPDEST PUSH32 0x7D202E6869676853636F7265207B666F6E743A203235707820436F7572696572 SWAP2 DUP5 ADD SWAP2 DUP3 MSTORE PUSH9 0x3B2066696C6C3A2023 PUSH1 0xB8 SHL DUP2 DUP4 ADD MSTORE DUP9 MLOAD PUSH2 0x29AD DUP2 PUSH1 0x29 DUP6 ADD DUP13 DUP6 ADD PUSH2 0x3266 JUMP JUMPDEST PUSH22 0x7D202E6261636B67726F756E64207B66696C6C3A2023 PUSH1 0x50 SHL PUSH1 0x29 SWAP4 SWAP1 SWAP2 ADD SWAP3 DUP4 ADD MSTORE DUP8 MLOAD PUSH2 0x29E3 DUP2 PUSH1 0x3F DUP6 ADD DUP5 DUP13 ADD PUSH2 0x3266 JUMP JUMPDEST PUSH15 0x7D202E6D6170207B66696C6C3A2023 PUSH1 0x88 SHL PUSH1 0x3F SWAP4 SWAP1 SWAP2 ADD SWAP3 DUP4 ADD MSTORE DUP7 MLOAD PUSH2 0x2A12 DUP2 PUSH1 0x4E DUP6 ADD DUP5 DUP12 ADD PUSH2 0x3266 JUMP JUMPDEST PUSH32 0x7D202E666F6F64207B7374726F6B653A20233030303B2066696C6C3A20230000 PUSH1 0x4E SWAP4 SWAP1 SWAP2 ADD SWAP3 DUP4 ADD MSTORE DUP6 MLOAD PUSH2 0x2A4F DUP2 PUSH1 0x6C DUP6 ADD DUP5 DUP11 ADD PUSH2 0x3266 JUMP JUMPDEST PUSH2 0x2AA3 PUSH2 0x2A8D PUSH2 0x2A87 PUSH1 0x6C DUP5 DUP8 ADD ADD PUSH32 0x7D202E736E616B657B7374726F6B653A20233030303B2066696C6C3A20230000 DUP2 MSTORE PUSH1 0x1E ADD SWAP1 JUMP JUMPDEST DUP9 PUSH2 0x2893 JUMP JUMPDEST PUSH10 0x3E901E17B9BA3CB6329F PUSH1 0xB1 SHL DUP2 MSTORE PUSH1 0xA ADD SWAP1 JUMP JUMPDEST SWAP12 SWAP11 POP POP POP POP POP POP POP POP POP POP POP JUMP JUMPDEST PUSH1 0x0 DUP7 MLOAD PUSH2 0x2AC4 DUP2 DUP5 PUSH1 0x20 DUP12 ADD PUSH2 0x3266 JUMP JUMPDEST DUP7 MLOAD SWAP1 DUP4 ADD SWAP1 PUSH2 0x2AD8 DUP2 DUP4 PUSH1 0x20 DUP12 ADD PUSH2 0x3266 JUMP JUMPDEST DUP7 MLOAD SWAP2 ADD SWAP1 PUSH2 0x2AEB DUP2 DUP4 PUSH1 0x20 DUP11 ADD PUSH2 0x3266 JUMP JUMPDEST DUP6 MLOAD SWAP2 ADD SWAP1 PUSH2 0x2AFE DUP2 DUP4 PUSH1 0x20 DUP10 ADD PUSH2 0x3266 JUMP JUMPDEST DUP5 MLOAD SWAP2 ADD SWAP1 PUSH2 0x2B11 DUP2 DUP4 PUSH1 0x20 DUP9 ADD PUSH2 0x3266 JUMP JUMPDEST ADD SWAP8 SWAP7 POP POP POP POP POP POP POP JUMP JUMPDEST PUSH32 0x3C21444F43545950452068746D6C3E203C68746D6C3E3C6F626A656374207479 DUP2 MSTORE PUSH25 0x38329E9134B6B0B3B297B9BB3395BC36B611103230BA309E91 PUSH1 0x39 SHL PUSH1 0x20 DUP3 ADD MSTORE PUSH1 0x0 DUP3 MLOAD PUSH2 0x2B77 DUP2 PUSH1 0x39 DUP6 ADD PUSH1 0x20 DUP8 ADD PUSH2 0x3266 JUMP JUMPDEST PUSH32 0x2220616C743D22736E616B65223E3C2F6F626A6563743E3C2F68746D6C3E0000 PUSH1 0x39 SWAP4 SWAP1 SWAP2 ADD SWAP3 DUP4 ADD MSTORE POP PUSH1 0x57 ADD SWAP2 SWAP1 POP JUMP JUMPDEST PUSH32 0x3C6720636C6173733D226D65746164617461223E203C7465787420783D223530 DUP2 MSTORE PUSH18 0x11103C9E911C981811101F37BBB732B91D1 PUSH1 0x75 SHL PUSH1 0x20 DUP3 ADD MSTORE PUSH1 0x0 DUP4 MLOAD PUSH2 0x2BFE DUP2 PUSH1 0x32 DUP6 ADD PUSH1 0x20 DUP9 ADD PUSH2 0x3266 JUMP JUMPDEST PUSH32 0x3C2F746578743E203C7465787420783D2235302220793D22393530223E000000 PUSH1 0x32 SWAP2 DUP5 ADD SWAP2 DUP3 ADD MSTORE DUP4 MLOAD PUSH2 0x2C3B DUP2 PUSH1 0x4F DUP5 ADD PUSH1 0x20 DUP9 ADD PUSH2 0x3266 JUMP JUMPDEST PUSH18 0x1798981818181E17BA32BC3A1F101E17B39F PUSH1 0x71 SHL PUSH1 0x4F SWAP3 SWAP1 SWAP2 ADD SWAP2 DUP3 ADD MSTORE PUSH1 0x61 ADD SWAP5 SWAP4 POP POP POP POP JUMP JUMPDEST PUSH22 0x19185D184E9D195E1D0BDA1D1B5B0ED8985CD94D8D0B PUSH1 0x52 SHL DUP2 MSTORE PUSH1 0x0 DUP3 MLOAD PUSH2 0x2C97 DUP2 PUSH1 0x16 DUP6 ADD PUSH1 0x20 DUP8 ADD PUSH2 0x3266 JUMP JUMPDEST SWAP2 SWAP1 SWAP2 ADD PUSH1 0x16 ADD SWAP3 SWAP2 POP POP JUMP JUMPDEST PUSH17 0x7B226E616D65223A2022536E616B652023 PUSH1 0x78 SHL DUP2 MSTORE DUP5 MLOAD PUSH1 0x0 SWAP1 PUSH2 0x2CD1 DUP2 PUSH1 0x11 DUP6 ADD PUSH1 0x20 DUP11 ADD PUSH2 0x3266 JUMP JUMPDEST PUSH32 0x222C20226465736372697074696F6E223A202246756C6C79206F6E2063686169 PUSH1 0x11 SWAP2 DUP5 ADD SWAP2 DUP3 ADD MSTORE PUSH32 0x6E2067616D65206F6620536E616B652E20546F20706C61792C2073696D706C79 PUSH1 0x31 DUP3 ADD MSTORE PUSH32 0x20636F70792074686520696D6167652075726C20616E64207061737465206974 PUSH1 0x51 DUP3 ADD MSTORE PUSH32 0x20696E2061207765622062726F777365722E204F722C20766973697420746865 PUSH1 0x71 DUP3 ADD MSTORE PUSH20 0x40B69ECCCCD2C6D2C2D840AECAC4E6D2E8CABA5 PUSH1 0x63 SHL PUSH1 0x91 DUP3 ADD MSTORE DUP6 MLOAD PUSH2 0x2D9D DUP2 PUSH1 0xA5 DUP5 ADD PUSH1 0x20 DUP11 ADD PUSH2 0x3266 JUMP JUMPDEST PUSH32 0x2920746F207669657720616E6420706C617920796F75722067616D65732E222C PUSH1 0xA5 SWAP3 SWAP1 SWAP2 ADD SWAP2 DUP3 ADD MSTORE PUSH17 0x101132BC3A32B93730B62FBAB936111D11 PUSH1 0x79 SHL PUSH1 0xC5 DUP3 ADD MSTORE PUSH2 0x2E67 PUSH2 0x2E4D PUSH2 0x2E47 PUSH2 0x2DF8 PUSH1 0xD6 DUP6 ADD DUP10 PUSH2 0x2893 JUMP JUMPDEST PUSH32 0x222C202261747472696275746573223A205B7B2274726169745F74797065223A DUP2 MSTORE PUSH32 0x2022436F6C6F7220536368656D65222C202276616C7565223A22000000000000 PUSH1 0x20 DUP3 ADD MSTORE PUSH1 0x3A ADD SWAP1 JUMP JUMPDEST DUP7 PUSH2 0x2893 JUMP JUMPDEST PUSH14 0x113EAE96101137BBB732B9111D11 PUSH1 0x91 SHL DUP2 MSTORE PUSH1 0xE ADD SWAP1 JUMP JUMPDEST SWAP8 SWAP7 POP POP POP POP POP POP POP JUMP JUMPDEST PUSH32 0x3C7374796C653E202E6D65746164617461207B20666F6E743A20203330707820 DUP2 MSTORE PUSH16 0x436F75726965723B2066696C6C3A2023 PUSH1 0x80 SHL PUSH1 0x20 DUP3 ADD MSTORE PUSH1 0x0 DUP7 MLOAD PUSH2 0x2EC3 DUP2 PUSH1 0x30 DUP6 ADD PUSH1 0x20 DUP12 ADD PUSH2 0x3266 JUMP JUMPDEST PUSH32 0x207D202E7469746C65207B20666F6E743A20203830707820436F75726965723B PUSH1 0x30 SWAP2 DUP5 ADD SWAP2 DUP3 ADD MSTORE PUSH8 0x2066696C6C3A2023 PUSH1 0xC0 SHL PUSH1 0x50 DUP3 ADD MSTORE DUP7 MLOAD PUSH2 0x2F11 DUP2 PUSH1 0x58 DUP5 ADD PUSH1 0x20 DUP12 ADD PUSH2 0x3266 JUMP JUMPDEST PUSH32 0x207D202E7374617274207B666F6E743A203335707820436F75726965723B2066 PUSH1 0x58 SWAP3 SWAP1 SWAP2 ADD SWAP2 DUP3 ADD MSTORE PUSH25 0x696C6C2D6F7061636974793A202E37303B2066696C6C3A2023 PUSH1 0x38 SHL PUSH1 0x78 DUP3 ADD MSTORE DUP6 MLOAD PUSH2 0x2F71 DUP2 PUSH1 0x91 DUP5 ADD PUSH1 0x20 DUP11 ADD PUSH2 0x3266 JUMP JUMPDEST PUSH32 0x7D202E646972656374696F6E73207B666F6E743A206974616C69632033307078 PUSH1 0x91 SWAP3 SWAP1 SWAP2 ADD SWAP2 DUP3 ADD MSTORE PUSH32 0x20436F75726965723B2066696C6C2D6F7061636974793A202E37303B2066696C PUSH1 0xB1 DUP3 ADD MSTORE PUSH4 0x6C3A2023 PUSH1 0xE0 SHL PUSH1 0xD1 DUP3 ADD MSTORE PUSH2 0x3020 PUSH2 0x301A PUSH2 0x2FE2 PUSH1 0xD5 DUP5 ADD DUP9 PUSH2 0x2893 JUMP JUMPDEST PUSH32 0x207D202E73636F7265207B666F6E743A203430707820436F75726965723B2066 DUP2 MSTORE PUSH6 0x696C6C3A2023 PUSH1 0xD0 SHL PUSH1 0x20 DUP3 ADD MSTORE PUSH1 0x26 ADD SWAP1 JUMP JUMPDEST DUP6 PUSH2 0x2893 JUMP JUMPDEST SWAP9 SWAP8 POP POP POP POP POP POP POP POP JUMP JUMPDEST PUSH32 0x646174613A6170706C69636174696F6E2F6A736F6E3B6261736536342C000000 DUP2 MSTORE PUSH1 0x0 DUP3 MLOAD PUSH2 0x3064 DUP2 PUSH1 0x1D DUP6 ADD PUSH1 0x20 DUP8 ADD PUSH2 0x3266 JUMP JUMPDEST SWAP2 SWAP1 SWAP2 ADD PUSH1 0x1D ADD SWAP3 SWAP2 POP POP JUMP JUMPDEST PUSH32 0x646174613A696D6167652F7376672B786D6C3B6261736536342C000000000000 DUP2 MSTORE PUSH1 0x0 DUP3 MLOAD PUSH2 0x30A9 DUP2 PUSH1 0x1A DUP6 ADD PUSH1 0x20 DUP8 ADD PUSH2 0x3266 JUMP JUMPDEST SWAP2 SWAP1 SWAP2 ADD PUSH1 0x1A ADD SWAP3 SWAP2 POP POP JUMP JUMPDEST PUSH1 0x1 PUSH1 0x1 PUSH1 0xA0 SHL SUB DUP6 DUP2 AND DUP3 MSTORE DUP5 AND PUSH1 0x20 DUP3 ADD MSTORE PUSH1 0x40 DUP2 ADD DUP4 SWAP1 MSTORE PUSH1 0x80 PUSH1 0x60 DUP3 ADD DUP2 SWAP1 MSTORE PUSH1 0x0 SWAP1 PUSH2 0x13AA SWAP1 DUP4 ADD DUP5 PUSH2 0x2867 JUMP JUMPDEST PUSH1 0x20 DUP2 MSTORE PUSH1 0x0 PUSH2 0x86A PUSH1 0x20 DUP4 ADD DUP5 PUSH2 0x2867 JUMP JUMPDEST PUSH1 0x20 DUP1 DUP3 MSTORE PUSH1 0x32 SWAP1 DUP3 ADD MSTORE PUSH32 0x4552433732313A207472616E7366657220746F206E6F6E204552433732315265 PUSH1 0x40 DUP3 ADD MSTORE PUSH18 0x31B2B4BB32B91034B6B83632B6B2B73A32B9 PUSH1 0x71 SHL PUSH1 0x60 DUP3 ADD MSTORE PUSH1 0x80 ADD SWAP1 JUMP JUMPDEST PUSH1 0x20 DUP1 DUP3 MSTORE DUP2 DUP2 ADD MSTORE PUSH32 0x4F776E61626C653A2063616C6C6572206973206E6F7420746865206F776E6572 PUSH1 0x40 DUP3 ADD MSTORE PUSH1 0x60 ADD SWAP1 JUMP JUMPDEST PUSH1 0x20 DUP1 DUP3 MSTORE PUSH1 0x31 SWAP1 DUP3 ADD MSTORE PUSH32 0x4552433732313A207472616E736665722063616C6C6572206973206E6F74206F PUSH1 0x40 DUP3 ADD MSTORE PUSH17 0x1DDB995C881B9BDC88185C1C1C9BDD9959 PUSH1 0x7A SHL PUSH1 0x60 DUP3 ADD MSTORE PUSH1 0x80 ADD SWAP1 JUMP JUMPDEST PUSH1 0x40 MLOAD PUSH1 0x1F DUP3 ADD PUSH1 0x1F NOT AND DUP2 ADD PUSH1 0x1 PUSH1 0x1 PUSH1 0x40 SHL SUB DUP2 GT DUP3 DUP3 LT OR ISZERO PUSH2 0x31FC JUMPI PUSH2 0x31FC PUSH2 0x3355 JUMP JUMPDEST PUSH1 0x40 MSTORE SWAP2 SWAP1 POP JUMP JUMPDEST PUSH1 0x0 DUP3 NOT DUP3 GT ISZERO PUSH2 0x3217 JUMPI PUSH2 0x3217 PUSH2 0x3313 JUMP JUMPDEST POP ADD SWAP1 JUMP JUMPDEST PUSH1 0x0 DUP3 PUSH2 0x322B JUMPI PUSH2 0x322B PUSH2 0x3329 JUMP JUMPDEST POP DIV SWAP1 JUMP JUMPDEST PUSH1 0x0 DUP2 PUSH1 0x0 NOT DIV DUP4 GT DUP3 ISZERO ISZERO AND ISZERO PUSH2 0x324A JUMPI PUSH2 0x324A PUSH2 0x3313 JUMP JUMPDEST POP MUL SWAP1 JUMP JUMPDEST PUSH1 0x0 DUP3 DUP3 LT ISZERO PUSH2 0x3261 JUMPI PUSH2 0x3261 PUSH2 0x3313 JUMP JUMPDEST POP SUB SWAP1 JUMP JUMPDEST PUSH1 0x0 JUMPDEST DUP4 DUP2 LT ISZERO PUSH2 0x3281 JUMPI DUP2 DUP2 ADD MLOAD DUP4 DUP3 ADD MSTORE PUSH1 0x20 ADD PUSH2 0x3269 JUMP JUMPDEST DUP4 DUP2 GT ISZERO PUSH2 0xB12 JUMPI POP POP PUSH1 0x0 SWAP2 ADD MSTORE JUMP JUMPDEST PUSH1 0x0 DUP2 PUSH2 0x32A1 JUMPI PUSH2 0x32A1 PUSH2 0x3313 JUMP JUMPDEST POP PUSH1 0x0 NOT ADD SWAP1 JUMP JUMPDEST PUSH1 0x1 DUP2 DUP2 SHR SWAP1 DUP3 AND DUP1 PUSH2 0x32BD JUMPI PUSH1 0x7F DUP3 AND SWAP2 POP JUMPDEST PUSH1 0x20 DUP3 LT DUP2 EQ ISZERO PUSH2 0x32DE JUMPI PUSH4 0x4E487B71 PUSH1 0xE0 SHL PUSH1 0x0 MSTORE PUSH1 0x22 PUSH1 0x4 MSTORE PUSH1 0x24 PUSH1 0x0 REVERT JUMPDEST POP SWAP2 SWAP1 POP JUMP JUMPDEST PUSH1 0x0 PUSH1 0x0 NOT DUP3 EQ ISZERO PUSH2 0x32F8 JUMPI PUSH2 0x32F8 PUSH2 0x3313 JUMP JUMPDEST POP PUSH1 0x1 ADD SWAP1 JUMP JUMPDEST PUSH1 0x0 DUP3 PUSH2 0x330E JUMPI PUSH2 0x330E PUSH2 0x3329 JUMP JUMPDEST POP MOD SWAP1 JUMP JUMPDEST PUSH4 0x4E487B71 PUSH1 0xE0 SHL PUSH1 0x0 MSTORE PUSH1 0x11 PUSH1 0x4 MSTORE PUSH1 0x24 PUSH1 0x0 REVERT JUMPDEST PUSH4 0x4E487B71 PUSH1 0xE0 SHL PUSH1 0x0 MSTORE PUSH1 0x12 PUSH1 0x4 MSTORE PUSH1 0x24 PUSH1 0x0 REVERT JUMPDEST PUSH4 0x4E487B71 PUSH1 0xE0 SHL PUSH1 0x0 MSTORE PUSH1 0x32 PUSH1 0x4 MSTORE PUSH1 0x24 PUSH1 0x0 REVERT JUMPDEST PUSH4 0x4E487B71 PUSH1 0xE0 SHL PUSH1 0x0 MSTORE PUSH1 0x41 PUSH1 0x4 MSTORE PUSH1 0x24 PUSH1 0x0 REVERT JUMPDEST PUSH1 0x1 PUSH1 0x1 PUSH1 0xE0 SHL SUB NOT DUP2 AND DUP2 EQ PUSH2 0x7B0 JUMPI PUSH1 0x0 DUP1 REVERT INVALID EXTCODECOPY PUSH19 0x6563742069643D22736E616B652220636C6173 PUSH20 0x3D22736E616B652220783D223530302220793D22 CALLDATALOAD ADDRESS ADDRESS 0x22 KECCAK256 PUSH24 0x696474683D22323022206865696768743D223230222F3E20 EXTCODECOPY PUSH19 0x6563742069643D22666F6F642220636C617373 RETURNDATASIZE 0x22 PUSH7 0x6F6F642220783D 0x22 0x2D CALLDATALOAD ADDRESS 0x22 KECCAK256 PUSH26 0x3D222D3530222077696474683D22323022206865696768743D22 ORIGIN ADDRESS 0x22 0x2F RETURNDATACOPY KECCAK256 EXTCODECOPY PUSH20 0x637269707420747970653D22746578742F6A6176 PUSH2 0x7363 PUSH19 0x697074223E3C215B43444154415B7661722066 PUSH16 0x6F64436F6F7264732C4B45593D7B773A CODESIZE CALLDATACOPY 0x2C PUSH2 0x3A36 CALLDATALOAD 0x2C PUSH20 0x3A38332C643A36382C73706163653A33327D2C6D PUSH16 0x766553706565643D32302C73636F7265 RETURNDATASIZE ADDRESS 0x2C PUSH9 0x69676853636F726573 RETURNDATASIZE JUMPDEST 0x5D 0x2C PUSH20 0x6E616B65486561643D646F63756D656E742E6765 PUSH21 0x456C656D656E74427949642822736E616B6522292C PUSH20 0x76673D646F63756D656E742E676574456C656D65 PUSH15 0x747342795461674E616D6528227376 PUSH8 0x22295B305D2C7374 PUSH2 0x7274 SLOAD PUSH6 0x78743D646F63 PUSH22 0x6D656E742E676574456C656D656E7442794964282273 PUSH21 0x6172745465787422292C646972656374696F6E733D PUSH5 0x6F63756D65 PUSH15 0x742E676574456C656D656E74427949 PUSH5 0x2822646972 PUSH6 0x6374696F6E73 0x22 0x29 0x2C PUSH7 0x6F6F643D646F63 PUSH22 0x6D656E742E676574456C656D656E7442794964282266 PUSH16 0x6F6422292C73636F7265436F756E7465 PUSH19 0x3D646F63756D656E742E676574456C656D656E PUSH21 0x42794964282273636F7265436F756E74657222293B PUSH20 0x74617274546578742E74657874436F6E74656E74 RETURNDATASIZE 0x22 PUSH17 0x7265737320737061636520746F20737461 PUSH19 0x74222C646972656374696F6E732E7465787443 PUSH16 0x6E74656E743D227468656E20772C2061 0x2C KECCAK256 PUSH20 0x2C2064223B76617220736E616B65426F64793D5B 0x5D EXTCODESIZE PUSH10 0x735475726E696E673D21 BALANCE 0x2C PUSH10 0x7352756E6E696E673D21 BALANCE EXTCODESIZE PUSH23 0x61722063757272656E74446972656374696F6E3D227269 PUSH8 0x6874223B646F6375 PUSH14 0x656E742E646F63756D656E74456C PUSH6 0x6D656E742E61 PUSH5 0x644576656E PUSH21 0x4C697374656E657228226B6579646F776E222C653D RETURNDATACOPY PUSH28 0x68616E646C65496E7075742865297D2C2131293B7661722074696D65 PUSH19 0x46756E6374696F6E3D6E756C6C3B66756E6374 PUSH10 0x6F6E2073746172744761 PUSH14 0x6528297B6E756C6C3D3D74696D65 PUSH19 0x46756E6374696F6E26262874696D657246756E PUSH4 0x74696F6E RETURNDATASIZE PUSH20 0x6574496E74657276616C28676F2C3830292C7261 PUSH15 0x646F6D5F666F6F6428292C73746172 PUSH21 0x546578742E74657874436F6E74656E743D22222C64 PUSH10 0x72656374696F6E732E74 PUSH6 0x7874436F6E74 PUSH6 0x6E743D22222C PUSH20 0x636F7265436F756E7465722E74657874436F6E74 PUSH6 0x6E743D73636F PUSH19 0x652C697352756E6E696E673D2130297D66756E PUSH4 0x74696F6E KECCAK256 PUSH22 0x706461746553636F726528297B73636F72652B3D312C PUSH20 0x636F7265436F756E7465722E74657874436F6E74 PUSH6 0x6E743D73636F PUSH19 0x657D66756E6374696F6E2072616E646F6D5F66 PUSH16 0x6F6428297B76617220653D4D6174682E PUSH7 0x6C6F6F72283330 0x2A 0x4D PUSH2 0x7468 0x2E PUSH19 0x616E646F6D2829292C743D4D6174682E666C6F PUSH16 0x722833302A4D6174682E72616E646F6D 0x28 0x29 0x29 EXTCODESIZE PUSH6 0x2B3230303E37 CODESIZE ADDRESS 0x26 0x26 0x28 PUSH6 0x3D373830292C PUSH21 0x2B3230303E373830262628743D373830292C666F6F PUSH5 0x436F6F7264 PUSH20 0x3D5B32302A652B3230302C32302A742B3230305D 0x2C PUSH7 0x6F6F642E736574 COINBASE PUSH21 0x74726962757465282278222C32302A652B32303029 0x2C PUSH7 0x6F6F642E736574 COINBASE PUSH21 0x74726962757465282279222C32302A742B32303029 PUSH30 0x66756E6374696F6E207570646174654869676853636F726528297B766172 KECCAK256 PUSH6 0x3D6869676853 PUSH4 0x6F726573 0x2E PUSH13 0x656E6774683B69662873636F72 PUSH6 0x3C3D68696768 MSTORE8 PUSH4 0x6F726573 JUMPDEST PUSH6 0x2D315D7C7C68 PUSH10 0x676853636F7265732E69 PUSH15 0x636C756465732873636F7265292972 PUSH6 0x7475726E3B65 RETURNDATACOPY RETURNDATASIZE CALLDATALOAD 0x26 0x26 PUSH9 0x69676853636F726573 0x2E PUSH17 0x6F7028293B6C657420743D686967685363 PUSH16 0x7265732E66696E64496E64657828653D RETURNDATACOPY PUSH20 0x636F72653E65293B6869676853636F7265732E73 PUSH17 0x6C69636528742C302C73636F7265293B66 PUSH16 0x7228766172206E3D313B6E3C3D686967 PUSH9 0x53636F7265732E6C65 PUSH15 0x6774683B6E2B2B297B646F63756D65 PUSH15 0x742E676574456C656D656E74427949 PUSH5 0x2860687324 PUSH28 0x6E7D60292E74657874436F6E74656E743D6869676853636F7265735B PUSH15 0x2D315D7D7D66756E6374696F6E2072 PUSH6 0x73657428297B PUSH10 0x662831213D697352756E PUSH15 0x696E67297B646F63756D656E742E64 PUSH16 0x63756D656E74456C656D656E742E7265 PUSH14 0x6F76654576656E744C697374656E PUSH6 0x7228226B6579 PUSH5 0x6F776E222C PUSH7 0x756E6374696F6E 0x28 PUSH6 0x297B68616E64 PUSH13 0x65496E7075742865297D2C2131 0x29 0x2C PUSH4 0x6C656172 0x49 PUSH15 0x74657276616C2874696D657246756E PUSH4 0x74696F6E 0x29 0x2C PUSH21 0x696D657246756E6374696F6E3D6E756C6C2C697354 PUSH22 0x726E696E673D21313B666F722876617220653D303B65 EXTCODECOPY PUSH20 0x6E616B65426F64792E6C656E6774683B652B2B29 PUSH20 0x76672E72656D6F76654368696C6428736E616B65 TIMESTAMP PUSH16 0x64795B655D293B736E616B65426F6479 RETURNDATASIZE JUMPDEST 0x5D 0x2C PUSH20 0x636F7265436F756E7465722E74657874436F6E74 PUSH6 0x6E743D73636F PUSH19 0x653D302C666F6F642E73657441747472696275 PUSH21 0x65282278222C2D3530292C666F6F642E7365744174 PUSH21 0x726962757465282279222C2D3530292C7374617274 SLOAD PUSH6 0x78742E746578 PUSH21 0x436F6E74656E743D22707265737320737061636520 PUSH21 0x6F207374617274222C646972656374696F6E732E74 PUSH6 0x7874436F6E74 PUSH6 0x6E743D227468 PUSH6 0x6E20772C2061 0x2C KECCAK256 PUSH20 0x2C2064222C736E616B65486561642E7365744174 PUSH21 0x726962757465282278222C353030292C736E616B65 BASEFEE PUSH6 0x61642E736574 COINBASE PUSH21 0x74726962757465282279222C353030292C646F6375 PUSH14 0x656E742E646F63756D656E74456C PUSH6 0x6D656E742E61 PUSH5 0x644576656E PUSH21 0x4C697374656E657228226B6579646F776E222C6675 PUSH15 0x6374696F6E2865297B68616E646C65 0x49 PUSH15 0x7075742865297D2C2131297D7D6675 PUSH15 0x6374696F6E20617070656E64536E61 PUSH12 0x6528297B76617220653D736E PUSH2 0x6B65 BASEFEE PUSH6 0x61642E636C6F PUSH15 0x654E6F6465282130292C743D736E61 PUSH12 0x65426F64792E6C656E677468 EXTCODESIZE PUSH21 0x3E30262628652E7365744174747269627574652822 PUSH25 0x222C312A736E616B65426F64795B742D315D2E676574417474 PUSH19 0x69627574652822782229292C652E7365744174 PUSH21 0x726962757465282279222C312A736E616B65426F64 PUSH26 0x5B742D315D2E676574417474726962757465282279222929292C PUSH20 0x6E616B65426F64792E707573682865292C737667 0x2E PUSH2 0x7070 PUSH6 0x6E644368696C PUSH5 0x2865297D66 PUSH22 0x6E6374696F6E20757064617465536E616B6528297B66 PUSH16 0x722876617220653D312A736E616B6548 PUSH6 0x61642E676574 COINBASE PUSH21 0x7472696275746528227822292C743D312A736E616B PUSH6 0x486561642E67 PUSH6 0x744174747269 PUSH3 0x757465 0x28 0x22 PUSH26 0x22292C6E3D736E616B65426F64792E6C656E6774682D313B6E3E RETURNDATASIZE ADDRESS EXTCODESIZE PUSH15 0x2D2D29696628303D3D6E29736E616B PUSH6 0x426F64795B30 0x5D 0x2E PUSH20 0x6574417474726962757465282278222C65292C73 PUSH15 0x616B65426F64795B305D2E73657441 PUSH21 0x74726962757465282279222C74293B656C73657B76 PUSH2 0x7220 PUSH16 0x3D312A736E616B65426F64795B6E2D31 0x5D 0x2E PUSH8 0x6574417474726962 PUSH22 0x746528227822292C723D312A736E616B65426F64795B PUSH15 0x2D315D2E6765744174747269627574 PUSH6 0x28227922293B PUSH10 0x6628736E616B65426F64 PUSH26 0x5B6E5D2E736574417474726962757465282278222C6F292C736E PUSH2 0x6B65 TIMESTAMP PUSH16 0x64795B6E5D2E73657441747472696275 PUSH21 0x65282279222C72292C6F3D3D652626723D3D74297B PUSH10 0x7352756E6E696E673D21 BALANCE 0x2C PUSH22 0x70646174654869676853636F726528292C7265736574 0x28 0x29 EXTCODESIZE PUSH3 0x726561 PUSH12 0x7D7D69735475726E696E673D 0x21 BALANCE PUSH30 0x66756E6374696F6E20676F28297B76617220653D312A736E616B65486561 PUSH5 0x2E67657441 PUSH21 0x7472696275746528227822292C743D312A736E616B PUSH6 0x486561642E67 PUSH6 0x744174747269 PUSH3 0x757465 0x28 0x22 PUSH26 0x22293B696628757064617465536E616B6528292C313D3D697352 PUSH22 0x6E6E696E67297377697463682863757272656E744469 PUSH19 0x656374696F6E297B6361736522726967687422 GASPRICE PUSH20 0x6E616B65486561642E7365744174747269627574 PUSH6 0x282278222C65 0x2B RETURNDATASIZE PUSH14 0x6F76655370656564293B62726561 PUSH12 0x3B63617365226C656674223A PUSH20 0x6E616B65486561642E7365744174747269627574 PUSH6 0x282278222C65 0x2D RETURNDATASIZE PUSH14 0x6F76655370656564293B62726561 PUSH12 0x3B63617365227570223A736E PUSH2 0x6B65 BASEFEE PUSH6 0x61642E736574 COINBASE PUSH21 0x74726962757465282279222C742D3D6D6F76655370 PUSH6 0x6564293B6272 PUSH6 0x616B3B636173 PUSH6 0x22646F776E22 GASPRICE PUSH20 0x6E616B65486561642E7365744174747269627574 PUSH6 0x282279222C74 0x2B RETURNDATASIZE PUSH14 0x6F76655370656564297D28653C3D BALANCE CODESIZE ADDRESS PUSH29 0x7C653E3D3830307C7C743C3D3138307C7C743E3D383030292626286973 MSTORE PUSH22 0x6E6E696E673D21312C7570646174654869676853636F PUSH19 0x6528292C72657365742829292C653D3D666F6F PUSH5 0x436F6F7264 PUSH20 0x5B305D2626743D3D666F6F64436F6F7264735B31 0x5D 0x26 0x26 0x28 PUSH19 0x616E646F6D5F666F6F6428292C757064617465 MSTORE8 PUSH4 0x6F726528 0x29 0x2C PUSH2 0x7070 PUSH6 0x6E64536E616B PUSH6 0x2829297D6675 PUSH15 0x6374696F6E2068616E646C65496E70 PUSH22 0x742865297B696628652E6B6579436F64653D3D4B4559 0x2E PUSH20 0x706163652626737461727447616D6528292C3121 RETURNDATASIZE PUSH10 0x735475726E696E672973 PUSH24 0x697463682869735475726E696E673D21302C652E6B657943 PUSH16 0x6465297B63617365204B45592E773A22 PUSH5 0x6F776E2221 RETURNDATASIZE PUSH4 0x75727265 PUSH15 0x74446972656374696F6E2626286375 PUSH19 0x72656E74446972656374696F6E3D2275702229 EXTCODESIZE PUSH3 0x726561 PUSH12 0x3B63617365204B45592E733A 0x22 PUSH22 0x7022213D63757272656E74446972656374696F6E2626 0x28 PUSH4 0x75727265 PUSH15 0x74446972656374696F6E3D22646F77 PUSH15 0x22293B627265616B3B63617365204B GASLIMIT MSIZE 0x2E PUSH2 0x3A22 PUSH19 0x6967687422213D63757272656E744469726563 PUSH21 0x696F6E26262863757272656E74446972656374696F PUSH15 0x3D226C65667422293B627265616B3B PUSH4 0x61736520 0x4B GASLIMIT MSIZE 0x2E PUSH5 0x3A226C6566 PUSH21 0x22213D63757272656E74446972656374696F6E2626 0x28 PUSH4 0x75727265 PUSH15 0x74446972656374696F6E3D22726967 PUSH9 0x7422297D7D5D5D3E3C 0x2F PUSH20 0x63726970743E203C2F7376673E3C67207374726F PUSH12 0x653D222330303022203E203C PUSH19 0x65637420636C6173733D226261636B67726F75 PUSH15 0x642220783D22302220793D22302220 PUSH19 0x783D223135222077696474683D223130303022 KECCAK256 PUSH9 0x65696768743D223130 ADDRESS ADDRESS 0x22 0x2F RETURNDATACOPY KECCAK256 EXTCODECOPY PUSH19 0x65637420636C6173733D226D61702220783D22 ORIGIN ADDRESS ADDRESS 0x22 KECCAK256 PUSH26 0x3D22323030222077696474683D2236303022206865696768743D 0x22 CALLDATASIZE ADDRESS ADDRESS 0x22 0x2F RETURNDATACOPY KECCAK256 EXTCODECOPY 0x2F PUSH8 0x3E203C7465787420 PUSH26 0x3D223132302220783D223530252220746578742D616E63686F72 RETURNDATASIZE 0x22 PUSH14 0x6964646C652220636C6173733D22 PUSH21 0x69746C65223E736E616B653C2F746578743E203C74 PUSH6 0x78742069643D 0x22 PUSH20 0x74617274546578742220783D223530252220793D 0x22 CALLDATASIZE ADDRESS ADDRESS 0x22 KECCAK256 PUSH21 0x6578742D616E63686F723D226D6964646C65222063 PUSH13 0x6173733D22737461727422203E EXTCODECOPY 0x2F PUSH21 0x6578743E203C746578742069643D22646972656374 PUSH10 0x6F6E732220783D223530 0x25 0x22 KECCAK256 PUSH26 0x3D223635302220746578742D616E63686F723D226D6964646C65 0x22 KECCAK256 PUSH4 0x6C617373 RETURNDATASIZE 0x22 PUSH5 0x6972656374 PUSH10 0x6F6E7322203E3C2F7465 PUSH25 0x743E203C7465787420783D223930302220793D223235302220 PUSH21 0x6578742D616E63686F723D226D6964646C65222063 PUSH13 0x6173733D2273636F726522203E KECCAK256 MSTORE8 PUSH4 0x6F72653A EXTCODECOPY 0x2F PUSH21 0x6578743E203C746578742069643D2273636F726543 PUSH16 0x756E7465722220783D22383330222079 RETURNDATASIZE 0x22 CALLER ADDRESS ADDRESS 0x22 KECCAK256 PUSH4 0x6C617373 RETURNDATASIZE 0x22 PUSH20 0x636F726522203E3C2F746578743E203C74657874 KECCAK256 KECCAK256 PUSH25 0x3D223930302220793D223535302220746578742D616E63686F PUSH19 0x3D226D6964646C652220636C6173733D226869 PUSH8 0x6853636F72652220 RETURNDATACOPY KECCAK256 PUSH9 0x6967682073636F7265 PUSH20 0x3A3C2F746578743E203C746578742069643D2268 PUSH20 0x312220783D223833302220793D22363030222063 PUSH13 0x6173733D2273636F726522203E EXTCODECOPY 0x2F PUSH21 0x6578743E203C746578742069643D22687332222078 RETURNDATASIZE 0x22 CODESIZE CALLER ADDRESS 0x22 KECCAK256 PUSH26 0x3D223635302220636C6173733D2273636F726522203E3C2F7465 PUSH25 0x743E203C746578742069643D226873332220783D2238333022 KECCAK256 PUSH26 0x3D223730302220636C6173733D2273636F726522203E3C2F7465 PUSH25 0x743E203C746578742069643D226873342220783D2238333022 KECCAK256 PUSH26 0x3D223735302220636C6173733D2273636F726522203E3C2F7465 PUSH25 0x743E203C746578742069643D226873352220783D2238333022 KECCAK256 PUSH26 0x3D223830302220636C6173733D2273636F726522203E3C2F7465 PUSH25 0x743E4142434445464748494A4B4C4D4E4F5051525354555657 PC MSIZE GAS PUSH2 0x6263 PUSH5 0x6566676869 PUSH11 0x6B6C6D6E6F707172737475 PUSH23 0x7778797A303132333435363738392B2F3C73766720786D PUSH13 0x6E733D22687474703A2F2F7777 PUSH24 0x2E77332E6F72672F323030302F7376672220786D6C6E733A PUSH25 0x6C696E6B3D22687474703A2F2F7777772E77332E6F72672F31 CODECOPY CODECOPY CODECOPY 0x2F PUSH25 0x6C696E6B222076696577426F783D2230203020313030302031 ADDRESS ADDRESS ADDRESS 0x22 RETURNDATACOPY LOG2 PUSH5 0x6970667358 0x22 SLT KECCAK256 0x1E MOD PUSH9 0x634FDE3FCCA4FD28E1 0x4F EQ PUSH25 0xD2BEDD454275DC3FC71DAC23C69A196F9264736F6C63430008 SMOD STOP CALLER "
		},
		"gasEstimates": {
			"creation": {
				"codeDepositCost": "3601600",
				"executionCost": "infinite",
				"totalCost": "infinite"
			},
			"external": {
				"CalcOwnerMultiplier()": "2340",
				"approve(address,uint256)": "infinite",
				"balanceOf(address)": "2722",
				"buySnake(uint256[])": "infinite",
				"calculator()": "2381",
				"frontEnd()": "infinite",
				"getApproved(uint256)": "4799",
				"getFinalPrice(uint256,address)": "infinite",
				"isApprovedForAll(address,address)": "infinite",
				"maxSupply()": "2361",
				"name()": "infinite",
				"owner()": "2369",
				"ownerOf(uint256)": "2667",
				"price()": "2384",
				"renounceOwnership()": "28317",
				"royaltyInfo(uint256,uint256)": "5145",
				"safeTransferFrom(address,address,uint256)": "infinite",
				"safeTransferFrom(address,address,uint256,bytes)": "infinite",
				"setApprovalForAll(address,bool)": "26797",
				"setDiscount(uint256)": "24620",
				"setFrontEnd(string)": "infinite",
				"supportsInterface(bytes4)": "infinite",
				"symbol()": "infinite",
				"tokenURI(uint256)": "infinite",
				"totalSupply()": "2442",
				"transferFrom(address,address,uint256)": "infinite",
				"transferOwnership(address)": "28511",
				"withdrawFunds()": "infinite"
			},
			"internal": {
				"_burn(uint256)": "infinite"
			}
		},
		"methodIdentifiers": {
			"CalcOwnerMultiplier()": "913e74ba",
			"approve(address,uint256)": "095ea7b3",
			"balanceOf(address)": "70a08231",
			"buySnake(uint256[])": "c319a62e",
			"calculator()": "ce3e39c0",
			"frontEnd()": "e7514c9a",
			"getApproved(uint256)": "081812fc",
			"getFinalPrice(uint256,address)": "295e328e",
			"isApprovedForAll(address,address)": "e985e9c5",
			"maxSupply()": "d5abeb01",
			"name()": "06fdde03",
			"owner()": "8da5cb5b",
			"ownerOf(uint256)": "6352211e",
			"price()": "a035b1fe",
			"renounceOwnership()": "715018a6",
			"royaltyInfo(uint256,uint256)": "2a55205a",
			"safeTransferFrom(address,address,uint256)": "42842e0e",
			"safeTransferFrom(address,address,uint256,bytes)": "b88d4fde",
			"setApprovalForAll(address,bool)": "a22cb465",
			"setDiscount(uint256)": "dabd2719",
			"setFrontEnd(string)": "5593152c",
			"supportsInterface(bytes4)": "01ffc9a7",
			"symbol()": "95d89b41",
			"tokenURI(uint256)": "c87b56dd",
			"totalSupply()": "18160ddd",
			"transferFrom(address,address,uint256)": "23b872dd",
			"transferOwnership(address)": "f2fde38b",
			"withdrawFunds()": "24600fc3"
		}
	},
	"abi": [
		{
			"inputs": [],
			"stateMutability": "nonpayable",
			"type": "constructor"
		},
		{
			"anonymous": false,
			"inputs": [
				{
					"indexed": true,
					"internalType": "address",
					"name": "owner",
					"type": "address"
				},
				{
					"indexed": true,
					"internalType": "address",
					"name": "approved",
					"type": "address"
				},
				{
					"indexed": true,
					"internalType": "uint256",
					"name": "tokenId",
					"type": "uint256"
				}
			],
			"name": "Approval",
			"type": "event"
		},
		{
			"anonymous": false,
			"inputs": [
				{
					"indexed": true,
					"internalType": "address",
					"name": "owner",
					"type": "address"
				},
				{
					"indexed": true,
					"internalType": "address",
					"name": "operator",
					"type": "address"
				},
				{
					"indexed": false,
					"internalType": "bool",
					"name": "approved",
					"type": "bool"
				}
			],
			"name": "ApprovalForAll",
			"type": "event"
		},
		{
			"anonymous": false,
			"inputs": [
				{
					"indexed": true,
					"internalType": "address",
					"name": "previousOwner",
					"type": "address"
				},
				{
					"indexed": true,
					"internalType": "address",
					"name": "newOwner",
					"type": "address"
				}
			],
			"name": "OwnershipTransferred",
			"type": "event"
		},
		{
			"anonymous": false,
			"inputs": [
				{
					"indexed": false,
					"internalType": "address",
					"name": "purchaser",
					"type": "address"
				},
				{
					"indexed": false,
					"internalType": "uint256",
					"name": "mints",
					"type": "uint256"
				}
			],
			"name": "TokenMint",
			"type": "event"
		},
		{
			"anonymous": false,
			"inputs": [
				{
					"indexed": true,
					"internalType": "address",
					"name": "from",
					"type": "address"
				},
				{
					"indexed": true,
					"internalType": "address",
					"name": "to",
					"type": "address"
				},
				{
					"indexed": true,
					"internalType": "uint256",
					"name": "tokenId",
					"type": "uint256"
				}
			],
			"name": "Transfer",
			"type": "event"
		},
		{
			"inputs": [],
			"name": "CalcOwnerMultiplier",
			"outputs": [
				{
					"internalType": "uint256",
					"name": "",
					"type": "uint256"
				}
			],
			"stateMutability": "view",
			"type": "function"
		},
		{
			"inputs": [
				{
					"internalType": "address",
					"name": "to",
					"type": "address"
				},
				{
					"internalType": "uint256",
					"name": "tokenId",
					"type": "uint256"
				}
			],
			"name": "approve",
			"outputs": [],
			"stateMutability": "nonpayable",
			"type": "function"
		},
		{
			"inputs": [
				{
					"internalType": "address",
					"name": "owner",
					"type": "address"
				}
			],
			"name": "balanceOf",
			"outputs": [
				{
					"internalType": "uint256",
					"name": "",
					"type": "uint256"
				}
			],
			"stateMutability": "view",
			"type": "function"
		},
		{
			"inputs": [
				{
					"internalType": "uint256[]",
					"name": "schemeIds",
					"type": "uint256[]"
				}
			],
			"name": "buySnake",
			"outputs": [],
			"stateMutability": "payable",
			"type": "function"
		},
		{
			"inputs": [],
			"name": "calculator",
			"outputs": [
				{
					"internalType": "contract ICalculator",
					"name": "",
					"type": "address"
				}
			],
			"stateMutability": "view",
			"type": "function"
		},
		{
			"inputs": [],
			"name": "frontEnd",
			"outputs": [
				{
					"internalType": "string",
					"name": "",
					"type": "string"
				}
			],
			"stateMutability": "view",
			"type": "function"
		},
		{
			"inputs": [
				{
					"internalType": "uint256",
					"name": "tokenId",
					"type": "uint256"
				}
			],
			"name": "getApproved",
			"outputs": [
				{
					"internalType": "address",
					"name": "",
					"type": "address"
				}
			],
			"stateMutability": "view",
			"type": "function"
		},
		{
			"inputs": [
				{
					"internalType": "uint256",
					"name": "amount",
					"type": "uint256"
				},
				{
					"internalType": "address",
					"name": "user",
					"type": "address"
				}
			],
			"name": "getFinalPrice",
			"outputs": [
				{
					"internalType": "uint256",
					"name": "",
					"type": "uint256"
				}
			],
			"stateMutability": "view",
			"type": "function"
		},
		{
			"inputs": [
				{
					"internalType": "address",
					"name": "owner",
					"type": "address"
				},
				{
					"internalType": "address",
					"name": "operator",
					"type": "address"
				}
			],
			"name": "isApprovedForAll",
			"outputs": [
				{
					"internalType": "bool",
					"name": "",
					"type": "bool"
				}
			],
			"stateMutability": "view",
			"type": "function"
		},
		{
			"inputs": [],
			"name": "maxSupply",
			"outputs": [
				{
					"internalType": "uint256",
					"name": "",
					"type": "uint256"
				}
			],
			"stateMutability": "view",
			"type": "function"
		},
		{
			"inputs": [],
			"name": "name",
			"outputs": [
				{
					"internalType": "string",
					"name": "",
					"type": "string"
				}
			],
			"stateMutability": "view",
			"type": "function"
		},
		{
			"inputs": [],
			"name": "owner",
			"outputs": [
				{
					"internalType": "address",
					"name": "",
					"type": "address"
				}
			],
			"stateMutability": "view",
			"type": "function"
		},
		{
			"inputs": [
				{
					"internalType": "uint256",
					"name": "tokenId",
					"type": "uint256"
				}
			],
			"name": "ownerOf",
			"outputs": [
				{
					"internalType": "address",
					"name": "",
					"type": "address"
				}
			],
			"stateMutability": "view",
			"type": "function"
		},
		{
			"inputs": [],
			"name": "price",
			"outputs": [
				{
					"internalType": "uint256",
					"name": "",
					"type": "uint256"
				}
			],
			"stateMutability": "view",
			"type": "function"
		},
		{
			"inputs": [],
			"name": "renounceOwnership",
			"outputs": [],
			"stateMutability": "nonpayable",
			"type": "function"
		},
		{
			"inputs": [
				{
					"internalType": "uint256",
					"name": "_tokenId",
					"type": "uint256"
				},
				{
					"internalType": "uint256",
					"name": "_salePrice",
					"type": "uint256"
				}
			],
			"name": "royaltyInfo",
			"outputs": [
				{
					"internalType": "address",
					"name": "",
					"type": "address"
				},
				{
					"internalType": "uint256",
					"name": "",
					"type": "uint256"
				}
			],
			"stateMutability": "view",
			"type": "function"
		},
		{
			"inputs": [
				{
					"internalType": "address",
					"name": "from",
					"type": "address"
				},
				{
					"internalType": "address",
					"name": "to",
					"type": "address"
				},
				{
					"internalType": "uint256",
					"name": "tokenId",
					"type": "uint256"
				}
			],
			"name": "safeTransferFrom",
			"outputs": [],
			"stateMutability": "nonpayable",
			"type": "function"
		},
		{
			"inputs": [
				{
					"internalType": "address",
					"name": "from",
					"type": "address"
				},
				{
					"internalType": "address",
					"name": "to",
					"type": "address"
				},
				{
					"internalType": "uint256",
					"name": "tokenId",
					"type": "uint256"
				},
				{
					"internalType": "bytes",
					"name": "_data",
					"type": "bytes"
				}
			],
			"name": "safeTransferFrom",
			"outputs": [],
			"stateMutability": "nonpayable",
			"type": "function"
		},
		{
			"inputs": [
				{
					"internalType": "address",
					"name": "operator",
					"type": "address"
				},
				{
					"internalType": "bool",
					"name": "approved",
					"type": "bool"
				}
			],
			"name": "setApprovalForAll",
			"outputs": [],
			"stateMutability": "nonpayable",
			"type": "function"
		},
		{
			"inputs": [
				{
					"internalType": "uint256",
					"name": "multiplier",
					"type": "uint256"
				}
			],
			"name": "setDiscount",
			"outputs": [],
			"stateMutability": "nonpayable",
			"type": "function"
		},
		{
			"inputs": [
				{
					"internalType": "string",
					"name": "_frontEnd",
					"type": "string"
				}
			],
			"name": "setFrontEnd",
			"outputs": [],
			"stateMutability": "nonpayable",
			"type": "function"
		},
		{
			"inputs": [
				{
					"internalType": "bytes4",
					"name": "interfaceId",
					"type": "bytes4"
				}
			],
			"name": "supportsInterface",
			"outputs": [
				{
					"internalType": "bool",
					"name": "",
					"type": "bool"
				}
			],
			"stateMutability": "view",
			"type": "function"
		},
		{
			"inputs": [],
			"name": "symbol",
			"outputs": [
				{
					"internalType": "string",
					"name": "",
					"type": "string"
				}
			],
			"stateMutability": "view",
			"type": "function"
		},
		{
			"inputs": [
				{
					"internalType": "uint256",
					"name": "id",
					"type": "uint256"
				}
			],
			"name": "tokenURI",
			"outputs": [
				{
					"internalType": "string",
					"name": "",
					"type": "string"
				}
			],
			"stateMutability": "view",
			"type": "function"
		},
		{
			"inputs": [],
			"name": "totalSupply",
			"outputs": [
				{
					"internalType": "uint256",
					"name": "",
					"type": "uint256"
				}
			],
			"stateMutability": "view",
			"type": "function"
		},
		{
			"inputs": [
				{
					"internalType": "address",
					"name": "from",
					"type": "address"
				},
				{
					"internalType": "address",
					"name": "to",
					"type": "address"
				},
				{
					"internalType": "uint256",
					"name": "tokenId",
					"type": "uint256"
				}
			],
			"name": "transferFrom",
			"outputs": [],
			"stateMutability": "nonpayable",
			"type": "function"
		},
		{
			"inputs": [
				{
					"internalType": "address",
					"name": "newOwner",
					"type": "address"
				}
			],
			"name": "transferOwnership",
			"outputs": [],
			"stateMutability": "nonpayable",
			"type": "function"
		},
		{
			"inputs": [],
			"name": "withdrawFunds",
			"outputs": [],
			"stateMutability": "nonpayable",
			"type": "function"
		}
	]
}