{
  "contractName": "Snake",
  "abi": [
    {
      "inputs": [],
      "stateMutability": "nonpayable",
      "type": "constructor"
    },
    {
      "anonymous": false,
      "inputs": [
        {
          "indexed": true,
          "internalType": "address",
          "name": "owner",
          "type": "address"
        },
        {
          "indexed": true,
          "internalType": "address",
          "name": "approved",
          "type": "address"
        },
        {
          "indexed": true,
          "internalType": "uint256",
          "name": "tokenId",
          "type": "uint256"
        }
      ],
      "name": "Approval",
      "type": "event"
    },
    {
      "anonymous": false,
      "inputs": [
        {
          "indexed": true,
          "internalType": "address",
          "name": "owner",
          "type": "address"
        },
        {
          "indexed": true,
          "internalType": "address",
          "name": "operator",
          "type": "address"
        },
        {
          "indexed": false,
          "internalType": "bool",
          "name": "approved",
          "type": "bool"
        }
      ],
      "name": "ApprovalForAll",
      "type": "event"
    },
    {
      "anonymous": false,
      "inputs": [
        {
          "indexed": true,
          "internalType": "address",
          "name": "previousOwner",
          "type": "address"
        },
        {
          "indexed": true,
          "internalType": "address",
          "name": "newOwner",
          "type": "address"
        }
      ],
      "name": "OwnershipTransferred",
      "type": "event"
    },
    {
      "anonymous": false,
      "inputs": [
        {
          "indexed": false,
          "internalType": "address",
          "name": "purchaser",
          "type": "address"
        }
      ],
      "name": "TokenMint",
      "type": "event"
    },
    {
      "anonymous": false,
      "inputs": [
        {
          "indexed": true,
          "internalType": "address",
          "name": "from",
          "type": "address"
        },
        {
          "indexed": true,
          "internalType": "address",
          "name": "to",
          "type": "address"
        },
        {
          "indexed": true,
          "internalType": "uint256",
          "name": "tokenId",
          "type": "uint256"
        }
      ],
      "name": "Transfer",
      "type": "event"
    },
    {
      "inputs": [
        {
          "internalType": "address",
          "name": "to",
          "type": "address"
        },
        {
          "internalType": "uint256",
          "name": "tokenId",
          "type": "uint256"
        }
      ],
      "name": "approve",
      "outputs": [],
      "stateMutability": "nonpayable",
      "type": "function"
    },
    {
      "inputs": [
        {
          "internalType": "address",
          "name": "owner",
          "type": "address"
        }
      ],
      "name": "balanceOf",
      "outputs": [
        {
          "internalType": "uint256",
          "name": "",
          "type": "uint256"
        }
      ],
      "stateMutability": "view",
      "type": "function",
      "constant": true
    },
    {
      "inputs": [],
      "name": "calculator",
      "outputs": [
        {
          "internalType": "contract ICalculator",
          "name": "",
          "type": "address"
        }
      ],
      "stateMutability": "view",
      "type": "function",
      "constant": true
    },
    {
      "inputs": [],
      "name": "frontEnd",
      "outputs": [
        {
          "internalType": "string",
          "name": "",
          "type": "string"
        }
      ],
      "stateMutability": "view",
      "type": "function",
      "constant": true
    },
    {
      "inputs": [
        {
          "internalType": "uint256",
          "name": "tokenId",
          "type": "uint256"
        }
      ],
      "name": "getApproved",
      "outputs": [
        {
          "internalType": "address",
          "name": "",
          "type": "address"
        }
      ],
      "stateMutability": "view",
      "type": "function",
      "constant": true
    },
    {
      "inputs": [
        {
          "internalType": "address",
          "name": "owner",
          "type": "address"
        },
        {
          "internalType": "address",
          "name": "operator",
          "type": "address"
        }
      ],
      "name": "isApprovedForAll",
      "outputs": [
        {
          "internalType": "bool",
          "name": "",
          "type": "bool"
        }
      ],
      "stateMutability": "view",
      "type": "function",
      "constant": true
    },
    {
      "inputs": [],
      "name": "maxSupply",
      "outputs": [
        {
          "internalType": "uint256",
          "name": "",
          "type": "uint256"
        }
      ],
      "stateMutability": "view",
      "type": "function",
      "constant": true
    },
    {
      "inputs": [],
      "name": "name",
      "outputs": [
        {
          "internalType": "string",
          "name": "",
          "type": "string"
        }
      ],
      "stateMutability": "view",
      "type": "function",
      "constant": true
    },
    {
      "inputs": [],
      "name": "owner",
      "outputs": [
        {
          "internalType": "address",
          "name": "",
          "type": "address"
        }
      ],
      "stateMutability": "view",
      "type": "function",
      "constant": true
    },
    {
      "inputs": [
        {
          "internalType": "uint256",
          "name": "tokenId",
          "type": "uint256"
        }
      ],
      "name": "ownerOf",
      "outputs": [
        {
          "internalType": "address",
          "name": "",
          "type": "address"
        }
      ],
      "stateMutability": "view",
      "type": "function",
      "constant": true
    },
    {
      "inputs": [],
      "name": "price",
      "outputs": [
        {
          "internalType": "uint256",
          "name": "",
          "type": "uint256"
        }
      ],
      "stateMutability": "view",
      "type": "function",
      "constant": true
    },
    {
      "inputs": [],
      "name": "renounceOwnership",
      "outputs": [],
      "stateMutability": "nonpayable",
      "type": "function"
    },
    {
      "inputs": [
        {
          "internalType": "uint256",
          "name": "_tokenId",
          "type": "uint256"
        },
        {
          "internalType": "uint256",
          "name": "_salePrice",
          "type": "uint256"
        }
      ],
      "name": "royaltyInfo",
      "outputs": [
        {
          "internalType": "address",
          "name": "",
          "type": "address"
        },
        {
          "internalType": "uint256",
          "name": "",
          "type": "uint256"
        }
      ],
      "stateMutability": "view",
      "type": "function",
      "constant": true
    },
    {
      "inputs": [],
      "name": "royaltyPercentage",
      "outputs": [
        {
          "internalType": "uint96",
          "name": "",
          "type": "uint96"
        }
      ],
      "stateMutability": "view",
      "type": "function",
      "constant": true
    },
    {
      "inputs": [
        {
          "internalType": "address",
          "name": "from",
          "type": "address"
        },
        {
          "internalType": "address",
          "name": "to",
          "type": "address"
        },
        {
          "internalType": "uint256",
          "name": "tokenId",
          "type": "uint256"
        }
      ],
      "name": "safeTransferFrom",
      "outputs": [],
      "stateMutability": "nonpayable",
      "type": "function"
    },
    {
      "inputs": [
        {
          "internalType": "address",
          "name": "from",
          "type": "address"
        },
        {
          "internalType": "address",
          "name": "to",
          "type": "address"
        },
        {
          "internalType": "uint256",
          "name": "tokenId",
          "type": "uint256"
        },
        {
          "internalType": "bytes",
          "name": "_data",
          "type": "bytes"
        }
      ],
      "name": "safeTransferFrom",
      "outputs": [],
      "stateMutability": "nonpayable",
      "type": "function"
    },
    {
      "inputs": [
        {
          "internalType": "address",
          "name": "operator",
          "type": "address"
        },
        {
          "internalType": "bool",
          "name": "approved",
          "type": "bool"
        }
      ],
      "name": "setApprovalForAll",
      "outputs": [],
      "stateMutability": "nonpayable",
      "type": "function"
    },
    {
      "inputs": [],
      "name": "symbol",
      "outputs": [
        {
          "internalType": "string",
          "name": "",
          "type": "string"
        }
      ],
      "stateMutability": "view",
      "type": "function",
      "constant": true
    },
    {
      "inputs": [
        {
          "internalType": "address",
          "name": "from",
          "type": "address"
        },
        {
          "internalType": "address",
          "name": "to",
          "type": "address"
        },
        {
          "internalType": "uint256",
          "name": "tokenId",
          "type": "uint256"
        }
      ],
      "name": "transferFrom",
      "outputs": [],
      "stateMutability": "nonpayable",
      "type": "function"
    },
    {
      "inputs": [
        {
          "internalType": "address",
          "name": "newOwner",
          "type": "address"
        }
      ],
      "name": "transferOwnership",
      "outputs": [],
      "stateMutability": "nonpayable",
      "type": "function"
    },
    {
      "inputs": [
        {
          "internalType": "uint256[]",
          "name": "schemeIds",
          "type": "uint256[]"
        }
      ],
      "name": "buySnake",
      "outputs": [],
      "stateMutability": "payable",
      "type": "function",
      "payable": true
    },
    {
      "inputs": [],
      "name": "totalSupply",
      "outputs": [
        {
          "internalType": "uint256",
          "name": "supply",
          "type": "uint256"
        }
      ],
      "stateMutability": "view",
      "type": "function",
      "constant": true
    },
    {
      "inputs": [
        {
          "internalType": "uint256",
          "name": "amount",
          "type": "uint256"
        },
        {
          "internalType": "address",
          "name": "user",
          "type": "address"
        }
      ],
      "name": "getFinalPrice",
      "outputs": [
        {
          "internalType": "uint256",
          "name": "",
          "type": "uint256"
        }
      ],
      "stateMutability": "view",
      "type": "function",
      "constant": true
    },
    {
      "inputs": [
        {
          "internalType": "uint256",
          "name": "id",
          "type": "uint256"
        }
      ],
      "name": "tokenURI",
      "outputs": [
        {
          "internalType": "string",
          "name": "",
          "type": "string"
        }
      ],
      "stateMutability": "view",
      "type": "function",
      "constant": true
    },
    {
      "inputs": [],
      "name": "withdrawFunds",
      "outputs": [],
      "stateMutability": "nonpayable",
      "type": "function"
    },
    {
      "inputs": [
        {
          "internalType": "string",
          "name": "_frontEnd",
          "type": "string"
        }
      ],
      "name": "setFrontEnd",
      "outputs": [],
      "stateMutability": "nonpayable",
      "type": "function"
    },
    {
      "inputs": [
        {
          "internalType": "bytes4",
          "name": "interfaceId",
          "type": "bytes4"
        }
      ],
      "name": "supportsInterface",
      "outputs": [
        {
          "internalType": "bool",
          "name": "",
          "type": "bool"
        }
      ],
      "stateMutability": "view",
      "type": "function",
      "constant": true
    }
  ],
  "bytecode": "0x66b1a2bc2ec50000600a55612710600b5560c0604052600360808190526215109160ea1b60a09081526200003791600c919062000d4f565b50600d80546001600160a01b0319167393d447d47743e2d4bcaf8bf18e8562d89692cfde1790556050600e55600f80546001600160601b03191660fa1790553480156200008357600080fd5b5060405180604001604052806005815260200164536e616b6560d81b81525060405180604001604052806005815260200164534e414b4560d81b8152508160009080519060200190620000d892919062000d4f565b508051620000ee90600190602084019062000d4f565b5050506200010b6200010562000bf460201b60201c565b62000bf8565b620001183060fa62000c4a565b6040805161016081018252600661012082018181526561363132646560d01b610140840181905290835283518085018552828152602081810183905280850191909152845180860186528381528082018390528486015284518086018652838152808201839052606085015284518086018652838152808201929092526080840191909152835180850185528281526504542444546360d41b8183015260a0840152835180850185528281526566666535393960d01b8183015260c0840152835180850185528281526503237414536360d41b8183015260e084015283518085019094529083526523231aa219a160d11b838201526101008201929092526001600052601082528051805191927f8c6065603763fec3f5742441d3833f3f43b982453612d76adb39a885e3006b5f9262000256928492019062000d4f565b50602082810151805162000271926001850192019062000d4f565b50604082015180516200028f91600284019160209091019062000d4f565b5060608201518051620002ad91600384019160209091019062000d4f565b5060808201518051620002cb91600484019160209091019062000d4f565b5060a08201518051620002e991600584019160209091019062000d4f565b5060c082015180516200030791600684019160209091019062000d4f565b5060e082015180516200032591600784019160209091019062000d4f565b5061010082015180516200034491600884019160209091019062000d4f565b5050604080516101608101825260066101208201818152650c8c8dd8ce5960d21b61014084018190529083528351808501855282815260208181018390528085019190915284518086018652838152808201839052848601528451808601865283815280820183905260608501528451808601865283815280820192909252608084019190915283518085018552828152653332b31cb2b360d11b8183015260a08401528351808501855282815265189bb199b11960d11b8183015260c0840152835180850185528281526566653664373360d01b8183015260e084015283518085019094529083526566666362373760d01b83820152610100820192909252600260005260108252805180519193507f853b2fefe141400fef543280f93d98bd49996069f632d0d20236afeeed8e46a292620004879284929091019062000d4f565b506020828101518051620004a2926001850192019062000d4f565b5060408201518051620004c091600284019160209091019062000d4f565b5060608201518051620004de91600384019160209091019062000d4f565b5060808201518051620004fc91600484019160209091019062000d4f565b5060a082015180516200051a91600584019160209091019062000d4f565b5060c082015180516200053891600684019160209091019062000d4f565b5060e082015180516200055691600784019160209091019062000d4f565b5061010082015180516200057591600884019160209091019062000d4f565b50506040805161016081018252600661012082018181526532633665343960d01b6101408401528252825180840184528181526534633935366360d01b6020828101829052808501929092528451808601865283815280830182905284860152845180860186528381528083018290526060850152845180860186528381528083018290526080850152845180860186528381526566666339623960d01b81840181905260a0860191909152855180870187528481526566656665653360d01b8185015260c0860152855180870187528481528084019190915260e0850152845180860190955291845283810191909152610100820192909252600360005260108252805180519193507fb3edd0d534d647cffdae9f1294f11ad21f3fcf2814bea44c92bbb8d384a57d9e92620006b29284929091019062000d4f565b506020828101518051620006cd926001850192019062000d4f565b5060408201518051620006eb91600284019160209091019062000d4f565b50606082015180516200070991600384019160209091019062000d4f565b50608082015180516200072791600484019160209091019062000d4f565b5060a082015180516200074591600584019160209091019062000d4f565b5060c082015180516200076391600684019160209091019062000d4f565b5060e082015180516200078191600784019160209091019062000d4f565b506101008201518051620007a091600884019160209091019062000d4f565b50506040805161016081018252600661012082018181526530623039306160d01b610140840181905290835283518085018552828152602081810183905280850191909152845180860186528381528082018390528486015284518086018652838152808201839052606085015284518086018652838152808201839052608085015284518086018652838152653130989c18b160d11b81830181905260a086019190915285518087018752848152653118b09bb09b60d11b8184015260c0860152855180870187528481528083019190915260e0850152845180860190955291845283820152610100820192909252600460005260108252805180519193507f1588ac671d87f82adc0e6ae8ab009c0de98f92a20243897597e566bc59b9c12692620008d39284929091019062000d4f565b506020828101518051620008ee926001850192019062000d4f565b50604082015180516200090c91600284019160209091019062000d4f565b50606082015180516200092a91600384019160209091019062000d4f565b50608082015180516200094891600484019160209091019062000d4f565b5060a082015180516200096691600584019160209091019062000d4f565b5060c082015180516200098491600684019160209091019062000d4f565b5060e08201518051620009a291600784019160209091019062000d4f565b506101008201518051620009c191600884019160209091019062000d4f565b50506040805161016081018252600661012082018181526506665653434360d41b610140840181905290835283518085018552828152602081810183905280850191909152845180860186528381526566313562623560d01b81830181905285870191909152855180870187528481528083018290526060860152855180870187528481528083018490526080860152855180870187528481526539623564653560d01b8184015260a086015285518087018752848152650c0c198d590d60d21b8184015260c0860152855180870187528481528083019190915260e0850152845180860190955291845283820152610100820192909252600560005260108252805180519193507f61a7346ab5ebdac457db2a901eaf1b805239b6049a1b2f34bab85e2e274f39cb9262000afc9284929091019062000d4f565b50602082810151805162000b17926001850192019062000d4f565b506040820151805162000b3591600284019160209091019062000d4f565b506060820151805162000b5391600384019160209091019062000d4f565b506080820151805162000b7191600484019160209091019062000d4f565b5060a0820151805162000b8f91600584019160209091019062000d4f565b5060c0820151805162000bad91600684019160209091019062000d4f565b5060e0820151805162000bcb91600784019160209091019062000d4f565b50610100820151805162000bea91600884019160209091019062000d4f565b5090505062000e32565b3390565b600880546001600160a01b038381166001600160a01b0319831681179093556040519116919082907f8be0079c531659141344cd1fd0a4f28419497f9722a3daafe3b4186f6b6457e090600090a35050565b6127106001600160601b038216111562000cbe5760405162461bcd60e51b815260206004820152602a60248201527f455243323938313a20726f79616c7479206665652077696c6c206578636565646044820152692073616c65507269636560b01b60648201526084015b60405180910390fd5b6001600160a01b03821662000d165760405162461bcd60e51b815260206004820152601960248201527f455243323938313a20696e76616c696420726563656976657200000000000000604482015260640162000cb5565b604080518082019091526001600160a01b039092168083526001600160601b039091166020909201829052600160a01b90910217600655565b82805462000d5d9062000df5565b90600052602060002090601f01602090048101928262000d81576000855562000dcc565b82601f1062000d9c57805160ff191683800117855562000dcc565b8280016001018555821562000dcc579182015b8281111562000dcc57825182559160200191906001019062000daf565b5062000dda92915062000dde565b5090565b5b8082111562000dda576000815560010162000ddf565b600181811c9082168062000e0a57607f821691505b6020821081141562000e2c57634e487b7160e01b600052602260045260246000fd5b50919050565b6144ad8062000e426000396000f3fe60806040526004361061016c5760003560e01c8063715018a6116100cc578063c319a62e1161007a578063c319a62e1461041b578063c87b56dd1461042e578063ce3e39c01461044e578063d5abeb011461046e578063e7514c9a14610484578063e985e9c514610499578063f2fde38b146104b957600080fd5b8063715018a61461034e5780638a71bb2d146103635780638da5cb5b1461039b57806395d89b41146103b0578063a035b1fe146103c5578063a22cb465146103db578063b88d4fde146103fb57600080fd5b806324600fc31161012957806324600fc31461025a578063295e328e1461026f5780632a55205a1461028f57806342842e0e146102ce5780635593152c146102ee5780636352211e1461030e57806370a082311461032e57600080fd5b806301ffc9a71461017157806306fdde03146101a6578063081812fc146101c8578063095ea7b3146101f557806318160ddd1461021757806323b872dd1461023a575b600080fd5b34801561017d57600080fd5b5061019161018c3660046126aa565b6104d9565b60405190151581526020015b60405180910390f35b3480156101b257600080fd5b506101bb6104ea565b60405161019d9190612f1a565b3480156101d457600080fd5b506101e86101e336600461272c565b61057c565b60405161019d9190612ed3565b34801561020157600080fd5b506102156102103660046125d4565b610609565b005b34801561022357600080fd5b5061022c61071a565b60405190815260200161019d565b34801561024657600080fd5b506102156102553660046124e1565b61072a565b34801561026657600080fd5b5061021561075b565b34801561027b57600080fd5b5061022c61028a36600461275e565b61079f565b34801561029b57600080fd5b506102af6102aa366004612781565b610860565b604080516001600160a01b03909316835260208301919091520161019d565b3480156102da57600080fd5b506102156102e93660046124e1565b61090c565b3480156102fa57600080fd5b506102156103093660046126e4565b610927565b34801561031a57600080fd5b506101e861032936600461272c565b61096d565b34801561033a57600080fd5b5061022c610349366004612493565b6109e4565b34801561035a57600080fd5b50610215610a6b565b34801561036f57600080fd5b50600f54610383906001600160601b031681565b6040516001600160601b03909116815260200161019d565b3480156103a757600080fd5b506101e8610aa6565b3480156103bc57600080fd5b506101bb610ab5565b3480156103d157600080fd5b5061022c600a5481565b3480156103e757600080fd5b506102156103f6366004612598565b610ac4565b34801561040757600080fd5b5061021561041636600461251d565b610acf565b6102156104293660046125fe565b610b07565b34801561043a57600080fd5b506101bb61044936600461272c565b610d24565b34801561045a57600080fd5b50600d546101e8906001600160a01b031681565b34801561047a57600080fd5b5061022c600b5481565b34801561049057600080fd5b506101bb611397565b3480156104a557600080fd5b506101916104b43660046124ae565b611425565b3480156104c557600080fd5b506102156104d4366004612493565b611453565b60006104e4826114f0565b92915050565b6060600080546104f9906130da565b80601f0160208091040260200160405190810160405280929190818152602001828054610525906130da565b80156105725780601f1061054757610100808354040283529160200191610572565b820191906000526020600020905b81548152906001019060200180831161055557829003601f168201915b5050505050905090565b600061058782611515565b6105ed5760405162461bcd60e51b815260206004820152602c60248201527f4552433732313a20617070726f76656420717565727920666f72206e6f6e657860448201526b34b9ba32b73a103a37b5b2b760a11b60648201526084015b60405180910390fd5b506000908152600460205260409020546001600160a01b031690565b60006106148261096d565b9050806001600160a01b0316836001600160a01b031614156106825760405162461bcd60e51b815260206004820152602160248201527f4552433732313a20617070726f76616c20746f2063757272656e74206f776e656044820152603960f91b60648201526084016105e4565b336001600160a01b038216148061069e575061069e8133611425565b61070b5760405162461bcd60e51b815260206004820152603860248201527f4552433732313a20617070726f76652063616c6c6572206973206e6f74206f776044820152771b995c881b9bdc88185c1c1c9bdd995908199bdc88185b1b60421b60648201526084016105e4565b6107158383611532565b505050565b600061072560095490565b905090565b61073433826115a0565b6107505760405162461bcd60e51b81526004016105e490612fb4565b61071583838361166a565b33610764610aa6565b6001600160a01b03161461078a5760405162461bcd60e51b81526004016105e490612f7f565b4761079c610796610aa6565b82611806565b50565b60008083600a546107b09190613061565b600d546040516370a0823160e01b81529192506000916001600160a01b03909116906370a08231906107e6908790600401612ed3565b60206040518083038186803b1580156107fe57600080fd5b505afa158015610812573d6000803e3d6000fd5b505050506040513d601f19601f820116820180604052508101906108369190612745565b1115610859576064600e548261084c9190613061565b610856919061304d565b90505b9392505050565b60008281526007602090815260408083208151808301909252546001600160a01b038116808352600160a01b9091046001600160601b03169282019290925282916108d55750604080518082019091526006546001600160a01b0381168252600160a01b90046001600160601b031660208201525b6020810151600090612710906108f4906001600160601b031687613061565b6108fe919061304d565b915196919550909350505050565b61071583838360405180602001604052806000815250610acf565b33610930610aa6565b6001600160a01b0316146109565760405162461bcd60e51b81526004016105e490612f7f565b805161096990600c906020840190612387565b5050565b6000818152600260205260408120546001600160a01b0316806104e45760405162461bcd60e51b815260206004820152602960248201527f4552433732313a206f776e657220717565727920666f72206e6f6e657869737460448201526832b73a103a37b5b2b760b91b60648201526084016105e4565b60006001600160a01b038216610a4f5760405162461bcd60e51b815260206004820152602a60248201527f4552433732313a2062616c616e636520717565727920666f7220746865207a65604482015269726f206164647265737360b01b60648201526084016105e4565b506001600160a01b031660009081526003602052604090205490565b33610a74610aa6565b6001600160a01b031614610a9a5760405162461bcd60e51b81526004016105e490612f7f565b610aa4600061191f565b565b6008546001600160a01b031690565b6060600180546104f9906130da565b610969338383611971565b610ad933836115a0565b610af55760405162461bcd60e51b81526004016105e490612fb4565b610b0184848484611a3c565b50505050565b8051610b13813361079f565b3414610b4f5760405162461bcd60e51b815260206004820152600b60248201526a77726f6e6720707269636560a81b60448201526064016105e4565b60058111158015610b605750600081115b610b9f5760405162461bcd60e51b815260206004820152601060248201526f34b731b7b93932b1ba10373ab6b132b960811b60448201526064016105e4565b600b5481610bac60095490565b610bb69190613035565b1115610bef5760405162461bcd60e51b8152602060048201526008602482015267185d081b1a5b5a5d60c21b60448201526064016105e4565b60005b81811015610ce8576000838281518110610c0e57610c0e613170565b6020026020010151118015610c3d57506005838281518110610c3257610c32613170565b602002602001015111155b610c7f5760405162461bcd60e51b815260206004820152601360248201527218dbdb1bdc88191bd95cdb89dd08195e1a5cdd606a1b60448201526064016105e4565b610c8d600980546001019055565b6000610c9860095490565b9050838281518110610cac57610cac613170565b60200260200101516011600083815260200190815260200160002081905550610cd53382611a6f565b5080610ce081613115565b915050610bf2565b507f7cc45df6c966bb3aa6d7fc06cd1a3ff223761069d4d81e28180723c65c5ad0a033604051610d189190612ed3565b60405180910390a15050565b60606000610d318361096d565b9050610d3c83611515565b610d795760405162461bcd60e51b815260206004820152600e60248201526d191bd95cc81b9bdd08195e1a5cdd60921b60448201526064016105e4565b600083815260116020908152604080832054808452601090925280832081516101208101909252805492939282908290610db2906130da565b80601f0160208091040260200160405190810160405280929190818152602001828054610dde906130da565b8015610e2b5780601f10610e0057610100808354040283529160200191610e2b565b820191906000526020600020905b815481529060010190602001808311610e0e57829003601f168201915b50505050508152602001600182018054610e44906130da565b80601f0160208091040260200160405190810160405280929190818152602001828054610e70906130da565b8015610ebd5780601f10610e9257610100808354040283529160200191610ebd565b820191906000526020600020905b815481529060010190602001808311610ea057829003601f168201915b50505050508152602001600282018054610ed6906130da565b80601f0160208091040260200160405190810160405280929190818152602001828054610f02906130da565b8015610f4f5780601f10610f2457610100808354040283529160200191610f4f565b820191906000526020600020905b815481529060010190602001808311610f3257829003601f168201915b50505050508152602001600382018054610f68906130da565b80601f0160208091040260200160405190810160405280929190818152602001828054610f94906130da565b8015610fe15780601f10610fb657610100808354040283529160200191610fe1565b820191906000526020600020905b815481529060010190602001808311610fc457829003601f168201915b50505050508152602001600482018054610ffa906130da565b80601f0160208091040260200160405190810160405280929190818152602001828054611026906130da565b80156110735780601f1061104857610100808354040283529160200191611073565b820191906000526020600020905b81548152906001019060200180831161105657829003601f168201915b5050505050815260200160058201805461108c906130da565b80601f01602080910402602001604051908101604052809291908181526020018280546110b8906130da565b80156111055780601f106110da57610100808354040283529160200191611105565b820191906000526020600020905b8154815290600101906020018083116110e857829003601f168201915b5050505050815260200160068201805461111e906130da565b80601f016020809104026020016040519081016040528092919081815260200182805461114a906130da565b80156111975780601f1061116c57610100808354040283529160200191611197565b820191906000526020600020905b81548152906001019060200180831161117a57829003601f168201915b505050505081526020016007820180546111b0906130da565b80601f01602080910402602001604051908101604052809291908181526020018280546111dc906130da565b80156112295780601f106111fe57610100808354040283529160200191611229565b820191906000526020600020905b81548152906001019060200180831161120c57829003601f168201915b50505050508152602001600882018054611242906130da565b80601f016020809104026020016040519081016040528092919081815260200182805461126e906130da565b80156112bb5780601f10611290576101008083540402835291602001916112bb565b820191906000526020600020905b81548152906001019060200180831161129e57829003601f168201915b505050505081525050905060006040518060a00160405280856001600160a01b03168152602001878152602001848152602001838152602001600c8054611301906130da565b80601f016020809104026020016040519081016040528092919081815260200182805461132d906130da565b801561137a5780601f1061134f5761010080835404028352916020019161137a565b820191906000526020600020905b81548152906001019060200180831161135d57829003601f168201915b5050505050815250905061138d81611a89565b9695505050505050565b600c80546113a4906130da565b80601f01602080910402602001604051908101604052809291908181526020018280546113d0906130da565b801561141d5780601f106113f25761010080835404028352916020019161141d565b820191906000526020600020905b81548152906001019060200180831161140057829003601f168201915b505050505081565b6001600160a01b03918216600090815260056020908152604080832093909416825291909152205460ff1690565b3361145c610aa6565b6001600160a01b0316146114825760405162461bcd60e51b81526004016105e490612f7f565b6001600160a01b0381166114e75760405162461bcd60e51b815260206004820152602660248201527f4f776e61626c653a206e6577206f776e657220697320746865207a65726f206160448201526564647265737360d01b60648201526084016105e4565b61079c8161191f565b60006001600160e01b0319821663152a902d60e11b14806104e457506104e482611b2a565b6000908152600260205260409020546001600160a01b0316151590565b600081815260046020526040902080546001600160a01b0319166001600160a01b03841690811790915581906115678261096d565b6001600160a01b03167f8c5be1e5ebec7d5bd14f71427d1e84f3dd0314c0f7b2291e5b200ac8c7c3b92560405160405180910390a45050565b60006115ab82611515565b61160c5760405162461bcd60e51b815260206004820152602c60248201527f4552433732313a206f70657261746f7220717565727920666f72206e6f6e657860448201526b34b9ba32b73a103a37b5b2b760a11b60648201526084016105e4565b60006116178361096d565b9050806001600160a01b0316846001600160a01b031614806116525750836001600160a01b03166116478461057c565b6001600160a01b0316145b8061166257506116628185611425565b949350505050565b826001600160a01b031661167d8261096d565b6001600160a01b0316146116e15760405162461bcd60e51b815260206004820152602560248201527f4552433732313a207472616e736665722066726f6d20696e636f72726563742060448201526437bbb732b960d91b60648201526084016105e4565b6001600160a01b0382166117435760405162461bcd60e51b8152602060048201526024808201527f4552433732313a207472616e7366657220746f20746865207a65726f206164646044820152637265737360e01b60648201526084016105e4565b61174e600082611532565b6001600160a01b0383166000908152600360205260408120805460019290611777908490613080565b90915550506001600160a01b03821660009081526003602052604081208054600192906117a5908490613035565b909155505060008181526002602052604080822080546001600160a01b0319166001600160a01b0386811691821790925591518493918716917fddf252ad1be2c89b69c2b068fc378daa952ba7f163c4a11628f55a4df523b3ef91a4505050565b804710156118565760405162461bcd60e51b815260206004820152601d60248201527f416464726573733a20696e73756666696369656e742062616c616e636500000060448201526064016105e4565b6000826001600160a01b03168260405160006040518083038185875af1925050503d80600081146118a3576040519150601f19603f3d011682016040523d82523d6000602084013e6118a8565b606091505b50509050806107155760405162461bcd60e51b815260206004820152603a60248201527f416464726573733a20756e61626c6520746f2073656e642076616c75652c207260448201527f6563697069656e74206d6179206861766520726576657274656400000000000060648201526084016105e4565b600880546001600160a01b038381166001600160a01b0319831681179093556040519116919082907f8be0079c531659141344cd1fd0a4f28419497f9722a3daafe3b4186f6b6457e090600090a35050565b816001600160a01b0316836001600160a01b031614156119cf5760405162461bcd60e51b815260206004820152601960248201527822a9219b99189d1030b8383937bb32903a379031b0b63632b960391b60448201526064016105e4565b6001600160a01b03838116600081815260056020908152604080832094871680845294825291829020805460ff191686151590811790915591519182527f17307eab39ab6107e8899845ad3d59bd9653f200f220920489ca2b5937696c31910160405180910390a3505050565b611a4784848461166a565b611a5384848484611b7a565b610b015760405162461bcd60e51b81526004016105e490612f2d565b610969828260405180602001604052806000815250611c87565b60606000611a9683611cba565b90506000611aa78460200151611d83565b608085015160408601518190611abc90611d83565b8751611ad2906001600160a01b03166014611e80565b86604051602001611ae896959493929190612940565b6040516020818303038152906040529050611b028161201b565b604051602001611b129190612d0a565b60405160208183030381529060405292505050919050565b60006001600160e01b031982166380ac58cd60e01b1480611b5b57506001600160e01b03198216635b5e139f60e01b145b806104e457506301ffc9a760e01b6001600160e01b03198316146104e4565b60006001600160a01b0384163b15611c7c57604051630a85bd0160e11b81526001600160a01b0385169063150b7a0290611bbe903390899088908890600401612ee7565b602060405180830381600087803b158015611bd857600080fd5b505af1925050508015611c08575060408051601f3d908101601f19168201909252611c05918101906126c7565b60015b611c62573d808015611c36576040519150601f19603f3d011682016040523d82523d6000602084013e611c3b565b606091505b508051611c5a5760405162461bcd60e51b81526004016105e490612f2d565b805181602001fd5b6001600160e01b031916630a85bd0160e11b149050611662565b506001949350505050565b611c91838361216e565b611c9e6000848484611b7a565b6107155760405162461bcd60e51b81526004016105e490612f2d565b60606000611d596040518060a00160405280606b815260200161440d606b9139611ce785606001516122a1565b604051806103a0016040528061036e81526020016131f361036e9139611d1587600001518860200151612334565b60405180610ee00160405280610eac8152602001613561610eac9139604051602001611d4595949392919061281a565b60405160208183030381529060405261201b565b905080604051602001611d6c9190612e8e565b604051602081830303815290604052915050919050565b606081611da75750506040805180820190915260018152600360fc1b602082015290565b8160005b8115611dd15780611dbb81613115565b9150611dca9050600a8361304d565b9150611dab565b6000816001600160401b03811115611deb57611deb613186565b6040519080825280601f01601f191660200182016040528015611e15576020820181803683370190505b5090505b841561166257611e2a600183613080565b9150611e37600a86613130565b611e42906030613035565b60f81b818381518110611e5757611e57613170565b60200101906001600160f81b031916908160001a905350611e79600a8661304d565b9450611e19565b60606000611e8f836002613061565b611e9a906002613035565b6001600160401b03811115611eb157611eb1613186565b6040519080825280601f01601f191660200182016040528015611edb576020820181803683370190505b509050600360fc1b81600081518110611ef657611ef6613170565b60200101906001600160f81b031916908160001a905350600f60fb1b81600181518110611f2557611f25613170565b60200101906001600160f81b031916908160001a9053506000611f49846002613061565b611f54906001613035565b90505b6001811115611fcc576f181899199a1a9b1b9c1cb0b131b232b360811b85600f1660108110611f8857611f88613170565b1a60f81b828281518110611f9e57611f9e613170565b60200101906001600160f81b031916908160001a90535060049490941c93611fc5816130c3565b9050611f57565b5083156108595760405162461bcd60e51b815260206004820181905260248201527f537472696e67733a20686578206c656e67746820696e73756666696369656e7460448201526064016105e4565b606081516000141561203b57505060408051602081019091526000815290565b60006040518060600160405280604081526020016131b3604091399050600060038451600261206a9190613035565b612074919061304d565b61207f906004613061565b6001600160401b0381111561209657612096613186565b6040519080825280601f01601f1916602001820160405280156120c0576020820181803683370190505b509050600182016020820185865187015b8082101561212c576003820191508151603f8160121c168501518453600184019350603f81600c1c168501518453600184019350603f8160061c168501518453600184019350603f81168501518453506001830192506120d1565b5050600386510660018114612148576002811461215b57612163565b603d6001830353603d6002830353612163565b603d60018303535b509195945050505050565b6001600160a01b0382166121c45760405162461bcd60e51b815260206004820181905260248201527f4552433732313a206d696e7420746f20746865207a65726f206164647265737360448201526064016105e4565b6121cd81611515565b1561221a5760405162461bcd60e51b815260206004820152601c60248201527f4552433732313a20746f6b656e20616c7265616479206d696e7465640000000060448201526064016105e4565b6001600160a01b0382166000908152600360205260408120805460019290612243908490613035565b909155505060008181526002602052604080822080546001600160a01b0319166001600160a01b03861690811790915590518392907fddf252ad1be2c89b69c2b068fc378daa952ba7f163c4a11628f55a4df523b3ef908290a45050565b60606000826000015183602001518460400151856060015186608001516040516020016122d2959493929190612b50565b60408051601f1981840301815290829052608085015160a086015160c087015160e08801516101008901519496506000956123109590602001612d4f565b60405160208183030381529060405290508181604051602001611b129291906127eb565b6060600061234c846001600160a01b03166014611e80565b9050600061235984611d83565b9050818160405160200161236e929190612885565b6040516020818303038152906040529250505092915050565b828054612393906130da565b90600052602060002090601f0160209004810192826123b557600085556123fb565b82601f106123ce57805160ff19168380011785556123fb565b828001600101855582156123fb579182015b828111156123fb5782518255916020019190600101906123e0565b5061240792915061240b565b5090565b5b80821115612407576000815560010161240c565b60006001600160401b0383111561243957612439613186565b61244c601f8401601f1916602001613005565b905082815283838301111561246057600080fd5b828260208301376000602084830101529392505050565b80356001600160a01b038116811461248e57600080fd5b919050565b6000602082840312156124a557600080fd5b61085982612477565b600080604083850312156124c157600080fd5b6124ca83612477565b91506124d860208401612477565b90509250929050565b6000806000606084860312156124f657600080fd5b6124ff84612477565b925061250d60208501612477565b9150604084013590509250925092565b6000806000806080858703121561253357600080fd5b61253c85612477565b935061254a60208601612477565b92506040850135915060608501356001600160401b0381111561256c57600080fd5b8501601f8101871361257d57600080fd5b61258c87823560208401612420565b91505092959194509250565b600080604083850312156125ab57600080fd5b6125b483612477565b9150602083013580151581146125c957600080fd5b809150509250929050565b600080604083850312156125e757600080fd5b6125f083612477565b946020939093013593505050565b6000602080838503121561261157600080fd5b82356001600160401b038082111561262857600080fd5b818501915085601f83011261263c57600080fd5b81358181111561264e5761264e613186565b8060051b915061265f848301613005565b8181528481019084860184860187018a101561267a57600080fd5b600095505b8386101561269d57803583526001959095019491860191860161267f565b5098975050505050505050565b6000602082840312156126bc57600080fd5b81356108598161319c565b6000602082840312156126d957600080fd5b81516108598161319c565b6000602082840312156126f657600080fd5b81356001600160401b0381111561270c57600080fd5b8201601f8101841361271d57600080fd5b61166284823560208401612420565b60006020828403121561273e57600080fd5b5035919050565b60006020828403121561275757600080fd5b5051919050565b6000806040838503121561277157600080fd5b823591506124d860208401612477565b6000806040838503121561279457600080fd5b50508035926020909101359150565b600081518084526127bb816020860160208601613097565b601f01601f19169290920160200192915050565b600081516127e1818560208601613097565b9290920192915050565b600083516127fd818460208801613097565b835190830190612811818360208801613097565b01949350505050565b6000865161282c818460208b01613097565b865190830190612840818360208b01613097565b8651910190612853818360208a01613097565b8551910190612866818360208901613097565b8451910190612879818360208801613097565b01979650505050505050565b7f3c6720636c6173733d226d65746164617461223e203c7465787420783d223530815271011103c9e911c981811101f37bbb732b91d160751b6020820152600083516128d8816032850160208801613097565b7f3c2f746578743e203c7465787420783d2235302220793d22393530223e000000603291840191820152835161291581604f840160208801613097565b711798981818181e17ba32bc3a1f101e17b39f60711b604f9290910191820152606101949350505050565b707b226e616d65223a2022536e616b65202360781b8152865160009061296d816011850160208c01613097565b7f222c20226465736372697074696f6e223a202246756c6c79206f6e20636861696011918401918201527f6e2067616d65206f6620536e616b652e20546f20656e6a6f792c2073696d706c60318201527f7920636f70792074686520696d6167652075726c20616e64207061737465206960518201527f7420696e2061207765622062726f777365722e204f722c2076697369742074686071820152740ca40b69eccccd2c6d2c2d840aecac4e6d2e8caba5605b1b60918201528751612a3a8160a6840160208c01613097565b7f2920746f207669657720616e6420706c617920796f75722067616d65732e222c60a6929091019182015270101132bc3a32b93730b62fbab936111d1160791b60c6820152612b43612b35612b2f612b16612b10612af6612af0612aa160d789018f6127cf565b7f222c202261747472696275746573223a205b7b2274726169745f74797065223a81527f2022436f6c6f7220536368656d65222c202276616c7565223a220000000000006020820152603a0190565b8c6127cf565b6d113eae96101137bbb732b9111d1160911b8152600e0190565b896127cf565b6c1116101134b6b0b3b2911d101160991b8152600d0190565b866127cf565b61227d60f01b815260020190565b9998505050505050505050565b7f3c7374796c653e202e6d65746164617461207b20666f6e743a2020333070782081526f436f75726965723b2066696c6c3a202360801b602082015260008651612ba1816030850160208b01613097565b7f207d202e7469746c65207b20666f6e743a20203830707820436f75726965723b603091840191820152672066696c6c3a202360c01b60508201528651612bef816058840160208b01613097565b7f207d202e7374617274207b666f6e743a203335707820436f75726965723b20666058929091019182015278696c6c2d6f7061636974793a202e37303b2066696c6c3a202360381b60788201528551612c4f816091840160208a01613097565b7f7d202e646972656374696f6e73207b666f6e743a206974616c69632033307078609192909101918201527f20436f75726965723b2066696c6c2d6f7061636974793a202e37303b2066696c60b1820152636c3a202360e01b60d1820152612cfe612cf8612cc060d58401886127cf565b7f207d202e73636f7265207b666f6e743a203430707820436f75726965723b2066815265696c6c3a202360d01b602082015260260190565b856127cf565b98975050505050505050565b7f646174613a6170706c69636174696f6e2f6a736f6e3b6261736536342c000000815260008251612d4281601d850160208701613097565b91909101601d0192915050565b7f7d202e6869676853636f7265207b666f6e743a203235707820436f75726965728152683b2066696c6c3a202360b81b602082015260008651612d99816029850160208b01613097565b757d202e6261636b67726f756e64207b66696c6c3a202360501b6029918401918201528651612dcf81603f840160208b01613097565b6e7d202e6d6170207b66696c6c3a202360881b603f92909101918201528551612dff81604e840160208a01613097565b7f7d202e666f6f64207b7374726f6b653a20233030303b2066696c6c3a20230000604e92909101918201528451612e3d81606c840160208901613097565b7f7d202e736e616b657b7374726f6b653a20233030303b2066696c6c3a20230000606c9290910191820152612cfe612e78608a8301866127cf565b693e901e17b9ba3cb6329f60b11b8152600a0190565b7f646174613a696d6167652f7376672b786d6c3b6261736536342c000000000000815260008251612ec681601a850160208701613097565b91909101601a0192915050565b6001600160a01b0391909116815260200190565b6001600160a01b038581168252841660208201526040810183905260806060820181905260009061138d908301846127a3565b60208152600061085960208301846127a3565b60208082526032908201527f4552433732313a207472616e7366657220746f206e6f6e20455243373231526560408201527131b2b4bb32b91034b6b83632b6b2b73a32b960711b606082015260800190565b6020808252818101527f4f776e61626c653a2063616c6c6572206973206e6f7420746865206f776e6572604082015260600190565b60208082526031908201527f4552433732313a207472616e736665722063616c6c6572206973206e6f74206f6040820152701ddb995c881b9bdc88185c1c1c9bdd9959607a1b606082015260800190565b604051601f8201601f191681016001600160401b038111828210171561302d5761302d613186565b604052919050565b6000821982111561304857613048613144565b500190565b60008261305c5761305c61315a565b500490565b600081600019048311821515161561307b5761307b613144565b500290565b60008282101561309257613092613144565b500390565b60005b838110156130b257818101518382015260200161309a565b83811115610b015750506000910152565b6000816130d2576130d2613144565b506000190190565b600181811c908216806130ee57607f821691505b6020821081141561310f57634e487b7160e01b600052602260045260246000fd5b50919050565b600060001982141561312957613129613144565b5060010190565b60008261313f5761313f61315a565b500690565b634e487b7160e01b600052601160045260246000fd5b634e487b7160e01b600052601260045260246000fd5b634e487b7160e01b600052603260045260246000fd5b634e487b7160e01b600052604160045260246000fd5b6001600160e01b03198116811461079c57600080fdfe4142434445464748494a4b4c4d4e4f505152535455565758595a6162636465666768696a6b6c6d6e6f707172737475767778797a303132333435363738392b2f3c67207374726f6b653d222330303022203e203c7265637420636c6173733d226261636b67726f756e642220783d22302220793d2230222077696474683d223130303022206865696768743d2231303030222f3e203c7265637420636c6173733d226d61702220783d223230302220793d22323030222077696474683d2236303022206865696768743d22363030222f3e203c2f673e203c7465787420793d223132302220783d223530252220746578742d616e63686f723d226d6964646c652220636c6173733d227469746c65223e736e616b653c2f746578743e203c746578742069643d227374617274546578742220783d223530252220793d223630302220746578742d616e63686f723d226d6964646c652220636c6173733d22737461727422203e3c2f746578743e203c746578742069643d22646972656374696f6e732220783d223530252220793d223635302220746578742d616e63686f723d226d6964646c652220636c6173733d22646972656374696f6e7322203e3c2f746578743e203c7465787420783d223930302220793d223235302220746578742d616e63686f723d226d6964646c652220636c6173733d2273636f726522203e2053636f72653a3c2f746578743e203c746578742069643d2273636f7265436f756e7465722220783d223833302220793d223330302220636c6173733d2273636f726522203e3c2f746578743e203c746578742020783d223930302220793d223535302220746578742d616e63686f723d226d6964646c652220636c6173733d226869676853636f726522203e20686967682073636f7265733a3c2f746578743e203c746578742069643d226873312220783d223833302220793d223630302220636c6173733d2273636f726522203e3c2f746578743e203c746578742069643d226873322220783d223833302220793d223635302220636c6173733d2273636f726522203e3c2f746578743e203c746578742069643d226873332220783d223833302220793d223730302220636c6173733d2273636f726522203e3c2f746578743e203c746578742069643d226873342220783d223833302220793d223735302220636c6173733d2273636f726522203e3c2f746578743e203c746578742069643d226873352220783d223833302220793d223830302220636c6173733d2273636f726522203e3c2f746578743e3c726563742069643d22736e616b652220636c6173733d22736e616b652220783d223530302220793d22353030222077696474683d22323022206865696768743d223230222f3e203c726563742069643d22666f6f642220636c6173733d22666f6f642220783d222d35302220793d222d3530222077696474683d22323022206865696768743d223230222f3e203c73637269707420747970653d22746578742f6a617661736372697074223e3c215b43444154415b76617220666f6f64436f6f7264732c4b45593d7b773a38372c613a36352c733a38332c643a36382c73706163653a33327d2c6d6f766553706565643d32302c73636f72653d302c6869676853636f7265733d5b5d2c736e616b65486561643d646f63756d656e742e676574456c656d656e74427949642822736e616b6522292c7376673d646f63756d656e742e676574456c656d656e747342795461674e616d65282273766722295b305d2c7374617274546578743d646f63756d656e742e676574456c656d656e7442794964282273746172745465787422292c646972656374696f6e733d646f63756d656e742e676574456c656d656e74427949642822646972656374696f6e7322292c666f6f643d646f63756d656e742e676574456c656d656e74427949642822666f6f6422292c73636f7265436f756e7465723d646f63756d656e742e676574456c656d656e7442794964282273636f7265436f756e74657222293b7374617274546578742e74657874436f6e74656e743d22707265737320737061636520746f207374617274222c646972656374696f6e732e74657874436f6e74656e743d227468656e20772c20612c20732c2064223b76617220736e616b65426f64793d5b5d3b69735475726e696e673d21312c697352756e6e696e673d21313b7661722063757272656e74446972656374696f6e3d227269676874223b646f63756d656e742e646f63756d656e74456c656d656e742e6164644576656e744c697374656e657228226b6579646f776e222c66756e6374696f6e2865297b68616e646c65496e7075742865297d2c2131293b7661722074696d657246756e6374696f6e3d6e756c6c3b66756e6374696f6e20737461727447616d6528297b6e756c6c3d3d74696d657246756e6374696f6e26262874696d657246756e6374696f6e3d736574496e74657276616c28676f2c3830292c72616e646f6d5f666f6f6428292c7374617274546578742e74657874436f6e74656e743d22222c646972656374696f6e732e74657874436f6e74656e743d22222c73636f7265436f756e7465722e74657874436f6e74656e743d73636f72652c697352756e6e696e673d2130297d66756e6374696f6e2075706461746553636f726528297b73636f72652b3d312c73636f7265436f756e7465722e74657874436f6e74656e743d73636f72657d66756e6374696f6e2072616e646f6d5f666f6f6428297b76617220653d4d6174682e666c6f6f722833302a4d6174682e72616e646f6d2829292c743d4d6174682e666c6f6f722833302a4d6174682e72616e646f6d2829293b652b3230303e373830262628653d373830292c742b3230303e373830262628743d373830292c666f6f64436f6f7264733d5b32302a652b3230302c32302a742b3230305d2c666f6f642e736574417474726962757465282278222c32302a652b323030292c666f6f642e736574417474726962757465282279222c32302a742b323030297d66756e6374696f6e207570646174654869676853636f726528297b76617220653d6869676853636f7265732e6c656e6774683b69662873636f72653c3d6869676853636f7265735b652d315d7c7c6869676853636f7265732e696e636c756465732873636f7265292972657475726e3b653e3d3526266869676853636f7265732e706f7028293b6c657420743d6869676853636f7265732e66696e64496e64657828653d3e73636f72653e65293b6869676853636f7265732e73706c69636528742c302c73636f7265293b666f7228766172206e3d313b6e3c3d6869676853636f7265732e6c656e6774683b6e2b2b297b646f63756d656e742e676574456c656d656e744279496428606873247b6e7d60292e74657874436f6e74656e743d6869676853636f7265735b6e2d315d7d7d66756e6374696f6e20726573657428297b69662831213d697352756e6e696e67297b646f63756d656e742e646f63756d656e74456c656d656e742e72656d6f76654576656e744c697374656e657228226b6579646f776e222c66756e6374696f6e2865297b68616e646c65496e7075742865297d2c2131292c636c656172496e74657276616c2874696d657246756e6374696f6e292c74696d657246756e6374696f6e3d6e756c6c2c69735475726e696e673d21313b666f722876617220653d303b653c736e616b65426f64792e6c656e6774683b652b2b297376672e72656d6f76654368696c6428736e616b65426f64795b655d293b736e616b65426f64793d5b5d2c73636f7265436f756e7465722e74657874436f6e74656e743d73636f72653d302c666f6f642e736574417474726962757465282278222c2d3530292c666f6f642e736574417474726962757465282279222c2d3530292c7374617274546578742e74657874436f6e74656e743d22707265737320737061636520746f207374617274222c646972656374696f6e732e74657874436f6e74656e743d227468656e20772c20612c20732c2064222c736e616b65486561642e736574417474726962757465282278222c353030292c736e616b65486561642e736574417474726962757465282279222c353030292c646f63756d656e742e646f63756d656e74456c656d656e742e6164644576656e744c697374656e657228226b6579646f776e222c66756e6374696f6e2865297b68616e646c65496e7075742865297d2c2131297d7d66756e6374696f6e20617070656e64536e616b6528297b76617220653d736e616b65486561642e636c6f6e654e6f6465282130292c743d736e616b65426f64792e6c656e6774683b743e30262628652e736574417474726962757465282278222c312a736e616b65426f64795b742d315d2e6765744174747269627574652822782229292c652e736574417474726962757465282279222c312a736e616b65426f64795b742d315d2e676574417474726962757465282279222929292c736e616b65426f64792e707573682865292c7376672e617070656e644368696c642865297d66756e6374696f6e20757064617465536e616b6528297b666f722876617220653d312a736e616b65486561642e67657441747472696275746528227822292c743d312a736e616b65486561642e67657441747472696275746528227922292c6e3d736e616b65426f64792e6c656e6774682d313b6e3e3d303b6e2d2d29696628303d3d6e29736e616b65426f64795b305d2e736574417474726962757465282278222c65292c736e616b65426f64795b305d2e736574417474726962757465282279222c74293b656c73657b766172206f3d312a736e616b65426f64795b6e2d315d2e67657441747472696275746528227822292c723d312a736e616b65426f64795b6e2d315d2e67657441747472696275746528227922293b696628736e616b65426f64795b6e5d2e736574417474726962757465282278222c6f292c736e616b65426f64795b6e5d2e736574417474726962757465282279222c72292c6f3d3d652626723d3d74297b636f6e736f6c652e6c6f6728223a2822292c697352756e6e696e673d21312c7570646174654869676853636f726528292c726573657428293b627265616b7d7d69735475726e696e673d21317d66756e6374696f6e20676f28297b76617220653d312a736e616b65486561642e67657441747472696275746528227822292c743d312a736e616b65486561642e67657441747472696275746528227922293b696628757064617465536e616b6528292c313d3d697352756e6e696e67297377697463682863757272656e74446972656374696f6e297b63617365227269676874223a736e616b65486561642e736574417474726962757465282278222c652b3d6d6f76655370656564293b627265616b3b63617365226c656674223a736e616b65486561642e736574417474726962757465282278222c652d3d6d6f76655370656564293b627265616b3b63617365227570223a736e616b65486561642e736574417474726962757465282279222c742d3d6d6f76655370656564293b627265616b3b6361736522646f776e223a736e616b65486561642e736574417474726962757465282279222c742b3d6d6f76655370656564297d28653c3d3138307c7c653e3d3830307c7c743c3d3138307c7c743e3d38303029262628636f6e736f6c652e6c6f6728223a2822292c697352756e6e696e673d21312c7570646174654869676853636f726528292c72657365742829292c653d3d666f6f64436f6f7264735b305d2626743d3d666f6f64436f6f7264735b315d26262872616e646f6d5f666f6f6428292c75706461746553636f726528292c617070656e64536e616b652829297d66756e6374696f6e2068616e646c65496e7075742865297b696628652e6b6579436f64653d3d4b45592e73706163652626737461727447616d6528292c31213d69735475726e696e67297377697463682869735475726e696e673d21302c652e6b6579436f6465297b63617365204b45592e773a22646f776e22213d63757272656e74446972656374696f6e26262863757272656e74446972656374696f6e3d22757022293b627265616b3b63617365204b45592e733a22757022213d63757272656e74446972656374696f6e26262863757272656e74446972656374696f6e3d22646f776e22293b627265616b3b63617365204b45592e613a22726967687422213d63757272656e74446972656374696f6e26262863757272656e74446972656374696f6e3d226c65667422293b627265616b3b63617365204b45592e643a226c65667422213d63757272656e74446972656374696f6e26262863757272656e74446972656374696f6e3d22726967687422297d7d5d5d3e3c2f7363726970743e203c2f7376673e3c73766720786d6c6e733d22687474703a2f2f7777772e77332e6f72672f323030302f7376672220786d6c6e733a786c696e6b3d22687474703a2f2f7777772e77332e6f72672f313939392f786c696e6b222076696577426f783d2230203020313030302031303030223ea2646970667358221220222f2b7a984035c4e45f398edd7402daa014da9aa5c01d41537b2953ded9eeba64736f6c63430008070033",
  "immutableReferences": {},
  "source": "// SPDX-License-Identifier: MIT\r\n\r\n\r\n// // // // // // // // // // // // // // // // // // // // // // // // // // // // //\r\n//                             ,--.                          ,--.                   //     \r\n//        .--.--.            ,--.'|     ,---,            ,--/  /|      ,---,.       //     \r\n//       /  /    '.      ,--,:  : |    '  .' \\        ,---,': / '    ,'  .' |       //      \r\n//      |  :  /`. /   ,`--.'`|  ' :   /  ;    '.      :   : '/ /   ,---.'   |       //      \r\n//      ;  |  |--`    |   :  :  | |  :  :       \\     |   '   ,    |   |   .'       //      \r\n//      |  :  ;_      :   |   \\ | :  :  |   /\\   \\    '   |  /     :   :  |-,       //      \r\n//       \\  \\    `.   |   : '  '; |  |  :  ' ;.   :   |   ;  ;     :   |  ;/|       //      \r\n//        `----.   \\  '   ' ;.    ;  |  |  ;/  \\   \\  :   '   \\    |   :   .'       //      \r\n//        __ \\  \\  |  |   | | \\   |  '  :  | \\  \\ ,'  |   |    '   |   |  |-,       //      \r\n//       /  /`--'  /  '   : |  ; .'  |  |  '  '--'    '   : |.  \\  '   :  ;/|       //      \r\n//      '--'.     /   |   | '`--'    |  :  :          |   | '_\\.'  |   |    |       //      \r\n//        `--'---'    '   : |        |  | ,'          '   : |      |   :   .'       //      \r\n//                    ;   |.'        `--''            ;   |,'      |   | ,'         //     \r\n//                    '---'                           '---'        `----'           //    \r\n// // // // // // // // // // // // // // // // // // // // // // // // // // // // //                                                          \r\n\r\npragma solidity 0.8.7;\r\n\r\n\r\n\r\nimport \"@openzeppelin/contracts/token/ERC721/ERC721.sol\";\r\nimport \"@openzeppelin/contracts/token/common/ERC2981.sol\";\r\nimport \"@openzeppelin/contracts/access/Ownable.sol\";\r\nimport \"@openzeppelin/contracts/utils/Counters.sol\";\r\nimport \"./SnakeLib.sol\";\r\nimport \"./ICalculator.sol\";\r\n\r\ncontract Snake is ERC721, ERC2981, Ownable {\r\n    using Counters for Counters.Counter;\r\n    Counters.Counter private tokenSupply;\r\n    \r\n    uint public price = 0.05 ether;\r\n    uint public maxSupply = 10_000;\r\n\r\n    string public frontEnd = \"TBD\";\r\n\r\n    ICalculator public calculator = ICalculator(0x93d447D47743E2D4BCAF8bF18e8562d89692CFDe);\r\n\r\n    uint CalcOwnerMultiplier = 80; // calculator owners pay 80% of the price; \r\n\r\n\r\n    uint96 public royaltyPercentage = 250; // 2.5% in basis points\r\n\r\n\r\n    mapping(uint => SnakeLib.ColorScheme) internal colorIdToScheme;\r\n    \r\n    mapping(uint => uint) internal idToSchemeIndex;\r\n\r\n\r\n    \r\n\r\n    \r\n    event TokenMint(address purchaser);\r\n\r\n\r\n    constructor() ERC721(\"Snake\", \"SNAKE\") {\r\n        // frontEnd = \"TBD\";\r\n        // maxSupply = 10_000;\r\n        // CalcOwnerMultiplier = 80; // calculator owners pay 80% of the price\r\n        // royaltyPercentage = 250; // 2.5% in basis points\r\n        // price = 0.05 ether;\r\n        // calculator = ICalculator(0x93d447D47743E2D4BCAF8bF18e8562d89692CFDe);\r\n        _setDefaultRoyalty(address(this), 250);\r\n\r\n        colorIdToScheme[1] = SnakeLib.ColorScheme(\r\n            \"a612de\",\r\n            \"a612de\",\r\n            \"a612de\",\r\n            \"a612de\",\r\n            \"a612de\",\r\n            \"EBDEF0\",\r\n            \"ffe599\",\r\n            \"27AE60\",\r\n            \"FF5D3B\"\r\n            );\r\n        colorIdToScheme[2] = SnakeLib.ColorScheme(\r\n            \"227c9d\",\r\n            \"227c9d\",\r\n            \"227c9d\",\r\n            \"227c9d\",\r\n            \"227c9d\",\r\n            \"fef9ef\",\r\n            \"17c3b2\",\r\n            \"fe6d73\",\r\n            \"ffcb77\"\r\n            );\r\n        colorIdToScheme[3] = SnakeLib.ColorScheme(\r\n            \"2c6e49\",\r\n            \"4c956c\",\r\n            \"4c956c\",\r\n            \"4c956c\",\r\n            \"4c956c\",\r\n            \"ffc9b9\",\r\n            \"fefee3\",\r\n            \"ffc9b9\",\r\n            \"4c956c\"\r\n            );\r\n\r\n        colorIdToScheme[4] = SnakeLib.ColorScheme(\r\n            \"0b090a\",\r\n            \"0b090a\",\r\n            \"0b090a\",\r\n            \"0b090a\",\r\n            \"0b090a\",\r\n            \"ba181b\",\r\n            \"b1a7a6\",\r\n            \"ba181b\",\r\n            \"0b090a\"\r\n            );\r\n        \r\n\r\n        colorIdToScheme[5] = SnakeLib.ColorScheme(\r\n            \"fee440\",\r\n            \"fee440\",\r\n            \"f15bb5\",\r\n            \"f15bb5\",\r\n            \"fee440\",\r\n            \"9b5de5\",\r\n            \"00f5d4\",\r\n            \"f15bb5\",\r\n            \"fee440\"\r\n            );\r\n\r\n    }\r\n\r\n    /**\r\n     * Takes an array of numbers from 1-5\r\n     */\r\n\r\n    function buySnake(uint[] memory schemeIds) public payable {\r\n        uint totalMints = schemeIds.length;\r\n        require(msg.value == getFinalPrice(totalMints, msg.sender), \"wrong price\");\r\n        require(totalMints <= 5 && totalMints > 0, \"incorrect number\");\r\n        require(tokenSupply.current() + totalMints <= maxSupply, \"at limit\");\r\n\r\n        for(uint i=0; i<totalMints; i++) {\r\n            require(schemeIds[i] > 0 && schemeIds[i]<=5, \"color doesn't exist\");\r\n            tokenSupply.increment();\r\n            uint256 newItemId = tokenSupply.current();\r\n            idToSchemeIndex[newItemId] = schemeIds[i];\r\n            _safeMint(msg.sender, newItemId);\r\n        }\r\n\r\n        emit TokenMint(msg.sender);\r\n    }\r\n\r\n    function totalSupply() public view returns(uint supply) {\r\n        supply = tokenSupply.current();\r\n    }\r\n\r\n    function getFinalPrice(uint amount, address user) public view returns (uint) {\r\n        uint finalPrice = price * amount;\r\n        if(calculator.balanceOf(user) > 0) {\r\n            finalPrice = (finalPrice * CalcOwnerMultiplier) / 100;\r\n        }\r\n\r\n        return finalPrice;\r\n\r\n    }\r\n\r\n\r\n\r\n\r\n    // function tokenIdsByOwner(address owner) public view returns(uint[] memory) {\r\n    //     uint arrLength = balanceOf(owner);\r\n    //     uint[] memory arr = new uint[](arrLength);\r\n    //     for (uint i=0;i<arrLength; i++) {\r\n    //         arr[i] = tokenOfOwnerByIndex(owner, i);\r\n    //     }\r\n    //     return arr;\r\n\r\n    // }\r\n\r\n    function tokenURI(uint256 id) public view override returns (string memory) {\r\n\r\n        address owner = ownerOf(id);\r\n        require(_exists(id), \"does not exist\");\r\n        uint schemeIndex = idToSchemeIndex[id];\r\n        SnakeLib.ColorScheme memory scheme = colorIdToScheme[schemeIndex];\r\n        \r\n        SnakeLib.MetaData memory metaData = SnakeLib.MetaData({\r\n            _owner: owner,\r\n            _id: id,\r\n            _schemeIndex: schemeIndex,\r\n            _scheme: scheme,\r\n            _frontEnd: frontEnd\r\n        });\r\n\r\n        return SnakeLib.generateTokenURI(metaData);\r\n\r\n\r\n\r\n    }\r\n    \r\n\r\n    // OWNER FUNCTIONS\r\n    function withdrawFunds() public onlyOwner {\r\n        uint amount = address(this).balance;\r\n        Address.sendValue(payable(owner()), amount);\r\n    }\r\n\r\n    function setFrontEnd(string memory _frontEnd) public onlyOwner {\r\n        frontEnd = _frontEnd;\r\n    }\r\n\r\n\r\n\r\n    // REQUIRED OVERRIDES:\r\n    // function _beforeTokenTransfer(address from, address to, uint256 tokenId)\r\n    //     internal\r\n    //     override(ERC721Enumerable)\r\n    // {\r\n    //     super._beforeTokenTransfer(from, to, tokenId);\r\n    // }\r\n\r\n    function supportsInterface(bytes4 interfaceId)\r\n        public\r\n        view\r\n        override(ERC721,ERC2981)\r\n        returns (bool)\r\n    {\r\n        return super.supportsInterface(interfaceId);\r\n\r\n    }\r\n\r\n    function _burn(uint256 tokenId) internal virtual override {\r\n        super._burn(tokenId);\r\n        _resetTokenRoyalty(tokenId);\r\n    }\r\n\r\n\r\n\r\n\r\n\r\n\r\n}",
  "sourcePath": "C:\\Users\\13018\\Documents\\CODE\\SOLIDITY\\Snake\\contracts\\Snake.sol",
  "compiler": {
    "name": "solc",
    "version": "0.8.7+commit.e28d00a7.Emscripten.clang"
  },
  "schemaVersion": "3.4.4",
  "updatedAt": "2022-04-21T16:23:01.027Z",
  "networkType": "ethereum",
  "devdoc": {
    "kind": "dev",
    "methods": {
      "approve(address,uint256)": {
        "details": "See {IERC721-approve}."
      },
      "balanceOf(address)": {
        "details": "See {IERC721-balanceOf}."
      },
      "getApproved(uint256)": {
        "details": "See {IERC721-getApproved}."
      },
      "isApprovedForAll(address,address)": {
        "details": "See {IERC721-isApprovedForAll}."
      },
      "name()": {
        "details": "See {IERC721Metadata-name}."
      },
      "owner()": {
        "details": "Returns the address of the current owner."
      },
      "ownerOf(uint256)": {
        "details": "See {IERC721-ownerOf}."
      },
      "renounceOwnership()": {
        "details": "Leaves the contract without owner. It will not be possible to call `onlyOwner` functions anymore. Can only be called by the current owner. NOTE: Renouncing ownership will leave the contract without an owner, thereby removing any functionality that is only available to the owner."
      },
      "royaltyInfo(uint256,uint256)": {
        "details": "Returns how much royalty is owed and to whom, based on a sale price that may be denominated in any unit of exchange. The royalty amount is denominated and should be payed in that same unit of exchange."
      },
      "safeTransferFrom(address,address,uint256)": {
        "details": "See {IERC721-safeTransferFrom}."
      },
      "safeTransferFrom(address,address,uint256,bytes)": {
        "details": "See {IERC721-safeTransferFrom}."
      },
      "setApprovalForAll(address,bool)": {
        "details": "See {IERC721-setApprovalForAll}."
      },
      "symbol()": {
        "details": "See {IERC721Metadata-symbol}."
      },
      "transferFrom(address,address,uint256)": {
        "details": "See {IERC721-transferFrom}."
      },
      "transferOwnership(address)": {
        "details": "Transfers ownership of the contract to a new account (`newOwner`). Can only be called by the current owner."
      }
    },
    "version": 1
  },
  "userdoc": {
    "kind": "user",
    "methods": {
      "buySnake(uint256[])": {
        "notice": "Takes an array of numbers from 1-5"
      }
    },
    "version": 1
  }
}